{
  "_format": "hh-sol-artifact-1",
  "contractName": "RiskRouter",
  "sourceName": "contracts/RiskRouter.sol",
  "abi": [
    {
      "inputs": [
        {
          "internalType": "address",
          "name": "_agentRegistry",
          "type": "address"
        }
      ],
      "stateMutability": "nonpayable",
      "type": "constructor"
    },
    {
      "anonymous": false,
      "inputs": [
        {
          "indexed": false,
          "internalType": "uint256",
          "name": "maxSingleTradeUsd",
          "type": "uint256"
        },
        {
          "indexed": false,
          "internalType": "uint256",
          "name": "maxDailyLossUsd",
          "type": "uint256"
        }
      ],
      "name": "LimitsUpdated",
      "type": "event"
    },
    {
      "anonymous": false,
      "inputs": [
        {
          "indexed": false,
          "internalType": "string",
          "name": "token",
          "type": "string"
        },
        {
          "indexed": false,
          "internalType": "bool",
          "name": "allowed",
          "type": "bool"
        }
      ],
      "name": "TokenAllowlistUpdated",
      "type": "event"
    },
    {
      "anonymous": false,
      "inputs": [
        {
          "indexed": true,
          "internalType": "uint256",
          "name": "agentId",
          "type": "uint256"
        },
        {
          "indexed": true,
          "internalType": "address",
          "name": "wallet",
          "type": "address"
        },
        {
          "indexed": false,
          "internalType": "bytes32",
          "name": "tradeHash",
          "type": "bytes32"
        },
        {
          "indexed": false,
          "internalType": "string",
          "name": "tokenPair",
          "type": "string"
        },
        {
          "indexed": false,
          "internalType": "string",
          "name": "action",
          "type": "string"
        },
        {
          "indexed": false,
          "internalType": "uint256",
          "name": "amountUsd",
          "type": "uint256"
        }
      ],
      "name": "TradeApproved",
      "type": "event"
    },
    {
      "anonymous": false,
      "inputs": [
        {
          "indexed": true,
          "internalType": "uint256",
          "name": "agentId",
          "type": "uint256"
        },
        {
          "indexed": false,
          "internalType": "bytes32",
          "name": "tradeHash",
          "type": "bytes32"
        },
        {
          "indexed": false,
          "internalType": "string",
          "name": "reason",
          "type": "string"
        }
      ],
      "name": "TradeRejected",
      "type": "event"
    },
    {
      "inputs": [],
      "name": "DOMAIN_SEPARATOR",
      "outputs": [
        {
          "internalType": "bytes32",
          "name": "",
          "type": "bytes32"
        }
      ],
      "stateMutability": "view",
      "type": "function"
    },
    {
      "inputs": [],
      "name": "TRADE_TYPEHASH",
      "outputs": [
        {
          "internalType": "bytes32",
          "name": "",
          "type": "bytes32"
        }
      ],
      "stateMutability": "view",
      "type": "function"
    },
    {
      "inputs": [
        {
          "internalType": "uint256",
          "name": "",
          "type": "uint256"
        }
      ],
      "name": "agentDailyStats",
      "outputs": [
        {
          "internalType": "uint256",
          "name": "date",
          "type": "uint256"
        },
        {
          "internalType": "uint256",
          "name": "totalLossUsd",
          "type": "uint256"
        },
        {
          "internalType": "uint256",
          "name": "tradeCount",
          "type": "uint256"
        }
      ],
      "stateMutability": "view",
      "type": "function"
    },
    {
      "inputs": [
        {
          "internalType": "uint256",
          "name": "",
          "type": "uint256"
        }
      ],
      "name": "agentNonces",
      "outputs": [
        {
          "internalType": "uint256",
          "name": "",
          "type": "uint256"
        }
      ],
      "stateMutability": "view",
      "type": "function"
    },
    {
      "inputs": [],
      "name": "agentRegistry",
      "outputs": [
        {
          "internalType": "contract AgentRegistry",
          "name": "",
          "type": "address"
        }
      ],
      "stateMutability": "view",
      "type": "function"
    },
    {
      "inputs": [
        {
          "internalType": "string",
          "name": "",
          "type": "string"
        }
      ],
      "name": "allowedTokens",
      "outputs": [
        {
          "internalType": "bool",
          "name": "",
          "type": "bool"
        }
      ],
      "stateMutability": "view",
      "type": "function"
    },
    {
      "inputs": [
        {
          "internalType": "uint256",
          "name": "agentId",
          "type": "uint256"
        }
      ],
      "name": "getAgentNonce",
      "outputs": [
        {
          "internalType": "uint256",
          "name": "",
          "type": "uint256"
        }
      ],
      "stateMutability": "view",
      "type": "function"
    },
    {
      "inputs": [
        {
          "internalType": "bytes32",
          "name": "tradeHash",
          "type": "bytes32"
        }
      ],
      "name": "isTradeProcessed",
      "outputs": [
        {
          "internalType": "bool",
          "name": "",
          "type": "bool"
        }
      ],
      "stateMutability": "view",
      "type": "function"
    },
    {
      "inputs": [],
      "name": "maxDailyLossUsd",
      "outputs": [
        {
          "internalType": "uint256",
          "name": "",
          "type": "uint256"
        }
      ],
      "stateMutability": "view",
      "type": "function"
    },
    {
      "inputs": [],
      "name": "maxSingleTradeUsd",
      "outputs": [
        {
          "internalType": "uint256",
          "name": "",
          "type": "uint256"
        }
      ],
      "stateMutability": "view",
      "type": "function"
    },
    {
      "inputs": [],
      "name": "minConfidence",
      "outputs": [
        {
          "internalType": "uint256",
          "name": "",
          "type": "uint256"
        }
      ],
      "stateMutability": "view",
      "type": "function"
    },
    {
      "inputs": [],
      "name": "owner",
      "outputs": [
        {
          "internalType": "address",
          "name": "",
          "type": "address"
        }
      ],
      "stateMutability": "view",
      "type": "function"
    },
    {
      "inputs": [
        {
          "internalType": "bytes32",
          "name": "",
          "type": "bytes32"
        }
      ],
      "name": "processedTrades",
      "outputs": [
        {
          "internalType": "bool",
          "name": "",
          "type": "bool"
        }
      ],
      "stateMutability": "view",
      "type": "function"
    },
    {
      "inputs": [
        {
          "internalType": "uint256",
          "name": "maxSingle",
          "type": "uint256"
        },
        {
          "internalType": "uint256",
          "name": "maxDaily",
          "type": "uint256"
        }
      ],
      "name": "setLimits",
      "outputs": [],
      "stateMutability": "nonpayable",
      "type": "function"
    },
    {
      "inputs": [
        {
          "internalType": "uint256",
          "name": "threshold",
          "type": "uint256"
        }
      ],
      "name": "setMinConfidence",
      "outputs": [],
      "stateMutability": "nonpayable",
      "type": "function"
    },
    {
      "inputs": [
        {
          "internalType": "string",
          "name": "token",
          "type": "string"
        },
        {
          "internalType": "bool",
          "name": "allowed",
          "type": "bool"
        }
      ],
      "name": "setTokenAllowed",
      "outputs": [],
      "stateMutability": "nonpayable",
      "type": "function"
    },
    {
      "inputs": [
        {
          "components": [
            {
              "internalType": "uint256",
              "name": "agentId",
              "type": "uint256"
            },
            {
              "internalType": "string",
              "name": "tokenPair",
              "type": "string"
            },
            {
              "internalType": "string",
              "name": "action",
              "type": "string"
            },
            {
              "internalType": "uint256",
              "name": "amountUsd",
              "type": "uint256"
            },
            {
              "internalType": "uint256",
              "name": "confidence",
              "type": "uint256"
            },
            {
              "internalType": "string",
              "name": "reason",
              "type": "string"
            },
            {
              "internalType": "uint256",
              "name": "nonce",
              "type": "uint256"
            },
            {
              "internalType": "uint256",
              "name": "deadline",
              "type": "uint256"
            }
          ],
          "internalType": "struct RiskRouter.TradeIntent",
          "name": "intent",
          "type": "tuple"
        },
        {
          "internalType": "uint8",
          "name": "v",
          "type": "uint8"
        },
        {
          "internalType": "bytes32",
          "name": "r",
          "type": "bytes32"
        },
        {
          "internalType": "bytes32",
          "name": "s",
          "type": "bytes32"
        }
      ],
      "name": "submitTrade",
      "outputs": [
        {
          "internalType": "bool",
          "name": "approved",
          "type": "bool"
        },
        {
          "internalType": "bytes32",
          "name": "tradeHash",
          "type": "bytes32"
        }
      ],
      "stateMutability": "nonpayable",
      "type": "function"
    }
  ],
  "bytecode": "0x60a0604090808252346101d15760208161110b80380380916100218285610222565b8339810103126101d157516001600160a01b038116908190036101d1576207a120600255620f4240600355602d60045560018060a01b0319906001913381845416178355600054161760005581516208aa8960eb1b81528160246023600593846003820152209260ff19938385825416179055602386516242544360e81b815282600382015220838582541617905560258651644d4154494360d81b81528280820152208385825416179055818651634c494e4b60e01b81528260048201522083858254161790556023865162554e4960e81b8152826003820152208385825416179055855190634141564560e01b825260048201522091825416179055600e6020835161012e816101d6565b828152016d1052551c98591a5b99d059d95b9d60921b8152209060208351610155816101d6565b82815201603160f81b81522082519060208201927f8b73c3c69bb8fe3d512ecc4cf759cc79239f7b179b0ffacaa9a75d522b39400f84528483015260608201524660808201523060a082015260a081526101ae81610207565b51902060805251610ec59081610246823960805181818161034b015261077a0152f35b600080fd5b604081019081106001600160401b038211176101f157604052565b634e487b7160e01b600052604160045260246000fd5b60c081019081106001600160401b038211176101f157604052565b601f909101601f19168101906001600160401b038211908210176101f15760405256fe608060408181526004918236101561001657600080fd5b600090813560e01c9081630d1cfcae146104b7575080631344c76e14610479578063260f0608146102015780632bba58ac1461043e578063351f0dbe1461036e5780633644e515146103335780634cfee215146101d95780635764390c1461030457806363e93557146102e5578063840364351461027a5780638da5cb5b146102515780638fe9099a1461022e57806391be86be14610201578063ace1854b146101d9578063c4590d3f14610175578063d52b7a14146101535763fb9576da146100df57600080fd5b346101505760203660031901126101505782359067ffffffffffffffff82116101505736602383011215610150575061013b6020610129819584602460ff9636930135910161054b565b81855193828580945193849201610587565b81016005815203019020541690519015158152f35b80fd5b50913461017157826003193601126101715760209250549051908152f35b8280fd5b509190346101715780600319360112610171577f4d4981437d0211f9e6843eb024d9ada1fa3a99514d4343d4aece106dd11524bb91356024356101c360018060a01b036001541633146105aa565b816002558060035582519182526020820152a180f35b5091346101715760203660031901126101715760209282913581526008845220549051908152f35b509134610171576020366003190112610171578160209360ff923581526007855220541690519015158152f35b50903461024d578160031936011261024d576020906003549051908152f35b5080fd5b50903461024d578160031936011261024d5760015490516001600160a01b039091168152602090f35b50913461017157600319906080368301126102e15780359167ffffffffffffffff83116102dd576101009083360301126102e15760243560ff811681036102dd576102cf939450606435926044359201610667565b825191151582526020820152f35b8480fd5b8380fd5b50903461024d578160031936011261024d576020906002549051908152f35b50823461024d57602036600319011261024d5761032c60018060a01b036001541633146105aa565b8035905580f35b50903461024d578160031936011261024d57602090517f00000000000000000000000000000000000000000000000000000000000000008152f35b50913461017157816003193601126101715780359167ffffffffffffffff918284116102dd57366023850112156102dd578301359182116102e157602483019260248336920101116102e1576024358015158091036102dd576104327f9d6db961e826d7e57b67b26f3c9b85cffd3a1224d6007450a285a198f2984c5f9461040160018060a01b036001541633146105aa565b835185828237602081878101600581520301902060ff1981541660ff851617905583519484869586528501916105ee565b9060208301520390a180f35b50903461024d578160031936011261024d57602090517fecabc617024ac8577bdc22382c563acfd061cc94b319b36bba16e7734f979f6f8152f35b509134610171576020366003190112610171576060928291358152600660205220805491600260018301549201549181519384526020840152820152f35b90503461024d578160031936011261024d5790546001600160a01b03168152602090f35b6040810190811067ffffffffffffffff8211176104f757604052565b634e487b7160e01b600052604160045260246000fd5b90601f8019910116810190811067ffffffffffffffff8211176104f757604052565b67ffffffffffffffff81116104f757601f01601f191660200190565b9291926105578261052f565b91610565604051938461050d565b829481845281830111610582578281602093846000960137010152565b600080fd5b60005b83811061059a5750506000910152565b818101518382015260200161058a565b156105b157565b60405162461bcd60e51b81526020600482015260156024820152742934b9b5a937baba32b91d103737ba1037bbb732b960591b6044820152606490fd5b908060209392818452848401376000828201840152601f01601f1916010190565b600019811461061e5760010190565b634e487b7160e01b600052601160045260246000fd5b903590601e1981360301821215610582570180359067ffffffffffffffff82116105825760200191813603831361058257565b91939260e083013594854211610a6a5760c084013595843560005260086020526040600020548703610a25576106aa6106a36020870187610634565b369161054b565b60208151910120906106c26106a36040880188610634565b60208151910120976106da6106a360a0890189610634565b602081519101206040519960208b01947fecabc617024ac8577bdc22382c563acfd061cc94b319b36bba16e7734f979f6f8652893560408d015260608c015260808b0152606088013560a08b0152608088013560c08b015260e08a015261010089015261012090818901528752610140870167ffffffffffffffff91888210838311176104f75781604052885190209161016089019261190160f01b84527f00000000000000000000000000000000000000000000000000000000000000006101628b01526101828a015260428252816101c08a0110906101c08a0111176104f7576101c088016040525190209586600052600760205260ff604060002054166109da575060209260009260809260ff604051938a855216868401526040830152606082015282805260015afa156109ce576000516001600160a01b03169081156109895761082881610af4565b908560005260076020526040600020600160ff1982541617905582356000526008602052604060002061085b815461060f565b905515610926575060026201518042048235600052600660205260406000209080825403610911575b5001610890815461060f565b90557fda0ac845197f6ee8b8b1298cf0183f48a9264e9f83356f144b10f7661fa161276108c06020830183610634565b6108fb6108d06040860186610634565b6108ed6040519586958c87526080602088015260808701916105ee565b9184830360408601526105ee565b936060810135606083015235930390a360019190565b81556000600182015560008282015538610884565b91507fd344d458e98402d70ff8c192eeb985bc45059d53f0ec4d4306687d59d3ac6abf9060606040518092878252604060208301526109748651809781604086015260208686019101610587565b3594601f01601f19168101030190a260009190565b60405162461bcd60e51b815260206004820152601d60248201527f5269736b526f757465723a20696e76616c6964207369676e61747572650000006044820152606490fd5b6040513d6000823e3d90fd5b6101c060649162461bcd60e51b8282015260206101c4820152601d6101e48201527f5269736b526f757465723a20616c72656164792070726f63657373656400000061020482015201fd5b60405162461bcd60e51b815260206004820152601960248201527f5269736b526f757465723a20696e76616c6964206e6f6e6365000000000000006044820152606490fd5b60405162461bcd60e51b815260206004820152601960248201527f5269736b526f757465723a2074726164652065787069726564000000000000006044820152606490fd5b81601f82011215610582578051610ac58161052f565b92610ad3604051948561050d565b8184526020828401011161058257610af19160208085019101610587565b90565b90600454608083013510610d5757600254606083013511610d1a576020610b26610b2082850185610634565b90610dbb565b9260ff610b428360409681885193828580945193849201610587565b81016005815203019020541615610ce75735600090808252600683528482206201518042048154149081610cd6575b50610c9d5781548551632de5aaf760e01b815260048101929092526001600160a01b03919083908290602490829086165afa918215610c93578392610c19575b505015610bee5760019380519283019083821067ffffffffffffffff831117610bda5752815290565b634e487b7160e01b83526041600452602483fd5b6f4167656e74206e6f742061637469766560801b90935191610c0f836104db565b6010835282015290565b9091503d8084843e610c2b818461050d565b820160e0838203126102e157825167ffffffffffffffff90818111610c8f5782610c56918601610aaf565b50858401519081116102dd5790610c6e918401610aaf565b50858201519081160361024d5760800151801515810361024d573880610bb1565b8580fd5b86513d85823e3d90fd5b507f4461696c79206c6f7373206c696d69742072656163686564000000000000000090935191610ccc836104db565b6018835282015290565b600191500154600354111538610b71565b5075151bdad95b881b9bdd081a5b88185b1b1bdddb1a5cdd60521b6000935191610d10836104db565b6016835282015290565b60405160009250610d2a816104db565b601a81527f457863656564732073696e676c65207472616465206c696d6974000000000000602082015290565b60405160009250610d67816104db565b601881527f436f6e666964656e63652062656c6f77206d696e696d756d0000000000000000602082015290565b908151811015610da5570160200190565b634e487b7160e01b600052603260045260246000fd5b9091610dc836848461054b565b92600092835b8551811015610e8557602f60f81b6001600160f81b0319610def8389610d94565b511614610dfe57600101610dce565b929350905b8215610e75575050610e148161052f565b90610e22604051928361050d565b808252601f19610e318261052f565b0136602084013760005b818110610e49575090925050565b6001906001600160f81b0319610e5f8288610d94565b511660001a610e6e8286610d94565b5301610e3b565b909150610af1929350369161054b565b5090929192610e0356fea2646970667358221220a979e288c6d216598ed89db5ceb5d19accdf954188c5d16df2db54016a6db4b164736f6c63430008180033",
  "linkReferences": {},
  "deployedLinkReferences": {}
}