{
  "_format": "hh-sol-artifact-1",
  "contractName": "AgentRegistry",
  "sourceName": "contracts/AgentRegistry.sol",
  "abi": [
    {
      "inputs": [],
      "stateMutability": "nonpayable",
      "type": "constructor"
    },
    {
      "anonymous": false,
      "inputs": [
        {
          "indexed": true,
          "internalType": "uint256",
          "name": "agentId",
          "type": "uint256"
        }
      ],
      "name": "AgentDeactivated",
      "type": "event"
    },
    {
      "anonymous": false,
      "inputs": [
        {
          "indexed": true,
          "internalType": "uint256",
          "name": "agentId",
          "type": "uint256"
        },
        {
          "indexed": true,
          "internalType": "address",
          "name": "owner",
          "type": "address"
        },
        {
          "indexed": false,
          "internalType": "string",
          "name": "name",
          "type": "string"
        },
        {
          "indexed": false,
          "internalType": "string",
          "name": "strategy",
          "type": "string"
        }
      ],
      "name": "AgentRegistered",
      "type": "event"
    },
    {
      "anonymous": false,
      "inputs": [
        {
          "indexed": true,
          "internalType": "address",
          "name": "owner",
          "type": "address"
        },
        {
          "indexed": true,
          "internalType": "address",
          "name": "approved",
          "type": "address"
        },
        {
          "indexed": true,
          "internalType": "uint256",
          "name": "tokenId",
          "type": "uint256"
        }
      ],
      "name": "Approval",
      "type": "event"
    },
    {
      "anonymous": false,
      "inputs": [
        {
          "indexed": true,
          "internalType": "address",
          "name": "owner",
          "type": "address"
        },
        {
          "indexed": true,
          "internalType": "address",
          "name": "operator",
          "type": "address"
        },
        {
          "indexed": false,
          "internalType": "bool",
          "name": "approved",
          "type": "bool"
        }
      ],
      "name": "ApprovalForAll",
      "type": "event"
    },
    {
      "anonymous": false,
      "inputs": [
        {
          "indexed": true,
          "internalType": "address",
          "name": "from",
          "type": "address"
        },
        {
          "indexed": true,
          "internalType": "address",
          "name": "to",
          "type": "address"
        },
        {
          "indexed": true,
          "internalType": "uint256",
          "name": "tokenId",
          "type": "uint256"
        }
      ],
      "name": "Transfer",
      "type": "event"
    },
    {
      "anonymous": false,
      "inputs": [
        {
          "indexed": true,
          "internalType": "uint256",
          "name": "agentId",
          "type": "uint256"
        },
        {
          "indexed": false,
          "internalType": "uint256",
          "name": "newScore",
          "type": "uint256"
        }
      ],
      "name": "TrustScoreUpdated",
      "type": "event"
    },
    {
      "inputs": [
        {
          "internalType": "address",
          "name": "to",
          "type": "address"
        },
        {
          "internalType": "uint256",
          "name": "tokenId",
          "type": "uint256"
        }
      ],
      "name": "approve",
      "outputs": [],
      "stateMutability": "nonpayable",
      "type": "function"
    },
    {
      "inputs": [
        {
          "internalType": "address",
          "name": "_owner",
          "type": "address"
        }
      ],
      "name": "balanceOf",
      "outputs": [
        {
          "internalType": "uint256",
          "name": "",
          "type": "uint256"
        }
      ],
      "stateMutability": "view",
      "type": "function"
    },
    {
      "inputs": [
        {
          "internalType": "uint256",
          "name": "agentId",
          "type": "uint256"
        }
      ],
      "name": "deactivateAgent",
      "outputs": [],
      "stateMutability": "nonpayable",
      "type": "function"
    },
    {
      "inputs": [],
      "name": "erc8004Registry",
      "outputs": [
        {
          "internalType": "address",
          "name": "",
          "type": "address"
        }
      ],
      "stateMutability": "view",
      "type": "function"
    },
    {
      "inputs": [
        {
          "internalType": "uint256",
          "name": "agentId",
          "type": "uint256"
        }
      ],
      "name": "getAgent",
      "outputs": [
        {
          "internalType": "string",
          "name": "agentName",
          "type": "string"
        },
        {
          "internalType": "string",
          "name": "strategy",
          "type": "string"
        },
        {
          "internalType": "address",
          "name": "agentOwner",
          "type": "address"
        },
        {
          "internalType": "uint256",
          "name": "trustScore",
          "type": "uint256"
        },
        {
          "internalType": "bool",
          "name": "active",
          "type": "bool"
        },
        {
          "internalType": "uint256",
          "name": "totalTrades",
          "type": "uint256"
        },
        {
          "internalType": "uint256",
          "name": "profitableTrades",
          "type": "uint256"
        }
      ],
      "stateMutability": "view",
      "type": "function"
    },
    {
      "inputs": [
        {
          "internalType": "address",
          "name": "agentOwner",
          "type": "address"
        }
      ],
      "name": "getAgentsByOwner",
      "outputs": [
        {
          "internalType": "uint256[]",
          "name": "",
          "type": "uint256[]"
        }
      ],
      "stateMutability": "view",
      "type": "function"
    },
    {
      "inputs": [
        {
          "internalType": "uint256",
          "name": "tokenId",
          "type": "uint256"
        }
      ],
      "name": "getApproved",
      "outputs": [
        {
          "internalType": "address",
          "name": "",
          "type": "address"
        }
      ],
      "stateMutability": "view",
      "type": "function"
    },
    {
      "inputs": [
        {
          "internalType": "uint256",
          "name": "agentId",
          "type": "uint256"
        }
      ],
      "name": "getTrustScore",
      "outputs": [
        {
          "internalType": "uint256",
          "name": "",
          "type": "uint256"
        }
      ],
      "stateMutability": "view",
      "type": "function"
    },
    {
      "inputs": [
        {
          "internalType": "address",
          "name": "_owner",
          "type": "address"
        },
        {
          "internalType": "address",
          "name": "operator",
          "type": "address"
        }
      ],
      "name": "isApprovedForAll",
      "outputs": [
        {
          "internalType": "bool",
          "name": "",
          "type": "bool"
        }
      ],
      "stateMutability": "view",
      "type": "function"
    },
    {
      "inputs": [
        {
          "internalType": "uint256",
          "name": "agentId",
          "type": "uint256"
        },
        {
          "internalType": "bytes32",
          "name": "hash",
          "type": "bytes32"
        },
        {
          "internalType": "bytes",
          "name": "signature",
          "type": "bytes"
        }
      ],
      "name": "isValidAgentSignature",
      "outputs": [
        {
          "internalType": "bool",
          "name": "",
          "type": "bool"
        }
      ],
      "stateMutability": "view",
      "type": "function"
    },
    {
      "inputs": [
        {
          "internalType": "bytes32",
          "name": "hash",
          "type": "bytes32"
        },
        {
          "internalType": "bytes",
          "name": "signature",
          "type": "bytes"
        }
      ],
      "name": "isValidSignature",
      "outputs": [
        {
          "internalType": "bytes4",
          "name": "",
          "type": "bytes4"
        }
      ],
      "stateMutability": "view",
      "type": "function"
    },
    {
      "inputs": [],
      "name": "name",
      "outputs": [
        {
          "internalType": "string",
          "name": "",
          "type": "string"
        }
      ],
      "stateMutability": "view",
      "type": "function"
    },
    {
      "inputs": [],
      "name": "owner",
      "outputs": [
        {
          "internalType": "address",
          "name": "",
          "type": "address"
        }
      ],
      "stateMutability": "view",
      "type": "function"
    },
    {
      "inputs": [
        {
          "internalType": "uint256",
          "name": "tokenId",
          "type": "uint256"
        }
      ],
      "name": "ownerOf",
      "outputs": [
        {
          "internalType": "address",
          "name": "",
          "type": "address"
        }
      ],
      "stateMutability": "view",
      "type": "function"
    },
    {
      "inputs": [
        {
          "internalType": "string",
          "name": "name_",
          "type": "string"
        },
        {
          "internalType": "string",
          "name": "strategy",
          "type": "string"
        },
        {
          "internalType": "string",
          "name": "endpoint",
          "type": "string"
        },
        {
          "internalType": "string",
          "name": "tokenURI_",
          "type": "string"
        }
      ],
      "name": "registerAgent",
      "outputs": [
        {
          "internalType": "uint256",
          "name": "agentId",
          "type": "uint256"
        }
      ],
      "stateMutability": "nonpayable",
      "type": "function"
    },
    {
      "inputs": [],
      "name": "reputationManager",
      "outputs": [
        {
          "internalType": "address",
          "name": "",
          "type": "address"
        }
      ],
      "stateMutability": "view",
      "type": "function"
    },
    {
      "inputs": [
        {
          "internalType": "address",
          "name": "from",
          "type": "address"
        },
        {
          "internalType": "address",
          "name": "to",
          "type": "address"
        },
        {
          "internalType": "uint256",
          "name": "tokenId",
          "type": "uint256"
        }
      ],
      "name": "safeTransferFrom",
      "outputs": [],
      "stateMutability": "nonpayable",
      "type": "function"
    },
    {
      "inputs": [
        {
          "internalType": "address",
          "name": "from",
          "type": "address"
        },
        {
          "internalType": "address",
          "name": "to",
          "type": "address"
        },
        {
          "internalType": "uint256",
          "name": "tokenId",
          "type": "uint256"
        },
        {
          "internalType": "bytes",
          "name": "data",
          "type": "bytes"
        }
      ],
      "name": "safeTransferFrom",
      "outputs": [],
      "stateMutability": "nonpayable",
      "type": "function"
    },
    {
      "inputs": [
        {
          "internalType": "address",
          "name": "operator",
          "type": "address"
        },
        {
          "internalType": "bool",
          "name": "approved",
          "type": "bool"
        }
      ],
      "name": "setApprovalForAll",
      "outputs": [],
      "stateMutability": "nonpayable",
      "type": "function"
    },
    {
      "inputs": [
        {
          "internalType": "address",
          "name": "registry",
          "type": "address"
        }
      ],
      "name": "setERC8004Registry",
      "outputs": [],
      "stateMutability": "nonpayable",
      "type": "function"
    },
    {
      "inputs": [
        {
          "internalType": "address",
          "name": "manager",
          "type": "address"
        }
      ],
      "name": "setReputationManager",
      "outputs": [],
      "stateMutability": "nonpayable",
      "type": "function"
    },
    {
      "inputs": [
        {
          "internalType": "bytes4",
          "name": "interfaceId",
          "type": "bytes4"
        }
      ],
      "name": "supportsInterface",
      "outputs": [
        {
          "internalType": "bool",
          "name": "",
          "type": "bool"
        }
      ],
      "stateMutability": "pure",
      "type": "function"
    },
    {
      "inputs": [],
      "name": "symbol",
      "outputs": [
        {
          "internalType": "string",
          "name": "",
          "type": "string"
        }
      ],
      "stateMutability": "view",
      "type": "function"
    },
    {
      "inputs": [
        {
          "internalType": "uint256",
          "name": "tokenId",
          "type": "uint256"
        }
      ],
      "name": "tokenURI",
      "outputs": [
        {
          "internalType": "string",
          "name": "",
          "type": "string"
        }
      ],
      "stateMutability": "view",
      "type": "function"
    },
    {
      "inputs": [],
      "name": "totalAgents",
      "outputs": [
        {
          "internalType": "uint256",
          "name": "",
          "type": "uint256"
        }
      ],
      "stateMutability": "view",
      "type": "function"
    },
    {
      "inputs": [
        {
          "internalType": "address",
          "name": "from",
          "type": "address"
        },
        {
          "internalType": "address",
          "name": "to",
          "type": "address"
        },
        {
          "internalType": "uint256",
          "name": "tokenId",
          "type": "uint256"
        }
      ],
      "name": "transferFrom",
      "outputs": [],
      "stateMutability": "nonpayable",
      "type": "function"
    },
    {
      "inputs": [
        {
          "internalType": "uint256",
          "name": "agentId",
          "type": "uint256"
        },
        {
          "internalType": "bool",
          "name": "profitable",
          "type": "bool"
        },
        {
          "internalType": "int256",
          "name": "pnlBps",
          "type": "int256"
        }
      ],
      "name": "updateReputation",
      "outputs": [],
      "stateMutability": "nonpayable",
      "type": "function"
    }
  ],
  "bytecode": "0x608060405234620000fb5760018060065560018060a01b03193381600a541617600a553390600954161760095560006200003a815462000100565b601f8111620000cc575b507f414954726164696e674167656e7400000000000000000000000000000000001c81558154620000759062000100565b90601f82116200009d575b6008634149544160e01b018355604051611f9d90816200013e8239f35b82815282601f60208320930160051c8301925b838110620000c057505062000080565b828155018390620000b0565b81805282601f60208420920160051c8201915b828110620000ef57505062000044565b838155018390620000df565b600080fd5b90600182811c9216801562000132575b60208310146200011c57565b634e487b7160e01b600052602260045260246000fd5b91607f16916200011056fe6080604052600436101561001257600080fd5b60003560e01c806301ffc9a7146101c757806306fdde03146101c2578063081812fc146101bd578063095ea7b3146101b857806311ba6b4a146101b35780631626ba7e146101ae5780631ab6f888146101a957806323b872dd146101a45780632de5aaf71461019f57806342842e0e1461019a5780634a8930a51461019557806356a837f4146101905780635c30a8e11461018b5780636352211e146101865780636b249af8146101815780636b868afb1461017c57806370a082311461017757806375694ff31461017257806383f3d4481461016d5780638da5cb5b1461016857806395359d6b1461016357806395d89b411461015e578063a22cb46514610159578063b88d4fde14610154578063c50537121461014f578063c87b56dd1461014a5763e985e9c51461014557600080fd5b610ff7565b610f91565b610f61565b610eec565b610e05565b610d5e565b610cb6565b610c7e565b610c4f565b610baf565b610afc565b610ad3565b610a82565b610a43565b610a1a565b6109c9565b61097e565b610936565b6108c6565b610848565b61078c565b6106ff565b61055a565b610406565b61038c565b6102a5565b6101e3565b6001600160e01b03198116036101de57565b600080fd5b346101de5760203660031901126101de576020600435610202816101cc565b63ffffffff60e01b166380ac58cd60e01b8114908115610240575b811561022f575b506040519015158152f35b6301ffc9a760e01b14905038610224565b635b5e139f60e01b8114915061021d565b919082519283825260005b84811061027d575050826000602080949584010152601f8019910116010190565b60208183018101518483018201520161025c565b9060206102a2928181520190610251565b90565b346101de576000806003193601126103895760405190808054906102c882611054565b8085529160209160019182811690811561035c5750600114610305575b610301866102f58188038261065a565b60405191829182610291565b0390f35b80809550527f290decd9548b62a8d60345a988386fc84ba6bc95484008f6362f93160ef3e5635b838510610349575050505081016020016102f582610301386102e5565b805486860184015293820193810161032c565b9050869550610301969350602092506102f594915060ff191682840152151560051b8201019293386102e5565b80fd5b346101de5760203660031901126101de576020600435806000526002825260018060a01b03906103c482604060002054161515611133565b6000526004825260406000205416604051908152f35b600435906001600160a01b03821682036101de57565b602435906001600160a01b03821682036101de57565b346101de5760403660031901126101de5761041f6103da565b60243560008181526002602052604081205490926001600160a01b03808216921690828214610505576104929082331480156104b9575b61045f9061117e565b610473856000526004602052604060002090565b80546001600160a01b0319166001600160a01b03909216919091179055565b7f8c5be1e5ebec7d5bd14f71427d1e84f3dd0314c0f7b2291e5b200ac8c7c3b9258480a480f35b5061045f6104fe6104f7336104e08760018060a01b03166000526005602052604060002090565b9060018060a01b0316600052602052604060002090565b5460ff1690565b9050610456565b60405162461bcd60e51b815260206004820152602760248201527f4167656e7452656769737472793a20617070726f766520746f2063757272656e6044820152663a1037bbb732b960c91b6064820152608490fd5b346101de5760203660031901126101de57600435600081815260076020526040812060018101549192916001600160a01b031633036105de57600a6105b791016105ad6105a8825460ff1690565b6111ca565b805460ff19169055565b7fc2fb7f8575ac3990e70361684edfc4d283931ea9a03dfa28766bf376a3934aa28280a280f35b60405162461bcd60e51b815260206004820152601e60248201527f4167656e7452656769737472793a206e6f74206167656e74206f776e657200006044820152606490fd5b634e487b7160e01b600052604160045260246000fd5b6020810190811067ffffffffffffffff82111761065557604052565b610623565b90601f8019910116810190811067ffffffffffffffff82111761065557604052565b60405190610180820182811067ffffffffffffffff82111761065557604052565b92919267ffffffffffffffff821161065557604051916106c7601f8201601f19166020018461065a565b8294818452818301116101de578281602093846000960137010152565b9080601f830112156101de578160206102a29335910161069d565b346101de5760403660031901126101de5760243567ffffffffffffffff81116101de5761073d61073560209236906004016106e4565b600435611222565b6040516001600160e01b03199091168152f35b602090602060408183019282815285518094520193019160005b828110610778575050505090565b83518552938101939281019260010161076a565b346101de576020806003193601126101de576001600160a01b036107ae6103da565b1660005260086020526040600020906040519081602084549182815201936000526020600020916000905b8282106107fc57610301856107f08189038261065a565b60405191829182610750565b8354865294850194600193840193909101906107d9565b60609060031901126101de576001600160a01b039060043582811681036101de579160243590811681036101de579060443590565b346101de5761087161085936610813565b9161086c6108678433611b07565b61117e565b611bc8565b005b939060c095926108936108a1929a9998959a60e0885260e0880190610251565b908682036020880152610251565b6001600160a01b03909816604085015260608401521515608083015260a08201520152565b346101de5760203660031901126101de576004356000526007602052604060002060018060a01b0360018201541690610301600682015460ff600a8401541660078401549060088501549261092960036109226002890161108e565b970161108e565b9660405197889788610873565b346101de5761087161097961094a36610813565b906109586108678333611b07565b610963828285611bc8565b6040519261097084610639565b60008452611dc7565b6112cd565b346101de5760603660031901126101de5760443567ffffffffffffffff81116101de576109bf6109b460209236906004016106e4565b60243560043561139b565b6040519015158152f35b346101de5760203660031901126101de576109e26103da565b600a546001600160a01b0391906109fc90831633146114c4565b166bffffffffffffffffffffffff60a01b6009541617600955600080f35b346101de5760003660031901126101de57600b546040516001600160a01b039091168152602090f35b346101de5760203660031901126101de576004356000526002602052602060018060a01b0360406000205416610a7a811515611133565b604051908152f35b346101de5760203660031901126101de57610a9b6103da565b600a546001600160a01b039190610ab590831633146114c4565b166bffffffffffffffffffffffff60a01b600b541617600b55600080f35b346101de5760003660031901126101de576009546040516001600160a01b039091168152602090f35b346101de5760203660031901126101de576001600160a01b03610b1d6103da565b168015610b3c5760005260036020526020604060002054604051908152f35b60405162461bcd60e51b815260206004820152601b60248201527f4167656e7452656769737472793a207a65726f206164647265737300000000006044820152606490fd5b9181601f840112156101de5782359167ffffffffffffffff83116101de57602083818601950101116101de57565b346101de5760803660031901126101de5767ffffffffffffffff6004358181116101de57610be1903690600401610b81565b6024929192358281116101de57610bfc903690600401610b81565b6044949194358481116101de57610c17903690600401610b81565b916064359586116101de5761030196610c37610c3f973690600401610b81565b969095611851565b6040519081529081906020820190565b346101de5760203660031901126101de5760043560005260076020526020600660406000200154604051908152f35b346101de5760003660031901126101de57600a546040516001600160a01b039091168152602090f35b6024359081151582036101de57565b346101de5760603660031901126101de57610ccf610ca7565b600954336001600160a01b0391821614908115610d50575b5015610cfd576108719060443590600435611a1c565b60405162461bcd60e51b815260206004820152602560248201527f4167656e7452656769737472793a206e6f742072657075746174696f6e206d616044820152643730b3b2b960d91b6064820152608490fd5b9050600a5416331438610ce7565b346101de576000806003193601126103895760405190806001805490610d8382611054565b808652926020926001811690811561035c5750600114610dad57610301866102f58188038261065a565b9350600184527fb10e2d527612073b26eecdfd717e6a320cf44b4afac2b0732d9fcbe2b7fa0cf65b838510610df2575050505081016020016102f582610301386102e5565b8054868601840152938201938101610dd5565b346101de5760403660031901126101de57610e1e6103da565b610e26610ca7565b6001600160a01b03821691338314610ea85781610e65610e769233600052600560205260406000209060018060a01b0316600052602052604060002090565b9060ff801983541691151516179055565b604051901515815233907f17307eab39ab6107e8899845ad3d59bd9653f200f220920489ca2b5937696c3190602090a3005b606460405162461bcd60e51b815260206004820152602060248201527f4167656e7452656769737472793a20617070726f766520746f2063616c6c65726044820152fd5b346101de5760803660031901126101de57610f056103da565b610f0d6103f0565b906064359060443567ffffffffffffffff83116101de5761087193610f5b610f3c610979953690600401610b81565b610f496108678633611b07565b610f54858588611bc8565b369161069d565b92611dc7565b346101de5760003660031901126101de576006546000198101908111610f8c57602090604051908152f35b6115a7565b346101de5760203660031901126101de57600435600081815260026020526040902054610fc8906001600160a01b03161515611133565b6000526007602052610301610fe3600560406000200161108e565b604051918291602083526020830190610251565b346101de5760403660031901126101de57602060ff6110486110176103da565b61101f6103f0565b6001600160a01b0391821660009081526005865260408082209290931681526020919091522090565b54166040519015158152f35b90600182811c92168015611084575b602083101461106e57565b634e487b7160e01b600052602260045260246000fd5b91607f1691611063565b906040519182600082546110a181611054565b9081845260209460019160018116908160001461111157506001146110d2575b5050506110d09250038361065a565b565b600090815285812095935091905b8183106110f95750506110d093508201013880806110c1565b855488840185015294850194879450918301916110e0565b925050506110d094925060ff191682840152151560051b8201013880806110c1565b1561113a57565b606460405162461bcd60e51b815260206004820152602060248201527f4167656e7452656769737472793a206e6f6e6578697374656e7420746f6b656e6044820152fd5b1561118557565b60405162461bcd60e51b815260206004820152601d60248201527f4167656e7452656769737472793a206e6f7420617574686f72697a65640000006044820152606490fd5b156111d157565b60405162461bcd60e51b815260206004820152601f60248201527f4167656e7452656769737472793a20616c726561647920696e616374697665006044820152606490fd5b6040513d6000823e3d90fd5b90604181511461123c575b506001600160e01b0319919050565b6020818101516040808401516060948501518251968752600090811a8786015291860192909252928401528180529160809060015afa156112b5576000516001600160a01b0390811680151591826112a7575b505061129c57388061122d565b630b135d3f60e11b90565b600a5416149050388061128f565b611216565b604051906112c782610639565b60008252565b156112d457565b60405162461bcd60e51b815260206004820152602160248201527f4167656e7452656769737472793a206e6f7420455243373231526563656976656044820152603960f91b6064820152608490fd5b1561132a57565b60405162461bcd60e51b815260206004820152601e60248201527f4167656e7452656769737472793a206167656e74206e6f7420666f756e6400006044820152606490fd5b908160209103126101de57516102a2816101cc565b6040906102a2939281528160208201520190610251565b60016113b76113c5929493946000526007602052604060002090565b01546001600160a01b031690565b6001600160a01b038116906113db821515611323565b604183511461146e575b3b6113f257505050600090565b611416916020916040518080958194630b135d3f60e11b9889845260048401611384565b03915afa6000918161143d575b5061142f575050600090565b6001600160e01b0319161490565b61146091925060203d602011611467575b611458818361065a565b81019061136f565b9038611423565b503d61144e565b60208381015160408086015160608088015183518a8152600091821a818801529384019490945282015281805260809060015afa156112b55760005182906001600160a01b0316036113e5575b50505050600190565b156114cb57565b60405162461bcd60e51b815260206004820152601860248201527f4167656e7452656769737472793a206e6f74206f776e657200000000000000006044820152606490fd5b1561151757565b60405162461bcd60e51b815260206004820152601c60248201527f4167656e7452656769737472793a206e616d65207265717569726564000000006044820152606490fd5b1561156357565b606460405162461bcd60e51b815260206004820152602060248201527f4167656e7452656769737472793a2073747261746567792072657175697265646044820152fd5b634e487b7160e01b600052601160045260246000fd5b6000198114610f8c5760010190565b90601f81116115da57505050565b6000916000526020600020906020601f850160051c83019410611618575b601f0160051c01915b82811061160d57505050565b818155600101611601565b90925082906115f8565b919091825167ffffffffffffffff81116106555761164a816116448454611054565b846115cc565b602080601f831160011461168d5750819061167e939495600092611682575b50508160011b916000199060031b1c19161790565b9055565b015190503880611669565b90601f198316956116a385600052602060002090565b926000905b8882106116e0575050836001959697106116c7575b505050811b019055565b015160001960f88460031b161c191690553880806116bd565b806001859682949686015181550195019301906116a8565b8151815560208201516001820180546001600160a01b0319166001600160a01b0390921691909117905590600b906101609061173b604082015160028601611622565b61174c606082015160038601611622565b61175d608082015160048601611622565b61176e60a082015160058601611622565b60c0810151600685015560e08101516007850155610100810151600885015561012081015160098501556117be6117a9610140830151151590565b600a86019060ff801983541691151516179055565b0151910155565b8054906801000000000000000082101561065557600182018082558210156117f35760005260206000200155565b634e487b7160e01b600052603260045260246000fd5b908060209392818452848401376000828201840152601f01601f1916010190565b9290611843906102a29593604086526040860191611809565b926020818503910152611809565b919293979694909586151561186590611510565b61187085151561155c565b6006549561187d876115bd565b600655869961188a61067c565b8881523360208201529361189f368b8861069d565b60408601526118af36898961069d565b606086015236906118bf9261069d565b608084015236906118cf9261069d565b60a0820152603260c0820152600060e082018190526101008201819052610120820152600161014082015242610160820152611915856000526007602052604060002090565b9061191f916116f8565b33600090815260086020526040902084611938916117c5565b6119428433611e33565b6040519283923396611954938561182a565b037f1fa075d34b5040b9bc683d1cc54ae270f345511dd00e1b9f68e82fd47b16f52491a3565b1561198157565b60405162461bcd60e51b815260206004820152601f60248201527f4167656e7452656769737472793a206167656e74206e6f7420616374697665006044820152606490fd5b91909160008382019384129112908015821691151617610f8c57565b600119810191908211610f8c57565b600019810191908211610f8c57565b9060028201809211610f8c57565b9060018201809211610f8c57565b916006611acc917f20d456995c74d5114f87879b10c5214b9c28e11ea422eeb922cc2e755095669f93611a59866000526007602052604060002090565b91611a70611a6b600a85015460ff1690565b61197a565b60078301611a7e81546115bd565b9055611a8f600984019182546119c6565b905515611ae05760088101611aa481546115bd565b9055808201805460628110611ad157506064905b555b01546040519081529081906020820190565b0390a2565b611ada90611a00565b90611ab8565b808201805460028111611af857506000905b55611aba565b611b01906119e2565b90611af2565b90600052600260205260018060a01b03908160406000205416828216818114938415611b66575b50508215611b3b57505090565b60009081526005602090815260408083206001600160a01b0390941683529290522060ff9150541690565b6004602052604060002054161492503880611b2e565b15611b8357565b60405162461bcd60e51b815260206004820152601f60248201527f4167656e7452656769737472793a207472616e7366657220746f207a65726f006044820152606490fd5b9082600052600260205260018060a01b03806040600020541691818416809303611d0f57611ce381611c47611ce89488941696611c06881515611b7c565b611c2d611c1d866000526004602052604060002090565b80546001600160a01b0319169055565b6001600160a01b0316600090815260036020526040902090565b611c5181546119f1565b90556001600160a01b0381166000908152600360205260409020611c758154611a0e565b9055611c8f81610473856000526002602052604060002090565b611cc9816001611ca9866000526007602052604060002090565b0180546001600160a01b0319166001600160a01b03909216919091179055565b6001600160a01b0316600090815260086020526040902090565b6117c5565b7fddf252ad1be2c89b69c2b068fc378daa952ba7f163c4a11628f55a4df523b3ef600080a4565b60405162461bcd60e51b815260206004820152601a60248201527f4167656e7452656769737472793a2077726f6e67206f776e65720000000000006044820152606490fd5b919091803b15611dbf57611d9e602091600093604051948580948193630a85bd0160e11b998a84523360048501528460248501526044840152608060648401526084830190610251565b03926001600160a01b03165af16000918161143d575061142f575050600090565b505050600190565b92919091823b156114bb57611e1a92602092600060018060a01b0360405180978196829584630a85bd0160e11b9c8d86523360048701521660248501526044840152608060648401526084830190610251565b0393165af16000918161143d575061142f575050600090565b6001600160a01b0381811691908215611f2257611e5a846000526002602052604060002090565b5416611edd57826110d09361097993611e858460018060a01b03166000526003602052604060002090565b611e8f8154611a0e565b9055611ea984610473846000526002602052604060002090565b60007fddf252ad1be2c89b69c2b068fc378daa952ba7f163c4a11628f55a4df523b3ef8180a4611ed76112ba565b91611d54565b60405162461bcd60e51b815260206004820152601d60248201527f4167656e7452656769737472793a20616c7265616479206d696e7465640000006044820152606490fd5b60405162461bcd60e51b815260206004820152601b60248201527f4167656e7452656769737472793a206d696e7420746f207a65726f00000000006044820152606490fdfea2646970667358221220131f66ec36e10d1c050b5d0302982075212ab4041c89f0d280697234f02438a564736f6c63430008180033",
  "linkReferences": {},
  "deployedLinkReferences": {}
}