{
  "_format": "hh-sol-artifact-1",
  "contractName": "AgentRegistry",
  "sourceName": "contracts/AgentRegistry.sol",
  "abi": [
    {
      "inputs": [],
      "stateMutability": "nonpayable",
      "type": "constructor"
    },
    {
      "anonymous": false,
      "inputs": [
        {
          "indexed": true,
          "internalType": "uint256",
          "name": "agentId",
          "type": "uint256"
        }
      ],
      "name": "AgentDeactivated",
      "type": "event"
    },
    {
      "anonymous": false,
      "inputs": [
        {
          "indexed": true,
          "internalType": "uint256",
          "name": "agentId",
          "type": "uint256"
        },
        {
          "indexed": true,
          "internalType": "address",
          "name": "owner",
          "type": "address"
        },
        {
          "indexed": false,
          "internalType": "string",
          "name": "name",
          "type": "string"
        },
        {
          "indexed": false,
          "internalType": "string",
          "name": "strategy",
          "type": "string"
        }
      ],
      "name": "AgentRegistered",
      "type": "event"
    },
    {
      "anonymous": false,
      "inputs": [
        {
          "indexed": true,
          "internalType": "address",
          "name": "owner",
          "type": "address"
        },
        {
          "indexed": true,
          "internalType": "address",
          "name": "approved",
          "type": "address"
        },
        {
          "indexed": true,
          "internalType": "uint256",
          "name": "tokenId",
          "type": "uint256"
        }
      ],
      "name": "Approval",
      "type": "event"
    },
    {
      "anonymous": false,
      "inputs": [
        {
          "indexed": true,
          "internalType": "address",
          "name": "owner",
          "type": "address"
        },
        {
          "indexed": true,
          "internalType": "address",
          "name": "operator",
          "type": "address"
        },
        {
          "indexed": false,
          "internalType": "bool",
          "name": "approved",
          "type": "bool"
        }
      ],
      "name": "ApprovalForAll",
      "type": "event"
    },
    {
      "anonymous": false,
      "inputs": [
        {
          "indexed": true,
          "internalType": "address",
          "name": "from",
          "type": "address"
        },
        {
          "indexed": true,
          "internalType": "address",
          "name": "to",
          "type": "address"
        },
        {
          "indexed": true,
          "internalType": "uint256",
          "name": "tokenId",
          "type": "uint256"
        }
      ],
      "name": "Transfer",
      "type": "event"
    },
    {
      "anonymous": false,
      "inputs": [
        {
          "indexed": true,
          "internalType": "uint256",
          "name": "agentId",
          "type": "uint256"
        },
        {
          "indexed": false,
          "internalType": "uint256",
          "name": "newScore",
          "type": "uint256"
        }
      ],
      "name": "TrustScoreUpdated",
      "type": "event"
    },
    {
      "inputs": [
        {
          "internalType": "address",
          "name": "to",
          "type": "address"
        },
        {
          "internalType": "uint256",
          "name": "tokenId",
          "type": "uint256"
        }
      ],
      "name": "approve",
      "outputs": [],
      "stateMutability": "nonpayable",
      "type": "function"
    },
    {
      "inputs": [
        {
          "internalType": "address",
          "name": "_owner",
          "type": "address"
        }
      ],
      "name": "balanceOf",
      "outputs": [
        {
          "internalType": "uint256",
          "name": "",
          "type": "uint256"
        }
      ],
      "stateMutability": "view",
      "type": "function"
    },
    {
      "inputs": [
        {
          "internalType": "uint256",
          "name": "agentId",
          "type": "uint256"
        }
      ],
      "name": "deactivateAgent",
      "outputs": [],
      "stateMutability": "nonpayable",
      "type": "function"
    },
    {
      "inputs": [
        {
          "internalType": "uint256",
          "name": "agentId",
          "type": "uint256"
        }
      ],
      "name": "emergencyDeactivate",
      "outputs": [],
      "stateMutability": "nonpayable",
      "type": "function"
    },
    {
      "inputs": [],
      "name": "erc8004Registry",
      "outputs": [
        {
          "internalType": "address",
          "name": "",
          "type": "address"
        }
      ],
      "stateMutability": "view",
      "type": "function"
    },
    {
      "inputs": [
        {
          "internalType": "uint256",
          "name": "agentId",
          "type": "uint256"
        }
      ],
      "name": "getAgent",
      "outputs": [
        {
          "internalType": "string",
          "name": "agentName",
          "type": "string"
        },
        {
          "internalType": "string",
          "name": "strategy",
          "type": "string"
        },
        {
          "internalType": "address",
          "name": "agentOwner",
          "type": "address"
        },
        {
          "internalType": "uint256",
          "name": "trustScore",
          "type": "uint256"
        },
        {
          "internalType": "bool",
          "name": "active",
          "type": "bool"
        },
        {
          "internalType": "uint256",
          "name": "totalTrades",
          "type": "uint256"
        },
        {
          "internalType": "uint256",
          "name": "profitableTrades",
          "type": "uint256"
        }
      ],
      "stateMutability": "view",
      "type": "function"
    },
    {
      "inputs": [
        {
          "internalType": "address",
          "name": "agentOwner",
          "type": "address"
        }
      ],
      "name": "getAgentsByOwner",
      "outputs": [
        {
          "internalType": "uint256[]",
          "name": "",
          "type": "uint256[]"
        }
      ],
      "stateMutability": "view",
      "type": "function"
    },
    {
      "inputs": [
        {
          "internalType": "uint256",
          "name": "tokenId",
          "type": "uint256"
        }
      ],
      "name": "getApproved",
      "outputs": [
        {
          "internalType": "address",
          "name": "",
          "type": "address"
        }
      ],
      "stateMutability": "view",
      "type": "function"
    },
    {
      "inputs": [
        {
          "internalType": "uint256",
          "name": "agentId",
          "type": "uint256"
        }
      ],
      "name": "getTrustScore",
      "outputs": [
        {
          "internalType": "uint256",
          "name": "",
          "type": "uint256"
        }
      ],
      "stateMutability": "view",
      "type": "function"
    },
    {
      "inputs": [
        {
          "internalType": "address",
          "name": "_owner",
          "type": "address"
        },
        {
          "internalType": "address",
          "name": "operator",
          "type": "address"
        }
      ],
      "name": "isApprovedForAll",
      "outputs": [
        {
          "internalType": "bool",
          "name": "",
          "type": "bool"
        }
      ],
      "stateMutability": "view",
      "type": "function"
    },
    {
      "inputs": [
        {
          "internalType": "uint256",
          "name": "agentId",
          "type": "uint256"
        },
        {
          "internalType": "bytes32",
          "name": "hash",
          "type": "bytes32"
        },
        {
          "internalType": "bytes",
          "name": "signature",
          "type": "bytes"
        }
      ],
      "name": "isValidAgentSignature",
      "outputs": [
        {
          "internalType": "bool",
          "name": "",
          "type": "bool"
        }
      ],
      "stateMutability": "view",
      "type": "function"
    },
    {
      "inputs": [
        {
          "internalType": "bytes32",
          "name": "hash",
          "type": "bytes32"
        },
        {
          "internalType": "bytes",
          "name": "signature",
          "type": "bytes"
        }
      ],
      "name": "isValidSignature",
      "outputs": [
        {
          "internalType": "bytes4",
          "name": "",
          "type": "bytes4"
        }
      ],
      "stateMutability": "view",
      "type": "function"
    },
    {
      "inputs": [],
      "name": "name",
      "outputs": [
        {
          "internalType": "string",
          "name": "",
          "type": "string"
        }
      ],
      "stateMutability": "view",
      "type": "function"
    },
    {
      "inputs": [],
      "name": "owner",
      "outputs": [
        {
          "internalType": "address",
          "name": "",
          "type": "address"
        }
      ],
      "stateMutability": "view",
      "type": "function"
    },
    {
      "inputs": [
        {
          "internalType": "uint256",
          "name": "tokenId",
          "type": "uint256"
        }
      ],
      "name": "ownerOf",
      "outputs": [
        {
          "internalType": "address",
          "name": "",
          "type": "address"
        }
      ],
      "stateMutability": "view",
      "type": "function"
    },
    {
      "inputs": [
        {
          "internalType": "string",
          "name": "name_",
          "type": "string"
        },
        {
          "internalType": "string",
          "name": "strategy",
          "type": "string"
        },
        {
          "internalType": "string",
          "name": "endpoint",
          "type": "string"
        },
        {
          "internalType": "string",
          "name": "tokenURI_",
          "type": "string"
        }
      ],
      "name": "registerAgent",
      "outputs": [
        {
          "internalType": "uint256",
          "name": "agentId",
          "type": "uint256"
        }
      ],
      "stateMutability": "nonpayable",
      "type": "function"
    },
    {
      "inputs": [],
      "name": "reputationManager",
      "outputs": [
        {
          "internalType": "address",
          "name": "",
          "type": "address"
        }
      ],
      "stateMutability": "view",
      "type": "function"
    },
    {
      "inputs": [
        {
          "internalType": "address",
          "name": "from",
          "type": "address"
        },
        {
          "internalType": "address",
          "name": "to",
          "type": "address"
        },
        {
          "internalType": "uint256",
          "name": "tokenId",
          "type": "uint256"
        }
      ],
      "name": "safeTransferFrom",
      "outputs": [],
      "stateMutability": "nonpayable",
      "type": "function"
    },
    {
      "inputs": [
        {
          "internalType": "address",
          "name": "from",
          "type": "address"
        },
        {
          "internalType": "address",
          "name": "to",
          "type": "address"
        },
        {
          "internalType": "uint256",
          "name": "tokenId",
          "type": "uint256"
        },
        {
          "internalType": "bytes",
          "name": "data",
          "type": "bytes"
        }
      ],
      "name": "safeTransferFrom",
      "outputs": [],
      "stateMutability": "nonpayable",
      "type": "function"
    },
    {
      "inputs": [
        {
          "internalType": "address",
          "name": "operator",
          "type": "address"
        },
        {
          "internalType": "bool",
          "name": "approved",
          "type": "bool"
        }
      ],
      "name": "setApprovalForAll",
      "outputs": [],
      "stateMutability": "nonpayable",
      "type": "function"
    },
    {
      "inputs": [
        {
          "internalType": "address",
          "name": "registry",
          "type": "address"
        }
      ],
      "name": "setERC8004Registry",
      "outputs": [],
      "stateMutability": "nonpayable",
      "type": "function"
    },
    {
      "inputs": [
        {
          "internalType": "address",
          "name": "manager",
          "type": "address"
        }
      ],
      "name": "setReputationManager",
      "outputs": [],
      "stateMutability": "nonpayable",
      "type": "function"
    },
    {
      "inputs": [
        {
          "internalType": "bytes4",
          "name": "interfaceId",
          "type": "bytes4"
        }
      ],
      "name": "supportsInterface",
      "outputs": [
        {
          "internalType": "bool",
          "name": "",
          "type": "bool"
        }
      ],
      "stateMutability": "pure",
      "type": "function"
    },
    {
      "inputs": [],
      "name": "symbol",
      "outputs": [
        {
          "internalType": "string",
          "name": "",
          "type": "string"
        }
      ],
      "stateMutability": "view",
      "type": "function"
    },
    {
      "inputs": [
        {
          "internalType": "uint256",
          "name": "tokenId",
          "type": "uint256"
        }
      ],
      "name": "tokenURI",
      "outputs": [
        {
          "internalType": "string",
          "name": "",
          "type": "string"
        }
      ],
      "stateMutability": "view",
      "type": "function"
    },
    {
      "inputs": [],
      "name": "totalAgents",
      "outputs": [
        {
          "internalType": "uint256",
          "name": "",
          "type": "uint256"
        }
      ],
      "stateMutability": "view",
      "type": "function"
    },
    {
      "inputs": [
        {
          "internalType": "address",
          "name": "from",
          "type": "address"
        },
        {
          "internalType": "address",
          "name": "to",
          "type": "address"
        },
        {
          "internalType": "uint256",
          "name": "tokenId",
          "type": "uint256"
        }
      ],
      "name": "transferFrom",
      "outputs": [],
      "stateMutability": "nonpayable",
      "type": "function"
    },
    {
      "inputs": [
        {
          "internalType": "uint256",
          "name": "agentId",
          "type": "uint256"
        },
        {
          "internalType": "bool",
          "name": "profitable",
          "type": "bool"
        },
        {
          "internalType": "int256",
          "name": "pnlBps",
          "type": "int256"
        }
      ],
      "name": "updateReputation",
      "outputs": [],
      "stateMutability": "nonpayable",
      "type": "function"
    }
  ],
  "bytecode": "0x608060405234620000fb5760018060065560018060a01b03193381600b541617600b553390600a541617600a5560006200003a815462000100565b601f8111620000cc575b507f414954726164696e674167656e7400000000000000000000000000000000001c81558154620000759062000100565b90601f82116200009d575b6008634149544160e01b0183556040516121dd90816200013e8239f35b82815282601f60208320930160051c8301925b838110620000c057505062000080565b828155018390620000b0565b81805282601f60208420920160051c8201915b828110620000ef57505062000044565b838155018390620000df565b600080fd5b90600182811c9216801562000132575b60208310146200011c57565b634e487b7160e01b600052602260045260246000fd5b91607f16916200011056fe6080604052600436101561001257600080fd5b60003560e01c806301ffc9a7146101d757806306fdde03146101d2578063081812fc146101cd578063095ea7b3146101c857806311ba6b4a146101c357806314fbb572146101be5780631626ba7e146101b95780631ab6f888146101b457806323b872dd146101af5780632de5aaf7146101aa57806342842e0e146101a55780634a8930a5146101a057806356a837f41461019b5780635c30a8e1146101965780636352211e146101915780636b249af81461018c5780636b868afb1461018757806370a082311461018257806375694ff31461017d57806383f3d448146101785780638da5cb5b1461017357806395359d6b1461016e57806395d89b4114610169578063a22cb46514610164578063b88d4fde1461015f578063c50537121461015a578063c87b56dd146101555763e985e9c51461015057600080fd5b611097565b611031565b611001565b610f8c565b610ea5565b610dfe565b610d56565b610d1e565b610cef565b610c4f565b610b9c565b610b73565b610b22565b610ae3565b610aba565b610a69565b610a1e565b6109d6565b610966565b6108e8565b61082c565b61079f565b61064d565b61056a565b610416565b61039c565b6102b5565b6101f3565b6001600160e01b03198116036101ee57565b600080fd5b346101ee5760203660031901126101ee576020600435610212816101dc565b63ffffffff60e01b166380ac58cd60e01b8114908115610250575b811561023f575b506040519015158152f35b6301ffc9a760e01b14905038610234565b635b5e139f60e01b8114915061022d565b919082519283825260005b84811061028d575050826000602080949584010152601f8019910116010190565b60208183018101518483018201520161026c565b9060206102b2928181520190610261565b90565b346101ee576000806003193601126103995760405190808054906102d8826110f4565b8085529160209160019182811690811561036c5750600114610315575b61031186610305818803826106fa565b604051918291826102a1565b0390f35b80809550527f290decd9548b62a8d60345a988386fc84ba6bc95484008f6362f93160ef3e5635b8385106103595750505050810160200161030582610311386102f5565b805486860184015293820193810161033c565b90508695506103119693506020925061030594915060ff191682840152151560051b8201019293386102f5565b80fd5b346101ee5760203660031901126101ee576020600435806000526002825260018060a01b03906103d4826040600020541615156111d3565b6000526004825260406000205416604051908152f35b600435906001600160a01b03821682036101ee57565b602435906001600160a01b03821682036101ee57565b346101ee5760403660031901126101ee5761042f6103ea565b60243560008181526002602052604081205490926001600160a01b03808216921690828214610515576104a29082331480156104c9575b61046f9061121e565b610483856000526004602052604060002090565b80546001600160a01b0319166001600160a01b03909216919091179055565b7f8c5be1e5ebec7d5bd14f71427d1e84f3dd0314c0f7b2291e5b200ac8c7c3b9258480a480f35b5061046f61050e610507336104f08760018060a01b03166000526005602052604060002090565b9060018060a01b0316600052602052604060002090565b5460ff1690565b9050610466565b60405162461bcd60e51b815260206004820152602760248201527f4167656e7452656769737472793a20617070726f766520746f2063757272656e6044820152663a1037bbb732b960c91b6064820152608490fd5b346101ee5760203660031901126101ee5760043560008181526007602052604081206001810154919291336001600160a01b039182161490811561063f575b50156105fa57600a6105d391016105c96105c4825460ff1690565b61126a565b805460ff19169055565b7fc2fb7f8575ac3990e70361684edfc4d283931ea9a03dfa28766bf376a3934aa28280a280f35b60405162461bcd60e51b815260206004820152601e60248201527f4167656e7452656769737472793a206e6f74206167656e74206f776e657200006044820152606490fd5b9050600b54163314386105a9565b346101ee5760203660031901126101ee5760043561067660018060a01b03600b541633146112b6565b6000908082526007602052600a6040832001805461069660ff821661126a565b60ff191690557fc2fb7f8575ac3990e70361684edfc4d283931ea9a03dfa28766bf376a3934aa28280a280f35b634e487b7160e01b600052604160045260246000fd5b6020810190811067ffffffffffffffff8211176106f557604052565b6106c3565b90601f8019910116810190811067ffffffffffffffff8211176106f557604052565b60405190610180820182811067ffffffffffffffff8211176106f557604052565b92919267ffffffffffffffff82116106f55760405191610767601f8201601f1916602001846106fa565b8294818452818301116101ee578281602093846000960137010152565b9080601f830112156101ee578160206102b29335910161073d565b346101ee5760403660031901126101ee5760243567ffffffffffffffff81116101ee576107dd6107d56020923690600401610784565b60043561130e565b6040516001600160e01b03199091168152f35b602090602060408183019282815285518094520193019160005b828110610818575050505090565b83518552938101939281019260010161080a565b346101ee576020806003193601126101ee576001600160a01b0361084e6103ea565b1660005260086020526040600020906040519081602084549182815201936000526020600020916000905b82821061089c5761031185610890818903826106fa565b604051918291826107f0565b835486529485019460019384019390910190610879565b60609060031901126101ee576001600160a01b039060043582811681036101ee579160243590811681036101ee579060443590565b346101ee576109116108f9366108b3565b9161090c6109078433611bf1565b61121e565b611d3e565b005b939060c09592610933610941929a9998959a60e0885260e0880190610261565b908682036020880152610261565b6001600160a01b03909816604085015260608401521515608083015260a08201520152565b346101ee5760203660031901126101ee576004356000526007602052604060002060018060a01b0360018201541690610311600682015460ff600a840154166007840154906008850154926109c960036109c26002890161112e565b970161112e565b9660405197889788610913565b346101ee57610911610a196109ea366108b3565b906109f86109078333611bf1565b610a03828285611d3e565b60405192610a10846106d9565b60008452612007565b6113b9565b346101ee5760603660031901126101ee5760443567ffffffffffffffff81116101ee57610a5f610a546020923690600401610784565b602435600435611487565b6040519015158152f35b346101ee5760203660031901126101ee57610a826103ea565b600b546001600160a01b039190610a9c90831633146112b6565b166bffffffffffffffffffffffff60a01b600a541617600a55600080f35b346101ee5760003660031901126101ee57600c546040516001600160a01b039091168152602090f35b346101ee5760203660031901126101ee576004356000526002602052602060018060a01b0360406000205416610b1a8115156111d3565b604051908152f35b346101ee5760203660031901126101ee57610b3b6103ea565b600b546001600160a01b039190610b5590831633146112b6565b166bffffffffffffffffffffffff60a01b600c541617600c55600080f35b346101ee5760003660031901126101ee57600a546040516001600160a01b039091168152602090f35b346101ee5760203660031901126101ee576001600160a01b03610bbd6103ea565b168015610bdc5760005260036020526020604060002054604051908152f35b60405162461bcd60e51b815260206004820152601b60248201527f4167656e7452656769737472793a207a65726f206164647265737300000000006044820152606490fd5b9181601f840112156101ee5782359167ffffffffffffffff83116101ee57602083818601950101116101ee57565b346101ee5760803660031901126101ee5767ffffffffffffffff6004358181116101ee57610c81903690600401610c21565b6024929192358281116101ee57610c9c903690600401610c21565b6044949194358481116101ee57610cb7903690600401610c21565b916064359586116101ee5761031196610cd7610cdf973690600401610c21565b96909561191c565b6040519081529081906020820190565b346101ee5760203660031901126101ee5760043560005260076020526020600660406000200154604051908152f35b346101ee5760003660031901126101ee57600b546040516001600160a01b039091168152602090f35b6024359081151582036101ee57565b346101ee5760603660031901126101ee57610d6f610d47565b600a54336001600160a01b0391821614908115610df0575b5015610d9d576109119060443590600435611b06565b60405162461bcd60e51b815260206004820152602560248201527f4167656e7452656769737472793a206e6f742072657075746174696f6e206d616044820152643730b3b2b960d91b6064820152608490fd5b9050600b5416331438610d87565b346101ee576000806003193601126103995760405190806001805490610e23826110f4565b808652926020926001811690811561036c5750600114610e4d5761031186610305818803826106fa565b9350600184527fb10e2d527612073b26eecdfd717e6a320cf44b4afac2b0732d9fcbe2b7fa0cf65b838510610e925750505050810160200161030582610311386102f5565b8054868601840152938201938101610e75565b346101ee5760403660031901126101ee57610ebe6103ea565b610ec6610d47565b6001600160a01b03821691338314610f485781610f05610f169233600052600560205260406000209060018060a01b0316600052602052604060002090565b9060ff801983541691151516179055565b604051901515815233907f17307eab39ab6107e8899845ad3d59bd9653f200f220920489ca2b5937696c3190602090a3005b606460405162461bcd60e51b815260206004820152602060248201527f4167656e7452656769737472793a20617070726f766520746f2063616c6c65726044820152fd5b346101ee5760803660031901126101ee57610fa56103ea565b610fad610400565b906064359060443567ffffffffffffffff83116101ee5761091193610ffb610fdc610a19953690600401610c21565b610fe96109078633611bf1565b610ff4858588611d3e565b369161073d565b92612007565b346101ee5760003660031901126101ee57600654600019810190811161102c57602090604051908152f35b611647565b346101ee5760203660031901126101ee57600435600081815260026020526040902054611068906001600160a01b031615156111d3565b6000526007602052610311611083600560406000200161112e565b604051918291602083526020830190610261565b346101ee5760403660031901126101ee57602060ff6110e86110b76103ea565b6110bf610400565b6001600160a01b0391821660009081526005865260408082209290931681526020919091522090565b54166040519015158152f35b90600182811c92168015611124575b602083101461110e57565b634e487b7160e01b600052602260045260246000fd5b91607f1691611103565b90604051918260008254611141816110f4565b908184526020946001916001811690816000146111b15750600114611172575b505050611170925003836106fa565b565b600090815285812095935091905b8183106111995750506111709350820101388080611161565b85548884018501529485019487945091830191611180565b9250505061117094925060ff191682840152151560051b820101388080611161565b156111da57565b606460405162461bcd60e51b815260206004820152602060248201527f4167656e7452656769737472793a206e6f6e6578697374656e7420746f6b656e6044820152fd5b1561122557565b60405162461bcd60e51b815260206004820152601d60248201527f4167656e7452656769737472793a206e6f7420617574686f72697a65640000006044820152606490fd5b1561127157565b60405162461bcd60e51b815260206004820152601f60248201527f4167656e7452656769737472793a20616c726561647920696e616374697665006044820152606490fd5b156112bd57565b60405162461bcd60e51b815260206004820152601860248201527f4167656e7452656769737472793a206e6f74206f776e657200000000000000006044820152606490fd5b6040513d6000823e3d90fd5b906041815114611328575b506001600160e01b0319919050565b6020818101516040808401516060948501518251968752600090811a8786015291860192909252928401528180529160809060015afa156113a1576000516001600160a01b039081168015159182611393575b5050611388573880611319565b630b135d3f60e11b90565b600b5416149050388061137b565b611302565b604051906113b3826106d9565b60008252565b156113c057565b60405162461bcd60e51b815260206004820152602160248201527f4167656e7452656769737472793a206e6f7420455243373231526563656976656044820152603960f91b6064820152608490fd5b1561141657565b60405162461bcd60e51b815260206004820152601e60248201527f4167656e7452656769737472793a206167656e74206e6f7420666f756e6400006044820152606490fd5b908160209103126101ee57516102b2816101dc565b6040906102b2939281528160208201520190610261565b60016114a36114b1929493946000526007602052604060002090565b01546001600160a01b031690565b6001600160a01b038116906114c782151561140f565b604183511461155a575b3b6114de57505050600090565b611502916020916040518080958194630b135d3f60e11b9889845260048401611470565b03915afa60009181611529575b5061151b575050600090565b6001600160e01b0319161490565b61154c91925060203d602011611553575b61154481836106fa565b81019061145b565b903861150f565b503d61153a565b60208381015160408086015160608088015183518a8152600091821a818801529384019490945282015281805260809060015afa156113a15760005182906001600160a01b0316036114d1575b50505050600190565b156115b757565b60405162461bcd60e51b815260206004820152601c60248201527f4167656e7452656769737472793a206e616d65207265717569726564000000006044820152606490fd5b1561160357565b606460405162461bcd60e51b815260206004820152602060248201527f4167656e7452656769737472793a2073747261746567792072657175697265646044820152fd5b634e487b7160e01b600052601160045260246000fd5b600019811461102c5760010190565b90601f811161167a57505050565b6000916000526020600020906020601f850160051c830194106116b8575b601f0160051c01915b8281106116ad57505050565b8181556001016116a1565b9092508290611698565b919091825167ffffffffffffffff81116106f5576116ea816116e484546110f4565b8461166c565b602080601f831160011461172d5750819061171e939495600092611722575b50508160011b916000199060031b1c19161790565b9055565b015190503880611709565b90601f1983169561174385600052602060002090565b926000905b88821061178057505083600195969710611767575b505050811b019055565b015160001960f88460031b161c1916905538808061175d565b80600185968294968601518155019501930190611748565b8151815560208201516001820180546001600160a01b0319166001600160a01b0390921691909117905590600b90610160906117db6040820151600286016116c2565b6117ec6060820151600386016116c2565b6117fd6080820151600486016116c2565b61180e60a0820151600586016116c2565b60c0810151600685015560e081015160078501556101008101516008850155610120810151600985015561185e611849610140830151151590565b600a86019060ff801983541691151516179055565b0151910155565b805482101561187d5760005260206000200190600090565b634e487b7160e01b600052603260045260246000fd5b90815491680100000000000000008310156106f557826118bb91600161117095018155611865565b90919082549060031b91821b91600019901b1916179055565b908060209392818452848401376000828201840152601f01601f1916010190565b929061190e906102b295936040865260408601916118d4565b9260208185039101526118d4565b9192939796949095861515611930906115b0565b61193b8515156115fc565b600654956119488761165d565b600655869961195561071c565b8881523360208201529361196a368b8861073d565b604086015261197a36898961073d565b6060860152369061198a9261073d565b6080840152369061199a9261073d565b60a0820152603260c0820152600060e0820181905261010082018190526101208201526001610140820152426101608201526119e0856000526007602052604060002090565b906119ea91611798565b3360008181526008602081815260408084208054600984528286208b8752845291852091909155939092529052611a22908590611893565b611a2c8433612073565b6040519283923396611a3e93856118f5565b037f1fa075d34b5040b9bc683d1cc54ae270f345511dd00e1b9f68e82fd47b16f52491a3565b15611a6b57565b60405162461bcd60e51b815260206004820152601f60248201527f4167656e7452656769737472793a206167656e74206e6f7420616374697665006044820152606490fd5b9190916000838201938412911290801582169115161761102c57565b60011981019190821161102c57565b60001981019190821161102c57565b906002820180921161102c57565b906001820180921161102c57565b916006611bb6917f20d456995c74d5114f87879b10c5214b9c28e11ea422eeb922cc2e755095669f93611b43866000526007602052604060002090565b91611b5a611b55600a85015460ff1690565b611a64565b60078301611b68815461165d565b9055611b7960098401918254611ab0565b905515611bca5760088101611b8e815461165d565b9055808201805460628110611bbb57506064905b555b01546040519081529081906020820190565b0390a2565b611bc490611aea565b90611ba2565b808201805460028111611be257506000905b55611ba4565b611beb90611acc565b90611bdc565b90600052600260205260018060a01b03908160406000205416828216818114938415611c50575b50508215611c2557505090565b60009081526005602090815260408083206001600160a01b0390941683529290522060ff9150541690565b6004602052604060002054161492503880611c18565b15611c6d57565b60405162461bcd60e51b815260206004820152601a60248201527f4167656e7452656769737472793a2077726f6e67206f776e65720000000000006044820152606490fd5b15611cb957565b60405162461bcd60e51b815260206004820152601f60248201527f4167656e7452656769737472793a207472616e7366657220746f207a65726f006044820152606490fd5b8054908115611d285760001991820191611d188383611865565b909182549160031b1b1916905555565b634e487b7160e01b600052603160045260246000fd5b90611f20611d8491611ea2611d6d611d60876000526002602052604060002090565b546001600160a01b031690565b6001600160a01b0386811695909182168614611c66565b821694611d92861515611cb2565b611db9611da9886000526004602052604060002090565b80546001600160a01b0319169055565b6001600160a01b03811660009081526008602090815260408083206009909252909120611e119190611df7908a905b90600052602052604060002090565b54611e028254611adb565b808203611f47575b5050611cfe565b6001600160a01b0381166000908152600960205260408120611e34908990611de8565b556001600160a01b0383166000908152600860209081526040808320546009909252909120611e64908990611de8565b556001600160a01b0383166000908152600860205260409020611e88908890611893565b6001600160a01b0316600090815260036020526040902090565b611eac8154611adb565b90556001600160a01b0381166000908152600360205260409020611ed08154611af8565b9055611eea81610483876000526002602052604060002090565b6001611f00866000526007602052604060002090565b0180546001600160a01b0319166001600160a01b03909216919091179055565b7fddf252ad1be2c89b69c2b068fc378daa952ba7f163c4a11628f55a4df523b3ef600080a4565b611f61611f57611f8c9285611865565b90549060031b1c90565b611f6f816118bb8587611865565b6001600160a01b0386166000908152600960205260409020611de8565b553880611e0a565b919091803b15611fff57611fde602091600093604051948580948193630a85bd0160e11b998a84523360048501528460248501526044840152608060648401526084830190610261565b03926001600160a01b03165af160009181611529575061151b575050600090565b505050600190565b92919091823b156115a75761205a92602092600060018060a01b0360405180978196829584630a85bd0160e11b9c8d86523360048701521660248501526044840152608060648401526084830190610261565b0393165af160009181611529575061151b575050600090565b6001600160a01b03818116919082156121625761209a846000526002602052604060002090565b541661211d578261117093610a19936120c58460018060a01b03166000526003602052604060002090565b6120cf8154611af8565b90556120e984610483846000526002602052604060002090565b60007fddf252ad1be2c89b69c2b068fc378daa952ba7f163c4a11628f55a4df523b3ef8180a46121176113a6565b91611f94565b60405162461bcd60e51b815260206004820152601d60248201527f4167656e7452656769737472793a20616c7265616479206d696e7465640000006044820152606490fd5b60405162461bcd60e51b815260206004820152601b60248201527f4167656e7452656769737472793a206d696e7420746f207a65726f00000000006044820152606490fdfea2646970667358221220222103031523aaba83e23aee60dab3652cb30aa3642dfad946f3c7fc69be5dcc64736f6c63430008180033",
  "linkReferences": {},
  "deployedLinkReferences": {}
}