{
  "_format": "hh-sol-artifact-1",
  "contractName": "AgentRegistry",
  "sourceName": "contracts/AgentRegistry.sol",
  "abi": [
    {
      "inputs": [],
      "stateMutability": "nonpayable",
      "type": "constructor"
    },
    {
      "anonymous": false,
      "inputs": [
        {
          "indexed": true,
          "internalType": "uint256",
          "name": "agentId",
          "type": "uint256"
        }
      ],
      "name": "AgentDeactivated",
      "type": "event"
    },
    {
      "anonymous": false,
      "inputs": [
        {
          "indexed": true,
          "internalType": "uint256",
          "name": "agentId",
          "type": "uint256"
        },
        {
          "indexed": true,
          "internalType": "address",
          "name": "owner",
          "type": "address"
        },
        {
          "indexed": false,
          "internalType": "string",
          "name": "name",
          "type": "string"
        },
        {
          "indexed": false,
          "internalType": "string",
          "name": "strategy",
          "type": "string"
        }
      ],
      "name": "AgentRegistered",
      "type": "event"
    },
    {
      "anonymous": false,
      "inputs": [
        {
          "indexed": true,
          "internalType": "uint256",
          "name": "agentId",
          "type": "uint256"
        },
        {
          "indexed": false,
          "internalType": "uint256",
          "name": "newScore",
          "type": "uint256"
        }
      ],
      "name": "TrustScoreUpdated",
      "type": "event"
    },
    {
      "inputs": [
        {
          "internalType": "uint256",
          "name": "agentId",
          "type": "uint256"
        }
      ],
      "name": "deactivateAgent",
      "outputs": [],
      "stateMutability": "nonpayable",
      "type": "function"
    },
    {
      "inputs": [
        {
          "internalType": "uint256",
          "name": "agentId",
          "type": "uint256"
        }
      ],
      "name": "getAgent",
      "outputs": [
        {
          "internalType": "string",
          "name": "name",
          "type": "string"
        },
        {
          "internalType": "string",
          "name": "strategy",
          "type": "string"
        },
        {
          "internalType": "address",
          "name": "agentOwner",
          "type": "address"
        },
        {
          "internalType": "uint256",
          "name": "trustScore",
          "type": "uint256"
        },
        {
          "internalType": "bool",
          "name": "active",
          "type": "bool"
        },
        {
          "internalType": "uint256",
          "name": "totalTrades",
          "type": "uint256"
        },
        {
          "internalType": "uint256",
          "name": "profitableTrades",
          "type": "uint256"
        }
      ],
      "stateMutability": "view",
      "type": "function"
    },
    {
      "inputs": [
        {
          "internalType": "address",
          "name": "agentOwner",
          "type": "address"
        }
      ],
      "name": "getAgentsByOwner",
      "outputs": [
        {
          "internalType": "uint256[]",
          "name": "",
          "type": "uint256[]"
        }
      ],
      "stateMutability": "view",
      "type": "function"
    },
    {
      "inputs": [
        {
          "internalType": "uint256",
          "name": "agentId",
          "type": "uint256"
        }
      ],
      "name": "getTrustScore",
      "outputs": [
        {
          "internalType": "uint256",
          "name": "",
          "type": "uint256"
        }
      ],
      "stateMutability": "view",
      "type": "function"
    },
    {
      "inputs": [],
      "name": "owner",
      "outputs": [
        {
          "internalType": "address",
          "name": "",
          "type": "address"
        }
      ],
      "stateMutability": "view",
      "type": "function"
    },
    {
      "inputs": [
        {
          "internalType": "string",
          "name": "name",
          "type": "string"
        },
        {
          "internalType": "string",
          "name": "strategy",
          "type": "string"
        },
        {
          "internalType": "string",
          "name": "endpoint",
          "type": "string"
        }
      ],
      "name": "registerAgent",
      "outputs": [
        {
          "internalType": "uint256",
          "name": "agentId",
          "type": "uint256"
        }
      ],
      "stateMutability": "nonpayable",
      "type": "function"
    },
    {
      "inputs": [],
      "name": "reputationManager",
      "outputs": [
        {
          "internalType": "address",
          "name": "",
          "type": "address"
        }
      ],
      "stateMutability": "view",
      "type": "function"
    },
    {
      "inputs": [
        {
          "internalType": "address",
          "name": "manager",
          "type": "address"
        }
      ],
      "name": "setReputationManager",
      "outputs": [],
      "stateMutability": "nonpayable",
      "type": "function"
    },
    {
      "inputs": [],
      "name": "totalAgents",
      "outputs": [
        {
          "internalType": "uint256",
          "name": "",
          "type": "uint256"
        }
      ],
      "stateMutability": "view",
      "type": "function"
    },
    {
      "inputs": [
        {
          "internalType": "uint256",
          "name": "agentId",
          "type": "uint256"
        },
        {
          "internalType": "bool",
          "name": "profitable",
          "type": "bool"
        },
        {
          "internalType": "int256",
          "name": "pnlBps",
          "type": "int256"
        }
      ],
      "name": "updateReputation",
      "outputs": [],
      "stateMutability": "nonpayable",
      "type": "function"
    }
  ],
  "bytecode": "0x6080806040523461003757600160005560018060a01b03193381600454161760045533906003541617600355610f11908161003d8239f35b600080fdfe608080604052600436101561001357600080fd5b60003560e01c90816311ba6b4a14610bdb575080631ab6f88814610b235780632de5aaf714610a7c57806356a2d6601461041257806356a837f41461037f5780636b868afb1461035657806383f3d448146103275780638da5cb5b146102fe57806395359d6b146100d35763c50537121461008d57600080fd5b346100ce5760003660031901126100ce5760005460001981019081116100b857602090604051908152f35b634e487b7160e01b600052601160045260246000fd5b600080fd5b346100ce5760603660031901126100ce57600435602480359081151582036100ce576003546044359290336001600160a01b03918216149081156102f0575b501561029e5783600052600160205260406000209260ff6009850154161561025a57600684016101428154610e44565b9055600884018054600083820193841291129080158216911516176102455755156101eb57600782016101758154610e44565b90556005820180549091606282106101af5750506005600080516020610ebc833981519152926020926064905b555b0154604051908152a2005b600282018092116101d75750600080516020610ebc83398151915292602092600592906101a2565b634e487b7160e01b60009081526011600452fd5b60058201805490916002821161021c5750506005600080516020610ebc833981519152926020926000905b556101a4565b60011982019182116101d75750600080516020610ebc8339815191529260209260059290610216565b83634e487b7160e01b60005260116004526000fd5b60405162461bcd60e51b815260206004820152601f818501527f4167656e7452656769737472793a206167656e74206e6f7420616374697665006044820152606490fd5b60405162461bcd60e51b8152602060048201526025818401527f4167656e7452656769737472793a206e6f742072657075746174696f6e206d616044820152643730b3b2b960d91b6064820152608490fd5b905060045416331485610112565b346100ce5760003660031901126100ce576004546040516001600160a01b039091168152602090f35b346100ce5760203660031901126100ce5760043560005260016020526020600560406000200154604051908152f35b346100ce5760003660031901126100ce576003546040516001600160a01b039091168152602090f35b346100ce5760203660031901126100ce576004356001600160a01b03818116918290036100ce576004541633036103cd576bffffffffffffffffffffffff60a01b6003541617600355600080f35b60405162461bcd60e51b815260206004820152601860248201527f4167656e7452656769737472793a206e6f74206f776e657200000000000000006044820152606490fd5b346100ce5760603660031901126100ce5760043567ffffffffffffffff81116100ce57610443903690600401610d15565b9060243567ffffffffffffffff81116100ce57610464903690600401610d15565b60443567ffffffffffffffff81116100ce57610484903690600401610d15565b93908515610a375782156109f3576000549461049f86610e44565b6000556040519161016083019183831067ffffffffffffffff841117610775576104f6926040528784523360208501526104da368a87610e53565b60408501526104ea368789610e53565b60608501523691610e53565b6080820152603260a0820152600060c0820152600060e08201526000610100820152600161012082015242610140820152846000526001602052604060002090805182556001820160018060a01b036020830151166bffffffffffffffffffffffff60a01b825416179055604081015180519067ffffffffffffffff82116107755781906105876002860154610d65565b601f81116109a0575b50602090601f831160011461092e57600092610923575b50508160011b916000199060031b1c19161760028301555b606081015180519067ffffffffffffffff82116107755781906105e56003860154610d65565b601f81116108d0575b50602090601f831160011461085e57600092610853575b50508160011b916000199060031b1c19161760038301555b608081015180519067ffffffffffffffff8211610775576106416004850154610d65565b601f811161080c575b50602090601f8311600114610796579180600a94926101409460009261078b575b50508160011b916000199060031b1c19161760048501555b60a0810151600585015560c0810151600685015560e08101516007850155610100810151600885015560098401610120820151151560ff80198354169116179055015191015533600052600260205260406000209081549568010000000000000000871015610775576001870180845587101561075f576107548694856020997f1fa075d34b5040b9bc683d1cc54ae270f345511dd00e1b9f68e82fd47b16f524966000528a6000200155610745604051948594604086526040860191610e9a565b908382038a8501523397610e9a565b0390a3604051908152f35b634e487b7160e01b600052603260045260246000fd5b634e487b7160e01b600052604160045260246000fd5b015190508b8061066b565b906004850160005260206000209160005b601f19851681106107f4575092600a94926001926101409583601f198116106107db575b505050811b016004850155610683565b015160001960f88460031b161c191690558b80806107cb565b919260206001819286850151815501940192016107a7565b600485016000526020600020601f840160051c81016020851061084c575b601f830160051c8201811061084057505061064a565b6000815560010161082a565b508061082a565b015190508980610605565b9250600385016000526020600020906000935b601f19841685106108b5576001945083601f1981161061089c575b505050811b01600383015561061d565b015160001960f88460031b161c1916905589808061088c565b81810151835560209485019460019093019290910190610871565b909150600385016000526020600020601f840160051c81016020851061091c575b90849392915b601f830160051c8201811061090d5750506105ee565b600081558594506001016108f7565b50806108f1565b0151905089806105a7565b9250600285016000526020600020906000935b601f1984168510610985576001945083601f1981161061096c575b505050811b0160028301556105bf565b015160001960f88460031b161c1916905589808061095c565b81810151835560209485019460019093019290910190610941565b909150600285016000526020600020601f840160051c8101602085106109ec575b90849392915b601f830160051c820181106109dd575050610590565b600081558594506001016109c7565b50806109c1565b606460405162461bcd60e51b815260206004820152602060248201527f4167656e7452656769737472793a2073747261746567792072657175697265646044820152fd5b60405162461bcd60e51b815260206004820152601c60248201527f4167656e7452656769737472793a206e616d65207265717569726564000000006044820152606490fd5b346100ce5760203660031901126100ce576004356000526001602052610af5604060002060018060a01b03600182015416600582015460ff600984015416600684015490600785015492610b03610ae16003610ada60028a01610d9f565b9801610d9f565b60405198899860e08a5260e08a0190610cd5565b9088820360208a0152610cd5565b94604087015260608601521515608085015260a084015260c08301520390f35b346100ce576020806003193601126100ce576004356001600160a01b038116908190036100ce5760005260028152604060002060405190818382549182815201908192600052846000209060005b86828210610bc7578686610b8782880383610d43565b604051928392818401908285525180915260408401929160005b828110610bb057505050500390f35b835185528695509381019392810192600101610ba1565b835485529093019260019283019201610b71565b346100ce5760203660031901126100ce576004359081600052600160205260406000209060018060a01b036001830154163303610c935750600901805460ff811615610c4e5760ff191690557fc2fb7f8575ac3990e70361684edfc4d283931ea9a03dfa28766bf376a3934aa2600080a2005b60405162461bcd60e51b815260206004820152601f60248201527f4167656e7452656769737472793a20616c726561647920696e616374697665006044820152606490fd5b62461bcd60e51b815260206004820152601e60248201527f4167656e7452656769737472793a206e6f74206167656e74206f776e657200006044820152606490fd5b919082519283825260005b848110610d01575050826000602080949584010152601f8019910116010190565b602081830181015184830182015201610ce0565b9181601f840112156100ce5782359167ffffffffffffffff83116100ce57602083818601950101116100ce57565b90601f8019910116810190811067ffffffffffffffff82111761077557604052565b90600182811c92168015610d95575b6020831014610d7f57565b634e487b7160e01b600052602260045260246000fd5b91607f1691610d74565b90604051918260008254610db281610d65565b90818452602094600191600181169081600014610e225750600114610de3575b505050610de192500383610d43565b565b600090815285812095935091905b818310610e0a575050610de19350820101388080610dd2565b85548884018501529485019487945091830191610df1565b92505050610de194925060ff191682840152151560051b820101388080610dd2565b60001981146100b85760010190565b92919267ffffffffffffffff82116107755760405191610e7d601f8201601f191660200184610d43565b8294818452818301116100ce578281602093846000960137010152565b908060209392818452848401376000828201840152601f01601f191601019056fe20d456995c74d5114f87879b10c5214b9c28e11ea422eeb922cc2e755095669fa2646970667358221220a2e343ae6870d8eb20393c83a585d3a19ba593a40eafaa0507326d3ac73f354d64736f6c63430008180033",
  "linkReferences": {},
  "deployedLinkReferences": {}
}