{
  "_format": "hh-sol-artifact-1",
  "contractName": "RiskRouter",
  "sourceName": "contracts/RiskRouter.sol",
  "abi": [
    {
      "inputs": [
        {
          "internalType": "address",
          "name": "_agentRegistry",
          "type": "address"
        }
      ],
      "stateMutability": "nonpayable",
      "type": "constructor"
    },
    {
      "anonymous": false,
      "inputs": [
        {
          "indexed": false,
          "internalType": "address",
          "name": "dexRouter",
          "type": "address"
        }
      ],
      "name": "DEXRouterUpdated",
      "type": "event"
    },
    {
      "anonymous": false,
      "inputs": [
        {
          "indexed": false,
          "internalType": "uint256",
          "name": "maxSingleTradeUsd",
          "type": "uint256"
        },
        {
          "indexed": false,
          "internalType": "uint256",
          "name": "maxDailyLossUsd",
          "type": "uint256"
        }
      ],
      "name": "LimitsUpdated",
      "type": "event"
    },
    {
      "anonymous": false,
      "inputs": [
        {
          "indexed": false,
          "internalType": "string",
          "name": "token",
          "type": "string"
        },
        {
          "indexed": false,
          "internalType": "bool",
          "name": "allowed",
          "type": "bool"
        }
      ],
      "name": "TokenAllowlistUpdated",
      "type": "event"
    },
    {
      "anonymous": false,
      "inputs": [
        {
          "indexed": true,
          "internalType": "uint256",
          "name": "agentId",
          "type": "uint256"
        },
        {
          "indexed": true,
          "internalType": "address",
          "name": "wallet",
          "type": "address"
        },
        {
          "indexed": false,
          "internalType": "bytes32",
          "name": "tradeHash",
          "type": "bytes32"
        },
        {
          "indexed": false,
          "internalType": "string",
          "name": "tokenPair",
          "type": "string"
        },
        {
          "indexed": false,
          "internalType": "string",
          "name": "action",
          "type": "string"
        },
        {
          "indexed": false,
          "internalType": "uint256",
          "name": "amountUsd",
          "type": "uint256"
        }
      ],
      "name": "TradeApproved",
      "type": "event"
    },
    {
      "anonymous": false,
      "inputs": [
        {
          "indexed": true,
          "internalType": "uint256",
          "name": "agentId",
          "type": "uint256"
        },
        {
          "indexed": false,
          "internalType": "bytes32",
          "name": "tradeHash",
          "type": "bytes32"
        },
        {
          "indexed": false,
          "internalType": "uint256[]",
          "name": "amounts",
          "type": "uint256[]"
        }
      ],
      "name": "TradeExecuted",
      "type": "event"
    },
    {
      "anonymous": false,
      "inputs": [
        {
          "indexed": true,
          "internalType": "uint256",
          "name": "agentId",
          "type": "uint256"
        },
        {
          "indexed": false,
          "internalType": "bytes32",
          "name": "tradeHash",
          "type": "bytes32"
        },
        {
          "indexed": false,
          "internalType": "string",
          "name": "reason",
          "type": "string"
        }
      ],
      "name": "TradeRejected",
      "type": "event"
    },
    {
      "inputs": [],
      "name": "DOMAIN_SEPARATOR",
      "outputs": [
        {
          "internalType": "bytes32",
          "name": "",
          "type": "bytes32"
        }
      ],
      "stateMutability": "view",
      "type": "function"
    },
    {
      "inputs": [],
      "name": "TRADE_TYPEHASH",
      "outputs": [
        {
          "internalType": "bytes32",
          "name": "",
          "type": "bytes32"
        }
      ],
      "stateMutability": "view",
      "type": "function"
    },
    {
      "inputs": [
        {
          "internalType": "uint256",
          "name": "",
          "type": "uint256"
        }
      ],
      "name": "agentDailyStats",
      "outputs": [
        {
          "internalType": "uint256",
          "name": "date",
          "type": "uint256"
        },
        {
          "internalType": "uint256",
          "name": "totalLossUsd",
          "type": "uint256"
        },
        {
          "internalType": "uint256",
          "name": "tradeCount",
          "type": "uint256"
        }
      ],
      "stateMutability": "view",
      "type": "function"
    },
    {
      "inputs": [
        {
          "internalType": "uint256",
          "name": "",
          "type": "uint256"
        }
      ],
      "name": "agentNonces",
      "outputs": [
        {
          "internalType": "uint256",
          "name": "",
          "type": "uint256"
        }
      ],
      "stateMutability": "view",
      "type": "function"
    },
    {
      "inputs": [],
      "name": "agentRegistry",
      "outputs": [
        {
          "internalType": "contract AgentRegistry",
          "name": "",
          "type": "address"
        }
      ],
      "stateMutability": "view",
      "type": "function"
    },
    {
      "inputs": [
        {
          "internalType": "string",
          "name": "",
          "type": "string"
        }
      ],
      "name": "allowedTokens",
      "outputs": [
        {
          "internalType": "bool",
          "name": "",
          "type": "bool"
        }
      ],
      "stateMutability": "view",
      "type": "function"
    },
    {
      "inputs": [],
      "name": "dexRouter",
      "outputs": [
        {
          "internalType": "contract IDEXRouter",
          "name": "",
          "type": "address"
        }
      ],
      "stateMutability": "view",
      "type": "function"
    },
    {
      "inputs": [
        {
          "internalType": "uint256",
          "name": "agentId",
          "type": "uint256"
        }
      ],
      "name": "getAgentNonce",
      "outputs": [
        {
          "internalType": "uint256",
          "name": "",
          "type": "uint256"
        }
      ],
      "stateMutability": "view",
      "type": "function"
    },
    {
      "inputs": [
        {
          "internalType": "bytes32",
          "name": "tradeHash",
          "type": "bytes32"
        }
      ],
      "name": "isTradeProcessed",
      "outputs": [
        {
          "internalType": "bool",
          "name": "",
          "type": "bool"
        }
      ],
      "stateMutability": "view",
      "type": "function"
    },
    {
      "inputs": [],
      "name": "maxDailyLossUsd",
      "outputs": [
        {
          "internalType": "uint256",
          "name": "",
          "type": "uint256"
        }
      ],
      "stateMutability": "view",
      "type": "function"
    },
    {
      "inputs": [],
      "name": "maxSingleTradeUsd",
      "outputs": [
        {
          "internalType": "uint256",
          "name": "",
          "type": "uint256"
        }
      ],
      "stateMutability": "view",
      "type": "function"
    },
    {
      "inputs": [],
      "name": "minConfidence",
      "outputs": [
        {
          "internalType": "uint256",
          "name": "",
          "type": "uint256"
        }
      ],
      "stateMutability": "view",
      "type": "function"
    },
    {
      "inputs": [],
      "name": "owner",
      "outputs": [
        {
          "internalType": "address",
          "name": "",
          "type": "address"
        }
      ],
      "stateMutability": "view",
      "type": "function"
    },
    {
      "inputs": [
        {
          "internalType": "bytes32",
          "name": "",
          "type": "bytes32"
        }
      ],
      "name": "processedTrades",
      "outputs": [
        {
          "internalType": "bool",
          "name": "",
          "type": "bool"
        }
      ],
      "stateMutability": "view",
      "type": "function"
    },
    {
      "inputs": [
        {
          "internalType": "address",
          "name": "router",
          "type": "address"
        }
      ],
      "name": "setDEXRouter",
      "outputs": [],
      "stateMutability": "nonpayable",
      "type": "function"
    },
    {
      "inputs": [
        {
          "internalType": "uint256",
          "name": "maxSingle",
          "type": "uint256"
        },
        {
          "internalType": "uint256",
          "name": "maxDaily",
          "type": "uint256"
        }
      ],
      "name": "setLimits",
      "outputs": [],
      "stateMutability": "nonpayable",
      "type": "function"
    },
    {
      "inputs": [
        {
          "internalType": "uint256",
          "name": "threshold",
          "type": "uint256"
        }
      ],
      "name": "setMinConfidence",
      "outputs": [],
      "stateMutability": "nonpayable",
      "type": "function"
    },
    {
      "inputs": [
        {
          "internalType": "string",
          "name": "token",
          "type": "string"
        },
        {
          "internalType": "bool",
          "name": "allowed",
          "type": "bool"
        }
      ],
      "name": "setTokenAllowed",
      "outputs": [],
      "stateMutability": "nonpayable",
      "type": "function"
    },
    {
      "inputs": [
        {
          "components": [
            {
              "internalType": "uint256",
              "name": "agentId",
              "type": "uint256"
            },
            {
              "internalType": "string",
              "name": "tokenPair",
              "type": "string"
            },
            {
              "internalType": "string",
              "name": "action",
              "type": "string"
            },
            {
              "internalType": "uint256",
              "name": "amountUsd",
              "type": "uint256"
            },
            {
              "internalType": "uint256",
              "name": "confidence",
              "type": "uint256"
            },
            {
              "internalType": "string",
              "name": "reason",
              "type": "string"
            },
            {
              "internalType": "uint256",
              "name": "nonce",
              "type": "uint256"
            },
            {
              "internalType": "uint256",
              "name": "deadline",
              "type": "uint256"
            },
            {
              "internalType": "address",
              "name": "tokenIn",
              "type": "address"
            },
            {
              "internalType": "address",
              "name": "tokenOut",
              "type": "address"
            },
            {
              "internalType": "uint256",
              "name": "amountIn",
              "type": "uint256"
            },
            {
              "internalType": "uint256",
              "name": "amountOutMin",
              "type": "uint256"
            }
          ],
          "internalType": "struct RiskRouter.TradeIntent",
          "name": "intent",
          "type": "tuple"
        },
        {
          "internalType": "bytes",
          "name": "signature",
          "type": "bytes"
        }
      ],
      "name": "submitTrade",
      "outputs": [
        {
          "internalType": "bool",
          "name": "approved",
          "type": "bool"
        },
        {
          "internalType": "bytes32",
          "name": "tradeHash",
          "type": "bytes32"
        }
      ],
      "stateMutability": "nonpayable",
      "type": "function"
    }
  ],
  "bytecode": "0x60a034610246576001600160401b0390601f620018da38819003918201601f191683019291908484118385101761024b57816020928492604096875283398101031261024657516001600160a01b03811690819003610246576024916207a120600355600491620f42408355602d60055560018060a01b031933816002541617600255600054161760005580516208aa8960eb1b815260236006918260038201522090600194859160ff19938385825416179055602385516242544360e81b815282600382015220838582541617905560258551644d4154494360d81b8152826005820152208385825416179055818551634c494e4b60e01b815282888201522083858254161790556023855162554e4960e81b8152826003820152208385825416179055818551634141564560e01b81528288820152208385825416179055818551635553444360e01b81528288820152208385825416179055845190630ae8aa8960e31b8252868201522091825416179055600e6020825161018281610261565b828152016d1052551c98591a5b99d059d95b9d60921b81522092602082516101a981610261565b82815201603160f81b8152209181519260208401947f8b73c3c69bb8fe3d512ecc4cf759cc79239f7b179b0ffacaa9a75d522b39400f86528385015260608401524660808401523060a084015260a0835260c083019483861090861117610231575083905251902060805261165d90816200027d82396080518181816103e00152610ce60152f35b604190634e487b7160e01b6000525260246000fd5b600080fd5b634e487b7160e01b600052604160045260246000fd5b604081019081106001600160401b0382111761024b5760405256fe6080604052600436101561001257600080fd5b60003560e01c80630758d9241461013d5780630d1cfcae146101385780630e449f97146101335780631344c76e1461012e578063260f0608146101065780632bba58ac14610129578063351f0dbe146101245780633644e5151461011f5780634cfee215146101015780635764390c1461011a57806363e93557146101155780638da5cb5b146101105780638fe9099a1461010b57806391be86be14610106578063ace1854b14610101578063c4590d3f146100fc578063d52b7a14146100f7578063efe12a0c146100f25763fb9576da146100ed57600080fd5b61069e565b610544565b610526565b6104c2565b610403565b610265565b6104a4565b61047b565b61045d565b61042f565b6103c8565b610308565b610296565b610222565b6101a5565b61016b565b34610166576000366003190112610166576001546040516001600160a01b039091168152602090f35b600080fd5b34610166576000366003190112610166576000546040516001600160a01b039091168152602090f35b6001600160a01b0381160361016657565b34610166576020366003190112610166577f2e9ffa1ee0be8af4df6740c772c339bd5574ff9175d4cd0328e7f27685b3f6e260206004356101e581610194565b6002546001600160a01b0391906101ff90831633146106f7565b16806bffffffffffffffffffffffff60a01b6001541617600155604051908152a1005b3461016657602036600319011261016657600435600052600760205260606040600020805490600260018201549101549060405192835260208301526040820152f35b34610166576020366003190112610166576004356000526008602052602060ff604060002054166040519015158152f35b346101665760003660031901126101665760206040517fb3e3feb75fdbf40cd7b823fa7b0b1b32de8f8d6bf2be6e16f1a9eedfc559b6118152f35b9181601f84011215610166578235916001600160401b038311610166576020838186019501011161016657565b8015150361016657565b34610166576040366003190112610166576004356001600160401b038111610166576103597f9d6db961e826d7e57b67b26f3c9b85cffd3a1224d6007450a285a198f2984c5f9136906004016102d1565b602435610365816102fe565b61037a60018060a01b036002541633146106f7565b6103a4816040518486823760208186810160068152030190209060ff801983541691151516179055565b6103bb60405193849360408552604085019161073b565b90151560208301520390a1005b346101665760003660031901126101665760206040517f00000000000000000000000000000000000000000000000000000000000000008152f35b346101665760203660031901126101665760043560005260096020526020604060002054604051908152f35b346101665760203660031901126101665761045560018060a01b036002541633146106f7565b600435600555005b34610166576000366003190112610166576020600354604051908152f35b34610166576000366003190112610166576002546040516001600160a01b039091168152602090f35b34610166576000366003190112610166576020600454604051908152f35b34610166576040366003190112610166577f4d4981437d0211f9e6843eb024d9ada1fa3a99514d4343d4aece106dd11524bb604060043560243561051160018060a01b036002541633146106f7565b816003558060045582519182526020820152a1005b34610166576000366003190112610166576020600554604051908152f35b346101665760031960403682011261016657600435906001600160401b039081831161016657610180908336030112610166576024359081116101665760409161059561059e9236906004016102d1565b91600401610967565b825191151582526020820152f35b634e487b7160e01b600052604160045260246000fd5b604081019081106001600160401b038211176105dd57604052565b6105ac565b90601f801991011681019081106001600160401b038211176105dd57604052565b6001600160401b0381116105dd57601f01601f191660200190565b92919261062a82610603565b9161063860405193846105e2565b829481845281830111610166578281602093846000960137010152565b60005b8381106106685750506000910152565b8181015183820152602001610658565b6020610691918160405193828580945193849201610655565b8101600681520301902090565b34610166576020366003190112610166576004356001600160401b03811161016657366023820112156101665760ff6106eb6106e6602093369060248160040135910161061e565b610678565b54166040519015158152f35b156106fe57565b60405162461bcd60e51b81526020600482015260156024820152742934b9b5a937baba32b91d103737ba1037bbb732b960591b6044820152606490fd5b908060209392818452848401376000828201840152601f01601f1916010190565b1561076357565b60405162461bcd60e51b815260206004820152601960248201527f5269736b526f757465723a2074726164652065787069726564000000000000006044820152606490fd5b156107af57565b60405162461bcd60e51b815260206004820152601960248201527f5269736b526f757465723a20696e76616c6964206e6f6e6365000000000000006044820152606490fd5b156107fb57565b60405162461bcd60e51b815260206004820152601d60248201527f5269736b526f757465723a20616c72656164792070726f6365737365640000006044820152606490fd5b1561084757565b60405162461bcd60e51b815260206004820152602560248201527f5269736b526f757465723a207369676e6572206973206e6f74206167656e742060448201526437bbb732b960d91b6064820152608490fd5b60001981146108a95760010190565b634e487b7160e01b600052601160045260246000fd5b90916060928252604060208301526108e68151809281604086015260208686019101610655565b601f01601f1916010190565b903590601e198136030182121561016657018035906001600160401b0382116101665760200191813603831361016657565b969594906060949261095594610947928a52608060208b015260808a019161073b565b91878303604089015261073b565b930152565b3561096481610194565b90565b90916109f3939261097e60e084013542111561075c565b82356109a3610997826000526009602052604060002090565b5460c0860135146107a8565b6109ff6109fa6109b286610b96565b9788946109e26109dd6109d96109d2896000526008602052604060002090565b5460ff1690565b1590565b6107f4565b6109eb85610df0565b96369161061e565b8486610ec8565b610840565b610a0884611100565b90610a2d610a20856000526008602052604060002090565b805460ff19166001179055565b610a41836000526009602052604060002090565b610a4b815461089a565b905515610b555750837fda0ac845197f6ee8b8b1298cf0183f48a9264e9f83356f144b10f7661fa1612791610a7f82611234565b610a8c60208301836108f2565b86610ac3610aa060408798959801876108f2565b6040516001600160a01b0399948a16989095869560609092013593918c87610924565b0390a3600154610ae3906001600160a01b03165b6001600160a01b031690565b16151580610b3d575b80610b25575b80610b17575b610b06575b50505060019190565b610b0f9261141d565b388083610afd565b506101408301351515610af8565b50610b36610ad7610120850161095a565b1515610af2565b50610b4e610ad7610100850161095a565b1515610aec565b9093507fd344d458e98402d70ff8c192eeb985bc45059d53f0ec4d4306687d59d3ac6abf9250610b8d915060405191829187836108bf565b0390a260009190565b610d1c610d28602092610bb5610bae858301836108f2565b369161061e565b84815191012090610bcc610bae60408301836108f2565b85815191012090610cbe610be6610bae60a08401846108f2565b878151910120610bf9610100840161095a565b94610c07610120850161095a565b6040519687958b870197610160820135956101408301359560e08401359360c0810135936080820135928d6060840135933590989693909c9b9a979491926101809a96936101a08b019e7fb3e3feb75fdbf40cd7b823fa7b0b1b32de8f8d6bf2be6e16f1a9eedfc559b6118c5260208c015260408b015260608a0152608089015260a088015260c087015260e086015261010085015260018060a01b03809216610120850152166101408301526101608201520152565b0391610cd2601f19938481018352826105e2565b51902060405161190160f01b9581019586527f0000000000000000000000000000000000000000000000000000000000000000600287015260228601919091529283906042860190565b039081018352826105e2565b51902090565b81601f82011215610166578051610d4481610603565b92610d5260405194856105e2565b81845260208284010111610166576109649160208085019101610655565b909160e0828403126101665781516001600160401b03908181116101665784610d9a918501610d2e565b93602084015191821161016657610db2918401610d2e565b916040810151610dc181610194565b916060820151916080810151610dd6816102fe565b9160c060a083015192015190565b6040513d6000823e3d90fd5b9060018060a01b0360008181541693602460405180968193632de5aaf760e01b835260048301525afa928315610ea357600093610e77575b50821615610e3257565b60405162461bcd60e51b815260206004820152601b60248201527f5269736b526f757465723a206167656e74206e6f7420666f756e6400000000006044820152606490fd5b610e959193503d806000833e610e8d81836105e2565b810190610d70565b505050509150509138610e28565b610de4565b9081602091031261016657516001600160e01b0319811681036101665790565b9190916041825114610f68575b803b610ee357505050600090565b610f07916020916040518080958194630b135d3f60e11b98898452600484016108bf565b03916001600160a01b03165afa60009181610f37575b50610f29575050600090565b6001600160e01b0319161490565b610f5a91925060203d602011610f61575b610f5281836105e2565b810190610ea8565b9038610f1d565b503d610f48565b6020828101516040808501516060808701518351898152600091821a818801529384019490945282015281805260809060015afa15610ea3576000516001600160a01b039081168015159182610fc8575b505015610ed557505050600190565b83161490503880610fb9565b60405190602082018281106001600160401b038211176105dd5760405260008252565b60405190611004826105c2565b601882527f436f6e666964656e63652062656c6f77206d696e696d756d00000000000000006020830152565b6040519061103d826105c2565b601a82527f457863656564732073696e676c65207472616465206c696d69740000000000006020830152565b60405190611076826105c2565b6016825275151bdad95b881b9bdd081a5b88185b1b1bdddb1a5cdd60521b6020830152565b604051906110a8826105c2565b601882527f4461696c79206c6f7373206c696d6974207265616368656400000000000000006020830152565b604051906110e1826105c2565b601082526f4167656e74206e6f742061637469766560801b6020830152565b6005546080820135106112285760035460608201351161121c576111396109d96109d26106e661113360208601866108f2565b90611567565b6112105735611152816000526007602052604060002090565b62015180420481541490816111ff575b506111f357600080546111a29290611182906001600160a01b0316610ad7565b6040518080958194632de5aaf760e01b8352600483019190602083019252565b03915afa908115610ea3576000916111d1575b50156111c657600190610964610fd4565b6000906109646110d4565b6111e691503d806000833e610e8d81836105e2565b50509350505050386111b5565b5060009061096461109b565b600191500154600454111538611162565b50600090610964611069565b50600090610964611030565b50600090610964610ff7565b6002906201518042049035600052600760205260406000209080825403611266575b5001611262815461089a565b9055565b81556000600182015560008282015538611256565b6001600160401b0381116105dd5760051b60200190565b60405190606082018281106001600160401b038211176105dd5760405260028252604082602036910137565b634e487b7160e01b600052603260045260246000fd5b8051156112e15760200190565b6112be565b8051600110156112e15760400190565b6020908181840312610166578051906001600160401b03821161016657019180601f8401121561016657825161132b8161127b565b9361133960405195866105e2565b818552838086019260051b820101928311610166578301905b828210611360575050505090565b81518152908301908301611352565b9291909594939560a08401908452602091602085015260a060408501528251809152602060c0850193019160005b8281106113be5750505050906080919460018060a01b031660608201520152565b83516001600160a01b03168552938101939281019260010161139d565b906040820190825260206060819360408382015285518094520193019160005b828110611409575050505090565b8351855293810193928101926001016113fb565b60006114b3929361142c611292565b9061145561143d610100860161095a565b611446846112d4565b6001600160a01b039091169052565b61146e611465610120860161095a565b611446846112e6565b600154611483906001600160a01b0316610ad7565b90836040518097819582946338ed173960e01b845260e08a0135916101608b01356101408c01356004870161136f565b03925af1908115610ea3577fb21c6d2ad94d406a58dd91450d33bf96e7fde06d2ffcb1969c2ccbe34bb53ef2926000926114ff575b506114fa6040519283923595836113db565b0390a2565b61151d9192503d806000833e61151581836105e2565b8101906112f6565b90386114e8565b9081518110156112e1570160200190565b9061153f82610603565b61154c60405191826105e2565b828152809261155d601f1991610603565b0190602036910137565b909161157436848461061e565b9260009260005b855181101561161d57602f60f81b6115b46115a7611599848a611524565b516001600160f81b03191690565b6001600160f81b03191690565b146115c15760010161157b565b929350905b821561160d5750506115d781611535565b9060005b8181106115e9575090925050565b806115f961159960019388611524565b60001a6116068286611524565b53016115db565b909150610964929350369161061e565b50909291926115c656fea264697066735822122031b78906bd6c044a2688c7884c694e8d6d5c1166e0bbb7f1219444a65cfe04c464736f6c63430008180033",
  "linkReferences": {},
  "deployedLinkReferences": {}
}