{
  "_format": "hh-sol-artifact-1",
  "contractName": "RiskRouter",
  "sourceName": "contracts/RiskRouter.sol",
  "abi": [
    {
      "inputs": [
        {
          "internalType": "address",
          "name": "_agentRegistry",
          "type": "address"
        }
      ],
      "stateMutability": "nonpayable",
      "type": "constructor"
    },
    {
      "anonymous": false,
      "inputs": [
        {
          "indexed": false,
          "internalType": "address",
          "name": "dexRouter",
          "type": "address"
        }
      ],
      "name": "DEXRouterUpdated",
      "type": "event"
    },
    {
      "anonymous": false,
      "inputs": [
        {
          "indexed": false,
          "internalType": "uint256",
          "name": "maxSingleTradeUsd",
          "type": "uint256"
        },
        {
          "indexed": false,
          "internalType": "uint256",
          "name": "maxDailyLossUsd",
          "type": "uint256"
        }
      ],
      "name": "LimitsUpdated",
      "type": "event"
    },
    {
      "anonymous": false,
      "inputs": [
        {
          "indexed": false,
          "internalType": "uint8",
          "name": "mode",
          "type": "uint8"
        }
      ],
      "name": "LossAccountingModeUpdated",
      "type": "event"
    },
    {
      "anonymous": false,
      "inputs": [
        {
          "indexed": false,
          "internalType": "string",
          "name": "token",
          "type": "string"
        },
        {
          "indexed": false,
          "internalType": "bool",
          "name": "allowed",
          "type": "bool"
        }
      ],
      "name": "TokenAllowlistUpdated",
      "type": "event"
    },
    {
      "anonymous": false,
      "inputs": [
        {
          "indexed": true,
          "internalType": "uint256",
          "name": "agentId",
          "type": "uint256"
        },
        {
          "indexed": true,
          "internalType": "address",
          "name": "wallet",
          "type": "address"
        },
        {
          "indexed": false,
          "internalType": "bytes32",
          "name": "tradeHash",
          "type": "bytes32"
        },
        {
          "indexed": false,
          "internalType": "string",
          "name": "tokenPair",
          "type": "string"
        },
        {
          "indexed": false,
          "internalType": "string",
          "name": "action",
          "type": "string"
        },
        {
          "indexed": false,
          "internalType": "uint256",
          "name": "amountUsd",
          "type": "uint256"
        }
      ],
      "name": "TradeApproved",
      "type": "event"
    },
    {
      "anonymous": false,
      "inputs": [
        {
          "indexed": true,
          "internalType": "uint256",
          "name": "agentId",
          "type": "uint256"
        },
        {
          "indexed": false,
          "internalType": "bytes32",
          "name": "tradeHash",
          "type": "bytes32"
        },
        {
          "indexed": false,
          "internalType": "uint256[]",
          "name": "amounts",
          "type": "uint256[]"
        }
      ],
      "name": "TradeExecuted",
      "type": "event"
    },
    {
      "anonymous": false,
      "inputs": [
        {
          "indexed": true,
          "internalType": "uint256",
          "name": "agentId",
          "type": "uint256"
        },
        {
          "indexed": false,
          "internalType": "bytes32",
          "name": "tradeHash",
          "type": "bytes32"
        },
        {
          "indexed": false,
          "internalType": "string",
          "name": "reason",
          "type": "string"
        }
      ],
      "name": "TradeRejected",
      "type": "event"
    },
    {
      "inputs": [],
      "name": "DOMAIN_SEPARATOR",
      "outputs": [
        {
          "internalType": "bytes32",
          "name": "",
          "type": "bytes32"
        }
      ],
      "stateMutability": "view",
      "type": "function"
    },
    {
      "inputs": [],
      "name": "TRADE_TYPEHASH",
      "outputs": [
        {
          "internalType": "bytes32",
          "name": "",
          "type": "bytes32"
        }
      ],
      "stateMutability": "view",
      "type": "function"
    },
    {
      "inputs": [
        {
          "internalType": "uint256",
          "name": "",
          "type": "uint256"
        }
      ],
      "name": "agentDailyStats",
      "outputs": [
        {
          "internalType": "uint256",
          "name": "date",
          "type": "uint256"
        },
        {
          "internalType": "uint256",
          "name": "totalLossUsd",
          "type": "uint256"
        },
        {
          "internalType": "uint256",
          "name": "tradeCount",
          "type": "uint256"
        }
      ],
      "stateMutability": "view",
      "type": "function"
    },
    {
      "inputs": [
        {
          "internalType": "uint256",
          "name": "",
          "type": "uint256"
        }
      ],
      "name": "agentNonces",
      "outputs": [
        {
          "internalType": "uint256",
          "name": "",
          "type": "uint256"
        }
      ],
      "stateMutability": "view",
      "type": "function"
    },
    {
      "inputs": [],
      "name": "agentRegistry",
      "outputs": [
        {
          "internalType": "contract AgentRegistry",
          "name": "",
          "type": "address"
        }
      ],
      "stateMutability": "view",
      "type": "function"
    },
    {
      "inputs": [
        {
          "internalType": "string",
          "name": "",
          "type": "string"
        }
      ],
      "name": "allowedTokens",
      "outputs": [
        {
          "internalType": "bool",
          "name": "",
          "type": "bool"
        }
      ],
      "stateMutability": "view",
      "type": "function"
    },
    {
      "inputs": [],
      "name": "dexRouter",
      "outputs": [
        {
          "internalType": "contract IDEXRouter",
          "name": "",
          "type": "address"
        }
      ],
      "stateMutability": "view",
      "type": "function"
    },
    {
      "inputs": [
        {
          "internalType": "uint256",
          "name": "agentId",
          "type": "uint256"
        }
      ],
      "name": "getAgentDailyStats",
      "outputs": [
        {
          "internalType": "uint256",
          "name": "date",
          "type": "uint256"
        },
        {
          "internalType": "uint256",
          "name": "totalLossUsd",
          "type": "uint256"
        },
        {
          "internalType": "uint256",
          "name": "tradeCount",
          "type": "uint256"
        }
      ],
      "stateMutability": "view",
      "type": "function"
    },
    {
      "inputs": [
        {
          "internalType": "uint256",
          "name": "agentId",
          "type": "uint256"
        }
      ],
      "name": "getAgentNonce",
      "outputs": [
        {
          "internalType": "uint256",
          "name": "",
          "type": "uint256"
        }
      ],
      "stateMutability": "view",
      "type": "function"
    },
    {
      "inputs": [
        {
          "internalType": "bytes32",
          "name": "tradeHash",
          "type": "bytes32"
        }
      ],
      "name": "isTradeProcessed",
      "outputs": [
        {
          "internalType": "bool",
          "name": "",
          "type": "bool"
        }
      ],
      "stateMutability": "view",
      "type": "function"
    },
    {
      "inputs": [],
      "name": "lossAccountingMode",
      "outputs": [
        {
          "internalType": "uint8",
          "name": "",
          "type": "uint8"
        }
      ],
      "stateMutability": "view",
      "type": "function"
    },
    {
      "inputs": [],
      "name": "maxDailyLossUsd",
      "outputs": [
        {
          "internalType": "uint256",
          "name": "",
          "type": "uint256"
        }
      ],
      "stateMutability": "view",
      "type": "function"
    },
    {
      "inputs": [],
      "name": "maxSingleTradeUsd",
      "outputs": [
        {
          "internalType": "uint256",
          "name": "",
          "type": "uint256"
        }
      ],
      "stateMutability": "view",
      "type": "function"
    },
    {
      "inputs": [],
      "name": "minConfidence",
      "outputs": [
        {
          "internalType": "uint256",
          "name": "",
          "type": "uint256"
        }
      ],
      "stateMutability": "view",
      "type": "function"
    },
    {
      "inputs": [],
      "name": "owner",
      "outputs": [
        {
          "internalType": "address",
          "name": "",
          "type": "address"
        }
      ],
      "stateMutability": "view",
      "type": "function"
    },
    {
      "inputs": [
        {
          "internalType": "bytes32",
          "name": "",
          "type": "bytes32"
        }
      ],
      "name": "processedTrades",
      "outputs": [
        {
          "internalType": "bool",
          "name": "",
          "type": "bool"
        }
      ],
      "stateMutability": "view",
      "type": "function"
    },
    {
      "inputs": [
        {
          "internalType": "address",
          "name": "router",
          "type": "address"
        }
      ],
      "name": "setDEXRouter",
      "outputs": [],
      "stateMutability": "nonpayable",
      "type": "function"
    },
    {
      "inputs": [
        {
          "internalType": "uint256",
          "name": "maxSingle",
          "type": "uint256"
        },
        {
          "internalType": "uint256",
          "name": "maxDaily",
          "type": "uint256"
        }
      ],
      "name": "setLimits",
      "outputs": [],
      "stateMutability": "nonpayable",
      "type": "function"
    },
    {
      "inputs": [
        {
          "internalType": "uint8",
          "name": "mode",
          "type": "uint8"
        }
      ],
      "name": "setLossAccountingMode",
      "outputs": [],
      "stateMutability": "nonpayable",
      "type": "function"
    },
    {
      "inputs": [
        {
          "internalType": "uint256",
          "name": "threshold",
          "type": "uint256"
        }
      ],
      "name": "setMinConfidence",
      "outputs": [],
      "stateMutability": "nonpayable",
      "type": "function"
    },
    {
      "inputs": [
        {
          "internalType": "string",
          "name": "token",
          "type": "string"
        },
        {
          "internalType": "bool",
          "name": "allowed",
          "type": "bool"
        }
      ],
      "name": "setTokenAllowed",
      "outputs": [],
      "stateMutability": "nonpayable",
      "type": "function"
    },
    {
      "inputs": [
        {
          "components": [
            {
              "internalType": "uint256",
              "name": "agentId",
              "type": "uint256"
            },
            {
              "internalType": "string",
              "name": "tokenPair",
              "type": "string"
            },
            {
              "internalType": "string",
              "name": "action",
              "type": "string"
            },
            {
              "internalType": "uint256",
              "name": "amountUsd",
              "type": "uint256"
            },
            {
              "internalType": "uint256",
              "name": "confidence",
              "type": "uint256"
            },
            {
              "internalType": "string",
              "name": "reason",
              "type": "string"
            },
            {
              "internalType": "uint256",
              "name": "nonce",
              "type": "uint256"
            },
            {
              "internalType": "uint256",
              "name": "deadline",
              "type": "uint256"
            },
            {
              "internalType": "address",
              "name": "tokenIn",
              "type": "address"
            },
            {
              "internalType": "address",
              "name": "tokenOut",
              "type": "address"
            },
            {
              "internalType": "uint256",
              "name": "amountIn",
              "type": "uint256"
            },
            {
              "internalType": "uint256",
              "name": "amountOutMin",
              "type": "uint256"
            }
          ],
          "internalType": "struct RiskRouter.TradeIntent",
          "name": "intent",
          "type": "tuple"
        },
        {
          "internalType": "bytes",
          "name": "signature",
          "type": "bytes"
        }
      ],
      "name": "submitTrade",
      "outputs": [
        {
          "internalType": "bool",
          "name": "approved",
          "type": "bool"
        },
        {
          "internalType": "bytes32",
          "name": "tradeHash",
          "type": "bytes32"
        }
      ],
      "stateMutability": "nonpayable",
      "type": "function"
    }
  ],
  "bytecode": "0x60a03462000257576001600160401b0390601f62001aa738819003918201601f19168301929190848411838510176200025c5781602092849260409687528339810103126200025757516001600160a01b038116919082900362000257576207a120600355600490620f42408255602d60055560ff1992836006541660065560018060a01b03193381600254161760025560005416176000558051926208aa8960eb1b8452602360079485600382015220602460019582878581955416179055602385516242544360e81b815282600382015220838582541617905560258551644d4154494360d81b8152826005820152208385825416179055818551634c494e4b60e01b815282888201522083858254161790556023855162554e4960e81b8152826003820152208385825416179055818551634141564560e01b81528288820152208385825416179055818551635553444360e01b81528288820152208385825416179055845190630ae8aa8960e31b8252868201522091825416179055600e60208251620001908162000272565b828152016d1052551c98591a5b99d059d95b9d60921b8152209260208251620001b98162000272565b82815201603160f81b8152209181519260208401947f8b73c3c69bb8fe3d512ecc4cf759cc79239f7b179b0ffacaa9a75d522b39400f86528385015260608401524660808401523060a084015260a0835260c08301948386109086111762000242575083905251902060805261181890816200028f82396080518181816104cd0152610e020152f35b604190634e487b7160e01b6000525260246000fd5b600080fd5b634e487b7160e01b600052604160045260246000fd5b604081019081106001600160401b038211176200025c5760405256fe6080604052600436101561001257600080fd5b60003560e01c80630758d924146101685780630d1cfcae146101635780630e449f971461015e5780631344c76e1461013b5780631d17d20b14610159578063260f06081461012c5780632bba58ac14610154578063351f0dbe1461014f5780633644e5151461014a5780634cfee215146101275780635764390c1461014557806363e935571461014057806364ef282f1461013b5780638da5cb5b146101365780638fe9099a1461013157806391be86be1461012c578063ace1854b14610127578063c4590d3f14610122578063c45c9b181461011d578063d52b7a1414610118578063efe12a0c146101135763fb9576da1461010e57600080fd5b6107ac565b610652565b610634565b610613565b6105af565b6104f0565b610352565b610591565b610568565b61024d565b61054a565b61051c565b6104b5565b6103f5565b610383565b610290565b6101d0565b610196565b34610191576000366003190112610191576001546040516001600160a01b039091168152602090f35b600080fd5b34610191576000366003190112610191576000546040516001600160a01b039091168152602090f35b6001600160a01b0381160361019157565b34610191576020366003190112610191577f2e9ffa1ee0be8af4df6740c772c339bd5574ff9175d4cd0328e7f27685b3f6e26020600435610210816101bf565b6002546001600160a01b03919061022a9083163314610805565b16806bffffffffffffffffffffffff60a01b6001541617600155604051908152a1005b3461019157602036600319011261019157600435600052600860205260606040600020805490600260018201549101549060405192835260208301526040820152f35b346101915760203660031901126101915760043560ff8116808203610191576102c460018060a01b03600254163314610805565b6001811161030d576006805460ff191691909117905560405160ff9190911681527fc057645b2a328d07723186c8314f0e7a0337fc35e1a91da7b6136d0bf0c50e5490602090a1005b60405162461bcd60e51b815260206004820152601860248201527f5269736b526f757465723a20696e76616c6964206d6f646500000000000000006044820152606490fd5b34610191576020366003190112610191576004356000526009602052602060ff604060002054166040519015158152f35b346101915760003660031901126101915760206040517fb3e3feb75fdbf40cd7b823fa7b0b1b32de8f8d6bf2be6e16f1a9eedfc559b6118152f35b9181601f84011215610191578235916001600160401b038311610191576020838186019501011161019157565b8015150361019157565b34610191576040366003190112610191576004356001600160401b038111610191576104467f9d6db961e826d7e57b67b26f3c9b85cffd3a1224d6007450a285a198f2984c5f9136906004016103be565b602435610452816103eb565b61046760018060a01b03600254163314610805565b610491816040518486823760208186810160078152030190209060ff801983541691151516179055565b6104a8604051938493604085526040850191610849565b90151560208301520390a1005b346101915760003660031901126101915760206040517f00000000000000000000000000000000000000000000000000000000000000008152f35b3461019157602036600319011261019157600435600052600a6020526020604060002054604051908152f35b346101915760203660031901126101915761054260018060a01b03600254163314610805565b600435600555005b34610191576000366003190112610191576020600354604051908152f35b34610191576000366003190112610191576002546040516001600160a01b039091168152602090f35b34610191576000366003190112610191576020600454604051908152f35b34610191576040366003190112610191577f4d4981437d0211f9e6843eb024d9ada1fa3a99514d4343d4aece106dd11524bb60406004356024356105fe60018060a01b03600254163314610805565b816003558060045582519182526020820152a1005b3461019157600036600319011261019157602060ff60065416604051908152f35b34610191576000366003190112610191576020600554604051908152f35b346101915760031960403682011261019157600435906001600160401b03908183116101915761018090833603011261019157602435908111610191576040916106a36106ac9236906004016103be565b91600401610a7a565b825191151582526020820152f35b634e487b7160e01b600052604160045260246000fd5b604081019081106001600160401b038211176106eb57604052565b6106ba565b90601f801991011681019081106001600160401b038211176106eb57604052565b6001600160401b0381116106eb57601f01601f191660200190565b92919261073882610711565b9161074660405193846106f0565b829481845281830111610191578281602093846000960137010152565b60005b8381106107765750506000910152565b8181015183820152602001610766565b602061079f918160405193828580945193849201610763565b8101600781520301902090565b34610191576020366003190112610191576004356001600160401b03811161019157366023820112156101915760ff6107f96107f4602093369060248160040135910161072c565b610786565b54166040519015158152f35b1561080c57565b60405162461bcd60e51b81526020600482015260156024820152742934b9b5a937baba32b91d103737ba1037bbb732b960591b6044820152606490fd5b908060209392818452848401376000828201840152601f01601f1916010190565b1561087157565b60405162461bcd60e51b815260206004820152601960248201527f5269736b526f757465723a2074726164652065787069726564000000000000006044820152606490fd5b156108bd57565b60405162461bcd60e51b815260206004820152601960248201527f5269736b526f757465723a20696e76616c6964206e6f6e6365000000000000006044820152606490fd5b1561090957565b60405162461bcd60e51b815260206004820152601d60248201527f5269736b526f757465723a20616c72656164792070726f6365737365640000006044820152606490fd5b1561095557565b60405162461bcd60e51b815260206004820152602560248201527f5269736b526f757465723a207369676e6572206973206e6f74206167656e742060448201526437bbb732b960d91b6064820152608490fd5b634e487b7160e01b600052601160045260246000fd5b60001981146109cd5760010190565b6109a8565b90916060928252604060208301526109f98151809281604086015260208686019101610763565b601f01601f1916010190565b903590601e198136030182121561019157018035906001600160401b0382116101915760200191813603831361019157565b9695949060609492610a6894610a5a928a52608060208b015260808a0191610849565b918783036040890152610849565b930152565b35610a77816101bf565b90565b9091610b069392610a9160e084013542111561086a565b8235610ab6610aaa82600052600a602052604060002090565b5460c0860135146108b6565b610b12610b0d610ac586610cb2565b978894610af5610af0610aec610ae5896000526009602052604060002090565b5460ff1690565b1590565b610902565b610afe85610f0c565b96369161072c565b8486610fe4565b61094e565b610b1b8461121c565b90610b40610b33856000526009602052604060002090565b805460ff19166001179055565b610b5483600052600a602052604060002090565b610b5e81546109be565b905515610c715750610bdf9060408501907fda0ac845197f6ee8b8b1298cf0183f48a9264e9f83356f144b10f7661fa161276060870135610baa610ba2858a610a05565b90838661135d565b610bc3610bba60208a018a610a05565b9190958a610a05565b96909260018060a01b03976040519485948a8d16998c87610a37565b0390a3600154610bff906001600160a01b03165b6001600160a01b031690565b16151580610c59575b80610c41575b80610c33575b610c22575b50505060019190565b610c2b926115d8565b388083610c19565b506101408301351515610c14565b50610c52610bf36101208501610a6d565b1515610c0e565b50610c6a610bf36101008501610a6d565b1515610c08565b9093507fd344d458e98402d70ff8c192eeb985bc45059d53f0ec4d4306687d59d3ac6abf9250610ca9915060405191829187836109d2565b0390a260009190565b610e38610e44602092610cd1610cca85830183610a05565b369161072c565b84815191012090610ce8610cca6040830183610a05565b85815191012090610dda610d02610cca60a0840184610a05565b878151910120610d156101008401610a6d565b94610d236101208501610a6d565b6040519687958b870197610160820135956101408301359560e08401359360c0810135936080820135928d6060840135933590989693909c9b9a979491926101809a96936101a08b019e7fb3e3feb75fdbf40cd7b823fa7b0b1b32de8f8d6bf2be6e16f1a9eedfc559b6118c5260208c015260408b015260608a0152608089015260a088015260c087015260e086015261010085015260018060a01b03809216610120850152166101408301526101608201520152565b0391610dee601f19938481018352826106f0565b51902060405161190160f01b9581019586527f0000000000000000000000000000000000000000000000000000000000000000600287015260228601919091529283906042860190565b039081018352826106f0565b51902090565b81601f82011215610191578051610e6081610711565b92610e6e60405194856106f0565b8184526020828401011161019157610a779160208085019101610763565b909160e0828403126101915781516001600160401b03908181116101915784610eb6918501610e4a565b93602084015191821161019157610ece918401610e4a565b916040810151610edd816101bf565b916060820151916080810151610ef2816103eb565b9160c060a083015192015190565b6040513d6000823e3d90fd5b9060018060a01b0360008181541693602460405180968193632de5aaf760e01b835260048301525afa928315610fbf57600093610f93575b50821615610f4e57565b60405162461bcd60e51b815260206004820152601b60248201527f5269736b526f757465723a206167656e74206e6f7420666f756e6400000000006044820152606490fd5b610fb19193503d806000833e610fa981836106f0565b810190610e8c565b505050509150509138610f44565b610f00565b9081602091031261019157516001600160e01b0319811681036101915790565b9190916041825114611084575b803b610fff57505050600090565b611023916020916040518080958194630b135d3f60e11b98898452600484016109d2565b03916001600160a01b03165afa60009181611053575b50611045575050600090565b6001600160e01b0319161490565b61107691925060203d60201161107d575b61106e81836106f0565b810190610fc4565b9038611039565b503d611064565b6020828101516040808501516060808701518351898152600091821a818801529384019490945282015281805260809060015afa15610fbf576000516001600160a01b0390811680151591826110e4575b505015610ff157505050600190565b831614905038806110d5565b60405190602082018281106001600160401b038211176106eb5760405260008252565b60405190611120826106d0565b601882527f436f6e666964656e63652062656c6f77206d696e696d756d00000000000000006020830152565b60405190611159826106d0565b601a82527f457863656564732073696e676c65207472616465206c696d69740000000000006020830152565b60405190611192826106d0565b6016825275151bdad95b881b9bdd081a5b88185b1b1bdddb1a5cdd60521b6020830152565b604051906111c4826106d0565b601882527f4461696c79206c6f7373206c696d6974207265616368656400000000000000006020830152565b604051906111fd826106d0565b601082526f4167656e74206e6f742061637469766560801b6020830152565b6005546080820135106113445760035460608201351161133857611255610aec610ae56107f461124f6020860186610a05565b90611722565b61132c573561126e816000526008602052604060002090565b620151804204815414908161131b575b5061130f57600080546112be929061129e906001600160a01b0316610bf3565b6040518080958194632de5aaf760e01b8352600483019190602083019252565b03915afa908115610fbf576000916112ed575b50156112e257600190610a776110f0565b600090610a776111f0565b61130291503d806000833e610fa981836106f0565b50509350505050386112d1565b50600090610a776111b7565b60019150015460045411153861127e565b50600090610a77611185565b50600090610a7761114c565b50600090610a77611113565b919082018092116109cd57565b9161139f919361137d620151804204946000526008602052604060002090565b9380855403611420575b506002840161139681546109be565b9055369161072c565b602081519101206314d1531360e21b60206040516113bc816106d0565b60048152015260ff6113d060065460ff1690565b16159081156113f6575b506113e3575050565b60016113f29101918254611350565b9055565b7f46e2aa85b4ea4837644e46fe22acb44743da12e349006c0093a61f6bf0967602915014386113da565b8455600060018501556000600285015538611387565b6001600160401b0381116106eb5760051b60200190565b60405190606082018281106001600160401b038211176106eb5760405260028252604082602036910137565b634e487b7160e01b600052603260045260246000fd5b80511561149c5760200190565b611479565b80516001101561149c5760400190565b6020908181840312610191578051906001600160401b03821161019157019180601f840112156101915782516114e681611436565b936114f460405195866106f0565b818552838086019260051b820101928311610191578301905b82821061151b575050505090565b8151815290830190830161150d565b9291909594939560a08401908452602091602085015260a060408501528251809152602060c0850193019160005b8281106115795750505050906080919460018060a01b031660608201520152565b83516001600160a01b031685529381019392810192600101611558565b906040820190825260206060819360408382015285518094520193019160005b8281106115c4575050505090565b8351855293810193928101926001016115b6565b600061166e92936115e761144d565b906116106115f86101008601610a6d565b6116018461148f565b6001600160a01b039091169052565b6116296116206101208601610a6d565b611601846114a1565b60015461163e906001600160a01b0316610bf3565b90836040518097819582946338ed173960e01b845260e08a0135916101608b01356101408c01356004870161152a565b03925af1908115610fbf577fb21c6d2ad94d406a58dd91450d33bf96e7fde06d2ffcb1969c2ccbe34bb53ef2926000926116ba575b506116b5604051928392359583611596565b0390a2565b6116d89192503d806000833e6116d081836106f0565b8101906114b1565b90386116a3565b90815181101561149c570160200190565b906116fa82610711565b61170760405191826106f0565b8281528092611718601f1991610711565b0190602036910137565b909161172f36848461072c565b9260009260005b85518110156117d857602f60f81b61176f611762611754848a6116df565b516001600160f81b03191690565b6001600160f81b03191690565b1461177c57600101611736565b929350905b82156117c8575050611792816116f0565b9060005b8181106117a4575090925050565b806117b4611754600193886116df565b60001a6117c182866116df565b5301611796565b909150610a77929350369161072c565b509092919261178156fea2646970667358221220555b63b8c52aff8d736a0543c3dd5d7ccfe469fd2e6dddaaa0ee0bb54689eefa64736f6c63430008180033",
  "linkReferences": {},
  "deployedLinkReferences": {}
}