{
  "_format": "hh-sol-artifact-1",
  "contractName": "ReputationManager",
  "sourceName": "contracts/ReputationManager.sol",
  "abi": [
    {
      "inputs": [
        {
          "internalType": "address",
          "name": "_registry",
          "type": "address"
        },
        {
          "internalType": "address",
          "name": "_validationRegistry",
          "type": "address"
        }
      ],
      "stateMutability": "nonpayable",
      "type": "constructor"
    },
    {
      "anonymous": false,
      "inputs": [
        {
          "indexed": true,
          "internalType": "uint256",
          "name": "agentId",
          "type": "uint256"
        },
        {
          "indexed": false,
          "internalType": "uint256",
          "name": "newTrustScore",
          "type": "uint256"
        },
        {
          "indexed": false,
          "internalType": "int256",
          "name": "scoreDelta",
          "type": "int256"
        },
        {
          "indexed": false,
          "internalType": "string",
          "name": "reason",
          "type": "string"
        }
      ],
      "name": "ReputationUpdated",
      "type": "event"
    },
    {
      "inputs": [],
      "name": "MAX_NEGATIVE_DELTA",
      "outputs": [
        {
          "internalType": "int256",
          "name": "",
          "type": "int256"
        }
      ],
      "stateMutability": "view",
      "type": "function"
    },
    {
      "inputs": [],
      "name": "MAX_POSITIVE_DELTA",
      "outputs": [
        {
          "internalType": "int256",
          "name": "",
          "type": "int256"
        }
      ],
      "stateMutability": "view",
      "type": "function"
    },
    {
      "inputs": [
        {
          "internalType": "uint256",
          "name": "",
          "type": "uint256"
        },
        {
          "internalType": "uint256",
          "name": "",
          "type": "uint256"
        }
      ],
      "name": "agentHistory",
      "outputs": [
        {
          "internalType": "uint256",
          "name": "agentId",
          "type": "uint256"
        },
        {
          "internalType": "string",
          "name": "tradeId",
          "type": "string"
        },
        {
          "internalType": "bool",
          "name": "profitable",
          "type": "bool"
        },
        {
          "internalType": "int256",
          "name": "pnlBps",
          "type": "int256"
        },
        {
          "internalType": "uint256",
          "name": "confidence",
          "type": "uint256"
        },
        {
          "internalType": "uint256",
          "name": "timestamp",
          "type": "uint256"
        }
      ],
      "stateMutability": "view",
      "type": "function"
    },
    {
      "inputs": [],
      "name": "agentRegistry",
      "outputs": [
        {
          "internalType": "contract AgentRegistry",
          "name": "",
          "type": "address"
        }
      ],
      "stateMutability": "view",
      "type": "function"
    },
    {
      "inputs": [
        {
          "internalType": "uint256",
          "name": "agentId",
          "type": "uint256"
        }
      ],
      "name": "getAgentHistory",
      "outputs": [
        {
          "components": [
            {
              "internalType": "uint256",
              "name": "agentId",
              "type": "uint256"
            },
            {
              "internalType": "string",
              "name": "tradeId",
              "type": "string"
            },
            {
              "internalType": "bool",
              "name": "profitable",
              "type": "bool"
            },
            {
              "internalType": "int256",
              "name": "pnlBps",
              "type": "int256"
            },
            {
              "internalType": "uint256",
              "name": "confidence",
              "type": "uint256"
            },
            {
              "internalType": "uint256",
              "name": "timestamp",
              "type": "uint256"
            }
          ],
          "internalType": "struct ReputationManager.ScoreUpdate[]",
          "name": "",
          "type": "tuple[]"
        }
      ],
      "stateMutability": "view",
      "type": "function"
    },
    {
      "inputs": [
        {
          "internalType": "uint256",
          "name": "agentId",
          "type": "uint256"
        }
      ],
      "name": "getTrustScore",
      "outputs": [
        {
          "internalType": "uint256",
          "name": "",
          "type": "uint256"
        }
      ],
      "stateMutability": "view",
      "type": "function"
    },
    {
      "inputs": [],
      "name": "owner",
      "outputs": [
        {
          "internalType": "address",
          "name": "",
          "type": "address"
        }
      ],
      "stateMutability": "view",
      "type": "function"
    },
    {
      "inputs": [
        {
          "internalType": "uint256",
          "name": "agentId",
          "type": "uint256"
        },
        {
          "internalType": "string",
          "name": "tradeId",
          "type": "string"
        },
        {
          "internalType": "bool",
          "name": "profitable",
          "type": "bool"
        },
        {
          "internalType": "int256",
          "name": "pnlBps",
          "type": "int256"
        }
      ],
      "name": "updateReputation",
      "outputs": [],
      "stateMutability": "nonpayable",
      "type": "function"
    },
    {
      "inputs": [],
      "name": "validationRegistry",
      "outputs": [
        {
          "internalType": "contract ValidationRegistry",
          "name": "",
          "type": "address"
        }
      ],
      "stateMutability": "view",
      "type": "function"
    }
  ],
  "bytecode": "0x60803461009257601f610e2a38819003918201601f19168301916001600160401b0383118484101761009757808492604094855283398101031261009257610052602061004b836100ad565b92016100ad565b9060018060a01b0319913383600254161760025560018060a01b0380921683600054161760005516906001541617600155604051610d6890816100c28239f35b600080fd5b634e487b7160e01b600052604160045260246000fd5b51906001600160a01b03821682036100925756fe608080604052600436101561001357600080fd5b600090813560e01c9081630b793e0514610aaa575080630d1cfcae14610a83578063107091e5146103a15780633ba14907146102235780634ae11925146101885780634c6b993a1461015f5780634f005e901461014357806383f3d448146100af57638da5cb5b1461008457600080fd5b346100ac57806003193601126100ac576002546040516001600160a01b039091168152602090f35b80fd5b50346100ac57602090816003193601126100ac57805460405163107e7a8960e31b81526004803590820152908390829060249082906001600160a01b03165afa9182156101375791610105575b50604051908152f35b90508181813d8311610130575b61011c8183610bdc565b8101031261012b5751386100fc565b600080fd5b503d610112565b604051903d90823e3d90fd5b50346100ac57806003193601126100ac57602060405160058152f35b50346100ac57806003193601126100ac576001546040516001600160a01b039091168152602090f35b50346100ac5760403660031901126100ac576024356004358252600360205260408220805482101561021f576101be9250610b0e565b5080546101cd60018301610bfe565b9160ff600282015416906003810154906005600482015491015491610204604051968796875260c0602088015260c0870190610ae9565b93151560408601526060850152608084015260a08301520390f35b8280fd5b50346100ac5760208060031936011261039d57600435825260038082526040832090815467ffffffffffffffff811161038957604051939491600561026c83821b880187610bdc565b82865286860191829585528785209185935b85851061032357505050505050604051928484019085855251809152604084019460408260051b8601019392955b8287106102b95785850386f35b909192938280600192603f198982030185528751906102e960c08351835284840151908086850152830190610ae9565b91604081015115156040830152606080820151908301526080808201519083015260a08091015191015296019201960195929190926102ac565b60068a60019260409c9b999c5161033981610ba4565b87548152610348858901610bfe565b8382015260ff60028901541615156040820152868801546060820152600488015460808201528588015460a08201528152019401940193929895979861027e565b634e487b7160e01b85526041600452602485fd5b5080fd5b50346100ac5760803660031901126100ac5760243567ffffffffffffffff811161039d573660238201121561039d5767ffffffffffffffff81600401351161039d5736602482600401358301011161039d5760443515156044350361039d576002546001600160a01b03163303610a3e5760018060a01b0360015416906040516309ae52cb60e21b81526020600482015283818061044a60248201866004013560248801610d11565b0381865afa908115610a3357849161099f575b506044351561097457604b811061095c576005925b60c860643513610928575b6005841361091f575b600219808512610917575b50803b15610913578460405180926318a2787d60e11b8252606060048301528183816104c8606482018a6004013560248c01610d11565b60443515156024830152606435604483015203925af18015610908576108f5575b50835484906001600160a01b0316803b1561039d578180916064604051809481936395359d6b60e01b8352600435600484015260443515156024840152833560448401525af180156108ea576108d2575b505060043584526003602052604084206040519161055783610ba4565b600435835285602061056c8660040135610ca3565b9561057a6040519788610bdc565b6004810135808852602482018389013760040135860101526020830193845260443515156040840152606435606084015260808301524260a0830152805490680100000000000000008210156108aa57906105da91600182018155610b0e565b9290926108be57815183555180519067ffffffffffffffff82116108aa576106056001850154610b40565b601f8111610866575b50602090601f83116001146107f45791806005949260a09489926107e9575b50508160011b916000199060031b1c19161760018501555b600284016040820151151560ff80198354169116179055606081015160038501556080810151600485015501519101556024602060018060a01b038454166040519283809263107e7a8960e31b825260043560048301525afa80156107de57839061078c575b7feec147b56042117961ed3d136cd43a67947c39ce0cd9d2edf9b0344fa954a4ff915060443515610743576040516106e281610bc0565b602281527f50726f66697461626c65207472616465202d20747275737420696e6372656173602082015261195960f21b6040820152925b6040519182526020820152606060408201528061073d600435946060830190610ae9565b0390a280f35b60405161074f81610bc0565b602481527f556e70726f66697461626c65207472616465202d207472757374206465637265602082015263185cd95960e21b604082015292610719565b506020813d6020116107d6575b816107a660209383610bdc565b8101031261012b577feec147b56042117961ed3d136cd43a67947c39ce0cd9d2edf9b0344fa954a4ff90516106ab565b3d9150610799565b6040513d85823e3d90fd5b01519050388061062d565b906001850187526020872091875b601f198516811061084e5750926005949260019260a09583601f19811610610835575b505050811b016001850155610645565b015160001960f88460031b161c19169055388080610825565b91926020600181928685015181550194019201610802565b60018501875260208720601f840160051c8101602085106108a3575b601f830160051c8201811061089857505061060e565b888155600101610882565b5080610882565b634e487b7160e01b86526041600452602486fd5b634e487b7160e01b85526004859052602485fd5b6108db90610b7a565b6108e657833861053a565b8380fd5b6040513d84823e3d90fd5b61090190949194610b7a565b92386104e9565b6040513d87823e3d90fd5b8480fd5b935038610491565b60059350610486565b92600180820112858212908015821691151617610948576001019261047d565b634e487b7160e01b85526011600452602485fd5b6037811061096c57600392610472565b600192610472565b604b8110610985576002199261047d565b60378110610996576001199261047d565b6000199261047d565b90503d8085833e6109b08183610bdc565b61010082828101031261091357602082015167ffffffffffffffff8111610a2f576109e090828401908401610cbf565b5060408201519160608101519067ffffffffffffffff8211610a2b57610a1060c092610a24948301908301610cbf565b50610a1d60a08201610d04565b5001610d04565b503861045d565b8680fd5b8580fd5b6040513d86823e3d90fd5b60405162461bcd60e51b815260206004820152601c60248201527f52657075746174696f6e4d616e616765723a206e6f74206f776e6572000000006044820152606490fd5b50346100ac57806003193601126100ac57546040516001600160a01b039091168152602090f35b90503461039d578160031936011261039d576002198152602090f35b60005b838110610ad95750506000910152565b8181015183820152602001610ac9565b90602091610b0281518092818552858086019101610ac6565b601f01601f1916010190565b8054821015610b2a576000526006602060002091020190600090565b634e487b7160e01b600052603260045260246000fd5b90600182811c92168015610b70575b6020831014610b5a57565b634e487b7160e01b600052602260045260246000fd5b91607f1691610b4f565b67ffffffffffffffff8111610b8e57604052565b634e487b7160e01b600052604160045260246000fd5b60c0810190811067ffffffffffffffff821117610b8e57604052565b6060810190811067ffffffffffffffff821117610b8e57604052565b90601f8019910116810190811067ffffffffffffffff821117610b8e57604052565b90604051918260008254610c1181610b40565b90818452602094600191600181169081600014610c815750600114610c42575b505050610c4092500383610bdc565b565b600090815285812095935091905b818310610c69575050610c409350820101388080610c31565b85548884018501529485019487945091830191610c50565b92505050610c4094925060ff191682840152151560051b820101388080610c31565b67ffffffffffffffff8111610b8e57601f01601f191660200190565b81601f8201121561012b578051610cd581610ca3565b92610ce36040519485610bdc565b8184526020828401011161012b57610d019160208085019101610ac6565b90565b5190811515820361012b57565b908060209392818452848401376000828201840152601f01601f191601019056fea26469706673582212209c2ef342c777dd4d7b6f667d71f4f82eff2745f6ccf2c988b58b61cc04e5e40a64736f6c63430008180033",
  "linkReferences": {},
  "deployedLinkReferences": {}
}