{
  "_format": "hh-sol-artifact-1",
  "contractName": "ReputationManager",
  "sourceName": "contracts/ReputationManager.sol",
  "abi": [
    {
      "inputs": [
        {
          "internalType": "address",
          "name": "_registry",
          "type": "address"
        },
        {
          "internalType": "address",
          "name": "_validationRegistry",
          "type": "address"
        }
      ],
      "stateMutability": "nonpayable",
      "type": "constructor"
    },
    {
      "anonymous": false,
      "inputs": [
        {
          "indexed": true,
          "internalType": "address",
          "name": "caller",
          "type": "address"
        },
        {
          "indexed": false,
          "internalType": "bool",
          "name": "authorized",
          "type": "bool"
        }
      ],
      "name": "AuthorizedCallerSet",
      "type": "event"
    },
    {
      "anonymous": false,
      "inputs": [
        {
          "indexed": true,
          "internalType": "uint256",
          "name": "agentId",
          "type": "uint256"
        },
        {
          "indexed": false,
          "internalType": "uint256",
          "name": "maxDrawdownBps",
          "type": "uint256"
        }
      ],
      "name": "DrawdownUpdated",
      "type": "event"
    },
    {
      "anonymous": false,
      "inputs": [
        {
          "indexed": true,
          "internalType": "uint256",
          "name": "agentId",
          "type": "uint256"
        },
        {
          "indexed": false,
          "internalType": "uint256",
          "name": "newTrustScore",
          "type": "uint256"
        },
        {
          "indexed": false,
          "internalType": "int256",
          "name": "scoreDelta",
          "type": "int256"
        },
        {
          "indexed": false,
          "internalType": "string",
          "name": "reason",
          "type": "string"
        }
      ],
      "name": "ReputationUpdated",
      "type": "event"
    },
    {
      "inputs": [],
      "name": "MAX_NEGATIVE_DELTA",
      "outputs": [
        {
          "internalType": "int256",
          "name": "",
          "type": "int256"
        }
      ],
      "stateMutability": "view",
      "type": "function"
    },
    {
      "inputs": [],
      "name": "MAX_POSITIVE_DELTA",
      "outputs": [
        {
          "internalType": "int256",
          "name": "",
          "type": "int256"
        }
      ],
      "stateMutability": "view",
      "type": "function"
    },
    {
      "inputs": [
        {
          "internalType": "uint256",
          "name": "",
          "type": "uint256"
        },
        {
          "internalType": "uint256",
          "name": "",
          "type": "uint256"
        }
      ],
      "name": "agentHistory",
      "outputs": [
        {
          "internalType": "uint256",
          "name": "agentId",
          "type": "uint256"
        },
        {
          "internalType": "string",
          "name": "tradeId",
          "type": "string"
        },
        {
          "internalType": "bool",
          "name": "profitable",
          "type": "bool"
        },
        {
          "internalType": "int256",
          "name": "pnlBps",
          "type": "int256"
        },
        {
          "internalType": "uint256",
          "name": "confidence",
          "type": "uint256"
        },
        {
          "internalType": "uint256",
          "name": "timestamp",
          "type": "uint256"
        }
      ],
      "stateMutability": "view",
      "type": "function"
    },
    {
      "inputs": [],
      "name": "agentRegistry",
      "outputs": [
        {
          "internalType": "contract AgentRegistry",
          "name": "",
          "type": "address"
        }
      ],
      "stateMutability": "view",
      "type": "function"
    },
    {
      "inputs": [
        {
          "internalType": "uint256",
          "name": "",
          "type": "uint256"
        }
      ],
      "name": "agentStats",
      "outputs": [
        {
          "internalType": "int256",
          "name": "peakPnlBps",
          "type": "int256"
        },
        {
          "internalType": "int256",
          "name": "currentPnlBps",
          "type": "int256"
        },
        {
          "internalType": "uint256",
          "name": "maxDrawdownBps",
          "type": "uint256"
        },
        {
          "internalType": "int256",
          "name": "sumPnlBps",
          "type": "int256"
        },
        {
          "internalType": "uint256",
          "name": "sumSquaredPnlBps",
          "type": "uint256"
        },
        {
          "internalType": "uint256",
          "name": "tradeCount",
          "type": "uint256"
        },
        {
          "internalType": "uint256",
          "name": "winCount",
          "type": "uint256"
        },
        {
          "internalType": "uint256",
          "name": "lossCount",
          "type": "uint256"
        },
        {
          "internalType": "uint256",
          "name": "lastUpdated",
          "type": "uint256"
        }
      ],
      "stateMutability": "view",
      "type": "function"
    },
    {
      "inputs": [
        {
          "internalType": "address",
          "name": "",
          "type": "address"
        }
      ],
      "name": "authorizedCallers",
      "outputs": [
        {
          "internalType": "bool",
          "name": "",
          "type": "bool"
        }
      ],
      "stateMutability": "view",
      "type": "function"
    },
    {
      "inputs": [
        {
          "internalType": "uint256",
          "name": "agentId",
          "type": "uint256"
        }
      ],
      "name": "getAgentHistory",
      "outputs": [
        {
          "components": [
            {
              "internalType": "uint256",
              "name": "agentId",
              "type": "uint256"
            },
            {
              "internalType": "string",
              "name": "tradeId",
              "type": "string"
            },
            {
              "internalType": "bool",
              "name": "profitable",
              "type": "bool"
            },
            {
              "internalType": "int256",
              "name": "pnlBps",
              "type": "int256"
            },
            {
              "internalType": "uint256",
              "name": "confidence",
              "type": "uint256"
            },
            {
              "internalType": "uint256",
              "name": "timestamp",
              "type": "uint256"
            }
          ],
          "internalType": "struct ReputationManager.ScoreUpdate[]",
          "name": "",
          "type": "tuple[]"
        }
      ],
      "stateMutability": "view",
      "type": "function"
    },
    {
      "inputs": [
        {
          "internalType": "uint256",
          "name": "agentId",
          "type": "uint256"
        }
      ],
      "name": "getAgentPerformance",
      "outputs": [
        {
          "internalType": "int256",
          "name": "peakPnlBps",
          "type": "int256"
        },
        {
          "internalType": "int256",
          "name": "currentPnlBps",
          "type": "int256"
        },
        {
          "internalType": "uint256",
          "name": "maxDrawdownBps",
          "type": "uint256"
        },
        {
          "internalType": "int256",
          "name": "avgPnlBps",
          "type": "int256"
        },
        {
          "internalType": "uint256",
          "name": "winRate",
          "type": "uint256"
        },
        {
          "internalType": "uint256",
          "name": "tradeCount",
          "type": "uint256"
        },
        {
          "internalType": "uint256",
          "name": "sumSquaredPnlBps",
          "type": "uint256"
        }
      ],
      "stateMutability": "view",
      "type": "function"
    },
    {
      "inputs": [
        {
          "internalType": "uint256",
          "name": "agentId",
          "type": "uint256"
        }
      ],
      "name": "getTrustScore",
      "outputs": [
        {
          "internalType": "uint256",
          "name": "",
          "type": "uint256"
        }
      ],
      "stateMutability": "view",
      "type": "function"
    },
    {
      "inputs": [],
      "name": "owner",
      "outputs": [
        {
          "internalType": "address",
          "name": "",
          "type": "address"
        }
      ],
      "stateMutability": "view",
      "type": "function"
    },
    {
      "inputs": [
        {
          "internalType": "address",
          "name": "caller",
          "type": "address"
        },
        {
          "internalType": "bool",
          "name": "authorized",
          "type": "bool"
        }
      ],
      "name": "setAuthorizedCaller",
      "outputs": [],
      "stateMutability": "nonpayable",
      "type": "function"
    },
    {
      "inputs": [
        {
          "internalType": "uint256",
          "name": "agentId",
          "type": "uint256"
        },
        {
          "internalType": "string",
          "name": "tradeId",
          "type": "string"
        },
        {
          "internalType": "bool",
          "name": "profitable",
          "type": "bool"
        },
        {
          "internalType": "int256",
          "name": "pnlBps",
          "type": "int256"
        }
      ],
      "name": "updateReputation",
      "outputs": [],
      "stateMutability": "nonpayable",
      "type": "function"
    },
    {
      "inputs": [
        {
          "internalType": "uint256",
          "name": "agentId",
          "type": "uint256"
        },
        {
          "internalType": "bool",
          "name": "profitable",
          "type": "bool"
        },
        {
          "internalType": "int256",
          "name": "pnlBps",
          "type": "int256"
        },
        {
          "internalType": "uint256",
          "name": "confidence",
          "type": "uint256"
        }
      ],
      "name": "updateReputationDirect",
      "outputs": [],
      "stateMutability": "nonpayable",
      "type": "function"
    },
    {
      "inputs": [],
      "name": "validationRegistry",
      "outputs": [
        {
          "internalType": "contract ValidationRegistry",
          "name": "",
          "type": "address"
        }
      ],
      "stateMutability": "view",
      "type": "function"
    }
  ],
  "bytecode": "0x6080346100ab57601f61148d38819003918201601f19168301916001600160401b038311848410176100b05780849260409485528339810103126100ab57610052602061004b836100c6565b92016100c6565b9060018060a01b0319913383600254161760025560018060a01b03809216836000541617600055169060015416176001553360005260036020526040600020600160ff198254161790556040516113b290816100db8239f35b600080fd5b634e487b7160e01b600052604160045260246000fd5b51906001600160a01b03821682036100ab5756fe608060408181526004908136101561001657600080fd5b600092833560e01c9081630b793e0514610bab575080630d1cfcae14610b83578063107091e51461088f57806327ed42ac146107785780633ba1490714610604578063402add0814610584578063454bbd29146104b45780634ae119251461041c5780634c6b993a146103f35780634f005e90146103d7578063536fff6c1461039957806383f3d4481461030a5780638da5cb5b146102e15763c22add74146100be57600080fd5b346102dd5760803660031901126102dd578135916100da610bc7565b6002546044359260643592916001600160a01b03908116331480156102c8575b61010390610dc9565b61010e84868561112d565b948882815416803b156102c45788516395359d6b60e01b81528086018b81528715156020820152604081018590529091839183919082908490829060600103925af180156102ba576102a2575b505061016881858a6111d8565b878952602094838652878a209088519261018184610cca565b8a8452895188810181811067ffffffffffffffff82111761028d578b528c8152848901528615158a850152606084015260808301524260a0830152859289926024926101cd9190610eae565b8a5416938851948593849263107e7a8960e31b84528301525afa92831561028357879361024c575b50507feec147b56042117961ed3d136cd43a67947c39ce0cd9d2edf9b0344fa954a4ff936102389160001461023e5761022c61109b565b905b51938493846110df565b0390a280f35b610246611055565b9061022e565b9080929350813d831161027c575b6102648183610d02565b81010312610277575190836102386101f5565b600080fd5b503d61025a565b85513d89823e3d90fd5b604188634e487b7160e01b6000525260246000fd5b6102ab90610ca0565b6102b657883861015b565b8880fd5b89513d84823e3d90fd5b5080fd5b5033885260036020528588205460ff166100fa565b8280fd5b8382346102c457816003193601126102c45760025490516001600160a01b039091168152602090f35b508290346102c457602092836003193601126102dd578254825163107e7a8960e31b81528235928101929092528490829060249082906001600160a01b03165afa92831561038e579261035f575b5051908152f35b9091508281813d8311610387575b6103778183610d02565b8101031261027757519083610358565b503d61036d565b8251903d90823e3d90fd5b8382346102c45760203660031901126102c45760209160ff9082906001600160a01b036103c4610c1e565b1681526003855220541690519015158152f35b8382346102c457816003193601126102c4576020905160058152f35b8382346102c457816003193601126102c45760015490516001600160a01b039091168152602090f35b5082346104b157816003193601126104b1576024359083358152836020528281209081548310156104b157509061045291610c34565b509182549161046360018501610d24565b9360ff600282015416926005600383015491830154920154926104978151978897885260c0602089015260c0880190610bf9565b941515908601526060850152608084015260a08301520390f35b80fd5b5090346102dd57816003193601126102dd576104ce610c1e565b906104d7610bc7565b60025490926001600160a01b03929091831633036105415750916020917f1eff62a53441c7d0125c22f2a9a324e206b34efa41e19469d7efb9bb703d21a393169384865260038352610537828288209060ff801983541691151516179055565b519015158152a280f35b606490602086519162461bcd60e51b8352820152601c60248201527f52657075746174696f6e4d616e616765723a206e6f74206f776e6572000000006044820152fd5b5090346102dd5760203660031901126102dd578161012093823581526005602052208054926001820154926002830154906003840154908401549060058501549260068601549460086007880154970154978151998a5260208a01528801526060870152608086015260a085015260c084015260e0830152610100820152f35b509190346102c457602090816003193601126102dd578035835280825283832091825467ffffffffffffffff811161076557855191949260059061064c83831b880185610d02565b82845286840191829686528786209186935b8585106106ff575050505050508451938085019181865251809252858501868360051b8701019493965b8388106106955786860387f35b90919293948380600192603f198a82030186528851906106c660c08351835284840151908086850152830190610bf9565b9186810151151587830152606080820151908301526080808201519083015260a080910151910152970193019701969093929193610688565b60068a6001928d809d9a9b9d519061071682610cca565b88548252610725868a01610d24565b8483015260ff60028a015416151590820152600388015460608201528588015460808201528688015460a08201528152019401940193929896959861065e565b634e487b7160e01b855260418352602485fd5b5082346104b15760203660031901126104b157823581526005602052818120916005830154908354936001810154916002820154908783015495851590811594856000146108885760038101548361087557600160ff1b81146000198a141661086257889005955b15610855576006015491612710928381029381850414901517156108425761082f575060e09850859004935b815197885260208801528601526060850152608084015260a083015260c0820152f35b634e487b7160e01b815260128a52602490fd5b634e487b7160e01b825260118b52602482fd5b50905060e098509361080c565b634e487b7160e01b835260118c52602483fd5b634e487b7160e01b835260128c52602483fd5b81956107e0565b50346102dd5760803660031901126102dd578282359260249081359067ffffffffffffffff91828111610ab55736602382011215610ab5578082013593838511610b7f578082019181863692010111610b7f576044359384151595868603610b7b576002546001600160a01b03929060643590841633148015610b66575b61091690610dc9565b6001548b516309ae52cb60e21b815260208982018190529a918616908c81806109428b82018a8e610e8d565b0381855afa948515610b5c578d95610adc575b505061096284848c61112d565b9b813b156104b1578589928f838d8c8861099760609551998a98899788966318a2787d60e11b88528701526064860191610e8d565b9183015289604483015203925af18015610ad057610ab9575b50908d92918584541697883b15610ab557848f998f908d838e8894519e8f95869485936395359d6b60e01b85528401926109fc9360409194939260608201958252151560208201520152565b03925af18015610aab57918f979593918f908d8f9b999795610a85575b8a9b9c5084610a2d916101cd9a9b9c6111d8565b8a86528c8c52818620958c835198610a448a610cca565b8d8a5280610a5181610e1f565b94610a5e87519687610d02565b81865283860137830101528b870152850152606084015260808301524260a0830152610eae565b509697985050975097610a988391610ca0565b6102c457878b978f9796958f908d610a19565b8e513d87823e3d90fd5b8480fd5b610ac7909e9193929e610ca0565b9c9091386109b0565b8f8e51903d90823e3d90fd5b919450903d808e843e610aef8184610d02565b820161010083820312610b58578c830151828111610b54578f9082610b15918601610e3b565b50830151926060810151928311610b5457610b3760c092610b4b948301610e3b565b50610b4460a08201610e80565b5001610e80565b50923880610955565b8e80fd5b8d80fd5b8e513d8f823e3d90fd5b50338a5260036020528a8a205460ff1661090d565b8780fd5b8580fd5b8382346102c457816003193601126102c457905490516001600160a01b039091168152602090f35b8490346102c457816003193601126102c4576002198152602090f35b60243590811515820361027757565b60005b838110610be95750506000910152565b8181015183820152602001610bd9565b90602091610c1281518092818552858086019101610bd6565b601f01601f1916010190565b600435906001600160a01b038216820361027757565b8054821015610c50576000526006602060002091020190600090565b634e487b7160e01b600052603260045260246000fd5b90600182811c92168015610c96575b6020831014610c8057565b634e487b7160e01b600052602260045260246000fd5b91607f1691610c75565b67ffffffffffffffff8111610cb457604052565b634e487b7160e01b600052604160045260246000fd5b60c0810190811067ffffffffffffffff821117610cb457604052565b6060810190811067ffffffffffffffff821117610cb457604052565b90601f8019910116810190811067ffffffffffffffff821117610cb457604052565b90604051918260008254610d3781610c66565b90818452602094600191600181169081600014610da75750600114610d68575b505050610d6692500383610d02565b565b600090815285812095935091905b818310610d8f575050610d669350820101388080610d57565b85548884018501529485019487945091830191610d76565b92505050610d6694925060ff191682840152151560051b820101388080610d57565b15610dd057565b60405162461bcd60e51b815260206004820152602160248201527f52657075746174696f6e4d616e616765723a206e6f7420617574686f72697a656044820152601960fa1b6064820152608490fd5b67ffffffffffffffff8111610cb457601f01601f191660200190565b81601f82011215610277578051610e5181610e1f565b92610e5f6040519485610d02565b8184526020828401011161027757610e7d9160208085019101610bd6565b90565b5190811515820361027757565b908060209392818452848401376000828201840152601f01601f1916010190565b805468010000000000000000811015610cb457610ed2906001928382018155610c34565b92909261103f57805183558183016020808301519384519167ffffffffffffffff8311610cb457610f038454610c66565b601f8111610ff4575b5080601f8411600114610f8557509180809260a0969594600598600094610f7a575b50501b916000199060031b1c19161790555b610f5f60408201511515600286019060ff801983541691151516179055565b60608101516003850155608081015160048501550151910155565b015192503880610f2e565b91939495601f1984168660005283600020936000905b828210610fdd575050916005979593918560a098969410610fc4575b505050811b019055610f40565b015160001960f88460031b161c19169055388080610fb7565b808886978294978701518155019601940190610f9b565b60008560005282600020601f860160051c810192848710611035575b601f0160051c019184905b83811061102a57505050610f0c565b82815501849061101b565b9092508290611010565b634e487b7160e01b600052600060045260246000fd5b6040519061106282610ce6565b6024825263185cd95960e21b6040837f556e70726f66697461626c65207472616465202d20747275737420646563726560208201520152565b604051906110a882610ce6565b6022825261195960f21b6040837f50726f66697461626c65207472616465202d20747275737420696e637265617360208201520152565b610e7d9392606092825260208201528160408201520190610bf9565b9190916000838201938412911290801582169115161761111757565b634e487b7160e01b600052601160045260246000fd5b90929190156111aa57604b811061118f575060c86005925b1361116e575b60058213611165575b6002198083126111615750565b9150565b60059150611154565b9060018101906000600183129112908015821691151617611117579061114b565b6037116111a05760c8600392611145565b60c8600192611145565b909150604b81106111bf57506002199061114b565b6037116111cf576001199061114b565b6000199061114b565b916000918383526005602052604083209160018301916111f98284546110fb565b83556003840161120a8382546110fb565b9055600584018054906001820180921161136857554260088501551561135057600683018054906001820180921161133c57555b8381121561133757600160ff1b81146113235783035b80800290848112600160ff1b82141661130f578082058114901517156113235760048301805491820180921161130f5755549181548313611307575b81548184820394128185128116918513901516176112f35782136112b357505050565b600201805482116112c357505050565b817f4d03819da0078ad767df977c50cbd3a2a97250e2dcec0df3a04f40deb2b31d649260209255604051908152a2565b634e487b7160e01b81526011600452602490fd5b828255611290565b634e487b7160e01b85526011600452602485fd5b634e487b7160e01b84526011600452602484fd5b611254565b634e487b7160e01b86526011600452602486fd5b600783018054906001820180921161133c575561123e565b634e487b7160e01b87526011600452602487fdfea2646970667358221220062af56be4231a281d683586778a94ef84035c75a6cdfc9788107b3479fd995764736f6c63430008180033",
  "linkReferences": {},
  "deployedLinkReferences": {}
}