{"contracts/AgentRegistry.sol":{"AgentRegistry":{"abi":[{"inputs":[],"stateMutability":"nonpayable","type":"constructor"},{"anonymous":false,"inputs":[{"indexed":true,"internalType":"uint256","name":"agentId","type":"uint256"}],"name":"AgentDeactivated","type":"event"},{"anonymous":false,"inputs":[{"indexed":true,"internalType":"uint256","name":"agentId","type":"uint256"},{"indexed":true,"internalType":"address","name":"owner","type":"address"},{"indexed":false,"internalType":"string","name":"name","type":"string"},{"indexed":false,"internalType":"string","name":"strategy","type":"string"}],"name":"AgentRegistered","type":"event"},{"anonymous":false,"inputs":[{"indexed":true,"internalType":"uint256","name":"agentId","type":"uint256"},{"indexed":false,"internalType":"uint256","name":"newScore","type":"uint256"}],"name":"TrustScoreUpdated","type":"event"},{"inputs":[{"internalType":"uint256","name":"agentId","type":"uint256"}],"name":"deactivateAgent","outputs":[],"stateMutability":"nonpayable","type":"function"},{"inputs":[{"internalType":"uint256","name":"agentId","type":"uint256"}],"name":"getAgent","outputs":[{"internalType":"string","name":"name","type":"string"},{"internalType":"string","name":"strategy","type":"string"},{"internalType":"address","name":"agentOwner","type":"address"},{"internalType":"uint256","name":"trustScore","type":"uint256"},{"internalType":"bool","name":"active","type":"bool"},{"internalType":"uint256","name":"totalTrades","type":"uint256"},{"internalType":"uint256","name":"profitableTrades","type":"uint256"}],"stateMutability":"view","type":"function"},{"inputs":[{"internalType":"address","name":"agentOwner","type":"address"}],"name":"getAgentsByOwner","outputs":[{"internalType":"uint256[]","name":"","type":"uint256[]"}],"stateMutability":"view","type":"function"},{"inputs":[{"internalType":"uint256","name":"agentId","type":"uint256"}],"name":"getTrustScore","outputs":[{"internalType":"uint256","name":"","type":"uint256"}],"stateMutability":"view","type":"function"},{"inputs":[],"name":"owner","outputs":[{"internalType":"address","name":"","type":"address"}],"stateMutability":"view","type":"function"},{"inputs":[{"internalType":"string","name":"name","type":"string"},{"internalType":"string","name":"strategy","type":"string"},{"internalType":"string","name":"endpoint","type":"string"}],"name":"registerAgent","outputs":[{"internalType":"uint256","name":"agentId","type":"uint256"}],"stateMutability":"nonpayable","type":"function"},{"inputs":[],"name":"reputationManager","outputs":[{"internalType":"address","name":"","type":"address"}],"stateMutability":"view","type":"function"},{"inputs":[{"internalType":"address","name":"manager","type":"address"}],"name":"setReputationManager","outputs":[],"stateMutability":"nonpayable","type":"function"},{"inputs":[],"name":"totalAgents","outputs":[{"internalType":"uint256","name":"","type":"uint256"}],"stateMutability":"view","type":"function"},{"inputs":[{"internalType":"uint256","name":"agentId","type":"uint256"},{"internalType":"bool","name":"profitable","type":"bool"},{"internalType":"int256","name":"pnlBps","type":"int256"}],"name":"updateReputation","outputs":[],"stateMutability":"nonpayable","type":"function"}],"evm":{"bytecode":{"linkReferences":{},"object":"6080806040523461003757600160005560018060a01b03193381600454161760045533906003541617600355610f11908161003d8239f35b600080fdfe608080604052600436101561001357600080fd5b60003560e01c90816311ba6b4a14610bdb575080631ab6f88814610b235780632de5aaf714610a7c57806356a2d6601461041257806356a837f41461037f5780636b868afb1461035657806383f3d448146103275780638da5cb5b146102fe57806395359d6b146100d35763c50537121461008d57600080fd5b346100ce5760003660031901126100ce5760005460001981019081116100b857602090604051908152f35b634e487b7160e01b600052601160045260246000fd5b600080fd5b346100ce5760603660031901126100ce57600435602480359081151582036100ce576003546044359290336001600160a01b03918216149081156102f0575b501561029e5783600052600160205260406000209260ff6009850154161561025a57600684016101428154610e44565b9055600884018054600083820193841291129080158216911516176102455755156101eb57600782016101758154610e44565b90556005820180549091606282106101af5750506005600080516020610ebc833981519152926020926064905b555b0154604051908152a2005b600282018092116101d75750600080516020610ebc83398151915292602092600592906101a2565b634e487b7160e01b60009081526011600452fd5b60058201805490916002821161021c5750506005600080516020610ebc833981519152926020926000905b556101a4565b60011982019182116101d75750600080516020610ebc8339815191529260209260059290610216565b83634e487b7160e01b60005260116004526000fd5b60405162461bcd60e51b815260206004820152601f818501527f4167656e7452656769737472793a206167656e74206e6f7420616374697665006044820152606490fd5b60405162461bcd60e51b8152602060048201526025818401527f4167656e7452656769737472793a206e6f742072657075746174696f6e206d616044820152643730b3b2b960d91b6064820152608490fd5b905060045416331485610112565b346100ce5760003660031901126100ce576004546040516001600160a01b039091168152602090f35b346100ce5760203660031901126100ce5760043560005260016020526020600560406000200154604051908152f35b346100ce5760003660031901126100ce576003546040516001600160a01b039091168152602090f35b346100ce5760203660031901126100ce576004356001600160a01b03818116918290036100ce576004541633036103cd576bffffffffffffffffffffffff60a01b6003541617600355600080f35b60405162461bcd60e51b815260206004820152601860248201527f4167656e7452656769737472793a206e6f74206f776e657200000000000000006044820152606490fd5b346100ce5760603660031901126100ce5760043567ffffffffffffffff81116100ce57610443903690600401610d15565b9060243567ffffffffffffffff81116100ce57610464903690600401610d15565b60443567ffffffffffffffff81116100ce57610484903690600401610d15565b93908515610a375782156109f3576000549461049f86610e44565b6000556040519161016083019183831067ffffffffffffffff841117610775576104f6926040528784523360208501526104da368a87610e53565b60408501526104ea368789610e53565b60608501523691610e53565b6080820152603260a0820152600060c0820152600060e08201526000610100820152600161012082015242610140820152846000526001602052604060002090805182556001820160018060a01b036020830151166bffffffffffffffffffffffff60a01b825416179055604081015180519067ffffffffffffffff82116107755781906105876002860154610d65565b601f81116109a0575b50602090601f831160011461092e57600092610923575b50508160011b916000199060031b1c19161760028301555b606081015180519067ffffffffffffffff82116107755781906105e56003860154610d65565b601f81116108d0575b50602090601f831160011461085e57600092610853575b50508160011b916000199060031b1c19161760038301555b608081015180519067ffffffffffffffff8211610775576106416004850154610d65565b601f811161080c575b50602090601f8311600114610796579180600a94926101409460009261078b575b50508160011b916000199060031b1c19161760048501555b60a0810151600585015560c0810151600685015560e08101516007850155610100810151600885015560098401610120820151151560ff80198354169116179055015191015533600052600260205260406000209081549568010000000000000000871015610775576001870180845587101561075f576107548694856020997f1fa075d34b5040b9bc683d1cc54ae270f345511dd00e1b9f68e82fd47b16f524966000528a6000200155610745604051948594604086526040860191610e9a565b908382038a8501523397610e9a565b0390a3604051908152f35b634e487b7160e01b600052603260045260246000fd5b634e487b7160e01b600052604160045260246000fd5b015190508b8061066b565b906004850160005260206000209160005b601f19851681106107f4575092600a94926001926101409583601f198116106107db575b505050811b016004850155610683565b015160001960f88460031b161c191690558b80806107cb565b919260206001819286850151815501940192016107a7565b600485016000526020600020601f840160051c81016020851061084c575b601f830160051c8201811061084057505061064a565b6000815560010161082a565b508061082a565b015190508980610605565b9250600385016000526020600020906000935b601f19841685106108b5576001945083601f1981161061089c575b505050811b01600383015561061d565b015160001960f88460031b161c1916905589808061088c565b81810151835560209485019460019093019290910190610871565b909150600385016000526020600020601f840160051c81016020851061091c575b90849392915b601f830160051c8201811061090d5750506105ee565b600081558594506001016108f7565b50806108f1565b0151905089806105a7565b9250600285016000526020600020906000935b601f1984168510610985576001945083601f1981161061096c575b505050811b0160028301556105bf565b015160001960f88460031b161c1916905589808061095c565b81810151835560209485019460019093019290910190610941565b909150600285016000526020600020601f840160051c8101602085106109ec575b90849392915b601f830160051c820181106109dd575050610590565b600081558594506001016109c7565b50806109c1565b606460405162461bcd60e51b815260206004820152602060248201527f4167656e7452656769737472793a2073747261746567792072657175697265646044820152fd5b60405162461bcd60e51b815260206004820152601c60248201527f4167656e7452656769737472793a206e616d65207265717569726564000000006044820152606490fd5b346100ce5760203660031901126100ce576004356000526001602052610af5604060002060018060a01b03600182015416600582015460ff600984015416600684015490600785015492610b03610ae16003610ada60028a01610d9f565b9801610d9f565b60405198899860e08a5260e08a0190610cd5565b9088820360208a0152610cd5565b94604087015260608601521515608085015260a084015260c08301520390f35b346100ce576020806003193601126100ce576004356001600160a01b038116908190036100ce5760005260028152604060002060405190818382549182815201908192600052846000209060005b86828210610bc7578686610b8782880383610d43565b604051928392818401908285525180915260408401929160005b828110610bb057505050500390f35b835185528695509381019392810192600101610ba1565b835485529093019260019283019201610b71565b346100ce5760203660031901126100ce576004359081600052600160205260406000209060018060a01b036001830154163303610c935750600901805460ff811615610c4e5760ff191690557fc2fb7f8575ac3990e70361684edfc4d283931ea9a03dfa28766bf376a3934aa2600080a2005b60405162461bcd60e51b815260206004820152601f60248201527f4167656e7452656769737472793a20616c726561647920696e616374697665006044820152606490fd5b62461bcd60e51b815260206004820152601e60248201527f4167656e7452656769737472793a206e6f74206167656e74206f776e657200006044820152606490fd5b919082519283825260005b848110610d01575050826000602080949584010152601f8019910116010190565b602081830181015184830182015201610ce0565b9181601f840112156100ce5782359167ffffffffffffffff83116100ce57602083818601950101116100ce57565b90601f8019910116810190811067ffffffffffffffff82111761077557604052565b90600182811c92168015610d95575b6020831014610d7f57565b634e487b7160e01b600052602260045260246000fd5b91607f1691610d74565b90604051918260008254610db281610d65565b90818452602094600191600181169081600014610e225750600114610de3575b505050610de192500383610d43565b565b600090815285812095935091905b818310610e0a575050610de19350820101388080610dd2565b85548884018501529485019487945091830191610df1565b92505050610de194925060ff191682840152151560051b820101388080610dd2565b60001981146100b85760010190565b92919267ffffffffffffffff82116107755760405191610e7d601f8201601f191660200184610d43565b8294818452818301116100ce578281602093846000960137010152565b908060209392818452848401376000828201840152601f01601f191601019056fe20d456995c74d5114f87879b10c5214b9c28e11ea422eeb922cc2e755095669fa2646970667358221220a2e343ae6870d8eb20393c83a585d3a19ba593a40eafaa0507326d3ac73f354d64736f6c63430008180033","opcodes":"PUSH1 0x80 DUP1 PUSH1 0x40 MSTORE CALLVALUE PUSH2 0x37 JUMPI PUSH1 0x1 PUSH1 0x0 SSTORE PUSH1 0x1 DUP1 PUSH1 0xA0 SHL SUB NOT CALLER DUP2 PUSH1 0x4 SLOAD AND OR PUSH1 0x4 SSTORE CALLER SWAP1 PUSH1 0x3 SLOAD AND OR PUSH1 0x3 SSTORE PUSH2 0xF11 SWAP1 DUP2 PUSH2 0x3D DUP3 CODECOPY RETURN JUMPDEST PUSH1 0x0 DUP1 REVERT INVALID PUSH1 0x80 DUP1 PUSH1 0x40 MSTORE PUSH1 0x4 CALLDATASIZE LT ISZERO PUSH2 0x13 JUMPI PUSH1 0x0 DUP1 REVERT JUMPDEST PUSH1 0x0 CALLDATALOAD PUSH1 0xE0 SHR SWAP1 DUP2 PUSH4 0x11BA6B4A EQ PUSH2 0xBDB JUMPI POP DUP1 PUSH4 0x1AB6F888 EQ PUSH2 0xB23 JUMPI DUP1 PUSH4 0x2DE5AAF7 EQ PUSH2 0xA7C JUMPI DUP1 PUSH4 0x56A2D660 EQ PUSH2 0x412 JUMPI DUP1 PUSH4 0x56A837F4 EQ PUSH2 0x37F JUMPI DUP1 PUSH4 0x6B868AFB EQ PUSH2 0x356 JUMPI DUP1 PUSH4 0x83F3D448 EQ PUSH2 0x327 JUMPI DUP1 PUSH4 0x8DA5CB5B EQ PUSH2 0x2FE JUMPI DUP1 PUSH4 0x95359D6B EQ PUSH2 0xD3 JUMPI PUSH4 0xC5053712 EQ PUSH2 0x8D JUMPI PUSH1 0x0 DUP1 REVERT JUMPDEST CALLVALUE PUSH2 0xCE JUMPI PUSH1 0x0 CALLDATASIZE PUSH1 0x3 NOT ADD SLT PUSH2 0xCE JUMPI PUSH1 0x0 SLOAD PUSH1 0x0 NOT DUP2 ADD SWAP1 DUP2 GT PUSH2 0xB8 JUMPI PUSH1 0x20 SWAP1 PUSH1 0x40 MLOAD SWAP1 DUP2 MSTORE RETURN JUMPDEST PUSH4 0x4E487B71 PUSH1 0xE0 SHL PUSH1 0x0 MSTORE PUSH1 0x11 PUSH1 0x4 MSTORE PUSH1 0x24 PUSH1 0x0 REVERT JUMPDEST PUSH1 0x0 DUP1 REVERT JUMPDEST CALLVALUE PUSH2 0xCE JUMPI PUSH1 0x60 CALLDATASIZE PUSH1 0x3 NOT ADD SLT PUSH2 0xCE JUMPI PUSH1 0x4 CALLDATALOAD PUSH1 0x24 DUP1 CALLDATALOAD SWAP1 DUP2 ISZERO ISZERO DUP3 SUB PUSH2 0xCE JUMPI PUSH1 0x3 SLOAD PUSH1 0x44 CALLDATALOAD SWAP3 SWAP1 CALLER PUSH1 0x1 PUSH1 0x1 PUSH1 0xA0 SHL SUB SWAP2 DUP3 AND EQ SWAP1 DUP2 ISZERO PUSH2 0x2F0 JUMPI JUMPDEST POP ISZERO PUSH2 0x29E JUMPI DUP4 PUSH1 0x0 MSTORE PUSH1 0x1 PUSH1 0x20 MSTORE PUSH1 0x40 PUSH1 0x0 KECCAK256 SWAP3 PUSH1 0xFF PUSH1 0x9 DUP6 ADD SLOAD AND ISZERO PUSH2 0x25A JUMPI PUSH1 0x6 DUP5 ADD PUSH2 0x142 DUP2 SLOAD PUSH2 0xE44 JUMP JUMPDEST SWAP1 SSTORE PUSH1 0x8 DUP5 ADD DUP1 SLOAD PUSH1 0x0 DUP4 DUP3 ADD SWAP4 DUP5 SLT SWAP2 SLT SWAP1 DUP1 ISZERO DUP3 AND SWAP2 ISZERO AND OR PUSH2 0x245 JUMPI SSTORE ISZERO PUSH2 0x1EB JUMPI PUSH1 0x7 DUP3 ADD PUSH2 0x175 DUP2 SLOAD PUSH2 0xE44 JUMP JUMPDEST SWAP1 SSTORE PUSH1 0x5 DUP3 ADD DUP1 SLOAD SWAP1 SWAP2 PUSH1 0x62 DUP3 LT PUSH2 0x1AF JUMPI POP POP PUSH1 0x5 PUSH1 0x0 DUP1 MLOAD PUSH1 0x20 PUSH2 0xEBC DUP4 CODECOPY DUP2 MLOAD SWAP2 MSTORE SWAP3 PUSH1 0x20 SWAP3 PUSH1 0x64 SWAP1 JUMPDEST SSTORE JUMPDEST ADD SLOAD PUSH1 0x40 MLOAD SWAP1 DUP2 MSTORE LOG2 STOP JUMPDEST PUSH1 0x2 DUP3 ADD DUP1 SWAP3 GT PUSH2 0x1D7 JUMPI POP PUSH1 0x0 DUP1 MLOAD PUSH1 0x20 PUSH2 0xEBC DUP4 CODECOPY DUP2 MLOAD SWAP2 MSTORE SWAP3 PUSH1 0x20 SWAP3 PUSH1 0x5 SWAP3 SWAP1 PUSH2 0x1A2 JUMP JUMPDEST PUSH4 0x4E487B71 PUSH1 0xE0 SHL PUSH1 0x0 SWAP1 DUP2 MSTORE PUSH1 0x11 PUSH1 0x4 MSTORE REVERT JUMPDEST PUSH1 0x5 DUP3 ADD DUP1 SLOAD SWAP1 SWAP2 PUSH1 0x2 DUP3 GT PUSH2 0x21C JUMPI POP POP PUSH1 0x5 PUSH1 0x0 DUP1 MLOAD PUSH1 0x20 PUSH2 0xEBC DUP4 CODECOPY DUP2 MLOAD SWAP2 MSTORE SWAP3 PUSH1 0x20 SWAP3 PUSH1 0x0 SWAP1 JUMPDEST SSTORE PUSH2 0x1A4 JUMP JUMPDEST PUSH1 0x1 NOT DUP3 ADD SWAP2 DUP3 GT PUSH2 0x1D7 JUMPI POP PUSH1 0x0 DUP1 MLOAD PUSH1 0x20 PUSH2 0xEBC DUP4 CODECOPY DUP2 MLOAD SWAP2 MSTORE SWAP3 PUSH1 0x20 SWAP3 PUSH1 0x5 SWAP3 SWAP1 PUSH2 0x216 JUMP JUMPDEST DUP4 PUSH4 0x4E487B71 PUSH1 0xE0 SHL PUSH1 0x0 MSTORE PUSH1 0x11 PUSH1 0x4 MSTORE PUSH1 0x0 REVERT JUMPDEST PUSH1 0x40 MLOAD PUSH3 0x461BCD PUSH1 0xE5 SHL DUP2 MSTORE PUSH1 0x20 PUSH1 0x4 DUP3 ADD MSTORE PUSH1 0x1F DUP2 DUP6 ADD MSTORE PUSH32 0x4167656E7452656769737472793A206167656E74206E6F742061637469766500 PUSH1 0x44 DUP3 ADD MSTORE PUSH1 0x64 SWAP1 REVERT JUMPDEST PUSH1 0x40 MLOAD PUSH3 0x461BCD PUSH1 0xE5 SHL DUP2 MSTORE PUSH1 0x20 PUSH1 0x4 DUP3 ADD MSTORE PUSH1 0x25 DUP2 DUP5 ADD MSTORE PUSH32 0x4167656E7452656769737472793A206E6F742072657075746174696F6E206D61 PUSH1 0x44 DUP3 ADD MSTORE PUSH5 0x3730B3B2B9 PUSH1 0xD9 SHL PUSH1 0x64 DUP3 ADD MSTORE PUSH1 0x84 SWAP1 REVERT JUMPDEST SWAP1 POP PUSH1 0x4 SLOAD AND CALLER EQ DUP6 PUSH2 0x112 JUMP JUMPDEST CALLVALUE PUSH2 0xCE JUMPI PUSH1 0x0 CALLDATASIZE PUSH1 0x3 NOT ADD SLT PUSH2 0xCE JUMPI PUSH1 0x4 SLOAD PUSH1 0x40 MLOAD PUSH1 0x1 PUSH1 0x1 PUSH1 0xA0 SHL SUB SWAP1 SWAP2 AND DUP2 MSTORE PUSH1 0x20 SWAP1 RETURN JUMPDEST CALLVALUE PUSH2 0xCE JUMPI PUSH1 0x20 CALLDATASIZE PUSH1 0x3 NOT ADD SLT PUSH2 0xCE JUMPI PUSH1 0x4 CALLDATALOAD PUSH1 0x0 MSTORE PUSH1 0x1 PUSH1 0x20 MSTORE PUSH1 0x20 PUSH1 0x5 PUSH1 0x40 PUSH1 0x0 KECCAK256 ADD SLOAD PUSH1 0x40 MLOAD SWAP1 DUP2 MSTORE RETURN JUMPDEST CALLVALUE PUSH2 0xCE JUMPI PUSH1 0x0 CALLDATASIZE PUSH1 0x3 NOT ADD SLT PUSH2 0xCE JUMPI PUSH1 0x3 SLOAD PUSH1 0x40 MLOAD PUSH1 0x1 PUSH1 0x1 PUSH1 0xA0 SHL SUB SWAP1 SWAP2 AND DUP2 MSTORE PUSH1 0x20 SWAP1 RETURN JUMPDEST CALLVALUE PUSH2 0xCE JUMPI PUSH1 0x20 CALLDATASIZE PUSH1 0x3 NOT ADD SLT PUSH2 0xCE JUMPI PUSH1 0x4 CALLDATALOAD PUSH1 0x1 PUSH1 0x1 PUSH1 0xA0 SHL SUB DUP2 DUP2 AND SWAP2 DUP3 SWAP1 SUB PUSH2 0xCE JUMPI PUSH1 0x4 SLOAD AND CALLER SUB PUSH2 0x3CD JUMPI PUSH12 0xFFFFFFFFFFFFFFFFFFFFFFFF PUSH1 0xA0 SHL PUSH1 0x3 SLOAD AND OR PUSH1 0x3 SSTORE PUSH1 0x0 DUP1 RETURN JUMPDEST PUSH1 0x40 MLOAD PUSH3 0x461BCD PUSH1 0xE5 SHL DUP2 MSTORE PUSH1 0x20 PUSH1 0x4 DUP3 ADD MSTORE PUSH1 0x18 PUSH1 0x24 DUP3 ADD MSTORE PUSH32 0x4167656E7452656769737472793A206E6F74206F776E65720000000000000000 PUSH1 0x44 DUP3 ADD MSTORE PUSH1 0x64 SWAP1 REVERT JUMPDEST CALLVALUE PUSH2 0xCE JUMPI PUSH1 0x60 CALLDATASIZE PUSH1 0x3 NOT ADD SLT PUSH2 0xCE JUMPI PUSH1 0x4 CALLDATALOAD PUSH8 0xFFFFFFFFFFFFFFFF DUP2 GT PUSH2 0xCE JUMPI PUSH2 0x443 SWAP1 CALLDATASIZE SWAP1 PUSH1 0x4 ADD PUSH2 0xD15 JUMP JUMPDEST SWAP1 PUSH1 0x24 CALLDATALOAD PUSH8 0xFFFFFFFFFFFFFFFF DUP2 GT PUSH2 0xCE JUMPI PUSH2 0x464 SWAP1 CALLDATASIZE SWAP1 PUSH1 0x4 ADD PUSH2 0xD15 JUMP JUMPDEST PUSH1 0x44 CALLDATALOAD PUSH8 0xFFFFFFFFFFFFFFFF DUP2 GT PUSH2 0xCE JUMPI PUSH2 0x484 SWAP1 CALLDATASIZE SWAP1 PUSH1 0x4 ADD PUSH2 0xD15 JUMP JUMPDEST SWAP4 SWAP1 DUP6 ISZERO PUSH2 0xA37 JUMPI DUP3 ISZERO PUSH2 0x9F3 JUMPI PUSH1 0x0 SLOAD SWAP5 PUSH2 0x49F DUP7 PUSH2 0xE44 JUMP JUMPDEST PUSH1 0x0 SSTORE PUSH1 0x40 MLOAD SWAP2 PUSH2 0x160 DUP4 ADD SWAP2 DUP4 DUP4 LT PUSH8 0xFFFFFFFFFFFFFFFF DUP5 GT OR PUSH2 0x775 JUMPI PUSH2 0x4F6 SWAP3 PUSH1 0x40 MSTORE DUP8 DUP5 MSTORE CALLER PUSH1 0x20 DUP6 ADD MSTORE PUSH2 0x4DA CALLDATASIZE DUP11 DUP8 PUSH2 0xE53 JUMP JUMPDEST PUSH1 0x40 DUP6 ADD MSTORE PUSH2 0x4EA CALLDATASIZE DUP8 DUP10 PUSH2 0xE53 JUMP JUMPDEST PUSH1 0x60 DUP6 ADD MSTORE CALLDATASIZE SWAP2 PUSH2 0xE53 JUMP JUMPDEST PUSH1 0x80 DUP3 ADD MSTORE PUSH1 0x32 PUSH1 0xA0 DUP3 ADD MSTORE PUSH1 0x0 PUSH1 0xC0 DUP3 ADD MSTORE PUSH1 0x0 PUSH1 0xE0 DUP3 ADD MSTORE PUSH1 0x0 PUSH2 0x100 DUP3 ADD MSTORE PUSH1 0x1 PUSH2 0x120 DUP3 ADD MSTORE TIMESTAMP PUSH2 0x140 DUP3 ADD MSTORE DUP5 PUSH1 0x0 MSTORE PUSH1 0x1 PUSH1 0x20 MSTORE PUSH1 0x40 PUSH1 0x0 KECCAK256 SWAP1 DUP1 MLOAD DUP3 SSTORE PUSH1 0x1 DUP3 ADD PUSH1 0x1 DUP1 PUSH1 0xA0 SHL SUB PUSH1 0x20 DUP4 ADD MLOAD AND PUSH12 0xFFFFFFFFFFFFFFFFFFFFFFFF PUSH1 0xA0 SHL DUP3 SLOAD AND OR SWAP1 SSTORE PUSH1 0x40 DUP2 ADD MLOAD DUP1 MLOAD SWAP1 PUSH8 0xFFFFFFFFFFFFFFFF DUP3 GT PUSH2 0x775 JUMPI DUP2 SWAP1 PUSH2 0x587 PUSH1 0x2 DUP7 ADD SLOAD PUSH2 0xD65 JUMP JUMPDEST PUSH1 0x1F DUP2 GT PUSH2 0x9A0 JUMPI JUMPDEST POP PUSH1 0x20 SWAP1 PUSH1 0x1F DUP4 GT PUSH1 0x1 EQ PUSH2 0x92E JUMPI PUSH1 0x0 SWAP3 PUSH2 0x923 JUMPI JUMPDEST POP POP DUP2 PUSH1 0x1 SHL SWAP2 PUSH1 0x0 NOT SWAP1 PUSH1 0x3 SHL SHR NOT AND OR PUSH1 0x2 DUP4 ADD SSTORE JUMPDEST PUSH1 0x60 DUP2 ADD MLOAD DUP1 MLOAD SWAP1 PUSH8 0xFFFFFFFFFFFFFFFF DUP3 GT PUSH2 0x775 JUMPI DUP2 SWAP1 PUSH2 0x5E5 PUSH1 0x3 DUP7 ADD SLOAD PUSH2 0xD65 JUMP JUMPDEST PUSH1 0x1F DUP2 GT PUSH2 0x8D0 JUMPI JUMPDEST POP PUSH1 0x20 SWAP1 PUSH1 0x1F DUP4 GT PUSH1 0x1 EQ PUSH2 0x85E JUMPI PUSH1 0x0 SWAP3 PUSH2 0x853 JUMPI JUMPDEST POP POP DUP2 PUSH1 0x1 SHL SWAP2 PUSH1 0x0 NOT SWAP1 PUSH1 0x3 SHL SHR NOT AND OR PUSH1 0x3 DUP4 ADD SSTORE JUMPDEST PUSH1 0x80 DUP2 ADD MLOAD DUP1 MLOAD SWAP1 PUSH8 0xFFFFFFFFFFFFFFFF DUP3 GT PUSH2 0x775 JUMPI PUSH2 0x641 PUSH1 0x4 DUP6 ADD SLOAD PUSH2 0xD65 JUMP JUMPDEST PUSH1 0x1F DUP2 GT PUSH2 0x80C JUMPI JUMPDEST POP PUSH1 0x20 SWAP1 PUSH1 0x1F DUP4 GT PUSH1 0x1 EQ PUSH2 0x796 JUMPI SWAP2 DUP1 PUSH1 0xA SWAP5 SWAP3 PUSH2 0x140 SWAP5 PUSH1 0x0 SWAP3 PUSH2 0x78B JUMPI JUMPDEST POP POP DUP2 PUSH1 0x1 SHL SWAP2 PUSH1 0x0 NOT SWAP1 PUSH1 0x3 SHL SHR NOT AND OR PUSH1 0x4 DUP6 ADD SSTORE JUMPDEST PUSH1 0xA0 DUP2 ADD MLOAD PUSH1 0x5 DUP6 ADD SSTORE PUSH1 0xC0 DUP2 ADD MLOAD PUSH1 0x6 DUP6 ADD SSTORE PUSH1 0xE0 DUP2 ADD MLOAD PUSH1 0x7 DUP6 ADD SSTORE PUSH2 0x100 DUP2 ADD MLOAD PUSH1 0x8 DUP6 ADD SSTORE PUSH1 0x9 DUP5 ADD PUSH2 0x120 DUP3 ADD MLOAD ISZERO ISZERO PUSH1 0xFF DUP1 NOT DUP4 SLOAD AND SWAP2 AND OR SWAP1 SSTORE ADD MLOAD SWAP2 ADD SSTORE CALLER PUSH1 0x0 MSTORE PUSH1 0x2 PUSH1 0x20 MSTORE PUSH1 0x40 PUSH1 0x0 KECCAK256 SWAP1 DUP2 SLOAD SWAP6 PUSH9 0x10000000000000000 DUP8 LT ISZERO PUSH2 0x775 JUMPI PUSH1 0x1 DUP8 ADD DUP1 DUP5 SSTORE DUP8 LT ISZERO PUSH2 0x75F JUMPI PUSH2 0x754 DUP7 SWAP5 DUP6 PUSH1 0x20 SWAP10 PUSH32 0x1FA075D34B5040B9BC683D1CC54AE270F345511DD00E1B9F68E82FD47B16F524 SWAP7 PUSH1 0x0 MSTORE DUP11 PUSH1 0x0 KECCAK256 ADD SSTORE PUSH2 0x745 PUSH1 0x40 MLOAD SWAP5 DUP6 SWAP5 PUSH1 0x40 DUP7 MSTORE PUSH1 0x40 DUP7 ADD SWAP2 PUSH2 0xE9A JUMP JUMPDEST SWAP1 DUP4 DUP3 SUB DUP11 DUP6 ADD MSTORE CALLER SWAP8 PUSH2 0xE9A JUMP JUMPDEST SUB SWAP1 LOG3 PUSH1 0x40 MLOAD SWAP1 DUP2 MSTORE RETURN JUMPDEST PUSH4 0x4E487B71 PUSH1 0xE0 SHL PUSH1 0x0 MSTORE PUSH1 0x32 PUSH1 0x4 MSTORE PUSH1 0x24 PUSH1 0x0 REVERT JUMPDEST PUSH4 0x4E487B71 PUSH1 0xE0 SHL PUSH1 0x0 MSTORE PUSH1 0x41 PUSH1 0x4 MSTORE PUSH1 0x24 PUSH1 0x0 REVERT JUMPDEST ADD MLOAD SWAP1 POP DUP12 DUP1 PUSH2 0x66B JUMP JUMPDEST SWAP1 PUSH1 0x4 DUP6 ADD PUSH1 0x0 MSTORE PUSH1 0x20 PUSH1 0x0 KECCAK256 SWAP2 PUSH1 0x0 JUMPDEST PUSH1 0x1F NOT DUP6 AND DUP2 LT PUSH2 0x7F4 JUMPI POP SWAP3 PUSH1 0xA SWAP5 SWAP3 PUSH1 0x1 SWAP3 PUSH2 0x140 SWAP6 DUP4 PUSH1 0x1F NOT DUP2 AND LT PUSH2 0x7DB JUMPI JUMPDEST POP POP POP DUP2 SHL ADD PUSH1 0x4 DUP6 ADD SSTORE PUSH2 0x683 JUMP JUMPDEST ADD MLOAD PUSH1 0x0 NOT PUSH1 0xF8 DUP5 PUSH1 0x3 SHL AND SHR NOT AND SWAP1 SSTORE DUP12 DUP1 DUP1 PUSH2 0x7CB JUMP JUMPDEST SWAP2 SWAP3 PUSH1 0x20 PUSH1 0x1 DUP2 SWAP3 DUP7 DUP6 ADD MLOAD DUP2 SSTORE ADD SWAP5 ADD SWAP3 ADD PUSH2 0x7A7 JUMP JUMPDEST PUSH1 0x4 DUP6 ADD PUSH1 0x0 MSTORE PUSH1 0x20 PUSH1 0x0 KECCAK256 PUSH1 0x1F DUP5 ADD PUSH1 0x5 SHR DUP2 ADD PUSH1 0x20 DUP6 LT PUSH2 0x84C JUMPI JUMPDEST PUSH1 0x1F DUP4 ADD PUSH1 0x5 SHR DUP3 ADD DUP2 LT PUSH2 0x840 JUMPI POP POP PUSH2 0x64A JUMP JUMPDEST PUSH1 0x0 DUP2 SSTORE PUSH1 0x1 ADD PUSH2 0x82A JUMP JUMPDEST POP DUP1 PUSH2 0x82A JUMP JUMPDEST ADD MLOAD SWAP1 POP DUP10 DUP1 PUSH2 0x605 JUMP JUMPDEST SWAP3 POP PUSH1 0x3 DUP6 ADD PUSH1 0x0 MSTORE PUSH1 0x20 PUSH1 0x0 KECCAK256 SWAP1 PUSH1 0x0 SWAP4 JUMPDEST PUSH1 0x1F NOT DUP5 AND DUP6 LT PUSH2 0x8B5 JUMPI PUSH1 0x1 SWAP5 POP DUP4 PUSH1 0x1F NOT DUP2 AND LT PUSH2 0x89C JUMPI JUMPDEST POP POP POP DUP2 SHL ADD PUSH1 0x3 DUP4 ADD SSTORE PUSH2 0x61D JUMP JUMPDEST ADD MLOAD PUSH1 0x0 NOT PUSH1 0xF8 DUP5 PUSH1 0x3 SHL AND SHR NOT AND SWAP1 SSTORE DUP10 DUP1 DUP1 PUSH2 0x88C JUMP JUMPDEST DUP2 DUP2 ADD MLOAD DUP4 SSTORE PUSH1 0x20 SWAP5 DUP6 ADD SWAP5 PUSH1 0x1 SWAP1 SWAP4 ADD SWAP3 SWAP1 SWAP2 ADD SWAP1 PUSH2 0x871 JUMP JUMPDEST SWAP1 SWAP2 POP PUSH1 0x3 DUP6 ADD PUSH1 0x0 MSTORE PUSH1 0x20 PUSH1 0x0 KECCAK256 PUSH1 0x1F DUP5 ADD PUSH1 0x5 SHR DUP2 ADD PUSH1 0x20 DUP6 LT PUSH2 0x91C JUMPI JUMPDEST SWAP1 DUP5 SWAP4 SWAP3 SWAP2 JUMPDEST PUSH1 0x1F DUP4 ADD PUSH1 0x5 SHR DUP3 ADD DUP2 LT PUSH2 0x90D JUMPI POP POP PUSH2 0x5EE JUMP JUMPDEST PUSH1 0x0 DUP2 SSTORE DUP6 SWAP5 POP PUSH1 0x1 ADD PUSH2 0x8F7 JUMP JUMPDEST POP DUP1 PUSH2 0x8F1 JUMP JUMPDEST ADD MLOAD SWAP1 POP DUP10 DUP1 PUSH2 0x5A7 JUMP JUMPDEST SWAP3 POP PUSH1 0x2 DUP6 ADD PUSH1 0x0 MSTORE PUSH1 0x20 PUSH1 0x0 KECCAK256 SWAP1 PUSH1 0x0 SWAP4 JUMPDEST PUSH1 0x1F NOT DUP5 AND DUP6 LT PUSH2 0x985 JUMPI PUSH1 0x1 SWAP5 POP DUP4 PUSH1 0x1F NOT DUP2 AND LT PUSH2 0x96C JUMPI JUMPDEST POP POP POP DUP2 SHL ADD PUSH1 0x2 DUP4 ADD SSTORE PUSH2 0x5BF JUMP JUMPDEST ADD MLOAD PUSH1 0x0 NOT PUSH1 0xF8 DUP5 PUSH1 0x3 SHL AND SHR NOT AND SWAP1 SSTORE DUP10 DUP1 DUP1 PUSH2 0x95C JUMP JUMPDEST DUP2 DUP2 ADD MLOAD DUP4 SSTORE PUSH1 0x20 SWAP5 DUP6 ADD SWAP5 PUSH1 0x1 SWAP1 SWAP4 ADD SWAP3 SWAP1 SWAP2 ADD SWAP1 PUSH2 0x941 JUMP JUMPDEST SWAP1 SWAP2 POP PUSH1 0x2 DUP6 ADD PUSH1 0x0 MSTORE PUSH1 0x20 PUSH1 0x0 KECCAK256 PUSH1 0x1F DUP5 ADD PUSH1 0x5 SHR DUP2 ADD PUSH1 0x20 DUP6 LT PUSH2 0x9EC JUMPI JUMPDEST SWAP1 DUP5 SWAP4 SWAP3 SWAP2 JUMPDEST PUSH1 0x1F DUP4 ADD PUSH1 0x5 SHR DUP3 ADD DUP2 LT PUSH2 0x9DD JUMPI POP POP PUSH2 0x590 JUMP JUMPDEST PUSH1 0x0 DUP2 SSTORE DUP6 SWAP5 POP PUSH1 0x1 ADD PUSH2 0x9C7 JUMP JUMPDEST POP DUP1 PUSH2 0x9C1 JUMP JUMPDEST PUSH1 0x64 PUSH1 0x40 MLOAD PUSH3 0x461BCD PUSH1 0xE5 SHL DUP2 MSTORE PUSH1 0x20 PUSH1 0x4 DUP3 ADD MSTORE PUSH1 0x20 PUSH1 0x24 DUP3 ADD MSTORE PUSH32 0x4167656E7452656769737472793A207374726174656779207265717569726564 PUSH1 0x44 DUP3 ADD MSTORE REVERT JUMPDEST PUSH1 0x40 MLOAD PUSH3 0x461BCD PUSH1 0xE5 SHL DUP2 MSTORE PUSH1 0x20 PUSH1 0x4 DUP3 ADD MSTORE PUSH1 0x1C PUSH1 0x24 DUP3 ADD MSTORE PUSH32 0x4167656E7452656769737472793A206E616D6520726571756972656400000000 PUSH1 0x44 DUP3 ADD MSTORE PUSH1 0x64 SWAP1 REVERT JUMPDEST CALLVALUE PUSH2 0xCE JUMPI PUSH1 0x20 CALLDATASIZE PUSH1 0x3 NOT ADD SLT PUSH2 0xCE JUMPI PUSH1 0x4 CALLDATALOAD PUSH1 0x0 MSTORE PUSH1 0x1 PUSH1 0x20 MSTORE PUSH2 0xAF5 PUSH1 0x40 PUSH1 0x0 KECCAK256 PUSH1 0x1 DUP1 PUSH1 0xA0 SHL SUB PUSH1 0x1 DUP3 ADD SLOAD AND PUSH1 0x5 DUP3 ADD SLOAD PUSH1 0xFF PUSH1 0x9 DUP5 ADD SLOAD AND PUSH1 0x6 DUP5 ADD SLOAD SWAP1 PUSH1 0x7 DUP6 ADD SLOAD SWAP3 PUSH2 0xB03 PUSH2 0xAE1 PUSH1 0x3 PUSH2 0xADA PUSH1 0x2 DUP11 ADD PUSH2 0xD9F JUMP JUMPDEST SWAP9 ADD PUSH2 0xD9F JUMP JUMPDEST PUSH1 0x40 MLOAD SWAP9 DUP10 SWAP9 PUSH1 0xE0 DUP11 MSTORE PUSH1 0xE0 DUP11 ADD SWAP1 PUSH2 0xCD5 JUMP JUMPDEST SWAP1 DUP9 DUP3 SUB PUSH1 0x20 DUP11 ADD MSTORE PUSH2 0xCD5 JUMP JUMPDEST SWAP5 PUSH1 0x40 DUP8 ADD MSTORE PUSH1 0x60 DUP7 ADD MSTORE ISZERO ISZERO PUSH1 0x80 DUP6 ADD MSTORE PUSH1 0xA0 DUP5 ADD MSTORE PUSH1 0xC0 DUP4 ADD MSTORE SUB SWAP1 RETURN JUMPDEST CALLVALUE PUSH2 0xCE JUMPI PUSH1 0x20 DUP1 PUSH1 0x3 NOT CALLDATASIZE ADD SLT PUSH2 0xCE JUMPI PUSH1 0x4 CALLDATALOAD PUSH1 0x1 PUSH1 0x1 PUSH1 0xA0 SHL SUB DUP2 AND SWAP1 DUP2 SWAP1 SUB PUSH2 0xCE JUMPI PUSH1 0x0 MSTORE PUSH1 0x2 DUP2 MSTORE PUSH1 0x40 PUSH1 0x0 KECCAK256 PUSH1 0x40 MLOAD SWAP1 DUP2 DUP4 DUP3 SLOAD SWAP2 DUP3 DUP2 MSTORE ADD SWAP1 DUP2 SWAP3 PUSH1 0x0 MSTORE DUP5 PUSH1 0x0 KECCAK256 SWAP1 PUSH1 0x0 JUMPDEST DUP7 DUP3 DUP3 LT PUSH2 0xBC7 JUMPI DUP7 DUP7 PUSH2 0xB87 DUP3 DUP9 SUB DUP4 PUSH2 0xD43 JUMP JUMPDEST PUSH1 0x40 MLOAD SWAP3 DUP4 SWAP3 DUP2 DUP5 ADD SWAP1 DUP3 DUP6 MSTORE MLOAD DUP1 SWAP2 MSTORE PUSH1 0x40 DUP5 ADD SWAP3 SWAP2 PUSH1 0x0 JUMPDEST DUP3 DUP2 LT PUSH2 0xBB0 JUMPI POP POP POP POP SUB SWAP1 RETURN JUMPDEST DUP4 MLOAD DUP6 MSTORE DUP7 SWAP6 POP SWAP4 DUP2 ADD SWAP4 SWAP3 DUP2 ADD SWAP3 PUSH1 0x1 ADD PUSH2 0xBA1 JUMP JUMPDEST DUP4 SLOAD DUP6 MSTORE SWAP1 SWAP4 ADD SWAP3 PUSH1 0x1 SWAP3 DUP4 ADD SWAP3 ADD PUSH2 0xB71 JUMP JUMPDEST CALLVALUE PUSH2 0xCE JUMPI PUSH1 0x20 CALLDATASIZE PUSH1 0x3 NOT ADD SLT PUSH2 0xCE JUMPI PUSH1 0x4 CALLDATALOAD SWAP1 DUP2 PUSH1 0x0 MSTORE PUSH1 0x1 PUSH1 0x20 MSTORE PUSH1 0x40 PUSH1 0x0 KECCAK256 SWAP1 PUSH1 0x1 DUP1 PUSH1 0xA0 SHL SUB PUSH1 0x1 DUP4 ADD SLOAD AND CALLER SUB PUSH2 0xC93 JUMPI POP PUSH1 0x9 ADD DUP1 SLOAD PUSH1 0xFF DUP2 AND ISZERO PUSH2 0xC4E JUMPI PUSH1 0xFF NOT AND SWAP1 SSTORE PUSH32 0xC2FB7F8575AC3990E70361684EDFC4D283931EA9A03DFA28766BF376A3934AA2 PUSH1 0x0 DUP1 LOG2 STOP JUMPDEST PUSH1 0x40 MLOAD PUSH3 0x461BCD PUSH1 0xE5 SHL DUP2 MSTORE PUSH1 0x20 PUSH1 0x4 DUP3 ADD MSTORE PUSH1 0x1F PUSH1 0x24 DUP3 ADD MSTORE PUSH32 0x4167656E7452656769737472793A20616C726561647920696E61637469766500 PUSH1 0x44 DUP3 ADD MSTORE PUSH1 0x64 SWAP1 REVERT JUMPDEST PUSH3 0x461BCD PUSH1 0xE5 SHL DUP2 MSTORE PUSH1 0x20 PUSH1 0x4 DUP3 ADD MSTORE PUSH1 0x1E PUSH1 0x24 DUP3 ADD MSTORE PUSH32 0x4167656E7452656769737472793A206E6F74206167656E74206F776E65720000 PUSH1 0x44 DUP3 ADD MSTORE PUSH1 0x64 SWAP1 REVERT JUMPDEST SWAP2 SWAP1 DUP3 MLOAD SWAP3 DUP4 DUP3 MSTORE PUSH1 0x0 JUMPDEST DUP5 DUP2 LT PUSH2 0xD01 JUMPI POP POP DUP3 PUSH1 0x0 PUSH1 0x20 DUP1 SWAP5 SWAP6 DUP5 ADD ADD MSTORE PUSH1 0x1F DUP1 NOT SWAP2 ADD AND ADD ADD SWAP1 JUMP JUMPDEST PUSH1 0x20 DUP2 DUP4 ADD DUP2 ADD MLOAD DUP5 DUP4 ADD DUP3 ADD MSTORE ADD PUSH2 0xCE0 JUMP JUMPDEST SWAP2 DUP2 PUSH1 0x1F DUP5 ADD SLT ISZERO PUSH2 0xCE JUMPI DUP3 CALLDATALOAD SWAP2 PUSH8 0xFFFFFFFFFFFFFFFF DUP4 GT PUSH2 0xCE JUMPI PUSH1 0x20 DUP4 DUP2 DUP7 ADD SWAP6 ADD ADD GT PUSH2 0xCE JUMPI JUMP JUMPDEST SWAP1 PUSH1 0x1F DUP1 NOT SWAP2 ADD AND DUP2 ADD SWAP1 DUP2 LT PUSH8 0xFFFFFFFFFFFFFFFF DUP3 GT OR PUSH2 0x775 JUMPI PUSH1 0x40 MSTORE JUMP JUMPDEST SWAP1 PUSH1 0x1 DUP3 DUP2 SHR SWAP3 AND DUP1 ISZERO PUSH2 0xD95 JUMPI JUMPDEST PUSH1 0x20 DUP4 LT EQ PUSH2 0xD7F JUMPI JUMP JUMPDEST PUSH4 0x4E487B71 PUSH1 0xE0 SHL PUSH1 0x0 MSTORE PUSH1 0x22 PUSH1 0x4 MSTORE PUSH1 0x24 PUSH1 0x0 REVERT JUMPDEST SWAP2 PUSH1 0x7F AND SWAP2 PUSH2 0xD74 JUMP JUMPDEST SWAP1 PUSH1 0x40 MLOAD SWAP2 DUP3 PUSH1 0x0 DUP3 SLOAD PUSH2 0xDB2 DUP2 PUSH2 0xD65 JUMP JUMPDEST SWAP1 DUP2 DUP5 MSTORE PUSH1 0x20 SWAP5 PUSH1 0x1 SWAP2 PUSH1 0x1 DUP2 AND SWAP1 DUP2 PUSH1 0x0 EQ PUSH2 0xE22 JUMPI POP PUSH1 0x1 EQ PUSH2 0xDE3 JUMPI JUMPDEST POP POP POP PUSH2 0xDE1 SWAP3 POP SUB DUP4 PUSH2 0xD43 JUMP JUMPDEST JUMP JUMPDEST PUSH1 0x0 SWAP1 DUP2 MSTORE DUP6 DUP2 KECCAK256 SWAP6 SWAP4 POP SWAP2 SWAP1 JUMPDEST DUP2 DUP4 LT PUSH2 0xE0A JUMPI POP POP PUSH2 0xDE1 SWAP4 POP DUP3 ADD ADD CODESIZE DUP1 DUP1 PUSH2 0xDD2 JUMP JUMPDEST DUP6 SLOAD DUP9 DUP5 ADD DUP6 ADD MSTORE SWAP5 DUP6 ADD SWAP5 DUP8 SWAP5 POP SWAP2 DUP4 ADD SWAP2 PUSH2 0xDF1 JUMP JUMPDEST SWAP3 POP POP POP PUSH2 0xDE1 SWAP5 SWAP3 POP PUSH1 0xFF NOT AND DUP3 DUP5 ADD MSTORE ISZERO ISZERO PUSH1 0x5 SHL DUP3 ADD ADD CODESIZE DUP1 DUP1 PUSH2 0xDD2 JUMP JUMPDEST PUSH1 0x0 NOT DUP2 EQ PUSH2 0xB8 JUMPI PUSH1 0x1 ADD SWAP1 JUMP JUMPDEST SWAP3 SWAP2 SWAP3 PUSH8 0xFFFFFFFFFFFFFFFF DUP3 GT PUSH2 0x775 JUMPI PUSH1 0x40 MLOAD SWAP2 PUSH2 0xE7D PUSH1 0x1F DUP3 ADD PUSH1 0x1F NOT AND PUSH1 0x20 ADD DUP5 PUSH2 0xD43 JUMP JUMPDEST DUP3 SWAP5 DUP2 DUP5 MSTORE DUP2 DUP4 ADD GT PUSH2 0xCE JUMPI DUP3 DUP2 PUSH1 0x20 SWAP4 DUP5 PUSH1 0x0 SWAP7 ADD CALLDATACOPY ADD ADD MSTORE JUMP JUMPDEST SWAP1 DUP1 PUSH1 0x20 SWAP4 SWAP3 DUP2 DUP5 MSTORE DUP5 DUP5 ADD CALLDATACOPY PUSH1 0x0 DUP3 DUP3 ADD DUP5 ADD MSTORE PUSH1 0x1F ADD PUSH1 0x1F NOT AND ADD ADD SWAP1 JUMP INVALID KECCAK256 0xD4 JUMP SWAP10 TLOAD PUSH21 0xD5114F87879B10C5214B9C28E11EA422EEB922CC2E PUSH22 0x5095669FA2646970667358221220A2E343AE6870D8EB KECCAK256 CODECOPY EXTCODECOPY DUP4 0xA5 DUP6 0xD3 LOG1 SWAP12 0xA5 SWAP4 LOG4 0xE 0xAF 0xAA SDIV SMOD ORIGIN PUSH14 0x3AC73F354D64736F6C6343000818 STOP CALLER "},"methodIdentifiers":{"deactivateAgent(uint256)":"11ba6b4a","getAgent(uint256)":"2de5aaf7","getAgentsByOwner(address)":"1ab6f888","getTrustScore(uint256)":"83f3d448","owner()":"8da5cb5b","registerAgent(string,string,string)":"56a2d660","reputationManager()":"6b868afb","setReputationManager(address)":"56a837f4","totalAgents()":"c5053712","updateReputation(uint256,bool,int256)":"95359d6b"}}}}}