{"contracts/RiskRouter.sol":{"RiskRouter":{"abi":[{"inputs":[{"internalType":"address","name":"_agentRegistry","type":"address"}],"stateMutability":"nonpayable","type":"constructor"},{"anonymous":false,"inputs":[{"indexed":false,"internalType":"uint256","name":"maxSingleTradeUsd","type":"uint256"},{"indexed":false,"internalType":"uint256","name":"maxDailyLossUsd","type":"uint256"}],"name":"LimitsUpdated","type":"event"},{"anonymous":false,"inputs":[{"indexed":false,"internalType":"string","name":"token","type":"string"},{"indexed":false,"internalType":"bool","name":"allowed","type":"bool"}],"name":"TokenAllowlistUpdated","type":"event"},{"anonymous":false,"inputs":[{"indexed":true,"internalType":"uint256","name":"agentId","type":"uint256"},{"indexed":true,"internalType":"address","name":"wallet","type":"address"},{"indexed":false,"internalType":"bytes32","name":"tradeHash","type":"bytes32"},{"indexed":false,"internalType":"string","name":"tokenPair","type":"string"},{"indexed":false,"internalType":"string","name":"action","type":"string"},{"indexed":false,"internalType":"uint256","name":"amountUsd","type":"uint256"}],"name":"TradeApproved","type":"event"},{"anonymous":false,"inputs":[{"indexed":true,"internalType":"uint256","name":"agentId","type":"uint256"},{"indexed":false,"internalType":"bytes32","name":"tradeHash","type":"bytes32"},{"indexed":false,"internalType":"string","name":"reason","type":"string"}],"name":"TradeRejected","type":"event"},{"inputs":[],"name":"DOMAIN_SEPARATOR","outputs":[{"internalType":"bytes32","name":"","type":"bytes32"}],"stateMutability":"view","type":"function"},{"inputs":[],"name":"TRADE_TYPEHASH","outputs":[{"internalType":"bytes32","name":"","type":"bytes32"}],"stateMutability":"view","type":"function"},{"inputs":[{"internalType":"uint256","name":"","type":"uint256"}],"name":"agentDailyStats","outputs":[{"internalType":"uint256","name":"date","type":"uint256"},{"internalType":"uint256","name":"totalLossUsd","type":"uint256"},{"internalType":"uint256","name":"tradeCount","type":"uint256"}],"stateMutability":"view","type":"function"},{"inputs":[{"internalType":"uint256","name":"","type":"uint256"}],"name":"agentNonces","outputs":[{"internalType":"uint256","name":"","type":"uint256"}],"stateMutability":"view","type":"function"},{"inputs":[],"name":"agentRegistry","outputs":[{"internalType":"contract AgentRegistry","name":"","type":"address"}],"stateMutability":"view","type":"function"},{"inputs":[{"internalType":"string","name":"","type":"string"}],"name":"allowedTokens","outputs":[{"internalType":"bool","name":"","type":"bool"}],"stateMutability":"view","type":"function"},{"inputs":[{"internalType":"uint256","name":"agentId","type":"uint256"}],"name":"getAgentNonce","outputs":[{"internalType":"uint256","name":"","type":"uint256"}],"stateMutability":"view","type":"function"},{"inputs":[{"internalType":"bytes32","name":"tradeHash","type":"bytes32"}],"name":"isTradeProcessed","outputs":[{"internalType":"bool","name":"","type":"bool"}],"stateMutability":"view","type":"function"},{"inputs":[],"name":"maxDailyLossUsd","outputs":[{"internalType":"uint256","name":"","type":"uint256"}],"stateMutability":"view","type":"function"},{"inputs":[],"name":"maxSingleTradeUsd","outputs":[{"internalType":"uint256","name":"","type":"uint256"}],"stateMutability":"view","type":"function"},{"inputs":[],"name":"minConfidence","outputs":[{"internalType":"uint256","name":"","type":"uint256"}],"stateMutability":"view","type":"function"},{"inputs":[],"name":"owner","outputs":[{"internalType":"address","name":"","type":"address"}],"stateMutability":"view","type":"function"},{"inputs":[{"internalType":"bytes32","name":"","type":"bytes32"}],"name":"processedTrades","outputs":[{"internalType":"bool","name":"","type":"bool"}],"stateMutability":"view","type":"function"},{"inputs":[{"internalType":"uint256","name":"maxSingle","type":"uint256"},{"internalType":"uint256","name":"maxDaily","type":"uint256"}],"name":"setLimits","outputs":[],"stateMutability":"nonpayable","type":"function"},{"inputs":[{"internalType":"uint256","name":"threshold","type":"uint256"}],"name":"setMinConfidence","outputs":[],"stateMutability":"nonpayable","type":"function"},{"inputs":[{"internalType":"string","name":"token","type":"string"},{"internalType":"bool","name":"allowed","type":"bool"}],"name":"setTokenAllowed","outputs":[],"stateMutability":"nonpayable","type":"function"},{"inputs":[{"components":[{"internalType":"uint256","name":"agentId","type":"uint256"},{"internalType":"string","name":"tokenPair","type":"string"},{"internalType":"string","name":"action","type":"string"},{"internalType":"uint256","name":"amountUsd","type":"uint256"},{"internalType":"uint256","name":"confidence","type":"uint256"},{"internalType":"string","name":"reason","type":"string"},{"internalType":"uint256","name":"nonce","type":"uint256"},{"internalType":"uint256","name":"deadline","type":"uint256"}],"internalType":"struct RiskRouter.TradeIntent","name":"intent","type":"tuple"},{"internalType":"uint8","name":"v","type":"uint8"},{"internalType":"bytes32","name":"r","type":"bytes32"},{"internalType":"bytes32","name":"s","type":"bytes32"}],"name":"submitTrade","outputs":[{"internalType":"bool","name":"approved","type":"bool"},{"internalType":"bytes32","name":"tradeHash","type":"bytes32"}],"stateMutability":"nonpayable","type":"function"}],"evm":{"bytecode":{"linkReferences":{},"object":"60a0604090808252346101d15760208161110b80380380916100218285610222565b8339810103126101d157516001600160a01b038116908190036101d1576207a120600255620f4240600355602d60045560018060a01b0319906001913381845416178355600054161760005581516208aa8960eb1b81528160246023600593846003820152209260ff19938385825416179055602386516242544360e81b815282600382015220838582541617905560258651644d4154494360d81b81528280820152208385825416179055818651634c494e4b60e01b81528260048201522083858254161790556023865162554e4960e81b8152826003820152208385825416179055855190634141564560e01b825260048201522091825416179055600e6020835161012e816101d6565b828152016d1052551c98591a5b99d059d95b9d60921b8152209060208351610155816101d6565b82815201603160f81b81522082519060208201927f8b73c3c69bb8fe3d512ecc4cf759cc79239f7b179b0ffacaa9a75d522b39400f84528483015260608201524660808201523060a082015260a081526101ae81610207565b51902060805251610ec59081610246823960805181818161034b015261077a0152f35b600080fd5b604081019081106001600160401b038211176101f157604052565b634e487b7160e01b600052604160045260246000fd5b60c081019081106001600160401b038211176101f157604052565b601f909101601f19168101906001600160401b038211908210176101f15760405256fe608060408181526004918236101561001657600080fd5b600090813560e01c9081630d1cfcae146104b7575080631344c76e14610479578063260f0608146102015780632bba58ac1461043e578063351f0dbe1461036e5780633644e515146103335780634cfee215146101d95780635764390c1461030457806363e93557146102e5578063840364351461027a5780638da5cb5b146102515780638fe9099a1461022e57806391be86be14610201578063ace1854b146101d9578063c4590d3f14610175578063d52b7a14146101535763fb9576da146100df57600080fd5b346101505760203660031901126101505782359067ffffffffffffffff82116101505736602383011215610150575061013b6020610129819584602460ff9636930135910161054b565b81855193828580945193849201610587565b81016005815203019020541690519015158152f35b80fd5b50913461017157826003193601126101715760209250549051908152f35b8280fd5b509190346101715780600319360112610171577f4d4981437d0211f9e6843eb024d9ada1fa3a99514d4343d4aece106dd11524bb91356024356101c360018060a01b036001541633146105aa565b816002558060035582519182526020820152a180f35b5091346101715760203660031901126101715760209282913581526008845220549051908152f35b509134610171576020366003190112610171578160209360ff923581526007855220541690519015158152f35b50903461024d578160031936011261024d576020906003549051908152f35b5080fd5b50903461024d578160031936011261024d5760015490516001600160a01b039091168152602090f35b50913461017157600319906080368301126102e15780359167ffffffffffffffff83116102dd576101009083360301126102e15760243560ff811681036102dd576102cf939450606435926044359201610667565b825191151582526020820152f35b8480fd5b8380fd5b50903461024d578160031936011261024d576020906002549051908152f35b50823461024d57602036600319011261024d5761032c60018060a01b036001541633146105aa565b8035905580f35b50903461024d578160031936011261024d57602090517f00000000000000000000000000000000000000000000000000000000000000008152f35b50913461017157816003193601126101715780359167ffffffffffffffff918284116102dd57366023850112156102dd578301359182116102e157602483019260248336920101116102e1576024358015158091036102dd576104327f9d6db961e826d7e57b67b26f3c9b85cffd3a1224d6007450a285a198f2984c5f9461040160018060a01b036001541633146105aa565b835185828237602081878101600581520301902060ff1981541660ff851617905583519484869586528501916105ee565b9060208301520390a180f35b50903461024d578160031936011261024d57602090517fecabc617024ac8577bdc22382c563acfd061cc94b319b36bba16e7734f979f6f8152f35b509134610171576020366003190112610171576060928291358152600660205220805491600260018301549201549181519384526020840152820152f35b90503461024d578160031936011261024d5790546001600160a01b03168152602090f35b6040810190811067ffffffffffffffff8211176104f757604052565b634e487b7160e01b600052604160045260246000fd5b90601f8019910116810190811067ffffffffffffffff8211176104f757604052565b67ffffffffffffffff81116104f757601f01601f191660200190565b9291926105578261052f565b91610565604051938461050d565b829481845281830111610582578281602093846000960137010152565b600080fd5b60005b83811061059a5750506000910152565b818101518382015260200161058a565b156105b157565b60405162461bcd60e51b81526020600482015260156024820152742934b9b5a937baba32b91d103737ba1037bbb732b960591b6044820152606490fd5b908060209392818452848401376000828201840152601f01601f1916010190565b600019811461061e5760010190565b634e487b7160e01b600052601160045260246000fd5b903590601e1981360301821215610582570180359067ffffffffffffffff82116105825760200191813603831361058257565b91939260e083013594854211610a6a5760c084013595843560005260086020526040600020548703610a25576106aa6106a36020870187610634565b369161054b565b60208151910120906106c26106a36040880188610634565b60208151910120976106da6106a360a0890189610634565b602081519101206040519960208b01947fecabc617024ac8577bdc22382c563acfd061cc94b319b36bba16e7734f979f6f8652893560408d015260608c015260808b0152606088013560a08b0152608088013560c08b015260e08a015261010089015261012090818901528752610140870167ffffffffffffffff91888210838311176104f75781604052885190209161016089019261190160f01b84527f00000000000000000000000000000000000000000000000000000000000000006101628b01526101828a015260428252816101c08a0110906101c08a0111176104f7576101c088016040525190209586600052600760205260ff604060002054166109da575060209260009260809260ff604051938a855216868401526040830152606082015282805260015afa156109ce576000516001600160a01b03169081156109895761082881610af4565b908560005260076020526040600020600160ff1982541617905582356000526008602052604060002061085b815461060f565b905515610926575060026201518042048235600052600660205260406000209080825403610911575b5001610890815461060f565b90557fda0ac845197f6ee8b8b1298cf0183f48a9264e9f83356f144b10f7661fa161276108c06020830183610634565b6108fb6108d06040860186610634565b6108ed6040519586958c87526080602088015260808701916105ee565b9184830360408601526105ee565b936060810135606083015235930390a360019190565b81556000600182015560008282015538610884565b91507fd344d458e98402d70ff8c192eeb985bc45059d53f0ec4d4306687d59d3ac6abf9060606040518092878252604060208301526109748651809781604086015260208686019101610587565b3594601f01601f19168101030190a260009190565b60405162461bcd60e51b815260206004820152601d60248201527f5269736b526f757465723a20696e76616c6964207369676e61747572650000006044820152606490fd5b6040513d6000823e3d90fd5b6101c060649162461bcd60e51b8282015260206101c4820152601d6101e48201527f5269736b526f757465723a20616c72656164792070726f63657373656400000061020482015201fd5b60405162461bcd60e51b815260206004820152601960248201527f5269736b526f757465723a20696e76616c6964206e6f6e6365000000000000006044820152606490fd5b60405162461bcd60e51b815260206004820152601960248201527f5269736b526f757465723a2074726164652065787069726564000000000000006044820152606490fd5b81601f82011215610582578051610ac58161052f565b92610ad3604051948561050d565b8184526020828401011161058257610af19160208085019101610587565b90565b90600454608083013510610d5757600254606083013511610d1a576020610b26610b2082850185610634565b90610dbb565b9260ff610b428360409681885193828580945193849201610587565b81016005815203019020541615610ce75735600090808252600683528482206201518042048154149081610cd6575b50610c9d5781548551632de5aaf760e01b815260048101929092526001600160a01b03919083908290602490829086165afa918215610c93578392610c19575b505015610bee5760019380519283019083821067ffffffffffffffff831117610bda5752815290565b634e487b7160e01b83526041600452602483fd5b6f4167656e74206e6f742061637469766560801b90935191610c0f836104db565b6010835282015290565b9091503d8084843e610c2b818461050d565b820160e0838203126102e157825167ffffffffffffffff90818111610c8f5782610c56918601610aaf565b50858401519081116102dd5790610c6e918401610aaf565b50858201519081160361024d5760800151801515810361024d573880610bb1565b8580fd5b86513d85823e3d90fd5b507f4461696c79206c6f7373206c696d69742072656163686564000000000000000090935191610ccc836104db565b6018835282015290565b600191500154600354111538610b71565b5075151bdad95b881b9bdd081a5b88185b1b1bdddb1a5cdd60521b6000935191610d10836104db565b6016835282015290565b60405160009250610d2a816104db565b601a81527f457863656564732073696e676c65207472616465206c696d6974000000000000602082015290565b60405160009250610d67816104db565b601881527f436f6e666964656e63652062656c6f77206d696e696d756d0000000000000000602082015290565b908151811015610da5570160200190565b634e487b7160e01b600052603260045260246000fd5b9091610dc836848461054b565b92600092835b8551811015610e8557602f60f81b6001600160f81b0319610def8389610d94565b511614610dfe57600101610dce565b929350905b8215610e75575050610e148161052f565b90610e22604051928361050d565b808252601f19610e318261052f565b0136602084013760005b818110610e49575090925050565b6001906001600160f81b0319610e5f8288610d94565b511660001a610e6e8286610d94565b5301610e3b565b909150610af1929350369161054b565b5090929192610e0356fea2646970667358221220a979e288c6d216598ed89db5ceb5d19accdf954188c5d16df2db54016a6db4b164736f6c63430008180033","opcodes":"PUSH1 0xA0 PUSH1 0x40 SWAP1 DUP1 DUP3 MSTORE CALLVALUE PUSH2 0x1D1 JUMPI PUSH1 0x20 DUP2 PUSH2 0x110B DUP1 CODESIZE SUB DUP1 SWAP2 PUSH2 0x21 DUP3 DUP6 PUSH2 0x222 JUMP JUMPDEST DUP4 CODECOPY DUP2 ADD SUB SLT PUSH2 0x1D1 JUMPI MLOAD PUSH1 0x1 PUSH1 0x1 PUSH1 0xA0 SHL SUB DUP2 AND SWAP1 DUP2 SWAP1 SUB PUSH2 0x1D1 JUMPI PUSH3 0x7A120 PUSH1 0x2 SSTORE PUSH3 0xF4240 PUSH1 0x3 SSTORE PUSH1 0x2D PUSH1 0x4 SSTORE PUSH1 0x1 DUP1 PUSH1 0xA0 SHL SUB NOT SWAP1 PUSH1 0x1 SWAP2 CALLER DUP2 DUP5 SLOAD AND OR DUP4 SSTORE PUSH1 0x0 SLOAD AND OR PUSH1 0x0 SSTORE DUP2 MLOAD PUSH3 0x8AA89 PUSH1 0xEB SHL DUP2 MSTORE DUP2 PUSH1 0x24 PUSH1 0x23 PUSH1 0x5 SWAP4 DUP5 PUSH1 0x3 DUP3 ADD MSTORE KECCAK256 SWAP3 PUSH1 0xFF NOT SWAP4 DUP4 DUP6 DUP3 SLOAD AND OR SWAP1 SSTORE PUSH1 0x23 DUP7 MLOAD PUSH3 0x425443 PUSH1 0xE8 SHL DUP2 MSTORE DUP3 PUSH1 0x3 DUP3 ADD MSTORE KECCAK256 DUP4 DUP6 DUP3 SLOAD AND OR SWAP1 SSTORE PUSH1 0x25 DUP7 MLOAD PUSH5 0x4D41544943 PUSH1 0xD8 SHL DUP2 MSTORE DUP3 DUP1 DUP3 ADD MSTORE KECCAK256 DUP4 DUP6 DUP3 SLOAD AND OR SWAP1 SSTORE DUP2 DUP7 MLOAD PUSH4 0x4C494E4B PUSH1 0xE0 SHL DUP2 MSTORE DUP3 PUSH1 0x4 DUP3 ADD MSTORE KECCAK256 DUP4 DUP6 DUP3 SLOAD AND OR SWAP1 SSTORE PUSH1 0x23 DUP7 MLOAD PUSH3 0x554E49 PUSH1 0xE8 SHL DUP2 MSTORE DUP3 PUSH1 0x3 DUP3 ADD MSTORE KECCAK256 DUP4 DUP6 DUP3 SLOAD AND OR SWAP1 SSTORE DUP6 MLOAD SWAP1 PUSH4 0x41415645 PUSH1 0xE0 SHL DUP3 MSTORE PUSH1 0x4 DUP3 ADD MSTORE KECCAK256 SWAP2 DUP3 SLOAD AND OR SWAP1 SSTORE PUSH1 0xE PUSH1 0x20 DUP4 MLOAD PUSH2 0x12E DUP2 PUSH2 0x1D6 JUMP JUMPDEST DUP3 DUP2 MSTORE ADD PUSH14 0x1052551C98591A5B99D059D95B9D PUSH1 0x92 SHL DUP2 MSTORE KECCAK256 SWAP1 PUSH1 0x20 DUP4 MLOAD PUSH2 0x155 DUP2 PUSH2 0x1D6 JUMP JUMPDEST DUP3 DUP2 MSTORE ADD PUSH1 0x31 PUSH1 0xF8 SHL DUP2 MSTORE KECCAK256 DUP3 MLOAD SWAP1 PUSH1 0x20 DUP3 ADD SWAP3 PUSH32 0x8B73C3C69BB8FE3D512ECC4CF759CC79239F7B179B0FFACAA9A75D522B39400F DUP5 MSTORE DUP5 DUP4 ADD MSTORE PUSH1 0x60 DUP3 ADD MSTORE CHAINID PUSH1 0x80 DUP3 ADD MSTORE ADDRESS PUSH1 0xA0 DUP3 ADD MSTORE PUSH1 0xA0 DUP2 MSTORE PUSH2 0x1AE DUP2 PUSH2 0x207 JUMP JUMPDEST MLOAD SWAP1 KECCAK256 PUSH1 0x80 MSTORE MLOAD PUSH2 0xEC5 SWAP1 DUP2 PUSH2 0x246 DUP3 CODECOPY PUSH1 0x80 MLOAD DUP2 DUP2 DUP2 PUSH2 0x34B ADD MSTORE PUSH2 0x77A ADD MSTORE RETURN JUMPDEST PUSH1 0x0 DUP1 REVERT JUMPDEST PUSH1 0x40 DUP2 ADD SWAP1 DUP2 LT PUSH1 0x1 PUSH1 0x1 PUSH1 0x40 SHL SUB DUP3 GT OR PUSH2 0x1F1 JUMPI PUSH1 0x40 MSTORE JUMP JUMPDEST PUSH4 0x4E487B71 PUSH1 0xE0 SHL PUSH1 0x0 MSTORE PUSH1 0x41 PUSH1 0x4 MSTORE PUSH1 0x24 PUSH1 0x0 REVERT JUMPDEST PUSH1 0xC0 DUP2 ADD SWAP1 DUP2 LT PUSH1 0x1 PUSH1 0x1 PUSH1 0x40 SHL SUB DUP3 GT OR PUSH2 0x1F1 JUMPI PUSH1 0x40 MSTORE JUMP JUMPDEST PUSH1 0x1F SWAP1 SWAP2 ADD PUSH1 0x1F NOT AND DUP2 ADD SWAP1 PUSH1 0x1 PUSH1 0x1 PUSH1 0x40 SHL SUB DUP3 GT SWAP1 DUP3 LT OR PUSH2 0x1F1 JUMPI PUSH1 0x40 MSTORE JUMP INVALID PUSH1 0x80 PUSH1 0x40 DUP2 DUP2 MSTORE PUSH1 0x4 SWAP2 DUP3 CALLDATASIZE LT ISZERO PUSH2 0x16 JUMPI PUSH1 0x0 DUP1 REVERT JUMPDEST PUSH1 0x0 SWAP1 DUP2 CALLDATALOAD PUSH1 0xE0 SHR SWAP1 DUP2 PUSH4 0xD1CFCAE EQ PUSH2 0x4B7 JUMPI POP DUP1 PUSH4 0x1344C76E EQ PUSH2 0x479 JUMPI DUP1 PUSH4 0x260F0608 EQ PUSH2 0x201 JUMPI DUP1 PUSH4 0x2BBA58AC EQ PUSH2 0x43E JUMPI DUP1 PUSH4 0x351F0DBE EQ PUSH2 0x36E JUMPI DUP1 PUSH4 0x3644E515 EQ PUSH2 0x333 JUMPI DUP1 PUSH4 0x4CFEE215 EQ PUSH2 0x1D9 JUMPI DUP1 PUSH4 0x5764390C EQ PUSH2 0x304 JUMPI DUP1 PUSH4 0x63E93557 EQ PUSH2 0x2E5 JUMPI DUP1 PUSH4 0x84036435 EQ PUSH2 0x27A JUMPI DUP1 PUSH4 0x8DA5CB5B EQ PUSH2 0x251 JUMPI DUP1 PUSH4 0x8FE9099A EQ PUSH2 0x22E JUMPI DUP1 PUSH4 0x91BE86BE EQ PUSH2 0x201 JUMPI DUP1 PUSH4 0xACE1854B EQ PUSH2 0x1D9 JUMPI DUP1 PUSH4 0xC4590D3F EQ PUSH2 0x175 JUMPI DUP1 PUSH4 0xD52B7A14 EQ PUSH2 0x153 JUMPI PUSH4 0xFB9576DA EQ PUSH2 0xDF JUMPI PUSH1 0x0 DUP1 REVERT JUMPDEST CALLVALUE PUSH2 0x150 JUMPI PUSH1 0x20 CALLDATASIZE PUSH1 0x3 NOT ADD SLT PUSH2 0x150 JUMPI DUP3 CALLDATALOAD SWAP1 PUSH8 0xFFFFFFFFFFFFFFFF DUP3 GT PUSH2 0x150 JUMPI CALLDATASIZE PUSH1 0x23 DUP4 ADD SLT ISZERO PUSH2 0x150 JUMPI POP PUSH2 0x13B PUSH1 0x20 PUSH2 0x129 DUP2 SWAP6 DUP5 PUSH1 0x24 PUSH1 0xFF SWAP7 CALLDATASIZE SWAP4 ADD CALLDATALOAD SWAP2 ADD PUSH2 0x54B JUMP JUMPDEST DUP2 DUP6 MLOAD SWAP4 DUP3 DUP6 DUP1 SWAP5 MLOAD SWAP4 DUP5 SWAP3 ADD PUSH2 0x587 JUMP JUMPDEST DUP2 ADD PUSH1 0x5 DUP2 MSTORE SUB ADD SWAP1 KECCAK256 SLOAD AND SWAP1 MLOAD SWAP1 ISZERO ISZERO DUP2 MSTORE RETURN JUMPDEST DUP1 REVERT JUMPDEST POP SWAP2 CALLVALUE PUSH2 0x171 JUMPI DUP3 PUSH1 0x3 NOT CALLDATASIZE ADD SLT PUSH2 0x171 JUMPI PUSH1 0x20 SWAP3 POP SLOAD SWAP1 MLOAD SWAP1 DUP2 MSTORE RETURN JUMPDEST DUP3 DUP1 REVERT JUMPDEST POP SWAP2 SWAP1 CALLVALUE PUSH2 0x171 JUMPI DUP1 PUSH1 0x3 NOT CALLDATASIZE ADD SLT PUSH2 0x171 JUMPI PUSH32 0x4D4981437D0211F9E6843EB024D9ADA1FA3A99514D4343D4AECE106DD11524BB SWAP2 CALLDATALOAD PUSH1 0x24 CALLDATALOAD PUSH2 0x1C3 PUSH1 0x1 DUP1 PUSH1 0xA0 SHL SUB PUSH1 0x1 SLOAD AND CALLER EQ PUSH2 0x5AA JUMP JUMPDEST DUP2 PUSH1 0x2 SSTORE DUP1 PUSH1 0x3 SSTORE DUP3 MLOAD SWAP2 DUP3 MSTORE PUSH1 0x20 DUP3 ADD MSTORE LOG1 DUP1 RETURN JUMPDEST POP SWAP2 CALLVALUE PUSH2 0x171 JUMPI PUSH1 0x20 CALLDATASIZE PUSH1 0x3 NOT ADD SLT PUSH2 0x171 JUMPI PUSH1 0x20 SWAP3 DUP3 SWAP2 CALLDATALOAD DUP2 MSTORE PUSH1 0x8 DUP5 MSTORE KECCAK256 SLOAD SWAP1 MLOAD SWAP1 DUP2 MSTORE RETURN JUMPDEST POP SWAP2 CALLVALUE PUSH2 0x171 JUMPI PUSH1 0x20 CALLDATASIZE PUSH1 0x3 NOT ADD SLT PUSH2 0x171 JUMPI DUP2 PUSH1 0x20 SWAP4 PUSH1 0xFF SWAP3 CALLDATALOAD DUP2 MSTORE PUSH1 0x7 DUP6 MSTORE KECCAK256 SLOAD AND SWAP1 MLOAD SWAP1 ISZERO ISZERO DUP2 MSTORE RETURN JUMPDEST POP SWAP1 CALLVALUE PUSH2 0x24D JUMPI DUP2 PUSH1 0x3 NOT CALLDATASIZE ADD SLT PUSH2 0x24D JUMPI PUSH1 0x20 SWAP1 PUSH1 0x3 SLOAD SWAP1 MLOAD SWAP1 DUP2 MSTORE RETURN JUMPDEST POP DUP1 REVERT JUMPDEST POP SWAP1 CALLVALUE PUSH2 0x24D JUMPI DUP2 PUSH1 0x3 NOT CALLDATASIZE ADD SLT PUSH2 0x24D JUMPI PUSH1 0x1 SLOAD SWAP1 MLOAD PUSH1 0x1 PUSH1 0x1 PUSH1 0xA0 SHL SUB SWAP1 SWAP2 AND DUP2 MSTORE PUSH1 0x20 SWAP1 RETURN JUMPDEST POP SWAP2 CALLVALUE PUSH2 0x171 JUMPI PUSH1 0x3 NOT SWAP1 PUSH1 0x80 CALLDATASIZE DUP4 ADD SLT PUSH2 0x2E1 JUMPI DUP1 CALLDATALOAD SWAP2 PUSH8 0xFFFFFFFFFFFFFFFF DUP4 GT PUSH2 0x2DD JUMPI PUSH2 0x100 SWAP1 DUP4 CALLDATASIZE SUB ADD SLT PUSH2 0x2E1 JUMPI PUSH1 0x24 CALLDATALOAD PUSH1 0xFF DUP2 AND DUP2 SUB PUSH2 0x2DD JUMPI PUSH2 0x2CF SWAP4 SWAP5 POP PUSH1 0x64 CALLDATALOAD SWAP3 PUSH1 0x44 CALLDATALOAD SWAP3 ADD PUSH2 0x667 JUMP JUMPDEST DUP3 MLOAD SWAP2 ISZERO ISZERO DUP3 MSTORE PUSH1 0x20 DUP3 ADD MSTORE RETURN JUMPDEST DUP5 DUP1 REVERT JUMPDEST DUP4 DUP1 REVERT JUMPDEST POP SWAP1 CALLVALUE PUSH2 0x24D JUMPI DUP2 PUSH1 0x3 NOT CALLDATASIZE ADD SLT PUSH2 0x24D JUMPI PUSH1 0x20 SWAP1 PUSH1 0x2 SLOAD SWAP1 MLOAD SWAP1 DUP2 MSTORE RETURN JUMPDEST POP DUP3 CALLVALUE PUSH2 0x24D JUMPI PUSH1 0x20 CALLDATASIZE PUSH1 0x3 NOT ADD SLT PUSH2 0x24D JUMPI PUSH2 0x32C PUSH1 0x1 DUP1 PUSH1 0xA0 SHL SUB PUSH1 0x1 SLOAD AND CALLER EQ PUSH2 0x5AA JUMP JUMPDEST DUP1 CALLDATALOAD SWAP1 SSTORE DUP1 RETURN JUMPDEST POP SWAP1 CALLVALUE PUSH2 0x24D JUMPI DUP2 PUSH1 0x3 NOT CALLDATASIZE ADD SLT PUSH2 0x24D JUMPI PUSH1 0x20 SWAP1 MLOAD PUSH32 0x0 DUP2 MSTORE RETURN JUMPDEST POP SWAP2 CALLVALUE PUSH2 0x171 JUMPI DUP2 PUSH1 0x3 NOT CALLDATASIZE ADD SLT PUSH2 0x171 JUMPI DUP1 CALLDATALOAD SWAP2 PUSH8 0xFFFFFFFFFFFFFFFF SWAP2 DUP3 DUP5 GT PUSH2 0x2DD JUMPI CALLDATASIZE PUSH1 0x23 DUP6 ADD SLT ISZERO PUSH2 0x2DD JUMPI DUP4 ADD CALLDATALOAD SWAP2 DUP3 GT PUSH2 0x2E1 JUMPI PUSH1 0x24 DUP4 ADD SWAP3 PUSH1 0x24 DUP4 CALLDATASIZE SWAP3 ADD ADD GT PUSH2 0x2E1 JUMPI PUSH1 0x24 CALLDATALOAD DUP1 ISZERO ISZERO DUP1 SWAP2 SUB PUSH2 0x2DD JUMPI PUSH2 0x432 PUSH32 0x9D6DB961E826D7E57B67B26F3C9B85CFFD3A1224D6007450A285A198F2984C5F SWAP5 PUSH2 0x401 PUSH1 0x1 DUP1 PUSH1 0xA0 SHL SUB PUSH1 0x1 SLOAD AND CALLER EQ PUSH2 0x5AA JUMP JUMPDEST DUP4 MLOAD DUP6 DUP3 DUP3 CALLDATACOPY PUSH1 0x20 DUP2 DUP8 DUP2 ADD PUSH1 0x5 DUP2 MSTORE SUB ADD SWAP1 KECCAK256 PUSH1 0xFF NOT DUP2 SLOAD AND PUSH1 0xFF DUP6 AND OR SWAP1 SSTORE DUP4 MLOAD SWAP5 DUP5 DUP7 SWAP6 DUP7 MSTORE DUP6 ADD SWAP2 PUSH2 0x5EE JUMP JUMPDEST SWAP1 PUSH1 0x20 DUP4 ADD MSTORE SUB SWAP1 LOG1 DUP1 RETURN JUMPDEST POP SWAP1 CALLVALUE PUSH2 0x24D JUMPI DUP2 PUSH1 0x3 NOT CALLDATASIZE ADD SLT PUSH2 0x24D JUMPI PUSH1 0x20 SWAP1 MLOAD PUSH32 0xECABC617024AC8577BDC22382C563ACFD061CC94B319B36BBA16E7734F979F6F DUP2 MSTORE RETURN JUMPDEST POP SWAP2 CALLVALUE PUSH2 0x171 JUMPI PUSH1 0x20 CALLDATASIZE PUSH1 0x3 NOT ADD SLT PUSH2 0x171 JUMPI PUSH1 0x60 SWAP3 DUP3 SWAP2 CALLDATALOAD DUP2 MSTORE PUSH1 0x6 PUSH1 0x20 MSTORE KECCAK256 DUP1 SLOAD SWAP2 PUSH1 0x2 PUSH1 0x1 DUP4 ADD SLOAD SWAP3 ADD SLOAD SWAP2 DUP2 MLOAD SWAP4 DUP5 MSTORE PUSH1 0x20 DUP5 ADD MSTORE DUP3 ADD MSTORE RETURN JUMPDEST SWAP1 POP CALLVALUE PUSH2 0x24D JUMPI DUP2 PUSH1 0x3 NOT CALLDATASIZE ADD SLT PUSH2 0x24D JUMPI SWAP1 SLOAD PUSH1 0x1 PUSH1 0x1 PUSH1 0xA0 SHL SUB AND DUP2 MSTORE PUSH1 0x20 SWAP1 RETURN JUMPDEST PUSH1 0x40 DUP2 ADD SWAP1 DUP2 LT PUSH8 0xFFFFFFFFFFFFFFFF DUP3 GT OR PUSH2 0x4F7 JUMPI PUSH1 0x40 MSTORE JUMP JUMPDEST PUSH4 0x4E487B71 PUSH1 0xE0 SHL PUSH1 0x0 MSTORE PUSH1 0x41 PUSH1 0x4 MSTORE PUSH1 0x24 PUSH1 0x0 REVERT JUMPDEST SWAP1 PUSH1 0x1F DUP1 NOT SWAP2 ADD AND DUP2 ADD SWAP1 DUP2 LT PUSH8 0xFFFFFFFFFFFFFFFF DUP3 GT OR PUSH2 0x4F7 JUMPI PUSH1 0x40 MSTORE JUMP JUMPDEST PUSH8 0xFFFFFFFFFFFFFFFF DUP2 GT PUSH2 0x4F7 JUMPI PUSH1 0x1F ADD PUSH1 0x1F NOT AND PUSH1 0x20 ADD SWAP1 JUMP JUMPDEST SWAP3 SWAP2 SWAP3 PUSH2 0x557 DUP3 PUSH2 0x52F JUMP JUMPDEST SWAP2 PUSH2 0x565 PUSH1 0x40 MLOAD SWAP4 DUP5 PUSH2 0x50D JUMP JUMPDEST DUP3 SWAP5 DUP2 DUP5 MSTORE DUP2 DUP4 ADD GT PUSH2 0x582 JUMPI DUP3 DUP2 PUSH1 0x20 SWAP4 DUP5 PUSH1 0x0 SWAP7 ADD CALLDATACOPY ADD ADD MSTORE JUMP JUMPDEST PUSH1 0x0 DUP1 REVERT JUMPDEST PUSH1 0x0 JUMPDEST DUP4 DUP2 LT PUSH2 0x59A JUMPI POP POP PUSH1 0x0 SWAP2 ADD MSTORE JUMP JUMPDEST DUP2 DUP2 ADD MLOAD DUP4 DUP3 ADD MSTORE PUSH1 0x20 ADD PUSH2 0x58A JUMP JUMPDEST ISZERO PUSH2 0x5B1 JUMPI JUMP JUMPDEST PUSH1 0x40 MLOAD PUSH3 0x461BCD PUSH1 0xE5 SHL DUP2 MSTORE PUSH1 0x20 PUSH1 0x4 DUP3 ADD MSTORE PUSH1 0x15 PUSH1 0x24 DUP3 ADD MSTORE PUSH21 0x2934B9B5A937BABA32B91D103737BA1037BBB732B9 PUSH1 0x59 SHL PUSH1 0x44 DUP3 ADD MSTORE PUSH1 0x64 SWAP1 REVERT JUMPDEST SWAP1 DUP1 PUSH1 0x20 SWAP4 SWAP3 DUP2 DUP5 MSTORE DUP5 DUP5 ADD CALLDATACOPY PUSH1 0x0 DUP3 DUP3 ADD DUP5 ADD MSTORE PUSH1 0x1F ADD PUSH1 0x1F NOT AND ADD ADD SWAP1 JUMP JUMPDEST PUSH1 0x0 NOT DUP2 EQ PUSH2 0x61E JUMPI PUSH1 0x1 ADD SWAP1 JUMP JUMPDEST PUSH4 0x4E487B71 PUSH1 0xE0 SHL PUSH1 0x0 MSTORE PUSH1 0x11 PUSH1 0x4 MSTORE PUSH1 0x24 PUSH1 0x0 REVERT JUMPDEST SWAP1 CALLDATALOAD SWAP1 PUSH1 0x1E NOT DUP2 CALLDATASIZE SUB ADD DUP3 SLT ISZERO PUSH2 0x582 JUMPI ADD DUP1 CALLDATALOAD SWAP1 PUSH8 0xFFFFFFFFFFFFFFFF DUP3 GT PUSH2 0x582 JUMPI PUSH1 0x20 ADD SWAP2 DUP2 CALLDATASIZE SUB DUP4 SGT PUSH2 0x582 JUMPI JUMP JUMPDEST SWAP2 SWAP4 SWAP3 PUSH1 0xE0 DUP4 ADD CALLDATALOAD SWAP5 DUP6 TIMESTAMP GT PUSH2 0xA6A JUMPI PUSH1 0xC0 DUP5 ADD CALLDATALOAD SWAP6 DUP5 CALLDATALOAD PUSH1 0x0 MSTORE PUSH1 0x8 PUSH1 0x20 MSTORE PUSH1 0x40 PUSH1 0x0 KECCAK256 SLOAD DUP8 SUB PUSH2 0xA25 JUMPI PUSH2 0x6AA PUSH2 0x6A3 PUSH1 0x20 DUP8 ADD DUP8 PUSH2 0x634 JUMP JUMPDEST CALLDATASIZE SWAP2 PUSH2 0x54B JUMP JUMPDEST PUSH1 0x20 DUP2 MLOAD SWAP2 ADD KECCAK256 SWAP1 PUSH2 0x6C2 PUSH2 0x6A3 PUSH1 0x40 DUP9 ADD DUP9 PUSH2 0x634 JUMP JUMPDEST PUSH1 0x20 DUP2 MLOAD SWAP2 ADD KECCAK256 SWAP8 PUSH2 0x6DA PUSH2 0x6A3 PUSH1 0xA0 DUP10 ADD DUP10 PUSH2 0x634 JUMP JUMPDEST PUSH1 0x20 DUP2 MLOAD SWAP2 ADD KECCAK256 PUSH1 0x40 MLOAD SWAP10 PUSH1 0x20 DUP12 ADD SWAP5 PUSH32 0xECABC617024AC8577BDC22382C563ACFD061CC94B319B36BBA16E7734F979F6F DUP7 MSTORE DUP10 CALLDATALOAD PUSH1 0x40 DUP14 ADD MSTORE PUSH1 0x60 DUP13 ADD MSTORE PUSH1 0x80 DUP12 ADD MSTORE PUSH1 0x60 DUP9 ADD CALLDATALOAD PUSH1 0xA0 DUP12 ADD MSTORE PUSH1 0x80 DUP9 ADD CALLDATALOAD PUSH1 0xC0 DUP12 ADD MSTORE PUSH1 0xE0 DUP11 ADD MSTORE PUSH2 0x100 DUP10 ADD MSTORE PUSH2 0x120 SWAP1 DUP2 DUP10 ADD MSTORE DUP8 MSTORE PUSH2 0x140 DUP8 ADD PUSH8 0xFFFFFFFFFFFFFFFF SWAP2 DUP9 DUP3 LT DUP4 DUP4 GT OR PUSH2 0x4F7 JUMPI DUP2 PUSH1 0x40 MSTORE DUP9 MLOAD SWAP1 KECCAK256 SWAP2 PUSH2 0x160 DUP10 ADD SWAP3 PUSH2 0x1901 PUSH1 0xF0 SHL DUP5 MSTORE PUSH32 0x0 PUSH2 0x162 DUP12 ADD MSTORE PUSH2 0x182 DUP11 ADD MSTORE PUSH1 0x42 DUP3 MSTORE DUP2 PUSH2 0x1C0 DUP11 ADD LT SWAP1 PUSH2 0x1C0 DUP11 ADD GT OR PUSH2 0x4F7 JUMPI PUSH2 0x1C0 DUP9 ADD PUSH1 0x40 MSTORE MLOAD SWAP1 KECCAK256 SWAP6 DUP7 PUSH1 0x0 MSTORE PUSH1 0x7 PUSH1 0x20 MSTORE PUSH1 0xFF PUSH1 0x40 PUSH1 0x0 KECCAK256 SLOAD AND PUSH2 0x9DA JUMPI POP PUSH1 0x20 SWAP3 PUSH1 0x0 SWAP3 PUSH1 0x80 SWAP3 PUSH1 0xFF PUSH1 0x40 MLOAD SWAP4 DUP11 DUP6 MSTORE AND DUP7 DUP5 ADD MSTORE PUSH1 0x40 DUP4 ADD MSTORE PUSH1 0x60 DUP3 ADD MSTORE DUP3 DUP1 MSTORE PUSH1 0x1 GAS STATICCALL ISZERO PUSH2 0x9CE JUMPI PUSH1 0x0 MLOAD PUSH1 0x1 PUSH1 0x1 PUSH1 0xA0 SHL SUB AND SWAP1 DUP2 ISZERO PUSH2 0x989 JUMPI PUSH2 0x828 DUP2 PUSH2 0xAF4 JUMP JUMPDEST SWAP1 DUP6 PUSH1 0x0 MSTORE PUSH1 0x7 PUSH1 0x20 MSTORE PUSH1 0x40 PUSH1 0x0 KECCAK256 PUSH1 0x1 PUSH1 0xFF NOT DUP3 SLOAD AND OR SWAP1 SSTORE DUP3 CALLDATALOAD PUSH1 0x0 MSTORE PUSH1 0x8 PUSH1 0x20 MSTORE PUSH1 0x40 PUSH1 0x0 KECCAK256 PUSH2 0x85B DUP2 SLOAD PUSH2 0x60F JUMP JUMPDEST SWAP1 SSTORE ISZERO PUSH2 0x926 JUMPI POP PUSH1 0x2 PUSH3 0x15180 TIMESTAMP DIV DUP3 CALLDATALOAD PUSH1 0x0 MSTORE PUSH1 0x6 PUSH1 0x20 MSTORE PUSH1 0x40 PUSH1 0x0 KECCAK256 SWAP1 DUP1 DUP3 SLOAD SUB PUSH2 0x911 JUMPI JUMPDEST POP ADD PUSH2 0x890 DUP2 SLOAD PUSH2 0x60F JUMP JUMPDEST SWAP1 SSTORE PUSH32 0xDA0AC845197F6EE8B8B1298CF0183F48A9264E9F83356F144B10F7661FA16127 PUSH2 0x8C0 PUSH1 0x20 DUP4 ADD DUP4 PUSH2 0x634 JUMP JUMPDEST PUSH2 0x8FB PUSH2 0x8D0 PUSH1 0x40 DUP7 ADD DUP7 PUSH2 0x634 JUMP JUMPDEST PUSH2 0x8ED PUSH1 0x40 MLOAD SWAP6 DUP7 SWAP6 DUP13 DUP8 MSTORE PUSH1 0x80 PUSH1 0x20 DUP9 ADD MSTORE PUSH1 0x80 DUP8 ADD SWAP2 PUSH2 0x5EE JUMP JUMPDEST SWAP2 DUP5 DUP4 SUB PUSH1 0x40 DUP7 ADD MSTORE PUSH2 0x5EE JUMP JUMPDEST SWAP4 PUSH1 0x60 DUP2 ADD CALLDATALOAD PUSH1 0x60 DUP4 ADD MSTORE CALLDATALOAD SWAP4 SUB SWAP1 LOG3 PUSH1 0x1 SWAP2 SWAP1 JUMP JUMPDEST DUP2 SSTORE PUSH1 0x0 PUSH1 0x1 DUP3 ADD SSTORE PUSH1 0x0 DUP3 DUP3 ADD SSTORE CODESIZE PUSH2 0x884 JUMP JUMPDEST SWAP2 POP PUSH32 0xD344D458E98402D70FF8C192EEB985BC45059D53F0EC4D4306687D59D3AC6ABF SWAP1 PUSH1 0x60 PUSH1 0x40 MLOAD DUP1 SWAP3 DUP8 DUP3 MSTORE PUSH1 0x40 PUSH1 0x20 DUP4 ADD MSTORE PUSH2 0x974 DUP7 MLOAD DUP1 SWAP8 DUP2 PUSH1 0x40 DUP7 ADD MSTORE PUSH1 0x20 DUP7 DUP7 ADD SWAP2 ADD PUSH2 0x587 JUMP JUMPDEST CALLDATALOAD SWAP5 PUSH1 0x1F ADD PUSH1 0x1F NOT AND DUP2 ADD SUB ADD SWAP1 LOG2 PUSH1 0x0 SWAP2 SWAP1 JUMP JUMPDEST PUSH1 0x40 MLOAD PUSH3 0x461BCD PUSH1 0xE5 SHL DUP2 MSTORE PUSH1 0x20 PUSH1 0x4 DUP3 ADD MSTORE PUSH1 0x1D PUSH1 0x24 DUP3 ADD MSTORE PUSH32 0x5269736B526F757465723A20696E76616C6964207369676E6174757265000000 PUSH1 0x44 DUP3 ADD MSTORE PUSH1 0x64 SWAP1 REVERT JUMPDEST PUSH1 0x40 MLOAD RETURNDATASIZE PUSH1 0x0 DUP3 RETURNDATACOPY RETURNDATASIZE SWAP1 REVERT JUMPDEST PUSH2 0x1C0 PUSH1 0x64 SWAP2 PUSH3 0x461BCD PUSH1 0xE5 SHL DUP3 DUP3 ADD MSTORE PUSH1 0x20 PUSH2 0x1C4 DUP3 ADD MSTORE PUSH1 0x1D PUSH2 0x1E4 DUP3 ADD MSTORE PUSH32 0x5269736B526F757465723A20616C72656164792070726F636573736564000000 PUSH2 0x204 DUP3 ADD MSTORE ADD REVERT JUMPDEST PUSH1 0x40 MLOAD PUSH3 0x461BCD PUSH1 0xE5 SHL DUP2 MSTORE PUSH1 0x20 PUSH1 0x4 DUP3 ADD MSTORE PUSH1 0x19 PUSH1 0x24 DUP3 ADD MSTORE PUSH32 0x5269736B526F757465723A20696E76616C6964206E6F6E636500000000000000 PUSH1 0x44 DUP3 ADD MSTORE PUSH1 0x64 SWAP1 REVERT JUMPDEST PUSH1 0x40 MLOAD PUSH3 0x461BCD PUSH1 0xE5 SHL DUP2 MSTORE PUSH1 0x20 PUSH1 0x4 DUP3 ADD MSTORE PUSH1 0x19 PUSH1 0x24 DUP3 ADD MSTORE PUSH32 0x5269736B526F757465723A207472616465206578706972656400000000000000 PUSH1 0x44 DUP3 ADD MSTORE PUSH1 0x64 SWAP1 REVERT JUMPDEST DUP2 PUSH1 0x1F DUP3 ADD SLT ISZERO PUSH2 0x582 JUMPI DUP1 MLOAD PUSH2 0xAC5 DUP2 PUSH2 0x52F JUMP JUMPDEST SWAP3 PUSH2 0xAD3 PUSH1 0x40 MLOAD SWAP5 DUP6 PUSH2 0x50D JUMP JUMPDEST DUP2 DUP5 MSTORE PUSH1 0x20 DUP3 DUP5 ADD ADD GT PUSH2 0x582 JUMPI PUSH2 0xAF1 SWAP2 PUSH1 0x20 DUP1 DUP6 ADD SWAP2 ADD PUSH2 0x587 JUMP JUMPDEST SWAP1 JUMP JUMPDEST SWAP1 PUSH1 0x4 SLOAD PUSH1 0x80 DUP4 ADD CALLDATALOAD LT PUSH2 0xD57 JUMPI PUSH1 0x2 SLOAD PUSH1 0x60 DUP4 ADD CALLDATALOAD GT PUSH2 0xD1A JUMPI PUSH1 0x20 PUSH2 0xB26 PUSH2 0xB20 DUP3 DUP6 ADD DUP6 PUSH2 0x634 JUMP JUMPDEST SWAP1 PUSH2 0xDBB JUMP JUMPDEST SWAP3 PUSH1 0xFF PUSH2 0xB42 DUP4 PUSH1 0x40 SWAP7 DUP2 DUP9 MLOAD SWAP4 DUP3 DUP6 DUP1 SWAP5 MLOAD SWAP4 DUP5 SWAP3 ADD PUSH2 0x587 JUMP JUMPDEST DUP2 ADD PUSH1 0x5 DUP2 MSTORE SUB ADD SWAP1 KECCAK256 SLOAD AND ISZERO PUSH2 0xCE7 JUMPI CALLDATALOAD PUSH1 0x0 SWAP1 DUP1 DUP3 MSTORE PUSH1 0x6 DUP4 MSTORE DUP5 DUP3 KECCAK256 PUSH3 0x15180 TIMESTAMP DIV DUP2 SLOAD EQ SWAP1 DUP2 PUSH2 0xCD6 JUMPI JUMPDEST POP PUSH2 0xC9D JUMPI DUP2 SLOAD DUP6 MLOAD PUSH4 0x2DE5AAF7 PUSH1 0xE0 SHL DUP2 MSTORE PUSH1 0x4 DUP2 ADD SWAP3 SWAP1 SWAP3 MSTORE PUSH1 0x1 PUSH1 0x1 PUSH1 0xA0 SHL SUB SWAP2 SWAP1 DUP4 SWAP1 DUP3 SWAP1 PUSH1 0x24 SWAP1 DUP3 SWAP1 DUP7 AND GAS STATICCALL SWAP2 DUP3 ISZERO PUSH2 0xC93 JUMPI DUP4 SWAP3 PUSH2 0xC19 JUMPI JUMPDEST POP POP ISZERO PUSH2 0xBEE JUMPI PUSH1 0x1 SWAP4 DUP1 MLOAD SWAP3 DUP4 ADD SWAP1 DUP4 DUP3 LT PUSH8 0xFFFFFFFFFFFFFFFF DUP4 GT OR PUSH2 0xBDA JUMPI MSTORE DUP2 MSTORE SWAP1 JUMP JUMPDEST PUSH4 0x4E487B71 PUSH1 0xE0 SHL DUP4 MSTORE PUSH1 0x41 PUSH1 0x4 MSTORE PUSH1 0x24 DUP4 REVERT JUMPDEST PUSH16 0x4167656E74206E6F7420616374697665 PUSH1 0x80 SHL SWAP1 SWAP4 MLOAD SWAP2 PUSH2 0xC0F DUP4 PUSH2 0x4DB JUMP JUMPDEST PUSH1 0x10 DUP4 MSTORE DUP3 ADD MSTORE SWAP1 JUMP JUMPDEST SWAP1 SWAP2 POP RETURNDATASIZE DUP1 DUP5 DUP5 RETURNDATACOPY PUSH2 0xC2B DUP2 DUP5 PUSH2 0x50D JUMP JUMPDEST DUP3 ADD PUSH1 0xE0 DUP4 DUP3 SUB SLT PUSH2 0x2E1 JUMPI DUP3 MLOAD PUSH8 0xFFFFFFFFFFFFFFFF SWAP1 DUP2 DUP2 GT PUSH2 0xC8F JUMPI DUP3 PUSH2 0xC56 SWAP2 DUP7 ADD PUSH2 0xAAF JUMP JUMPDEST POP DUP6 DUP5 ADD MLOAD SWAP1 DUP2 GT PUSH2 0x2DD JUMPI SWAP1 PUSH2 0xC6E SWAP2 DUP5 ADD PUSH2 0xAAF JUMP JUMPDEST POP DUP6 DUP3 ADD MLOAD SWAP1 DUP2 AND SUB PUSH2 0x24D JUMPI PUSH1 0x80 ADD MLOAD DUP1 ISZERO ISZERO DUP2 SUB PUSH2 0x24D JUMPI CODESIZE DUP1 PUSH2 0xBB1 JUMP JUMPDEST DUP6 DUP1 REVERT JUMPDEST DUP7 MLOAD RETURNDATASIZE DUP6 DUP3 RETURNDATACOPY RETURNDATASIZE SWAP1 REVERT JUMPDEST POP PUSH32 0x4461696C79206C6F7373206C696D697420726561636865640000000000000000 SWAP1 SWAP4 MLOAD SWAP2 PUSH2 0xCCC DUP4 PUSH2 0x4DB JUMP JUMPDEST PUSH1 0x18 DUP4 MSTORE DUP3 ADD MSTORE SWAP1 JUMP JUMPDEST PUSH1 0x1 SWAP2 POP ADD SLOAD PUSH1 0x3 SLOAD GT ISZERO CODESIZE PUSH2 0xB71 JUMP JUMPDEST POP PUSH22 0x151BDAD95B881B9BDD081A5B88185B1B1BDDDB1A5CDD PUSH1 0x52 SHL PUSH1 0x0 SWAP4 MLOAD SWAP2 PUSH2 0xD10 DUP4 PUSH2 0x4DB JUMP JUMPDEST PUSH1 0x16 DUP4 MSTORE DUP3 ADD MSTORE SWAP1 JUMP JUMPDEST PUSH1 0x40 MLOAD PUSH1 0x0 SWAP3 POP PUSH2 0xD2A DUP2 PUSH2 0x4DB JUMP JUMPDEST PUSH1 0x1A DUP2 MSTORE PUSH32 0x457863656564732073696E676C65207472616465206C696D6974000000000000 PUSH1 0x20 DUP3 ADD MSTORE SWAP1 JUMP JUMPDEST PUSH1 0x40 MLOAD PUSH1 0x0 SWAP3 POP PUSH2 0xD67 DUP2 PUSH2 0x4DB JUMP JUMPDEST PUSH1 0x18 DUP2 MSTORE PUSH32 0x436F6E666964656E63652062656C6F77206D696E696D756D0000000000000000 PUSH1 0x20 DUP3 ADD MSTORE SWAP1 JUMP JUMPDEST SWAP1 DUP2 MLOAD DUP2 LT ISZERO PUSH2 0xDA5 JUMPI ADD PUSH1 0x20 ADD SWAP1 JUMP JUMPDEST PUSH4 0x4E487B71 PUSH1 0xE0 SHL PUSH1 0x0 MSTORE PUSH1 0x32 PUSH1 0x4 MSTORE PUSH1 0x24 PUSH1 0x0 REVERT JUMPDEST SWAP1 SWAP2 PUSH2 0xDC8 CALLDATASIZE DUP5 DUP5 PUSH2 0x54B JUMP JUMPDEST SWAP3 PUSH1 0x0 SWAP3 DUP4 JUMPDEST DUP6 MLOAD DUP2 LT ISZERO PUSH2 0xE85 JUMPI PUSH1 0x2F PUSH1 0xF8 SHL PUSH1 0x1 PUSH1 0x1 PUSH1 0xF8 SHL SUB NOT PUSH2 0xDEF DUP4 DUP10 PUSH2 0xD94 JUMP JUMPDEST MLOAD AND EQ PUSH2 0xDFE JUMPI PUSH1 0x1 ADD PUSH2 0xDCE JUMP JUMPDEST SWAP3 SWAP4 POP SWAP1 JUMPDEST DUP3 ISZERO PUSH2 0xE75 JUMPI POP POP PUSH2 0xE14 DUP2 PUSH2 0x52F JUMP JUMPDEST SWAP1 PUSH2 0xE22 PUSH1 0x40 MLOAD SWAP3 DUP4 PUSH2 0x50D JUMP JUMPDEST DUP1 DUP3 MSTORE PUSH1 0x1F NOT PUSH2 0xE31 DUP3 PUSH2 0x52F JUMP JUMPDEST ADD CALLDATASIZE PUSH1 0x20 DUP5 ADD CALLDATACOPY PUSH1 0x0 JUMPDEST DUP2 DUP2 LT PUSH2 0xE49 JUMPI POP SWAP1 SWAP3 POP POP JUMP JUMPDEST PUSH1 0x1 SWAP1 PUSH1 0x1 PUSH1 0x1 PUSH1 0xF8 SHL SUB NOT PUSH2 0xE5F DUP3 DUP9 PUSH2 0xD94 JUMP JUMPDEST MLOAD AND PUSH1 0x0 BYTE PUSH2 0xE6E DUP3 DUP7 PUSH2 0xD94 JUMP JUMPDEST MSTORE8 ADD PUSH2 0xE3B JUMP JUMPDEST SWAP1 SWAP2 POP PUSH2 0xAF1 SWAP3 SWAP4 POP CALLDATASIZE SWAP2 PUSH2 0x54B JUMP JUMPDEST POP SWAP1 SWAP3 SWAP2 SWAP3 PUSH2 0xE03 JUMP INVALID LOG2 PUSH5 0x6970667358 0x22 SLT KECCAK256 0xA9 PUSH26 0xE288C6D216598ED89DB5CEB5D19ACCDF954188C5D16DF2DB5401 PUSH11 0x6DB4B164736F6C63430008 XOR STOP CALLER "},"methodIdentifiers":{"DOMAIN_SEPARATOR()":"3644e515","TRADE_TYPEHASH()":"2bba58ac","agentDailyStats(uint256)":"1344c76e","agentNonces(uint256)":"ace1854b","agentRegistry()":"0d1cfcae","allowedTokens(string)":"fb9576da","getAgentNonce(uint256)":"4cfee215","isTradeProcessed(bytes32)":"260f0608","maxDailyLossUsd()":"8fe9099a","maxSingleTradeUsd()":"63e93557","minConfidence()":"d52b7a14","owner()":"8da5cb5b","processedTrades(bytes32)":"91be86be","setLimits(uint256,uint256)":"c4590d3f","setMinConfidence(uint256)":"5764390c","setTokenAllowed(string,bool)":"351f0dbe","submitTrade((uint256,string,string,uint256,uint256,string,uint256,uint256),uint8,bytes32,bytes32)":"84036435"}}}}}