{"contracts/ReputationManager.sol":{"ReputationManager":{"abi":[{"inputs":[{"internalType":"address","name":"_registry","type":"address"},{"internalType":"address","name":"_validationRegistry","type":"address"}],"stateMutability":"nonpayable","type":"constructor"},{"anonymous":false,"inputs":[{"indexed":true,"internalType":"uint256","name":"agentId","type":"uint256"},{"indexed":false,"internalType":"uint256","name":"newTrustScore","type":"uint256"},{"indexed":false,"internalType":"int256","name":"scoreDelta","type":"int256"},{"indexed":false,"internalType":"string","name":"reason","type":"string"}],"name":"ReputationUpdated","type":"event"},{"inputs":[],"name":"MAX_NEGATIVE_DELTA","outputs":[{"internalType":"int256","name":"","type":"int256"}],"stateMutability":"view","type":"function"},{"inputs":[],"name":"MAX_POSITIVE_DELTA","outputs":[{"internalType":"int256","name":"","type":"int256"}],"stateMutability":"view","type":"function"},{"inputs":[{"internalType":"uint256","name":"","type":"uint256"},{"internalType":"uint256","name":"","type":"uint256"}],"name":"agentHistory","outputs":[{"internalType":"uint256","name":"agentId","type":"uint256"},{"internalType":"string","name":"tradeId","type":"string"},{"internalType":"bool","name":"profitable","type":"bool"},{"internalType":"int256","name":"pnlBps","type":"int256"},{"internalType":"uint256","name":"confidence","type":"uint256"},{"internalType":"uint256","name":"timestamp","type":"uint256"}],"stateMutability":"view","type":"function"},{"inputs":[],"name":"agentRegistry","outputs":[{"internalType":"contract AgentRegistry","name":"","type":"address"}],"stateMutability":"view","type":"function"},{"inputs":[{"internalType":"uint256","name":"agentId","type":"uint256"}],"name":"getAgentHistory","outputs":[{"components":[{"internalType":"uint256","name":"agentId","type":"uint256"},{"internalType":"string","name":"tradeId","type":"string"},{"internalType":"bool","name":"profitable","type":"bool"},{"internalType":"int256","name":"pnlBps","type":"int256"},{"internalType":"uint256","name":"confidence","type":"uint256"},{"internalType":"uint256","name":"timestamp","type":"uint256"}],"internalType":"struct ReputationManager.ScoreUpdate[]","name":"","type":"tuple[]"}],"stateMutability":"view","type":"function"},{"inputs":[{"internalType":"uint256","name":"agentId","type":"uint256"}],"name":"getTrustScore","outputs":[{"internalType":"uint256","name":"","type":"uint256"}],"stateMutability":"view","type":"function"},{"inputs":[],"name":"owner","outputs":[{"internalType":"address","name":"","type":"address"}],"stateMutability":"view","type":"function"},{"inputs":[{"internalType":"uint256","name":"agentId","type":"uint256"},{"internalType":"string","name":"tradeId","type":"string"},{"internalType":"bool","name":"profitable","type":"bool"},{"internalType":"int256","name":"pnlBps","type":"int256"}],"name":"updateReputation","outputs":[],"stateMutability":"nonpayable","type":"function"},{"inputs":[],"name":"validationRegistry","outputs":[{"internalType":"contract ValidationRegistry","name":"","type":"address"}],"stateMutability":"view","type":"function"}],"evm":{"bytecode":{"linkReferences":{},"object":"60803461009257601f610e2a38819003918201601f19168301916001600160401b0383118484101761009757808492604094855283398101031261009257610052602061004b836100ad565b92016100ad565b9060018060a01b0319913383600254161760025560018060a01b0380921683600054161760005516906001541617600155604051610d6890816100c28239f35b600080fd5b634e487b7160e01b600052604160045260246000fd5b51906001600160a01b03821682036100925756fe608080604052600436101561001357600080fd5b600090813560e01c9081630b793e0514610aaa575080630d1cfcae14610a83578063107091e5146103a15780633ba14907146102235780634ae11925146101885780634c6b993a1461015f5780634f005e901461014357806383f3d448146100af57638da5cb5b1461008457600080fd5b346100ac57806003193601126100ac576002546040516001600160a01b039091168152602090f35b80fd5b50346100ac57602090816003193601126100ac57805460405163107e7a8960e31b81526004803590820152908390829060249082906001600160a01b03165afa9182156101375791610105575b50604051908152f35b90508181813d8311610130575b61011c8183610bdc565b8101031261012b5751386100fc565b600080fd5b503d610112565b604051903d90823e3d90fd5b50346100ac57806003193601126100ac57602060405160058152f35b50346100ac57806003193601126100ac576001546040516001600160a01b039091168152602090f35b50346100ac5760403660031901126100ac576024356004358252600360205260408220805482101561021f576101be9250610b0e565b5080546101cd60018301610bfe565b9160ff600282015416906003810154906005600482015491015491610204604051968796875260c0602088015260c0870190610ae9565b93151560408601526060850152608084015260a08301520390f35b8280fd5b50346100ac5760208060031936011261039d57600435825260038082526040832090815467ffffffffffffffff811161038957604051939491600561026c83821b880187610bdc565b82865286860191829585528785209185935b85851061032357505050505050604051928484019085855251809152604084019460408260051b8601019392955b8287106102b95785850386f35b909192938280600192603f198982030185528751906102e960c08351835284840151908086850152830190610ae9565b91604081015115156040830152606080820151908301526080808201519083015260a08091015191015296019201960195929190926102ac565b60068a60019260409c9b999c5161033981610ba4565b87548152610348858901610bfe565b8382015260ff60028901541615156040820152868801546060820152600488015460808201528588015460a08201528152019401940193929895979861027e565b634e487b7160e01b85526041600452602485fd5b5080fd5b50346100ac5760803660031901126100ac5760243567ffffffffffffffff811161039d573660238201121561039d5767ffffffffffffffff81600401351161039d5736602482600401358301011161039d5760443515156044350361039d576002546001600160a01b03163303610a3e5760018060a01b0360015416906040516309ae52cb60e21b81526020600482015283818061044a60248201866004013560248801610d11565b0381865afa908115610a3357849161099f575b506044351561097457604b811061095c576005925b60c860643513610928575b6005841361091f575b600219808512610917575b50803b15610913578460405180926318a2787d60e11b8252606060048301528183816104c8606482018a6004013560248c01610d11565b60443515156024830152606435604483015203925af18015610908576108f5575b50835484906001600160a01b0316803b1561039d578180916064604051809481936395359d6b60e01b8352600435600484015260443515156024840152833560448401525af180156108ea576108d2575b505060043584526003602052604084206040519161055783610ba4565b600435835285602061056c8660040135610ca3565b9561057a6040519788610bdc565b6004810135808852602482018389013760040135860101526020830193845260443515156040840152606435606084015260808301524260a0830152805490680100000000000000008210156108aa57906105da91600182018155610b0e565b9290926108be57815183555180519067ffffffffffffffff82116108aa576106056001850154610b40565b601f8111610866575b50602090601f83116001146107f45791806005949260a09489926107e9575b50508160011b916000199060031b1c19161760018501555b600284016040820151151560ff80198354169116179055606081015160038501556080810151600485015501519101556024602060018060a01b038454166040519283809263107e7a8960e31b825260043560048301525afa80156107de57839061078c575b7feec147b56042117961ed3d136cd43a67947c39ce0cd9d2edf9b0344fa954a4ff915060443515610743576040516106e281610bc0565b602281527f50726f66697461626c65207472616465202d20747275737420696e6372656173602082015261195960f21b6040820152925b6040519182526020820152606060408201528061073d600435946060830190610ae9565b0390a280f35b60405161074f81610bc0565b602481527f556e70726f66697461626c65207472616465202d207472757374206465637265602082015263185cd95960e21b604082015292610719565b506020813d6020116107d6575b816107a660209383610bdc565b8101031261012b577feec147b56042117961ed3d136cd43a67947c39ce0cd9d2edf9b0344fa954a4ff90516106ab565b3d9150610799565b6040513d85823e3d90fd5b01519050388061062d565b906001850187526020872091875b601f198516811061084e5750926005949260019260a09583601f19811610610835575b505050811b016001850155610645565b015160001960f88460031b161c19169055388080610825565b91926020600181928685015181550194019201610802565b60018501875260208720601f840160051c8101602085106108a3575b601f830160051c8201811061089857505061060e565b888155600101610882565b5080610882565b634e487b7160e01b86526041600452602486fd5b634e487b7160e01b85526004859052602485fd5b6108db90610b7a565b6108e657833861053a565b8380fd5b6040513d84823e3d90fd5b61090190949194610b7a565b92386104e9565b6040513d87823e3d90fd5b8480fd5b935038610491565b60059350610486565b92600180820112858212908015821691151617610948576001019261047d565b634e487b7160e01b85526011600452602485fd5b6037811061096c57600392610472565b600192610472565b604b8110610985576002199261047d565b60378110610996576001199261047d565b6000199261047d565b90503d8085833e6109b08183610bdc565b61010082828101031261091357602082015167ffffffffffffffff8111610a2f576109e090828401908401610cbf565b5060408201519160608101519067ffffffffffffffff8211610a2b57610a1060c092610a24948301908301610cbf565b50610a1d60a08201610d04565b5001610d04565b503861045d565b8680fd5b8580fd5b6040513d86823e3d90fd5b60405162461bcd60e51b815260206004820152601c60248201527f52657075746174696f6e4d616e616765723a206e6f74206f776e6572000000006044820152606490fd5b50346100ac57806003193601126100ac57546040516001600160a01b039091168152602090f35b90503461039d578160031936011261039d576002198152602090f35b60005b838110610ad95750506000910152565b8181015183820152602001610ac9565b90602091610b0281518092818552858086019101610ac6565b601f01601f1916010190565b8054821015610b2a576000526006602060002091020190600090565b634e487b7160e01b600052603260045260246000fd5b90600182811c92168015610b70575b6020831014610b5a57565b634e487b7160e01b600052602260045260246000fd5b91607f1691610b4f565b67ffffffffffffffff8111610b8e57604052565b634e487b7160e01b600052604160045260246000fd5b60c0810190811067ffffffffffffffff821117610b8e57604052565b6060810190811067ffffffffffffffff821117610b8e57604052565b90601f8019910116810190811067ffffffffffffffff821117610b8e57604052565b90604051918260008254610c1181610b40565b90818452602094600191600181169081600014610c815750600114610c42575b505050610c4092500383610bdc565b565b600090815285812095935091905b818310610c69575050610c409350820101388080610c31565b85548884018501529485019487945091830191610c50565b92505050610c4094925060ff191682840152151560051b820101388080610c31565b67ffffffffffffffff8111610b8e57601f01601f191660200190565b81601f8201121561012b578051610cd581610ca3565b92610ce36040519485610bdc565b8184526020828401011161012b57610d019160208085019101610ac6565b90565b5190811515820361012b57565b908060209392818452848401376000828201840152601f01601f191601019056fea26469706673582212209c2ef342c777dd4d7b6f667d71f4f82eff2745f6ccf2c988b58b61cc04e5e40a64736f6c63430008180033","opcodes":"PUSH1 0x80 CALLVALUE PUSH2 0x92 JUMPI PUSH1 0x1F PUSH2 0xE2A CODESIZE DUP2 SWAP1 SUB SWAP2 DUP3 ADD PUSH1 0x1F NOT AND DUP4 ADD SWAP2 PUSH1 0x1 PUSH1 0x1 PUSH1 0x40 SHL SUB DUP4 GT DUP5 DUP5 LT OR PUSH2 0x97 JUMPI DUP1 DUP5 SWAP3 PUSH1 0x40 SWAP5 DUP6 MSTORE DUP4 CODECOPY DUP2 ADD SUB SLT PUSH2 0x92 JUMPI PUSH2 0x52 PUSH1 0x20 PUSH2 0x4B DUP4 PUSH2 0xAD JUMP JUMPDEST SWAP3 ADD PUSH2 0xAD JUMP JUMPDEST SWAP1 PUSH1 0x1 DUP1 PUSH1 0xA0 SHL SUB NOT SWAP2 CALLER DUP4 PUSH1 0x2 SLOAD AND OR PUSH1 0x2 SSTORE PUSH1 0x1 DUP1 PUSH1 0xA0 SHL SUB DUP1 SWAP3 AND DUP4 PUSH1 0x0 SLOAD AND OR PUSH1 0x0 SSTORE AND SWAP1 PUSH1 0x1 SLOAD AND OR PUSH1 0x1 SSTORE PUSH1 0x40 MLOAD PUSH2 0xD68 SWAP1 DUP2 PUSH2 0xC2 DUP3 CODECOPY RETURN JUMPDEST PUSH1 0x0 DUP1 REVERT JUMPDEST PUSH4 0x4E487B71 PUSH1 0xE0 SHL PUSH1 0x0 MSTORE PUSH1 0x41 PUSH1 0x4 MSTORE PUSH1 0x24 PUSH1 0x0 REVERT JUMPDEST MLOAD SWAP1 PUSH1 0x1 PUSH1 0x1 PUSH1 0xA0 SHL SUB DUP3 AND DUP3 SUB PUSH2 0x92 JUMPI JUMP INVALID PUSH1 0x80 DUP1 PUSH1 0x40 MSTORE PUSH1 0x4 CALLDATASIZE LT ISZERO PUSH2 0x13 JUMPI PUSH1 0x0 DUP1 REVERT JUMPDEST PUSH1 0x0 SWAP1 DUP2 CALLDATALOAD PUSH1 0xE0 SHR SWAP1 DUP2 PUSH4 0xB793E05 EQ PUSH2 0xAAA JUMPI POP DUP1 PUSH4 0xD1CFCAE EQ PUSH2 0xA83 JUMPI DUP1 PUSH4 0x107091E5 EQ PUSH2 0x3A1 JUMPI DUP1 PUSH4 0x3BA14907 EQ PUSH2 0x223 JUMPI DUP1 PUSH4 0x4AE11925 EQ PUSH2 0x188 JUMPI DUP1 PUSH4 0x4C6B993A EQ PUSH2 0x15F JUMPI DUP1 PUSH4 0x4F005E90 EQ PUSH2 0x143 JUMPI DUP1 PUSH4 0x83F3D448 EQ PUSH2 0xAF JUMPI PUSH4 0x8DA5CB5B EQ PUSH2 0x84 JUMPI PUSH1 0x0 DUP1 REVERT JUMPDEST CALLVALUE PUSH2 0xAC JUMPI DUP1 PUSH1 0x3 NOT CALLDATASIZE ADD SLT PUSH2 0xAC JUMPI PUSH1 0x2 SLOAD PUSH1 0x40 MLOAD PUSH1 0x1 PUSH1 0x1 PUSH1 0xA0 SHL SUB SWAP1 SWAP2 AND DUP2 MSTORE PUSH1 0x20 SWAP1 RETURN JUMPDEST DUP1 REVERT JUMPDEST POP CALLVALUE PUSH2 0xAC JUMPI PUSH1 0x20 SWAP1 DUP2 PUSH1 0x3 NOT CALLDATASIZE ADD SLT PUSH2 0xAC JUMPI DUP1 SLOAD PUSH1 0x40 MLOAD PUSH4 0x107E7A89 PUSH1 0xE3 SHL DUP2 MSTORE PUSH1 0x4 DUP1 CALLDATALOAD SWAP1 DUP3 ADD MSTORE SWAP1 DUP4 SWAP1 DUP3 SWAP1 PUSH1 0x24 SWAP1 DUP3 SWAP1 PUSH1 0x1 PUSH1 0x1 PUSH1 0xA0 SHL SUB AND GAS STATICCALL SWAP2 DUP3 ISZERO PUSH2 0x137 JUMPI SWAP2 PUSH2 0x105 JUMPI JUMPDEST POP PUSH1 0x40 MLOAD SWAP1 DUP2 MSTORE RETURN JUMPDEST SWAP1 POP DUP2 DUP2 DUP2 RETURNDATASIZE DUP4 GT PUSH2 0x130 JUMPI JUMPDEST PUSH2 0x11C DUP2 DUP4 PUSH2 0xBDC JUMP JUMPDEST DUP2 ADD SUB SLT PUSH2 0x12B JUMPI MLOAD CODESIZE PUSH2 0xFC JUMP JUMPDEST PUSH1 0x0 DUP1 REVERT JUMPDEST POP RETURNDATASIZE PUSH2 0x112 JUMP JUMPDEST PUSH1 0x40 MLOAD SWAP1 RETURNDATASIZE SWAP1 DUP3 RETURNDATACOPY RETURNDATASIZE SWAP1 REVERT JUMPDEST POP CALLVALUE PUSH2 0xAC JUMPI DUP1 PUSH1 0x3 NOT CALLDATASIZE ADD SLT PUSH2 0xAC JUMPI PUSH1 0x20 PUSH1 0x40 MLOAD PUSH1 0x5 DUP2 MSTORE RETURN JUMPDEST POP CALLVALUE PUSH2 0xAC JUMPI DUP1 PUSH1 0x3 NOT CALLDATASIZE ADD SLT PUSH2 0xAC JUMPI PUSH1 0x1 SLOAD PUSH1 0x40 MLOAD PUSH1 0x1 PUSH1 0x1 PUSH1 0xA0 SHL SUB SWAP1 SWAP2 AND DUP2 MSTORE PUSH1 0x20 SWAP1 RETURN JUMPDEST POP CALLVALUE PUSH2 0xAC JUMPI PUSH1 0x40 CALLDATASIZE PUSH1 0x3 NOT ADD SLT PUSH2 0xAC JUMPI PUSH1 0x24 CALLDATALOAD PUSH1 0x4 CALLDATALOAD DUP3 MSTORE PUSH1 0x3 PUSH1 0x20 MSTORE PUSH1 0x40 DUP3 KECCAK256 DUP1 SLOAD DUP3 LT ISZERO PUSH2 0x21F JUMPI PUSH2 0x1BE SWAP3 POP PUSH2 0xB0E JUMP JUMPDEST POP DUP1 SLOAD PUSH2 0x1CD PUSH1 0x1 DUP4 ADD PUSH2 0xBFE JUMP JUMPDEST SWAP2 PUSH1 0xFF PUSH1 0x2 DUP3 ADD SLOAD AND SWAP1 PUSH1 0x3 DUP2 ADD SLOAD SWAP1 PUSH1 0x5 PUSH1 0x4 DUP3 ADD SLOAD SWAP2 ADD SLOAD SWAP2 PUSH2 0x204 PUSH1 0x40 MLOAD SWAP7 DUP8 SWAP7 DUP8 MSTORE PUSH1 0xC0 PUSH1 0x20 DUP9 ADD MSTORE PUSH1 0xC0 DUP8 ADD SWAP1 PUSH2 0xAE9 JUMP JUMPDEST SWAP4 ISZERO ISZERO PUSH1 0x40 DUP7 ADD MSTORE PUSH1 0x60 DUP6 ADD MSTORE PUSH1 0x80 DUP5 ADD MSTORE PUSH1 0xA0 DUP4 ADD MSTORE SUB SWAP1 RETURN JUMPDEST DUP3 DUP1 REVERT JUMPDEST POP CALLVALUE PUSH2 0xAC JUMPI PUSH1 0x20 DUP1 PUSH1 0x3 NOT CALLDATASIZE ADD SLT PUSH2 0x39D JUMPI PUSH1 0x4 CALLDATALOAD DUP3 MSTORE PUSH1 0x3 DUP1 DUP3 MSTORE PUSH1 0x40 DUP4 KECCAK256 SWAP1 DUP2 SLOAD PUSH8 0xFFFFFFFFFFFFFFFF DUP2 GT PUSH2 0x389 JUMPI PUSH1 0x40 MLOAD SWAP4 SWAP5 SWAP2 PUSH1 0x5 PUSH2 0x26C DUP4 DUP3 SHL DUP9 ADD DUP8 PUSH2 0xBDC JUMP JUMPDEST DUP3 DUP7 MSTORE DUP7 DUP7 ADD SWAP2 DUP3 SWAP6 DUP6 MSTORE DUP8 DUP6 KECCAK256 SWAP2 DUP6 SWAP4 JUMPDEST DUP6 DUP6 LT PUSH2 0x323 JUMPI POP POP POP POP POP POP PUSH1 0x40 MLOAD SWAP3 DUP5 DUP5 ADD SWAP1 DUP6 DUP6 MSTORE MLOAD DUP1 SWAP2 MSTORE PUSH1 0x40 DUP5 ADD SWAP5 PUSH1 0x40 DUP3 PUSH1 0x5 SHL DUP7 ADD ADD SWAP4 SWAP3 SWAP6 JUMPDEST DUP3 DUP8 LT PUSH2 0x2B9 JUMPI DUP6 DUP6 SUB DUP7 RETURN JUMPDEST SWAP1 SWAP2 SWAP3 SWAP4 DUP3 DUP1 PUSH1 0x1 SWAP3 PUSH1 0x3F NOT DUP10 DUP3 SUB ADD DUP6 MSTORE DUP8 MLOAD SWAP1 PUSH2 0x2E9 PUSH1 0xC0 DUP4 MLOAD DUP4 MSTORE DUP5 DUP5 ADD MLOAD SWAP1 DUP1 DUP7 DUP6 ADD MSTORE DUP4 ADD SWAP1 PUSH2 0xAE9 JUMP JUMPDEST SWAP2 PUSH1 0x40 DUP2 ADD MLOAD ISZERO ISZERO PUSH1 0x40 DUP4 ADD MSTORE PUSH1 0x60 DUP1 DUP3 ADD MLOAD SWAP1 DUP4 ADD MSTORE PUSH1 0x80 DUP1 DUP3 ADD MLOAD SWAP1 DUP4 ADD MSTORE PUSH1 0xA0 DUP1 SWAP2 ADD MLOAD SWAP2 ADD MSTORE SWAP7 ADD SWAP3 ADD SWAP7 ADD SWAP6 SWAP3 SWAP2 SWAP1 SWAP3 PUSH2 0x2AC JUMP JUMPDEST PUSH1 0x6 DUP11 PUSH1 0x1 SWAP3 PUSH1 0x40 SWAP13 SWAP12 SWAP10 SWAP13 MLOAD PUSH2 0x339 DUP2 PUSH2 0xBA4 JUMP JUMPDEST DUP8 SLOAD DUP2 MSTORE PUSH2 0x348 DUP6 DUP10 ADD PUSH2 0xBFE JUMP JUMPDEST DUP4 DUP3 ADD MSTORE PUSH1 0xFF PUSH1 0x2 DUP10 ADD SLOAD AND ISZERO ISZERO PUSH1 0x40 DUP3 ADD MSTORE DUP7 DUP9 ADD SLOAD PUSH1 0x60 DUP3 ADD MSTORE PUSH1 0x4 DUP9 ADD SLOAD PUSH1 0x80 DUP3 ADD MSTORE DUP6 DUP9 ADD SLOAD PUSH1 0xA0 DUP3 ADD MSTORE DUP2 MSTORE ADD SWAP5 ADD SWAP5 ADD SWAP4 SWAP3 SWAP9 SWAP6 SWAP8 SWAP9 PUSH2 0x27E JUMP JUMPDEST PUSH4 0x4E487B71 PUSH1 0xE0 SHL DUP6 MSTORE PUSH1 0x41 PUSH1 0x4 MSTORE PUSH1 0x24 DUP6 REVERT JUMPDEST POP DUP1 REVERT JUMPDEST POP CALLVALUE PUSH2 0xAC JUMPI PUSH1 0x80 CALLDATASIZE PUSH1 0x3 NOT ADD SLT PUSH2 0xAC JUMPI PUSH1 0x24 CALLDATALOAD PUSH8 0xFFFFFFFFFFFFFFFF DUP2 GT PUSH2 0x39D JUMPI CALLDATASIZE PUSH1 0x23 DUP3 ADD SLT ISZERO PUSH2 0x39D JUMPI PUSH8 0xFFFFFFFFFFFFFFFF DUP2 PUSH1 0x4 ADD CALLDATALOAD GT PUSH2 0x39D JUMPI CALLDATASIZE PUSH1 0x24 DUP3 PUSH1 0x4 ADD CALLDATALOAD DUP4 ADD ADD GT PUSH2 0x39D JUMPI PUSH1 0x44 CALLDATALOAD ISZERO ISZERO PUSH1 0x44 CALLDATALOAD SUB PUSH2 0x39D JUMPI PUSH1 0x2 SLOAD PUSH1 0x1 PUSH1 0x1 PUSH1 0xA0 SHL SUB AND CALLER SUB PUSH2 0xA3E JUMPI PUSH1 0x1 DUP1 PUSH1 0xA0 SHL SUB PUSH1 0x1 SLOAD AND SWAP1 PUSH1 0x40 MLOAD PUSH4 0x9AE52CB PUSH1 0xE2 SHL DUP2 MSTORE PUSH1 0x20 PUSH1 0x4 DUP3 ADD MSTORE DUP4 DUP2 DUP1 PUSH2 0x44A PUSH1 0x24 DUP3 ADD DUP7 PUSH1 0x4 ADD CALLDATALOAD PUSH1 0x24 DUP9 ADD PUSH2 0xD11 JUMP JUMPDEST SUB DUP2 DUP7 GAS STATICCALL SWAP1 DUP2 ISZERO PUSH2 0xA33 JUMPI DUP5 SWAP2 PUSH2 0x99F JUMPI JUMPDEST POP PUSH1 0x44 CALLDATALOAD ISZERO PUSH2 0x974 JUMPI PUSH1 0x4B DUP2 LT PUSH2 0x95C JUMPI PUSH1 0x5 SWAP3 JUMPDEST PUSH1 0xC8 PUSH1 0x64 CALLDATALOAD SGT PUSH2 0x928 JUMPI JUMPDEST PUSH1 0x5 DUP5 SGT PUSH2 0x91F JUMPI JUMPDEST PUSH1 0x2 NOT DUP1 DUP6 SLT PUSH2 0x917 JUMPI JUMPDEST POP DUP1 EXTCODESIZE ISZERO PUSH2 0x913 JUMPI DUP5 PUSH1 0x40 MLOAD DUP1 SWAP3 PUSH4 0x18A2787D PUSH1 0xE1 SHL DUP3 MSTORE PUSH1 0x60 PUSH1 0x4 DUP4 ADD MSTORE DUP2 DUP4 DUP2 PUSH2 0x4C8 PUSH1 0x64 DUP3 ADD DUP11 PUSH1 0x4 ADD CALLDATALOAD PUSH1 0x24 DUP13 ADD PUSH2 0xD11 JUMP JUMPDEST PUSH1 0x44 CALLDATALOAD ISZERO ISZERO PUSH1 0x24 DUP4 ADD MSTORE PUSH1 0x64 CALLDATALOAD PUSH1 0x44 DUP4 ADD MSTORE SUB SWAP3 GAS CALL DUP1 ISZERO PUSH2 0x908 JUMPI PUSH2 0x8F5 JUMPI JUMPDEST POP DUP4 SLOAD DUP5 SWAP1 PUSH1 0x1 PUSH1 0x1 PUSH1 0xA0 SHL SUB AND DUP1 EXTCODESIZE ISZERO PUSH2 0x39D JUMPI DUP2 DUP1 SWAP2 PUSH1 0x64 PUSH1 0x40 MLOAD DUP1 SWAP5 DUP2 SWAP4 PUSH4 0x95359D6B PUSH1 0xE0 SHL DUP4 MSTORE PUSH1 0x4 CALLDATALOAD PUSH1 0x4 DUP5 ADD MSTORE PUSH1 0x44 CALLDATALOAD ISZERO ISZERO PUSH1 0x24 DUP5 ADD MSTORE DUP4 CALLDATALOAD PUSH1 0x44 DUP5 ADD MSTORE GAS CALL DUP1 ISZERO PUSH2 0x8EA JUMPI PUSH2 0x8D2 JUMPI JUMPDEST POP POP PUSH1 0x4 CALLDATALOAD DUP5 MSTORE PUSH1 0x3 PUSH1 0x20 MSTORE PUSH1 0x40 DUP5 KECCAK256 PUSH1 0x40 MLOAD SWAP2 PUSH2 0x557 DUP4 PUSH2 0xBA4 JUMP JUMPDEST PUSH1 0x4 CALLDATALOAD DUP4 MSTORE DUP6 PUSH1 0x20 PUSH2 0x56C DUP7 PUSH1 0x4 ADD CALLDATALOAD PUSH2 0xCA3 JUMP JUMPDEST SWAP6 PUSH2 0x57A PUSH1 0x40 MLOAD SWAP8 DUP9 PUSH2 0xBDC JUMP JUMPDEST PUSH1 0x4 DUP2 ADD CALLDATALOAD DUP1 DUP9 MSTORE PUSH1 0x24 DUP3 ADD DUP4 DUP10 ADD CALLDATACOPY PUSH1 0x4 ADD CALLDATALOAD DUP7 ADD ADD MSTORE PUSH1 0x20 DUP4 ADD SWAP4 DUP5 MSTORE PUSH1 0x44 CALLDATALOAD ISZERO ISZERO PUSH1 0x40 DUP5 ADD MSTORE PUSH1 0x64 CALLDATALOAD PUSH1 0x60 DUP5 ADD MSTORE PUSH1 0x80 DUP4 ADD MSTORE TIMESTAMP PUSH1 0xA0 DUP4 ADD MSTORE DUP1 SLOAD SWAP1 PUSH9 0x10000000000000000 DUP3 LT ISZERO PUSH2 0x8AA JUMPI SWAP1 PUSH2 0x5DA SWAP2 PUSH1 0x1 DUP3 ADD DUP2 SSTORE PUSH2 0xB0E JUMP JUMPDEST SWAP3 SWAP1 SWAP3 PUSH2 0x8BE JUMPI DUP2 MLOAD DUP4 SSTORE MLOAD DUP1 MLOAD SWAP1 PUSH8 0xFFFFFFFFFFFFFFFF DUP3 GT PUSH2 0x8AA JUMPI PUSH2 0x605 PUSH1 0x1 DUP6 ADD SLOAD PUSH2 0xB40 JUMP JUMPDEST PUSH1 0x1F DUP2 GT PUSH2 0x866 JUMPI JUMPDEST POP PUSH1 0x20 SWAP1 PUSH1 0x1F DUP4 GT PUSH1 0x1 EQ PUSH2 0x7F4 JUMPI SWAP2 DUP1 PUSH1 0x5 SWAP5 SWAP3 PUSH1 0xA0 SWAP5 DUP10 SWAP3 PUSH2 0x7E9 JUMPI JUMPDEST POP POP DUP2 PUSH1 0x1 SHL SWAP2 PUSH1 0x0 NOT SWAP1 PUSH1 0x3 SHL SHR NOT AND OR PUSH1 0x1 DUP6 ADD SSTORE JUMPDEST PUSH1 0x2 DUP5 ADD PUSH1 0x40 DUP3 ADD MLOAD ISZERO ISZERO PUSH1 0xFF DUP1 NOT DUP4 SLOAD AND SWAP2 AND OR SWAP1 SSTORE PUSH1 0x60 DUP2 ADD MLOAD PUSH1 0x3 DUP6 ADD SSTORE PUSH1 0x80 DUP2 ADD MLOAD PUSH1 0x4 DUP6 ADD SSTORE ADD MLOAD SWAP2 ADD SSTORE PUSH1 0x24 PUSH1 0x20 PUSH1 0x1 DUP1 PUSH1 0xA0 SHL SUB DUP5 SLOAD AND PUSH1 0x40 MLOAD SWAP3 DUP4 DUP1 SWAP3 PUSH4 0x107E7A89 PUSH1 0xE3 SHL DUP3 MSTORE PUSH1 0x4 CALLDATALOAD PUSH1 0x4 DUP4 ADD MSTORE GAS STATICCALL DUP1 ISZERO PUSH2 0x7DE JUMPI DUP4 SWAP1 PUSH2 0x78C JUMPI JUMPDEST PUSH32 0xEEC147B56042117961ED3D136CD43A67947C39CE0CD9D2EDF9B0344FA954A4FF SWAP2 POP PUSH1 0x44 CALLDATALOAD ISZERO PUSH2 0x743 JUMPI PUSH1 0x40 MLOAD PUSH2 0x6E2 DUP2 PUSH2 0xBC0 JUMP JUMPDEST PUSH1 0x22 DUP2 MSTORE PUSH32 0x50726F66697461626C65207472616465202D20747275737420696E6372656173 PUSH1 0x20 DUP3 ADD MSTORE PUSH2 0x1959 PUSH1 0xF2 SHL PUSH1 0x40 DUP3 ADD MSTORE SWAP3 JUMPDEST PUSH1 0x40 MLOAD SWAP2 DUP3 MSTORE PUSH1 0x20 DUP3 ADD MSTORE PUSH1 0x60 PUSH1 0x40 DUP3 ADD MSTORE DUP1 PUSH2 0x73D PUSH1 0x4 CALLDATALOAD SWAP5 PUSH1 0x60 DUP4 ADD SWAP1 PUSH2 0xAE9 JUMP JUMPDEST SUB SWAP1 LOG2 DUP1 RETURN JUMPDEST PUSH1 0x40 MLOAD PUSH2 0x74F DUP2 PUSH2 0xBC0 JUMP JUMPDEST PUSH1 0x24 DUP2 MSTORE PUSH32 0x556E70726F66697461626C65207472616465202D207472757374206465637265 PUSH1 0x20 DUP3 ADD MSTORE PUSH4 0x185CD959 PUSH1 0xE2 SHL PUSH1 0x40 DUP3 ADD MSTORE SWAP3 PUSH2 0x719 JUMP JUMPDEST POP PUSH1 0x20 DUP2 RETURNDATASIZE PUSH1 0x20 GT PUSH2 0x7D6 JUMPI JUMPDEST DUP2 PUSH2 0x7A6 PUSH1 0x20 SWAP4 DUP4 PUSH2 0xBDC JUMP JUMPDEST DUP2 ADD SUB SLT PUSH2 0x12B JUMPI PUSH32 0xEEC147B56042117961ED3D136CD43A67947C39CE0CD9D2EDF9B0344FA954A4FF SWAP1 MLOAD PUSH2 0x6AB JUMP JUMPDEST RETURNDATASIZE SWAP2 POP PUSH2 0x799 JUMP JUMPDEST PUSH1 0x40 MLOAD RETURNDATASIZE DUP6 DUP3 RETURNDATACOPY RETURNDATASIZE SWAP1 REVERT JUMPDEST ADD MLOAD SWAP1 POP CODESIZE DUP1 PUSH2 0x62D JUMP JUMPDEST SWAP1 PUSH1 0x1 DUP6 ADD DUP8 MSTORE PUSH1 0x20 DUP8 KECCAK256 SWAP2 DUP8 JUMPDEST PUSH1 0x1F NOT DUP6 AND DUP2 LT PUSH2 0x84E JUMPI POP SWAP3 PUSH1 0x5 SWAP5 SWAP3 PUSH1 0x1 SWAP3 PUSH1 0xA0 SWAP6 DUP4 PUSH1 0x1F NOT DUP2 AND LT PUSH2 0x835 JUMPI JUMPDEST POP POP POP DUP2 SHL ADD PUSH1 0x1 DUP6 ADD SSTORE PUSH2 0x645 JUMP JUMPDEST ADD MLOAD PUSH1 0x0 NOT PUSH1 0xF8 DUP5 PUSH1 0x3 SHL AND SHR NOT AND SWAP1 SSTORE CODESIZE DUP1 DUP1 PUSH2 0x825 JUMP JUMPDEST SWAP2 SWAP3 PUSH1 0x20 PUSH1 0x1 DUP2 SWAP3 DUP7 DUP6 ADD MLOAD DUP2 SSTORE ADD SWAP5 ADD SWAP3 ADD PUSH2 0x802 JUMP JUMPDEST PUSH1 0x1 DUP6 ADD DUP8 MSTORE PUSH1 0x20 DUP8 KECCAK256 PUSH1 0x1F DUP5 ADD PUSH1 0x5 SHR DUP2 ADD PUSH1 0x20 DUP6 LT PUSH2 0x8A3 JUMPI JUMPDEST PUSH1 0x1F DUP4 ADD PUSH1 0x5 SHR DUP3 ADD DUP2 LT PUSH2 0x898 JUMPI POP POP PUSH2 0x60E JUMP JUMPDEST DUP9 DUP2 SSTORE PUSH1 0x1 ADD PUSH2 0x882 JUMP JUMPDEST POP DUP1 PUSH2 0x882 JUMP JUMPDEST PUSH4 0x4E487B71 PUSH1 0xE0 SHL DUP7 MSTORE PUSH1 0x41 PUSH1 0x4 MSTORE PUSH1 0x24 DUP7 REVERT JUMPDEST PUSH4 0x4E487B71 PUSH1 0xE0 SHL DUP6 MSTORE PUSH1 0x4 DUP6 SWAP1 MSTORE PUSH1 0x24 DUP6 REVERT JUMPDEST PUSH2 0x8DB SWAP1 PUSH2 0xB7A JUMP JUMPDEST PUSH2 0x8E6 JUMPI DUP4 CODESIZE PUSH2 0x53A JUMP JUMPDEST DUP4 DUP1 REVERT JUMPDEST PUSH1 0x40 MLOAD RETURNDATASIZE DUP5 DUP3 RETURNDATACOPY RETURNDATASIZE SWAP1 REVERT JUMPDEST PUSH2 0x901 SWAP1 SWAP5 SWAP2 SWAP5 PUSH2 0xB7A JUMP JUMPDEST SWAP3 CODESIZE PUSH2 0x4E9 JUMP JUMPDEST PUSH1 0x40 MLOAD RETURNDATASIZE DUP8 DUP3 RETURNDATACOPY RETURNDATASIZE SWAP1 REVERT JUMPDEST DUP5 DUP1 REVERT JUMPDEST SWAP4 POP CODESIZE PUSH2 0x491 JUMP JUMPDEST PUSH1 0x5 SWAP4 POP PUSH2 0x486 JUMP JUMPDEST SWAP3 PUSH1 0x1 DUP1 DUP3 ADD SLT DUP6 DUP3 SLT SWAP1 DUP1 ISZERO DUP3 AND SWAP2 ISZERO AND OR PUSH2 0x948 JUMPI PUSH1 0x1 ADD SWAP3 PUSH2 0x47D JUMP JUMPDEST PUSH4 0x4E487B71 PUSH1 0xE0 SHL DUP6 MSTORE PUSH1 0x11 PUSH1 0x4 MSTORE PUSH1 0x24 DUP6 REVERT JUMPDEST PUSH1 0x37 DUP2 LT PUSH2 0x96C JUMPI PUSH1 0x3 SWAP3 PUSH2 0x472 JUMP JUMPDEST PUSH1 0x1 SWAP3 PUSH2 0x472 JUMP JUMPDEST PUSH1 0x4B DUP2 LT PUSH2 0x985 JUMPI PUSH1 0x2 NOT SWAP3 PUSH2 0x47D JUMP JUMPDEST PUSH1 0x37 DUP2 LT PUSH2 0x996 JUMPI PUSH1 0x1 NOT SWAP3 PUSH2 0x47D JUMP JUMPDEST PUSH1 0x0 NOT SWAP3 PUSH2 0x47D JUMP JUMPDEST SWAP1 POP RETURNDATASIZE DUP1 DUP6 DUP4 RETURNDATACOPY PUSH2 0x9B0 DUP2 DUP4 PUSH2 0xBDC JUMP JUMPDEST PUSH2 0x100 DUP3 DUP3 DUP2 ADD SUB SLT PUSH2 0x913 JUMPI PUSH1 0x20 DUP3 ADD MLOAD PUSH8 0xFFFFFFFFFFFFFFFF DUP2 GT PUSH2 0xA2F JUMPI PUSH2 0x9E0 SWAP1 DUP3 DUP5 ADD SWAP1 DUP5 ADD PUSH2 0xCBF JUMP JUMPDEST POP PUSH1 0x40 DUP3 ADD MLOAD SWAP2 PUSH1 0x60 DUP2 ADD MLOAD SWAP1 PUSH8 0xFFFFFFFFFFFFFFFF DUP3 GT PUSH2 0xA2B JUMPI PUSH2 0xA10 PUSH1 0xC0 SWAP3 PUSH2 0xA24 SWAP5 DUP4 ADD SWAP1 DUP4 ADD PUSH2 0xCBF JUMP JUMPDEST POP PUSH2 0xA1D PUSH1 0xA0 DUP3 ADD PUSH2 0xD04 JUMP JUMPDEST POP ADD PUSH2 0xD04 JUMP JUMPDEST POP CODESIZE PUSH2 0x45D JUMP JUMPDEST DUP7 DUP1 REVERT JUMPDEST DUP6 DUP1 REVERT JUMPDEST PUSH1 0x40 MLOAD RETURNDATASIZE DUP7 DUP3 RETURNDATACOPY RETURNDATASIZE SWAP1 REVERT JUMPDEST PUSH1 0x40 MLOAD PUSH3 0x461BCD PUSH1 0xE5 SHL DUP2 MSTORE PUSH1 0x20 PUSH1 0x4 DUP3 ADD MSTORE PUSH1 0x1C PUSH1 0x24 DUP3 ADD MSTORE PUSH32 0x52657075746174696F6E4D616E616765723A206E6F74206F776E657200000000 PUSH1 0x44 DUP3 ADD MSTORE PUSH1 0x64 SWAP1 REVERT JUMPDEST POP CALLVALUE PUSH2 0xAC JUMPI DUP1 PUSH1 0x3 NOT CALLDATASIZE ADD SLT PUSH2 0xAC JUMPI SLOAD PUSH1 0x40 MLOAD PUSH1 0x1 PUSH1 0x1 PUSH1 0xA0 SHL SUB SWAP1 SWAP2 AND DUP2 MSTORE PUSH1 0x20 SWAP1 RETURN JUMPDEST SWAP1 POP CALLVALUE PUSH2 0x39D JUMPI DUP2 PUSH1 0x3 NOT CALLDATASIZE ADD SLT PUSH2 0x39D JUMPI PUSH1 0x2 NOT DUP2 MSTORE PUSH1 0x20 SWAP1 RETURN JUMPDEST PUSH1 0x0 JUMPDEST DUP4 DUP2 LT PUSH2 0xAD9 JUMPI POP POP PUSH1 0x0 SWAP2 ADD MSTORE JUMP JUMPDEST DUP2 DUP2 ADD MLOAD DUP4 DUP3 ADD MSTORE PUSH1 0x20 ADD PUSH2 0xAC9 JUMP JUMPDEST SWAP1 PUSH1 0x20 SWAP2 PUSH2 0xB02 DUP2 MLOAD DUP1 SWAP3 DUP2 DUP6 MSTORE DUP6 DUP1 DUP7 ADD SWAP2 ADD PUSH2 0xAC6 JUMP JUMPDEST PUSH1 0x1F ADD PUSH1 0x1F NOT AND ADD ADD SWAP1 JUMP JUMPDEST DUP1 SLOAD DUP3 LT ISZERO PUSH2 0xB2A JUMPI PUSH1 0x0 MSTORE PUSH1 0x6 PUSH1 0x20 PUSH1 0x0 KECCAK256 SWAP2 MUL ADD SWAP1 PUSH1 0x0 SWAP1 JUMP JUMPDEST PUSH4 0x4E487B71 PUSH1 0xE0 SHL PUSH1 0x0 MSTORE PUSH1 0x32 PUSH1 0x4 MSTORE PUSH1 0x24 PUSH1 0x0 REVERT JUMPDEST SWAP1 PUSH1 0x1 DUP3 DUP2 SHR SWAP3 AND DUP1 ISZERO PUSH2 0xB70 JUMPI JUMPDEST PUSH1 0x20 DUP4 LT EQ PUSH2 0xB5A JUMPI JUMP JUMPDEST PUSH4 0x4E487B71 PUSH1 0xE0 SHL PUSH1 0x0 MSTORE PUSH1 0x22 PUSH1 0x4 MSTORE PUSH1 0x24 PUSH1 0x0 REVERT JUMPDEST SWAP2 PUSH1 0x7F AND SWAP2 PUSH2 0xB4F JUMP JUMPDEST PUSH8 0xFFFFFFFFFFFFFFFF DUP2 GT PUSH2 0xB8E JUMPI PUSH1 0x40 MSTORE JUMP JUMPDEST PUSH4 0x4E487B71 PUSH1 0xE0 SHL PUSH1 0x0 MSTORE PUSH1 0x41 PUSH1 0x4 MSTORE PUSH1 0x24 PUSH1 0x0 REVERT JUMPDEST PUSH1 0xC0 DUP2 ADD SWAP1 DUP2 LT PUSH8 0xFFFFFFFFFFFFFFFF DUP3 GT OR PUSH2 0xB8E JUMPI PUSH1 0x40 MSTORE JUMP JUMPDEST PUSH1 0x60 DUP2 ADD SWAP1 DUP2 LT PUSH8 0xFFFFFFFFFFFFFFFF DUP3 GT OR PUSH2 0xB8E JUMPI PUSH1 0x40 MSTORE JUMP JUMPDEST SWAP1 PUSH1 0x1F DUP1 NOT SWAP2 ADD AND DUP2 ADD SWAP1 DUP2 LT PUSH8 0xFFFFFFFFFFFFFFFF DUP3 GT OR PUSH2 0xB8E JUMPI PUSH1 0x40 MSTORE JUMP JUMPDEST SWAP1 PUSH1 0x40 MLOAD SWAP2 DUP3 PUSH1 0x0 DUP3 SLOAD PUSH2 0xC11 DUP2 PUSH2 0xB40 JUMP JUMPDEST SWAP1 DUP2 DUP5 MSTORE PUSH1 0x20 SWAP5 PUSH1 0x1 SWAP2 PUSH1 0x1 DUP2 AND SWAP1 DUP2 PUSH1 0x0 EQ PUSH2 0xC81 JUMPI POP PUSH1 0x1 EQ PUSH2 0xC42 JUMPI JUMPDEST POP POP POP PUSH2 0xC40 SWAP3 POP SUB DUP4 PUSH2 0xBDC JUMP JUMPDEST JUMP JUMPDEST PUSH1 0x0 SWAP1 DUP2 MSTORE DUP6 DUP2 KECCAK256 SWAP6 SWAP4 POP SWAP2 SWAP1 JUMPDEST DUP2 DUP4 LT PUSH2 0xC69 JUMPI POP POP PUSH2 0xC40 SWAP4 POP DUP3 ADD ADD CODESIZE DUP1 DUP1 PUSH2 0xC31 JUMP JUMPDEST DUP6 SLOAD DUP9 DUP5 ADD DUP6 ADD MSTORE SWAP5 DUP6 ADD SWAP5 DUP8 SWAP5 POP SWAP2 DUP4 ADD SWAP2 PUSH2 0xC50 JUMP JUMPDEST SWAP3 POP POP POP PUSH2 0xC40 SWAP5 SWAP3 POP PUSH1 0xFF NOT AND DUP3 DUP5 ADD MSTORE ISZERO ISZERO PUSH1 0x5 SHL DUP3 ADD ADD CODESIZE DUP1 DUP1 PUSH2 0xC31 JUMP JUMPDEST PUSH8 0xFFFFFFFFFFFFFFFF DUP2 GT PUSH2 0xB8E JUMPI PUSH1 0x1F ADD PUSH1 0x1F NOT AND PUSH1 0x20 ADD SWAP1 JUMP JUMPDEST DUP2 PUSH1 0x1F DUP3 ADD SLT ISZERO PUSH2 0x12B JUMPI DUP1 MLOAD PUSH2 0xCD5 DUP2 PUSH2 0xCA3 JUMP JUMPDEST SWAP3 PUSH2 0xCE3 PUSH1 0x40 MLOAD SWAP5 DUP6 PUSH2 0xBDC JUMP JUMPDEST DUP2 DUP5 MSTORE PUSH1 0x20 DUP3 DUP5 ADD ADD GT PUSH2 0x12B JUMPI PUSH2 0xD01 SWAP2 PUSH1 0x20 DUP1 DUP6 ADD SWAP2 ADD PUSH2 0xAC6 JUMP JUMPDEST SWAP1 JUMP JUMPDEST MLOAD SWAP1 DUP2 ISZERO ISZERO DUP3 SUB PUSH2 0x12B JUMPI JUMP JUMPDEST SWAP1 DUP1 PUSH1 0x20 SWAP4 SWAP3 DUP2 DUP5 MSTORE DUP5 DUP5 ADD CALLDATACOPY PUSH1 0x0 DUP3 DUP3 ADD DUP5 ADD MSTORE PUSH1 0x1F ADD PUSH1 0x1F NOT AND ADD ADD SWAP1 JUMP INVALID LOG2 PUSH5 0x6970667358 0x22 SLT KECCAK256 SWAP13 0x2E RETURN TIMESTAMP 0xC7 PUSH24 0xDD4D7B6F667D71F4F82EFF2745F6CCF2C988B58B61CC04E5 0xE4 EXP PUSH5 0x736F6C6343 STOP ADDMOD XOR STOP CALLER "},"methodIdentifiers":{"MAX_NEGATIVE_DELTA()":"0b793e05","MAX_POSITIVE_DELTA()":"4f005e90","agentHistory(uint256,uint256)":"4ae11925","agentRegistry()":"0d1cfcae","getAgentHistory(uint256)":"3ba14907","getTrustScore(uint256)":"83f3d448","owner()":"8da5cb5b","updateReputation(uint256,string,bool,int256)":"107091e5","validationRegistry()":"4c6b993a"}}}}}