{"contracts/ValidationRegistry.sol":{"ValidationRegistry":{"abi":[{"inputs":[],"stateMutability":"nonpayable","type":"constructor"},{"anonymous":false,"inputs":[{"indexed":true,"internalType":"string","name":"tradeId","type":"string"},{"indexed":false,"internalType":"bool","name":"profitable","type":"bool"},{"indexed":false,"internalType":"int256","name":"pnlBps","type":"int256"}],"name":"OutcomeRecorded","type":"event"},{"anonymous":false,"inputs":[{"indexed":true,"internalType":"uint256","name":"agentId","type":"uint256"},{"indexed":true,"internalType":"string","name":"tradeId","type":"string"},{"indexed":false,"internalType":"uint256","name":"confidence","type":"uint256"},{"indexed":false,"internalType":"string","name":"riskCheck","type":"string"},{"indexed":false,"internalType":"uint256","name":"timestamp","type":"uint256"}],"name":"ValidationStored","type":"event"},{"inputs":[],"name":"authorizedCaller","outputs":[{"internalType":"address","name":"","type":"address"}],"stateMutability":"view","type":"function"},{"inputs":[{"internalType":"uint256","name":"agentId","type":"uint256"}],"name":"getAgentTradeCount","outputs":[{"internalType":"uint256","name":"","type":"uint256"}],"stateMutability":"view","type":"function"},{"inputs":[{"internalType":"uint256","name":"agentId","type":"uint256"}],"name":"getAgentTradeIds","outputs":[{"internalType":"string[]","name":"","type":"string[]"}],"stateMutability":"view","type":"function"},{"inputs":[{"internalType":"string","name":"tradeId","type":"string"}],"name":"getValidation","outputs":[{"internalType":"uint256","name":"agentId","type":"uint256"},{"internalType":"string","name":"reason","type":"string"},{"internalType":"uint256","name":"confidence","type":"uint256"},{"internalType":"string","name":"riskCheck","type":"string"},{"internalType":"uint256","name":"timestamp","type":"uint256"},{"internalType":"bool","name":"outcomeRecorded","type":"bool"},{"internalType":"bool","name":"profitable","type":"bool"},{"internalType":"int256","name":"pnlBps","type":"int256"}],"stateMutability":"view","type":"function"},{"inputs":[],"name":"owner","outputs":[{"internalType":"address","name":"","type":"address"}],"stateMutability":"view","type":"function"},{"inputs":[{"internalType":"string","name":"tradeId","type":"string"},{"internalType":"bool","name":"profitable","type":"bool"},{"internalType":"int256","name":"pnlBps","type":"int256"}],"name":"recordOutcome","outputs":[],"stateMutability":"nonpayable","type":"function"},{"inputs":[{"internalType":"address","name":"caller","type":"address"}],"name":"setAuthorizedCaller","outputs":[],"stateMutability":"nonpayable","type":"function"},{"inputs":[{"internalType":"uint256","name":"agentId","type":"uint256"},{"internalType":"string","name":"tradeId","type":"string"},{"internalType":"string","name":"reason","type":"string"},{"internalType":"uint256","name":"confidence","type":"uint256"},{"internalType":"string","name":"riskCheck","type":"string"}],"name":"storeValidation","outputs":[],"stateMutability":"nonpayable","type":"function"},{"inputs":[],"name":"totalValidations","outputs":[{"internalType":"uint256","name":"","type":"uint256"}],"stateMutability":"view","type":"function"}],"evm":{"bytecode":{"linkReferences":{},"object":"608080604052346100325760018060a01b03193381600354161760035533906004541617600455610f7190816100388239f35b600080fdfe608080604052600436101561001357600080fd5b60003560e01c90816326b94b2c14610b89575080633144f0fa146109d1578063528633ce146109a55780635fb3c2c2146108b85780637bad89501461018a5780637e83514b1461016c5780638da5cb5b1461014357806397dc97cb1461011a5763cf8fbec91461008257600080fd5b34610115576020366003190112610115576004356001600160a01b0381811691829003610115576003541633036100d0576bffffffffffffffffffffffff60a01b6004541617600455600080f35b60405162461bcd60e51b815260206004820152601d60248201527f56616c69646174696f6e52656769737472793a206e6f74206f776e65720000006044820152606490fd5b600080fd5b34610115576000366003190112610115576004546040516001600160a01b039091168152602090f35b34610115576000366003190112610115576003546040516001600160a01b039091168152602090f35b34610115576000366003190112610115576020600254604051908152f35b346101155760a0366003190112610115576024356001600160401b038111610115576101ba903690600401610c53565b6044356001600160401b038111610115576101d9903690600401610c53565b9290916084356001600160401b038111610115576101fb903690600401610c53565b93909461021d60018060a01b03806003541633149081156108aa575b50610dc0565b82156108595761024460016040518587823760208187810160008152030190200154610cc0565b6108015760648035116107ad5761025a91610eb3565b604051806101208101106001600160401b0361012083011117610611576101208101604052600435815261028f368486610e17565b9160208201928352604082015260643560608201526102af368688610e17565b60808201524260a0820152600060c0820152600060e082015260006101008201526040518385823760208185810160008152030190209181518355518051906001600160401b038211610611576103168261030d6001870154610cc0565b60018701610e5d565b602090601f831160011461073b576103479291600091836106be575b50508160011b916000199060031b1c19161790565b60018301555b60408101518051906001600160401b0382116106115761037d826103746002870154610cc0565b60028701610e5d565b602090601f83116001146106c9576103ad9291600091836106be5750508160011b916000199060031b1c19161790565b60028301555b6060810151600383015560808101518051906001600160401b038211610611576103ed826103e46004870154610cc0565b60048701610e5d565b602090601f8311600114610648578261010093600795936104249360009261063d5750508160011b916000199060031b1c19161790565b60048501555b60a0810151600585015561046c6006850160c0830151151560ff8019835416911617815560e0830151151561ff00825491151560081b169061ff001916179055565b015191015560043560005260016020526040600020805490680100000000000000008210156106115760018201808255821015610627576000526020600020016001600160401b038211610611576104ce826104c88354610cc0565b83610e5d565b600082601f81116001146105aa57806104fd9260009161059f575b508160011b916000199060031b1c19161790565b90555b6002549160001983146105895760017f61b3a0f47091b7ba3eda3cd3e4b202a6c9408706f33fa95d2235a661085d3d349301600255816040519283928337810160008152039020928260405191606435835260606020840152816060840152608083013760006080848301015242604082015260808160043594601f80199101168101030190a3005b634e487b7160e01b600052601160045260246000fd5b9050850135886104e9565b50601f19831690826000528360206000209260005b8181106105f65750106105dc575b5050600182811b019055610500565b840135600019600385901b60f8161c1916905585806105cd565b878401358555600190940193602093840193879350016105bf565b634e487b7160e01b600052604160045260246000fd5b634e487b7160e01b600052603260045260246000fd5b015190508b80610332565b906004850160005260206000209160005b601f19851681106106a6575092600794926001926101009583601f1981161061068d575b505050811b01600485015561042a565b015160001960f88460031b161c191690558a808061067d565b91926020600181928685015181550194019201610659565b015190508980610332565b9190600285016000526020600020906000935b601f1984168510610720576001945083601f19811610610707575b505050811b0160028301556103b3565b015160001960f88460031b161c191690558880806106f7565b818101518355602094850194600190930192909101906106dc565b9190600185016000526020600020906000935b601f1984168510610792576001945083601f19811610610779575b505050811b01600183015561034d565b015160001960f88460031b161c19169055888080610769565b8181015183556020948501946001909301929091019061074e565b60405162461bcd60e51b815260206004820152602660248201527f56616c69646174696f6e52656769737472793a20696e76616c696420636f6e666044820152656964656e636560d01b6064820152608490fd5b60405162461bcd60e51b815260206004820152602a60248201527f56616c69646174696f6e52656769737472793a207472616465496420616c726560448201526918591e481cdd1bdc995960b21b6064820152608490fd5b60405162461bcd60e51b8152602060048201526024808201527f56616c69646174696f6e52656769737472793a207472616465496420726571756044820152631a5c995960e21b6064820152608490fd5b905060045416331488610217565b34610115576020806003193601126101155760043560005260019060018152604060002080546001600160401b03811161061157838360405192610901828260051b0185610cfa565b8084528184018095600052826000206000915b83831061097c5750505050604051928184019082855251809152604084019160408260051b86010195926000905b83821061094f5786880387f35b9091929394838061096b839a603f198b82030186528951610c80565b999701959493919091019101610942565b90858086819a989594610991859b999b610d1b565b815201920192019250969496959395610914565b346101155760203660031901126101155760043560005260016020526020604060002054604051908152f35b34610115576060366003190112610115576004356001600160401b03811161011557610a01903690600401610c53565b90602435801515808203610115576003546044359490610a3590336001600160a01b0391821614908115610b7b5750610dc0565b60405181858237602081838101600081520301902093610a586001860154610cc0565b15610b2a57600685019384549460ff8616610ad05761ffff1990951690151560081b61ff0016176001179093557fd279284839694ebc5159956471cca902db2d8f1bd10a43ffa5a1df84c63b1037936040939086906007015581845192839283378101600081520390209382519182526020820152a2005b60405162461bcd60e51b815260206004820152602c60248201527f56616c69646174696f6e52656769737472793a206f7574636f6d6520616c726560448201526b18591e481c9958dbdc99195960a21b6064820152608490fd5b60405162461bcd60e51b815260206004820152602360248201527f56616c69646174696f6e52656769737472793a207472616465206e6f7420666f6044820152621d5b9960ea1b6064820152608490fd5b905060045416331487610217565b34610115576020366003190112610115576004356001600160401b0381116101155781610bbc6020923690600401610c53565b80918337810160008152030190208054600382015460058301549060ff6006850154610c2f600787015493610bff6004610bf860028b01610d1b565b9901610d1b565b610c1c604051998a99610100908b528060208c01528a0190610c80565b9160408901528782036060890152610c80565b936080860152818116151560a086015260081c16151560c084015260e08301520390f35b9181601f84011215610115578235916001600160401b038311610115576020838186019501011161011557565b919082519283825260005b848110610cac575050826000602080949584010152601f8019910116010190565b602081830181015184830182015201610c8b565b90600182811c92168015610cf0575b6020831014610cda57565b634e487b7160e01b600052602260045260246000fd5b91607f1691610ccf565b90601f801991011681019081106001600160401b0382111761061157604052565b90604051918260008254610d2e81610cc0565b90818452602094600191600181169081600014610d9e5750600114610d5f575b505050610d5d92500383610cfa565b565b600090815285812095935091905b818310610d86575050610d5d9350820101388080610d4e565b85548884018501529485019487945091830191610d6d565b92505050610d5d94925060ff191682840152151560051b820101388080610d4e565b15610dc757565b60405162461bcd60e51b815260206004820152602260248201527f56616c69646174696f6e52656769737472793a206e6f7420617574686f72697a604482015261195960f21b6064820152608490fd5b9291926001600160401b0382116106115760405191610e40601f8201601f191660200184610cfa565b829481845281830111610115578281602093846000960137010152565b90601f8111610e6b57505050565b6000916000526020600020906020601f850160051c83019410610ea9575b601f0160051c01915b828110610e9e57505050565b818155600101610e92565b9092508290610e89565b61010080831115610f2c576040519261012084018481106001600160401b03821117610611576040528184526020908236602087013760005b838110610efb57505050505090565b8181101561062757855181101561062757600190858101356001600160f81b03191660001a87820185015301610eec565b50610f38913691610e17565b9056fea2646970667358221220ce77ba02e70590660bd403bb195006401b3caaeb8e476dafa8ffc089aaa3221964736f6c63430008180033","opcodes":"PUSH1 0x80 DUP1 PUSH1 0x40 MSTORE CALLVALUE PUSH2 0x32 JUMPI PUSH1 0x1 DUP1 PUSH1 0xA0 SHL SUB NOT CALLER DUP2 PUSH1 0x3 SLOAD AND OR PUSH1 0x3 SSTORE CALLER SWAP1 PUSH1 0x4 SLOAD AND OR PUSH1 0x4 SSTORE PUSH2 0xF71 SWAP1 DUP2 PUSH2 0x38 DUP3 CODECOPY RETURN JUMPDEST PUSH1 0x0 DUP1 REVERT INVALID PUSH1 0x80 DUP1 PUSH1 0x40 MSTORE PUSH1 0x4 CALLDATASIZE LT ISZERO PUSH2 0x13 JUMPI PUSH1 0x0 DUP1 REVERT JUMPDEST PUSH1 0x0 CALLDATALOAD PUSH1 0xE0 SHR SWAP1 DUP2 PUSH4 0x26B94B2C EQ PUSH2 0xB89 JUMPI POP DUP1 PUSH4 0x3144F0FA EQ PUSH2 0x9D1 JUMPI DUP1 PUSH4 0x528633CE EQ PUSH2 0x9A5 JUMPI DUP1 PUSH4 0x5FB3C2C2 EQ PUSH2 0x8B8 JUMPI DUP1 PUSH4 0x7BAD8950 EQ PUSH2 0x18A JUMPI DUP1 PUSH4 0x7E83514B EQ PUSH2 0x16C JUMPI DUP1 PUSH4 0x8DA5CB5B EQ PUSH2 0x143 JUMPI DUP1 PUSH4 0x97DC97CB EQ PUSH2 0x11A JUMPI PUSH4 0xCF8FBEC9 EQ PUSH2 0x82 JUMPI PUSH1 0x0 DUP1 REVERT JUMPDEST CALLVALUE PUSH2 0x115 JUMPI PUSH1 0x20 CALLDATASIZE PUSH1 0x3 NOT ADD SLT PUSH2 0x115 JUMPI PUSH1 0x4 CALLDATALOAD PUSH1 0x1 PUSH1 0x1 PUSH1 0xA0 SHL SUB DUP2 DUP2 AND SWAP2 DUP3 SWAP1 SUB PUSH2 0x115 JUMPI PUSH1 0x3 SLOAD AND CALLER SUB PUSH2 0xD0 JUMPI PUSH12 0xFFFFFFFFFFFFFFFFFFFFFFFF PUSH1 0xA0 SHL PUSH1 0x4 SLOAD AND OR PUSH1 0x4 SSTORE PUSH1 0x0 DUP1 RETURN JUMPDEST PUSH1 0x40 MLOAD PUSH3 0x461BCD PUSH1 0xE5 SHL DUP2 MSTORE PUSH1 0x20 PUSH1 0x4 DUP3 ADD MSTORE PUSH1 0x1D PUSH1 0x24 DUP3 ADD MSTORE PUSH32 0x56616C69646174696F6E52656769737472793A206E6F74206F776E6572000000 PUSH1 0x44 DUP3 ADD MSTORE PUSH1 0x64 SWAP1 REVERT JUMPDEST PUSH1 0x0 DUP1 REVERT JUMPDEST CALLVALUE PUSH2 0x115 JUMPI PUSH1 0x0 CALLDATASIZE PUSH1 0x3 NOT ADD SLT PUSH2 0x115 JUMPI PUSH1 0x4 SLOAD PUSH1 0x40 MLOAD PUSH1 0x1 PUSH1 0x1 PUSH1 0xA0 SHL SUB SWAP1 SWAP2 AND DUP2 MSTORE PUSH1 0x20 SWAP1 RETURN JUMPDEST CALLVALUE PUSH2 0x115 JUMPI PUSH1 0x0 CALLDATASIZE PUSH1 0x3 NOT ADD SLT PUSH2 0x115 JUMPI PUSH1 0x3 SLOAD PUSH1 0x40 MLOAD PUSH1 0x1 PUSH1 0x1 PUSH1 0xA0 SHL SUB SWAP1 SWAP2 AND DUP2 MSTORE PUSH1 0x20 SWAP1 RETURN JUMPDEST CALLVALUE PUSH2 0x115 JUMPI PUSH1 0x0 CALLDATASIZE PUSH1 0x3 NOT ADD SLT PUSH2 0x115 JUMPI PUSH1 0x20 PUSH1 0x2 SLOAD PUSH1 0x40 MLOAD SWAP1 DUP2 MSTORE RETURN JUMPDEST CALLVALUE PUSH2 0x115 JUMPI PUSH1 0xA0 CALLDATASIZE PUSH1 0x3 NOT ADD SLT PUSH2 0x115 JUMPI PUSH1 0x24 CALLDATALOAD PUSH1 0x1 PUSH1 0x1 PUSH1 0x40 SHL SUB DUP2 GT PUSH2 0x115 JUMPI PUSH2 0x1BA SWAP1 CALLDATASIZE SWAP1 PUSH1 0x4 ADD PUSH2 0xC53 JUMP JUMPDEST PUSH1 0x44 CALLDATALOAD PUSH1 0x1 PUSH1 0x1 PUSH1 0x40 SHL SUB DUP2 GT PUSH2 0x115 JUMPI PUSH2 0x1D9 SWAP1 CALLDATASIZE SWAP1 PUSH1 0x4 ADD PUSH2 0xC53 JUMP JUMPDEST SWAP3 SWAP1 SWAP2 PUSH1 0x84 CALLDATALOAD PUSH1 0x1 PUSH1 0x1 PUSH1 0x40 SHL SUB DUP2 GT PUSH2 0x115 JUMPI PUSH2 0x1FB SWAP1 CALLDATASIZE SWAP1 PUSH1 0x4 ADD PUSH2 0xC53 JUMP JUMPDEST SWAP4 SWAP1 SWAP5 PUSH2 0x21D PUSH1 0x1 DUP1 PUSH1 0xA0 SHL SUB DUP1 PUSH1 0x3 SLOAD AND CALLER EQ SWAP1 DUP2 ISZERO PUSH2 0x8AA JUMPI JUMPDEST POP PUSH2 0xDC0 JUMP JUMPDEST DUP3 ISZERO PUSH2 0x859 JUMPI PUSH2 0x244 PUSH1 0x1 PUSH1 0x40 MLOAD DUP6 DUP8 DUP3 CALLDATACOPY PUSH1 0x20 DUP2 DUP8 DUP2 ADD PUSH1 0x0 DUP2 MSTORE SUB ADD SWAP1 KECCAK256 ADD SLOAD PUSH2 0xCC0 JUMP JUMPDEST PUSH2 0x801 JUMPI PUSH1 0x64 DUP1 CALLDATALOAD GT PUSH2 0x7AD JUMPI PUSH2 0x25A SWAP2 PUSH2 0xEB3 JUMP JUMPDEST PUSH1 0x40 MLOAD DUP1 PUSH2 0x120 DUP2 ADD LT PUSH1 0x1 PUSH1 0x1 PUSH1 0x40 SHL SUB PUSH2 0x120 DUP4 ADD GT OR PUSH2 0x611 JUMPI PUSH2 0x120 DUP2 ADD PUSH1 0x40 MSTORE PUSH1 0x4 CALLDATALOAD DUP2 MSTORE PUSH2 0x28F CALLDATASIZE DUP5 DUP7 PUSH2 0xE17 JUMP JUMPDEST SWAP2 PUSH1 0x20 DUP3 ADD SWAP3 DUP4 MSTORE PUSH1 0x40 DUP3 ADD MSTORE PUSH1 0x64 CALLDATALOAD PUSH1 0x60 DUP3 ADD MSTORE PUSH2 0x2AF CALLDATASIZE DUP7 DUP9 PUSH2 0xE17 JUMP JUMPDEST PUSH1 0x80 DUP3 ADD MSTORE TIMESTAMP PUSH1 0xA0 DUP3 ADD MSTORE PUSH1 0x0 PUSH1 0xC0 DUP3 ADD MSTORE PUSH1 0x0 PUSH1 0xE0 DUP3 ADD MSTORE PUSH1 0x0 PUSH2 0x100 DUP3 ADD MSTORE PUSH1 0x40 MLOAD DUP4 DUP6 DUP3 CALLDATACOPY PUSH1 0x20 DUP2 DUP6 DUP2 ADD PUSH1 0x0 DUP2 MSTORE SUB ADD SWAP1 KECCAK256 SWAP2 DUP2 MLOAD DUP4 SSTORE MLOAD DUP1 MLOAD SWAP1 PUSH1 0x1 PUSH1 0x1 PUSH1 0x40 SHL SUB DUP3 GT PUSH2 0x611 JUMPI PUSH2 0x316 DUP3 PUSH2 0x30D PUSH1 0x1 DUP8 ADD SLOAD PUSH2 0xCC0 JUMP JUMPDEST PUSH1 0x1 DUP8 ADD PUSH2 0xE5D JUMP JUMPDEST PUSH1 0x20 SWAP1 PUSH1 0x1F DUP4 GT PUSH1 0x1 EQ PUSH2 0x73B JUMPI PUSH2 0x347 SWAP3 SWAP2 PUSH1 0x0 SWAP2 DUP4 PUSH2 0x6BE JUMPI JUMPDEST POP POP DUP2 PUSH1 0x1 SHL SWAP2 PUSH1 0x0 NOT SWAP1 PUSH1 0x3 SHL SHR NOT AND OR SWAP1 JUMP JUMPDEST PUSH1 0x1 DUP4 ADD SSTORE JUMPDEST PUSH1 0x40 DUP2 ADD MLOAD DUP1 MLOAD SWAP1 PUSH1 0x1 PUSH1 0x1 PUSH1 0x40 SHL SUB DUP3 GT PUSH2 0x611 JUMPI PUSH2 0x37D DUP3 PUSH2 0x374 PUSH1 0x2 DUP8 ADD SLOAD PUSH2 0xCC0 JUMP JUMPDEST PUSH1 0x2 DUP8 ADD PUSH2 0xE5D JUMP JUMPDEST PUSH1 0x20 SWAP1 PUSH1 0x1F DUP4 GT PUSH1 0x1 EQ PUSH2 0x6C9 JUMPI PUSH2 0x3AD SWAP3 SWAP2 PUSH1 0x0 SWAP2 DUP4 PUSH2 0x6BE JUMPI POP POP DUP2 PUSH1 0x1 SHL SWAP2 PUSH1 0x0 NOT SWAP1 PUSH1 0x3 SHL SHR NOT AND OR SWAP1 JUMP JUMPDEST PUSH1 0x2 DUP4 ADD SSTORE JUMPDEST PUSH1 0x60 DUP2 ADD MLOAD PUSH1 0x3 DUP4 ADD SSTORE PUSH1 0x80 DUP2 ADD MLOAD DUP1 MLOAD SWAP1 PUSH1 0x1 PUSH1 0x1 PUSH1 0x40 SHL SUB DUP3 GT PUSH2 0x611 JUMPI PUSH2 0x3ED DUP3 PUSH2 0x3E4 PUSH1 0x4 DUP8 ADD SLOAD PUSH2 0xCC0 JUMP JUMPDEST PUSH1 0x4 DUP8 ADD PUSH2 0xE5D JUMP JUMPDEST PUSH1 0x20 SWAP1 PUSH1 0x1F DUP4 GT PUSH1 0x1 EQ PUSH2 0x648 JUMPI DUP3 PUSH2 0x100 SWAP4 PUSH1 0x7 SWAP6 SWAP4 PUSH2 0x424 SWAP4 PUSH1 0x0 SWAP3 PUSH2 0x63D JUMPI POP POP DUP2 PUSH1 0x1 SHL SWAP2 PUSH1 0x0 NOT SWAP1 PUSH1 0x3 SHL SHR NOT AND OR SWAP1 JUMP JUMPDEST PUSH1 0x4 DUP6 ADD SSTORE JUMPDEST PUSH1 0xA0 DUP2 ADD MLOAD PUSH1 0x5 DUP6 ADD SSTORE PUSH2 0x46C PUSH1 0x6 DUP6 ADD PUSH1 0xC0 DUP4 ADD MLOAD ISZERO ISZERO PUSH1 0xFF DUP1 NOT DUP4 SLOAD AND SWAP2 AND OR DUP2 SSTORE PUSH1 0xE0 DUP4 ADD MLOAD ISZERO ISZERO PUSH2 0xFF00 DUP3 SLOAD SWAP2 ISZERO ISZERO PUSH1 0x8 SHL AND SWAP1 PUSH2 0xFF00 NOT AND OR SWAP1 SSTORE JUMP JUMPDEST ADD MLOAD SWAP2 ADD SSTORE PUSH1 0x4 CALLDATALOAD PUSH1 0x0 MSTORE PUSH1 0x1 PUSH1 0x20 MSTORE PUSH1 0x40 PUSH1 0x0 KECCAK256 DUP1 SLOAD SWAP1 PUSH9 0x10000000000000000 DUP3 LT ISZERO PUSH2 0x611 JUMPI PUSH1 0x1 DUP3 ADD DUP1 DUP3 SSTORE DUP3 LT ISZERO PUSH2 0x627 JUMPI PUSH1 0x0 MSTORE PUSH1 0x20 PUSH1 0x0 KECCAK256 ADD PUSH1 0x1 PUSH1 0x1 PUSH1 0x40 SHL SUB DUP3 GT PUSH2 0x611 JUMPI PUSH2 0x4CE DUP3 PUSH2 0x4C8 DUP4 SLOAD PUSH2 0xCC0 JUMP JUMPDEST DUP4 PUSH2 0xE5D JUMP JUMPDEST PUSH1 0x0 DUP3 PUSH1 0x1F DUP2 GT PUSH1 0x1 EQ PUSH2 0x5AA JUMPI DUP1 PUSH2 0x4FD SWAP3 PUSH1 0x0 SWAP2 PUSH2 0x59F JUMPI JUMPDEST POP DUP2 PUSH1 0x1 SHL SWAP2 PUSH1 0x0 NOT SWAP1 PUSH1 0x3 SHL SHR NOT AND OR SWAP1 JUMP JUMPDEST SWAP1 SSTORE JUMPDEST PUSH1 0x2 SLOAD SWAP2 PUSH1 0x0 NOT DUP4 EQ PUSH2 0x589 JUMPI PUSH1 0x1 PUSH32 0x61B3A0F47091B7BA3EDA3CD3E4B202A6C9408706F33FA95D2235A661085D3D34 SWAP4 ADD PUSH1 0x2 SSTORE DUP2 PUSH1 0x40 MLOAD SWAP3 DUP4 SWAP3 DUP4 CALLDATACOPY DUP2 ADD PUSH1 0x0 DUP2 MSTORE SUB SWAP1 KECCAK256 SWAP3 DUP3 PUSH1 0x40 MLOAD SWAP2 PUSH1 0x64 CALLDATALOAD DUP4 MSTORE PUSH1 0x60 PUSH1 0x20 DUP5 ADD MSTORE DUP2 PUSH1 0x60 DUP5 ADD MSTORE PUSH1 0x80 DUP4 ADD CALLDATACOPY PUSH1 0x0 PUSH1 0x80 DUP5 DUP4 ADD ADD MSTORE TIMESTAMP PUSH1 0x40 DUP3 ADD MSTORE PUSH1 0x80 DUP2 PUSH1 0x4 CALLDATALOAD SWAP5 PUSH1 0x1F DUP1 NOT SWAP2 ADD AND DUP2 ADD SUB ADD SWAP1 LOG3 STOP JUMPDEST PUSH4 0x4E487B71 PUSH1 0xE0 SHL PUSH1 0x0 MSTORE PUSH1 0x11 PUSH1 0x4 MSTORE PUSH1 0x24 PUSH1 0x0 REVERT JUMPDEST SWAP1 POP DUP6 ADD CALLDATALOAD DUP9 PUSH2 0x4E9 JUMP JUMPDEST POP PUSH1 0x1F NOT DUP4 AND SWAP1 DUP3 PUSH1 0x0 MSTORE DUP4 PUSH1 0x20 PUSH1 0x0 KECCAK256 SWAP3 PUSH1 0x0 JUMPDEST DUP2 DUP2 LT PUSH2 0x5F6 JUMPI POP LT PUSH2 0x5DC JUMPI JUMPDEST POP POP PUSH1 0x1 DUP3 DUP2 SHL ADD SWAP1 SSTORE PUSH2 0x500 JUMP JUMPDEST DUP5 ADD CALLDATALOAD PUSH1 0x0 NOT PUSH1 0x3 DUP6 SWAP1 SHL PUSH1 0xF8 AND SHR NOT AND SWAP1 SSTORE DUP6 DUP1 PUSH2 0x5CD JUMP JUMPDEST DUP8 DUP5 ADD CALLDATALOAD DUP6 SSTORE PUSH1 0x1 SWAP1 SWAP5 ADD SWAP4 PUSH1 0x20 SWAP4 DUP5 ADD SWAP4 DUP8 SWAP4 POP ADD PUSH2 0x5BF JUMP JUMPDEST PUSH4 0x4E487B71 PUSH1 0xE0 SHL PUSH1 0x0 MSTORE PUSH1 0x41 PUSH1 0x4 MSTORE PUSH1 0x24 PUSH1 0x0 REVERT JUMPDEST PUSH4 0x4E487B71 PUSH1 0xE0 SHL PUSH1 0x0 MSTORE PUSH1 0x32 PUSH1 0x4 MSTORE PUSH1 0x24 PUSH1 0x0 REVERT JUMPDEST ADD MLOAD SWAP1 POP DUP12 DUP1 PUSH2 0x332 JUMP JUMPDEST SWAP1 PUSH1 0x4 DUP6 ADD PUSH1 0x0 MSTORE PUSH1 0x20 PUSH1 0x0 KECCAK256 SWAP2 PUSH1 0x0 JUMPDEST PUSH1 0x1F NOT DUP6 AND DUP2 LT PUSH2 0x6A6 JUMPI POP SWAP3 PUSH1 0x7 SWAP5 SWAP3 PUSH1 0x1 SWAP3 PUSH2 0x100 SWAP6 DUP4 PUSH1 0x1F NOT DUP2 AND LT PUSH2 0x68D JUMPI JUMPDEST POP POP POP DUP2 SHL ADD PUSH1 0x4 DUP6 ADD SSTORE PUSH2 0x42A JUMP JUMPDEST ADD MLOAD PUSH1 0x0 NOT PUSH1 0xF8 DUP5 PUSH1 0x3 SHL AND SHR NOT AND SWAP1 SSTORE DUP11 DUP1 DUP1 PUSH2 0x67D JUMP JUMPDEST SWAP2 SWAP3 PUSH1 0x20 PUSH1 0x1 DUP2 SWAP3 DUP7 DUP6 ADD MLOAD DUP2 SSTORE ADD SWAP5 ADD SWAP3 ADD PUSH2 0x659 JUMP JUMPDEST ADD MLOAD SWAP1 POP DUP10 DUP1 PUSH2 0x332 JUMP JUMPDEST SWAP2 SWAP1 PUSH1 0x2 DUP6 ADD PUSH1 0x0 MSTORE PUSH1 0x20 PUSH1 0x0 KECCAK256 SWAP1 PUSH1 0x0 SWAP4 JUMPDEST PUSH1 0x1F NOT DUP5 AND DUP6 LT PUSH2 0x720 JUMPI PUSH1 0x1 SWAP5 POP DUP4 PUSH1 0x1F NOT DUP2 AND LT PUSH2 0x707 JUMPI JUMPDEST POP POP POP DUP2 SHL ADD PUSH1 0x2 DUP4 ADD SSTORE PUSH2 0x3B3 JUMP JUMPDEST ADD MLOAD PUSH1 0x0 NOT PUSH1 0xF8 DUP5 PUSH1 0x3 SHL AND SHR NOT AND SWAP1 SSTORE DUP9 DUP1 DUP1 PUSH2 0x6F7 JUMP JUMPDEST DUP2 DUP2 ADD MLOAD DUP4 SSTORE PUSH1 0x20 SWAP5 DUP6 ADD SWAP5 PUSH1 0x1 SWAP1 SWAP4 ADD SWAP3 SWAP1 SWAP2 ADD SWAP1 PUSH2 0x6DC JUMP JUMPDEST SWAP2 SWAP1 PUSH1 0x1 DUP6 ADD PUSH1 0x0 MSTORE PUSH1 0x20 PUSH1 0x0 KECCAK256 SWAP1 PUSH1 0x0 SWAP4 JUMPDEST PUSH1 0x1F NOT DUP5 AND DUP6 LT PUSH2 0x792 JUMPI PUSH1 0x1 SWAP5 POP DUP4 PUSH1 0x1F NOT DUP2 AND LT PUSH2 0x779 JUMPI JUMPDEST POP POP POP DUP2 SHL ADD PUSH1 0x1 DUP4 ADD SSTORE PUSH2 0x34D JUMP JUMPDEST ADD MLOAD PUSH1 0x0 NOT PUSH1 0xF8 DUP5 PUSH1 0x3 SHL AND SHR NOT AND SWAP1 SSTORE DUP9 DUP1 DUP1 PUSH2 0x769 JUMP JUMPDEST DUP2 DUP2 ADD MLOAD DUP4 SSTORE PUSH1 0x20 SWAP5 DUP6 ADD SWAP5 PUSH1 0x1 SWAP1 SWAP4 ADD SWAP3 SWAP1 SWAP2 ADD SWAP1 PUSH2 0x74E JUMP JUMPDEST PUSH1 0x40 MLOAD PUSH3 0x461BCD PUSH1 0xE5 SHL DUP2 MSTORE PUSH1 0x20 PUSH1 0x4 DUP3 ADD MSTORE PUSH1 0x26 PUSH1 0x24 DUP3 ADD MSTORE PUSH32 0x56616C69646174696F6E52656769737472793A20696E76616C696420636F6E66 PUSH1 0x44 DUP3 ADD MSTORE PUSH6 0x6964656E6365 PUSH1 0xD0 SHL PUSH1 0x64 DUP3 ADD MSTORE PUSH1 0x84 SWAP1 REVERT JUMPDEST PUSH1 0x40 MLOAD PUSH3 0x461BCD PUSH1 0xE5 SHL DUP2 MSTORE PUSH1 0x20 PUSH1 0x4 DUP3 ADD MSTORE PUSH1 0x2A PUSH1 0x24 DUP3 ADD MSTORE PUSH32 0x56616C69646174696F6E52656769737472793A207472616465496420616C7265 PUSH1 0x44 DUP3 ADD MSTORE PUSH10 0x18591E481CDD1BDC9959 PUSH1 0xB2 SHL PUSH1 0x64 DUP3 ADD MSTORE PUSH1 0x84 SWAP1 REVERT JUMPDEST PUSH1 0x40 MLOAD PUSH3 0x461BCD PUSH1 0xE5 SHL DUP2 MSTORE PUSH1 0x20 PUSH1 0x4 DUP3 ADD MSTORE PUSH1 0x24 DUP1 DUP3 ADD MSTORE PUSH32 0x56616C69646174696F6E52656769737472793A20747261646549642072657175 PUSH1 0x44 DUP3 ADD MSTORE PUSH4 0x1A5C9959 PUSH1 0xE2 SHL PUSH1 0x64 DUP3 ADD MSTORE PUSH1 0x84 SWAP1 REVERT JUMPDEST SWAP1 POP PUSH1 0x4 SLOAD AND CALLER EQ DUP9 PUSH2 0x217 JUMP JUMPDEST CALLVALUE PUSH2 0x115 JUMPI PUSH1 0x20 DUP1 PUSH1 0x3 NOT CALLDATASIZE ADD SLT PUSH2 0x115 JUMPI PUSH1 0x4 CALLDATALOAD PUSH1 0x0 MSTORE PUSH1 0x1 SWAP1 PUSH1 0x1 DUP2 MSTORE PUSH1 0x40 PUSH1 0x0 KECCAK256 DUP1 SLOAD PUSH1 0x1 PUSH1 0x1 PUSH1 0x40 SHL SUB DUP2 GT PUSH2 0x611 JUMPI DUP4 DUP4 PUSH1 0x40 MLOAD SWAP3 PUSH2 0x901 DUP3 DUP3 PUSH1 0x5 SHL ADD DUP6 PUSH2 0xCFA JUMP JUMPDEST DUP1 DUP5 MSTORE DUP2 DUP5 ADD DUP1 SWAP6 PUSH1 0x0 MSTORE DUP3 PUSH1 0x0 KECCAK256 PUSH1 0x0 SWAP2 JUMPDEST DUP4 DUP4 LT PUSH2 0x97C JUMPI POP POP POP POP PUSH1 0x40 MLOAD SWAP3 DUP2 DUP5 ADD SWAP1 DUP3 DUP6 MSTORE MLOAD DUP1 SWAP2 MSTORE PUSH1 0x40 DUP5 ADD SWAP2 PUSH1 0x40 DUP3 PUSH1 0x5 SHL DUP7 ADD ADD SWAP6 SWAP3 PUSH1 0x0 SWAP1 JUMPDEST DUP4 DUP3 LT PUSH2 0x94F JUMPI DUP7 DUP9 SUB DUP8 RETURN JUMPDEST SWAP1 SWAP2 SWAP3 SWAP4 SWAP5 DUP4 DUP1 PUSH2 0x96B DUP4 SWAP11 PUSH1 0x3F NOT DUP12 DUP3 SUB ADD DUP7 MSTORE DUP10 MLOAD PUSH2 0xC80 JUMP JUMPDEST SWAP10 SWAP8 ADD SWAP6 SWAP5 SWAP4 SWAP2 SWAP1 SWAP2 ADD SWAP2 ADD PUSH2 0x942 JUMP JUMPDEST SWAP1 DUP6 DUP1 DUP7 DUP2 SWAP11 SWAP9 SWAP6 SWAP5 PUSH2 0x991 DUP6 SWAP12 SWAP10 SWAP12 PUSH2 0xD1B JUMP JUMPDEST DUP2 MSTORE ADD SWAP3 ADD SWAP3 ADD SWAP3 POP SWAP7 SWAP5 SWAP7 SWAP6 SWAP4 SWAP6 PUSH2 0x914 JUMP JUMPDEST CALLVALUE PUSH2 0x115 JUMPI PUSH1 0x20 CALLDATASIZE PUSH1 0x3 NOT ADD SLT PUSH2 0x115 JUMPI PUSH1 0x4 CALLDATALOAD PUSH1 0x0 MSTORE PUSH1 0x1 PUSH1 0x20 MSTORE PUSH1 0x20 PUSH1 0x40 PUSH1 0x0 KECCAK256 SLOAD PUSH1 0x40 MLOAD SWAP1 DUP2 MSTORE RETURN JUMPDEST CALLVALUE PUSH2 0x115 JUMPI PUSH1 0x60 CALLDATASIZE PUSH1 0x3 NOT ADD SLT PUSH2 0x115 JUMPI PUSH1 0x4 CALLDATALOAD PUSH1 0x1 PUSH1 0x1 PUSH1 0x40 SHL SUB DUP2 GT PUSH2 0x115 JUMPI PUSH2 0xA01 SWAP1 CALLDATASIZE SWAP1 PUSH1 0x4 ADD PUSH2 0xC53 JUMP JUMPDEST SWAP1 PUSH1 0x24 CALLDATALOAD DUP1 ISZERO ISZERO DUP1 DUP3 SUB PUSH2 0x115 JUMPI PUSH1 0x3 SLOAD PUSH1 0x44 CALLDATALOAD SWAP5 SWAP1 PUSH2 0xA35 SWAP1 CALLER PUSH1 0x1 PUSH1 0x1 PUSH1 0xA0 SHL SUB SWAP2 DUP3 AND EQ SWAP1 DUP2 ISZERO PUSH2 0xB7B JUMPI POP PUSH2 0xDC0 JUMP JUMPDEST PUSH1 0x40 MLOAD DUP2 DUP6 DUP3 CALLDATACOPY PUSH1 0x20 DUP2 DUP4 DUP2 ADD PUSH1 0x0 DUP2 MSTORE SUB ADD SWAP1 KECCAK256 SWAP4 PUSH2 0xA58 PUSH1 0x1 DUP7 ADD SLOAD PUSH2 0xCC0 JUMP JUMPDEST ISZERO PUSH2 0xB2A JUMPI PUSH1 0x6 DUP6 ADD SWAP4 DUP5 SLOAD SWAP5 PUSH1 0xFF DUP7 AND PUSH2 0xAD0 JUMPI PUSH2 0xFFFF NOT SWAP1 SWAP6 AND SWAP1 ISZERO ISZERO PUSH1 0x8 SHL PUSH2 0xFF00 AND OR PUSH1 0x1 OR SWAP1 SWAP4 SSTORE PUSH32 0xD279284839694EBC5159956471CCA902DB2D8F1BD10A43FFA5A1DF84C63B1037 SWAP4 PUSH1 0x40 SWAP4 SWAP1 DUP7 SWAP1 PUSH1 0x7 ADD SSTORE DUP2 DUP5 MLOAD SWAP3 DUP4 SWAP3 DUP4 CALLDATACOPY DUP2 ADD PUSH1 0x0 DUP2 MSTORE SUB SWAP1 KECCAK256 SWAP4 DUP3 MLOAD SWAP2 DUP3 MSTORE PUSH1 0x20 DUP3 ADD MSTORE LOG2 STOP JUMPDEST PUSH1 0x40 MLOAD PUSH3 0x461BCD PUSH1 0xE5 SHL DUP2 MSTORE PUSH1 0x20 PUSH1 0x4 DUP3 ADD MSTORE PUSH1 0x2C PUSH1 0x24 DUP3 ADD MSTORE PUSH32 0x56616C69646174696F6E52656769737472793A206F7574636F6D6520616C7265 PUSH1 0x44 DUP3 ADD MSTORE PUSH12 0x18591E481C9958DBDC991959 PUSH1 0xA2 SHL PUSH1 0x64 DUP3 ADD MSTORE PUSH1 0x84 SWAP1 REVERT JUMPDEST PUSH1 0x40 MLOAD PUSH3 0x461BCD PUSH1 0xE5 SHL DUP2 MSTORE PUSH1 0x20 PUSH1 0x4 DUP3 ADD MSTORE PUSH1 0x23 PUSH1 0x24 DUP3 ADD MSTORE PUSH32 0x56616C69646174696F6E52656769737472793A207472616465206E6F7420666F PUSH1 0x44 DUP3 ADD MSTORE PUSH3 0x1D5B99 PUSH1 0xEA SHL PUSH1 0x64 DUP3 ADD MSTORE PUSH1 0x84 SWAP1 REVERT JUMPDEST SWAP1 POP PUSH1 0x4 SLOAD AND CALLER EQ DUP8 PUSH2 0x217 JUMP JUMPDEST CALLVALUE PUSH2 0x115 JUMPI PUSH1 0x20 CALLDATASIZE PUSH1 0x3 NOT ADD SLT PUSH2 0x115 JUMPI PUSH1 0x4 CALLDATALOAD PUSH1 0x1 PUSH1 0x1 PUSH1 0x40 SHL SUB DUP2 GT PUSH2 0x115 JUMPI DUP2 PUSH2 0xBBC PUSH1 0x20 SWAP3 CALLDATASIZE SWAP1 PUSH1 0x4 ADD PUSH2 0xC53 JUMP JUMPDEST DUP1 SWAP2 DUP4 CALLDATACOPY DUP2 ADD PUSH1 0x0 DUP2 MSTORE SUB ADD SWAP1 KECCAK256 DUP1 SLOAD PUSH1 0x3 DUP3 ADD SLOAD PUSH1 0x5 DUP4 ADD SLOAD SWAP1 PUSH1 0xFF PUSH1 0x6 DUP6 ADD SLOAD PUSH2 0xC2F PUSH1 0x7 DUP8 ADD SLOAD SWAP4 PUSH2 0xBFF PUSH1 0x4 PUSH2 0xBF8 PUSH1 0x2 DUP12 ADD PUSH2 0xD1B JUMP JUMPDEST SWAP10 ADD PUSH2 0xD1B JUMP JUMPDEST PUSH2 0xC1C PUSH1 0x40 MLOAD SWAP10 DUP11 SWAP10 PUSH2 0x100 SWAP1 DUP12 MSTORE DUP1 PUSH1 0x20 DUP13 ADD MSTORE DUP11 ADD SWAP1 PUSH2 0xC80 JUMP JUMPDEST SWAP2 PUSH1 0x40 DUP10 ADD MSTORE DUP8 DUP3 SUB PUSH1 0x60 DUP10 ADD MSTORE PUSH2 0xC80 JUMP JUMPDEST SWAP4 PUSH1 0x80 DUP7 ADD MSTORE DUP2 DUP2 AND ISZERO ISZERO PUSH1 0xA0 DUP7 ADD MSTORE PUSH1 0x8 SHR AND ISZERO ISZERO PUSH1 0xC0 DUP5 ADD MSTORE PUSH1 0xE0 DUP4 ADD MSTORE SUB SWAP1 RETURN JUMPDEST SWAP2 DUP2 PUSH1 0x1F DUP5 ADD SLT ISZERO PUSH2 0x115 JUMPI DUP3 CALLDATALOAD SWAP2 PUSH1 0x1 PUSH1 0x1 PUSH1 0x40 SHL SUB DUP4 GT PUSH2 0x115 JUMPI PUSH1 0x20 DUP4 DUP2 DUP7 ADD SWAP6 ADD ADD GT PUSH2 0x115 JUMPI JUMP JUMPDEST SWAP2 SWAP1 DUP3 MLOAD SWAP3 DUP4 DUP3 MSTORE PUSH1 0x0 JUMPDEST DUP5 DUP2 LT PUSH2 0xCAC JUMPI POP POP DUP3 PUSH1 0x0 PUSH1 0x20 DUP1 SWAP5 SWAP6 DUP5 ADD ADD MSTORE PUSH1 0x1F DUP1 NOT SWAP2 ADD AND ADD ADD SWAP1 JUMP JUMPDEST PUSH1 0x20 DUP2 DUP4 ADD DUP2 ADD MLOAD DUP5 DUP4 ADD DUP3 ADD MSTORE ADD PUSH2 0xC8B JUMP JUMPDEST SWAP1 PUSH1 0x1 DUP3 DUP2 SHR SWAP3 AND DUP1 ISZERO PUSH2 0xCF0 JUMPI JUMPDEST PUSH1 0x20 DUP4 LT EQ PUSH2 0xCDA JUMPI JUMP JUMPDEST PUSH4 0x4E487B71 PUSH1 0xE0 SHL PUSH1 0x0 MSTORE PUSH1 0x22 PUSH1 0x4 MSTORE PUSH1 0x24 PUSH1 0x0 REVERT JUMPDEST SWAP2 PUSH1 0x7F AND SWAP2 PUSH2 0xCCF JUMP JUMPDEST SWAP1 PUSH1 0x1F DUP1 NOT SWAP2 ADD AND DUP2 ADD SWAP1 DUP2 LT PUSH1 0x1 PUSH1 0x1 PUSH1 0x40 SHL SUB DUP3 GT OR PUSH2 0x611 JUMPI PUSH1 0x40 MSTORE JUMP JUMPDEST SWAP1 PUSH1 0x40 MLOAD SWAP2 DUP3 PUSH1 0x0 DUP3 SLOAD PUSH2 0xD2E DUP2 PUSH2 0xCC0 JUMP JUMPDEST SWAP1 DUP2 DUP5 MSTORE PUSH1 0x20 SWAP5 PUSH1 0x1 SWAP2 PUSH1 0x1 DUP2 AND SWAP1 DUP2 PUSH1 0x0 EQ PUSH2 0xD9E JUMPI POP PUSH1 0x1 EQ PUSH2 0xD5F JUMPI JUMPDEST POP POP POP PUSH2 0xD5D SWAP3 POP SUB DUP4 PUSH2 0xCFA JUMP JUMPDEST JUMP JUMPDEST PUSH1 0x0 SWAP1 DUP2 MSTORE DUP6 DUP2 KECCAK256 SWAP6 SWAP4 POP SWAP2 SWAP1 JUMPDEST DUP2 DUP4 LT PUSH2 0xD86 JUMPI POP POP PUSH2 0xD5D SWAP4 POP DUP3 ADD ADD CODESIZE DUP1 DUP1 PUSH2 0xD4E JUMP JUMPDEST DUP6 SLOAD DUP9 DUP5 ADD DUP6 ADD MSTORE SWAP5 DUP6 ADD SWAP5 DUP8 SWAP5 POP SWAP2 DUP4 ADD SWAP2 PUSH2 0xD6D JUMP JUMPDEST SWAP3 POP POP POP PUSH2 0xD5D SWAP5 SWAP3 POP PUSH1 0xFF NOT AND DUP3 DUP5 ADD MSTORE ISZERO ISZERO PUSH1 0x5 SHL DUP3 ADD ADD CODESIZE DUP1 DUP1 PUSH2 0xD4E JUMP JUMPDEST ISZERO PUSH2 0xDC7 JUMPI JUMP JUMPDEST PUSH1 0x40 MLOAD PUSH3 0x461BCD PUSH1 0xE5 SHL DUP2 MSTORE PUSH1 0x20 PUSH1 0x4 DUP3 ADD MSTORE PUSH1 0x22 PUSH1 0x24 DUP3 ADD MSTORE PUSH32 0x56616C69646174696F6E52656769737472793A206E6F7420617574686F72697A PUSH1 0x44 DUP3 ADD MSTORE PUSH2 0x1959 PUSH1 0xF2 SHL PUSH1 0x64 DUP3 ADD MSTORE PUSH1 0x84 SWAP1 REVERT JUMPDEST SWAP3 SWAP2 SWAP3 PUSH1 0x1 PUSH1 0x1 PUSH1 0x40 SHL SUB DUP3 GT PUSH2 0x611 JUMPI PUSH1 0x40 MLOAD SWAP2 PUSH2 0xE40 PUSH1 0x1F DUP3 ADD PUSH1 0x1F NOT AND PUSH1 0x20 ADD DUP5 PUSH2 0xCFA JUMP JUMPDEST DUP3 SWAP5 DUP2 DUP5 MSTORE DUP2 DUP4 ADD GT PUSH2 0x115 JUMPI DUP3 DUP2 PUSH1 0x20 SWAP4 DUP5 PUSH1 0x0 SWAP7 ADD CALLDATACOPY ADD ADD MSTORE JUMP JUMPDEST SWAP1 PUSH1 0x1F DUP2 GT PUSH2 0xE6B JUMPI POP POP POP JUMP JUMPDEST PUSH1 0x0 SWAP2 PUSH1 0x0 MSTORE PUSH1 0x20 PUSH1 0x0 KECCAK256 SWAP1 PUSH1 0x20 PUSH1 0x1F DUP6 ADD PUSH1 0x5 SHR DUP4 ADD SWAP5 LT PUSH2 0xEA9 JUMPI JUMPDEST PUSH1 0x1F ADD PUSH1 0x5 SHR ADD SWAP2 JUMPDEST DUP3 DUP2 LT PUSH2 0xE9E JUMPI POP POP POP JUMP JUMPDEST DUP2 DUP2 SSTORE PUSH1 0x1 ADD PUSH2 0xE92 JUMP JUMPDEST SWAP1 SWAP3 POP DUP3 SWAP1 PUSH2 0xE89 JUMP JUMPDEST PUSH2 0x100 DUP1 DUP4 GT ISZERO PUSH2 0xF2C JUMPI PUSH1 0x40 MLOAD SWAP3 PUSH2 0x120 DUP5 ADD DUP5 DUP2 LT PUSH1 0x1 PUSH1 0x1 PUSH1 0x40 SHL SUB DUP3 GT OR PUSH2 0x611 JUMPI PUSH1 0x40 MSTORE DUP2 DUP5 MSTORE PUSH1 0x20 SWAP1 DUP3 CALLDATASIZE PUSH1 0x20 DUP8 ADD CALLDATACOPY PUSH1 0x0 JUMPDEST DUP4 DUP2 LT PUSH2 0xEFB JUMPI POP POP POP POP POP SWAP1 JUMP JUMPDEST DUP2 DUP2 LT ISZERO PUSH2 0x627 JUMPI DUP6 MLOAD DUP2 LT ISZERO PUSH2 0x627 JUMPI PUSH1 0x1 SWAP1 DUP6 DUP2 ADD CALLDATALOAD PUSH1 0x1 PUSH1 0x1 PUSH1 0xF8 SHL SUB NOT AND PUSH1 0x0 BYTE DUP8 DUP3 ADD DUP6 ADD MSTORE8 ADD PUSH2 0xEEC JUMP JUMPDEST POP PUSH2 0xF38 SWAP2 CALLDATASIZE SWAP2 PUSH2 0xE17 JUMP JUMPDEST SWAP1 JUMP INVALID LOG2 PUSH5 0x6970667358 0x22 SLT KECCAK256 0xCE PUSH24 0xBA02E70590660BD403BB195006401B3CAAEB8E476DAFA8FF 0xC0 DUP10 0xAA LOG3 0x22 NOT PUSH5 0x736F6C6343 STOP ADDMOD XOR STOP CALLER "},"methodIdentifiers":{"authorizedCaller()":"97dc97cb","getAgentTradeCount(uint256)":"528633ce","getAgentTradeIds(uint256)":"5fb3c2c2","getValidation(string)":"26b94b2c","owner()":"8da5cb5b","recordOutcome(string,bool,int256)":"3144f0fa","setAuthorizedCaller(address)":"cf8fbec9","storeValidation(uint256,string,string,uint256,string)":"7bad8950","totalValidations()":"7e83514b"}}}}}