{"contracts/ValidationRegistry.sol":{"ValidationRegistry":{"abi":[{"inputs":[],"stateMutability":"nonpayable","type":"constructor"},{"anonymous":false,"inputs":[{"indexed":true,"internalType":"string","name":"tradeId","type":"string"},{"indexed":false,"internalType":"bool","name":"profitable","type":"bool"},{"indexed":false,"internalType":"int256","name":"pnlBps","type":"int256"}],"name":"OutcomeRecorded","type":"event"},{"anonymous":false,"inputs":[{"indexed":true,"internalType":"uint256","name":"agentId","type":"uint256"},{"indexed":true,"internalType":"string","name":"tradeId","type":"string"},{"indexed":false,"internalType":"uint256","name":"confidence","type":"uint256"},{"indexed":false,"internalType":"string","name":"riskCheck","type":"string"},{"indexed":false,"internalType":"uint256","name":"timestamp","type":"uint256"},{"indexed":true,"internalType":"address","name":"validator","type":"address"}],"name":"ValidationStored","type":"event"},{"anonymous":false,"inputs":[{"indexed":true,"internalType":"address","name":"validator","type":"address"}],"name":"ValidatorAdded","type":"event"},{"anonymous":false,"inputs":[{"indexed":true,"internalType":"address","name":"validator","type":"address"}],"name":"ValidatorRemoved","type":"event"},{"inputs":[],"name":"DOMAIN_SEPARATOR","outputs":[{"internalType":"bytes32","name":"","type":"bytes32"}],"stateMutability":"view","type":"function"},{"inputs":[],"name":"OUTCOME_TYPEHASH","outputs":[{"internalType":"bytes32","name":"","type":"bytes32"}],"stateMutability":"view","type":"function"},{"inputs":[],"name":"VALIDATION_TYPEHASH","outputs":[{"internalType":"bytes32","name":"","type":"bytes32"}],"stateMutability":"view","type":"function"},{"inputs":[{"internalType":"address","name":"validator","type":"address"}],"name":"addValidator","outputs":[],"stateMutability":"nonpayable","type":"function"},{"inputs":[],"name":"authorizedCaller","outputs":[{"internalType":"address","name":"","type":"address"}],"stateMutability":"view","type":"function"},{"inputs":[{"internalType":"address","name":"","type":"address"}],"name":"authorizedValidators","outputs":[{"internalType":"bool","name":"","type":"bool"}],"stateMutability":"view","type":"function"},{"inputs":[{"internalType":"uint256","name":"agentId","type":"uint256"},{"internalType":"string","name":"tradeId","type":"string"},{"internalType":"uint256","name":"confidence","type":"uint256"},{"internalType":"string","name":"riskCheck","type":"string"},{"internalType":"uint256","name":"timestamp","type":"uint256"},{"internalType":"address","name":"validator","type":"address"}],"name":"computeArtifactHash","outputs":[{"internalType":"bytes32","name":"","type":"bytes32"}],"stateMutability":"view","type":"function"},{"inputs":[{"internalType":"uint256","name":"agentId","type":"uint256"}],"name":"getAgentTradeCount","outputs":[{"internalType":"uint256","name":"","type":"uint256"}],"stateMutability":"view","type":"function"},{"inputs":[{"internalType":"uint256","name":"agentId","type":"uint256"}],"name":"getAgentTradeIds","outputs":[{"internalType":"string[]","name":"","type":"string[]"}],"stateMutability":"view","type":"function"},{"inputs":[{"internalType":"string","name":"tradeId","type":"string"}],"name":"getValidation","outputs":[{"internalType":"uint256","name":"agentId","type":"uint256"},{"internalType":"string","name":"reason","type":"string"},{"internalType":"uint256","name":"confidence","type":"uint256"},{"internalType":"string","name":"riskCheck","type":"string"},{"internalType":"uint256","name":"timestamp","type":"uint256"},{"internalType":"bool","name":"outcomeRecorded","type":"bool"},{"internalType":"bool","name":"profitable","type":"bool"},{"internalType":"int256","name":"pnlBps","type":"int256"}],"stateMutability":"view","type":"function"},{"inputs":[{"internalType":"string","name":"tradeId","type":"string"}],"name":"getValidationArtifact","outputs":[{"internalType":"address","name":"validator","type":"address"},{"internalType":"bytes","name":"validatorSig","type":"bytes"},{"internalType":"bytes32","name":"artifactHash","type":"bytes32"}],"stateMutability":"view","type":"function"},{"inputs":[],"name":"owner","outputs":[{"internalType":"address","name":"","type":"address"}],"stateMutability":"view","type":"function"},{"inputs":[{"internalType":"string","name":"tradeId","type":"string"},{"internalType":"bool","name":"profitable","type":"bool"},{"internalType":"int256","name":"pnlBps","type":"int256"}],"name":"recordOutcome","outputs":[],"stateMutability":"nonpayable","type":"function"},{"inputs":[{"internalType":"address","name":"validator","type":"address"}],"name":"removeValidator","outputs":[],"stateMutability":"nonpayable","type":"function"},{"inputs":[{"internalType":"address","name":"caller","type":"address"}],"name":"setAuthorizedCaller","outputs":[],"stateMutability":"nonpayable","type":"function"},{"inputs":[{"internalType":"uint256","name":"agentId","type":"uint256"},{"internalType":"string","name":"tradeId","type":"string"},{"internalType":"string","name":"reason","type":"string"},{"internalType":"uint256","name":"confidence","type":"uint256"},{"internalType":"string","name":"riskCheck","type":"string"},{"internalType":"bytes","name":"validatorSig","type":"bytes"}],"name":"storeValidation","outputs":[],"stateMutability":"nonpayable","type":"function"},{"inputs":[],"name":"totalValidations","outputs":[{"internalType":"uint256","name":"","type":"uint256"}],"stateMutability":"view","type":"function"},{"inputs":[{"internalType":"string","name":"tradeId","type":"string"}],"name":"verifyValidationArtifact","outputs":[{"internalType":"bool","name":"valid","type":"bool"}],"stateMutability":"view","type":"function"}],"evm":{"bytecode":{"linkReferences":{},"object":"60a06040908082523461012557602060139160018060a01b03193381600454161760045533906005541617600555336000526002825283600020600160ff1982541617905561004d8161012a565b828152017f414954726164696e6756616c69646174696f6e000000000000000000000000008152206001602083516100848161012a565b82815201603160f81b81522082519060208201927f8b73c3c69bb8fe3d512ecc4cf759cc79239f7b179b0ffacaa9a75d522b39400f84528483015260608201524660808201523060a082015260a0815260c081019281841060018060401b0385111761010f57839052519020608052611701908161014682396080518181816104a501526115740152f35b634e487b7160e01b600052604160045260246000fd5b600080fd5b604081019081106001600160401b0382111761010f5760405256fe6080604052600436101561001257600080fd5b60003560e01c806326b94b2c146101375780632bec6e43146101325780633144f0fa1461012d5780633644e5151461012857806340a141ff146101235780634d238c8e1461011e5780634d50b5a414610119578063528633ce14610114578063587141631461010f5780635fb3c2c21461010a5780637e83514b146101055780638da5cb5b1461010057806392c2d8a9146100fb57806397dc97cb146100f6578063c770be69146100f1578063c868d47b146100ec578063cc1830f0146100e75763cf8fbec9146100e257600080fd5b610a3b565b6109b3565b6108f7565b610864565b61083b565b6107b0565b610787565b610769565b6106cf565b61062c565b610600565b6105c5565b610550565b6104de565b61048d565b6102fd565b6102c2565b61022c565b9181601f84011215610169578235916001600160401b038311610169576020838186019501011161016957565b600080fd5b602060031982011261016957600435906001600160401b038211610169576101989160040161013c565b9091565b919082519283825260005b8481106101c8575050826000602080949584010152601f8019910116010190565b6020818301810151848301820152016101a7565b94989796936102016102149360e09895936101009089528060208a015288019061019c565b916040870152858203606087015261019c565b966080840152151560a0830152151560c08201520152565b3461016957602061023c3661016e565b9190826040519384928337810160008152030190208054906102be60038201549260058301549060068401549060078501549260046102a760405197610290896102898160028501610adf565b038a610ba7565b6102a06040518094819301610adf565b0382610ba7565b60405197889760ff808760081c16961694896101dc565b0390f35b346101695760003660031901126101695760206040517f96095dfc37f9a66c8034a4d38d97353803bd6848d1d396679da2309ad6f185b48152f35b34610169576060366003190112610169576004356001600160401b0381116101695761032d90369060040161013c565b602435918215158303610169576004546044359190336001600160a01b039182161490811561047f575b508015610466575b61036890610be5565b6040518382823760208185810160008152030190209261039561038e6001860154610aa5565b1515610c49565b600684019160ff835416610415578360077fd279284839694ebc5159956471cca902db2d8f1bd10a43ffa5a1df84c63b1037966103f989876103e161040099600160ff19825416179055565b9061ff00825491151560081b169061ff001916179055565b0155610ca1565b604080519415158552602085019290925292a2005b60405162461bcd60e51b8152602060048201526024808201527f56616c69646174696f6e52656769737472793a20616c7265616479207265636f6044820152631c99195960e21b6064820152608490fd5b503360009081526002602052604090205460ff1661035f565b905060055416331438610357565b346101695760003660031901126101695760206040517f00000000000000000000000000000000000000000000000000000000000000008152f35b600435906001600160a01b038216820361016957565b34610169576020366003190112610169576104f76104c8565b6004546001600160a01b0391906105119083163314610cb6565b166000818152600260205260408120805460ff19169055907fe1434e25d6611e0db941968fdc97811c982ac1602e951637d206f5fdda9dd8f18280a280f35b34610169576020366003190112610169576105696104c8565b6004546001600160a01b0391906105839083163314610cb6565b166000818152600260205260408120805460ff19166001179055907fe366c1c0452ed8eec96861e9e54141ebff23c9ec89fe27b996b45f5ec38849878280a280f35b346101695760003660031901126101695760206040517f1ec7e03c4566b17698b4646a50d20fe3919bcc034624c1f7a497211439c8bc1a8152f35b346101695760203660031901126101695760043560005260016020526020604060002054604051908152f35b34610169576020366003190112610169576001600160a01b0361064d6104c8565b166000526002602052602060ff604060002054166040519015158152f35b6020808201906020835283518092526040830192602060408460051b8301019501936000915b8483106106a15750505050505090565b90919293949584806106bf600193603f198682030187528a5161019c565b9801930193019194939290610691565b346101695760208060031936011261016957600435600052600190600181526040906040600020918254916001600160401b03831161076457604051939161071d600585901b830186610ba7565b8385526000928352818320908286015b85851061074257604051806102be898261066b565b878481928451610756816102a0818a610adf565b81520193019401939161072d565b610b75565b34610169576000366003190112610169576020600354604051908152f35b34610169576000366003190112610169576004546040516001600160a01b039091168152602090f35b3461016957600960206107c23661016e565b9190826040519384928337810160008152030190206107e761038e6001830154610aa5565b60018060a01b0360088201541690610815600a8201549161080e6040518096819301610adf565b0384610ba7565b610831604051938493845260606020850152606084019061019c565b9060408301520390f35b34610169576000366003190112610169576005546040516001600160a01b039091168152602090f35b346101695760c0366003190112610169576001600160401b036024358181116101695761089590369060040161013c565b604435838111610169576108ad90369060040161013c565b608493919335858111610169576108c890369060040161013c565b92909160a435968711610169576108e66108f597369060040161013c565b96909560643593600435610d22565b005b34610169576102be6109083661016e565b906109706040518383823760208185810160008152030190209261093261038e6001860154610aa5565b83546003850154600586015460088701549092919061095e906001600160a01b03169687953691610ffb565b61096a60048901610bc8565b926114eb565b600a8301548091149283610994575b50506040519115158252509081906020820190565b6109ab935060096109a59101610bc8565b916115b5565b38808061097f565b346101695760c0366003190112610169576001600160401b03602435818111610169576109e490369060040161013c565b91606435908111610169576109fd90369060040161013c565b909260a435916001600160a01b0383168303610169576102be94610a2b9460843593604435916004356114cd565b6040519081529081906020820190565b3461016957602036600319011261016957610a546104c8565b6004546001600160a01b039190610a6e9083163314610cb6565b166bffffffffffffffffffffffff60a01b6005541617600555600080f35b6020908260405193849283378101600081520301902090565b90600182811c92168015610ad5575b6020831014610abf57565b634e487b7160e01b600052602260045260246000fd5b91607f1691610ab4565b805460009392610aee82610aa5565b91828252602093600191600181169081600014610b565750600114610b15575b5050505050565b90939495506000929192528360002092846000945b838610610b4257505050500101903880808080610b0e565b805485870183015294019385908201610b2a565b60ff19168685015250505090151560051b010191503880808080610b0e565b634e487b7160e01b600052604160045260246000fd5b61010081019081106001600160401b0382111761076457604052565b90601f801991011681019081106001600160401b0382111761076457604052565b90610be3610bdc9260405193848092610adf565b0383610ba7565b565b15610bec57565b60405162461bcd60e51b815260206004820152602260248201527f56616c69646174696f6e52656769737472793a206e6f7420617574686f72697a604482015261195960f21b6064820152608490fd5b610c469054610aa5565b90565b15610c5057565b60405162461bcd60e51b815260206004820152602360248201527f56616c69646174696f6e52656769737472793a207472616465206e6f7420666f6044820152621d5b9960ea1b6064820152608490fd5b81604051928392833781016000815203902090565b15610cbd57565b60405162461bcd60e51b815260206004820152601d60248201527f56616c69646174696f6e52656769737472793a206e6f74206f776e65720000006044820152606490fd5b6040519061018082018281106001600160401b0382111761076457604052565b8293610e58899a899c610e2b7f762ba33ad2bc68d518ae479e216850cb97a85007d56136de9bfb72c6e5e745239b869d610dfe610ea99c610ddb8f610dcb8d9e9d610e739e60018060a01b0380600454163314908115610edb575b508015610ec2575b610d8e90610be5565b610d99811515610ee9565b610db7610db16001610dab8486610a8c565b01610c3c565b15610f41565b610dc46064851115610fa0565b3691610ffb565b8c3392429261096a368a8c610ffb565b98610df9610df4610ded368a8c610ffb565b8c336115b5565b611041565b61164b565b610e06610d02565b988952610e14368d8d610ffb565b60208a015260408901528c60608901523691610ffb565b60808601524260a0860152600060c0860181905260e0860181905261010086015233610120860152610dc4565b610140830152610160820152610e6e8484610a8c565b611275565b610e918282610e8c896000526001602052604060002090565b61136e565b610ea4610e9f600354611474565b600355565b610ca1565b93610ebd6040519283923398429285611499565b0390a4565b503360009081526002602052604090205460ff16610d85565b905060055416331438610d7d565b15610ef057565b60405162461bcd60e51b8152602060048201526024808201527f56616c69646174696f6e52656769737472793a207472616465496420726571756044820152631a5c995960e21b6064820152608490fd5b15610f4857565b60405162461bcd60e51b815260206004820152602a60248201527f56616c69646174696f6e52656769737472793a207472616465496420616c726560448201526918591e481cdd1bdc995960b21b6064820152608490fd5b15610fa757565b60405162461bcd60e51b815260206004820152602660248201527f56616c69646174696f6e52656769737472793a20696e76616c696420636f6e666044820152656964656e636560d01b6064820152608490fd5b9291926001600160401b0382116107645760405191611024601f8201601f191660200184610ba7565b829481845281830111610169578281602093846000960137010152565b1561104857565b60405162461bcd60e51b815260206004820152602f60248201527f56616c69646174696f6e52656769737472793a20696e76616c69642076616c6960448201526e6461746f72207369676e617475726560881b6064820152608490fd5b90601f81116110b357505050565b6000916000526020600020906020601f850160051c830194106110f1575b601f0160051c01915b8281106110e657505050565b8181556001016110da565b90925082906110d1565b91909182516001600160401b038111610764576111228161111c8454610aa5565b846110a5565b602080601f83116001146111655750819061115693949560009261115a575b50508160011b916000199060031b1c19161790565b9055565b015190503880611141565b90601f1983169561117b85600052602060002090565b926000905b8882106111b85750508360019596971061119f575b505050811b019055565b015160001960f88460031b161c19169055388080611195565b80600185968294968601518155019501930190611180565b91909182516001600160401b038111610764576111f18161111c8454610aa5565b602080601f83116001146112245750819061115693949560009261115a5750508160011b916000199060031b1c19161790565b90601f1983169561123a85600052602060002090565b926000905b88821061125d5750508360019596971061119f57505050811b019055565b8060018596829496860151815501950193019061123f565b90610160600a91805184556112916020820151600186016110fb565b6112a26040820151600286016110fb565b606081015160038501556112bd6080820151600486016110fb565b60a0810151600585015561130d600685016112f06112de60c0850151151590565b829060ff801983541691151516179055565b60e08301511515815461ff00191690151560081b61ff0016179055565b61010081015160078501556101208101516008850180546001600160a01b0319166001600160a01b03909216919091179055611351610140820151600986016111d0565b0151910155565b634e487b7160e01b600052603260045260246000fd5b929183549368010000000000000000851015610764576001906001860180825586101561146f57600052602094602060002001926001600160401b038311610764576113c4836113be8654610aa5565b866110a5565b600091601f84116001146114045750611156939495509082916000926113f95750508160011b916000199060031b1c19161790565b013590503880611141565b9591601f1984169661141b86600052602060002090565b9382915b898310611458575050508360019596971061143e57505050811b019055565b0135600019600384901b60f8161c19169055388080611195565b84840135865594850194928101929181019161141f565b611358565b60001981146114835760010190565b634e487b7160e01b600052601160045260246000fd5b94939280604093608093885260606020890152816060890152838801376000828288010152601f8019910116850101930152565b936114e361096a92610c46999897943691610ffb565b923691610ffb565b9492939190602081519101209360208151910120906040519460208601967f96095dfc37f9a66c8034a4d38d97353803bd6848d1d396679da2309ad6f185b4885260408701526060860152608085015260a084015260c083015260018060a01b031660e082015260e0815261155f81610b8b565b51902060405161190160f01b602082019081527f000000000000000000000000000000000000000000000000000000000000000060228301526042808301939093529181526115af606282610ba7565b51902090565b916041815103611632578060806020809301519360606040840151930151926000958694604051938452851a868401526040830152606082015282805260015afa1561162657516001600160a01b03908116801515929091908361161a575b50505090565b16149050388080611614565b604051903d90823e3d90fd5b505050600090565b90815181101561146f570160200190565b610100808311156116bf576040519261012084018481106001600160401b03821117610764576040528184528136602086013760009060005b83811061169357505050505090565b8181101561146f57600190858101356001600160f81b031916841a6116b8828961163a565b5301611684565b50610c46913691610ffb56fea2646970667358221220cf5488674cd347e19eabdece636287ecba49dce6d50eb53101c3facc7d043fa364736f6c63430008180033","opcodes":"PUSH1 0xA0 PUSH1 0x40 SWAP1 DUP1 DUP3 MSTORE CALLVALUE PUSH2 0x125 JUMPI PUSH1 0x20 PUSH1 0x13 SWAP2 PUSH1 0x1 DUP1 PUSH1 0xA0 SHL SUB NOT CALLER DUP2 PUSH1 0x4 SLOAD AND OR PUSH1 0x4 SSTORE CALLER SWAP1 PUSH1 0x5 SLOAD AND OR PUSH1 0x5 SSTORE CALLER PUSH1 0x0 MSTORE PUSH1 0x2 DUP3 MSTORE DUP4 PUSH1 0x0 KECCAK256 PUSH1 0x1 PUSH1 0xFF NOT DUP3 SLOAD AND OR SWAP1 SSTORE PUSH2 0x4D DUP2 PUSH2 0x12A JUMP JUMPDEST DUP3 DUP2 MSTORE ADD PUSH32 0x414954726164696E6756616C69646174696F6E00000000000000000000000000 DUP2 MSTORE KECCAK256 PUSH1 0x1 PUSH1 0x20 DUP4 MLOAD PUSH2 0x84 DUP2 PUSH2 0x12A JUMP JUMPDEST DUP3 DUP2 MSTORE ADD PUSH1 0x31 PUSH1 0xF8 SHL DUP2 MSTORE KECCAK256 DUP3 MLOAD SWAP1 PUSH1 0x20 DUP3 ADD SWAP3 PUSH32 0x8B73C3C69BB8FE3D512ECC4CF759CC79239F7B179B0FFACAA9A75D522B39400F DUP5 MSTORE DUP5 DUP4 ADD MSTORE PUSH1 0x60 DUP3 ADD MSTORE CHAINID PUSH1 0x80 DUP3 ADD MSTORE ADDRESS PUSH1 0xA0 DUP3 ADD MSTORE PUSH1 0xA0 DUP2 MSTORE PUSH1 0xC0 DUP2 ADD SWAP3 DUP2 DUP5 LT PUSH1 0x1 DUP1 PUSH1 0x40 SHL SUB DUP6 GT OR PUSH2 0x10F JUMPI DUP4 SWAP1 MSTORE MLOAD SWAP1 KECCAK256 PUSH1 0x80 MSTORE PUSH2 0x1701 SWAP1 DUP2 PUSH2 0x146 DUP3 CODECOPY PUSH1 0x80 MLOAD DUP2 DUP2 DUP2 PUSH2 0x4A5 ADD MSTORE PUSH2 0x1574 ADD MSTORE RETURN JUMPDEST PUSH4 0x4E487B71 PUSH1 0xE0 SHL PUSH1 0x0 MSTORE PUSH1 0x41 PUSH1 0x4 MSTORE PUSH1 0x24 PUSH1 0x0 REVERT JUMPDEST PUSH1 0x0 DUP1 REVERT JUMPDEST PUSH1 0x40 DUP2 ADD SWAP1 DUP2 LT PUSH1 0x1 PUSH1 0x1 PUSH1 0x40 SHL SUB DUP3 GT OR PUSH2 0x10F JUMPI PUSH1 0x40 MSTORE JUMP INVALID PUSH1 0x80 PUSH1 0x40 MSTORE PUSH1 0x4 CALLDATASIZE LT ISZERO PUSH2 0x12 JUMPI PUSH1 0x0 DUP1 REVERT JUMPDEST PUSH1 0x0 CALLDATALOAD PUSH1 0xE0 SHR DUP1 PUSH4 0x26B94B2C EQ PUSH2 0x137 JUMPI DUP1 PUSH4 0x2BEC6E43 EQ PUSH2 0x132 JUMPI DUP1 PUSH4 0x3144F0FA EQ PUSH2 0x12D JUMPI DUP1 PUSH4 0x3644E515 EQ PUSH2 0x128 JUMPI DUP1 PUSH4 0x40A141FF EQ PUSH2 0x123 JUMPI DUP1 PUSH4 0x4D238C8E EQ PUSH2 0x11E JUMPI DUP1 PUSH4 0x4D50B5A4 EQ PUSH2 0x119 JUMPI DUP1 PUSH4 0x528633CE EQ PUSH2 0x114 JUMPI DUP1 PUSH4 0x58714163 EQ PUSH2 0x10F JUMPI DUP1 PUSH4 0x5FB3C2C2 EQ PUSH2 0x10A JUMPI DUP1 PUSH4 0x7E83514B EQ PUSH2 0x105 JUMPI DUP1 PUSH4 0x8DA5CB5B EQ PUSH2 0x100 JUMPI DUP1 PUSH4 0x92C2D8A9 EQ PUSH2 0xFB JUMPI DUP1 PUSH4 0x97DC97CB EQ PUSH2 0xF6 JUMPI DUP1 PUSH4 0xC770BE69 EQ PUSH2 0xF1 JUMPI DUP1 PUSH4 0xC868D47B EQ PUSH2 0xEC JUMPI DUP1 PUSH4 0xCC1830F0 EQ PUSH2 0xE7 JUMPI PUSH4 0xCF8FBEC9 EQ PUSH2 0xE2 JUMPI PUSH1 0x0 DUP1 REVERT JUMPDEST PUSH2 0xA3B JUMP JUMPDEST PUSH2 0x9B3 JUMP JUMPDEST PUSH2 0x8F7 JUMP JUMPDEST PUSH2 0x864 JUMP JUMPDEST PUSH2 0x83B JUMP JUMPDEST PUSH2 0x7B0 JUMP JUMPDEST PUSH2 0x787 JUMP JUMPDEST PUSH2 0x769 JUMP JUMPDEST PUSH2 0x6CF JUMP JUMPDEST PUSH2 0x62C JUMP JUMPDEST PUSH2 0x600 JUMP JUMPDEST PUSH2 0x5C5 JUMP JUMPDEST PUSH2 0x550 JUMP JUMPDEST PUSH2 0x4DE JUMP JUMPDEST PUSH2 0x48D JUMP JUMPDEST PUSH2 0x2FD JUMP JUMPDEST PUSH2 0x2C2 JUMP JUMPDEST PUSH2 0x22C JUMP JUMPDEST SWAP2 DUP2 PUSH1 0x1F DUP5 ADD SLT ISZERO PUSH2 0x169 JUMPI DUP3 CALLDATALOAD SWAP2 PUSH1 0x1 PUSH1 0x1 PUSH1 0x40 SHL SUB DUP4 GT PUSH2 0x169 JUMPI PUSH1 0x20 DUP4 DUP2 DUP7 ADD SWAP6 ADD ADD GT PUSH2 0x169 JUMPI JUMP JUMPDEST PUSH1 0x0 DUP1 REVERT JUMPDEST PUSH1 0x20 PUSH1 0x3 NOT DUP3 ADD SLT PUSH2 0x169 JUMPI PUSH1 0x4 CALLDATALOAD SWAP1 PUSH1 0x1 PUSH1 0x1 PUSH1 0x40 SHL SUB DUP3 GT PUSH2 0x169 JUMPI PUSH2 0x198 SWAP2 PUSH1 0x4 ADD PUSH2 0x13C JUMP JUMPDEST SWAP1 SWAP2 JUMP JUMPDEST SWAP2 SWAP1 DUP3 MLOAD SWAP3 DUP4 DUP3 MSTORE PUSH1 0x0 JUMPDEST DUP5 DUP2 LT PUSH2 0x1C8 JUMPI POP POP DUP3 PUSH1 0x0 PUSH1 0x20 DUP1 SWAP5 SWAP6 DUP5 ADD ADD MSTORE PUSH1 0x1F DUP1 NOT SWAP2 ADD AND ADD ADD SWAP1 JUMP JUMPDEST PUSH1 0x20 DUP2 DUP4 ADD DUP2 ADD MLOAD DUP5 DUP4 ADD DUP3 ADD MSTORE ADD PUSH2 0x1A7 JUMP JUMPDEST SWAP5 SWAP9 SWAP8 SWAP7 SWAP4 PUSH2 0x201 PUSH2 0x214 SWAP4 PUSH1 0xE0 SWAP9 SWAP6 SWAP4 PUSH2 0x100 SWAP1 DUP10 MSTORE DUP1 PUSH1 0x20 DUP11 ADD MSTORE DUP9 ADD SWAP1 PUSH2 0x19C JUMP JUMPDEST SWAP2 PUSH1 0x40 DUP8 ADD MSTORE DUP6 DUP3 SUB PUSH1 0x60 DUP8 ADD MSTORE PUSH2 0x19C JUMP JUMPDEST SWAP7 PUSH1 0x80 DUP5 ADD MSTORE ISZERO ISZERO PUSH1 0xA0 DUP4 ADD MSTORE ISZERO ISZERO PUSH1 0xC0 DUP3 ADD MSTORE ADD MSTORE JUMP JUMPDEST CALLVALUE PUSH2 0x169 JUMPI PUSH1 0x20 PUSH2 0x23C CALLDATASIZE PUSH2 0x16E JUMP JUMPDEST SWAP2 SWAP1 DUP3 PUSH1 0x40 MLOAD SWAP4 DUP5 SWAP3 DUP4 CALLDATACOPY DUP2 ADD PUSH1 0x0 DUP2 MSTORE SUB ADD SWAP1 KECCAK256 DUP1 SLOAD SWAP1 PUSH2 0x2BE PUSH1 0x3 DUP3 ADD SLOAD SWAP3 PUSH1 0x5 DUP4 ADD SLOAD SWAP1 PUSH1 0x6 DUP5 ADD SLOAD SWAP1 PUSH1 0x7 DUP6 ADD SLOAD SWAP3 PUSH1 0x4 PUSH2 0x2A7 PUSH1 0x40 MLOAD SWAP8 PUSH2 0x290 DUP10 PUSH2 0x289 DUP2 PUSH1 0x2 DUP6 ADD PUSH2 0xADF JUMP JUMPDEST SUB DUP11 PUSH2 0xBA7 JUMP JUMPDEST PUSH2 0x2A0 PUSH1 0x40 MLOAD DUP1 SWAP5 DUP2 SWAP4 ADD PUSH2 0xADF JUMP JUMPDEST SUB DUP3 PUSH2 0xBA7 JUMP JUMPDEST PUSH1 0x40 MLOAD SWAP8 DUP9 SWAP8 PUSH1 0xFF DUP1 DUP8 PUSH1 0x8 SHR AND SWAP7 AND SWAP5 DUP10 PUSH2 0x1DC JUMP JUMPDEST SUB SWAP1 RETURN JUMPDEST CALLVALUE PUSH2 0x169 JUMPI PUSH1 0x0 CALLDATASIZE PUSH1 0x3 NOT ADD SLT PUSH2 0x169 JUMPI PUSH1 0x20 PUSH1 0x40 MLOAD PUSH32 0x96095DFC37F9A66C8034A4D38D97353803BD6848D1D396679DA2309AD6F185B4 DUP2 MSTORE RETURN JUMPDEST CALLVALUE PUSH2 0x169 JUMPI PUSH1 0x60 CALLDATASIZE PUSH1 0x3 NOT ADD SLT PUSH2 0x169 JUMPI PUSH1 0x4 CALLDATALOAD PUSH1 0x1 PUSH1 0x1 PUSH1 0x40 SHL SUB DUP2 GT PUSH2 0x169 JUMPI PUSH2 0x32D SWAP1 CALLDATASIZE SWAP1 PUSH1 0x4 ADD PUSH2 0x13C JUMP JUMPDEST PUSH1 0x24 CALLDATALOAD SWAP2 DUP3 ISZERO ISZERO DUP4 SUB PUSH2 0x169 JUMPI PUSH1 0x4 SLOAD PUSH1 0x44 CALLDATALOAD SWAP2 SWAP1 CALLER PUSH1 0x1 PUSH1 0x1 PUSH1 0xA0 SHL SUB SWAP2 DUP3 AND EQ SWAP1 DUP2 ISZERO PUSH2 0x47F JUMPI JUMPDEST POP DUP1 ISZERO PUSH2 0x466 JUMPI JUMPDEST PUSH2 0x368 SWAP1 PUSH2 0xBE5 JUMP JUMPDEST PUSH1 0x40 MLOAD DUP4 DUP3 DUP3 CALLDATACOPY PUSH1 0x20 DUP2 DUP6 DUP2 ADD PUSH1 0x0 DUP2 MSTORE SUB ADD SWAP1 KECCAK256 SWAP3 PUSH2 0x395 PUSH2 0x38E PUSH1 0x1 DUP7 ADD SLOAD PUSH2 0xAA5 JUMP JUMPDEST ISZERO ISZERO PUSH2 0xC49 JUMP JUMPDEST PUSH1 0x6 DUP5 ADD SWAP2 PUSH1 0xFF DUP4 SLOAD AND PUSH2 0x415 JUMPI DUP4 PUSH1 0x7 PUSH32 0xD279284839694EBC5159956471CCA902DB2D8F1BD10A43FFA5A1DF84C63B1037 SWAP7 PUSH2 0x3F9 DUP10 DUP8 PUSH2 0x3E1 PUSH2 0x400 SWAP10 PUSH1 0x1 PUSH1 0xFF NOT DUP3 SLOAD AND OR SWAP1 SSTORE JUMP JUMPDEST SWAP1 PUSH2 0xFF00 DUP3 SLOAD SWAP2 ISZERO ISZERO PUSH1 0x8 SHL AND SWAP1 PUSH2 0xFF00 NOT AND OR SWAP1 SSTORE JUMP JUMPDEST ADD SSTORE PUSH2 0xCA1 JUMP JUMPDEST PUSH1 0x40 DUP1 MLOAD SWAP5 ISZERO ISZERO DUP6 MSTORE PUSH1 0x20 DUP6 ADD SWAP3 SWAP1 SWAP3 MSTORE SWAP3 LOG2 STOP JUMPDEST PUSH1 0x40 MLOAD PUSH3 0x461BCD PUSH1 0xE5 SHL DUP2 MSTORE PUSH1 0x20 PUSH1 0x4 DUP3 ADD MSTORE PUSH1 0x24 DUP1 DUP3 ADD MSTORE PUSH32 0x56616C69646174696F6E52656769737472793A20616C7265616479207265636F PUSH1 0x44 DUP3 ADD MSTORE PUSH4 0x1C991959 PUSH1 0xE2 SHL PUSH1 0x64 DUP3 ADD MSTORE PUSH1 0x84 SWAP1 REVERT JUMPDEST POP CALLER PUSH1 0x0 SWAP1 DUP2 MSTORE PUSH1 0x2 PUSH1 0x20 MSTORE PUSH1 0x40 SWAP1 KECCAK256 SLOAD PUSH1 0xFF AND PUSH2 0x35F JUMP JUMPDEST SWAP1 POP PUSH1 0x5 SLOAD AND CALLER EQ CODESIZE PUSH2 0x357 JUMP JUMPDEST CALLVALUE PUSH2 0x169 JUMPI PUSH1 0x0 CALLDATASIZE PUSH1 0x3 NOT ADD SLT PUSH2 0x169 JUMPI PUSH1 0x20 PUSH1 0x40 MLOAD PUSH32 0x0 DUP2 MSTORE RETURN JUMPDEST PUSH1 0x4 CALLDATALOAD SWAP1 PUSH1 0x1 PUSH1 0x1 PUSH1 0xA0 SHL SUB DUP3 AND DUP3 SUB PUSH2 0x169 JUMPI JUMP JUMPDEST CALLVALUE PUSH2 0x169 JUMPI PUSH1 0x20 CALLDATASIZE PUSH1 0x3 NOT ADD SLT PUSH2 0x169 JUMPI PUSH2 0x4F7 PUSH2 0x4C8 JUMP JUMPDEST PUSH1 0x4 SLOAD PUSH1 0x1 PUSH1 0x1 PUSH1 0xA0 SHL SUB SWAP2 SWAP1 PUSH2 0x511 SWAP1 DUP4 AND CALLER EQ PUSH2 0xCB6 JUMP JUMPDEST AND PUSH1 0x0 DUP2 DUP2 MSTORE PUSH1 0x2 PUSH1 0x20 MSTORE PUSH1 0x40 DUP2 KECCAK256 DUP1 SLOAD PUSH1 0xFF NOT AND SWAP1 SSTORE SWAP1 PUSH32 0xE1434E25D6611E0DB941968FDC97811C982AC1602E951637D206F5FDDA9DD8F1 DUP3 DUP1 LOG2 DUP1 RETURN JUMPDEST CALLVALUE PUSH2 0x169 JUMPI PUSH1 0x20 CALLDATASIZE PUSH1 0x3 NOT ADD SLT PUSH2 0x169 JUMPI PUSH2 0x569 PUSH2 0x4C8 JUMP JUMPDEST PUSH1 0x4 SLOAD PUSH1 0x1 PUSH1 0x1 PUSH1 0xA0 SHL SUB SWAP2 SWAP1 PUSH2 0x583 SWAP1 DUP4 AND CALLER EQ PUSH2 0xCB6 JUMP JUMPDEST AND PUSH1 0x0 DUP2 DUP2 MSTORE PUSH1 0x2 PUSH1 0x20 MSTORE PUSH1 0x40 DUP2 KECCAK256 DUP1 SLOAD PUSH1 0xFF NOT AND PUSH1 0x1 OR SWAP1 SSTORE SWAP1 PUSH32 0xE366C1C0452ED8EEC96861E9E54141EBFF23C9EC89FE27B996B45F5EC3884987 DUP3 DUP1 LOG2 DUP1 RETURN JUMPDEST CALLVALUE PUSH2 0x169 JUMPI PUSH1 0x0 CALLDATASIZE PUSH1 0x3 NOT ADD SLT PUSH2 0x169 JUMPI PUSH1 0x20 PUSH1 0x40 MLOAD PUSH32 0x1EC7E03C4566B17698B4646A50D20FE3919BCC034624C1F7A497211439C8BC1A DUP2 MSTORE RETURN JUMPDEST CALLVALUE PUSH2 0x169 JUMPI PUSH1 0x20 CALLDATASIZE PUSH1 0x3 NOT ADD SLT PUSH2 0x169 JUMPI PUSH1 0x4 CALLDATALOAD PUSH1 0x0 MSTORE PUSH1 0x1 PUSH1 0x20 MSTORE PUSH1 0x20 PUSH1 0x40 PUSH1 0x0 KECCAK256 SLOAD PUSH1 0x40 MLOAD SWAP1 DUP2 MSTORE RETURN JUMPDEST CALLVALUE PUSH2 0x169 JUMPI PUSH1 0x20 CALLDATASIZE PUSH1 0x3 NOT ADD SLT PUSH2 0x169 JUMPI PUSH1 0x1 PUSH1 0x1 PUSH1 0xA0 SHL SUB PUSH2 0x64D PUSH2 0x4C8 JUMP JUMPDEST AND PUSH1 0x0 MSTORE PUSH1 0x2 PUSH1 0x20 MSTORE PUSH1 0x20 PUSH1 0xFF PUSH1 0x40 PUSH1 0x0 KECCAK256 SLOAD AND PUSH1 0x40 MLOAD SWAP1 ISZERO ISZERO DUP2 MSTORE RETURN JUMPDEST PUSH1 0x20 DUP1 DUP3 ADD SWAP1 PUSH1 0x20 DUP4 MSTORE DUP4 MLOAD DUP1 SWAP3 MSTORE PUSH1 0x40 DUP4 ADD SWAP3 PUSH1 0x20 PUSH1 0x40 DUP5 PUSH1 0x5 SHL DUP4 ADD ADD SWAP6 ADD SWAP4 PUSH1 0x0 SWAP2 JUMPDEST DUP5 DUP4 LT PUSH2 0x6A1 JUMPI POP POP POP POP POP POP SWAP1 JUMP JUMPDEST SWAP1 SWAP2 SWAP3 SWAP4 SWAP5 SWAP6 DUP5 DUP1 PUSH2 0x6BF PUSH1 0x1 SWAP4 PUSH1 0x3F NOT DUP7 DUP3 SUB ADD DUP8 MSTORE DUP11 MLOAD PUSH2 0x19C JUMP JUMPDEST SWAP9 ADD SWAP4 ADD SWAP4 ADD SWAP2 SWAP5 SWAP4 SWAP3 SWAP1 PUSH2 0x691 JUMP JUMPDEST CALLVALUE PUSH2 0x169 JUMPI PUSH1 0x20 DUP1 PUSH1 0x3 NOT CALLDATASIZE ADD SLT PUSH2 0x169 JUMPI PUSH1 0x4 CALLDATALOAD PUSH1 0x0 MSTORE PUSH1 0x1 SWAP1 PUSH1 0x1 DUP2 MSTORE PUSH1 0x40 SWAP1 PUSH1 0x40 PUSH1 0x0 KECCAK256 SWAP2 DUP3 SLOAD SWAP2 PUSH1 0x1 PUSH1 0x1 PUSH1 0x40 SHL SUB DUP4 GT PUSH2 0x764 JUMPI PUSH1 0x40 MLOAD SWAP4 SWAP2 PUSH2 0x71D PUSH1 0x5 DUP6 SWAP1 SHL DUP4 ADD DUP7 PUSH2 0xBA7 JUMP JUMPDEST DUP4 DUP6 MSTORE PUSH1 0x0 SWAP3 DUP4 MSTORE DUP2 DUP4 KECCAK256 SWAP1 DUP3 DUP7 ADD JUMPDEST DUP6 DUP6 LT PUSH2 0x742 JUMPI PUSH1 0x40 MLOAD DUP1 PUSH2 0x2BE DUP10 DUP3 PUSH2 0x66B JUMP JUMPDEST DUP8 DUP5 DUP2 SWAP3 DUP5 MLOAD PUSH2 0x756 DUP2 PUSH2 0x2A0 DUP2 DUP11 PUSH2 0xADF JUMP JUMPDEST DUP2 MSTORE ADD SWAP4 ADD SWAP5 ADD SWAP4 SWAP2 PUSH2 0x72D JUMP JUMPDEST PUSH2 0xB75 JUMP JUMPDEST CALLVALUE PUSH2 0x169 JUMPI PUSH1 0x0 CALLDATASIZE PUSH1 0x3 NOT ADD SLT PUSH2 0x169 JUMPI PUSH1 0x20 PUSH1 0x3 SLOAD PUSH1 0x40 MLOAD SWAP1 DUP2 MSTORE RETURN JUMPDEST CALLVALUE PUSH2 0x169 JUMPI PUSH1 0x0 CALLDATASIZE PUSH1 0x3 NOT ADD SLT PUSH2 0x169 JUMPI PUSH1 0x4 SLOAD PUSH1 0x40 MLOAD PUSH1 0x1 PUSH1 0x1 PUSH1 0xA0 SHL SUB SWAP1 SWAP2 AND DUP2 MSTORE PUSH1 0x20 SWAP1 RETURN JUMPDEST CALLVALUE PUSH2 0x169 JUMPI PUSH1 0x9 PUSH1 0x20 PUSH2 0x7C2 CALLDATASIZE PUSH2 0x16E JUMP JUMPDEST SWAP2 SWAP1 DUP3 PUSH1 0x40 MLOAD SWAP4 DUP5 SWAP3 DUP4 CALLDATACOPY DUP2 ADD PUSH1 0x0 DUP2 MSTORE SUB ADD SWAP1 KECCAK256 PUSH2 0x7E7 PUSH2 0x38E PUSH1 0x1 DUP4 ADD SLOAD PUSH2 0xAA5 JUMP JUMPDEST PUSH1 0x1 DUP1 PUSH1 0xA0 SHL SUB PUSH1 0x8 DUP3 ADD SLOAD AND SWAP1 PUSH2 0x815 PUSH1 0xA DUP3 ADD SLOAD SWAP2 PUSH2 0x80E PUSH1 0x40 MLOAD DUP1 SWAP7 DUP2 SWAP4 ADD PUSH2 0xADF JUMP JUMPDEST SUB DUP5 PUSH2 0xBA7 JUMP JUMPDEST PUSH2 0x831 PUSH1 0x40 MLOAD SWAP4 DUP5 SWAP4 DUP5 MSTORE PUSH1 0x60 PUSH1 0x20 DUP6 ADD MSTORE PUSH1 0x60 DUP5 ADD SWAP1 PUSH2 0x19C JUMP JUMPDEST SWAP1 PUSH1 0x40 DUP4 ADD MSTORE SUB SWAP1 RETURN JUMPDEST CALLVALUE PUSH2 0x169 JUMPI PUSH1 0x0 CALLDATASIZE PUSH1 0x3 NOT ADD SLT PUSH2 0x169 JUMPI PUSH1 0x5 SLOAD PUSH1 0x40 MLOAD PUSH1 0x1 PUSH1 0x1 PUSH1 0xA0 SHL SUB SWAP1 SWAP2 AND DUP2 MSTORE PUSH1 0x20 SWAP1 RETURN JUMPDEST CALLVALUE PUSH2 0x169 JUMPI PUSH1 0xC0 CALLDATASIZE PUSH1 0x3 NOT ADD SLT PUSH2 0x169 JUMPI PUSH1 0x1 PUSH1 0x1 PUSH1 0x40 SHL SUB PUSH1 0x24 CALLDATALOAD DUP2 DUP2 GT PUSH2 0x169 JUMPI PUSH2 0x895 SWAP1 CALLDATASIZE SWAP1 PUSH1 0x4 ADD PUSH2 0x13C JUMP JUMPDEST PUSH1 0x44 CALLDATALOAD DUP4 DUP2 GT PUSH2 0x169 JUMPI PUSH2 0x8AD SWAP1 CALLDATASIZE SWAP1 PUSH1 0x4 ADD PUSH2 0x13C JUMP JUMPDEST PUSH1 0x84 SWAP4 SWAP2 SWAP4 CALLDATALOAD DUP6 DUP2 GT PUSH2 0x169 JUMPI PUSH2 0x8C8 SWAP1 CALLDATASIZE SWAP1 PUSH1 0x4 ADD PUSH2 0x13C JUMP JUMPDEST SWAP3 SWAP1 SWAP2 PUSH1 0xA4 CALLDATALOAD SWAP7 DUP8 GT PUSH2 0x169 JUMPI PUSH2 0x8E6 PUSH2 0x8F5 SWAP8 CALLDATASIZE SWAP1 PUSH1 0x4 ADD PUSH2 0x13C JUMP JUMPDEST SWAP7 SWAP1 SWAP6 PUSH1 0x64 CALLDATALOAD SWAP4 PUSH1 0x4 CALLDATALOAD PUSH2 0xD22 JUMP JUMPDEST STOP JUMPDEST CALLVALUE PUSH2 0x169 JUMPI PUSH2 0x2BE PUSH2 0x908 CALLDATASIZE PUSH2 0x16E JUMP JUMPDEST SWAP1 PUSH2 0x970 PUSH1 0x40 MLOAD DUP4 DUP4 DUP3 CALLDATACOPY PUSH1 0x20 DUP2 DUP6 DUP2 ADD PUSH1 0x0 DUP2 MSTORE SUB ADD SWAP1 KECCAK256 SWAP3 PUSH2 0x932 PUSH2 0x38E PUSH1 0x1 DUP7 ADD SLOAD PUSH2 0xAA5 JUMP JUMPDEST DUP4 SLOAD PUSH1 0x3 DUP6 ADD SLOAD PUSH1 0x5 DUP7 ADD SLOAD PUSH1 0x8 DUP8 ADD SLOAD SWAP1 SWAP3 SWAP2 SWAP1 PUSH2 0x95E SWAP1 PUSH1 0x1 PUSH1 0x1 PUSH1 0xA0 SHL SUB AND SWAP7 DUP8 SWAP6 CALLDATASIZE SWAP2 PUSH2 0xFFB JUMP JUMPDEST PUSH2 0x96A PUSH1 0x4 DUP10 ADD PUSH2 0xBC8 JUMP JUMPDEST SWAP3 PUSH2 0x14EB JUMP JUMPDEST PUSH1 0xA DUP4 ADD SLOAD DUP1 SWAP2 EQ SWAP3 DUP4 PUSH2 0x994 JUMPI JUMPDEST POP POP PUSH1 0x40 MLOAD SWAP2 ISZERO ISZERO DUP3 MSTORE POP SWAP1 DUP2 SWAP1 PUSH1 0x20 DUP3 ADD SWAP1 JUMP JUMPDEST PUSH2 0x9AB SWAP4 POP PUSH1 0x9 PUSH2 0x9A5 SWAP2 ADD PUSH2 0xBC8 JUMP JUMPDEST SWAP2 PUSH2 0x15B5 JUMP JUMPDEST CODESIZE DUP1 DUP1 PUSH2 0x97F JUMP JUMPDEST CALLVALUE PUSH2 0x169 JUMPI PUSH1 0xC0 CALLDATASIZE PUSH1 0x3 NOT ADD SLT PUSH2 0x169 JUMPI PUSH1 0x1 PUSH1 0x1 PUSH1 0x40 SHL SUB PUSH1 0x24 CALLDATALOAD DUP2 DUP2 GT PUSH2 0x169 JUMPI PUSH2 0x9E4 SWAP1 CALLDATASIZE SWAP1 PUSH1 0x4 ADD PUSH2 0x13C JUMP JUMPDEST SWAP2 PUSH1 0x64 CALLDATALOAD SWAP1 DUP2 GT PUSH2 0x169 JUMPI PUSH2 0x9FD SWAP1 CALLDATASIZE SWAP1 PUSH1 0x4 ADD PUSH2 0x13C JUMP JUMPDEST SWAP1 SWAP3 PUSH1 0xA4 CALLDATALOAD SWAP2 PUSH1 0x1 PUSH1 0x1 PUSH1 0xA0 SHL SUB DUP4 AND DUP4 SUB PUSH2 0x169 JUMPI PUSH2 0x2BE SWAP5 PUSH2 0xA2B SWAP5 PUSH1 0x84 CALLDATALOAD SWAP4 PUSH1 0x44 CALLDATALOAD SWAP2 PUSH1 0x4 CALLDATALOAD PUSH2 0x14CD JUMP JUMPDEST PUSH1 0x40 MLOAD SWAP1 DUP2 MSTORE SWAP1 DUP2 SWAP1 PUSH1 0x20 DUP3 ADD SWAP1 JUMP JUMPDEST CALLVALUE PUSH2 0x169 JUMPI PUSH1 0x20 CALLDATASIZE PUSH1 0x3 NOT ADD SLT PUSH2 0x169 JUMPI PUSH2 0xA54 PUSH2 0x4C8 JUMP JUMPDEST PUSH1 0x4 SLOAD PUSH1 0x1 PUSH1 0x1 PUSH1 0xA0 SHL SUB SWAP2 SWAP1 PUSH2 0xA6E SWAP1 DUP4 AND CALLER EQ PUSH2 0xCB6 JUMP JUMPDEST AND PUSH12 0xFFFFFFFFFFFFFFFFFFFFFFFF PUSH1 0xA0 SHL PUSH1 0x5 SLOAD AND OR PUSH1 0x5 SSTORE PUSH1 0x0 DUP1 RETURN JUMPDEST PUSH1 0x20 SWAP1 DUP3 PUSH1 0x40 MLOAD SWAP4 DUP5 SWAP3 DUP4 CALLDATACOPY DUP2 ADD PUSH1 0x0 DUP2 MSTORE SUB ADD SWAP1 KECCAK256 SWAP1 JUMP JUMPDEST SWAP1 PUSH1 0x1 DUP3 DUP2 SHR SWAP3 AND DUP1 ISZERO PUSH2 0xAD5 JUMPI JUMPDEST PUSH1 0x20 DUP4 LT EQ PUSH2 0xABF JUMPI JUMP JUMPDEST PUSH4 0x4E487B71 PUSH1 0xE0 SHL PUSH1 0x0 MSTORE PUSH1 0x22 PUSH1 0x4 MSTORE PUSH1 0x24 PUSH1 0x0 REVERT JUMPDEST SWAP2 PUSH1 0x7F AND SWAP2 PUSH2 0xAB4 JUMP JUMPDEST DUP1 SLOAD PUSH1 0x0 SWAP4 SWAP3 PUSH2 0xAEE DUP3 PUSH2 0xAA5 JUMP JUMPDEST SWAP2 DUP3 DUP3 MSTORE PUSH1 0x20 SWAP4 PUSH1 0x1 SWAP2 PUSH1 0x1 DUP2 AND SWAP1 DUP2 PUSH1 0x0 EQ PUSH2 0xB56 JUMPI POP PUSH1 0x1 EQ PUSH2 0xB15 JUMPI JUMPDEST POP POP POP POP POP JUMP JUMPDEST SWAP1 SWAP4 SWAP5 SWAP6 POP PUSH1 0x0 SWAP3 SWAP2 SWAP3 MSTORE DUP4 PUSH1 0x0 KECCAK256 SWAP3 DUP5 PUSH1 0x0 SWAP5 JUMPDEST DUP4 DUP7 LT PUSH2 0xB42 JUMPI POP POP POP POP ADD ADD SWAP1 CODESIZE DUP1 DUP1 DUP1 DUP1 PUSH2 0xB0E JUMP JUMPDEST DUP1 SLOAD DUP6 DUP8 ADD DUP4 ADD MSTORE SWAP5 ADD SWAP4 DUP6 SWAP1 DUP3 ADD PUSH2 0xB2A JUMP JUMPDEST PUSH1 0xFF NOT AND DUP7 DUP6 ADD MSTORE POP POP POP SWAP1 ISZERO ISZERO PUSH1 0x5 SHL ADD ADD SWAP2 POP CODESIZE DUP1 DUP1 DUP1 DUP1 PUSH2 0xB0E JUMP JUMPDEST PUSH4 0x4E487B71 PUSH1 0xE0 SHL PUSH1 0x0 MSTORE PUSH1 0x41 PUSH1 0x4 MSTORE PUSH1 0x24 PUSH1 0x0 REVERT JUMPDEST PUSH2 0x100 DUP2 ADD SWAP1 DUP2 LT PUSH1 0x1 PUSH1 0x1 PUSH1 0x40 SHL SUB DUP3 GT OR PUSH2 0x764 JUMPI PUSH1 0x40 MSTORE JUMP JUMPDEST SWAP1 PUSH1 0x1F DUP1 NOT SWAP2 ADD AND DUP2 ADD SWAP1 DUP2 LT PUSH1 0x1 PUSH1 0x1 PUSH1 0x40 SHL SUB DUP3 GT OR PUSH2 0x764 JUMPI PUSH1 0x40 MSTORE JUMP JUMPDEST SWAP1 PUSH2 0xBE3 PUSH2 0xBDC SWAP3 PUSH1 0x40 MLOAD SWAP4 DUP5 DUP1 SWAP3 PUSH2 0xADF JUMP JUMPDEST SUB DUP4 PUSH2 0xBA7 JUMP JUMPDEST JUMP JUMPDEST ISZERO PUSH2 0xBEC JUMPI JUMP JUMPDEST PUSH1 0x40 MLOAD PUSH3 0x461BCD PUSH1 0xE5 SHL DUP2 MSTORE PUSH1 0x20 PUSH1 0x4 DUP3 ADD MSTORE PUSH1 0x22 PUSH1 0x24 DUP3 ADD MSTORE PUSH32 0x56616C69646174696F6E52656769737472793A206E6F7420617574686F72697A PUSH1 0x44 DUP3 ADD MSTORE PUSH2 0x1959 PUSH1 0xF2 SHL PUSH1 0x64 DUP3 ADD MSTORE PUSH1 0x84 SWAP1 REVERT JUMPDEST PUSH2 0xC46 SWAP1 SLOAD PUSH2 0xAA5 JUMP JUMPDEST SWAP1 JUMP JUMPDEST ISZERO PUSH2 0xC50 JUMPI JUMP JUMPDEST PUSH1 0x40 MLOAD PUSH3 0x461BCD PUSH1 0xE5 SHL DUP2 MSTORE PUSH1 0x20 PUSH1 0x4 DUP3 ADD MSTORE PUSH1 0x23 PUSH1 0x24 DUP3 ADD MSTORE PUSH32 0x56616C69646174696F6E52656769737472793A207472616465206E6F7420666F PUSH1 0x44 DUP3 ADD MSTORE PUSH3 0x1D5B99 PUSH1 0xEA SHL PUSH1 0x64 DUP3 ADD MSTORE PUSH1 0x84 SWAP1 REVERT JUMPDEST DUP2 PUSH1 0x40 MLOAD SWAP3 DUP4 SWAP3 DUP4 CALLDATACOPY DUP2 ADD PUSH1 0x0 DUP2 MSTORE SUB SWAP1 KECCAK256 SWAP1 JUMP JUMPDEST ISZERO PUSH2 0xCBD JUMPI JUMP JUMPDEST PUSH1 0x40 MLOAD PUSH3 0x461BCD PUSH1 0xE5 SHL DUP2 MSTORE PUSH1 0x20 PUSH1 0x4 DUP3 ADD MSTORE PUSH1 0x1D PUSH1 0x24 DUP3 ADD MSTORE PUSH32 0x56616C69646174696F6E52656769737472793A206E6F74206F776E6572000000 PUSH1 0x44 DUP3 ADD MSTORE PUSH1 0x64 SWAP1 REVERT JUMPDEST PUSH1 0x40 MLOAD SWAP1 PUSH2 0x180 DUP3 ADD DUP3 DUP2 LT PUSH1 0x1 PUSH1 0x1 PUSH1 0x40 SHL SUB DUP3 GT OR PUSH2 0x764 JUMPI PUSH1 0x40 MSTORE JUMP JUMPDEST DUP3 SWAP4 PUSH2 0xE58 DUP10 SWAP11 DUP10 SWAP13 PUSH2 0xE2B PUSH32 0x762BA33AD2BC68D518AE479E216850CB97A85007D56136DE9BFB72C6E5E74523 SWAP12 DUP7 SWAP14 PUSH2 0xDFE PUSH2 0xEA9 SWAP13 PUSH2 0xDDB DUP16 PUSH2 0xDCB DUP14 SWAP15 SWAP14 PUSH2 0xE73 SWAP15 PUSH1 0x1 DUP1 PUSH1 0xA0 SHL SUB DUP1 PUSH1 0x4 SLOAD AND CALLER EQ SWAP1 DUP2 ISZERO PUSH2 0xEDB JUMPI JUMPDEST POP DUP1 ISZERO PUSH2 0xEC2 JUMPI JUMPDEST PUSH2 0xD8E SWAP1 PUSH2 0xBE5 JUMP JUMPDEST PUSH2 0xD99 DUP2 ISZERO ISZERO PUSH2 0xEE9 JUMP JUMPDEST PUSH2 0xDB7 PUSH2 0xDB1 PUSH1 0x1 PUSH2 0xDAB DUP5 DUP7 PUSH2 0xA8C JUMP JUMPDEST ADD PUSH2 0xC3C JUMP JUMPDEST ISZERO PUSH2 0xF41 JUMP JUMPDEST PUSH2 0xDC4 PUSH1 0x64 DUP6 GT ISZERO PUSH2 0xFA0 JUMP JUMPDEST CALLDATASIZE SWAP2 PUSH2 0xFFB JUMP JUMPDEST DUP13 CALLER SWAP3 TIMESTAMP SWAP3 PUSH2 0x96A CALLDATASIZE DUP11 DUP13 PUSH2 0xFFB JUMP JUMPDEST SWAP9 PUSH2 0xDF9 PUSH2 0xDF4 PUSH2 0xDED CALLDATASIZE DUP11 DUP13 PUSH2 0xFFB JUMP JUMPDEST DUP13 CALLER PUSH2 0x15B5 JUMP JUMPDEST PUSH2 0x1041 JUMP JUMPDEST PUSH2 0x164B JUMP JUMPDEST PUSH2 0xE06 PUSH2 0xD02 JUMP JUMPDEST SWAP9 DUP10 MSTORE PUSH2 0xE14 CALLDATASIZE DUP14 DUP14 PUSH2 0xFFB JUMP JUMPDEST PUSH1 0x20 DUP11 ADD MSTORE PUSH1 0x40 DUP10 ADD MSTORE DUP13 PUSH1 0x60 DUP10 ADD MSTORE CALLDATASIZE SWAP2 PUSH2 0xFFB JUMP JUMPDEST PUSH1 0x80 DUP7 ADD MSTORE TIMESTAMP PUSH1 0xA0 DUP7 ADD MSTORE PUSH1 0x0 PUSH1 0xC0 DUP7 ADD DUP2 SWAP1 MSTORE PUSH1 0xE0 DUP7 ADD DUP2 SWAP1 MSTORE PUSH2 0x100 DUP7 ADD MSTORE CALLER PUSH2 0x120 DUP7 ADD MSTORE PUSH2 0xDC4 JUMP JUMPDEST PUSH2 0x140 DUP4 ADD MSTORE PUSH2 0x160 DUP3 ADD MSTORE PUSH2 0xE6E DUP5 DUP5 PUSH2 0xA8C JUMP JUMPDEST PUSH2 0x1275 JUMP JUMPDEST PUSH2 0xE91 DUP3 DUP3 PUSH2 0xE8C DUP10 PUSH1 0x0 MSTORE PUSH1 0x1 PUSH1 0x20 MSTORE PUSH1 0x40 PUSH1 0x0 KECCAK256 SWAP1 JUMP JUMPDEST PUSH2 0x136E JUMP JUMPDEST PUSH2 0xEA4 PUSH2 0xE9F PUSH1 0x3 SLOAD PUSH2 0x1474 JUMP JUMPDEST PUSH1 0x3 SSTORE JUMP JUMPDEST PUSH2 0xCA1 JUMP JUMPDEST SWAP4 PUSH2 0xEBD PUSH1 0x40 MLOAD SWAP3 DUP4 SWAP3 CALLER SWAP9 TIMESTAMP SWAP3 DUP6 PUSH2 0x1499 JUMP JUMPDEST SUB SWAP1 LOG4 JUMP JUMPDEST POP CALLER PUSH1 0x0 SWAP1 DUP2 MSTORE PUSH1 0x2 PUSH1 0x20 MSTORE PUSH1 0x40 SWAP1 KECCAK256 SLOAD PUSH1 0xFF AND PUSH2 0xD85 JUMP JUMPDEST SWAP1 POP PUSH1 0x5 SLOAD AND CALLER EQ CODESIZE PUSH2 0xD7D JUMP JUMPDEST ISZERO PUSH2 0xEF0 JUMPI JUMP JUMPDEST PUSH1 0x40 MLOAD PUSH3 0x461BCD PUSH1 0xE5 SHL DUP2 MSTORE PUSH1 0x20 PUSH1 0x4 DUP3 ADD MSTORE PUSH1 0x24 DUP1 DUP3 ADD MSTORE PUSH32 0x56616C69646174696F6E52656769737472793A20747261646549642072657175 PUSH1 0x44 DUP3 ADD MSTORE PUSH4 0x1A5C9959 PUSH1 0xE2 SHL PUSH1 0x64 DUP3 ADD MSTORE PUSH1 0x84 SWAP1 REVERT JUMPDEST ISZERO PUSH2 0xF48 JUMPI JUMP JUMPDEST PUSH1 0x40 MLOAD PUSH3 0x461BCD PUSH1 0xE5 SHL DUP2 MSTORE PUSH1 0x20 PUSH1 0x4 DUP3 ADD MSTORE PUSH1 0x2A PUSH1 0x24 DUP3 ADD MSTORE PUSH32 0x56616C69646174696F6E52656769737472793A207472616465496420616C7265 PUSH1 0x44 DUP3 ADD MSTORE PUSH10 0x18591E481CDD1BDC9959 PUSH1 0xB2 SHL PUSH1 0x64 DUP3 ADD MSTORE PUSH1 0x84 SWAP1 REVERT JUMPDEST ISZERO PUSH2 0xFA7 JUMPI JUMP JUMPDEST PUSH1 0x40 MLOAD PUSH3 0x461BCD PUSH1 0xE5 SHL DUP2 MSTORE PUSH1 0x20 PUSH1 0x4 DUP3 ADD MSTORE PUSH1 0x26 PUSH1 0x24 DUP3 ADD MSTORE PUSH32 0x56616C69646174696F6E52656769737472793A20696E76616C696420636F6E66 PUSH1 0x44 DUP3 ADD MSTORE PUSH6 0x6964656E6365 PUSH1 0xD0 SHL PUSH1 0x64 DUP3 ADD MSTORE PUSH1 0x84 SWAP1 REVERT JUMPDEST SWAP3 SWAP2 SWAP3 PUSH1 0x1 PUSH1 0x1 PUSH1 0x40 SHL SUB DUP3 GT PUSH2 0x764 JUMPI PUSH1 0x40 MLOAD SWAP2 PUSH2 0x1024 PUSH1 0x1F DUP3 ADD PUSH1 0x1F NOT AND PUSH1 0x20 ADD DUP5 PUSH2 0xBA7 JUMP JUMPDEST DUP3 SWAP5 DUP2 DUP5 MSTORE DUP2 DUP4 ADD GT PUSH2 0x169 JUMPI DUP3 DUP2 PUSH1 0x20 SWAP4 DUP5 PUSH1 0x0 SWAP7 ADD CALLDATACOPY ADD ADD MSTORE JUMP JUMPDEST ISZERO PUSH2 0x1048 JUMPI JUMP JUMPDEST PUSH1 0x40 MLOAD PUSH3 0x461BCD PUSH1 0xE5 SHL DUP2 MSTORE PUSH1 0x20 PUSH1 0x4 DUP3 ADD MSTORE PUSH1 0x2F PUSH1 0x24 DUP3 ADD MSTORE PUSH32 0x56616C69646174696F6E52656769737472793A20696E76616C69642076616C69 PUSH1 0x44 DUP3 ADD MSTORE PUSH15 0x6461746F72207369676E6174757265 PUSH1 0x88 SHL PUSH1 0x64 DUP3 ADD MSTORE PUSH1 0x84 SWAP1 REVERT JUMPDEST SWAP1 PUSH1 0x1F DUP2 GT PUSH2 0x10B3 JUMPI POP POP POP JUMP JUMPDEST PUSH1 0x0 SWAP2 PUSH1 0x0 MSTORE PUSH1 0x20 PUSH1 0x0 KECCAK256 SWAP1 PUSH1 0x20 PUSH1 0x1F DUP6 ADD PUSH1 0x5 SHR DUP4 ADD SWAP5 LT PUSH2 0x10F1 JUMPI JUMPDEST PUSH1 0x1F ADD PUSH1 0x5 SHR ADD SWAP2 JUMPDEST DUP3 DUP2 LT PUSH2 0x10E6 JUMPI POP POP POP JUMP JUMPDEST DUP2 DUP2 SSTORE PUSH1 0x1 ADD PUSH2 0x10DA JUMP JUMPDEST SWAP1 SWAP3 POP DUP3 SWAP1 PUSH2 0x10D1 JUMP JUMPDEST SWAP2 SWAP1 SWAP2 DUP3 MLOAD PUSH1 0x1 PUSH1 0x1 PUSH1 0x40 SHL SUB DUP2 GT PUSH2 0x764 JUMPI PUSH2 0x1122 DUP2 PUSH2 0x111C DUP5 SLOAD PUSH2 0xAA5 JUMP JUMPDEST DUP5 PUSH2 0x10A5 JUMP JUMPDEST PUSH1 0x20 DUP1 PUSH1 0x1F DUP4 GT PUSH1 0x1 EQ PUSH2 0x1165 JUMPI POP DUP2 SWAP1 PUSH2 0x1156 SWAP4 SWAP5 SWAP6 PUSH1 0x0 SWAP3 PUSH2 0x115A JUMPI JUMPDEST POP POP DUP2 PUSH1 0x1 SHL SWAP2 PUSH1 0x0 NOT SWAP1 PUSH1 0x3 SHL SHR NOT AND OR SWAP1 JUMP JUMPDEST SWAP1 SSTORE JUMP JUMPDEST ADD MLOAD SWAP1 POP CODESIZE DUP1 PUSH2 0x1141 JUMP JUMPDEST SWAP1 PUSH1 0x1F NOT DUP4 AND SWAP6 PUSH2 0x117B DUP6 PUSH1 0x0 MSTORE PUSH1 0x20 PUSH1 0x0 KECCAK256 SWAP1 JUMP JUMPDEST SWAP3 PUSH1 0x0 SWAP1 JUMPDEST DUP9 DUP3 LT PUSH2 0x11B8 JUMPI POP POP DUP4 PUSH1 0x1 SWAP6 SWAP7 SWAP8 LT PUSH2 0x119F JUMPI JUMPDEST POP POP POP DUP2 SHL ADD SWAP1 SSTORE JUMP JUMPDEST ADD MLOAD PUSH1 0x0 NOT PUSH1 0xF8 DUP5 PUSH1 0x3 SHL AND SHR NOT AND SWAP1 SSTORE CODESIZE DUP1 DUP1 PUSH2 0x1195 JUMP JUMPDEST DUP1 PUSH1 0x1 DUP6 SWAP7 DUP3 SWAP5 SWAP7 DUP7 ADD MLOAD DUP2 SSTORE ADD SWAP6 ADD SWAP4 ADD SWAP1 PUSH2 0x1180 JUMP JUMPDEST SWAP2 SWAP1 SWAP2 DUP3 MLOAD PUSH1 0x1 PUSH1 0x1 PUSH1 0x40 SHL SUB DUP2 GT PUSH2 0x764 JUMPI PUSH2 0x11F1 DUP2 PUSH2 0x111C DUP5 SLOAD PUSH2 0xAA5 JUMP JUMPDEST PUSH1 0x20 DUP1 PUSH1 0x1F DUP4 GT PUSH1 0x1 EQ PUSH2 0x1224 JUMPI POP DUP2 SWAP1 PUSH2 0x1156 SWAP4 SWAP5 SWAP6 PUSH1 0x0 SWAP3 PUSH2 0x115A JUMPI POP POP DUP2 PUSH1 0x1 SHL SWAP2 PUSH1 0x0 NOT SWAP1 PUSH1 0x3 SHL SHR NOT AND OR SWAP1 JUMP JUMPDEST SWAP1 PUSH1 0x1F NOT DUP4 AND SWAP6 PUSH2 0x123A DUP6 PUSH1 0x0 MSTORE PUSH1 0x20 PUSH1 0x0 KECCAK256 SWAP1 JUMP JUMPDEST SWAP3 PUSH1 0x0 SWAP1 JUMPDEST DUP9 DUP3 LT PUSH2 0x125D JUMPI POP POP DUP4 PUSH1 0x1 SWAP6 SWAP7 SWAP8 LT PUSH2 0x119F JUMPI POP POP POP DUP2 SHL ADD SWAP1 SSTORE JUMP JUMPDEST DUP1 PUSH1 0x1 DUP6 SWAP7 DUP3 SWAP5 SWAP7 DUP7 ADD MLOAD DUP2 SSTORE ADD SWAP6 ADD SWAP4 ADD SWAP1 PUSH2 0x123F JUMP JUMPDEST SWAP1 PUSH2 0x160 PUSH1 0xA SWAP2 DUP1 MLOAD DUP5 SSTORE PUSH2 0x1291 PUSH1 0x20 DUP3 ADD MLOAD PUSH1 0x1 DUP7 ADD PUSH2 0x10FB JUMP JUMPDEST PUSH2 0x12A2 PUSH1 0x40 DUP3 ADD MLOAD PUSH1 0x2 DUP7 ADD PUSH2 0x10FB JUMP JUMPDEST PUSH1 0x60 DUP2 ADD MLOAD PUSH1 0x3 DUP6 ADD SSTORE PUSH2 0x12BD PUSH1 0x80 DUP3 ADD MLOAD PUSH1 0x4 DUP7 ADD PUSH2 0x10FB JUMP JUMPDEST PUSH1 0xA0 DUP2 ADD MLOAD PUSH1 0x5 DUP6 ADD SSTORE PUSH2 0x130D PUSH1 0x6 DUP6 ADD PUSH2 0x12F0 PUSH2 0x12DE PUSH1 0xC0 DUP6 ADD MLOAD ISZERO ISZERO SWAP1 JUMP JUMPDEST DUP3 SWAP1 PUSH1 0xFF DUP1 NOT DUP4 SLOAD AND SWAP2 ISZERO ISZERO AND OR SWAP1 SSTORE JUMP JUMPDEST PUSH1 0xE0 DUP4 ADD MLOAD ISZERO ISZERO DUP2 SLOAD PUSH2 0xFF00 NOT AND SWAP1 ISZERO ISZERO PUSH1 0x8 SHL PUSH2 0xFF00 AND OR SWAP1 SSTORE JUMP JUMPDEST PUSH2 0x100 DUP2 ADD MLOAD PUSH1 0x7 DUP6 ADD SSTORE PUSH2 0x120 DUP2 ADD MLOAD PUSH1 0x8 DUP6 ADD DUP1 SLOAD PUSH1 0x1 PUSH1 0x1 PUSH1 0xA0 SHL SUB NOT AND PUSH1 0x1 PUSH1 0x1 PUSH1 0xA0 SHL SUB SWAP1 SWAP3 AND SWAP2 SWAP1 SWAP2 OR SWAP1 SSTORE PUSH2 0x1351 PUSH2 0x140 DUP3 ADD MLOAD PUSH1 0x9 DUP7 ADD PUSH2 0x11D0 JUMP JUMPDEST ADD MLOAD SWAP2 ADD SSTORE JUMP JUMPDEST PUSH4 0x4E487B71 PUSH1 0xE0 SHL PUSH1 0x0 MSTORE PUSH1 0x32 PUSH1 0x4 MSTORE PUSH1 0x24 PUSH1 0x0 REVERT JUMPDEST SWAP3 SWAP2 DUP4 SLOAD SWAP4 PUSH9 0x10000000000000000 DUP6 LT ISZERO PUSH2 0x764 JUMPI PUSH1 0x1 SWAP1 PUSH1 0x1 DUP7 ADD DUP1 DUP3 SSTORE DUP7 LT ISZERO PUSH2 0x146F JUMPI PUSH1 0x0 MSTORE PUSH1 0x20 SWAP5 PUSH1 0x20 PUSH1 0x0 KECCAK256 ADD SWAP3 PUSH1 0x1 PUSH1 0x1 PUSH1 0x40 SHL SUB DUP4 GT PUSH2 0x764 JUMPI PUSH2 0x13C4 DUP4 PUSH2 0x13BE DUP7 SLOAD PUSH2 0xAA5 JUMP JUMPDEST DUP7 PUSH2 0x10A5 JUMP JUMPDEST PUSH1 0x0 SWAP2 PUSH1 0x1F DUP5 GT PUSH1 0x1 EQ PUSH2 0x1404 JUMPI POP PUSH2 0x1156 SWAP4 SWAP5 SWAP6 POP SWAP1 DUP3 SWAP2 PUSH1 0x0 SWAP3 PUSH2 0x13F9 JUMPI POP POP DUP2 PUSH1 0x1 SHL SWAP2 PUSH1 0x0 NOT SWAP1 PUSH1 0x3 SHL SHR NOT AND OR SWAP1 JUMP JUMPDEST ADD CALLDATALOAD SWAP1 POP CODESIZE DUP1 PUSH2 0x1141 JUMP JUMPDEST SWAP6 SWAP2 PUSH1 0x1F NOT DUP5 AND SWAP7 PUSH2 0x141B DUP7 PUSH1 0x0 MSTORE PUSH1 0x20 PUSH1 0x0 KECCAK256 SWAP1 JUMP JUMPDEST SWAP4 DUP3 SWAP2 JUMPDEST DUP10 DUP4 LT PUSH2 0x1458 JUMPI POP POP POP DUP4 PUSH1 0x1 SWAP6 SWAP7 SWAP8 LT PUSH2 0x143E JUMPI POP POP POP DUP2 SHL ADD SWAP1 SSTORE JUMP JUMPDEST ADD CALLDATALOAD PUSH1 0x0 NOT PUSH1 0x3 DUP5 SWAP1 SHL PUSH1 0xF8 AND SHR NOT AND SWAP1 SSTORE CODESIZE DUP1 DUP1 PUSH2 0x1195 JUMP JUMPDEST DUP5 DUP5 ADD CALLDATALOAD DUP7 SSTORE SWAP5 DUP6 ADD SWAP5 SWAP3 DUP2 ADD SWAP3 SWAP2 DUP2 ADD SWAP2 PUSH2 0x141F JUMP JUMPDEST PUSH2 0x1358 JUMP JUMPDEST PUSH1 0x0 NOT DUP2 EQ PUSH2 0x1483 JUMPI PUSH1 0x1 ADD SWAP1 JUMP JUMPDEST PUSH4 0x4E487B71 PUSH1 0xE0 SHL PUSH1 0x0 MSTORE PUSH1 0x11 PUSH1 0x4 MSTORE PUSH1 0x24 PUSH1 0x0 REVERT JUMPDEST SWAP5 SWAP4 SWAP3 DUP1 PUSH1 0x40 SWAP4 PUSH1 0x80 SWAP4 DUP9 MSTORE PUSH1 0x60 PUSH1 0x20 DUP10 ADD MSTORE DUP2 PUSH1 0x60 DUP10 ADD MSTORE DUP4 DUP9 ADD CALLDATACOPY PUSH1 0x0 DUP3 DUP3 DUP9 ADD ADD MSTORE PUSH1 0x1F DUP1 NOT SWAP2 ADD AND DUP6 ADD ADD SWAP4 ADD MSTORE JUMP JUMPDEST SWAP4 PUSH2 0x14E3 PUSH2 0x96A SWAP3 PUSH2 0xC46 SWAP10 SWAP9 SWAP8 SWAP5 CALLDATASIZE SWAP2 PUSH2 0xFFB JUMP JUMPDEST SWAP3 CALLDATASIZE SWAP2 PUSH2 0xFFB JUMP JUMPDEST SWAP5 SWAP3 SWAP4 SWAP2 SWAP1 PUSH1 0x20 DUP2 MLOAD SWAP2 ADD KECCAK256 SWAP4 PUSH1 0x20 DUP2 MLOAD SWAP2 ADD KECCAK256 SWAP1 PUSH1 0x40 MLOAD SWAP5 PUSH1 0x20 DUP7 ADD SWAP7 PUSH32 0x96095DFC37F9A66C8034A4D38D97353803BD6848D1D396679DA2309AD6F185B4 DUP9 MSTORE PUSH1 0x40 DUP8 ADD MSTORE PUSH1 0x60 DUP7 ADD MSTORE PUSH1 0x80 DUP6 ADD MSTORE PUSH1 0xA0 DUP5 ADD MSTORE PUSH1 0xC0 DUP4 ADD MSTORE PUSH1 0x1 DUP1 PUSH1 0xA0 SHL SUB AND PUSH1 0xE0 DUP3 ADD MSTORE PUSH1 0xE0 DUP2 MSTORE PUSH2 0x155F DUP2 PUSH2 0xB8B JUMP JUMPDEST MLOAD SWAP1 KECCAK256 PUSH1 0x40 MLOAD PUSH2 0x1901 PUSH1 0xF0 SHL PUSH1 0x20 DUP3 ADD SWAP1 DUP2 MSTORE PUSH32 0x0 PUSH1 0x22 DUP4 ADD MSTORE PUSH1 0x42 DUP1 DUP4 ADD SWAP4 SWAP1 SWAP4 MSTORE SWAP2 DUP2 MSTORE PUSH2 0x15AF PUSH1 0x62 DUP3 PUSH2 0xBA7 JUMP JUMPDEST MLOAD SWAP1 KECCAK256 SWAP1 JUMP JUMPDEST SWAP2 PUSH1 0x41 DUP2 MLOAD SUB PUSH2 0x1632 JUMPI DUP1 PUSH1 0x80 PUSH1 0x20 DUP1 SWAP4 ADD MLOAD SWAP4 PUSH1 0x60 PUSH1 0x40 DUP5 ADD MLOAD SWAP4 ADD MLOAD SWAP3 PUSH1 0x0 SWAP6 DUP7 SWAP5 PUSH1 0x40 MLOAD SWAP4 DUP5 MSTORE DUP6 BYTE DUP7 DUP5 ADD MSTORE PUSH1 0x40 DUP4 ADD MSTORE PUSH1 0x60 DUP3 ADD MSTORE DUP3 DUP1 MSTORE PUSH1 0x1 GAS STATICCALL ISZERO PUSH2 0x1626 JUMPI MLOAD PUSH1 0x1 PUSH1 0x1 PUSH1 0xA0 SHL SUB SWAP1 DUP2 AND DUP1 ISZERO ISZERO SWAP3 SWAP1 SWAP2 SWAP1 DUP4 PUSH2 0x161A JUMPI JUMPDEST POP POP POP SWAP1 JUMP JUMPDEST AND EQ SWAP1 POP CODESIZE DUP1 DUP1 PUSH2 0x1614 JUMP JUMPDEST PUSH1 0x40 MLOAD SWAP1 RETURNDATASIZE SWAP1 DUP3 RETURNDATACOPY RETURNDATASIZE SWAP1 REVERT JUMPDEST POP POP POP PUSH1 0x0 SWAP1 JUMP JUMPDEST SWAP1 DUP2 MLOAD DUP2 LT ISZERO PUSH2 0x146F JUMPI ADD PUSH1 0x20 ADD SWAP1 JUMP JUMPDEST PUSH2 0x100 DUP1 DUP4 GT ISZERO PUSH2 0x16BF JUMPI PUSH1 0x40 MLOAD SWAP3 PUSH2 0x120 DUP5 ADD DUP5 DUP2 LT PUSH1 0x1 PUSH1 0x1 PUSH1 0x40 SHL SUB DUP3 GT OR PUSH2 0x764 JUMPI PUSH1 0x40 MSTORE DUP2 DUP5 MSTORE DUP2 CALLDATASIZE PUSH1 0x20 DUP7 ADD CALLDATACOPY PUSH1 0x0 SWAP1 PUSH1 0x0 JUMPDEST DUP4 DUP2 LT PUSH2 0x1693 JUMPI POP POP POP POP POP SWAP1 JUMP JUMPDEST DUP2 DUP2 LT ISZERO PUSH2 0x146F JUMPI PUSH1 0x1 SWAP1 DUP6 DUP2 ADD CALLDATALOAD PUSH1 0x1 PUSH1 0x1 PUSH1 0xF8 SHL SUB NOT AND DUP5 BYTE PUSH2 0x16B8 DUP3 DUP10 PUSH2 0x163A JUMP JUMPDEST MSTORE8 ADD PUSH2 0x1684 JUMP JUMPDEST POP PUSH2 0xC46 SWAP2 CALLDATASIZE SWAP2 PUSH2 0xFFB JUMP INVALID LOG2 PUSH5 0x6970667358 0x22 SLT KECCAK256 0xCF SLOAD DUP9 PUSH8 0x4CD347E19EABDECE PUSH4 0x6287ECBA BLOBHASH 0xDC 0xE6 0xD5 0xE 0xB5 BALANCE ADD 0xC3 STATICCALL 0xCC PUSH30 0x43FA364736F6C6343000818003300000000000000000000000000000000 "},"methodIdentifiers":{"DOMAIN_SEPARATOR()":"3644e515","OUTCOME_TYPEHASH()":"4d50b5a4","VALIDATION_TYPEHASH()":"2bec6e43","addValidator(address)":"4d238c8e","authorizedCaller()":"97dc97cb","authorizedValidators(address)":"58714163","computeArtifactHash(uint256,string,uint256,string,uint256,address)":"cc1830f0","getAgentTradeCount(uint256)":"528633ce","getAgentTradeIds(uint256)":"5fb3c2c2","getValidation(string)":"26b94b2c","getValidationArtifact(string)":"92c2d8a9","owner()":"8da5cb5b","recordOutcome(string,bool,int256)":"3144f0fa","removeValidator(address)":"40a141ff","setAuthorizedCaller(address)":"cf8fbec9","storeValidation(uint256,string,string,uint256,string,bytes)":"c770be69","totalValidations()":"7e83514b","verifyValidationArtifact(string)":"c868d47b"}}}}}