{"contracts/RiskRouter.sol":{"RiskRouter":{"abi":[{"inputs":[{"internalType":"address","name":"_agentRegistry","type":"address"}],"stateMutability":"nonpayable","type":"constructor"},{"anonymous":false,"inputs":[{"indexed":false,"internalType":"address","name":"dexRouter","type":"address"}],"name":"DEXRouterUpdated","type":"event"},{"anonymous":false,"inputs":[{"indexed":false,"internalType":"uint256","name":"maxSingleTradeUsd","type":"uint256"},{"indexed":false,"internalType":"uint256","name":"maxDailyLossUsd","type":"uint256"}],"name":"LimitsUpdated","type":"event"},{"anonymous":false,"inputs":[{"indexed":false,"internalType":"string","name":"token","type":"string"},{"indexed":false,"internalType":"bool","name":"allowed","type":"bool"}],"name":"TokenAllowlistUpdated","type":"event"},{"anonymous":false,"inputs":[{"indexed":true,"internalType":"uint256","name":"agentId","type":"uint256"},{"indexed":true,"internalType":"address","name":"wallet","type":"address"},{"indexed":false,"internalType":"bytes32","name":"tradeHash","type":"bytes32"},{"indexed":false,"internalType":"string","name":"tokenPair","type":"string"},{"indexed":false,"internalType":"string","name":"action","type":"string"},{"indexed":false,"internalType":"uint256","name":"amountUsd","type":"uint256"}],"name":"TradeApproved","type":"event"},{"anonymous":false,"inputs":[{"indexed":true,"internalType":"uint256","name":"agentId","type":"uint256"},{"indexed":false,"internalType":"bytes32","name":"tradeHash","type":"bytes32"},{"indexed":false,"internalType":"uint256[]","name":"amounts","type":"uint256[]"}],"name":"TradeExecuted","type":"event"},{"anonymous":false,"inputs":[{"indexed":true,"internalType":"uint256","name":"agentId","type":"uint256"},{"indexed":false,"internalType":"bytes32","name":"tradeHash","type":"bytes32"},{"indexed":false,"internalType":"string","name":"reason","type":"string"}],"name":"TradeRejected","type":"event"},{"inputs":[],"name":"DOMAIN_SEPARATOR","outputs":[{"internalType":"bytes32","name":"","type":"bytes32"}],"stateMutability":"view","type":"function"},{"inputs":[],"name":"TRADE_TYPEHASH","outputs":[{"internalType":"bytes32","name":"","type":"bytes32"}],"stateMutability":"view","type":"function"},{"inputs":[{"internalType":"uint256","name":"","type":"uint256"}],"name":"agentDailyStats","outputs":[{"internalType":"uint256","name":"date","type":"uint256"},{"internalType":"uint256","name":"totalLossUsd","type":"uint256"},{"internalType":"uint256","name":"tradeCount","type":"uint256"}],"stateMutability":"view","type":"function"},{"inputs":[{"internalType":"uint256","name":"","type":"uint256"}],"name":"agentNonces","outputs":[{"internalType":"uint256","name":"","type":"uint256"}],"stateMutability":"view","type":"function"},{"inputs":[],"name":"agentRegistry","outputs":[{"internalType":"contract AgentRegistry","name":"","type":"address"}],"stateMutability":"view","type":"function"},{"inputs":[{"internalType":"string","name":"","type":"string"}],"name":"allowedTokens","outputs":[{"internalType":"bool","name":"","type":"bool"}],"stateMutability":"view","type":"function"},{"inputs":[],"name":"dexRouter","outputs":[{"internalType":"contract IDEXRouter","name":"","type":"address"}],"stateMutability":"view","type":"function"},{"inputs":[{"internalType":"uint256","name":"agentId","type":"uint256"}],"name":"getAgentNonce","outputs":[{"internalType":"uint256","name":"","type":"uint256"}],"stateMutability":"view","type":"function"},{"inputs":[{"internalType":"bytes32","name":"tradeHash","type":"bytes32"}],"name":"isTradeProcessed","outputs":[{"internalType":"bool","name":"","type":"bool"}],"stateMutability":"view","type":"function"},{"inputs":[],"name":"maxDailyLossUsd","outputs":[{"internalType":"uint256","name":"","type":"uint256"}],"stateMutability":"view","type":"function"},{"inputs":[],"name":"maxSingleTradeUsd","outputs":[{"internalType":"uint256","name":"","type":"uint256"}],"stateMutability":"view","type":"function"},{"inputs":[],"name":"minConfidence","outputs":[{"internalType":"uint256","name":"","type":"uint256"}],"stateMutability":"view","type":"function"},{"inputs":[],"name":"owner","outputs":[{"internalType":"address","name":"","type":"address"}],"stateMutability":"view","type":"function"},{"inputs":[{"internalType":"bytes32","name":"","type":"bytes32"}],"name":"processedTrades","outputs":[{"internalType":"bool","name":"","type":"bool"}],"stateMutability":"view","type":"function"},{"inputs":[{"internalType":"address","name":"router","type":"address"}],"name":"setDEXRouter","outputs":[],"stateMutability":"nonpayable","type":"function"},{"inputs":[{"internalType":"uint256","name":"maxSingle","type":"uint256"},{"internalType":"uint256","name":"maxDaily","type":"uint256"}],"name":"setLimits","outputs":[],"stateMutability":"nonpayable","type":"function"},{"inputs":[{"internalType":"uint256","name":"threshold","type":"uint256"}],"name":"setMinConfidence","outputs":[],"stateMutability":"nonpayable","type":"function"},{"inputs":[{"internalType":"string","name":"token","type":"string"},{"internalType":"bool","name":"allowed","type":"bool"}],"name":"setTokenAllowed","outputs":[],"stateMutability":"nonpayable","type":"function"},{"inputs":[{"components":[{"internalType":"uint256","name":"agentId","type":"uint256"},{"internalType":"string","name":"tokenPair","type":"string"},{"internalType":"string","name":"action","type":"string"},{"internalType":"uint256","name":"amountUsd","type":"uint256"},{"internalType":"uint256","name":"confidence","type":"uint256"},{"internalType":"string","name":"reason","type":"string"},{"internalType":"uint256","name":"nonce","type":"uint256"},{"internalType":"uint256","name":"deadline","type":"uint256"},{"internalType":"address","name":"tokenIn","type":"address"},{"internalType":"address","name":"tokenOut","type":"address"},{"internalType":"uint256","name":"amountIn","type":"uint256"},{"internalType":"uint256","name":"amountOutMin","type":"uint256"}],"internalType":"struct RiskRouter.TradeIntent","name":"intent","type":"tuple"},{"internalType":"bytes","name":"signature","type":"bytes"}],"name":"submitTrade","outputs":[{"internalType":"bool","name":"approved","type":"bool"},{"internalType":"bytes32","name":"tradeHash","type":"bytes32"}],"stateMutability":"nonpayable","type":"function"}],"evm":{"bytecode":{"linkReferences":{},"object":"60a034610246576001600160401b0390601f620018da38819003918201601f191683019291908484118385101761024b57816020928492604096875283398101031261024657516001600160a01b03811690819003610246576024916207a120600355600491620f42408355602d60055560018060a01b031933816002541617600255600054161760005580516208aa8960eb1b815260236006918260038201522090600194859160ff19938385825416179055602385516242544360e81b815282600382015220838582541617905560258551644d4154494360d81b8152826005820152208385825416179055818551634c494e4b60e01b815282888201522083858254161790556023855162554e4960e81b8152826003820152208385825416179055818551634141564560e01b81528288820152208385825416179055818551635553444360e01b81528288820152208385825416179055845190630ae8aa8960e31b8252868201522091825416179055600e6020825161018281610261565b828152016d1052551c98591a5b99d059d95b9d60921b81522092602082516101a981610261565b82815201603160f81b8152209181519260208401947f8b73c3c69bb8fe3d512ecc4cf759cc79239f7b179b0ffacaa9a75d522b39400f86528385015260608401524660808401523060a084015260a0835260c083019483861090861117610231575083905251902060805261165d90816200027d82396080518181816103e00152610ce60152f35b604190634e487b7160e01b6000525260246000fd5b600080fd5b634e487b7160e01b600052604160045260246000fd5b604081019081106001600160401b0382111761024b5760405256fe6080604052600436101561001257600080fd5b60003560e01c80630758d9241461013d5780630d1cfcae146101385780630e449f97146101335780631344c76e1461012e578063260f0608146101065780632bba58ac14610129578063351f0dbe146101245780633644e5151461011f5780634cfee215146101015780635764390c1461011a57806363e93557146101155780638da5cb5b146101105780638fe9099a1461010b57806391be86be14610106578063ace1854b14610101578063c4590d3f146100fc578063d52b7a14146100f7578063efe12a0c146100f25763fb9576da146100ed57600080fd5b61069e565b610544565b610526565b6104c2565b610403565b610265565b6104a4565b61047b565b61045d565b61042f565b6103c8565b610308565b610296565b610222565b6101a5565b61016b565b34610166576000366003190112610166576001546040516001600160a01b039091168152602090f35b600080fd5b34610166576000366003190112610166576000546040516001600160a01b039091168152602090f35b6001600160a01b0381160361016657565b34610166576020366003190112610166577f2e9ffa1ee0be8af4df6740c772c339bd5574ff9175d4cd0328e7f27685b3f6e260206004356101e581610194565b6002546001600160a01b0391906101ff90831633146106f7565b16806bffffffffffffffffffffffff60a01b6001541617600155604051908152a1005b3461016657602036600319011261016657600435600052600760205260606040600020805490600260018201549101549060405192835260208301526040820152f35b34610166576020366003190112610166576004356000526008602052602060ff604060002054166040519015158152f35b346101665760003660031901126101665760206040517fb3e3feb75fdbf40cd7b823fa7b0b1b32de8f8d6bf2be6e16f1a9eedfc559b6118152f35b9181601f84011215610166578235916001600160401b038311610166576020838186019501011161016657565b8015150361016657565b34610166576040366003190112610166576004356001600160401b038111610166576103597f9d6db961e826d7e57b67b26f3c9b85cffd3a1224d6007450a285a198f2984c5f9136906004016102d1565b602435610365816102fe565b61037a60018060a01b036002541633146106f7565b6103a4816040518486823760208186810160068152030190209060ff801983541691151516179055565b6103bb60405193849360408552604085019161073b565b90151560208301520390a1005b346101665760003660031901126101665760206040517f00000000000000000000000000000000000000000000000000000000000000008152f35b346101665760203660031901126101665760043560005260096020526020604060002054604051908152f35b346101665760203660031901126101665761045560018060a01b036002541633146106f7565b600435600555005b34610166576000366003190112610166576020600354604051908152f35b34610166576000366003190112610166576002546040516001600160a01b039091168152602090f35b34610166576000366003190112610166576020600454604051908152f35b34610166576040366003190112610166577f4d4981437d0211f9e6843eb024d9ada1fa3a99514d4343d4aece106dd11524bb604060043560243561051160018060a01b036002541633146106f7565b816003558060045582519182526020820152a1005b34610166576000366003190112610166576020600554604051908152f35b346101665760031960403682011261016657600435906001600160401b039081831161016657610180908336030112610166576024359081116101665760409161059561059e9236906004016102d1565b91600401610967565b825191151582526020820152f35b634e487b7160e01b600052604160045260246000fd5b604081019081106001600160401b038211176105dd57604052565b6105ac565b90601f801991011681019081106001600160401b038211176105dd57604052565b6001600160401b0381116105dd57601f01601f191660200190565b92919261062a82610603565b9161063860405193846105e2565b829481845281830111610166578281602093846000960137010152565b60005b8381106106685750506000910152565b8181015183820152602001610658565b6020610691918160405193828580945193849201610655565b8101600681520301902090565b34610166576020366003190112610166576004356001600160401b03811161016657366023820112156101665760ff6106eb6106e6602093369060248160040135910161061e565b610678565b54166040519015158152f35b156106fe57565b60405162461bcd60e51b81526020600482015260156024820152742934b9b5a937baba32b91d103737ba1037bbb732b960591b6044820152606490fd5b908060209392818452848401376000828201840152601f01601f1916010190565b1561076357565b60405162461bcd60e51b815260206004820152601960248201527f5269736b526f757465723a2074726164652065787069726564000000000000006044820152606490fd5b156107af57565b60405162461bcd60e51b815260206004820152601960248201527f5269736b526f757465723a20696e76616c6964206e6f6e6365000000000000006044820152606490fd5b156107fb57565b60405162461bcd60e51b815260206004820152601d60248201527f5269736b526f757465723a20616c72656164792070726f6365737365640000006044820152606490fd5b1561084757565b60405162461bcd60e51b815260206004820152602560248201527f5269736b526f757465723a207369676e6572206973206e6f74206167656e742060448201526437bbb732b960d91b6064820152608490fd5b60001981146108a95760010190565b634e487b7160e01b600052601160045260246000fd5b90916060928252604060208301526108e68151809281604086015260208686019101610655565b601f01601f1916010190565b903590601e198136030182121561016657018035906001600160401b0382116101665760200191813603831361016657565b969594906060949261095594610947928a52608060208b015260808a019161073b565b91878303604089015261073b565b930152565b3561096481610194565b90565b90916109f3939261097e60e084013542111561075c565b82356109a3610997826000526009602052604060002090565b5460c0860135146107a8565b6109ff6109fa6109b286610b96565b9788946109e26109dd6109d96109d2896000526008602052604060002090565b5460ff1690565b1590565b6107f4565b6109eb85610df0565b96369161061e565b8486610ec8565b610840565b610a0884611100565b90610a2d610a20856000526008602052604060002090565b805460ff19166001179055565b610a41836000526009602052604060002090565b610a4b815461089a565b905515610b555750837fda0ac845197f6ee8b8b1298cf0183f48a9264e9f83356f144b10f7661fa1612791610a7f82611234565b610a8c60208301836108f2565b86610ac3610aa060408798959801876108f2565b6040516001600160a01b0399948a16989095869560609092013593918c87610924565b0390a3600154610ae3906001600160a01b03165b6001600160a01b031690565b16151580610b3d575b80610b25575b80610b17575b610b06575b50505060019190565b610b0f9261141d565b388083610afd565b506101408301351515610af8565b50610b36610ad7610120850161095a565b1515610af2565b50610b4e610ad7610100850161095a565b1515610aec565b9093507fd344d458e98402d70ff8c192eeb985bc45059d53f0ec4d4306687d59d3ac6abf9250610b8d915060405191829187836108bf565b0390a260009190565b610d1c610d28602092610bb5610bae858301836108f2565b369161061e565b84815191012090610bcc610bae60408301836108f2565b85815191012090610cbe610be6610bae60a08401846108f2565b878151910120610bf9610100840161095a565b94610c07610120850161095a565b6040519687958b870197610160820135956101408301359560e08401359360c0810135936080820135928d6060840135933590989693909c9b9a979491926101809a96936101a08b019e7fb3e3feb75fdbf40cd7b823fa7b0b1b32de8f8d6bf2be6e16f1a9eedfc559b6118c5260208c015260408b015260608a0152608089015260a088015260c087015260e086015261010085015260018060a01b03809216610120850152166101408301526101608201520152565b0391610cd2601f19938481018352826105e2565b51902060405161190160f01b9581019586527f0000000000000000000000000000000000000000000000000000000000000000600287015260228601919091529283906042860190565b039081018352826105e2565b51902090565b81601f82011215610166578051610d4481610603565b92610d5260405194856105e2565b81845260208284010111610166576109649160208085019101610655565b909160e0828403126101665781516001600160401b03908181116101665784610d9a918501610d2e565b93602084015191821161016657610db2918401610d2e565b916040810151610dc181610194565b916060820151916080810151610dd6816102fe565b9160c060a083015192015190565b6040513d6000823e3d90fd5b9060018060a01b0360008181541693602460405180968193632de5aaf760e01b835260048301525afa928315610ea357600093610e77575b50821615610e3257565b60405162461bcd60e51b815260206004820152601b60248201527f5269736b526f757465723a206167656e74206e6f7420666f756e6400000000006044820152606490fd5b610e959193503d806000833e610e8d81836105e2565b810190610d70565b505050509150509138610e28565b610de4565b9081602091031261016657516001600160e01b0319811681036101665790565b9190916041825114610f68575b803b610ee357505050600090565b610f07916020916040518080958194630b135d3f60e11b98898452600484016108bf565b03916001600160a01b03165afa60009181610f37575b50610f29575050600090565b6001600160e01b0319161490565b610f5a91925060203d602011610f61575b610f5281836105e2565b810190610ea8565b9038610f1d565b503d610f48565b6020828101516040808501516060808701518351898152600091821a818801529384019490945282015281805260809060015afa15610ea3576000516001600160a01b039081168015159182610fc8575b505015610ed557505050600190565b83161490503880610fb9565b60405190602082018281106001600160401b038211176105dd5760405260008252565b60405190611004826105c2565b601882527f436f6e666964656e63652062656c6f77206d696e696d756d00000000000000006020830152565b6040519061103d826105c2565b601a82527f457863656564732073696e676c65207472616465206c696d69740000000000006020830152565b60405190611076826105c2565b6016825275151bdad95b881b9bdd081a5b88185b1b1bdddb1a5cdd60521b6020830152565b604051906110a8826105c2565b601882527f4461696c79206c6f7373206c696d6974207265616368656400000000000000006020830152565b604051906110e1826105c2565b601082526f4167656e74206e6f742061637469766560801b6020830152565b6005546080820135106112285760035460608201351161121c576111396109d96109d26106e661113360208601866108f2565b90611567565b6112105735611152816000526007602052604060002090565b62015180420481541490816111ff575b506111f357600080546111a29290611182906001600160a01b0316610ad7565b6040518080958194632de5aaf760e01b8352600483019190602083019252565b03915afa908115610ea3576000916111d1575b50156111c657600190610964610fd4565b6000906109646110d4565b6111e691503d806000833e610e8d81836105e2565b50509350505050386111b5565b5060009061096461109b565b600191500154600454111538611162565b50600090610964611069565b50600090610964611030565b50600090610964610ff7565b6002906201518042049035600052600760205260406000209080825403611266575b5001611262815461089a565b9055565b81556000600182015560008282015538611256565b6001600160401b0381116105dd5760051b60200190565b60405190606082018281106001600160401b038211176105dd5760405260028252604082602036910137565b634e487b7160e01b600052603260045260246000fd5b8051156112e15760200190565b6112be565b8051600110156112e15760400190565b6020908181840312610166578051906001600160401b03821161016657019180601f8401121561016657825161132b8161127b565b9361133960405195866105e2565b818552838086019260051b820101928311610166578301905b828210611360575050505090565b81518152908301908301611352565b9291909594939560a08401908452602091602085015260a060408501528251809152602060c0850193019160005b8281106113be5750505050906080919460018060a01b031660608201520152565b83516001600160a01b03168552938101939281019260010161139d565b906040820190825260206060819360408382015285518094520193019160005b828110611409575050505090565b8351855293810193928101926001016113fb565b60006114b3929361142c611292565b9061145561143d610100860161095a565b611446846112d4565b6001600160a01b039091169052565b61146e611465610120860161095a565b611446846112e6565b600154611483906001600160a01b0316610ad7565b90836040518097819582946338ed173960e01b845260e08a0135916101608b01356101408c01356004870161136f565b03925af1908115610ea3577fb21c6d2ad94d406a58dd91450d33bf96e7fde06d2ffcb1969c2ccbe34bb53ef2926000926114ff575b506114fa6040519283923595836113db565b0390a2565b61151d9192503d806000833e61151581836105e2565b8101906112f6565b90386114e8565b9081518110156112e1570160200190565b9061153f82610603565b61154c60405191826105e2565b828152809261155d601f1991610603565b0190602036910137565b909161157436848461061e565b9260009260005b855181101561161d57602f60f81b6115b46115a7611599848a611524565b516001600160f81b03191690565b6001600160f81b03191690565b146115c15760010161157b565b929350905b821561160d5750506115d781611535565b9060005b8181106115e9575090925050565b806115f961159960019388611524565b60001a6116068286611524565b53016115db565b909150610964929350369161061e565b50909291926115c656fea264697066735822122031b78906bd6c044a2688c7884c694e8d6d5c1166e0bbb7f1219444a65cfe04c464736f6c63430008180033","opcodes":"PUSH1 0xA0 CALLVALUE PUSH2 0x246 JUMPI PUSH1 0x1 PUSH1 0x1 PUSH1 0x40 SHL SUB SWAP1 PUSH1 0x1F PUSH3 0x18DA CODESIZE DUP2 SWAP1 SUB SWAP2 DUP3 ADD PUSH1 0x1F NOT AND DUP4 ADD SWAP3 SWAP2 SWAP1 DUP5 DUP5 GT DUP4 DUP6 LT OR PUSH2 0x24B JUMPI DUP2 PUSH1 0x20 SWAP3 DUP5 SWAP3 PUSH1 0x40 SWAP7 DUP8 MSTORE DUP4 CODECOPY DUP2 ADD SUB SLT PUSH2 0x246 JUMPI MLOAD PUSH1 0x1 PUSH1 0x1 PUSH1 0xA0 SHL SUB DUP2 AND SWAP1 DUP2 SWAP1 SUB PUSH2 0x246 JUMPI PUSH1 0x24 SWAP2 PUSH3 0x7A120 PUSH1 0x3 SSTORE PUSH1 0x4 SWAP2 PUSH3 0xF4240 DUP4 SSTORE PUSH1 0x2D PUSH1 0x5 SSTORE PUSH1 0x1 DUP1 PUSH1 0xA0 SHL SUB NOT CALLER DUP2 PUSH1 0x2 SLOAD AND OR PUSH1 0x2 SSTORE PUSH1 0x0 SLOAD AND OR PUSH1 0x0 SSTORE DUP1 MLOAD PUSH3 0x8AA89 PUSH1 0xEB SHL DUP2 MSTORE PUSH1 0x23 PUSH1 0x6 SWAP2 DUP3 PUSH1 0x3 DUP3 ADD MSTORE KECCAK256 SWAP1 PUSH1 0x1 SWAP5 DUP6 SWAP2 PUSH1 0xFF NOT SWAP4 DUP4 DUP6 DUP3 SLOAD AND OR SWAP1 SSTORE PUSH1 0x23 DUP6 MLOAD PUSH3 0x425443 PUSH1 0xE8 SHL DUP2 MSTORE DUP3 PUSH1 0x3 DUP3 ADD MSTORE KECCAK256 DUP4 DUP6 DUP3 SLOAD AND OR SWAP1 SSTORE PUSH1 0x25 DUP6 MLOAD PUSH5 0x4D41544943 PUSH1 0xD8 SHL DUP2 MSTORE DUP3 PUSH1 0x5 DUP3 ADD MSTORE KECCAK256 DUP4 DUP6 DUP3 SLOAD AND OR SWAP1 SSTORE DUP2 DUP6 MLOAD PUSH4 0x4C494E4B PUSH1 0xE0 SHL DUP2 MSTORE DUP3 DUP9 DUP3 ADD MSTORE KECCAK256 DUP4 DUP6 DUP3 SLOAD AND OR SWAP1 SSTORE PUSH1 0x23 DUP6 MLOAD PUSH3 0x554E49 PUSH1 0xE8 SHL DUP2 MSTORE DUP3 PUSH1 0x3 DUP3 ADD MSTORE KECCAK256 DUP4 DUP6 DUP3 SLOAD AND OR SWAP1 SSTORE DUP2 DUP6 MLOAD PUSH4 0x41415645 PUSH1 0xE0 SHL DUP2 MSTORE DUP3 DUP9 DUP3 ADD MSTORE KECCAK256 DUP4 DUP6 DUP3 SLOAD AND OR SWAP1 SSTORE DUP2 DUP6 MLOAD PUSH4 0x55534443 PUSH1 0xE0 SHL DUP2 MSTORE DUP3 DUP9 DUP3 ADD MSTORE KECCAK256 DUP4 DUP6 DUP3 SLOAD AND OR SWAP1 SSTORE DUP5 MLOAD SWAP1 PUSH4 0xAE8AA89 PUSH1 0xE3 SHL DUP3 MSTORE DUP7 DUP3 ADD MSTORE KECCAK256 SWAP2 DUP3 SLOAD AND OR SWAP1 SSTORE PUSH1 0xE PUSH1 0x20 DUP3 MLOAD PUSH2 0x182 DUP2 PUSH2 0x261 JUMP JUMPDEST DUP3 DUP2 MSTORE ADD PUSH14 0x1052551C98591A5B99D059D95B9D PUSH1 0x92 SHL DUP2 MSTORE KECCAK256 SWAP3 PUSH1 0x20 DUP3 MLOAD PUSH2 0x1A9 DUP2 PUSH2 0x261 JUMP JUMPDEST DUP3 DUP2 MSTORE ADD PUSH1 0x31 PUSH1 0xF8 SHL DUP2 MSTORE KECCAK256 SWAP2 DUP2 MLOAD SWAP3 PUSH1 0x20 DUP5 ADD SWAP5 PUSH32 0x8B73C3C69BB8FE3D512ECC4CF759CC79239F7B179B0FFACAA9A75D522B39400F DUP7 MSTORE DUP4 DUP6 ADD MSTORE PUSH1 0x60 DUP5 ADD MSTORE CHAINID PUSH1 0x80 DUP5 ADD MSTORE ADDRESS PUSH1 0xA0 DUP5 ADD MSTORE PUSH1 0xA0 DUP4 MSTORE PUSH1 0xC0 DUP4 ADD SWAP5 DUP4 DUP7 LT SWAP1 DUP7 GT OR PUSH2 0x231 JUMPI POP DUP4 SWAP1 MSTORE MLOAD SWAP1 KECCAK256 PUSH1 0x80 MSTORE PUSH2 0x165D SWAP1 DUP2 PUSH3 0x27D DUP3 CODECOPY PUSH1 0x80 MLOAD DUP2 DUP2 DUP2 PUSH2 0x3E0 ADD MSTORE PUSH2 0xCE6 ADD MSTORE RETURN JUMPDEST PUSH1 0x41 SWAP1 PUSH4 0x4E487B71 PUSH1 0xE0 SHL PUSH1 0x0 MSTORE MSTORE PUSH1 0x24 PUSH1 0x0 REVERT JUMPDEST PUSH1 0x0 DUP1 REVERT JUMPDEST PUSH4 0x4E487B71 PUSH1 0xE0 SHL PUSH1 0x0 MSTORE PUSH1 0x41 PUSH1 0x4 MSTORE PUSH1 0x24 PUSH1 0x0 REVERT JUMPDEST PUSH1 0x40 DUP2 ADD SWAP1 DUP2 LT PUSH1 0x1 PUSH1 0x1 PUSH1 0x40 SHL SUB DUP3 GT OR PUSH2 0x24B JUMPI PUSH1 0x40 MSTORE JUMP INVALID PUSH1 0x80 PUSH1 0x40 MSTORE PUSH1 0x4 CALLDATASIZE LT ISZERO PUSH2 0x12 JUMPI PUSH1 0x0 DUP1 REVERT JUMPDEST PUSH1 0x0 CALLDATALOAD PUSH1 0xE0 SHR DUP1 PUSH4 0x758D924 EQ PUSH2 0x13D JUMPI DUP1 PUSH4 0xD1CFCAE EQ PUSH2 0x138 JUMPI DUP1 PUSH4 0xE449F97 EQ PUSH2 0x133 JUMPI DUP1 PUSH4 0x1344C76E EQ PUSH2 0x12E JUMPI DUP1 PUSH4 0x260F0608 EQ PUSH2 0x106 JUMPI DUP1 PUSH4 0x2BBA58AC EQ PUSH2 0x129 JUMPI DUP1 PUSH4 0x351F0DBE EQ PUSH2 0x124 JUMPI DUP1 PUSH4 0x3644E515 EQ PUSH2 0x11F JUMPI DUP1 PUSH4 0x4CFEE215 EQ PUSH2 0x101 JUMPI DUP1 PUSH4 0x5764390C EQ PUSH2 0x11A JUMPI DUP1 PUSH4 0x63E93557 EQ PUSH2 0x115 JUMPI DUP1 PUSH4 0x8DA5CB5B EQ PUSH2 0x110 JUMPI DUP1 PUSH4 0x8FE9099A EQ PUSH2 0x10B JUMPI DUP1 PUSH4 0x91BE86BE EQ PUSH2 0x106 JUMPI DUP1 PUSH4 0xACE1854B EQ PUSH2 0x101 JUMPI DUP1 PUSH4 0xC4590D3F EQ PUSH2 0xFC JUMPI DUP1 PUSH4 0xD52B7A14 EQ PUSH2 0xF7 JUMPI DUP1 PUSH4 0xEFE12A0C EQ PUSH2 0xF2 JUMPI PUSH4 0xFB9576DA EQ PUSH2 0xED JUMPI PUSH1 0x0 DUP1 REVERT JUMPDEST PUSH2 0x69E JUMP JUMPDEST PUSH2 0x544 JUMP JUMPDEST PUSH2 0x526 JUMP JUMPDEST PUSH2 0x4C2 JUMP JUMPDEST PUSH2 0x403 JUMP JUMPDEST PUSH2 0x265 JUMP JUMPDEST PUSH2 0x4A4 JUMP JUMPDEST PUSH2 0x47B JUMP JUMPDEST PUSH2 0x45D JUMP JUMPDEST PUSH2 0x42F JUMP JUMPDEST PUSH2 0x3C8 JUMP JUMPDEST PUSH2 0x308 JUMP JUMPDEST PUSH2 0x296 JUMP JUMPDEST PUSH2 0x222 JUMP JUMPDEST PUSH2 0x1A5 JUMP JUMPDEST PUSH2 0x16B JUMP JUMPDEST CALLVALUE PUSH2 0x166 JUMPI PUSH1 0x0 CALLDATASIZE PUSH1 0x3 NOT ADD SLT PUSH2 0x166 JUMPI PUSH1 0x1 SLOAD PUSH1 0x40 MLOAD PUSH1 0x1 PUSH1 0x1 PUSH1 0xA0 SHL SUB SWAP1 SWAP2 AND DUP2 MSTORE PUSH1 0x20 SWAP1 RETURN JUMPDEST PUSH1 0x0 DUP1 REVERT JUMPDEST CALLVALUE PUSH2 0x166 JUMPI PUSH1 0x0 CALLDATASIZE PUSH1 0x3 NOT ADD SLT PUSH2 0x166 JUMPI PUSH1 0x0 SLOAD PUSH1 0x40 MLOAD PUSH1 0x1 PUSH1 0x1 PUSH1 0xA0 SHL SUB SWAP1 SWAP2 AND DUP2 MSTORE PUSH1 0x20 SWAP1 RETURN JUMPDEST PUSH1 0x1 PUSH1 0x1 PUSH1 0xA0 SHL SUB DUP2 AND SUB PUSH2 0x166 JUMPI JUMP JUMPDEST CALLVALUE PUSH2 0x166 JUMPI PUSH1 0x20 CALLDATASIZE PUSH1 0x3 NOT ADD SLT PUSH2 0x166 JUMPI PUSH32 0x2E9FFA1EE0BE8AF4DF6740C772C339BD5574FF9175D4CD0328E7F27685B3F6E2 PUSH1 0x20 PUSH1 0x4 CALLDATALOAD PUSH2 0x1E5 DUP2 PUSH2 0x194 JUMP JUMPDEST PUSH1 0x2 SLOAD PUSH1 0x1 PUSH1 0x1 PUSH1 0xA0 SHL SUB SWAP2 SWAP1 PUSH2 0x1FF SWAP1 DUP4 AND CALLER EQ PUSH2 0x6F7 JUMP JUMPDEST AND DUP1 PUSH12 0xFFFFFFFFFFFFFFFFFFFFFFFF PUSH1 0xA0 SHL PUSH1 0x1 SLOAD AND OR PUSH1 0x1 SSTORE PUSH1 0x40 MLOAD SWAP1 DUP2 MSTORE LOG1 STOP JUMPDEST CALLVALUE PUSH2 0x166 JUMPI PUSH1 0x20 CALLDATASIZE PUSH1 0x3 NOT ADD SLT PUSH2 0x166 JUMPI PUSH1 0x4 CALLDATALOAD PUSH1 0x0 MSTORE PUSH1 0x7 PUSH1 0x20 MSTORE PUSH1 0x60 PUSH1 0x40 PUSH1 0x0 KECCAK256 DUP1 SLOAD SWAP1 PUSH1 0x2 PUSH1 0x1 DUP3 ADD SLOAD SWAP2 ADD SLOAD SWAP1 PUSH1 0x40 MLOAD SWAP3 DUP4 MSTORE PUSH1 0x20 DUP4 ADD MSTORE PUSH1 0x40 DUP3 ADD MSTORE RETURN JUMPDEST CALLVALUE PUSH2 0x166 JUMPI PUSH1 0x20 CALLDATASIZE PUSH1 0x3 NOT ADD SLT PUSH2 0x166 JUMPI PUSH1 0x4 CALLDATALOAD PUSH1 0x0 MSTORE PUSH1 0x8 PUSH1 0x20 MSTORE PUSH1 0x20 PUSH1 0xFF PUSH1 0x40 PUSH1 0x0 KECCAK256 SLOAD AND PUSH1 0x40 MLOAD SWAP1 ISZERO ISZERO DUP2 MSTORE RETURN JUMPDEST CALLVALUE PUSH2 0x166 JUMPI PUSH1 0x0 CALLDATASIZE PUSH1 0x3 NOT ADD SLT PUSH2 0x166 JUMPI PUSH1 0x20 PUSH1 0x40 MLOAD PUSH32 0xB3E3FEB75FDBF40CD7B823FA7B0B1B32DE8F8D6BF2BE6E16F1A9EEDFC559B611 DUP2 MSTORE RETURN JUMPDEST SWAP2 DUP2 PUSH1 0x1F DUP5 ADD SLT ISZERO PUSH2 0x166 JUMPI DUP3 CALLDATALOAD SWAP2 PUSH1 0x1 PUSH1 0x1 PUSH1 0x40 SHL SUB DUP4 GT PUSH2 0x166 JUMPI PUSH1 0x20 DUP4 DUP2 DUP7 ADD SWAP6 ADD ADD GT PUSH2 0x166 JUMPI JUMP JUMPDEST DUP1 ISZERO ISZERO SUB PUSH2 0x166 JUMPI JUMP JUMPDEST CALLVALUE PUSH2 0x166 JUMPI PUSH1 0x40 CALLDATASIZE PUSH1 0x3 NOT ADD SLT PUSH2 0x166 JUMPI PUSH1 0x4 CALLDATALOAD PUSH1 0x1 PUSH1 0x1 PUSH1 0x40 SHL SUB DUP2 GT PUSH2 0x166 JUMPI PUSH2 0x359 PUSH32 0x9D6DB961E826D7E57B67B26F3C9B85CFFD3A1224D6007450A285A198F2984C5F SWAP2 CALLDATASIZE SWAP1 PUSH1 0x4 ADD PUSH2 0x2D1 JUMP JUMPDEST PUSH1 0x24 CALLDATALOAD PUSH2 0x365 DUP2 PUSH2 0x2FE JUMP JUMPDEST PUSH2 0x37A PUSH1 0x1 DUP1 PUSH1 0xA0 SHL SUB PUSH1 0x2 SLOAD AND CALLER EQ PUSH2 0x6F7 JUMP JUMPDEST PUSH2 0x3A4 DUP2 PUSH1 0x40 MLOAD DUP5 DUP7 DUP3 CALLDATACOPY PUSH1 0x20 DUP2 DUP7 DUP2 ADD PUSH1 0x6 DUP2 MSTORE SUB ADD SWAP1 KECCAK256 SWAP1 PUSH1 0xFF DUP1 NOT DUP4 SLOAD AND SWAP2 ISZERO ISZERO AND OR SWAP1 SSTORE JUMP JUMPDEST PUSH2 0x3BB PUSH1 0x40 MLOAD SWAP4 DUP5 SWAP4 PUSH1 0x40 DUP6 MSTORE PUSH1 0x40 DUP6 ADD SWAP2 PUSH2 0x73B JUMP JUMPDEST SWAP1 ISZERO ISZERO PUSH1 0x20 DUP4 ADD MSTORE SUB SWAP1 LOG1 STOP JUMPDEST CALLVALUE PUSH2 0x166 JUMPI PUSH1 0x0 CALLDATASIZE PUSH1 0x3 NOT ADD SLT PUSH2 0x166 JUMPI PUSH1 0x20 PUSH1 0x40 MLOAD PUSH32 0x0 DUP2 MSTORE RETURN JUMPDEST CALLVALUE PUSH2 0x166 JUMPI PUSH1 0x20 CALLDATASIZE PUSH1 0x3 NOT ADD SLT PUSH2 0x166 JUMPI PUSH1 0x4 CALLDATALOAD PUSH1 0x0 MSTORE PUSH1 0x9 PUSH1 0x20 MSTORE PUSH1 0x20 PUSH1 0x40 PUSH1 0x0 KECCAK256 SLOAD PUSH1 0x40 MLOAD SWAP1 DUP2 MSTORE RETURN JUMPDEST CALLVALUE PUSH2 0x166 JUMPI PUSH1 0x20 CALLDATASIZE PUSH1 0x3 NOT ADD SLT PUSH2 0x166 JUMPI PUSH2 0x455 PUSH1 0x1 DUP1 PUSH1 0xA0 SHL SUB PUSH1 0x2 SLOAD AND CALLER EQ PUSH2 0x6F7 JUMP JUMPDEST PUSH1 0x4 CALLDATALOAD PUSH1 0x5 SSTORE STOP JUMPDEST CALLVALUE PUSH2 0x166 JUMPI PUSH1 0x0 CALLDATASIZE PUSH1 0x3 NOT ADD SLT PUSH2 0x166 JUMPI PUSH1 0x20 PUSH1 0x3 SLOAD PUSH1 0x40 MLOAD SWAP1 DUP2 MSTORE RETURN JUMPDEST CALLVALUE PUSH2 0x166 JUMPI PUSH1 0x0 CALLDATASIZE PUSH1 0x3 NOT ADD SLT PUSH2 0x166 JUMPI PUSH1 0x2 SLOAD PUSH1 0x40 MLOAD PUSH1 0x1 PUSH1 0x1 PUSH1 0xA0 SHL SUB SWAP1 SWAP2 AND DUP2 MSTORE PUSH1 0x20 SWAP1 RETURN JUMPDEST CALLVALUE PUSH2 0x166 JUMPI PUSH1 0x0 CALLDATASIZE PUSH1 0x3 NOT ADD SLT PUSH2 0x166 JUMPI PUSH1 0x20 PUSH1 0x4 SLOAD PUSH1 0x40 MLOAD SWAP1 DUP2 MSTORE RETURN JUMPDEST CALLVALUE PUSH2 0x166 JUMPI PUSH1 0x40 CALLDATASIZE PUSH1 0x3 NOT ADD SLT PUSH2 0x166 JUMPI PUSH32 0x4D4981437D0211F9E6843EB024D9ADA1FA3A99514D4343D4AECE106DD11524BB PUSH1 0x40 PUSH1 0x4 CALLDATALOAD PUSH1 0x24 CALLDATALOAD PUSH2 0x511 PUSH1 0x1 DUP1 PUSH1 0xA0 SHL SUB PUSH1 0x2 SLOAD AND CALLER EQ PUSH2 0x6F7 JUMP JUMPDEST DUP2 PUSH1 0x3 SSTORE DUP1 PUSH1 0x4 SSTORE DUP3 MLOAD SWAP2 DUP3 MSTORE PUSH1 0x20 DUP3 ADD MSTORE LOG1 STOP JUMPDEST CALLVALUE PUSH2 0x166 JUMPI PUSH1 0x0 CALLDATASIZE PUSH1 0x3 NOT ADD SLT PUSH2 0x166 JUMPI PUSH1 0x20 PUSH1 0x5 SLOAD PUSH1 0x40 MLOAD SWAP1 DUP2 MSTORE RETURN JUMPDEST CALLVALUE PUSH2 0x166 JUMPI PUSH1 0x3 NOT PUSH1 0x40 CALLDATASIZE DUP3 ADD SLT PUSH2 0x166 JUMPI PUSH1 0x4 CALLDATALOAD SWAP1 PUSH1 0x1 PUSH1 0x1 PUSH1 0x40 SHL SUB SWAP1 DUP2 DUP4 GT PUSH2 0x166 JUMPI PUSH2 0x180 SWAP1 DUP4 CALLDATASIZE SUB ADD SLT PUSH2 0x166 JUMPI PUSH1 0x24 CALLDATALOAD SWAP1 DUP2 GT PUSH2 0x166 JUMPI PUSH1 0x40 SWAP2 PUSH2 0x595 PUSH2 0x59E SWAP3 CALLDATASIZE SWAP1 PUSH1 0x4 ADD PUSH2 0x2D1 JUMP JUMPDEST SWAP2 PUSH1 0x4 ADD PUSH2 0x967 JUMP JUMPDEST DUP3 MLOAD SWAP2 ISZERO ISZERO DUP3 MSTORE PUSH1 0x20 DUP3 ADD MSTORE RETURN JUMPDEST PUSH4 0x4E487B71 PUSH1 0xE0 SHL PUSH1 0x0 MSTORE PUSH1 0x41 PUSH1 0x4 MSTORE PUSH1 0x24 PUSH1 0x0 REVERT JUMPDEST PUSH1 0x40 DUP2 ADD SWAP1 DUP2 LT PUSH1 0x1 PUSH1 0x1 PUSH1 0x40 SHL SUB DUP3 GT OR PUSH2 0x5DD JUMPI PUSH1 0x40 MSTORE JUMP JUMPDEST PUSH2 0x5AC JUMP JUMPDEST SWAP1 PUSH1 0x1F DUP1 NOT SWAP2 ADD AND DUP2 ADD SWAP1 DUP2 LT PUSH1 0x1 PUSH1 0x1 PUSH1 0x40 SHL SUB DUP3 GT OR PUSH2 0x5DD JUMPI PUSH1 0x40 MSTORE JUMP JUMPDEST PUSH1 0x1 PUSH1 0x1 PUSH1 0x40 SHL SUB DUP2 GT PUSH2 0x5DD JUMPI PUSH1 0x1F ADD PUSH1 0x1F NOT AND PUSH1 0x20 ADD SWAP1 JUMP JUMPDEST SWAP3 SWAP2 SWAP3 PUSH2 0x62A DUP3 PUSH2 0x603 JUMP JUMPDEST SWAP2 PUSH2 0x638 PUSH1 0x40 MLOAD SWAP4 DUP5 PUSH2 0x5E2 JUMP JUMPDEST DUP3 SWAP5 DUP2 DUP5 MSTORE DUP2 DUP4 ADD GT PUSH2 0x166 JUMPI DUP3 DUP2 PUSH1 0x20 SWAP4 DUP5 PUSH1 0x0 SWAP7 ADD CALLDATACOPY ADD ADD MSTORE JUMP JUMPDEST PUSH1 0x0 JUMPDEST DUP4 DUP2 LT PUSH2 0x668 JUMPI POP POP PUSH1 0x0 SWAP2 ADD MSTORE JUMP JUMPDEST DUP2 DUP2 ADD MLOAD DUP4 DUP3 ADD MSTORE PUSH1 0x20 ADD PUSH2 0x658 JUMP JUMPDEST PUSH1 0x20 PUSH2 0x691 SWAP2 DUP2 PUSH1 0x40 MLOAD SWAP4 DUP3 DUP6 DUP1 SWAP5 MLOAD SWAP4 DUP5 SWAP3 ADD PUSH2 0x655 JUMP JUMPDEST DUP2 ADD PUSH1 0x6 DUP2 MSTORE SUB ADD SWAP1 KECCAK256 SWAP1 JUMP JUMPDEST CALLVALUE PUSH2 0x166 JUMPI PUSH1 0x20 CALLDATASIZE PUSH1 0x3 NOT ADD SLT PUSH2 0x166 JUMPI PUSH1 0x4 CALLDATALOAD PUSH1 0x1 PUSH1 0x1 PUSH1 0x40 SHL SUB DUP2 GT PUSH2 0x166 JUMPI CALLDATASIZE PUSH1 0x23 DUP3 ADD SLT ISZERO PUSH2 0x166 JUMPI PUSH1 0xFF PUSH2 0x6EB PUSH2 0x6E6 PUSH1 0x20 SWAP4 CALLDATASIZE SWAP1 PUSH1 0x24 DUP2 PUSH1 0x4 ADD CALLDATALOAD SWAP2 ADD PUSH2 0x61E JUMP JUMPDEST PUSH2 0x678 JUMP JUMPDEST SLOAD AND PUSH1 0x40 MLOAD SWAP1 ISZERO ISZERO DUP2 MSTORE RETURN JUMPDEST ISZERO PUSH2 0x6FE JUMPI JUMP JUMPDEST PUSH1 0x40 MLOAD PUSH3 0x461BCD PUSH1 0xE5 SHL DUP2 MSTORE PUSH1 0x20 PUSH1 0x4 DUP3 ADD MSTORE PUSH1 0x15 PUSH1 0x24 DUP3 ADD MSTORE PUSH21 0x2934B9B5A937BABA32B91D103737BA1037BBB732B9 PUSH1 0x59 SHL PUSH1 0x44 DUP3 ADD MSTORE PUSH1 0x64 SWAP1 REVERT JUMPDEST SWAP1 DUP1 PUSH1 0x20 SWAP4 SWAP3 DUP2 DUP5 MSTORE DUP5 DUP5 ADD CALLDATACOPY PUSH1 0x0 DUP3 DUP3 ADD DUP5 ADD MSTORE PUSH1 0x1F ADD PUSH1 0x1F NOT AND ADD ADD SWAP1 JUMP JUMPDEST ISZERO PUSH2 0x763 JUMPI JUMP JUMPDEST PUSH1 0x40 MLOAD PUSH3 0x461BCD PUSH1 0xE5 SHL DUP2 MSTORE PUSH1 0x20 PUSH1 0x4 DUP3 ADD MSTORE PUSH1 0x19 PUSH1 0x24 DUP3 ADD MSTORE PUSH32 0x5269736B526F757465723A207472616465206578706972656400000000000000 PUSH1 0x44 DUP3 ADD MSTORE PUSH1 0x64 SWAP1 REVERT JUMPDEST ISZERO PUSH2 0x7AF JUMPI JUMP JUMPDEST PUSH1 0x40 MLOAD PUSH3 0x461BCD PUSH1 0xE5 SHL DUP2 MSTORE PUSH1 0x20 PUSH1 0x4 DUP3 ADD MSTORE PUSH1 0x19 PUSH1 0x24 DUP3 ADD MSTORE PUSH32 0x5269736B526F757465723A20696E76616C6964206E6F6E636500000000000000 PUSH1 0x44 DUP3 ADD MSTORE PUSH1 0x64 SWAP1 REVERT JUMPDEST ISZERO PUSH2 0x7FB JUMPI JUMP JUMPDEST PUSH1 0x40 MLOAD PUSH3 0x461BCD PUSH1 0xE5 SHL DUP2 MSTORE PUSH1 0x20 PUSH1 0x4 DUP3 ADD MSTORE PUSH1 0x1D PUSH1 0x24 DUP3 ADD MSTORE PUSH32 0x5269736B526F757465723A20616C72656164792070726F636573736564000000 PUSH1 0x44 DUP3 ADD MSTORE PUSH1 0x64 SWAP1 REVERT JUMPDEST ISZERO PUSH2 0x847 JUMPI JUMP JUMPDEST PUSH1 0x40 MLOAD PUSH3 0x461BCD PUSH1 0xE5 SHL DUP2 MSTORE PUSH1 0x20 PUSH1 0x4 DUP3 ADD MSTORE PUSH1 0x25 PUSH1 0x24 DUP3 ADD MSTORE PUSH32 0x5269736B526F757465723A207369676E6572206973206E6F74206167656E7420 PUSH1 0x44 DUP3 ADD MSTORE PUSH5 0x37BBB732B9 PUSH1 0xD9 SHL PUSH1 0x64 DUP3 ADD MSTORE PUSH1 0x84 SWAP1 REVERT JUMPDEST PUSH1 0x0 NOT DUP2 EQ PUSH2 0x8A9 JUMPI PUSH1 0x1 ADD SWAP1 JUMP JUMPDEST PUSH4 0x4E487B71 PUSH1 0xE0 SHL PUSH1 0x0 MSTORE PUSH1 0x11 PUSH1 0x4 MSTORE PUSH1 0x24 PUSH1 0x0 REVERT JUMPDEST SWAP1 SWAP2 PUSH1 0x60 SWAP3 DUP3 MSTORE PUSH1 0x40 PUSH1 0x20 DUP4 ADD MSTORE PUSH2 0x8E6 DUP2 MLOAD DUP1 SWAP3 DUP2 PUSH1 0x40 DUP7 ADD MSTORE PUSH1 0x20 DUP7 DUP7 ADD SWAP2 ADD PUSH2 0x655 JUMP JUMPDEST PUSH1 0x1F ADD PUSH1 0x1F NOT AND ADD ADD SWAP1 JUMP JUMPDEST SWAP1 CALLDATALOAD SWAP1 PUSH1 0x1E NOT DUP2 CALLDATASIZE SUB ADD DUP3 SLT ISZERO PUSH2 0x166 JUMPI ADD DUP1 CALLDATALOAD SWAP1 PUSH1 0x1 PUSH1 0x1 PUSH1 0x40 SHL SUB DUP3 GT PUSH2 0x166 JUMPI PUSH1 0x20 ADD SWAP2 DUP2 CALLDATASIZE SUB DUP4 SGT PUSH2 0x166 JUMPI JUMP JUMPDEST SWAP7 SWAP6 SWAP5 SWAP1 PUSH1 0x60 SWAP5 SWAP3 PUSH2 0x955 SWAP5 PUSH2 0x947 SWAP3 DUP11 MSTORE PUSH1 0x80 PUSH1 0x20 DUP12 ADD MSTORE PUSH1 0x80 DUP11 ADD SWAP2 PUSH2 0x73B JUMP JUMPDEST SWAP2 DUP8 DUP4 SUB PUSH1 0x40 DUP10 ADD MSTORE PUSH2 0x73B JUMP JUMPDEST SWAP4 ADD MSTORE JUMP JUMPDEST CALLDATALOAD PUSH2 0x964 DUP2 PUSH2 0x194 JUMP JUMPDEST SWAP1 JUMP JUMPDEST SWAP1 SWAP2 PUSH2 0x9F3 SWAP4 SWAP3 PUSH2 0x97E PUSH1 0xE0 DUP5 ADD CALLDATALOAD TIMESTAMP GT ISZERO PUSH2 0x75C JUMP JUMPDEST DUP3 CALLDATALOAD PUSH2 0x9A3 PUSH2 0x997 DUP3 PUSH1 0x0 MSTORE PUSH1 0x9 PUSH1 0x20 MSTORE PUSH1 0x40 PUSH1 0x0 KECCAK256 SWAP1 JUMP JUMPDEST SLOAD PUSH1 0xC0 DUP7 ADD CALLDATALOAD EQ PUSH2 0x7A8 JUMP JUMPDEST PUSH2 0x9FF PUSH2 0x9FA PUSH2 0x9B2 DUP7 PUSH2 0xB96 JUMP JUMPDEST SWAP8 DUP9 SWAP5 PUSH2 0x9E2 PUSH2 0x9DD PUSH2 0x9D9 PUSH2 0x9D2 DUP10 PUSH1 0x0 MSTORE PUSH1 0x8 PUSH1 0x20 MSTORE PUSH1 0x40 PUSH1 0x0 KECCAK256 SWAP1 JUMP JUMPDEST SLOAD PUSH1 0xFF AND SWAP1 JUMP JUMPDEST ISZERO SWAP1 JUMP JUMPDEST PUSH2 0x7F4 JUMP JUMPDEST PUSH2 0x9EB DUP6 PUSH2 0xDF0 JUMP JUMPDEST SWAP7 CALLDATASIZE SWAP2 PUSH2 0x61E JUMP JUMPDEST DUP5 DUP7 PUSH2 0xEC8 JUMP JUMPDEST PUSH2 0x840 JUMP JUMPDEST PUSH2 0xA08 DUP5 PUSH2 0x1100 JUMP JUMPDEST SWAP1 PUSH2 0xA2D PUSH2 0xA20 DUP6 PUSH1 0x0 MSTORE PUSH1 0x8 PUSH1 0x20 MSTORE PUSH1 0x40 PUSH1 0x0 KECCAK256 SWAP1 JUMP JUMPDEST DUP1 SLOAD PUSH1 0xFF NOT AND PUSH1 0x1 OR SWAP1 SSTORE JUMP JUMPDEST PUSH2 0xA41 DUP4 PUSH1 0x0 MSTORE PUSH1 0x9 PUSH1 0x20 MSTORE PUSH1 0x40 PUSH1 0x0 KECCAK256 SWAP1 JUMP JUMPDEST PUSH2 0xA4B DUP2 SLOAD PUSH2 0x89A JUMP JUMPDEST SWAP1 SSTORE ISZERO PUSH2 0xB55 JUMPI POP DUP4 PUSH32 0xDA0AC845197F6EE8B8B1298CF0183F48A9264E9F83356F144B10F7661FA16127 SWAP2 PUSH2 0xA7F DUP3 PUSH2 0x1234 JUMP JUMPDEST PUSH2 0xA8C PUSH1 0x20 DUP4 ADD DUP4 PUSH2 0x8F2 JUMP JUMPDEST DUP7 PUSH2 0xAC3 PUSH2 0xAA0 PUSH1 0x40 DUP8 SWAP9 SWAP6 SWAP9 ADD DUP8 PUSH2 0x8F2 JUMP JUMPDEST PUSH1 0x40 MLOAD PUSH1 0x1 PUSH1 0x1 PUSH1 0xA0 SHL SUB SWAP10 SWAP5 DUP11 AND SWAP9 SWAP1 SWAP6 DUP7 SWAP6 PUSH1 0x60 SWAP1 SWAP3 ADD CALLDATALOAD SWAP4 SWAP2 DUP13 DUP8 PUSH2 0x924 JUMP JUMPDEST SUB SWAP1 LOG3 PUSH1 0x1 SLOAD PUSH2 0xAE3 SWAP1 PUSH1 0x1 PUSH1 0x1 PUSH1 0xA0 SHL SUB AND JUMPDEST PUSH1 0x1 PUSH1 0x1 PUSH1 0xA0 SHL SUB AND SWAP1 JUMP JUMPDEST AND ISZERO ISZERO DUP1 PUSH2 0xB3D JUMPI JUMPDEST DUP1 PUSH2 0xB25 JUMPI JUMPDEST DUP1 PUSH2 0xB17 JUMPI JUMPDEST PUSH2 0xB06 JUMPI JUMPDEST POP POP POP PUSH1 0x1 SWAP2 SWAP1 JUMP JUMPDEST PUSH2 0xB0F SWAP3 PUSH2 0x141D JUMP JUMPDEST CODESIZE DUP1 DUP4 PUSH2 0xAFD JUMP JUMPDEST POP PUSH2 0x140 DUP4 ADD CALLDATALOAD ISZERO ISZERO PUSH2 0xAF8 JUMP JUMPDEST POP PUSH2 0xB36 PUSH2 0xAD7 PUSH2 0x120 DUP6 ADD PUSH2 0x95A JUMP JUMPDEST ISZERO ISZERO PUSH2 0xAF2 JUMP JUMPDEST POP PUSH2 0xB4E PUSH2 0xAD7 PUSH2 0x100 DUP6 ADD PUSH2 0x95A JUMP JUMPDEST ISZERO ISZERO PUSH2 0xAEC JUMP JUMPDEST SWAP1 SWAP4 POP PUSH32 0xD344D458E98402D70FF8C192EEB985BC45059D53F0EC4D4306687D59D3AC6ABF SWAP3 POP PUSH2 0xB8D SWAP2 POP PUSH1 0x40 MLOAD SWAP2 DUP3 SWAP2 DUP8 DUP4 PUSH2 0x8BF JUMP JUMPDEST SUB SWAP1 LOG2 PUSH1 0x0 SWAP2 SWAP1 JUMP JUMPDEST PUSH2 0xD1C PUSH2 0xD28 PUSH1 0x20 SWAP3 PUSH2 0xBB5 PUSH2 0xBAE DUP6 DUP4 ADD DUP4 PUSH2 0x8F2 JUMP JUMPDEST CALLDATASIZE SWAP2 PUSH2 0x61E JUMP JUMPDEST DUP5 DUP2 MLOAD SWAP2 ADD KECCAK256 SWAP1 PUSH2 0xBCC PUSH2 0xBAE PUSH1 0x40 DUP4 ADD DUP4 PUSH2 0x8F2 JUMP JUMPDEST DUP6 DUP2 MLOAD SWAP2 ADD KECCAK256 SWAP1 PUSH2 0xCBE PUSH2 0xBE6 PUSH2 0xBAE PUSH1 0xA0 DUP5 ADD DUP5 PUSH2 0x8F2 JUMP JUMPDEST DUP8 DUP2 MLOAD SWAP2 ADD KECCAK256 PUSH2 0xBF9 PUSH2 0x100 DUP5 ADD PUSH2 0x95A JUMP JUMPDEST SWAP5 PUSH2 0xC07 PUSH2 0x120 DUP6 ADD PUSH2 0x95A JUMP JUMPDEST PUSH1 0x40 MLOAD SWAP7 DUP8 SWAP6 DUP12 DUP8 ADD SWAP8 PUSH2 0x160 DUP3 ADD CALLDATALOAD SWAP6 PUSH2 0x140 DUP4 ADD CALLDATALOAD SWAP6 PUSH1 0xE0 DUP5 ADD CALLDATALOAD SWAP4 PUSH1 0xC0 DUP2 ADD CALLDATALOAD SWAP4 PUSH1 0x80 DUP3 ADD CALLDATALOAD SWAP3 DUP14 PUSH1 0x60 DUP5 ADD CALLDATALOAD SWAP4 CALLDATALOAD SWAP1 SWAP9 SWAP7 SWAP4 SWAP1 SWAP13 SWAP12 SWAP11 SWAP8 SWAP5 SWAP2 SWAP3 PUSH2 0x180 SWAP11 SWAP7 SWAP4 PUSH2 0x1A0 DUP12 ADD SWAP15 PUSH32 0xB3E3FEB75FDBF40CD7B823FA7B0B1B32DE8F8D6BF2BE6E16F1A9EEDFC559B611 DUP13 MSTORE PUSH1 0x20 DUP13 ADD MSTORE PUSH1 0x40 DUP12 ADD MSTORE PUSH1 0x60 DUP11 ADD MSTORE PUSH1 0x80 DUP10 ADD MSTORE PUSH1 0xA0 DUP9 ADD MSTORE PUSH1 0xC0 DUP8 ADD MSTORE PUSH1 0xE0 DUP7 ADD MSTORE PUSH2 0x100 DUP6 ADD MSTORE PUSH1 0x1 DUP1 PUSH1 0xA0 SHL SUB DUP1 SWAP3 AND PUSH2 0x120 DUP6 ADD MSTORE AND PUSH2 0x140 DUP4 ADD MSTORE PUSH2 0x160 DUP3 ADD MSTORE ADD MSTORE JUMP JUMPDEST SUB SWAP2 PUSH2 0xCD2 PUSH1 0x1F NOT SWAP4 DUP5 DUP2 ADD DUP4 MSTORE DUP3 PUSH2 0x5E2 JUMP JUMPDEST MLOAD SWAP1 KECCAK256 PUSH1 0x40 MLOAD PUSH2 0x1901 PUSH1 0xF0 SHL SWAP6 DUP2 ADD SWAP6 DUP7 MSTORE PUSH32 0x0 PUSH1 0x2 DUP8 ADD MSTORE PUSH1 0x22 DUP7 ADD SWAP2 SWAP1 SWAP2 MSTORE SWAP3 DUP4 SWAP1 PUSH1 0x42 DUP7 ADD SWAP1 JUMP JUMPDEST SUB SWAP1 DUP2 ADD DUP4 MSTORE DUP3 PUSH2 0x5E2 JUMP JUMPDEST MLOAD SWAP1 KECCAK256 SWAP1 JUMP JUMPDEST DUP2 PUSH1 0x1F DUP3 ADD SLT ISZERO PUSH2 0x166 JUMPI DUP1 MLOAD PUSH2 0xD44 DUP2 PUSH2 0x603 JUMP JUMPDEST SWAP3 PUSH2 0xD52 PUSH1 0x40 MLOAD SWAP5 DUP6 PUSH2 0x5E2 JUMP JUMPDEST DUP2 DUP5 MSTORE PUSH1 0x20 DUP3 DUP5 ADD ADD GT PUSH2 0x166 JUMPI PUSH2 0x964 SWAP2 PUSH1 0x20 DUP1 DUP6 ADD SWAP2 ADD PUSH2 0x655 JUMP JUMPDEST SWAP1 SWAP2 PUSH1 0xE0 DUP3 DUP5 SUB SLT PUSH2 0x166 JUMPI DUP2 MLOAD PUSH1 0x1 PUSH1 0x1 PUSH1 0x40 SHL SUB SWAP1 DUP2 DUP2 GT PUSH2 0x166 JUMPI DUP5 PUSH2 0xD9A SWAP2 DUP6 ADD PUSH2 0xD2E JUMP JUMPDEST SWAP4 PUSH1 0x20 DUP5 ADD MLOAD SWAP2 DUP3 GT PUSH2 0x166 JUMPI PUSH2 0xDB2 SWAP2 DUP5 ADD PUSH2 0xD2E JUMP JUMPDEST SWAP2 PUSH1 0x40 DUP2 ADD MLOAD PUSH2 0xDC1 DUP2 PUSH2 0x194 JUMP JUMPDEST SWAP2 PUSH1 0x60 DUP3 ADD MLOAD SWAP2 PUSH1 0x80 DUP2 ADD MLOAD PUSH2 0xDD6 DUP2 PUSH2 0x2FE JUMP JUMPDEST SWAP2 PUSH1 0xC0 PUSH1 0xA0 DUP4 ADD MLOAD SWAP3 ADD MLOAD SWAP1 JUMP JUMPDEST PUSH1 0x40 MLOAD RETURNDATASIZE PUSH1 0x0 DUP3 RETURNDATACOPY RETURNDATASIZE SWAP1 REVERT JUMPDEST SWAP1 PUSH1 0x1 DUP1 PUSH1 0xA0 SHL SUB PUSH1 0x0 DUP2 DUP2 SLOAD AND SWAP4 PUSH1 0x24 PUSH1 0x40 MLOAD DUP1 SWAP7 DUP2 SWAP4 PUSH4 0x2DE5AAF7 PUSH1 0xE0 SHL DUP4 MSTORE PUSH1 0x4 DUP4 ADD MSTORE GAS STATICCALL SWAP3 DUP4 ISZERO PUSH2 0xEA3 JUMPI PUSH1 0x0 SWAP4 PUSH2 0xE77 JUMPI JUMPDEST POP DUP3 AND ISZERO PUSH2 0xE32 JUMPI JUMP JUMPDEST PUSH1 0x40 MLOAD PUSH3 0x461BCD PUSH1 0xE5 SHL DUP2 MSTORE PUSH1 0x20 PUSH1 0x4 DUP3 ADD MSTORE PUSH1 0x1B PUSH1 0x24 DUP3 ADD MSTORE PUSH32 0x5269736B526F757465723A206167656E74206E6F7420666F756E640000000000 PUSH1 0x44 DUP3 ADD MSTORE PUSH1 0x64 SWAP1 REVERT JUMPDEST PUSH2 0xE95 SWAP2 SWAP4 POP RETURNDATASIZE DUP1 PUSH1 0x0 DUP4 RETURNDATACOPY PUSH2 0xE8D DUP2 DUP4 PUSH2 0x5E2 JUMP JUMPDEST DUP2 ADD SWAP1 PUSH2 0xD70 JUMP JUMPDEST POP POP POP POP SWAP2 POP POP SWAP2 CODESIZE PUSH2 0xE28 JUMP JUMPDEST PUSH2 0xDE4 JUMP JUMPDEST SWAP1 DUP2 PUSH1 0x20 SWAP2 SUB SLT PUSH2 0x166 JUMPI MLOAD PUSH1 0x1 PUSH1 0x1 PUSH1 0xE0 SHL SUB NOT DUP2 AND DUP2 SUB PUSH2 0x166 JUMPI SWAP1 JUMP JUMPDEST SWAP2 SWAP1 SWAP2 PUSH1 0x41 DUP3 MLOAD EQ PUSH2 0xF68 JUMPI JUMPDEST DUP1 EXTCODESIZE PUSH2 0xEE3 JUMPI POP POP POP PUSH1 0x0 SWAP1 JUMP JUMPDEST PUSH2 0xF07 SWAP2 PUSH1 0x20 SWAP2 PUSH1 0x40 MLOAD DUP1 DUP1 SWAP6 DUP2 SWAP5 PUSH4 0xB135D3F PUSH1 0xE1 SHL SWAP9 DUP10 DUP5 MSTORE PUSH1 0x4 DUP5 ADD PUSH2 0x8BF JUMP JUMPDEST SUB SWAP2 PUSH1 0x1 PUSH1 0x1 PUSH1 0xA0 SHL SUB AND GAS STATICCALL PUSH1 0x0 SWAP2 DUP2 PUSH2 0xF37 JUMPI JUMPDEST POP PUSH2 0xF29 JUMPI POP POP PUSH1 0x0 SWAP1 JUMP JUMPDEST PUSH1 0x1 PUSH1 0x1 PUSH1 0xE0 SHL SUB NOT AND EQ SWAP1 JUMP JUMPDEST PUSH2 0xF5A SWAP2 SWAP3 POP PUSH1 0x20 RETURNDATASIZE PUSH1 0x20 GT PUSH2 0xF61 JUMPI JUMPDEST PUSH2 0xF52 DUP2 DUP4 PUSH2 0x5E2 JUMP JUMPDEST DUP2 ADD SWAP1 PUSH2 0xEA8 JUMP JUMPDEST SWAP1 CODESIZE PUSH2 0xF1D JUMP JUMPDEST POP RETURNDATASIZE PUSH2 0xF48 JUMP JUMPDEST PUSH1 0x20 DUP3 DUP2 ADD MLOAD PUSH1 0x40 DUP1 DUP6 ADD MLOAD PUSH1 0x60 DUP1 DUP8 ADD MLOAD DUP4 MLOAD DUP10 DUP2 MSTORE PUSH1 0x0 SWAP2 DUP3 BYTE DUP2 DUP9 ADD MSTORE SWAP4 DUP5 ADD SWAP5 SWAP1 SWAP5 MSTORE DUP3 ADD MSTORE DUP2 DUP1 MSTORE PUSH1 0x80 SWAP1 PUSH1 0x1 GAS STATICCALL ISZERO PUSH2 0xEA3 JUMPI PUSH1 0x0 MLOAD PUSH1 0x1 PUSH1 0x1 PUSH1 0xA0 SHL SUB SWAP1 DUP2 AND DUP1 ISZERO ISZERO SWAP2 DUP3 PUSH2 0xFC8 JUMPI JUMPDEST POP POP ISZERO PUSH2 0xED5 JUMPI POP POP POP PUSH1 0x1 SWAP1 JUMP JUMPDEST DUP4 AND EQ SWAP1 POP CODESIZE DUP1 PUSH2 0xFB9 JUMP JUMPDEST PUSH1 0x40 MLOAD SWAP1 PUSH1 0x20 DUP3 ADD DUP3 DUP2 LT PUSH1 0x1 PUSH1 0x1 PUSH1 0x40 SHL SUB DUP3 GT OR PUSH2 0x5DD JUMPI PUSH1 0x40 MSTORE PUSH1 0x0 DUP3 MSTORE JUMP JUMPDEST PUSH1 0x40 MLOAD SWAP1 PUSH2 0x1004 DUP3 PUSH2 0x5C2 JUMP JUMPDEST PUSH1 0x18 DUP3 MSTORE PUSH32 0x436F6E666964656E63652062656C6F77206D696E696D756D0000000000000000 PUSH1 0x20 DUP4 ADD MSTORE JUMP JUMPDEST PUSH1 0x40 MLOAD SWAP1 PUSH2 0x103D DUP3 PUSH2 0x5C2 JUMP JUMPDEST PUSH1 0x1A DUP3 MSTORE PUSH32 0x457863656564732073696E676C65207472616465206C696D6974000000000000 PUSH1 0x20 DUP4 ADD MSTORE JUMP JUMPDEST PUSH1 0x40 MLOAD SWAP1 PUSH2 0x1076 DUP3 PUSH2 0x5C2 JUMP JUMPDEST PUSH1 0x16 DUP3 MSTORE PUSH22 0x151BDAD95B881B9BDD081A5B88185B1B1BDDDB1A5CDD PUSH1 0x52 SHL PUSH1 0x20 DUP4 ADD MSTORE JUMP JUMPDEST PUSH1 0x40 MLOAD SWAP1 PUSH2 0x10A8 DUP3 PUSH2 0x5C2 JUMP JUMPDEST PUSH1 0x18 DUP3 MSTORE PUSH32 0x4461696C79206C6F7373206C696D697420726561636865640000000000000000 PUSH1 0x20 DUP4 ADD MSTORE JUMP JUMPDEST PUSH1 0x40 MLOAD SWAP1 PUSH2 0x10E1 DUP3 PUSH2 0x5C2 JUMP JUMPDEST PUSH1 0x10 DUP3 MSTORE PUSH16 0x4167656E74206E6F7420616374697665 PUSH1 0x80 SHL PUSH1 0x20 DUP4 ADD MSTORE JUMP JUMPDEST PUSH1 0x5 SLOAD PUSH1 0x80 DUP3 ADD CALLDATALOAD LT PUSH2 0x1228 JUMPI PUSH1 0x3 SLOAD PUSH1 0x60 DUP3 ADD CALLDATALOAD GT PUSH2 0x121C JUMPI PUSH2 0x1139 PUSH2 0x9D9 PUSH2 0x9D2 PUSH2 0x6E6 PUSH2 0x1133 PUSH1 0x20 DUP7 ADD DUP7 PUSH2 0x8F2 JUMP JUMPDEST SWAP1 PUSH2 0x1567 JUMP JUMPDEST PUSH2 0x1210 JUMPI CALLDATALOAD PUSH2 0x1152 DUP2 PUSH1 0x0 MSTORE PUSH1 0x7 PUSH1 0x20 MSTORE PUSH1 0x40 PUSH1 0x0 KECCAK256 SWAP1 JUMP JUMPDEST PUSH3 0x15180 TIMESTAMP DIV DUP2 SLOAD EQ SWAP1 DUP2 PUSH2 0x11FF JUMPI JUMPDEST POP PUSH2 0x11F3 JUMPI PUSH1 0x0 DUP1 SLOAD PUSH2 0x11A2 SWAP3 SWAP1 PUSH2 0x1182 SWAP1 PUSH1 0x1 PUSH1 0x1 PUSH1 0xA0 SHL SUB AND PUSH2 0xAD7 JUMP JUMPDEST PUSH1 0x40 MLOAD DUP1 DUP1 SWAP6 DUP2 SWAP5 PUSH4 0x2DE5AAF7 PUSH1 0xE0 SHL DUP4 MSTORE PUSH1 0x4 DUP4 ADD SWAP2 SWAP1 PUSH1 0x20 DUP4 ADD SWAP3 MSTORE JUMP JUMPDEST SUB SWAP2 GAS STATICCALL SWAP1 DUP2 ISZERO PUSH2 0xEA3 JUMPI PUSH1 0x0 SWAP2 PUSH2 0x11D1 JUMPI JUMPDEST POP ISZERO PUSH2 0x11C6 JUMPI PUSH1 0x1 SWAP1 PUSH2 0x964 PUSH2 0xFD4 JUMP JUMPDEST PUSH1 0x0 SWAP1 PUSH2 0x964 PUSH2 0x10D4 JUMP JUMPDEST PUSH2 0x11E6 SWAP2 POP RETURNDATASIZE DUP1 PUSH1 0x0 DUP4 RETURNDATACOPY PUSH2 0xE8D DUP2 DUP4 PUSH2 0x5E2 JUMP JUMPDEST POP POP SWAP4 POP POP POP POP CODESIZE PUSH2 0x11B5 JUMP JUMPDEST POP PUSH1 0x0 SWAP1 PUSH2 0x964 PUSH2 0x109B JUMP JUMPDEST PUSH1 0x1 SWAP2 POP ADD SLOAD PUSH1 0x4 SLOAD GT ISZERO CODESIZE PUSH2 0x1162 JUMP JUMPDEST POP PUSH1 0x0 SWAP1 PUSH2 0x964 PUSH2 0x1069 JUMP JUMPDEST POP PUSH1 0x0 SWAP1 PUSH2 0x964 PUSH2 0x1030 JUMP JUMPDEST POP PUSH1 0x0 SWAP1 PUSH2 0x964 PUSH2 0xFF7 JUMP JUMPDEST PUSH1 0x2 SWAP1 PUSH3 0x15180 TIMESTAMP DIV SWAP1 CALLDATALOAD PUSH1 0x0 MSTORE PUSH1 0x7 PUSH1 0x20 MSTORE PUSH1 0x40 PUSH1 0x0 KECCAK256 SWAP1 DUP1 DUP3 SLOAD SUB PUSH2 0x1266 JUMPI JUMPDEST POP ADD PUSH2 0x1262 DUP2 SLOAD PUSH2 0x89A JUMP JUMPDEST SWAP1 SSTORE JUMP JUMPDEST DUP2 SSTORE PUSH1 0x0 PUSH1 0x1 DUP3 ADD SSTORE PUSH1 0x0 DUP3 DUP3 ADD SSTORE CODESIZE PUSH2 0x1256 JUMP JUMPDEST PUSH1 0x1 PUSH1 0x1 PUSH1 0x40 SHL SUB DUP2 GT PUSH2 0x5DD JUMPI PUSH1 0x5 SHL PUSH1 0x20 ADD SWAP1 JUMP JUMPDEST PUSH1 0x40 MLOAD SWAP1 PUSH1 0x60 DUP3 ADD DUP3 DUP2 LT PUSH1 0x1 PUSH1 0x1 PUSH1 0x40 SHL SUB DUP3 GT OR PUSH2 0x5DD JUMPI PUSH1 0x40 MSTORE PUSH1 0x2 DUP3 MSTORE PUSH1 0x40 DUP3 PUSH1 0x20 CALLDATASIZE SWAP2 ADD CALLDATACOPY JUMP JUMPDEST PUSH4 0x4E487B71 PUSH1 0xE0 SHL PUSH1 0x0 MSTORE PUSH1 0x32 PUSH1 0x4 MSTORE PUSH1 0x24 PUSH1 0x0 REVERT JUMPDEST DUP1 MLOAD ISZERO PUSH2 0x12E1 JUMPI PUSH1 0x20 ADD SWAP1 JUMP JUMPDEST PUSH2 0x12BE JUMP JUMPDEST DUP1 MLOAD PUSH1 0x1 LT ISZERO PUSH2 0x12E1 JUMPI PUSH1 0x40 ADD SWAP1 JUMP JUMPDEST PUSH1 0x20 SWAP1 DUP2 DUP2 DUP5 SUB SLT PUSH2 0x166 JUMPI DUP1 MLOAD SWAP1 PUSH1 0x1 PUSH1 0x1 PUSH1 0x40 SHL SUB DUP3 GT PUSH2 0x166 JUMPI ADD SWAP2 DUP1 PUSH1 0x1F DUP5 ADD SLT ISZERO PUSH2 0x166 JUMPI DUP3 MLOAD PUSH2 0x132B DUP2 PUSH2 0x127B JUMP JUMPDEST SWAP4 PUSH2 0x1339 PUSH1 0x40 MLOAD SWAP6 DUP7 PUSH2 0x5E2 JUMP JUMPDEST DUP2 DUP6 MSTORE DUP4 DUP1 DUP7 ADD SWAP3 PUSH1 0x5 SHL DUP3 ADD ADD SWAP3 DUP4 GT PUSH2 0x166 JUMPI DUP4 ADD SWAP1 JUMPDEST DUP3 DUP3 LT PUSH2 0x1360 JUMPI POP POP POP POP SWAP1 JUMP JUMPDEST DUP2 MLOAD DUP2 MSTORE SWAP1 DUP4 ADD SWAP1 DUP4 ADD PUSH2 0x1352 JUMP JUMPDEST SWAP3 SWAP2 SWAP1 SWAP6 SWAP5 SWAP4 SWAP6 PUSH1 0xA0 DUP5 ADD SWAP1 DUP5 MSTORE PUSH1 0x20 SWAP2 PUSH1 0x20 DUP6 ADD MSTORE PUSH1 0xA0 PUSH1 0x40 DUP6 ADD MSTORE DUP3 MLOAD DUP1 SWAP2 MSTORE PUSH1 0x20 PUSH1 0xC0 DUP6 ADD SWAP4 ADD SWAP2 PUSH1 0x0 JUMPDEST DUP3 DUP2 LT PUSH2 0x13BE JUMPI POP POP POP POP SWAP1 PUSH1 0x80 SWAP2 SWAP5 PUSH1 0x1 DUP1 PUSH1 0xA0 SHL SUB AND PUSH1 0x60 DUP3 ADD MSTORE ADD MSTORE JUMP JUMPDEST DUP4 MLOAD PUSH1 0x1 PUSH1 0x1 PUSH1 0xA0 SHL SUB AND DUP6 MSTORE SWAP4 DUP2 ADD SWAP4 SWAP3 DUP2 ADD SWAP3 PUSH1 0x1 ADD PUSH2 0x139D JUMP JUMPDEST SWAP1 PUSH1 0x40 DUP3 ADD SWAP1 DUP3 MSTORE PUSH1 0x20 PUSH1 0x60 DUP2 SWAP4 PUSH1 0x40 DUP4 DUP3 ADD MSTORE DUP6 MLOAD DUP1 SWAP5 MSTORE ADD SWAP4 ADD SWAP2 PUSH1 0x0 JUMPDEST DUP3 DUP2 LT PUSH2 0x1409 JUMPI POP POP POP POP SWAP1 JUMP JUMPDEST DUP4 MLOAD DUP6 MSTORE SWAP4 DUP2 ADD SWAP4 SWAP3 DUP2 ADD SWAP3 PUSH1 0x1 ADD PUSH2 0x13FB JUMP JUMPDEST PUSH1 0x0 PUSH2 0x14B3 SWAP3 SWAP4 PUSH2 0x142C PUSH2 0x1292 JUMP JUMPDEST SWAP1 PUSH2 0x1455 PUSH2 0x143D PUSH2 0x100 DUP7 ADD PUSH2 0x95A JUMP JUMPDEST PUSH2 0x1446 DUP5 PUSH2 0x12D4 JUMP JUMPDEST PUSH1 0x1 PUSH1 0x1 PUSH1 0xA0 SHL SUB SWAP1 SWAP2 AND SWAP1 MSTORE JUMP JUMPDEST PUSH2 0x146E PUSH2 0x1465 PUSH2 0x120 DUP7 ADD PUSH2 0x95A JUMP JUMPDEST PUSH2 0x1446 DUP5 PUSH2 0x12E6 JUMP JUMPDEST PUSH1 0x1 SLOAD PUSH2 0x1483 SWAP1 PUSH1 0x1 PUSH1 0x1 PUSH1 0xA0 SHL SUB AND PUSH2 0xAD7 JUMP JUMPDEST SWAP1 DUP4 PUSH1 0x40 MLOAD DUP1 SWAP8 DUP2 SWAP6 DUP3 SWAP5 PUSH4 0x38ED1739 PUSH1 0xE0 SHL DUP5 MSTORE PUSH1 0xE0 DUP11 ADD CALLDATALOAD SWAP2 PUSH2 0x160 DUP12 ADD CALLDATALOAD PUSH2 0x140 DUP13 ADD CALLDATALOAD PUSH1 0x4 DUP8 ADD PUSH2 0x136F JUMP JUMPDEST SUB SWAP3 GAS CALL SWAP1 DUP2 ISZERO PUSH2 0xEA3 JUMPI PUSH32 0xB21C6D2AD94D406A58DD91450D33BF96E7FDE06D2FFCB1969C2CCBE34BB53EF2 SWAP3 PUSH1 0x0 SWAP3 PUSH2 0x14FF JUMPI JUMPDEST POP PUSH2 0x14FA PUSH1 0x40 MLOAD SWAP3 DUP4 SWAP3 CALLDATALOAD SWAP6 DUP4 PUSH2 0x13DB JUMP JUMPDEST SUB SWAP1 LOG2 JUMP JUMPDEST PUSH2 0x151D SWAP2 SWAP3 POP RETURNDATASIZE DUP1 PUSH1 0x0 DUP4 RETURNDATACOPY PUSH2 0x1515 DUP2 DUP4 PUSH2 0x5E2 JUMP JUMPDEST DUP2 ADD SWAP1 PUSH2 0x12F6 JUMP JUMPDEST SWAP1 CODESIZE PUSH2 0x14E8 JUMP JUMPDEST SWAP1 DUP2 MLOAD DUP2 LT ISZERO PUSH2 0x12E1 JUMPI ADD PUSH1 0x20 ADD SWAP1 JUMP JUMPDEST SWAP1 PUSH2 0x153F DUP3 PUSH2 0x603 JUMP JUMPDEST PUSH2 0x154C PUSH1 0x40 MLOAD SWAP2 DUP3 PUSH2 0x5E2 JUMP JUMPDEST DUP3 DUP2 MSTORE DUP1 SWAP3 PUSH2 0x155D PUSH1 0x1F NOT SWAP2 PUSH2 0x603 JUMP JUMPDEST ADD SWAP1 PUSH1 0x20 CALLDATASIZE SWAP2 ADD CALLDATACOPY JUMP JUMPDEST SWAP1 SWAP2 PUSH2 0x1574 CALLDATASIZE DUP5 DUP5 PUSH2 0x61E JUMP JUMPDEST SWAP3 PUSH1 0x0 SWAP3 PUSH1 0x0 JUMPDEST DUP6 MLOAD DUP2 LT ISZERO PUSH2 0x161D JUMPI PUSH1 0x2F PUSH1 0xF8 SHL PUSH2 0x15B4 PUSH2 0x15A7 PUSH2 0x1599 DUP5 DUP11 PUSH2 0x1524 JUMP JUMPDEST MLOAD PUSH1 0x1 PUSH1 0x1 PUSH1 0xF8 SHL SUB NOT AND SWAP1 JUMP JUMPDEST PUSH1 0x1 PUSH1 0x1 PUSH1 0xF8 SHL SUB NOT AND SWAP1 JUMP JUMPDEST EQ PUSH2 0x15C1 JUMPI PUSH1 0x1 ADD PUSH2 0x157B JUMP JUMPDEST SWAP3 SWAP4 POP SWAP1 JUMPDEST DUP3 ISZERO PUSH2 0x160D JUMPI POP POP PUSH2 0x15D7 DUP2 PUSH2 0x1535 JUMP JUMPDEST SWAP1 PUSH1 0x0 JUMPDEST DUP2 DUP2 LT PUSH2 0x15E9 JUMPI POP SWAP1 SWAP3 POP POP JUMP JUMPDEST DUP1 PUSH2 0x15F9 PUSH2 0x1599 PUSH1 0x1 SWAP4 DUP9 PUSH2 0x1524 JUMP JUMPDEST PUSH1 0x0 BYTE PUSH2 0x1606 DUP3 DUP7 PUSH2 0x1524 JUMP JUMPDEST MSTORE8 ADD PUSH2 0x15DB JUMP JUMPDEST SWAP1 SWAP2 POP PUSH2 0x964 SWAP3 SWAP4 POP CALLDATASIZE SWAP2 PUSH2 0x61E JUMP JUMPDEST POP SWAP1 SWAP3 SWAP2 SWAP3 PUSH2 0x15C6 JUMP INVALID LOG2 PUSH5 0x6970667358 0x22 SLT KECCAK256 BALANCE 0xB7 DUP10 MOD 0xBD PUSH13 0x44A2688C7884C694E8D6D5C11 PUSH7 0xE0BBB7F1219444 0xA6 TLOAD INVALID DIV 0xC4 PUSH5 0x736F6C6343 STOP ADDMOD XOR STOP CALLER "},"methodIdentifiers":{"DOMAIN_SEPARATOR()":"3644e515","TRADE_TYPEHASH()":"2bba58ac","agentDailyStats(uint256)":"1344c76e","agentNonces(uint256)":"ace1854b","agentRegistry()":"0d1cfcae","allowedTokens(string)":"fb9576da","dexRouter()":"0758d924","getAgentNonce(uint256)":"4cfee215","isTradeProcessed(bytes32)":"260f0608","maxDailyLossUsd()":"8fe9099a","maxSingleTradeUsd()":"63e93557","minConfidence()":"d52b7a14","owner()":"8da5cb5b","processedTrades(bytes32)":"91be86be","setDEXRouter(address)":"0e449f97","setLimits(uint256,uint256)":"c4590d3f","setMinConfidence(uint256)":"5764390c","setTokenAllowed(string,bool)":"351f0dbe","submitTrade((uint256,string,string,uint256,uint256,string,uint256,uint256,address,address,uint256,uint256),bytes)":"efe12a0c"}}}}}