{"contracts/ReputationManager.sol":{"ReputationManager":{"abi":[{"inputs":[{"internalType":"address","name":"_registry","type":"address"},{"internalType":"address","name":"_validationRegistry","type":"address"}],"stateMutability":"nonpayable","type":"constructor"},{"anonymous":false,"inputs":[{"indexed":true,"internalType":"address","name":"caller","type":"address"},{"indexed":false,"internalType":"bool","name":"authorized","type":"bool"}],"name":"AuthorizedCallerSet","type":"event"},{"anonymous":false,"inputs":[{"indexed":true,"internalType":"uint256","name":"agentId","type":"uint256"},{"indexed":false,"internalType":"uint256","name":"maxDrawdownBps","type":"uint256"}],"name":"DrawdownUpdated","type":"event"},{"anonymous":false,"inputs":[{"indexed":true,"internalType":"uint256","name":"agentId","type":"uint256"},{"indexed":false,"internalType":"uint256","name":"newTrustScore","type":"uint256"},{"indexed":false,"internalType":"int256","name":"scoreDelta","type":"int256"},{"indexed":false,"internalType":"string","name":"reason","type":"string"}],"name":"ReputationUpdated","type":"event"},{"inputs":[],"name":"MAX_NEGATIVE_DELTA","outputs":[{"internalType":"int256","name":"","type":"int256"}],"stateMutability":"view","type":"function"},{"inputs":[],"name":"MAX_POSITIVE_DELTA","outputs":[{"internalType":"int256","name":"","type":"int256"}],"stateMutability":"view","type":"function"},{"inputs":[{"internalType":"uint256","name":"","type":"uint256"},{"internalType":"uint256","name":"","type":"uint256"}],"name":"agentHistory","outputs":[{"internalType":"uint256","name":"agentId","type":"uint256"},{"internalType":"string","name":"tradeId","type":"string"},{"internalType":"bool","name":"profitable","type":"bool"},{"internalType":"int256","name":"pnlBps","type":"int256"},{"internalType":"uint256","name":"confidence","type":"uint256"},{"internalType":"uint256","name":"timestamp","type":"uint256"}],"stateMutability":"view","type":"function"},{"inputs":[],"name":"agentRegistry","outputs":[{"internalType":"contract AgentRegistry","name":"","type":"address"}],"stateMutability":"view","type":"function"},{"inputs":[{"internalType":"uint256","name":"","type":"uint256"}],"name":"agentStats","outputs":[{"internalType":"int256","name":"peakPnlBps","type":"int256"},{"internalType":"int256","name":"currentPnlBps","type":"int256"},{"internalType":"uint256","name":"maxDrawdownBps","type":"uint256"},{"internalType":"int256","name":"sumPnlBps","type":"int256"},{"internalType":"uint256","name":"sumSquaredPnlBps","type":"uint256"},{"internalType":"uint256","name":"tradeCount","type":"uint256"},{"internalType":"uint256","name":"winCount","type":"uint256"},{"internalType":"uint256","name":"lossCount","type":"uint256"},{"internalType":"uint256","name":"lastUpdated","type":"uint256"}],"stateMutability":"view","type":"function"},{"inputs":[{"internalType":"address","name":"","type":"address"}],"name":"authorizedCallers","outputs":[{"internalType":"bool","name":"","type":"bool"}],"stateMutability":"view","type":"function"},{"inputs":[{"internalType":"uint256","name":"agentId","type":"uint256"}],"name":"getAgentHistory","outputs":[{"components":[{"internalType":"uint256","name":"agentId","type":"uint256"},{"internalType":"string","name":"tradeId","type":"string"},{"internalType":"bool","name":"profitable","type":"bool"},{"internalType":"int256","name":"pnlBps","type":"int256"},{"internalType":"uint256","name":"confidence","type":"uint256"},{"internalType":"uint256","name":"timestamp","type":"uint256"}],"internalType":"struct ReputationManager.ScoreUpdate[]","name":"","type":"tuple[]"}],"stateMutability":"view","type":"function"},{"inputs":[{"internalType":"uint256","name":"agentId","type":"uint256"}],"name":"getAgentPerformance","outputs":[{"internalType":"int256","name":"peakPnlBps","type":"int256"},{"internalType":"int256","name":"currentPnlBps","type":"int256"},{"internalType":"uint256","name":"maxDrawdownBps","type":"uint256"},{"internalType":"int256","name":"avgPnlBps","type":"int256"},{"internalType":"uint256","name":"winRate","type":"uint256"},{"internalType":"uint256","name":"tradeCount","type":"uint256"},{"internalType":"uint256","name":"sumSquaredPnlBps","type":"uint256"}],"stateMutability":"view","type":"function"},{"inputs":[{"internalType":"uint256","name":"agentId","type":"uint256"}],"name":"getTrustScore","outputs":[{"internalType":"uint256","name":"","type":"uint256"}],"stateMutability":"view","type":"function"},{"inputs":[],"name":"owner","outputs":[{"internalType":"address","name":"","type":"address"}],"stateMutability":"view","type":"function"},{"inputs":[{"internalType":"address","name":"caller","type":"address"},{"internalType":"bool","name":"authorized","type":"bool"}],"name":"setAuthorizedCaller","outputs":[],"stateMutability":"nonpayable","type":"function"},{"inputs":[{"internalType":"uint256","name":"agentId","type":"uint256"},{"internalType":"string","name":"tradeId","type":"string"},{"internalType":"bool","name":"profitable","type":"bool"},{"internalType":"int256","name":"pnlBps","type":"int256"}],"name":"updateReputation","outputs":[],"stateMutability":"nonpayable","type":"function"},{"inputs":[{"internalType":"uint256","name":"agentId","type":"uint256"},{"internalType":"bool","name":"profitable","type":"bool"},{"internalType":"int256","name":"pnlBps","type":"int256"},{"internalType":"uint256","name":"confidence","type":"uint256"}],"name":"updateReputationDirect","outputs":[],"stateMutability":"nonpayable","type":"function"},{"inputs":[],"name":"validationRegistry","outputs":[{"internalType":"contract ValidationRegistry","name":"","type":"address"}],"stateMutability":"view","type":"function"}],"evm":{"bytecode":{"linkReferences":{},"object":"6080346100ab57601f61148d38819003918201601f19168301916001600160401b038311848410176100b05780849260409485528339810103126100ab57610052602061004b836100c6565b92016100c6565b9060018060a01b0319913383600254161760025560018060a01b03809216836000541617600055169060015416176001553360005260036020526040600020600160ff198254161790556040516113b290816100db8239f35b600080fd5b634e487b7160e01b600052604160045260246000fd5b51906001600160a01b03821682036100ab5756fe608060408181526004908136101561001657600080fd5b600092833560e01c9081630b793e0514610bab575080630d1cfcae14610b83578063107091e51461088f57806327ed42ac146107785780633ba1490714610604578063402add0814610584578063454bbd29146104b45780634ae119251461041c5780634c6b993a146103f35780634f005e90146103d7578063536fff6c1461039957806383f3d4481461030a5780638da5cb5b146102e15763c22add74146100be57600080fd5b346102dd5760803660031901126102dd578135916100da610bc7565b6002546044359260643592916001600160a01b03908116331480156102c8575b61010390610dc9565b61010e84868561112d565b948882815416803b156102c45788516395359d6b60e01b81528086018b81528715156020820152604081018590529091839183919082908490829060600103925af180156102ba576102a2575b505061016881858a6111d8565b878952602094838652878a209088519261018184610cca565b8a8452895188810181811067ffffffffffffffff82111761028d578b528c8152848901528615158a850152606084015260808301524260a0830152859289926024926101cd9190610eae565b8a5416938851948593849263107e7a8960e31b84528301525afa92831561028357879361024c575b50507feec147b56042117961ed3d136cd43a67947c39ce0cd9d2edf9b0344fa954a4ff936102389160001461023e5761022c61109b565b905b51938493846110df565b0390a280f35b610246611055565b9061022e565b9080929350813d831161027c575b6102648183610d02565b81010312610277575190836102386101f5565b600080fd5b503d61025a565b85513d89823e3d90fd5b604188634e487b7160e01b6000525260246000fd5b6102ab90610ca0565b6102b657883861015b565b8880fd5b89513d84823e3d90fd5b5080fd5b5033885260036020528588205460ff166100fa565b8280fd5b8382346102c457816003193601126102c45760025490516001600160a01b039091168152602090f35b508290346102c457602092836003193601126102dd578254825163107e7a8960e31b81528235928101929092528490829060249082906001600160a01b03165afa92831561038e579261035f575b5051908152f35b9091508281813d8311610387575b6103778183610d02565b8101031261027757519083610358565b503d61036d565b8251903d90823e3d90fd5b8382346102c45760203660031901126102c45760209160ff9082906001600160a01b036103c4610c1e565b1681526003855220541690519015158152f35b8382346102c457816003193601126102c4576020905160058152f35b8382346102c457816003193601126102c45760015490516001600160a01b039091168152602090f35b5082346104b157816003193601126104b1576024359083358152836020528281209081548310156104b157509061045291610c34565b509182549161046360018501610d24565b9360ff600282015416926005600383015491830154920154926104978151978897885260c0602089015260c0880190610bf9565b941515908601526060850152608084015260a08301520390f35b80fd5b5090346102dd57816003193601126102dd576104ce610c1e565b906104d7610bc7565b60025490926001600160a01b03929091831633036105415750916020917f1eff62a53441c7d0125c22f2a9a324e206b34efa41e19469d7efb9bb703d21a393169384865260038352610537828288209060ff801983541691151516179055565b519015158152a280f35b606490602086519162461bcd60e51b8352820152601c60248201527f52657075746174696f6e4d616e616765723a206e6f74206f776e6572000000006044820152fd5b5090346102dd5760203660031901126102dd578161012093823581526005602052208054926001820154926002830154906003840154908401549060058501549260068601549460086007880154970154978151998a5260208a01528801526060870152608086015260a085015260c084015260e0830152610100820152f35b509190346102c457602090816003193601126102dd578035835280825283832091825467ffffffffffffffff811161076557855191949260059061064c83831b880185610d02565b82845286840191829686528786209186935b8585106106ff575050505050508451938085019181865251809252858501868360051b8701019493965b8388106106955786860387f35b90919293948380600192603f198a82030186528851906106c660c08351835284840151908086850152830190610bf9565b9186810151151587830152606080820151908301526080808201519083015260a080910151910152970193019701969093929193610688565b60068a6001928d809d9a9b9d519061071682610cca565b88548252610725868a01610d24565b8483015260ff60028a015416151590820152600388015460608201528588015460808201528688015460a08201528152019401940193929896959861065e565b634e487b7160e01b855260418352602485fd5b5082346104b15760203660031901126104b157823581526005602052818120916005830154908354936001810154916002820154908783015495851590811594856000146108885760038101548361087557600160ff1b81146000198a141661086257889005955b15610855576006015491612710928381029381850414901517156108425761082f575060e09850859004935b815197885260208801528601526060850152608084015260a083015260c0820152f35b634e487b7160e01b815260128a52602490fd5b634e487b7160e01b825260118b52602482fd5b50905060e098509361080c565b634e487b7160e01b835260118c52602483fd5b634e487b7160e01b835260128c52602483fd5b81956107e0565b50346102dd5760803660031901126102dd578282359260249081359067ffffffffffffffff91828111610ab55736602382011215610ab5578082013593838511610b7f578082019181863692010111610b7f576044359384151595868603610b7b576002546001600160a01b03929060643590841633148015610b66575b61091690610dc9565b6001548b516309ae52cb60e21b815260208982018190529a918616908c81806109428b82018a8e610e8d565b0381855afa948515610b5c578d95610adc575b505061096284848c61112d565b9b813b156104b1578589928f838d8c8861099760609551998a98899788966318a2787d60e11b88528701526064860191610e8d565b9183015289604483015203925af18015610ad057610ab9575b50908d92918584541697883b15610ab557848f998f908d838e8894519e8f95869485936395359d6b60e01b85528401926109fc9360409194939260608201958252151560208201520152565b03925af18015610aab57918f979593918f908d8f9b999795610a85575b8a9b9c5084610a2d916101cd9a9b9c6111d8565b8a86528c8c52818620958c835198610a448a610cca565b8d8a5280610a5181610e1f565b94610a5e87519687610d02565b81865283860137830101528b870152850152606084015260808301524260a0830152610eae565b509697985050975097610a988391610ca0565b6102c457878b978f9796958f908d610a19565b8e513d87823e3d90fd5b8480fd5b610ac7909e9193929e610ca0565b9c9091386109b0565b8f8e51903d90823e3d90fd5b919450903d808e843e610aef8184610d02565b820161010083820312610b58578c830151828111610b54578f9082610b15918601610e3b565b50830151926060810151928311610b5457610b3760c092610b4b948301610e3b565b50610b4460a08201610e80565b5001610e80565b50923880610955565b8e80fd5b8d80fd5b8e513d8f823e3d90fd5b50338a5260036020528a8a205460ff1661090d565b8780fd5b8580fd5b8382346102c457816003193601126102c457905490516001600160a01b039091168152602090f35b8490346102c457816003193601126102c4576002198152602090f35b60243590811515820361027757565b60005b838110610be95750506000910152565b8181015183820152602001610bd9565b90602091610c1281518092818552858086019101610bd6565b601f01601f1916010190565b600435906001600160a01b038216820361027757565b8054821015610c50576000526006602060002091020190600090565b634e487b7160e01b600052603260045260246000fd5b90600182811c92168015610c96575b6020831014610c8057565b634e487b7160e01b600052602260045260246000fd5b91607f1691610c75565b67ffffffffffffffff8111610cb457604052565b634e487b7160e01b600052604160045260246000fd5b60c0810190811067ffffffffffffffff821117610cb457604052565b6060810190811067ffffffffffffffff821117610cb457604052565b90601f8019910116810190811067ffffffffffffffff821117610cb457604052565b90604051918260008254610d3781610c66565b90818452602094600191600181169081600014610da75750600114610d68575b505050610d6692500383610d02565b565b600090815285812095935091905b818310610d8f575050610d669350820101388080610d57565b85548884018501529485019487945091830191610d76565b92505050610d6694925060ff191682840152151560051b820101388080610d57565b15610dd057565b60405162461bcd60e51b815260206004820152602160248201527f52657075746174696f6e4d616e616765723a206e6f7420617574686f72697a656044820152601960fa1b6064820152608490fd5b67ffffffffffffffff8111610cb457601f01601f191660200190565b81601f82011215610277578051610e5181610e1f565b92610e5f6040519485610d02565b8184526020828401011161027757610e7d9160208085019101610bd6565b90565b5190811515820361027757565b908060209392818452848401376000828201840152601f01601f1916010190565b805468010000000000000000811015610cb457610ed2906001928382018155610c34565b92909261103f57805183558183016020808301519384519167ffffffffffffffff8311610cb457610f038454610c66565b601f8111610ff4575b5080601f8411600114610f8557509180809260a0969594600598600094610f7a575b50501b916000199060031b1c19161790555b610f5f60408201511515600286019060ff801983541691151516179055565b60608101516003850155608081015160048501550151910155565b015192503880610f2e565b91939495601f1984168660005283600020936000905b828210610fdd575050916005979593918560a098969410610fc4575b505050811b019055610f40565b015160001960f88460031b161c19169055388080610fb7565b808886978294978701518155019601940190610f9b565b60008560005282600020601f860160051c810192848710611035575b601f0160051c019184905b83811061102a57505050610f0c565b82815501849061101b565b9092508290611010565b634e487b7160e01b600052600060045260246000fd5b6040519061106282610ce6565b6024825263185cd95960e21b6040837f556e70726f66697461626c65207472616465202d20747275737420646563726560208201520152565b604051906110a882610ce6565b6022825261195960f21b6040837f50726f66697461626c65207472616465202d20747275737420696e637265617360208201520152565b610e7d9392606092825260208201528160408201520190610bf9565b9190916000838201938412911290801582169115161761111757565b634e487b7160e01b600052601160045260246000fd5b90929190156111aa57604b811061118f575060c86005925b1361116e575b60058213611165575b6002198083126111615750565b9150565b60059150611154565b9060018101906000600183129112908015821691151617611117579061114b565b6037116111a05760c8600392611145565b60c8600192611145565b909150604b81106111bf57506002199061114b565b6037116111cf576001199061114b565b6000199061114b565b916000918383526005602052604083209160018301916111f98284546110fb565b83556003840161120a8382546110fb565b9055600584018054906001820180921161136857554260088501551561135057600683018054906001820180921161133c57555b8381121561133757600160ff1b81146113235783035b80800290848112600160ff1b82141661130f578082058114901517156113235760048301805491820180921161130f5755549181548313611307575b81548184820394128185128116918513901516176112f35782136112b357505050565b600201805482116112c357505050565b817f4d03819da0078ad767df977c50cbd3a2a97250e2dcec0df3a04f40deb2b31d649260209255604051908152a2565b634e487b7160e01b81526011600452602490fd5b828255611290565b634e487b7160e01b85526011600452602485fd5b634e487b7160e01b84526011600452602484fd5b611254565b634e487b7160e01b86526011600452602486fd5b600783018054906001820180921161133c575561123e565b634e487b7160e01b87526011600452602487fdfea2646970667358221220062af56be4231a281d683586778a94ef84035c75a6cdfc9788107b3479fd995764736f6c63430008180033","opcodes":"PUSH1 0x80 CALLVALUE PUSH2 0xAB JUMPI PUSH1 0x1F PUSH2 0x148D CODESIZE DUP2 SWAP1 SUB SWAP2 DUP3 ADD PUSH1 0x1F NOT AND DUP4 ADD SWAP2 PUSH1 0x1 PUSH1 0x1 PUSH1 0x40 SHL SUB DUP4 GT DUP5 DUP5 LT OR PUSH2 0xB0 JUMPI DUP1 DUP5 SWAP3 PUSH1 0x40 SWAP5 DUP6 MSTORE DUP4 CODECOPY DUP2 ADD SUB SLT PUSH2 0xAB JUMPI PUSH2 0x52 PUSH1 0x20 PUSH2 0x4B DUP4 PUSH2 0xC6 JUMP JUMPDEST SWAP3 ADD PUSH2 0xC6 JUMP JUMPDEST SWAP1 PUSH1 0x1 DUP1 PUSH1 0xA0 SHL SUB NOT SWAP2 CALLER DUP4 PUSH1 0x2 SLOAD AND OR PUSH1 0x2 SSTORE PUSH1 0x1 DUP1 PUSH1 0xA0 SHL SUB DUP1 SWAP3 AND DUP4 PUSH1 0x0 SLOAD AND OR PUSH1 0x0 SSTORE AND SWAP1 PUSH1 0x1 SLOAD AND OR PUSH1 0x1 SSTORE CALLER PUSH1 0x0 MSTORE PUSH1 0x3 PUSH1 0x20 MSTORE PUSH1 0x40 PUSH1 0x0 KECCAK256 PUSH1 0x1 PUSH1 0xFF NOT DUP3 SLOAD AND OR SWAP1 SSTORE PUSH1 0x40 MLOAD PUSH2 0x13B2 SWAP1 DUP2 PUSH2 0xDB DUP3 CODECOPY RETURN JUMPDEST PUSH1 0x0 DUP1 REVERT JUMPDEST PUSH4 0x4E487B71 PUSH1 0xE0 SHL PUSH1 0x0 MSTORE PUSH1 0x41 PUSH1 0x4 MSTORE PUSH1 0x24 PUSH1 0x0 REVERT JUMPDEST MLOAD SWAP1 PUSH1 0x1 PUSH1 0x1 PUSH1 0xA0 SHL SUB DUP3 AND DUP3 SUB PUSH2 0xAB JUMPI JUMP INVALID PUSH1 0x80 PUSH1 0x40 DUP2 DUP2 MSTORE PUSH1 0x4 SWAP1 DUP2 CALLDATASIZE LT ISZERO PUSH2 0x16 JUMPI PUSH1 0x0 DUP1 REVERT JUMPDEST PUSH1 0x0 SWAP3 DUP4 CALLDATALOAD PUSH1 0xE0 SHR SWAP1 DUP2 PUSH4 0xB793E05 EQ PUSH2 0xBAB JUMPI POP DUP1 PUSH4 0xD1CFCAE EQ PUSH2 0xB83 JUMPI DUP1 PUSH4 0x107091E5 EQ PUSH2 0x88F JUMPI DUP1 PUSH4 0x27ED42AC EQ PUSH2 0x778 JUMPI DUP1 PUSH4 0x3BA14907 EQ PUSH2 0x604 JUMPI DUP1 PUSH4 0x402ADD08 EQ PUSH2 0x584 JUMPI DUP1 PUSH4 0x454BBD29 EQ PUSH2 0x4B4 JUMPI DUP1 PUSH4 0x4AE11925 EQ PUSH2 0x41C JUMPI DUP1 PUSH4 0x4C6B993A EQ PUSH2 0x3F3 JUMPI DUP1 PUSH4 0x4F005E90 EQ PUSH2 0x3D7 JUMPI DUP1 PUSH4 0x536FFF6C EQ PUSH2 0x399 JUMPI DUP1 PUSH4 0x83F3D448 EQ PUSH2 0x30A JUMPI DUP1 PUSH4 0x8DA5CB5B EQ PUSH2 0x2E1 JUMPI PUSH4 0xC22ADD74 EQ PUSH2 0xBE JUMPI PUSH1 0x0 DUP1 REVERT JUMPDEST CALLVALUE PUSH2 0x2DD JUMPI PUSH1 0x80 CALLDATASIZE PUSH1 0x3 NOT ADD SLT PUSH2 0x2DD JUMPI DUP2 CALLDATALOAD SWAP2 PUSH2 0xDA PUSH2 0xBC7 JUMP JUMPDEST PUSH1 0x2 SLOAD PUSH1 0x44 CALLDATALOAD SWAP3 PUSH1 0x64 CALLDATALOAD SWAP3 SWAP2 PUSH1 0x1 PUSH1 0x1 PUSH1 0xA0 SHL SUB SWAP1 DUP2 AND CALLER EQ DUP1 ISZERO PUSH2 0x2C8 JUMPI JUMPDEST PUSH2 0x103 SWAP1 PUSH2 0xDC9 JUMP JUMPDEST PUSH2 0x10E DUP5 DUP7 DUP6 PUSH2 0x112D JUMP JUMPDEST SWAP5 DUP9 DUP3 DUP2 SLOAD AND DUP1 EXTCODESIZE ISZERO PUSH2 0x2C4 JUMPI DUP9 MLOAD PUSH4 0x95359D6B PUSH1 0xE0 SHL DUP2 MSTORE DUP1 DUP7 ADD DUP12 DUP2 MSTORE DUP8 ISZERO ISZERO PUSH1 0x20 DUP3 ADD MSTORE PUSH1 0x40 DUP2 ADD DUP6 SWAP1 MSTORE SWAP1 SWAP2 DUP4 SWAP2 DUP4 SWAP2 SWAP1 DUP3 SWAP1 DUP5 SWAP1 DUP3 SWAP1 PUSH1 0x60 ADD SUB SWAP3 GAS CALL DUP1 ISZERO PUSH2 0x2BA JUMPI PUSH2 0x2A2 JUMPI JUMPDEST POP POP PUSH2 0x168 DUP2 DUP6 DUP11 PUSH2 0x11D8 JUMP JUMPDEST DUP8 DUP10 MSTORE PUSH1 0x20 SWAP5 DUP4 DUP7 MSTORE DUP8 DUP11 KECCAK256 SWAP1 DUP9 MLOAD SWAP3 PUSH2 0x181 DUP5 PUSH2 0xCCA JUMP JUMPDEST DUP11 DUP5 MSTORE DUP10 MLOAD DUP9 DUP2 ADD DUP2 DUP2 LT PUSH8 0xFFFFFFFFFFFFFFFF DUP3 GT OR PUSH2 0x28D JUMPI DUP12 MSTORE DUP13 DUP2 MSTORE DUP5 DUP10 ADD MSTORE DUP7 ISZERO ISZERO DUP11 DUP6 ADD MSTORE PUSH1 0x60 DUP5 ADD MSTORE PUSH1 0x80 DUP4 ADD MSTORE TIMESTAMP PUSH1 0xA0 DUP4 ADD MSTORE DUP6 SWAP3 DUP10 SWAP3 PUSH1 0x24 SWAP3 PUSH2 0x1CD SWAP2 SWAP1 PUSH2 0xEAE JUMP JUMPDEST DUP11 SLOAD AND SWAP4 DUP9 MLOAD SWAP5 DUP6 SWAP4 DUP5 SWAP3 PUSH4 0x107E7A89 PUSH1 0xE3 SHL DUP5 MSTORE DUP4 ADD MSTORE GAS STATICCALL SWAP3 DUP4 ISZERO PUSH2 0x283 JUMPI DUP8 SWAP4 PUSH2 0x24C JUMPI JUMPDEST POP POP PUSH32 0xEEC147B56042117961ED3D136CD43A67947C39CE0CD9D2EDF9B0344FA954A4FF SWAP4 PUSH2 0x238 SWAP2 PUSH1 0x0 EQ PUSH2 0x23E JUMPI PUSH2 0x22C PUSH2 0x109B JUMP JUMPDEST SWAP1 JUMPDEST MLOAD SWAP4 DUP5 SWAP4 DUP5 PUSH2 0x10DF JUMP JUMPDEST SUB SWAP1 LOG2 DUP1 RETURN JUMPDEST PUSH2 0x246 PUSH2 0x1055 JUMP JUMPDEST SWAP1 PUSH2 0x22E JUMP JUMPDEST SWAP1 DUP1 SWAP3 SWAP4 POP DUP2 RETURNDATASIZE DUP4 GT PUSH2 0x27C JUMPI JUMPDEST PUSH2 0x264 DUP2 DUP4 PUSH2 0xD02 JUMP JUMPDEST DUP2 ADD SUB SLT PUSH2 0x277 JUMPI MLOAD SWAP1 DUP4 PUSH2 0x238 PUSH2 0x1F5 JUMP JUMPDEST PUSH1 0x0 DUP1 REVERT JUMPDEST POP RETURNDATASIZE PUSH2 0x25A JUMP JUMPDEST DUP6 MLOAD RETURNDATASIZE DUP10 DUP3 RETURNDATACOPY RETURNDATASIZE SWAP1 REVERT JUMPDEST PUSH1 0x41 DUP9 PUSH4 0x4E487B71 PUSH1 0xE0 SHL PUSH1 0x0 MSTORE MSTORE PUSH1 0x24 PUSH1 0x0 REVERT JUMPDEST PUSH2 0x2AB SWAP1 PUSH2 0xCA0 JUMP JUMPDEST PUSH2 0x2B6 JUMPI DUP9 CODESIZE PUSH2 0x15B JUMP JUMPDEST DUP9 DUP1 REVERT JUMPDEST DUP10 MLOAD RETURNDATASIZE DUP5 DUP3 RETURNDATACOPY RETURNDATASIZE SWAP1 REVERT JUMPDEST POP DUP1 REVERT JUMPDEST POP CALLER DUP9 MSTORE PUSH1 0x3 PUSH1 0x20 MSTORE DUP6 DUP9 KECCAK256 SLOAD PUSH1 0xFF AND PUSH2 0xFA JUMP JUMPDEST DUP3 DUP1 REVERT JUMPDEST DUP4 DUP3 CALLVALUE PUSH2 0x2C4 JUMPI DUP2 PUSH1 0x3 NOT CALLDATASIZE ADD SLT PUSH2 0x2C4 JUMPI PUSH1 0x2 SLOAD SWAP1 MLOAD PUSH1 0x1 PUSH1 0x1 PUSH1 0xA0 SHL SUB SWAP1 SWAP2 AND DUP2 MSTORE PUSH1 0x20 SWAP1 RETURN JUMPDEST POP DUP3 SWAP1 CALLVALUE PUSH2 0x2C4 JUMPI PUSH1 0x20 SWAP3 DUP4 PUSH1 0x3 NOT CALLDATASIZE ADD SLT PUSH2 0x2DD JUMPI DUP3 SLOAD DUP3 MLOAD PUSH4 0x107E7A89 PUSH1 0xE3 SHL DUP2 MSTORE DUP3 CALLDATALOAD SWAP3 DUP2 ADD SWAP3 SWAP1 SWAP3 MSTORE DUP5 SWAP1 DUP3 SWAP1 PUSH1 0x24 SWAP1 DUP3 SWAP1 PUSH1 0x1 PUSH1 0x1 PUSH1 0xA0 SHL SUB AND GAS STATICCALL SWAP3 DUP4 ISZERO PUSH2 0x38E JUMPI SWAP3 PUSH2 0x35F JUMPI JUMPDEST POP MLOAD SWAP1 DUP2 MSTORE RETURN JUMPDEST SWAP1 SWAP2 POP DUP3 DUP2 DUP2 RETURNDATASIZE DUP4 GT PUSH2 0x387 JUMPI JUMPDEST PUSH2 0x377 DUP2 DUP4 PUSH2 0xD02 JUMP JUMPDEST DUP2 ADD SUB SLT PUSH2 0x277 JUMPI MLOAD SWAP1 DUP4 PUSH2 0x358 JUMP JUMPDEST POP RETURNDATASIZE PUSH2 0x36D JUMP JUMPDEST DUP3 MLOAD SWAP1 RETURNDATASIZE SWAP1 DUP3 RETURNDATACOPY RETURNDATASIZE SWAP1 REVERT JUMPDEST DUP4 DUP3 CALLVALUE PUSH2 0x2C4 JUMPI PUSH1 0x20 CALLDATASIZE PUSH1 0x3 NOT ADD SLT PUSH2 0x2C4 JUMPI PUSH1 0x20 SWAP2 PUSH1 0xFF SWAP1 DUP3 SWAP1 PUSH1 0x1 PUSH1 0x1 PUSH1 0xA0 SHL SUB PUSH2 0x3C4 PUSH2 0xC1E JUMP JUMPDEST AND DUP2 MSTORE PUSH1 0x3 DUP6 MSTORE KECCAK256 SLOAD AND SWAP1 MLOAD SWAP1 ISZERO ISZERO DUP2 MSTORE RETURN JUMPDEST DUP4 DUP3 CALLVALUE PUSH2 0x2C4 JUMPI DUP2 PUSH1 0x3 NOT CALLDATASIZE ADD SLT PUSH2 0x2C4 JUMPI PUSH1 0x20 SWAP1 MLOAD PUSH1 0x5 DUP2 MSTORE RETURN JUMPDEST DUP4 DUP3 CALLVALUE PUSH2 0x2C4 JUMPI DUP2 PUSH1 0x3 NOT CALLDATASIZE ADD SLT PUSH2 0x2C4 JUMPI PUSH1 0x1 SLOAD SWAP1 MLOAD PUSH1 0x1 PUSH1 0x1 PUSH1 0xA0 SHL SUB SWAP1 SWAP2 AND DUP2 MSTORE PUSH1 0x20 SWAP1 RETURN JUMPDEST POP DUP3 CALLVALUE PUSH2 0x4B1 JUMPI DUP2 PUSH1 0x3 NOT CALLDATASIZE ADD SLT PUSH2 0x4B1 JUMPI PUSH1 0x24 CALLDATALOAD SWAP1 DUP4 CALLDATALOAD DUP2 MSTORE DUP4 PUSH1 0x20 MSTORE DUP3 DUP2 KECCAK256 SWAP1 DUP2 SLOAD DUP4 LT ISZERO PUSH2 0x4B1 JUMPI POP SWAP1 PUSH2 0x452 SWAP2 PUSH2 0xC34 JUMP JUMPDEST POP SWAP2 DUP3 SLOAD SWAP2 PUSH2 0x463 PUSH1 0x1 DUP6 ADD PUSH2 0xD24 JUMP JUMPDEST SWAP4 PUSH1 0xFF PUSH1 0x2 DUP3 ADD SLOAD AND SWAP3 PUSH1 0x5 PUSH1 0x3 DUP4 ADD SLOAD SWAP2 DUP4 ADD SLOAD SWAP3 ADD SLOAD SWAP3 PUSH2 0x497 DUP2 MLOAD SWAP8 DUP9 SWAP8 DUP9 MSTORE PUSH1 0xC0 PUSH1 0x20 DUP10 ADD MSTORE PUSH1 0xC0 DUP9 ADD SWAP1 PUSH2 0xBF9 JUMP JUMPDEST SWAP5 ISZERO ISZERO SWAP1 DUP7 ADD MSTORE PUSH1 0x60 DUP6 ADD MSTORE PUSH1 0x80 DUP5 ADD MSTORE PUSH1 0xA0 DUP4 ADD MSTORE SUB SWAP1 RETURN JUMPDEST DUP1 REVERT JUMPDEST POP SWAP1 CALLVALUE PUSH2 0x2DD JUMPI DUP2 PUSH1 0x3 NOT CALLDATASIZE ADD SLT PUSH2 0x2DD JUMPI PUSH2 0x4CE PUSH2 0xC1E JUMP JUMPDEST SWAP1 PUSH2 0x4D7 PUSH2 0xBC7 JUMP JUMPDEST PUSH1 0x2 SLOAD SWAP1 SWAP3 PUSH1 0x1 PUSH1 0x1 PUSH1 0xA0 SHL SUB SWAP3 SWAP1 SWAP2 DUP4 AND CALLER SUB PUSH2 0x541 JUMPI POP SWAP2 PUSH1 0x20 SWAP2 PUSH32 0x1EFF62A53441C7D0125C22F2A9A324E206B34EFA41E19469D7EFB9BB703D21A3 SWAP4 AND SWAP4 DUP5 DUP7 MSTORE PUSH1 0x3 DUP4 MSTORE PUSH2 0x537 DUP3 DUP3 DUP9 KECCAK256 SWAP1 PUSH1 0xFF DUP1 NOT DUP4 SLOAD AND SWAP2 ISZERO ISZERO AND OR SWAP1 SSTORE JUMP JUMPDEST MLOAD SWAP1 ISZERO ISZERO DUP2 MSTORE LOG2 DUP1 RETURN JUMPDEST PUSH1 0x64 SWAP1 PUSH1 0x20 DUP7 MLOAD SWAP2 PUSH3 0x461BCD PUSH1 0xE5 SHL DUP4 MSTORE DUP3 ADD MSTORE PUSH1 0x1C PUSH1 0x24 DUP3 ADD MSTORE PUSH32 0x52657075746174696F6E4D616E616765723A206E6F74206F776E657200000000 PUSH1 0x44 DUP3 ADD MSTORE REVERT JUMPDEST POP SWAP1 CALLVALUE PUSH2 0x2DD JUMPI PUSH1 0x20 CALLDATASIZE PUSH1 0x3 NOT ADD SLT PUSH2 0x2DD JUMPI DUP2 PUSH2 0x120 SWAP4 DUP3 CALLDATALOAD DUP2 MSTORE PUSH1 0x5 PUSH1 0x20 MSTORE KECCAK256 DUP1 SLOAD SWAP3 PUSH1 0x1 DUP3 ADD SLOAD SWAP3 PUSH1 0x2 DUP4 ADD SLOAD SWAP1 PUSH1 0x3 DUP5 ADD SLOAD SWAP1 DUP5 ADD SLOAD SWAP1 PUSH1 0x5 DUP6 ADD SLOAD SWAP3 PUSH1 0x6 DUP7 ADD SLOAD SWAP5 PUSH1 0x8 PUSH1 0x7 DUP9 ADD SLOAD SWAP8 ADD SLOAD SWAP8 DUP2 MLOAD SWAP10 DUP11 MSTORE PUSH1 0x20 DUP11 ADD MSTORE DUP9 ADD MSTORE PUSH1 0x60 DUP8 ADD MSTORE PUSH1 0x80 DUP7 ADD MSTORE PUSH1 0xA0 DUP6 ADD MSTORE PUSH1 0xC0 DUP5 ADD MSTORE PUSH1 0xE0 DUP4 ADD MSTORE PUSH2 0x100 DUP3 ADD MSTORE RETURN JUMPDEST POP SWAP2 SWAP1 CALLVALUE PUSH2 0x2C4 JUMPI PUSH1 0x20 SWAP1 DUP2 PUSH1 0x3 NOT CALLDATASIZE ADD SLT PUSH2 0x2DD JUMPI DUP1 CALLDATALOAD DUP4 MSTORE DUP1 DUP3 MSTORE DUP4 DUP4 KECCAK256 SWAP2 DUP3 SLOAD PUSH8 0xFFFFFFFFFFFFFFFF DUP2 GT PUSH2 0x765 JUMPI DUP6 MLOAD SWAP2 SWAP5 SWAP3 PUSH1 0x5 SWAP1 PUSH2 0x64C DUP4 DUP4 SHL DUP9 ADD DUP6 PUSH2 0xD02 JUMP JUMPDEST DUP3 DUP5 MSTORE DUP7 DUP5 ADD SWAP2 DUP3 SWAP7 DUP7 MSTORE DUP8 DUP7 KECCAK256 SWAP2 DUP7 SWAP4 JUMPDEST DUP6 DUP6 LT PUSH2 0x6FF JUMPI POP POP POP POP POP POP DUP5 MLOAD SWAP4 DUP1 DUP6 ADD SWAP2 DUP2 DUP7 MSTORE MLOAD DUP1 SWAP3 MSTORE DUP6 DUP6 ADD DUP7 DUP4 PUSH1 0x5 SHL DUP8 ADD ADD SWAP5 SWAP4 SWAP7 JUMPDEST DUP4 DUP9 LT PUSH2 0x695 JUMPI DUP7 DUP7 SUB DUP8 RETURN JUMPDEST SWAP1 SWAP2 SWAP3 SWAP4 SWAP5 DUP4 DUP1 PUSH1 0x1 SWAP3 PUSH1 0x3F NOT DUP11 DUP3 SUB ADD DUP7 MSTORE DUP9 MLOAD SWAP1 PUSH2 0x6C6 PUSH1 0xC0 DUP4 MLOAD DUP4 MSTORE DUP5 DUP5 ADD MLOAD SWAP1 DUP1 DUP7 DUP6 ADD MSTORE DUP4 ADD SWAP1 PUSH2 0xBF9 JUMP JUMPDEST SWAP2 DUP7 DUP2 ADD MLOAD ISZERO ISZERO DUP8 DUP4 ADD MSTORE PUSH1 0x60 DUP1 DUP3 ADD MLOAD SWAP1 DUP4 ADD MSTORE PUSH1 0x80 DUP1 DUP3 ADD MLOAD SWAP1 DUP4 ADD MSTORE PUSH1 0xA0 DUP1 SWAP2 ADD MLOAD SWAP2 ADD MSTORE SWAP8 ADD SWAP4 ADD SWAP8 ADD SWAP7 SWAP1 SWAP4 SWAP3 SWAP2 SWAP4 PUSH2 0x688 JUMP JUMPDEST PUSH1 0x6 DUP11 PUSH1 0x1 SWAP3 DUP14 DUP1 SWAP14 SWAP11 SWAP12 SWAP14 MLOAD SWAP1 PUSH2 0x716 DUP3 PUSH2 0xCCA JUMP JUMPDEST DUP9 SLOAD DUP3 MSTORE PUSH2 0x725 DUP7 DUP11 ADD PUSH2 0xD24 JUMP JUMPDEST DUP5 DUP4 ADD MSTORE PUSH1 0xFF PUSH1 0x2 DUP11 ADD SLOAD AND ISZERO ISZERO SWAP1 DUP3 ADD MSTORE PUSH1 0x3 DUP9 ADD SLOAD PUSH1 0x60 DUP3 ADD MSTORE DUP6 DUP9 ADD SLOAD PUSH1 0x80 DUP3 ADD MSTORE DUP7 DUP9 ADD SLOAD PUSH1 0xA0 DUP3 ADD MSTORE DUP2 MSTORE ADD SWAP5 ADD SWAP5 ADD SWAP4 SWAP3 SWAP9 SWAP7 SWAP6 SWAP9 PUSH2 0x65E JUMP JUMPDEST PUSH4 0x4E487B71 PUSH1 0xE0 SHL DUP6 MSTORE PUSH1 0x41 DUP4 MSTORE PUSH1 0x24 DUP6 REVERT JUMPDEST POP DUP3 CALLVALUE PUSH2 0x4B1 JUMPI PUSH1 0x20 CALLDATASIZE PUSH1 0x3 NOT ADD SLT PUSH2 0x4B1 JUMPI DUP3 CALLDATALOAD DUP2 MSTORE PUSH1 0x5 PUSH1 0x20 MSTORE DUP2 DUP2 KECCAK256 SWAP2 PUSH1 0x5 DUP4 ADD SLOAD SWAP1 DUP4 SLOAD SWAP4 PUSH1 0x1 DUP2 ADD SLOAD SWAP2 PUSH1 0x2 DUP3 ADD SLOAD SWAP1 DUP8 DUP4 ADD SLOAD SWAP6 DUP6 ISZERO SWAP1 DUP2 ISZERO SWAP5 DUP6 PUSH1 0x0 EQ PUSH2 0x888 JUMPI PUSH1 0x3 DUP2 ADD SLOAD DUP4 PUSH2 0x875 JUMPI PUSH1 0x1 PUSH1 0xFF SHL DUP2 EQ PUSH1 0x0 NOT DUP11 EQ AND PUSH2 0x862 JUMPI DUP9 SWAP1 SDIV SWAP6 JUMPDEST ISZERO PUSH2 0x855 JUMPI PUSH1 0x6 ADD SLOAD SWAP2 PUSH2 0x2710 SWAP3 DUP4 DUP2 MUL SWAP4 DUP2 DUP6 DIV EQ SWAP1 ISZERO OR ISZERO PUSH2 0x842 JUMPI PUSH2 0x82F JUMPI POP PUSH1 0xE0 SWAP9 POP DUP6 SWAP1 DIV SWAP4 JUMPDEST DUP2 MLOAD SWAP8 DUP9 MSTORE PUSH1 0x20 DUP9 ADD MSTORE DUP7 ADD MSTORE PUSH1 0x60 DUP6 ADD MSTORE PUSH1 0x80 DUP5 ADD MSTORE PUSH1 0xA0 DUP4 ADD MSTORE PUSH1 0xC0 DUP3 ADD MSTORE RETURN JUMPDEST PUSH4 0x4E487B71 PUSH1 0xE0 SHL DUP2 MSTORE PUSH1 0x12 DUP11 MSTORE PUSH1 0x24 SWAP1 REVERT JUMPDEST PUSH4 0x4E487B71 PUSH1 0xE0 SHL DUP3 MSTORE PUSH1 0x11 DUP12 MSTORE PUSH1 0x24 DUP3 REVERT JUMPDEST POP SWAP1 POP PUSH1 0xE0 SWAP9 POP SWAP4 PUSH2 0x80C JUMP JUMPDEST PUSH4 0x4E487B71 PUSH1 0xE0 SHL DUP4 MSTORE PUSH1 0x11 DUP13 MSTORE PUSH1 0x24 DUP4 REVERT JUMPDEST PUSH4 0x4E487B71 PUSH1 0xE0 SHL DUP4 MSTORE PUSH1 0x12 DUP13 MSTORE PUSH1 0x24 DUP4 REVERT JUMPDEST DUP2 SWAP6 PUSH2 0x7E0 JUMP JUMPDEST POP CALLVALUE PUSH2 0x2DD JUMPI PUSH1 0x80 CALLDATASIZE PUSH1 0x3 NOT ADD SLT PUSH2 0x2DD JUMPI DUP3 DUP3 CALLDATALOAD SWAP3 PUSH1 0x24 SWAP1 DUP2 CALLDATALOAD SWAP1 PUSH8 0xFFFFFFFFFFFFFFFF SWAP2 DUP3 DUP2 GT PUSH2 0xAB5 JUMPI CALLDATASIZE PUSH1 0x23 DUP3 ADD SLT ISZERO PUSH2 0xAB5 JUMPI DUP1 DUP3 ADD CALLDATALOAD SWAP4 DUP4 DUP6 GT PUSH2 0xB7F JUMPI DUP1 DUP3 ADD SWAP2 DUP2 DUP7 CALLDATASIZE SWAP3 ADD ADD GT PUSH2 0xB7F JUMPI PUSH1 0x44 CALLDATALOAD SWAP4 DUP5 ISZERO ISZERO SWAP6 DUP7 DUP7 SUB PUSH2 0xB7B JUMPI PUSH1 0x2 SLOAD PUSH1 0x1 PUSH1 0x1 PUSH1 0xA0 SHL SUB SWAP3 SWAP1 PUSH1 0x64 CALLDATALOAD SWAP1 DUP5 AND CALLER EQ DUP1 ISZERO PUSH2 0xB66 JUMPI JUMPDEST PUSH2 0x916 SWAP1 PUSH2 0xDC9 JUMP JUMPDEST PUSH1 0x1 SLOAD DUP12 MLOAD PUSH4 0x9AE52CB PUSH1 0xE2 SHL DUP2 MSTORE PUSH1 0x20 DUP10 DUP3 ADD DUP2 SWAP1 MSTORE SWAP11 SWAP2 DUP7 AND SWAP1 DUP13 DUP2 DUP1 PUSH2 0x942 DUP12 DUP3 ADD DUP11 DUP15 PUSH2 0xE8D JUMP JUMPDEST SUB DUP2 DUP6 GAS STATICCALL SWAP5 DUP6 ISZERO PUSH2 0xB5C JUMPI DUP14 SWAP6 PUSH2 0xADC JUMPI JUMPDEST POP POP PUSH2 0x962 DUP5 DUP5 DUP13 PUSH2 0x112D JUMP JUMPDEST SWAP12 DUP2 EXTCODESIZE ISZERO PUSH2 0x4B1 JUMPI DUP6 DUP10 SWAP3 DUP16 DUP4 DUP14 DUP13 DUP9 PUSH2 0x997 PUSH1 0x60 SWAP6 MLOAD SWAP10 DUP11 SWAP9 DUP10 SWAP8 DUP9 SWAP7 PUSH4 0x18A2787D PUSH1 0xE1 SHL DUP9 MSTORE DUP8 ADD MSTORE PUSH1 0x64 DUP7 ADD SWAP2 PUSH2 0xE8D JUMP JUMPDEST SWAP2 DUP4 ADD MSTORE DUP10 PUSH1 0x44 DUP4 ADD MSTORE SUB SWAP3 GAS CALL DUP1 ISZERO PUSH2 0xAD0 JUMPI PUSH2 0xAB9 JUMPI JUMPDEST POP SWAP1 DUP14 SWAP3 SWAP2 DUP6 DUP5 SLOAD AND SWAP8 DUP9 EXTCODESIZE ISZERO PUSH2 0xAB5 JUMPI DUP5 DUP16 SWAP10 DUP16 SWAP1 DUP14 DUP4 DUP15 DUP9 SWAP5 MLOAD SWAP15 DUP16 SWAP6 DUP7 SWAP5 DUP6 SWAP4 PUSH4 0x95359D6B PUSH1 0xE0 SHL DUP6 MSTORE DUP5 ADD SWAP3 PUSH2 0x9FC SWAP4 PUSH1 0x40 SWAP2 SWAP5 SWAP4 SWAP3 PUSH1 0x60 DUP3 ADD SWAP6 DUP3 MSTORE ISZERO ISZERO PUSH1 0x20 DUP3 ADD MSTORE ADD MSTORE JUMP JUMPDEST SUB SWAP3 GAS CALL DUP1 ISZERO PUSH2 0xAAB JUMPI SWAP2 DUP16 SWAP8 SWAP6 SWAP4 SWAP2 DUP16 SWAP1 DUP14 DUP16 SWAP12 SWAP10 SWAP8 SWAP6 PUSH2 0xA85 JUMPI JUMPDEST DUP11 SWAP12 SWAP13 POP DUP5 PUSH2 0xA2D SWAP2 PUSH2 0x1CD SWAP11 SWAP12 SWAP13 PUSH2 0x11D8 JUMP JUMPDEST DUP11 DUP7 MSTORE DUP13 DUP13 MSTORE DUP2 DUP7 KECCAK256 SWAP6 DUP13 DUP4 MLOAD SWAP9 PUSH2 0xA44 DUP11 PUSH2 0xCCA JUMP JUMPDEST DUP14 DUP11 MSTORE DUP1 PUSH2 0xA51 DUP2 PUSH2 0xE1F JUMP JUMPDEST SWAP5 PUSH2 0xA5E DUP8 MLOAD SWAP7 DUP8 PUSH2 0xD02 JUMP JUMPDEST DUP2 DUP7 MSTORE DUP4 DUP7 ADD CALLDATACOPY DUP4 ADD ADD MSTORE DUP12 DUP8 ADD MSTORE DUP6 ADD MSTORE PUSH1 0x60 DUP5 ADD MSTORE PUSH1 0x80 DUP4 ADD MSTORE TIMESTAMP PUSH1 0xA0 DUP4 ADD MSTORE PUSH2 0xEAE JUMP JUMPDEST POP SWAP7 SWAP8 SWAP9 POP POP SWAP8 POP SWAP8 PUSH2 0xA98 DUP4 SWAP2 PUSH2 0xCA0 JUMP JUMPDEST PUSH2 0x2C4 JUMPI DUP8 DUP12 SWAP8 DUP16 SWAP8 SWAP7 SWAP6 DUP16 SWAP1 DUP14 PUSH2 0xA19 JUMP JUMPDEST DUP15 MLOAD RETURNDATASIZE DUP8 DUP3 RETURNDATACOPY RETURNDATASIZE SWAP1 REVERT JUMPDEST DUP5 DUP1 REVERT JUMPDEST PUSH2 0xAC7 SWAP1 SWAP15 SWAP2 SWAP4 SWAP3 SWAP15 PUSH2 0xCA0 JUMP JUMPDEST SWAP13 SWAP1 SWAP2 CODESIZE PUSH2 0x9B0 JUMP JUMPDEST DUP16 DUP15 MLOAD SWAP1 RETURNDATASIZE SWAP1 DUP3 RETURNDATACOPY RETURNDATASIZE SWAP1 REVERT JUMPDEST SWAP2 SWAP5 POP SWAP1 RETURNDATASIZE DUP1 DUP15 DUP5 RETURNDATACOPY PUSH2 0xAEF DUP2 DUP5 PUSH2 0xD02 JUMP JUMPDEST DUP3 ADD PUSH2 0x100 DUP4 DUP3 SUB SLT PUSH2 0xB58 JUMPI DUP13 DUP4 ADD MLOAD DUP3 DUP2 GT PUSH2 0xB54 JUMPI DUP16 SWAP1 DUP3 PUSH2 0xB15 SWAP2 DUP7 ADD PUSH2 0xE3B JUMP JUMPDEST POP DUP4 ADD MLOAD SWAP3 PUSH1 0x60 DUP2 ADD MLOAD SWAP3 DUP4 GT PUSH2 0xB54 JUMPI PUSH2 0xB37 PUSH1 0xC0 SWAP3 PUSH2 0xB4B SWAP5 DUP4 ADD PUSH2 0xE3B JUMP JUMPDEST POP PUSH2 0xB44 PUSH1 0xA0 DUP3 ADD PUSH2 0xE80 JUMP JUMPDEST POP ADD PUSH2 0xE80 JUMP JUMPDEST POP SWAP3 CODESIZE DUP1 PUSH2 0x955 JUMP JUMPDEST DUP15 DUP1 REVERT JUMPDEST DUP14 DUP1 REVERT JUMPDEST DUP15 MLOAD RETURNDATASIZE DUP16 DUP3 RETURNDATACOPY RETURNDATASIZE SWAP1 REVERT JUMPDEST POP CALLER DUP11 MSTORE PUSH1 0x3 PUSH1 0x20 MSTORE DUP11 DUP11 KECCAK256 SLOAD PUSH1 0xFF AND PUSH2 0x90D JUMP JUMPDEST DUP8 DUP1 REVERT JUMPDEST DUP6 DUP1 REVERT JUMPDEST DUP4 DUP3 CALLVALUE PUSH2 0x2C4 JUMPI DUP2 PUSH1 0x3 NOT CALLDATASIZE ADD SLT PUSH2 0x2C4 JUMPI SWAP1 SLOAD SWAP1 MLOAD PUSH1 0x1 PUSH1 0x1 PUSH1 0xA0 SHL SUB SWAP1 SWAP2 AND DUP2 MSTORE PUSH1 0x20 SWAP1 RETURN JUMPDEST DUP5 SWAP1 CALLVALUE PUSH2 0x2C4 JUMPI DUP2 PUSH1 0x3 NOT CALLDATASIZE ADD SLT PUSH2 0x2C4 JUMPI PUSH1 0x2 NOT DUP2 MSTORE PUSH1 0x20 SWAP1 RETURN JUMPDEST PUSH1 0x24 CALLDATALOAD SWAP1 DUP2 ISZERO ISZERO DUP3 SUB PUSH2 0x277 JUMPI JUMP JUMPDEST PUSH1 0x0 JUMPDEST DUP4 DUP2 LT PUSH2 0xBE9 JUMPI POP POP PUSH1 0x0 SWAP2 ADD MSTORE JUMP JUMPDEST DUP2 DUP2 ADD MLOAD DUP4 DUP3 ADD MSTORE PUSH1 0x20 ADD PUSH2 0xBD9 JUMP JUMPDEST SWAP1 PUSH1 0x20 SWAP2 PUSH2 0xC12 DUP2 MLOAD DUP1 SWAP3 DUP2 DUP6 MSTORE DUP6 DUP1 DUP7 ADD SWAP2 ADD PUSH2 0xBD6 JUMP JUMPDEST PUSH1 0x1F ADD PUSH1 0x1F NOT AND ADD ADD SWAP1 JUMP JUMPDEST PUSH1 0x4 CALLDATALOAD SWAP1 PUSH1 0x1 PUSH1 0x1 PUSH1 0xA0 SHL SUB DUP3 AND DUP3 SUB PUSH2 0x277 JUMPI JUMP JUMPDEST DUP1 SLOAD DUP3 LT ISZERO PUSH2 0xC50 JUMPI PUSH1 0x0 MSTORE PUSH1 0x6 PUSH1 0x20 PUSH1 0x0 KECCAK256 SWAP2 MUL ADD SWAP1 PUSH1 0x0 SWAP1 JUMP JUMPDEST PUSH4 0x4E487B71 PUSH1 0xE0 SHL PUSH1 0x0 MSTORE PUSH1 0x32 PUSH1 0x4 MSTORE PUSH1 0x24 PUSH1 0x0 REVERT JUMPDEST SWAP1 PUSH1 0x1 DUP3 DUP2 SHR SWAP3 AND DUP1 ISZERO PUSH2 0xC96 JUMPI JUMPDEST PUSH1 0x20 DUP4 LT EQ PUSH2 0xC80 JUMPI JUMP JUMPDEST PUSH4 0x4E487B71 PUSH1 0xE0 SHL PUSH1 0x0 MSTORE PUSH1 0x22 PUSH1 0x4 MSTORE PUSH1 0x24 PUSH1 0x0 REVERT JUMPDEST SWAP2 PUSH1 0x7F AND SWAP2 PUSH2 0xC75 JUMP JUMPDEST PUSH8 0xFFFFFFFFFFFFFFFF DUP2 GT PUSH2 0xCB4 JUMPI PUSH1 0x40 MSTORE JUMP JUMPDEST PUSH4 0x4E487B71 PUSH1 0xE0 SHL PUSH1 0x0 MSTORE PUSH1 0x41 PUSH1 0x4 MSTORE PUSH1 0x24 PUSH1 0x0 REVERT JUMPDEST PUSH1 0xC0 DUP2 ADD SWAP1 DUP2 LT PUSH8 0xFFFFFFFFFFFFFFFF DUP3 GT OR PUSH2 0xCB4 JUMPI PUSH1 0x40 MSTORE JUMP JUMPDEST PUSH1 0x60 DUP2 ADD SWAP1 DUP2 LT PUSH8 0xFFFFFFFFFFFFFFFF DUP3 GT OR PUSH2 0xCB4 JUMPI PUSH1 0x40 MSTORE JUMP JUMPDEST SWAP1 PUSH1 0x1F DUP1 NOT SWAP2 ADD AND DUP2 ADD SWAP1 DUP2 LT PUSH8 0xFFFFFFFFFFFFFFFF DUP3 GT OR PUSH2 0xCB4 JUMPI PUSH1 0x40 MSTORE JUMP JUMPDEST SWAP1 PUSH1 0x40 MLOAD SWAP2 DUP3 PUSH1 0x0 DUP3 SLOAD PUSH2 0xD37 DUP2 PUSH2 0xC66 JUMP JUMPDEST SWAP1 DUP2 DUP5 MSTORE PUSH1 0x20 SWAP5 PUSH1 0x1 SWAP2 PUSH1 0x1 DUP2 AND SWAP1 DUP2 PUSH1 0x0 EQ PUSH2 0xDA7 JUMPI POP PUSH1 0x1 EQ PUSH2 0xD68 JUMPI JUMPDEST POP POP POP PUSH2 0xD66 SWAP3 POP SUB DUP4 PUSH2 0xD02 JUMP JUMPDEST JUMP JUMPDEST PUSH1 0x0 SWAP1 DUP2 MSTORE DUP6 DUP2 KECCAK256 SWAP6 SWAP4 POP SWAP2 SWAP1 JUMPDEST DUP2 DUP4 LT PUSH2 0xD8F JUMPI POP POP PUSH2 0xD66 SWAP4 POP DUP3 ADD ADD CODESIZE DUP1 DUP1 PUSH2 0xD57 JUMP JUMPDEST DUP6 SLOAD DUP9 DUP5 ADD DUP6 ADD MSTORE SWAP5 DUP6 ADD SWAP5 DUP8 SWAP5 POP SWAP2 DUP4 ADD SWAP2 PUSH2 0xD76 JUMP JUMPDEST SWAP3 POP POP POP PUSH2 0xD66 SWAP5 SWAP3 POP PUSH1 0xFF NOT AND DUP3 DUP5 ADD MSTORE ISZERO ISZERO PUSH1 0x5 SHL DUP3 ADD ADD CODESIZE DUP1 DUP1 PUSH2 0xD57 JUMP JUMPDEST ISZERO PUSH2 0xDD0 JUMPI JUMP JUMPDEST PUSH1 0x40 MLOAD PUSH3 0x461BCD PUSH1 0xE5 SHL DUP2 MSTORE PUSH1 0x20 PUSH1 0x4 DUP3 ADD MSTORE PUSH1 0x21 PUSH1 0x24 DUP3 ADD MSTORE PUSH32 0x52657075746174696F6E4D616E616765723A206E6F7420617574686F72697A65 PUSH1 0x44 DUP3 ADD MSTORE PUSH1 0x19 PUSH1 0xFA SHL PUSH1 0x64 DUP3 ADD MSTORE PUSH1 0x84 SWAP1 REVERT JUMPDEST PUSH8 0xFFFFFFFFFFFFFFFF DUP2 GT PUSH2 0xCB4 JUMPI PUSH1 0x1F ADD PUSH1 0x1F NOT AND PUSH1 0x20 ADD SWAP1 JUMP JUMPDEST DUP2 PUSH1 0x1F DUP3 ADD SLT ISZERO PUSH2 0x277 JUMPI DUP1 MLOAD PUSH2 0xE51 DUP2 PUSH2 0xE1F JUMP JUMPDEST SWAP3 PUSH2 0xE5F PUSH1 0x40 MLOAD SWAP5 DUP6 PUSH2 0xD02 JUMP JUMPDEST DUP2 DUP5 MSTORE PUSH1 0x20 DUP3 DUP5 ADD ADD GT PUSH2 0x277 JUMPI PUSH2 0xE7D SWAP2 PUSH1 0x20 DUP1 DUP6 ADD SWAP2 ADD PUSH2 0xBD6 JUMP JUMPDEST SWAP1 JUMP JUMPDEST MLOAD SWAP1 DUP2 ISZERO ISZERO DUP3 SUB PUSH2 0x277 JUMPI JUMP JUMPDEST SWAP1 DUP1 PUSH1 0x20 SWAP4 SWAP3 DUP2 DUP5 MSTORE DUP5 DUP5 ADD CALLDATACOPY PUSH1 0x0 DUP3 DUP3 ADD DUP5 ADD MSTORE PUSH1 0x1F ADD PUSH1 0x1F NOT AND ADD ADD SWAP1 JUMP JUMPDEST DUP1 SLOAD PUSH9 0x10000000000000000 DUP2 LT ISZERO PUSH2 0xCB4 JUMPI PUSH2 0xED2 SWAP1 PUSH1 0x1 SWAP3 DUP4 DUP3 ADD DUP2 SSTORE PUSH2 0xC34 JUMP JUMPDEST SWAP3 SWAP1 SWAP3 PUSH2 0x103F JUMPI DUP1 MLOAD DUP4 SSTORE DUP2 DUP4 ADD PUSH1 0x20 DUP1 DUP4 ADD MLOAD SWAP4 DUP5 MLOAD SWAP2 PUSH8 0xFFFFFFFFFFFFFFFF DUP4 GT PUSH2 0xCB4 JUMPI PUSH2 0xF03 DUP5 SLOAD PUSH2 0xC66 JUMP JUMPDEST PUSH1 0x1F DUP2 GT PUSH2 0xFF4 JUMPI JUMPDEST POP DUP1 PUSH1 0x1F DUP5 GT PUSH1 0x1 EQ PUSH2 0xF85 JUMPI POP SWAP2 DUP1 DUP1 SWAP3 PUSH1 0xA0 SWAP7 SWAP6 SWAP5 PUSH1 0x5 SWAP9 PUSH1 0x0 SWAP5 PUSH2 0xF7A JUMPI JUMPDEST POP POP SHL SWAP2 PUSH1 0x0 NOT SWAP1 PUSH1 0x3 SHL SHR NOT AND OR SWAP1 SSTORE JUMPDEST PUSH2 0xF5F PUSH1 0x40 DUP3 ADD MLOAD ISZERO ISZERO PUSH1 0x2 DUP7 ADD SWAP1 PUSH1 0xFF DUP1 NOT DUP4 SLOAD AND SWAP2 ISZERO ISZERO AND OR SWAP1 SSTORE JUMP JUMPDEST PUSH1 0x60 DUP2 ADD MLOAD PUSH1 0x3 DUP6 ADD SSTORE PUSH1 0x80 DUP2 ADD MLOAD PUSH1 0x4 DUP6 ADD SSTORE ADD MLOAD SWAP2 ADD SSTORE JUMP JUMPDEST ADD MLOAD SWAP3 POP CODESIZE DUP1 PUSH2 0xF2E JUMP JUMPDEST SWAP2 SWAP4 SWAP5 SWAP6 PUSH1 0x1F NOT DUP5 AND DUP7 PUSH1 0x0 MSTORE DUP4 PUSH1 0x0 KECCAK256 SWAP4 PUSH1 0x0 SWAP1 JUMPDEST DUP3 DUP3 LT PUSH2 0xFDD JUMPI POP POP SWAP2 PUSH1 0x5 SWAP8 SWAP6 SWAP4 SWAP2 DUP6 PUSH1 0xA0 SWAP9 SWAP7 SWAP5 LT PUSH2 0xFC4 JUMPI JUMPDEST POP POP POP DUP2 SHL ADD SWAP1 SSTORE PUSH2 0xF40 JUMP JUMPDEST ADD MLOAD PUSH1 0x0 NOT PUSH1 0xF8 DUP5 PUSH1 0x3 SHL AND SHR NOT AND SWAP1 SSTORE CODESIZE DUP1 DUP1 PUSH2 0xFB7 JUMP JUMPDEST DUP1 DUP9 DUP7 SWAP8 DUP3 SWAP5 SWAP8 DUP8 ADD MLOAD DUP2 SSTORE ADD SWAP7 ADD SWAP5 ADD SWAP1 PUSH2 0xF9B JUMP JUMPDEST PUSH1 0x0 DUP6 PUSH1 0x0 MSTORE DUP3 PUSH1 0x0 KECCAK256 PUSH1 0x1F DUP7 ADD PUSH1 0x5 SHR DUP2 ADD SWAP3 DUP5 DUP8 LT PUSH2 0x1035 JUMPI JUMPDEST PUSH1 0x1F ADD PUSH1 0x5 SHR ADD SWAP2 DUP5 SWAP1 JUMPDEST DUP4 DUP2 LT PUSH2 0x102A JUMPI POP POP POP PUSH2 0xF0C JUMP JUMPDEST DUP3 DUP2 SSTORE ADD DUP5 SWAP1 PUSH2 0x101B JUMP JUMPDEST SWAP1 SWAP3 POP DUP3 SWAP1 PUSH2 0x1010 JUMP JUMPDEST PUSH4 0x4E487B71 PUSH1 0xE0 SHL PUSH1 0x0 MSTORE PUSH1 0x0 PUSH1 0x4 MSTORE PUSH1 0x24 PUSH1 0x0 REVERT JUMPDEST PUSH1 0x40 MLOAD SWAP1 PUSH2 0x1062 DUP3 PUSH2 0xCE6 JUMP JUMPDEST PUSH1 0x24 DUP3 MSTORE PUSH4 0x185CD959 PUSH1 0xE2 SHL PUSH1 0x40 DUP4 PUSH32 0x556E70726F66697461626C65207472616465202D207472757374206465637265 PUSH1 0x20 DUP3 ADD MSTORE ADD MSTORE JUMP JUMPDEST PUSH1 0x40 MLOAD SWAP1 PUSH2 0x10A8 DUP3 PUSH2 0xCE6 JUMP JUMPDEST PUSH1 0x22 DUP3 MSTORE PUSH2 0x1959 PUSH1 0xF2 SHL PUSH1 0x40 DUP4 PUSH32 0x50726F66697461626C65207472616465202D20747275737420696E6372656173 PUSH1 0x20 DUP3 ADD MSTORE ADD MSTORE JUMP JUMPDEST PUSH2 0xE7D SWAP4 SWAP3 PUSH1 0x60 SWAP3 DUP3 MSTORE PUSH1 0x20 DUP3 ADD MSTORE DUP2 PUSH1 0x40 DUP3 ADD MSTORE ADD SWAP1 PUSH2 0xBF9 JUMP JUMPDEST SWAP2 SWAP1 SWAP2 PUSH1 0x0 DUP4 DUP3 ADD SWAP4 DUP5 SLT SWAP2 SLT SWAP1 DUP1 ISZERO DUP3 AND SWAP2 ISZERO AND OR PUSH2 0x1117 JUMPI JUMP JUMPDEST PUSH4 0x4E487B71 PUSH1 0xE0 SHL PUSH1 0x0 MSTORE PUSH1 0x11 PUSH1 0x4 MSTORE PUSH1 0x24 PUSH1 0x0 REVERT JUMPDEST SWAP1 SWAP3 SWAP2 SWAP1 ISZERO PUSH2 0x11AA JUMPI PUSH1 0x4B DUP2 LT PUSH2 0x118F JUMPI POP PUSH1 0xC8 PUSH1 0x5 SWAP3 JUMPDEST SGT PUSH2 0x116E JUMPI JUMPDEST PUSH1 0x5 DUP3 SGT PUSH2 0x1165 JUMPI JUMPDEST PUSH1 0x2 NOT DUP1 DUP4 SLT PUSH2 0x1161 JUMPI POP JUMP JUMPDEST SWAP2 POP JUMP JUMPDEST PUSH1 0x5 SWAP2 POP PUSH2 0x1154 JUMP JUMPDEST SWAP1 PUSH1 0x1 DUP2 ADD SWAP1 PUSH1 0x0 PUSH1 0x1 DUP4 SLT SWAP2 SLT SWAP1 DUP1 ISZERO DUP3 AND SWAP2 ISZERO AND OR PUSH2 0x1117 JUMPI SWAP1 PUSH2 0x114B JUMP JUMPDEST PUSH1 0x37 GT PUSH2 0x11A0 JUMPI PUSH1 0xC8 PUSH1 0x3 SWAP3 PUSH2 0x1145 JUMP JUMPDEST PUSH1 0xC8 PUSH1 0x1 SWAP3 PUSH2 0x1145 JUMP JUMPDEST SWAP1 SWAP2 POP PUSH1 0x4B DUP2 LT PUSH2 0x11BF JUMPI POP PUSH1 0x2 NOT SWAP1 PUSH2 0x114B JUMP JUMPDEST PUSH1 0x37 GT PUSH2 0x11CF JUMPI PUSH1 0x1 NOT SWAP1 PUSH2 0x114B JUMP JUMPDEST PUSH1 0x0 NOT SWAP1 PUSH2 0x114B JUMP JUMPDEST SWAP2 PUSH1 0x0 SWAP2 DUP4 DUP4 MSTORE PUSH1 0x5 PUSH1 0x20 MSTORE PUSH1 0x40 DUP4 KECCAK256 SWAP2 PUSH1 0x1 DUP4 ADD SWAP2 PUSH2 0x11F9 DUP3 DUP5 SLOAD PUSH2 0x10FB JUMP JUMPDEST DUP4 SSTORE PUSH1 0x3 DUP5 ADD PUSH2 0x120A DUP4 DUP3 SLOAD PUSH2 0x10FB JUMP JUMPDEST SWAP1 SSTORE PUSH1 0x5 DUP5 ADD DUP1 SLOAD SWAP1 PUSH1 0x1 DUP3 ADD DUP1 SWAP3 GT PUSH2 0x1368 JUMPI SSTORE TIMESTAMP PUSH1 0x8 DUP6 ADD SSTORE ISZERO PUSH2 0x1350 JUMPI PUSH1 0x6 DUP4 ADD DUP1 SLOAD SWAP1 PUSH1 0x1 DUP3 ADD DUP1 SWAP3 GT PUSH2 0x133C JUMPI SSTORE JUMPDEST DUP4 DUP2 SLT ISZERO PUSH2 0x1337 JUMPI PUSH1 0x1 PUSH1 0xFF SHL DUP2 EQ PUSH2 0x1323 JUMPI DUP4 SUB JUMPDEST DUP1 DUP1 MUL SWAP1 DUP5 DUP2 SLT PUSH1 0x1 PUSH1 0xFF SHL DUP3 EQ AND PUSH2 0x130F JUMPI DUP1 DUP3 SDIV DUP2 EQ SWAP1 ISZERO OR ISZERO PUSH2 0x1323 JUMPI PUSH1 0x4 DUP4 ADD DUP1 SLOAD SWAP2 DUP3 ADD DUP1 SWAP3 GT PUSH2 0x130F JUMPI SSTORE SLOAD SWAP2 DUP2 SLOAD DUP4 SGT PUSH2 0x1307 JUMPI JUMPDEST DUP2 SLOAD DUP2 DUP5 DUP3 SUB SWAP5 SLT DUP2 DUP6 SLT DUP2 AND SWAP2 DUP6 SGT SWAP1 ISZERO AND OR PUSH2 0x12F3 JUMPI DUP3 SGT PUSH2 0x12B3 JUMPI POP POP POP JUMP JUMPDEST PUSH1 0x2 ADD DUP1 SLOAD DUP3 GT PUSH2 0x12C3 JUMPI POP POP POP JUMP JUMPDEST DUP2 PUSH32 0x4D03819DA0078AD767DF977C50CBD3A2A97250E2DCEC0DF3A04F40DEB2B31D64 SWAP3 PUSH1 0x20 SWAP3 SSTORE PUSH1 0x40 MLOAD SWAP1 DUP2 MSTORE LOG2 JUMP JUMPDEST PUSH4 0x4E487B71 PUSH1 0xE0 SHL DUP2 MSTORE PUSH1 0x11 PUSH1 0x4 MSTORE PUSH1 0x24 SWAP1 REVERT JUMPDEST DUP3 DUP3 SSTORE PUSH2 0x1290 JUMP JUMPDEST PUSH4 0x4E487B71 PUSH1 0xE0 SHL DUP6 MSTORE PUSH1 0x11 PUSH1 0x4 MSTORE PUSH1 0x24 DUP6 REVERT JUMPDEST PUSH4 0x4E487B71 PUSH1 0xE0 SHL DUP5 MSTORE PUSH1 0x11 PUSH1 0x4 MSTORE PUSH1 0x24 DUP5 REVERT JUMPDEST PUSH2 0x1254 JUMP JUMPDEST PUSH4 0x4E487B71 PUSH1 0xE0 SHL DUP7 MSTORE PUSH1 0x11 PUSH1 0x4 MSTORE PUSH1 0x24 DUP7 REVERT JUMPDEST PUSH1 0x7 DUP4 ADD DUP1 SLOAD SWAP1 PUSH1 0x1 DUP3 ADD DUP1 SWAP3 GT PUSH2 0x133C JUMPI SSTORE PUSH2 0x123E JUMP JUMPDEST PUSH4 0x4E487B71 PUSH1 0xE0 SHL DUP8 MSTORE PUSH1 0x11 PUSH1 0x4 MSTORE PUSH1 0x24 DUP8 REVERT INVALID LOG2 PUSH5 0x6970667358 0x22 SLT KECCAK256 MOD 0x2A CREATE2 PUSH12 0xE4231A281D683586778A94EF DUP5 SUB TLOAD PUSH22 0xA6CDFC9788107B3479FD995764736F6C634300081800 CALLER "},"methodIdentifiers":{"MAX_NEGATIVE_DELTA()":"0b793e05","MAX_POSITIVE_DELTA()":"4f005e90","agentHistory(uint256,uint256)":"4ae11925","agentRegistry()":"0d1cfcae","agentStats(uint256)":"402add08","authorizedCallers(address)":"536fff6c","getAgentHistory(uint256)":"3ba14907","getAgentPerformance(uint256)":"27ed42ac","getTrustScore(uint256)":"83f3d448","owner()":"8da5cb5b","setAuthorizedCaller(address,bool)":"454bbd29","updateReputation(uint256,string,bool,int256)":"107091e5","updateReputationDirect(uint256,bool,int256,uint256)":"c22add74","validationRegistry()":"4c6b993a"}}}}}