{"contracts/AgentRegistry.sol":{"AgentRegistry":{"abi":[{"inputs":[],"stateMutability":"nonpayable","type":"constructor"},{"anonymous":false,"inputs":[{"indexed":true,"internalType":"uint256","name":"agentId","type":"uint256"}],"name":"AgentDeactivated","type":"event"},{"anonymous":false,"inputs":[{"indexed":true,"internalType":"uint256","name":"agentId","type":"uint256"},{"indexed":true,"internalType":"address","name":"owner","type":"address"},{"indexed":false,"internalType":"string","name":"name","type":"string"},{"indexed":false,"internalType":"string","name":"strategy","type":"string"}],"name":"AgentRegistered","type":"event"},{"anonymous":false,"inputs":[{"indexed":true,"internalType":"address","name":"owner","type":"address"},{"indexed":true,"internalType":"address","name":"approved","type":"address"},{"indexed":true,"internalType":"uint256","name":"tokenId","type":"uint256"}],"name":"Approval","type":"event"},{"anonymous":false,"inputs":[{"indexed":true,"internalType":"address","name":"owner","type":"address"},{"indexed":true,"internalType":"address","name":"operator","type":"address"},{"indexed":false,"internalType":"bool","name":"approved","type":"bool"}],"name":"ApprovalForAll","type":"event"},{"anonymous":false,"inputs":[{"indexed":true,"internalType":"address","name":"from","type":"address"},{"indexed":true,"internalType":"address","name":"to","type":"address"},{"indexed":true,"internalType":"uint256","name":"tokenId","type":"uint256"}],"name":"Transfer","type":"event"},{"anonymous":false,"inputs":[{"indexed":true,"internalType":"uint256","name":"agentId","type":"uint256"},{"indexed":false,"internalType":"uint256","name":"newScore","type":"uint256"}],"name":"TrustScoreUpdated","type":"event"},{"inputs":[{"internalType":"address","name":"to","type":"address"},{"internalType":"uint256","name":"tokenId","type":"uint256"}],"name":"approve","outputs":[],"stateMutability":"nonpayable","type":"function"},{"inputs":[{"internalType":"address","name":"_owner","type":"address"}],"name":"balanceOf","outputs":[{"internalType":"uint256","name":"","type":"uint256"}],"stateMutability":"view","type":"function"},{"inputs":[{"internalType":"uint256","name":"agentId","type":"uint256"}],"name":"deactivateAgent","outputs":[],"stateMutability":"nonpayable","type":"function"},{"inputs":[],"name":"erc8004Registry","outputs":[{"internalType":"address","name":"","type":"address"}],"stateMutability":"view","type":"function"},{"inputs":[{"internalType":"uint256","name":"agentId","type":"uint256"}],"name":"getAgent","outputs":[{"internalType":"string","name":"agentName","type":"string"},{"internalType":"string","name":"strategy","type":"string"},{"internalType":"address","name":"agentOwner","type":"address"},{"internalType":"uint256","name":"trustScore","type":"uint256"},{"internalType":"bool","name":"active","type":"bool"},{"internalType":"uint256","name":"totalTrades","type":"uint256"},{"internalType":"uint256","name":"profitableTrades","type":"uint256"}],"stateMutability":"view","type":"function"},{"inputs":[{"internalType":"address","name":"agentOwner","type":"address"}],"name":"getAgentsByOwner","outputs":[{"internalType":"uint256[]","name":"","type":"uint256[]"}],"stateMutability":"view","type":"function"},{"inputs":[{"internalType":"uint256","name":"tokenId","type":"uint256"}],"name":"getApproved","outputs":[{"internalType":"address","name":"","type":"address"}],"stateMutability":"view","type":"function"},{"inputs":[{"internalType":"uint256","name":"agentId","type":"uint256"}],"name":"getTrustScore","outputs":[{"internalType":"uint256","name":"","type":"uint256"}],"stateMutability":"view","type":"function"},{"inputs":[{"internalType":"address","name":"_owner","type":"address"},{"internalType":"address","name":"operator","type":"address"}],"name":"isApprovedForAll","outputs":[{"internalType":"bool","name":"","type":"bool"}],"stateMutability":"view","type":"function"},{"inputs":[{"internalType":"uint256","name":"agentId","type":"uint256"},{"internalType":"bytes32","name":"hash","type":"bytes32"},{"internalType":"bytes","name":"signature","type":"bytes"}],"name":"isValidAgentSignature","outputs":[{"internalType":"bool","name":"","type":"bool"}],"stateMutability":"view","type":"function"},{"inputs":[{"internalType":"bytes32","name":"hash","type":"bytes32"},{"internalType":"bytes","name":"signature","type":"bytes"}],"name":"isValidSignature","outputs":[{"internalType":"bytes4","name":"","type":"bytes4"}],"stateMutability":"view","type":"function"},{"inputs":[],"name":"name","outputs":[{"internalType":"string","name":"","type":"string"}],"stateMutability":"view","type":"function"},{"inputs":[],"name":"owner","outputs":[{"internalType":"address","name":"","type":"address"}],"stateMutability":"view","type":"function"},{"inputs":[{"internalType":"uint256","name":"tokenId","type":"uint256"}],"name":"ownerOf","outputs":[{"internalType":"address","name":"","type":"address"}],"stateMutability":"view","type":"function"},{"inputs":[{"internalType":"string","name":"name_","type":"string"},{"internalType":"string","name":"strategy","type":"string"},{"internalType":"string","name":"endpoint","type":"string"},{"internalType":"string","name":"tokenURI_","type":"string"}],"name":"registerAgent","outputs":[{"internalType":"uint256","name":"agentId","type":"uint256"}],"stateMutability":"nonpayable","type":"function"},{"inputs":[],"name":"reputationManager","outputs":[{"internalType":"address","name":"","type":"address"}],"stateMutability":"view","type":"function"},{"inputs":[{"internalType":"address","name":"from","type":"address"},{"internalType":"address","name":"to","type":"address"},{"internalType":"uint256","name":"tokenId","type":"uint256"}],"name":"safeTransferFrom","outputs":[],"stateMutability":"nonpayable","type":"function"},{"inputs":[{"internalType":"address","name":"from","type":"address"},{"internalType":"address","name":"to","type":"address"},{"internalType":"uint256","name":"tokenId","type":"uint256"},{"internalType":"bytes","name":"data","type":"bytes"}],"name":"safeTransferFrom","outputs":[],"stateMutability":"nonpayable","type":"function"},{"inputs":[{"internalType":"address","name":"operator","type":"address"},{"internalType":"bool","name":"approved","type":"bool"}],"name":"setApprovalForAll","outputs":[],"stateMutability":"nonpayable","type":"function"},{"inputs":[{"internalType":"address","name":"registry","type":"address"}],"name":"setERC8004Registry","outputs":[],"stateMutability":"nonpayable","type":"function"},{"inputs":[{"internalType":"address","name":"manager","type":"address"}],"name":"setReputationManager","outputs":[],"stateMutability":"nonpayable","type":"function"},{"inputs":[{"internalType":"bytes4","name":"interfaceId","type":"bytes4"}],"name":"supportsInterface","outputs":[{"internalType":"bool","name":"","type":"bool"}],"stateMutability":"pure","type":"function"},{"inputs":[],"name":"symbol","outputs":[{"internalType":"string","name":"","type":"string"}],"stateMutability":"view","type":"function"},{"inputs":[{"internalType":"uint256","name":"tokenId","type":"uint256"}],"name":"tokenURI","outputs":[{"internalType":"string","name":"","type":"string"}],"stateMutability":"view","type":"function"},{"inputs":[],"name":"totalAgents","outputs":[{"internalType":"uint256","name":"","type":"uint256"}],"stateMutability":"view","type":"function"},{"inputs":[{"internalType":"address","name":"from","type":"address"},{"internalType":"address","name":"to","type":"address"},{"internalType":"uint256","name":"tokenId","type":"uint256"}],"name":"transferFrom","outputs":[],"stateMutability":"nonpayable","type":"function"},{"inputs":[{"internalType":"uint256","name":"agentId","type":"uint256"},{"internalType":"bool","name":"profitable","type":"bool"},{"internalType":"int256","name":"pnlBps","type":"int256"}],"name":"updateReputation","outputs":[],"stateMutability":"nonpayable","type":"function"}],"evm":{"bytecode":{"linkReferences":{},"object":"608060405234620000fb5760018060065560018060a01b03193381600a541617600a553390600954161760095560006200003a815462000100565b601f8111620000cc575b507f414954726164696e674167656e7400000000000000000000000000000000001c81558154620000759062000100565b90601f82116200009d575b6008634149544160e01b018355604051611f9d90816200013e8239f35b82815282601f60208320930160051c8301925b838110620000c057505062000080565b828155018390620000b0565b81805282601f60208420920160051c8201915b828110620000ef57505062000044565b838155018390620000df565b600080fd5b90600182811c9216801562000132575b60208310146200011c57565b634e487b7160e01b600052602260045260246000fd5b91607f16916200011056fe6080604052600436101561001257600080fd5b60003560e01c806301ffc9a7146101c757806306fdde03146101c2578063081812fc146101bd578063095ea7b3146101b857806311ba6b4a146101b35780631626ba7e146101ae5780631ab6f888146101a957806323b872dd146101a45780632de5aaf71461019f57806342842e0e1461019a5780634a8930a51461019557806356a837f4146101905780635c30a8e11461018b5780636352211e146101865780636b249af8146101815780636b868afb1461017c57806370a082311461017757806375694ff31461017257806383f3d4481461016d5780638da5cb5b1461016857806395359d6b1461016357806395d89b411461015e578063a22cb46514610159578063b88d4fde14610154578063c50537121461014f578063c87b56dd1461014a5763e985e9c51461014557600080fd5b610ff7565b610f91565b610f61565b610eec565b610e05565b610d5e565b610cb6565b610c7e565b610c4f565b610baf565b610afc565b610ad3565b610a82565b610a43565b610a1a565b6109c9565b61097e565b610936565b6108c6565b610848565b61078c565b6106ff565b61055a565b610406565b61038c565b6102a5565b6101e3565b6001600160e01b03198116036101de57565b600080fd5b346101de5760203660031901126101de576020600435610202816101cc565b63ffffffff60e01b166380ac58cd60e01b8114908115610240575b811561022f575b506040519015158152f35b6301ffc9a760e01b14905038610224565b635b5e139f60e01b8114915061021d565b919082519283825260005b84811061027d575050826000602080949584010152601f8019910116010190565b60208183018101518483018201520161025c565b9060206102a2928181520190610251565b90565b346101de576000806003193601126103895760405190808054906102c882611054565b8085529160209160019182811690811561035c5750600114610305575b610301866102f58188038261065a565b60405191829182610291565b0390f35b80809550527f290decd9548b62a8d60345a988386fc84ba6bc95484008f6362f93160ef3e5635b838510610349575050505081016020016102f582610301386102e5565b805486860184015293820193810161032c565b9050869550610301969350602092506102f594915060ff191682840152151560051b8201019293386102e5565b80fd5b346101de5760203660031901126101de576020600435806000526002825260018060a01b03906103c482604060002054161515611133565b6000526004825260406000205416604051908152f35b600435906001600160a01b03821682036101de57565b602435906001600160a01b03821682036101de57565b346101de5760403660031901126101de5761041f6103da565b60243560008181526002602052604081205490926001600160a01b03808216921690828214610505576104929082331480156104b9575b61045f9061117e565b610473856000526004602052604060002090565b80546001600160a01b0319166001600160a01b03909216919091179055565b7f8c5be1e5ebec7d5bd14f71427d1e84f3dd0314c0f7b2291e5b200ac8c7c3b9258480a480f35b5061045f6104fe6104f7336104e08760018060a01b03166000526005602052604060002090565b9060018060a01b0316600052602052604060002090565b5460ff1690565b9050610456565b60405162461bcd60e51b815260206004820152602760248201527f4167656e7452656769737472793a20617070726f766520746f2063757272656e6044820152663a1037bbb732b960c91b6064820152608490fd5b346101de5760203660031901126101de57600435600081815260076020526040812060018101549192916001600160a01b031633036105de57600a6105b791016105ad6105a8825460ff1690565b6111ca565b805460ff19169055565b7fc2fb7f8575ac3990e70361684edfc4d283931ea9a03dfa28766bf376a3934aa28280a280f35b60405162461bcd60e51b815260206004820152601e60248201527f4167656e7452656769737472793a206e6f74206167656e74206f776e657200006044820152606490fd5b634e487b7160e01b600052604160045260246000fd5b6020810190811067ffffffffffffffff82111761065557604052565b610623565b90601f8019910116810190811067ffffffffffffffff82111761065557604052565b60405190610180820182811067ffffffffffffffff82111761065557604052565b92919267ffffffffffffffff821161065557604051916106c7601f8201601f19166020018461065a565b8294818452818301116101de578281602093846000960137010152565b9080601f830112156101de578160206102a29335910161069d565b346101de5760403660031901126101de5760243567ffffffffffffffff81116101de5761073d61073560209236906004016106e4565b600435611222565b6040516001600160e01b03199091168152f35b602090602060408183019282815285518094520193019160005b828110610778575050505090565b83518552938101939281019260010161076a565b346101de576020806003193601126101de576001600160a01b036107ae6103da565b1660005260086020526040600020906040519081602084549182815201936000526020600020916000905b8282106107fc57610301856107f08189038261065a565b60405191829182610750565b8354865294850194600193840193909101906107d9565b60609060031901126101de576001600160a01b039060043582811681036101de579160243590811681036101de579060443590565b346101de5761087161085936610813565b9161086c6108678433611b07565b61117e565b611bc8565b005b939060c095926108936108a1929a9998959a60e0885260e0880190610251565b908682036020880152610251565b6001600160a01b03909816604085015260608401521515608083015260a08201520152565b346101de5760203660031901126101de576004356000526007602052604060002060018060a01b0360018201541690610301600682015460ff600a8401541660078401549060088501549261092960036109226002890161108e565b970161108e565b9660405197889788610873565b346101de5761087161097961094a36610813565b906109586108678333611b07565b610963828285611bc8565b6040519261097084610639565b60008452611dc7565b6112cd565b346101de5760603660031901126101de5760443567ffffffffffffffff81116101de576109bf6109b460209236906004016106e4565b60243560043561139b565b6040519015158152f35b346101de5760203660031901126101de576109e26103da565b600a546001600160a01b0391906109fc90831633146114c4565b166bffffffffffffffffffffffff60a01b6009541617600955600080f35b346101de5760003660031901126101de57600b546040516001600160a01b039091168152602090f35b346101de5760203660031901126101de576004356000526002602052602060018060a01b0360406000205416610a7a811515611133565b604051908152f35b346101de5760203660031901126101de57610a9b6103da565b600a546001600160a01b039190610ab590831633146114c4565b166bffffffffffffffffffffffff60a01b600b541617600b55600080f35b346101de5760003660031901126101de576009546040516001600160a01b039091168152602090f35b346101de5760203660031901126101de576001600160a01b03610b1d6103da565b168015610b3c5760005260036020526020604060002054604051908152f35b60405162461bcd60e51b815260206004820152601b60248201527f4167656e7452656769737472793a207a65726f206164647265737300000000006044820152606490fd5b9181601f840112156101de5782359167ffffffffffffffff83116101de57602083818601950101116101de57565b346101de5760803660031901126101de5767ffffffffffffffff6004358181116101de57610be1903690600401610b81565b6024929192358281116101de57610bfc903690600401610b81565b6044949194358481116101de57610c17903690600401610b81565b916064359586116101de5761030196610c37610c3f973690600401610b81565b969095611851565b6040519081529081906020820190565b346101de5760203660031901126101de5760043560005260076020526020600660406000200154604051908152f35b346101de5760003660031901126101de57600a546040516001600160a01b039091168152602090f35b6024359081151582036101de57565b346101de5760603660031901126101de57610ccf610ca7565b600954336001600160a01b0391821614908115610d50575b5015610cfd576108719060443590600435611a1c565b60405162461bcd60e51b815260206004820152602560248201527f4167656e7452656769737472793a206e6f742072657075746174696f6e206d616044820152643730b3b2b960d91b6064820152608490fd5b9050600a5416331438610ce7565b346101de576000806003193601126103895760405190806001805490610d8382611054565b808652926020926001811690811561035c5750600114610dad57610301866102f58188038261065a565b9350600184527fb10e2d527612073b26eecdfd717e6a320cf44b4afac2b0732d9fcbe2b7fa0cf65b838510610df2575050505081016020016102f582610301386102e5565b8054868601840152938201938101610dd5565b346101de5760403660031901126101de57610e1e6103da565b610e26610ca7565b6001600160a01b03821691338314610ea85781610e65610e769233600052600560205260406000209060018060a01b0316600052602052604060002090565b9060ff801983541691151516179055565b604051901515815233907f17307eab39ab6107e8899845ad3d59bd9653f200f220920489ca2b5937696c3190602090a3005b606460405162461bcd60e51b815260206004820152602060248201527f4167656e7452656769737472793a20617070726f766520746f2063616c6c65726044820152fd5b346101de5760803660031901126101de57610f056103da565b610f0d6103f0565b906064359060443567ffffffffffffffff83116101de5761087193610f5b610f3c610979953690600401610b81565b610f496108678633611b07565b610f54858588611bc8565b369161069d565b92611dc7565b346101de5760003660031901126101de576006546000198101908111610f8c57602090604051908152f35b6115a7565b346101de5760203660031901126101de57600435600081815260026020526040902054610fc8906001600160a01b03161515611133565b6000526007602052610301610fe3600560406000200161108e565b604051918291602083526020830190610251565b346101de5760403660031901126101de57602060ff6110486110176103da565b61101f6103f0565b6001600160a01b0391821660009081526005865260408082209290931681526020919091522090565b54166040519015158152f35b90600182811c92168015611084575b602083101461106e57565b634e487b7160e01b600052602260045260246000fd5b91607f1691611063565b906040519182600082546110a181611054565b9081845260209460019160018116908160001461111157506001146110d2575b5050506110d09250038361065a565b565b600090815285812095935091905b8183106110f95750506110d093508201013880806110c1565b855488840185015294850194879450918301916110e0565b925050506110d094925060ff191682840152151560051b8201013880806110c1565b1561113a57565b606460405162461bcd60e51b815260206004820152602060248201527f4167656e7452656769737472793a206e6f6e6578697374656e7420746f6b656e6044820152fd5b1561118557565b60405162461bcd60e51b815260206004820152601d60248201527f4167656e7452656769737472793a206e6f7420617574686f72697a65640000006044820152606490fd5b156111d157565b60405162461bcd60e51b815260206004820152601f60248201527f4167656e7452656769737472793a20616c726561647920696e616374697665006044820152606490fd5b6040513d6000823e3d90fd5b90604181511461123c575b506001600160e01b0319919050565b6020818101516040808401516060948501518251968752600090811a8786015291860192909252928401528180529160809060015afa156112b5576000516001600160a01b0390811680151591826112a7575b505061129c57388061122d565b630b135d3f60e11b90565b600a5416149050388061128f565b611216565b604051906112c782610639565b60008252565b156112d457565b60405162461bcd60e51b815260206004820152602160248201527f4167656e7452656769737472793a206e6f7420455243373231526563656976656044820152603960f91b6064820152608490fd5b1561132a57565b60405162461bcd60e51b815260206004820152601e60248201527f4167656e7452656769737472793a206167656e74206e6f7420666f756e6400006044820152606490fd5b908160209103126101de57516102a2816101cc565b6040906102a2939281528160208201520190610251565b60016113b76113c5929493946000526007602052604060002090565b01546001600160a01b031690565b6001600160a01b038116906113db821515611323565b604183511461146e575b3b6113f257505050600090565b611416916020916040518080958194630b135d3f60e11b9889845260048401611384565b03915afa6000918161143d575b5061142f575050600090565b6001600160e01b0319161490565b61146091925060203d602011611467575b611458818361065a565b81019061136f565b9038611423565b503d61144e565b60208381015160408086015160608088015183518a8152600091821a818801529384019490945282015281805260809060015afa156112b55760005182906001600160a01b0316036113e5575b50505050600190565b156114cb57565b60405162461bcd60e51b815260206004820152601860248201527f4167656e7452656769737472793a206e6f74206f776e657200000000000000006044820152606490fd5b1561151757565b60405162461bcd60e51b815260206004820152601c60248201527f4167656e7452656769737472793a206e616d65207265717569726564000000006044820152606490fd5b1561156357565b606460405162461bcd60e51b815260206004820152602060248201527f4167656e7452656769737472793a2073747261746567792072657175697265646044820152fd5b634e487b7160e01b600052601160045260246000fd5b6000198114610f8c5760010190565b90601f81116115da57505050565b6000916000526020600020906020601f850160051c83019410611618575b601f0160051c01915b82811061160d57505050565b818155600101611601565b90925082906115f8565b919091825167ffffffffffffffff81116106555761164a816116448454611054565b846115cc565b602080601f831160011461168d5750819061167e939495600092611682575b50508160011b916000199060031b1c19161790565b9055565b015190503880611669565b90601f198316956116a385600052602060002090565b926000905b8882106116e0575050836001959697106116c7575b505050811b019055565b015160001960f88460031b161c191690553880806116bd565b806001859682949686015181550195019301906116a8565b8151815560208201516001820180546001600160a01b0319166001600160a01b0390921691909117905590600b906101609061173b604082015160028601611622565b61174c606082015160038601611622565b61175d608082015160048601611622565b61176e60a082015160058601611622565b60c0810151600685015560e08101516007850155610100810151600885015561012081015160098501556117be6117a9610140830151151590565b600a86019060ff801983541691151516179055565b0151910155565b8054906801000000000000000082101561065557600182018082558210156117f35760005260206000200155565b634e487b7160e01b600052603260045260246000fd5b908060209392818452848401376000828201840152601f01601f1916010190565b9290611843906102a29593604086526040860191611809565b926020818503910152611809565b919293979694909586151561186590611510565b61187085151561155c565b6006549561187d876115bd565b600655869961188a61067c565b8881523360208201529361189f368b8861069d565b60408601526118af36898961069d565b606086015236906118bf9261069d565b608084015236906118cf9261069d565b60a0820152603260c0820152600060e082018190526101008201819052610120820152600161014082015242610160820152611915856000526007602052604060002090565b9061191f916116f8565b33600090815260086020526040902084611938916117c5565b6119428433611e33565b6040519283923396611954938561182a565b037f1fa075d34b5040b9bc683d1cc54ae270f345511dd00e1b9f68e82fd47b16f52491a3565b1561198157565b60405162461bcd60e51b815260206004820152601f60248201527f4167656e7452656769737472793a206167656e74206e6f7420616374697665006044820152606490fd5b91909160008382019384129112908015821691151617610f8c57565b600119810191908211610f8c57565b600019810191908211610f8c57565b9060028201809211610f8c57565b9060018201809211610f8c57565b916006611acc917f20d456995c74d5114f87879b10c5214b9c28e11ea422eeb922cc2e755095669f93611a59866000526007602052604060002090565b91611a70611a6b600a85015460ff1690565b61197a565b60078301611a7e81546115bd565b9055611a8f600984019182546119c6565b905515611ae05760088101611aa481546115bd565b9055808201805460628110611ad157506064905b555b01546040519081529081906020820190565b0390a2565b611ada90611a00565b90611ab8565b808201805460028111611af857506000905b55611aba565b611b01906119e2565b90611af2565b90600052600260205260018060a01b03908160406000205416828216818114938415611b66575b50508215611b3b57505090565b60009081526005602090815260408083206001600160a01b0390941683529290522060ff9150541690565b6004602052604060002054161492503880611b2e565b15611b8357565b60405162461bcd60e51b815260206004820152601f60248201527f4167656e7452656769737472793a207472616e7366657220746f207a65726f006044820152606490fd5b9082600052600260205260018060a01b03806040600020541691818416809303611d0f57611ce381611c47611ce89488941696611c06881515611b7c565b611c2d611c1d866000526004602052604060002090565b80546001600160a01b0319169055565b6001600160a01b0316600090815260036020526040902090565b611c5181546119f1565b90556001600160a01b0381166000908152600360205260409020611c758154611a0e565b9055611c8f81610473856000526002602052604060002090565b611cc9816001611ca9866000526007602052604060002090565b0180546001600160a01b0319166001600160a01b03909216919091179055565b6001600160a01b0316600090815260086020526040902090565b6117c5565b7fddf252ad1be2c89b69c2b068fc378daa952ba7f163c4a11628f55a4df523b3ef600080a4565b60405162461bcd60e51b815260206004820152601a60248201527f4167656e7452656769737472793a2077726f6e67206f776e65720000000000006044820152606490fd5b919091803b15611dbf57611d9e602091600093604051948580948193630a85bd0160e11b998a84523360048501528460248501526044840152608060648401526084830190610251565b03926001600160a01b03165af16000918161143d575061142f575050600090565b505050600190565b92919091823b156114bb57611e1a92602092600060018060a01b0360405180978196829584630a85bd0160e11b9c8d86523360048701521660248501526044840152608060648401526084830190610251565b0393165af16000918161143d575061142f575050600090565b6001600160a01b0381811691908215611f2257611e5a846000526002602052604060002090565b5416611edd57826110d09361097993611e858460018060a01b03166000526003602052604060002090565b611e8f8154611a0e565b9055611ea984610473846000526002602052604060002090565b60007fddf252ad1be2c89b69c2b068fc378daa952ba7f163c4a11628f55a4df523b3ef8180a4611ed76112ba565b91611d54565b60405162461bcd60e51b815260206004820152601d60248201527f4167656e7452656769737472793a20616c7265616479206d696e7465640000006044820152606490fd5b60405162461bcd60e51b815260206004820152601b60248201527f4167656e7452656769737472793a206d696e7420746f207a65726f00000000006044820152606490fdfea2646970667358221220131f66ec36e10d1c050b5d0302982075212ab4041c89f0d280697234f02438a564736f6c63430008180033","opcodes":"PUSH1 0x80 PUSH1 0x40 MSTORE CALLVALUE PUSH3 0xFB JUMPI PUSH1 0x1 DUP1 PUSH1 0x6 SSTORE PUSH1 0x1 DUP1 PUSH1 0xA0 SHL SUB NOT CALLER DUP2 PUSH1 0xA SLOAD AND OR PUSH1 0xA SSTORE CALLER SWAP1 PUSH1 0x9 SLOAD AND OR PUSH1 0x9 SSTORE PUSH1 0x0 PUSH3 0x3A DUP2 SLOAD PUSH3 0x100 JUMP JUMPDEST PUSH1 0x1F DUP2 GT PUSH3 0xCC JUMPI JUMPDEST POP PUSH32 0x414954726164696E674167656E7400000000000000000000000000000000001C DUP2 SSTORE DUP2 SLOAD PUSH3 0x75 SWAP1 PUSH3 0x100 JUMP JUMPDEST SWAP1 PUSH1 0x1F DUP3 GT PUSH3 0x9D JUMPI JUMPDEST PUSH1 0x8 PUSH4 0x41495441 PUSH1 0xE0 SHL ADD DUP4 SSTORE PUSH1 0x40 MLOAD PUSH2 0x1F9D SWAP1 DUP2 PUSH3 0x13E DUP3 CODECOPY RETURN JUMPDEST DUP3 DUP2 MSTORE DUP3 PUSH1 0x1F PUSH1 0x20 DUP4 KECCAK256 SWAP4 ADD PUSH1 0x5 SHR DUP4 ADD SWAP3 JUMPDEST DUP4 DUP2 LT PUSH3 0xC0 JUMPI POP POP PUSH3 0x80 JUMP JUMPDEST DUP3 DUP2 SSTORE ADD DUP4 SWAP1 PUSH3 0xB0 JUMP JUMPDEST DUP2 DUP1 MSTORE DUP3 PUSH1 0x1F PUSH1 0x20 DUP5 KECCAK256 SWAP3 ADD PUSH1 0x5 SHR DUP3 ADD SWAP2 JUMPDEST DUP3 DUP2 LT PUSH3 0xEF JUMPI POP POP PUSH3 0x44 JUMP JUMPDEST DUP4 DUP2 SSTORE ADD DUP4 SWAP1 PUSH3 0xDF JUMP JUMPDEST PUSH1 0x0 DUP1 REVERT JUMPDEST SWAP1 PUSH1 0x1 DUP3 DUP2 SHR SWAP3 AND DUP1 ISZERO PUSH3 0x132 JUMPI JUMPDEST PUSH1 0x20 DUP4 LT EQ PUSH3 0x11C JUMPI JUMP JUMPDEST PUSH4 0x4E487B71 PUSH1 0xE0 SHL PUSH1 0x0 MSTORE PUSH1 0x22 PUSH1 0x4 MSTORE PUSH1 0x24 PUSH1 0x0 REVERT JUMPDEST SWAP2 PUSH1 0x7F AND SWAP2 PUSH3 0x110 JUMP INVALID PUSH1 0x80 PUSH1 0x40 MSTORE PUSH1 0x4 CALLDATASIZE LT ISZERO PUSH2 0x12 JUMPI PUSH1 0x0 DUP1 REVERT JUMPDEST PUSH1 0x0 CALLDATALOAD PUSH1 0xE0 SHR DUP1 PUSH4 0x1FFC9A7 EQ PUSH2 0x1C7 JUMPI DUP1 PUSH4 0x6FDDE03 EQ PUSH2 0x1C2 JUMPI DUP1 PUSH4 0x81812FC EQ PUSH2 0x1BD JUMPI DUP1 PUSH4 0x95EA7B3 EQ PUSH2 0x1B8 JUMPI DUP1 PUSH4 0x11BA6B4A EQ PUSH2 0x1B3 JUMPI DUP1 PUSH4 0x1626BA7E EQ PUSH2 0x1AE JUMPI DUP1 PUSH4 0x1AB6F888 EQ PUSH2 0x1A9 JUMPI DUP1 PUSH4 0x23B872DD EQ PUSH2 0x1A4 JUMPI DUP1 PUSH4 0x2DE5AAF7 EQ PUSH2 0x19F JUMPI DUP1 PUSH4 0x42842E0E EQ PUSH2 0x19A JUMPI DUP1 PUSH4 0x4A8930A5 EQ PUSH2 0x195 JUMPI DUP1 PUSH4 0x56A837F4 EQ PUSH2 0x190 JUMPI DUP1 PUSH4 0x5C30A8E1 EQ PUSH2 0x18B JUMPI DUP1 PUSH4 0x6352211E EQ PUSH2 0x186 JUMPI DUP1 PUSH4 0x6B249AF8 EQ PUSH2 0x181 JUMPI DUP1 PUSH4 0x6B868AFB EQ PUSH2 0x17C JUMPI DUP1 PUSH4 0x70A08231 EQ PUSH2 0x177 JUMPI DUP1 PUSH4 0x75694FF3 EQ PUSH2 0x172 JUMPI DUP1 PUSH4 0x83F3D448 EQ PUSH2 0x16D JUMPI DUP1 PUSH4 0x8DA5CB5B EQ PUSH2 0x168 JUMPI DUP1 PUSH4 0x95359D6B EQ PUSH2 0x163 JUMPI DUP1 PUSH4 0x95D89B41 EQ PUSH2 0x15E JUMPI DUP1 PUSH4 0xA22CB465 EQ PUSH2 0x159 JUMPI DUP1 PUSH4 0xB88D4FDE EQ PUSH2 0x154 JUMPI DUP1 PUSH4 0xC5053712 EQ PUSH2 0x14F JUMPI DUP1 PUSH4 0xC87B56DD EQ PUSH2 0x14A JUMPI PUSH4 0xE985E9C5 EQ PUSH2 0x145 JUMPI PUSH1 0x0 DUP1 REVERT JUMPDEST PUSH2 0xFF7 JUMP JUMPDEST PUSH2 0xF91 JUMP JUMPDEST PUSH2 0xF61 JUMP JUMPDEST PUSH2 0xEEC JUMP JUMPDEST PUSH2 0xE05 JUMP JUMPDEST PUSH2 0xD5E JUMP JUMPDEST PUSH2 0xCB6 JUMP JUMPDEST PUSH2 0xC7E JUMP JUMPDEST PUSH2 0xC4F JUMP JUMPDEST PUSH2 0xBAF JUMP JUMPDEST PUSH2 0xAFC JUMP JUMPDEST PUSH2 0xAD3 JUMP JUMPDEST PUSH2 0xA82 JUMP JUMPDEST PUSH2 0xA43 JUMP JUMPDEST PUSH2 0xA1A JUMP JUMPDEST PUSH2 0x9C9 JUMP JUMPDEST PUSH2 0x97E JUMP JUMPDEST PUSH2 0x936 JUMP JUMPDEST PUSH2 0x8C6 JUMP JUMPDEST PUSH2 0x848 JUMP JUMPDEST PUSH2 0x78C JUMP JUMPDEST PUSH2 0x6FF JUMP JUMPDEST PUSH2 0x55A JUMP JUMPDEST PUSH2 0x406 JUMP JUMPDEST PUSH2 0x38C JUMP JUMPDEST PUSH2 0x2A5 JUMP JUMPDEST PUSH2 0x1E3 JUMP JUMPDEST PUSH1 0x1 PUSH1 0x1 PUSH1 0xE0 SHL SUB NOT DUP2 AND SUB PUSH2 0x1DE JUMPI JUMP JUMPDEST PUSH1 0x0 DUP1 REVERT JUMPDEST CALLVALUE PUSH2 0x1DE JUMPI PUSH1 0x20 CALLDATASIZE PUSH1 0x3 NOT ADD SLT PUSH2 0x1DE JUMPI PUSH1 0x20 PUSH1 0x4 CALLDATALOAD PUSH2 0x202 DUP2 PUSH2 0x1CC JUMP JUMPDEST PUSH4 0xFFFFFFFF PUSH1 0xE0 SHL AND PUSH4 0x80AC58CD PUSH1 0xE0 SHL DUP2 EQ SWAP1 DUP2 ISZERO PUSH2 0x240 JUMPI JUMPDEST DUP2 ISZERO PUSH2 0x22F JUMPI JUMPDEST POP PUSH1 0x40 MLOAD SWAP1 ISZERO ISZERO DUP2 MSTORE RETURN JUMPDEST PUSH4 0x1FFC9A7 PUSH1 0xE0 SHL EQ SWAP1 POP CODESIZE PUSH2 0x224 JUMP JUMPDEST PUSH4 0x5B5E139F PUSH1 0xE0 SHL DUP2 EQ SWAP2 POP PUSH2 0x21D JUMP JUMPDEST SWAP2 SWAP1 DUP3 MLOAD SWAP3 DUP4 DUP3 MSTORE PUSH1 0x0 JUMPDEST DUP5 DUP2 LT PUSH2 0x27D JUMPI POP POP DUP3 PUSH1 0x0 PUSH1 0x20 DUP1 SWAP5 SWAP6 DUP5 ADD ADD MSTORE PUSH1 0x1F DUP1 NOT SWAP2 ADD AND ADD ADD SWAP1 JUMP JUMPDEST PUSH1 0x20 DUP2 DUP4 ADD DUP2 ADD MLOAD DUP5 DUP4 ADD DUP3 ADD MSTORE ADD PUSH2 0x25C JUMP JUMPDEST SWAP1 PUSH1 0x20 PUSH2 0x2A2 SWAP3 DUP2 DUP2 MSTORE ADD SWAP1 PUSH2 0x251 JUMP JUMPDEST SWAP1 JUMP JUMPDEST CALLVALUE PUSH2 0x1DE JUMPI PUSH1 0x0 DUP1 PUSH1 0x3 NOT CALLDATASIZE ADD SLT PUSH2 0x389 JUMPI PUSH1 0x40 MLOAD SWAP1 DUP1 DUP1 SLOAD SWAP1 PUSH2 0x2C8 DUP3 PUSH2 0x1054 JUMP JUMPDEST DUP1 DUP6 MSTORE SWAP2 PUSH1 0x20 SWAP2 PUSH1 0x1 SWAP2 DUP3 DUP2 AND SWAP1 DUP2 ISZERO PUSH2 0x35C JUMPI POP PUSH1 0x1 EQ PUSH2 0x305 JUMPI JUMPDEST PUSH2 0x301 DUP7 PUSH2 0x2F5 DUP2 DUP9 SUB DUP3 PUSH2 0x65A JUMP JUMPDEST PUSH1 0x40 MLOAD SWAP2 DUP3 SWAP2 DUP3 PUSH2 0x291 JUMP JUMPDEST SUB SWAP1 RETURN JUMPDEST DUP1 DUP1 SWAP6 POP MSTORE PUSH32 0x290DECD9548B62A8D60345A988386FC84BA6BC95484008F6362F93160EF3E563 JUMPDEST DUP4 DUP6 LT PUSH2 0x349 JUMPI POP POP POP POP DUP2 ADD PUSH1 0x20 ADD PUSH2 0x2F5 DUP3 PUSH2 0x301 CODESIZE PUSH2 0x2E5 JUMP JUMPDEST DUP1 SLOAD DUP7 DUP7 ADD DUP5 ADD MSTORE SWAP4 DUP3 ADD SWAP4 DUP2 ADD PUSH2 0x32C JUMP JUMPDEST SWAP1 POP DUP7 SWAP6 POP PUSH2 0x301 SWAP7 SWAP4 POP PUSH1 0x20 SWAP3 POP PUSH2 0x2F5 SWAP5 SWAP2 POP PUSH1 0xFF NOT AND DUP3 DUP5 ADD MSTORE ISZERO ISZERO PUSH1 0x5 SHL DUP3 ADD ADD SWAP3 SWAP4 CODESIZE PUSH2 0x2E5 JUMP JUMPDEST DUP1 REVERT JUMPDEST CALLVALUE PUSH2 0x1DE JUMPI PUSH1 0x20 CALLDATASIZE PUSH1 0x3 NOT ADD SLT PUSH2 0x1DE JUMPI PUSH1 0x20 PUSH1 0x4 CALLDATALOAD DUP1 PUSH1 0x0 MSTORE PUSH1 0x2 DUP3 MSTORE PUSH1 0x1 DUP1 PUSH1 0xA0 SHL SUB SWAP1 PUSH2 0x3C4 DUP3 PUSH1 0x40 PUSH1 0x0 KECCAK256 SLOAD AND ISZERO ISZERO PUSH2 0x1133 JUMP JUMPDEST PUSH1 0x0 MSTORE PUSH1 0x4 DUP3 MSTORE PUSH1 0x40 PUSH1 0x0 KECCAK256 SLOAD AND PUSH1 0x40 MLOAD SWAP1 DUP2 MSTORE RETURN JUMPDEST PUSH1 0x4 CALLDATALOAD SWAP1 PUSH1 0x1 PUSH1 0x1 PUSH1 0xA0 SHL SUB DUP3 AND DUP3 SUB PUSH2 0x1DE JUMPI JUMP JUMPDEST PUSH1 0x24 CALLDATALOAD SWAP1 PUSH1 0x1 PUSH1 0x1 PUSH1 0xA0 SHL SUB DUP3 AND DUP3 SUB PUSH2 0x1DE JUMPI JUMP JUMPDEST CALLVALUE PUSH2 0x1DE JUMPI PUSH1 0x40 CALLDATASIZE PUSH1 0x3 NOT ADD SLT PUSH2 0x1DE JUMPI PUSH2 0x41F PUSH2 0x3DA JUMP JUMPDEST PUSH1 0x24 CALLDATALOAD PUSH1 0x0 DUP2 DUP2 MSTORE PUSH1 0x2 PUSH1 0x20 MSTORE PUSH1 0x40 DUP2 KECCAK256 SLOAD SWAP1 SWAP3 PUSH1 0x1 PUSH1 0x1 PUSH1 0xA0 SHL SUB DUP1 DUP3 AND SWAP3 AND SWAP1 DUP3 DUP3 EQ PUSH2 0x505 JUMPI PUSH2 0x492 SWAP1 DUP3 CALLER EQ DUP1 ISZERO PUSH2 0x4B9 JUMPI JUMPDEST PUSH2 0x45F SWAP1 PUSH2 0x117E JUMP JUMPDEST PUSH2 0x473 DUP6 PUSH1 0x0 MSTORE PUSH1 0x4 PUSH1 0x20 MSTORE PUSH1 0x40 PUSH1 0x0 KECCAK256 SWAP1 JUMP JUMPDEST DUP1 SLOAD PUSH1 0x1 PUSH1 0x1 PUSH1 0xA0 SHL SUB NOT AND PUSH1 0x1 PUSH1 0x1 PUSH1 0xA0 SHL SUB SWAP1 SWAP3 AND SWAP2 SWAP1 SWAP2 OR SWAP1 SSTORE JUMP JUMPDEST PUSH32 0x8C5BE1E5EBEC7D5BD14F71427D1E84F3DD0314C0F7B2291E5B200AC8C7C3B925 DUP5 DUP1 LOG4 DUP1 RETURN JUMPDEST POP PUSH2 0x45F PUSH2 0x4FE PUSH2 0x4F7 CALLER PUSH2 0x4E0 DUP8 PUSH1 0x1 DUP1 PUSH1 0xA0 SHL SUB AND PUSH1 0x0 MSTORE PUSH1 0x5 PUSH1 0x20 MSTORE PUSH1 0x40 PUSH1 0x0 KECCAK256 SWAP1 JUMP JUMPDEST SWAP1 PUSH1 0x1 DUP1 PUSH1 0xA0 SHL SUB AND PUSH1 0x0 MSTORE PUSH1 0x20 MSTORE PUSH1 0x40 PUSH1 0x0 KECCAK256 SWAP1 JUMP JUMPDEST SLOAD PUSH1 0xFF AND SWAP1 JUMP JUMPDEST SWAP1 POP PUSH2 0x456 JUMP JUMPDEST PUSH1 0x40 MLOAD PUSH3 0x461BCD PUSH1 0xE5 SHL DUP2 MSTORE PUSH1 0x20 PUSH1 0x4 DUP3 ADD MSTORE PUSH1 0x27 PUSH1 0x24 DUP3 ADD MSTORE PUSH32 0x4167656E7452656769737472793A20617070726F766520746F2063757272656E PUSH1 0x44 DUP3 ADD MSTORE PUSH7 0x3A1037BBB732B9 PUSH1 0xC9 SHL PUSH1 0x64 DUP3 ADD MSTORE PUSH1 0x84 SWAP1 REVERT JUMPDEST CALLVALUE PUSH2 0x1DE JUMPI PUSH1 0x20 CALLDATASIZE PUSH1 0x3 NOT ADD SLT PUSH2 0x1DE JUMPI PUSH1 0x4 CALLDATALOAD PUSH1 0x0 DUP2 DUP2 MSTORE PUSH1 0x7 PUSH1 0x20 MSTORE PUSH1 0x40 DUP2 KECCAK256 PUSH1 0x1 DUP2 ADD SLOAD SWAP2 SWAP3 SWAP2 PUSH1 0x1 PUSH1 0x1 PUSH1 0xA0 SHL SUB AND CALLER SUB PUSH2 0x5DE JUMPI PUSH1 0xA PUSH2 0x5B7 SWAP2 ADD PUSH2 0x5AD PUSH2 0x5A8 DUP3 SLOAD PUSH1 0xFF AND SWAP1 JUMP JUMPDEST PUSH2 0x11CA JUMP JUMPDEST DUP1 SLOAD PUSH1 0xFF NOT AND SWAP1 SSTORE JUMP JUMPDEST PUSH32 0xC2FB7F8575AC3990E70361684EDFC4D283931EA9A03DFA28766BF376A3934AA2 DUP3 DUP1 LOG2 DUP1 RETURN JUMPDEST PUSH1 0x40 MLOAD PUSH3 0x461BCD PUSH1 0xE5 SHL DUP2 MSTORE PUSH1 0x20 PUSH1 0x4 DUP3 ADD MSTORE PUSH1 0x1E PUSH1 0x24 DUP3 ADD MSTORE PUSH32 0x4167656E7452656769737472793A206E6F74206167656E74206F776E65720000 PUSH1 0x44 DUP3 ADD MSTORE PUSH1 0x64 SWAP1 REVERT JUMPDEST PUSH4 0x4E487B71 PUSH1 0xE0 SHL PUSH1 0x0 MSTORE PUSH1 0x41 PUSH1 0x4 MSTORE PUSH1 0x24 PUSH1 0x0 REVERT JUMPDEST PUSH1 0x20 DUP2 ADD SWAP1 DUP2 LT PUSH8 0xFFFFFFFFFFFFFFFF DUP3 GT OR PUSH2 0x655 JUMPI PUSH1 0x40 MSTORE JUMP JUMPDEST PUSH2 0x623 JUMP JUMPDEST SWAP1 PUSH1 0x1F DUP1 NOT SWAP2 ADD AND DUP2 ADD SWAP1 DUP2 LT PUSH8 0xFFFFFFFFFFFFFFFF DUP3 GT OR PUSH2 0x655 JUMPI PUSH1 0x40 MSTORE JUMP JUMPDEST PUSH1 0x40 MLOAD SWAP1 PUSH2 0x180 DUP3 ADD DUP3 DUP2 LT PUSH8 0xFFFFFFFFFFFFFFFF DUP3 GT OR PUSH2 0x655 JUMPI PUSH1 0x40 MSTORE JUMP JUMPDEST SWAP3 SWAP2 SWAP3 PUSH8 0xFFFFFFFFFFFFFFFF DUP3 GT PUSH2 0x655 JUMPI PUSH1 0x40 MLOAD SWAP2 PUSH2 0x6C7 PUSH1 0x1F DUP3 ADD PUSH1 0x1F NOT AND PUSH1 0x20 ADD DUP5 PUSH2 0x65A JUMP JUMPDEST DUP3 SWAP5 DUP2 DUP5 MSTORE DUP2 DUP4 ADD GT PUSH2 0x1DE JUMPI DUP3 DUP2 PUSH1 0x20 SWAP4 DUP5 PUSH1 0x0 SWAP7 ADD CALLDATACOPY ADD ADD MSTORE JUMP JUMPDEST SWAP1 DUP1 PUSH1 0x1F DUP4 ADD SLT ISZERO PUSH2 0x1DE JUMPI DUP2 PUSH1 0x20 PUSH2 0x2A2 SWAP4 CALLDATALOAD SWAP2 ADD PUSH2 0x69D JUMP JUMPDEST CALLVALUE PUSH2 0x1DE JUMPI PUSH1 0x40 CALLDATASIZE PUSH1 0x3 NOT ADD SLT PUSH2 0x1DE JUMPI PUSH1 0x24 CALLDATALOAD PUSH8 0xFFFFFFFFFFFFFFFF DUP2 GT PUSH2 0x1DE JUMPI PUSH2 0x73D PUSH2 0x735 PUSH1 0x20 SWAP3 CALLDATASIZE SWAP1 PUSH1 0x4 ADD PUSH2 0x6E4 JUMP JUMPDEST PUSH1 0x4 CALLDATALOAD PUSH2 0x1222 JUMP JUMPDEST PUSH1 0x40 MLOAD PUSH1 0x1 PUSH1 0x1 PUSH1 0xE0 SHL SUB NOT SWAP1 SWAP2 AND DUP2 MSTORE RETURN JUMPDEST PUSH1 0x20 SWAP1 PUSH1 0x20 PUSH1 0x40 DUP2 DUP4 ADD SWAP3 DUP3 DUP2 MSTORE DUP6 MLOAD DUP1 SWAP5 MSTORE ADD SWAP4 ADD SWAP2 PUSH1 0x0 JUMPDEST DUP3 DUP2 LT PUSH2 0x778 JUMPI POP POP POP POP SWAP1 JUMP JUMPDEST DUP4 MLOAD DUP6 MSTORE SWAP4 DUP2 ADD SWAP4 SWAP3 DUP2 ADD SWAP3 PUSH1 0x1 ADD PUSH2 0x76A JUMP JUMPDEST CALLVALUE PUSH2 0x1DE JUMPI PUSH1 0x20 DUP1 PUSH1 0x3 NOT CALLDATASIZE ADD SLT PUSH2 0x1DE JUMPI PUSH1 0x1 PUSH1 0x1 PUSH1 0xA0 SHL SUB PUSH2 0x7AE PUSH2 0x3DA JUMP JUMPDEST AND PUSH1 0x0 MSTORE PUSH1 0x8 PUSH1 0x20 MSTORE PUSH1 0x40 PUSH1 0x0 KECCAK256 SWAP1 PUSH1 0x40 MLOAD SWAP1 DUP2 PUSH1 0x20 DUP5 SLOAD SWAP2 DUP3 DUP2 MSTORE ADD SWAP4 PUSH1 0x0 MSTORE PUSH1 0x20 PUSH1 0x0 KECCAK256 SWAP2 PUSH1 0x0 SWAP1 JUMPDEST DUP3 DUP3 LT PUSH2 0x7FC JUMPI PUSH2 0x301 DUP6 PUSH2 0x7F0 DUP2 DUP10 SUB DUP3 PUSH2 0x65A JUMP JUMPDEST PUSH1 0x40 MLOAD SWAP2 DUP3 SWAP2 DUP3 PUSH2 0x750 JUMP JUMPDEST DUP4 SLOAD DUP7 MSTORE SWAP5 DUP6 ADD SWAP5 PUSH1 0x1 SWAP4 DUP5 ADD SWAP4 SWAP1 SWAP2 ADD SWAP1 PUSH2 0x7D9 JUMP JUMPDEST PUSH1 0x60 SWAP1 PUSH1 0x3 NOT ADD SLT PUSH2 0x1DE JUMPI PUSH1 0x1 PUSH1 0x1 PUSH1 0xA0 SHL SUB SWAP1 PUSH1 0x4 CALLDATALOAD DUP3 DUP2 AND DUP2 SUB PUSH2 0x1DE JUMPI SWAP2 PUSH1 0x24 CALLDATALOAD SWAP1 DUP2 AND DUP2 SUB PUSH2 0x1DE JUMPI SWAP1 PUSH1 0x44 CALLDATALOAD SWAP1 JUMP JUMPDEST CALLVALUE PUSH2 0x1DE JUMPI PUSH2 0x871 PUSH2 0x859 CALLDATASIZE PUSH2 0x813 JUMP JUMPDEST SWAP2 PUSH2 0x86C PUSH2 0x867 DUP5 CALLER PUSH2 0x1B07 JUMP JUMPDEST PUSH2 0x117E JUMP JUMPDEST PUSH2 0x1BC8 JUMP JUMPDEST STOP JUMPDEST SWAP4 SWAP1 PUSH1 0xC0 SWAP6 SWAP3 PUSH2 0x893 PUSH2 0x8A1 SWAP3 SWAP11 SWAP10 SWAP9 SWAP6 SWAP11 PUSH1 0xE0 DUP9 MSTORE PUSH1 0xE0 DUP9 ADD SWAP1 PUSH2 0x251 JUMP JUMPDEST SWAP1 DUP7 DUP3 SUB PUSH1 0x20 DUP9 ADD MSTORE PUSH2 0x251 JUMP JUMPDEST PUSH1 0x1 PUSH1 0x1 PUSH1 0xA0 SHL SUB SWAP1 SWAP9 AND PUSH1 0x40 DUP6 ADD MSTORE PUSH1 0x60 DUP5 ADD MSTORE ISZERO ISZERO PUSH1 0x80 DUP4 ADD MSTORE PUSH1 0xA0 DUP3 ADD MSTORE ADD MSTORE JUMP JUMPDEST CALLVALUE PUSH2 0x1DE JUMPI PUSH1 0x20 CALLDATASIZE PUSH1 0x3 NOT ADD SLT PUSH2 0x1DE JUMPI PUSH1 0x4 CALLDATALOAD PUSH1 0x0 MSTORE PUSH1 0x7 PUSH1 0x20 MSTORE PUSH1 0x40 PUSH1 0x0 KECCAK256 PUSH1 0x1 DUP1 PUSH1 0xA0 SHL SUB PUSH1 0x1 DUP3 ADD SLOAD AND SWAP1 PUSH2 0x301 PUSH1 0x6 DUP3 ADD SLOAD PUSH1 0xFF PUSH1 0xA DUP5 ADD SLOAD AND PUSH1 0x7 DUP5 ADD SLOAD SWAP1 PUSH1 0x8 DUP6 ADD SLOAD SWAP3 PUSH2 0x929 PUSH1 0x3 PUSH2 0x922 PUSH1 0x2 DUP10 ADD PUSH2 0x108E JUMP JUMPDEST SWAP8 ADD PUSH2 0x108E JUMP JUMPDEST SWAP7 PUSH1 0x40 MLOAD SWAP8 DUP9 SWAP8 DUP9 PUSH2 0x873 JUMP JUMPDEST CALLVALUE PUSH2 0x1DE JUMPI PUSH2 0x871 PUSH2 0x979 PUSH2 0x94A CALLDATASIZE PUSH2 0x813 JUMP JUMPDEST SWAP1 PUSH2 0x958 PUSH2 0x867 DUP4 CALLER PUSH2 0x1B07 JUMP JUMPDEST PUSH2 0x963 DUP3 DUP3 DUP6 PUSH2 0x1BC8 JUMP JUMPDEST PUSH1 0x40 MLOAD SWAP3 PUSH2 0x970 DUP5 PUSH2 0x639 JUMP JUMPDEST PUSH1 0x0 DUP5 MSTORE PUSH2 0x1DC7 JUMP JUMPDEST PUSH2 0x12CD JUMP JUMPDEST CALLVALUE PUSH2 0x1DE JUMPI PUSH1 0x60 CALLDATASIZE PUSH1 0x3 NOT ADD SLT PUSH2 0x1DE JUMPI PUSH1 0x44 CALLDATALOAD PUSH8 0xFFFFFFFFFFFFFFFF DUP2 GT PUSH2 0x1DE JUMPI PUSH2 0x9BF PUSH2 0x9B4 PUSH1 0x20 SWAP3 CALLDATASIZE SWAP1 PUSH1 0x4 ADD PUSH2 0x6E4 JUMP JUMPDEST PUSH1 0x24 CALLDATALOAD PUSH1 0x4 CALLDATALOAD PUSH2 0x139B JUMP JUMPDEST PUSH1 0x40 MLOAD SWAP1 ISZERO ISZERO DUP2 MSTORE RETURN JUMPDEST CALLVALUE PUSH2 0x1DE JUMPI PUSH1 0x20 CALLDATASIZE PUSH1 0x3 NOT ADD SLT PUSH2 0x1DE JUMPI PUSH2 0x9E2 PUSH2 0x3DA JUMP JUMPDEST PUSH1 0xA SLOAD PUSH1 0x1 PUSH1 0x1 PUSH1 0xA0 SHL SUB SWAP2 SWAP1 PUSH2 0x9FC SWAP1 DUP4 AND CALLER EQ PUSH2 0x14C4 JUMP JUMPDEST AND PUSH12 0xFFFFFFFFFFFFFFFFFFFFFFFF PUSH1 0xA0 SHL PUSH1 0x9 SLOAD AND OR PUSH1 0x9 SSTORE PUSH1 0x0 DUP1 RETURN JUMPDEST CALLVALUE PUSH2 0x1DE JUMPI PUSH1 0x0 CALLDATASIZE PUSH1 0x3 NOT ADD SLT PUSH2 0x1DE JUMPI PUSH1 0xB SLOAD PUSH1 0x40 MLOAD PUSH1 0x1 PUSH1 0x1 PUSH1 0xA0 SHL SUB SWAP1 SWAP2 AND DUP2 MSTORE PUSH1 0x20 SWAP1 RETURN JUMPDEST CALLVALUE PUSH2 0x1DE JUMPI PUSH1 0x20 CALLDATASIZE PUSH1 0x3 NOT ADD SLT PUSH2 0x1DE JUMPI PUSH1 0x4 CALLDATALOAD PUSH1 0x0 MSTORE PUSH1 0x2 PUSH1 0x20 MSTORE PUSH1 0x20 PUSH1 0x1 DUP1 PUSH1 0xA0 SHL SUB PUSH1 0x40 PUSH1 0x0 KECCAK256 SLOAD AND PUSH2 0xA7A DUP2 ISZERO ISZERO PUSH2 0x1133 JUMP JUMPDEST PUSH1 0x40 MLOAD SWAP1 DUP2 MSTORE RETURN JUMPDEST CALLVALUE PUSH2 0x1DE JUMPI PUSH1 0x20 CALLDATASIZE PUSH1 0x3 NOT ADD SLT PUSH2 0x1DE JUMPI PUSH2 0xA9B PUSH2 0x3DA JUMP JUMPDEST PUSH1 0xA SLOAD PUSH1 0x1 PUSH1 0x1 PUSH1 0xA0 SHL SUB SWAP2 SWAP1 PUSH2 0xAB5 SWAP1 DUP4 AND CALLER EQ PUSH2 0x14C4 JUMP JUMPDEST AND PUSH12 0xFFFFFFFFFFFFFFFFFFFFFFFF PUSH1 0xA0 SHL PUSH1 0xB SLOAD AND OR PUSH1 0xB SSTORE PUSH1 0x0 DUP1 RETURN JUMPDEST CALLVALUE PUSH2 0x1DE JUMPI PUSH1 0x0 CALLDATASIZE PUSH1 0x3 NOT ADD SLT PUSH2 0x1DE JUMPI PUSH1 0x9 SLOAD PUSH1 0x40 MLOAD PUSH1 0x1 PUSH1 0x1 PUSH1 0xA0 SHL SUB SWAP1 SWAP2 AND DUP2 MSTORE PUSH1 0x20 SWAP1 RETURN JUMPDEST CALLVALUE PUSH2 0x1DE JUMPI PUSH1 0x20 CALLDATASIZE PUSH1 0x3 NOT ADD SLT PUSH2 0x1DE JUMPI PUSH1 0x1 PUSH1 0x1 PUSH1 0xA0 SHL SUB PUSH2 0xB1D PUSH2 0x3DA JUMP JUMPDEST AND DUP1 ISZERO PUSH2 0xB3C JUMPI PUSH1 0x0 MSTORE PUSH1 0x3 PUSH1 0x20 MSTORE PUSH1 0x20 PUSH1 0x40 PUSH1 0x0 KECCAK256 SLOAD PUSH1 0x40 MLOAD SWAP1 DUP2 MSTORE RETURN JUMPDEST PUSH1 0x40 MLOAD PUSH3 0x461BCD PUSH1 0xE5 SHL DUP2 MSTORE PUSH1 0x20 PUSH1 0x4 DUP3 ADD MSTORE PUSH1 0x1B PUSH1 0x24 DUP3 ADD MSTORE PUSH32 0x4167656E7452656769737472793A207A65726F20616464726573730000000000 PUSH1 0x44 DUP3 ADD MSTORE PUSH1 0x64 SWAP1 REVERT JUMPDEST SWAP2 DUP2 PUSH1 0x1F DUP5 ADD SLT ISZERO PUSH2 0x1DE JUMPI DUP3 CALLDATALOAD SWAP2 PUSH8 0xFFFFFFFFFFFFFFFF DUP4 GT PUSH2 0x1DE JUMPI PUSH1 0x20 DUP4 DUP2 DUP7 ADD SWAP6 ADD ADD GT PUSH2 0x1DE JUMPI JUMP JUMPDEST CALLVALUE PUSH2 0x1DE JUMPI PUSH1 0x80 CALLDATASIZE PUSH1 0x3 NOT ADD SLT PUSH2 0x1DE JUMPI PUSH8 0xFFFFFFFFFFFFFFFF PUSH1 0x4 CALLDATALOAD DUP2 DUP2 GT PUSH2 0x1DE JUMPI PUSH2 0xBE1 SWAP1 CALLDATASIZE SWAP1 PUSH1 0x4 ADD PUSH2 0xB81 JUMP JUMPDEST PUSH1 0x24 SWAP3 SWAP2 SWAP3 CALLDATALOAD DUP3 DUP2 GT PUSH2 0x1DE JUMPI PUSH2 0xBFC SWAP1 CALLDATASIZE SWAP1 PUSH1 0x4 ADD PUSH2 0xB81 JUMP JUMPDEST PUSH1 0x44 SWAP5 SWAP2 SWAP5 CALLDATALOAD DUP5 DUP2 GT PUSH2 0x1DE JUMPI PUSH2 0xC17 SWAP1 CALLDATASIZE SWAP1 PUSH1 0x4 ADD PUSH2 0xB81 JUMP JUMPDEST SWAP2 PUSH1 0x64 CALLDATALOAD SWAP6 DUP7 GT PUSH2 0x1DE JUMPI PUSH2 0x301 SWAP7 PUSH2 0xC37 PUSH2 0xC3F SWAP8 CALLDATASIZE SWAP1 PUSH1 0x4 ADD PUSH2 0xB81 JUMP JUMPDEST SWAP7 SWAP1 SWAP6 PUSH2 0x1851 JUMP JUMPDEST PUSH1 0x40 MLOAD SWAP1 DUP2 MSTORE SWAP1 DUP2 SWAP1 PUSH1 0x20 DUP3 ADD SWAP1 JUMP JUMPDEST CALLVALUE PUSH2 0x1DE JUMPI PUSH1 0x20 CALLDATASIZE PUSH1 0x3 NOT ADD SLT PUSH2 0x1DE JUMPI PUSH1 0x4 CALLDATALOAD PUSH1 0x0 MSTORE PUSH1 0x7 PUSH1 0x20 MSTORE PUSH1 0x20 PUSH1 0x6 PUSH1 0x40 PUSH1 0x0 KECCAK256 ADD SLOAD PUSH1 0x40 MLOAD SWAP1 DUP2 MSTORE RETURN JUMPDEST CALLVALUE PUSH2 0x1DE JUMPI PUSH1 0x0 CALLDATASIZE PUSH1 0x3 NOT ADD SLT PUSH2 0x1DE JUMPI PUSH1 0xA SLOAD PUSH1 0x40 MLOAD PUSH1 0x1 PUSH1 0x1 PUSH1 0xA0 SHL SUB SWAP1 SWAP2 AND DUP2 MSTORE PUSH1 0x20 SWAP1 RETURN JUMPDEST PUSH1 0x24 CALLDATALOAD SWAP1 DUP2 ISZERO ISZERO DUP3 SUB PUSH2 0x1DE JUMPI JUMP JUMPDEST CALLVALUE PUSH2 0x1DE JUMPI PUSH1 0x60 CALLDATASIZE PUSH1 0x3 NOT ADD SLT PUSH2 0x1DE JUMPI PUSH2 0xCCF PUSH2 0xCA7 JUMP JUMPDEST PUSH1 0x9 SLOAD CALLER PUSH1 0x1 PUSH1 0x1 PUSH1 0xA0 SHL SUB SWAP2 DUP3 AND EQ SWAP1 DUP2 ISZERO PUSH2 0xD50 JUMPI JUMPDEST POP ISZERO PUSH2 0xCFD JUMPI PUSH2 0x871 SWAP1 PUSH1 0x44 CALLDATALOAD SWAP1 PUSH1 0x4 CALLDATALOAD PUSH2 0x1A1C JUMP JUMPDEST PUSH1 0x40 MLOAD PUSH3 0x461BCD PUSH1 0xE5 SHL DUP2 MSTORE PUSH1 0x20 PUSH1 0x4 DUP3 ADD MSTORE PUSH1 0x25 PUSH1 0x24 DUP3 ADD MSTORE PUSH32 0x4167656E7452656769737472793A206E6F742072657075746174696F6E206D61 PUSH1 0x44 DUP3 ADD MSTORE PUSH5 0x3730B3B2B9 PUSH1 0xD9 SHL PUSH1 0x64 DUP3 ADD MSTORE PUSH1 0x84 SWAP1 REVERT JUMPDEST SWAP1 POP PUSH1 0xA SLOAD AND CALLER EQ CODESIZE PUSH2 0xCE7 JUMP JUMPDEST CALLVALUE PUSH2 0x1DE JUMPI PUSH1 0x0 DUP1 PUSH1 0x3 NOT CALLDATASIZE ADD SLT PUSH2 0x389 JUMPI PUSH1 0x40 MLOAD SWAP1 DUP1 PUSH1 0x1 DUP1 SLOAD SWAP1 PUSH2 0xD83 DUP3 PUSH2 0x1054 JUMP JUMPDEST DUP1 DUP7 MSTORE SWAP3 PUSH1 0x20 SWAP3 PUSH1 0x1 DUP2 AND SWAP1 DUP2 ISZERO PUSH2 0x35C JUMPI POP PUSH1 0x1 EQ PUSH2 0xDAD JUMPI PUSH2 0x301 DUP7 PUSH2 0x2F5 DUP2 DUP9 SUB DUP3 PUSH2 0x65A JUMP JUMPDEST SWAP4 POP PUSH1 0x1 DUP5 MSTORE PUSH32 0xB10E2D527612073B26EECDFD717E6A320CF44B4AFAC2B0732D9FCBE2B7FA0CF6 JUMPDEST DUP4 DUP6 LT PUSH2 0xDF2 JUMPI POP POP POP POP DUP2 ADD PUSH1 0x20 ADD PUSH2 0x2F5 DUP3 PUSH2 0x301 CODESIZE PUSH2 0x2E5 JUMP JUMPDEST DUP1 SLOAD DUP7 DUP7 ADD DUP5 ADD MSTORE SWAP4 DUP3 ADD SWAP4 DUP2 ADD PUSH2 0xDD5 JUMP JUMPDEST CALLVALUE PUSH2 0x1DE JUMPI PUSH1 0x40 CALLDATASIZE PUSH1 0x3 NOT ADD SLT PUSH2 0x1DE JUMPI PUSH2 0xE1E PUSH2 0x3DA JUMP JUMPDEST PUSH2 0xE26 PUSH2 0xCA7 JUMP JUMPDEST PUSH1 0x1 PUSH1 0x1 PUSH1 0xA0 SHL SUB DUP3 AND SWAP2 CALLER DUP4 EQ PUSH2 0xEA8 JUMPI DUP2 PUSH2 0xE65 PUSH2 0xE76 SWAP3 CALLER PUSH1 0x0 MSTORE PUSH1 0x5 PUSH1 0x20 MSTORE PUSH1 0x40 PUSH1 0x0 KECCAK256 SWAP1 PUSH1 0x1 DUP1 PUSH1 0xA0 SHL SUB AND PUSH1 0x0 MSTORE PUSH1 0x20 MSTORE PUSH1 0x40 PUSH1 0x0 KECCAK256 SWAP1 JUMP JUMPDEST SWAP1 PUSH1 0xFF DUP1 NOT DUP4 SLOAD AND SWAP2 ISZERO ISZERO AND OR SWAP1 SSTORE JUMP JUMPDEST PUSH1 0x40 MLOAD SWAP1 ISZERO ISZERO DUP2 MSTORE CALLER SWAP1 PUSH32 0x17307EAB39AB6107E8899845AD3D59BD9653F200F220920489CA2B5937696C31 SWAP1 PUSH1 0x20 SWAP1 LOG3 STOP JUMPDEST PUSH1 0x64 PUSH1 0x40 MLOAD PUSH3 0x461BCD PUSH1 0xE5 SHL DUP2 MSTORE PUSH1 0x20 PUSH1 0x4 DUP3 ADD MSTORE PUSH1 0x20 PUSH1 0x24 DUP3 ADD MSTORE PUSH32 0x4167656E7452656769737472793A20617070726F766520746F2063616C6C6572 PUSH1 0x44 DUP3 ADD MSTORE REVERT JUMPDEST CALLVALUE PUSH2 0x1DE JUMPI PUSH1 0x80 CALLDATASIZE PUSH1 0x3 NOT ADD SLT PUSH2 0x1DE JUMPI PUSH2 0xF05 PUSH2 0x3DA JUMP JUMPDEST PUSH2 0xF0D PUSH2 0x3F0 JUMP JUMPDEST SWAP1 PUSH1 0x64 CALLDATALOAD SWAP1 PUSH1 0x44 CALLDATALOAD PUSH8 0xFFFFFFFFFFFFFFFF DUP4 GT PUSH2 0x1DE JUMPI PUSH2 0x871 SWAP4 PUSH2 0xF5B PUSH2 0xF3C PUSH2 0x979 SWAP6 CALLDATASIZE SWAP1 PUSH1 0x4 ADD PUSH2 0xB81 JUMP JUMPDEST PUSH2 0xF49 PUSH2 0x867 DUP7 CALLER PUSH2 0x1B07 JUMP JUMPDEST PUSH2 0xF54 DUP6 DUP6 DUP9 PUSH2 0x1BC8 JUMP JUMPDEST CALLDATASIZE SWAP2 PUSH2 0x69D JUMP JUMPDEST SWAP3 PUSH2 0x1DC7 JUMP JUMPDEST CALLVALUE PUSH2 0x1DE JUMPI PUSH1 0x0 CALLDATASIZE PUSH1 0x3 NOT ADD SLT PUSH2 0x1DE JUMPI PUSH1 0x6 SLOAD PUSH1 0x0 NOT DUP2 ADD SWAP1 DUP2 GT PUSH2 0xF8C JUMPI PUSH1 0x20 SWAP1 PUSH1 0x40 MLOAD SWAP1 DUP2 MSTORE RETURN JUMPDEST PUSH2 0x15A7 JUMP JUMPDEST CALLVALUE PUSH2 0x1DE JUMPI PUSH1 0x20 CALLDATASIZE PUSH1 0x3 NOT ADD SLT PUSH2 0x1DE JUMPI PUSH1 0x4 CALLDATALOAD PUSH1 0x0 DUP2 DUP2 MSTORE PUSH1 0x2 PUSH1 0x20 MSTORE PUSH1 0x40 SWAP1 KECCAK256 SLOAD PUSH2 0xFC8 SWAP1 PUSH1 0x1 PUSH1 0x1 PUSH1 0xA0 SHL SUB AND ISZERO ISZERO PUSH2 0x1133 JUMP JUMPDEST PUSH1 0x0 MSTORE PUSH1 0x7 PUSH1 0x20 MSTORE PUSH2 0x301 PUSH2 0xFE3 PUSH1 0x5 PUSH1 0x40 PUSH1 0x0 KECCAK256 ADD PUSH2 0x108E JUMP JUMPDEST PUSH1 0x40 MLOAD SWAP2 DUP3 SWAP2 PUSH1 0x20 DUP4 MSTORE PUSH1 0x20 DUP4 ADD SWAP1 PUSH2 0x251 JUMP JUMPDEST CALLVALUE PUSH2 0x1DE JUMPI PUSH1 0x40 CALLDATASIZE PUSH1 0x3 NOT ADD SLT PUSH2 0x1DE JUMPI PUSH1 0x20 PUSH1 0xFF PUSH2 0x1048 PUSH2 0x1017 PUSH2 0x3DA JUMP JUMPDEST PUSH2 0x101F PUSH2 0x3F0 JUMP JUMPDEST PUSH1 0x1 PUSH1 0x1 PUSH1 0xA0 SHL SUB SWAP2 DUP3 AND PUSH1 0x0 SWAP1 DUP2 MSTORE PUSH1 0x5 DUP7 MSTORE PUSH1 0x40 DUP1 DUP3 KECCAK256 SWAP3 SWAP1 SWAP4 AND DUP2 MSTORE PUSH1 0x20 SWAP2 SWAP1 SWAP2 MSTORE KECCAK256 SWAP1 JUMP JUMPDEST SLOAD AND PUSH1 0x40 MLOAD SWAP1 ISZERO ISZERO DUP2 MSTORE RETURN JUMPDEST SWAP1 PUSH1 0x1 DUP3 DUP2 SHR SWAP3 AND DUP1 ISZERO PUSH2 0x1084 JUMPI JUMPDEST PUSH1 0x20 DUP4 LT EQ PUSH2 0x106E JUMPI JUMP JUMPDEST PUSH4 0x4E487B71 PUSH1 0xE0 SHL PUSH1 0x0 MSTORE PUSH1 0x22 PUSH1 0x4 MSTORE PUSH1 0x24 PUSH1 0x0 REVERT JUMPDEST SWAP2 PUSH1 0x7F AND SWAP2 PUSH2 0x1063 JUMP JUMPDEST SWAP1 PUSH1 0x40 MLOAD SWAP2 DUP3 PUSH1 0x0 DUP3 SLOAD PUSH2 0x10A1 DUP2 PUSH2 0x1054 JUMP JUMPDEST SWAP1 DUP2 DUP5 MSTORE PUSH1 0x20 SWAP5 PUSH1 0x1 SWAP2 PUSH1 0x1 DUP2 AND SWAP1 DUP2 PUSH1 0x0 EQ PUSH2 0x1111 JUMPI POP PUSH1 0x1 EQ PUSH2 0x10D2 JUMPI JUMPDEST POP POP POP PUSH2 0x10D0 SWAP3 POP SUB DUP4 PUSH2 0x65A JUMP JUMPDEST JUMP JUMPDEST PUSH1 0x0 SWAP1 DUP2 MSTORE DUP6 DUP2 KECCAK256 SWAP6 SWAP4 POP SWAP2 SWAP1 JUMPDEST DUP2 DUP4 LT PUSH2 0x10F9 JUMPI POP POP PUSH2 0x10D0 SWAP4 POP DUP3 ADD ADD CODESIZE DUP1 DUP1 PUSH2 0x10C1 JUMP JUMPDEST DUP6 SLOAD DUP9 DUP5 ADD DUP6 ADD MSTORE SWAP5 DUP6 ADD SWAP5 DUP8 SWAP5 POP SWAP2 DUP4 ADD SWAP2 PUSH2 0x10E0 JUMP JUMPDEST SWAP3 POP POP POP PUSH2 0x10D0 SWAP5 SWAP3 POP PUSH1 0xFF NOT AND DUP3 DUP5 ADD MSTORE ISZERO ISZERO PUSH1 0x5 SHL DUP3 ADD ADD CODESIZE DUP1 DUP1 PUSH2 0x10C1 JUMP JUMPDEST ISZERO PUSH2 0x113A JUMPI JUMP JUMPDEST PUSH1 0x64 PUSH1 0x40 MLOAD PUSH3 0x461BCD PUSH1 0xE5 SHL DUP2 MSTORE PUSH1 0x20 PUSH1 0x4 DUP3 ADD MSTORE PUSH1 0x20 PUSH1 0x24 DUP3 ADD MSTORE PUSH32 0x4167656E7452656769737472793A206E6F6E6578697374656E7420746F6B656E PUSH1 0x44 DUP3 ADD MSTORE REVERT JUMPDEST ISZERO PUSH2 0x1185 JUMPI JUMP JUMPDEST PUSH1 0x40 MLOAD PUSH3 0x461BCD PUSH1 0xE5 SHL DUP2 MSTORE PUSH1 0x20 PUSH1 0x4 DUP3 ADD MSTORE PUSH1 0x1D PUSH1 0x24 DUP3 ADD MSTORE PUSH32 0x4167656E7452656769737472793A206E6F7420617574686F72697A6564000000 PUSH1 0x44 DUP3 ADD MSTORE PUSH1 0x64 SWAP1 REVERT JUMPDEST ISZERO PUSH2 0x11D1 JUMPI JUMP JUMPDEST PUSH1 0x40 MLOAD PUSH3 0x461BCD PUSH1 0xE5 SHL DUP2 MSTORE PUSH1 0x20 PUSH1 0x4 DUP3 ADD MSTORE PUSH1 0x1F PUSH1 0x24 DUP3 ADD MSTORE PUSH32 0x4167656E7452656769737472793A20616C726561647920696E61637469766500 PUSH1 0x44 DUP3 ADD MSTORE PUSH1 0x64 SWAP1 REVERT JUMPDEST PUSH1 0x40 MLOAD RETURNDATASIZE PUSH1 0x0 DUP3 RETURNDATACOPY RETURNDATASIZE SWAP1 REVERT JUMPDEST SWAP1 PUSH1 0x41 DUP2 MLOAD EQ PUSH2 0x123C JUMPI JUMPDEST POP PUSH1 0x1 PUSH1 0x1 PUSH1 0xE0 SHL SUB NOT SWAP2 SWAP1 POP JUMP JUMPDEST PUSH1 0x20 DUP2 DUP2 ADD MLOAD PUSH1 0x40 DUP1 DUP5 ADD MLOAD PUSH1 0x60 SWAP5 DUP6 ADD MLOAD DUP3 MLOAD SWAP7 DUP8 MSTORE PUSH1 0x0 SWAP1 DUP2 BYTE DUP8 DUP7 ADD MSTORE SWAP2 DUP7 ADD SWAP3 SWAP1 SWAP3 MSTORE SWAP3 DUP5 ADD MSTORE DUP2 DUP1 MSTORE SWAP2 PUSH1 0x80 SWAP1 PUSH1 0x1 GAS STATICCALL ISZERO PUSH2 0x12B5 JUMPI PUSH1 0x0 MLOAD PUSH1 0x1 PUSH1 0x1 PUSH1 0xA0 SHL SUB SWAP1 DUP2 AND DUP1 ISZERO ISZERO SWAP2 DUP3 PUSH2 0x12A7 JUMPI JUMPDEST POP POP PUSH2 0x129C JUMPI CODESIZE DUP1 PUSH2 0x122D JUMP JUMPDEST PUSH4 0xB135D3F PUSH1 0xE1 SHL SWAP1 JUMP JUMPDEST PUSH1 0xA SLOAD AND EQ SWAP1 POP CODESIZE DUP1 PUSH2 0x128F JUMP JUMPDEST PUSH2 0x1216 JUMP JUMPDEST PUSH1 0x40 MLOAD SWAP1 PUSH2 0x12C7 DUP3 PUSH2 0x639 JUMP JUMPDEST PUSH1 0x0 DUP3 MSTORE JUMP JUMPDEST ISZERO PUSH2 0x12D4 JUMPI JUMP JUMPDEST PUSH1 0x40 MLOAD PUSH3 0x461BCD PUSH1 0xE5 SHL DUP2 MSTORE PUSH1 0x20 PUSH1 0x4 DUP3 ADD MSTORE PUSH1 0x21 PUSH1 0x24 DUP3 ADD MSTORE PUSH32 0x4167656E7452656769737472793A206E6F742045524337323152656365697665 PUSH1 0x44 DUP3 ADD MSTORE PUSH1 0x39 PUSH1 0xF9 SHL PUSH1 0x64 DUP3 ADD MSTORE PUSH1 0x84 SWAP1 REVERT JUMPDEST ISZERO PUSH2 0x132A JUMPI JUMP JUMPDEST PUSH1 0x40 MLOAD PUSH3 0x461BCD PUSH1 0xE5 SHL DUP2 MSTORE PUSH1 0x20 PUSH1 0x4 DUP3 ADD MSTORE PUSH1 0x1E PUSH1 0x24 DUP3 ADD MSTORE PUSH32 0x4167656E7452656769737472793A206167656E74206E6F7420666F756E640000 PUSH1 0x44 DUP3 ADD MSTORE PUSH1 0x64 SWAP1 REVERT JUMPDEST SWAP1 DUP2 PUSH1 0x20 SWAP2 SUB SLT PUSH2 0x1DE JUMPI MLOAD PUSH2 0x2A2 DUP2 PUSH2 0x1CC JUMP JUMPDEST PUSH1 0x40 SWAP1 PUSH2 0x2A2 SWAP4 SWAP3 DUP2 MSTORE DUP2 PUSH1 0x20 DUP3 ADD MSTORE ADD SWAP1 PUSH2 0x251 JUMP JUMPDEST PUSH1 0x1 PUSH2 0x13B7 PUSH2 0x13C5 SWAP3 SWAP5 SWAP4 SWAP5 PUSH1 0x0 MSTORE PUSH1 0x7 PUSH1 0x20 MSTORE PUSH1 0x40 PUSH1 0x0 KECCAK256 SWAP1 JUMP JUMPDEST ADD SLOAD PUSH1 0x1 PUSH1 0x1 PUSH1 0xA0 SHL SUB AND SWAP1 JUMP JUMPDEST PUSH1 0x1 PUSH1 0x1 PUSH1 0xA0 SHL SUB DUP2 AND SWAP1 PUSH2 0x13DB DUP3 ISZERO ISZERO PUSH2 0x1323 JUMP JUMPDEST PUSH1 0x41 DUP4 MLOAD EQ PUSH2 0x146E JUMPI JUMPDEST EXTCODESIZE PUSH2 0x13F2 JUMPI POP POP POP PUSH1 0x0 SWAP1 JUMP JUMPDEST PUSH2 0x1416 SWAP2 PUSH1 0x20 SWAP2 PUSH1 0x40 MLOAD DUP1 DUP1 SWAP6 DUP2 SWAP5 PUSH4 0xB135D3F PUSH1 0xE1 SHL SWAP9 DUP10 DUP5 MSTORE PUSH1 0x4 DUP5 ADD PUSH2 0x1384 JUMP JUMPDEST SUB SWAP2 GAS STATICCALL PUSH1 0x0 SWAP2 DUP2 PUSH2 0x143D JUMPI JUMPDEST POP PUSH2 0x142F JUMPI POP POP PUSH1 0x0 SWAP1 JUMP JUMPDEST PUSH1 0x1 PUSH1 0x1 PUSH1 0xE0 SHL SUB NOT AND EQ SWAP1 JUMP JUMPDEST PUSH2 0x1460 SWAP2 SWAP3 POP PUSH1 0x20 RETURNDATASIZE PUSH1 0x20 GT PUSH2 0x1467 JUMPI JUMPDEST PUSH2 0x1458 DUP2 DUP4 PUSH2 0x65A JUMP JUMPDEST DUP2 ADD SWAP1 PUSH2 0x136F JUMP JUMPDEST SWAP1 CODESIZE PUSH2 0x1423 JUMP JUMPDEST POP RETURNDATASIZE PUSH2 0x144E JUMP JUMPDEST PUSH1 0x20 DUP4 DUP2 ADD MLOAD PUSH1 0x40 DUP1 DUP7 ADD MLOAD PUSH1 0x60 DUP1 DUP9 ADD MLOAD DUP4 MLOAD DUP11 DUP2 MSTORE PUSH1 0x0 SWAP2 DUP3 BYTE DUP2 DUP9 ADD MSTORE SWAP4 DUP5 ADD SWAP5 SWAP1 SWAP5 MSTORE DUP3 ADD MSTORE DUP2 DUP1 MSTORE PUSH1 0x80 SWAP1 PUSH1 0x1 GAS STATICCALL ISZERO PUSH2 0x12B5 JUMPI PUSH1 0x0 MLOAD DUP3 SWAP1 PUSH1 0x1 PUSH1 0x1 PUSH1 0xA0 SHL SUB AND SUB PUSH2 0x13E5 JUMPI JUMPDEST POP POP POP POP PUSH1 0x1 SWAP1 JUMP JUMPDEST ISZERO PUSH2 0x14CB JUMPI JUMP JUMPDEST PUSH1 0x40 MLOAD PUSH3 0x461BCD PUSH1 0xE5 SHL DUP2 MSTORE PUSH1 0x20 PUSH1 0x4 DUP3 ADD MSTORE PUSH1 0x18 PUSH1 0x24 DUP3 ADD MSTORE PUSH32 0x4167656E7452656769737472793A206E6F74206F776E65720000000000000000 PUSH1 0x44 DUP3 ADD MSTORE PUSH1 0x64 SWAP1 REVERT JUMPDEST ISZERO PUSH2 0x1517 JUMPI JUMP JUMPDEST PUSH1 0x40 MLOAD PUSH3 0x461BCD PUSH1 0xE5 SHL DUP2 MSTORE PUSH1 0x20 PUSH1 0x4 DUP3 ADD MSTORE PUSH1 0x1C PUSH1 0x24 DUP3 ADD MSTORE PUSH32 0x4167656E7452656769737472793A206E616D6520726571756972656400000000 PUSH1 0x44 DUP3 ADD MSTORE PUSH1 0x64 SWAP1 REVERT JUMPDEST ISZERO PUSH2 0x1563 JUMPI JUMP JUMPDEST PUSH1 0x64 PUSH1 0x40 MLOAD PUSH3 0x461BCD PUSH1 0xE5 SHL DUP2 MSTORE PUSH1 0x20 PUSH1 0x4 DUP3 ADD MSTORE PUSH1 0x20 PUSH1 0x24 DUP3 ADD MSTORE PUSH32 0x4167656E7452656769737472793A207374726174656779207265717569726564 PUSH1 0x44 DUP3 ADD MSTORE REVERT JUMPDEST PUSH4 0x4E487B71 PUSH1 0xE0 SHL PUSH1 0x0 MSTORE PUSH1 0x11 PUSH1 0x4 MSTORE PUSH1 0x24 PUSH1 0x0 REVERT JUMPDEST PUSH1 0x0 NOT DUP2 EQ PUSH2 0xF8C JUMPI PUSH1 0x1 ADD SWAP1 JUMP JUMPDEST SWAP1 PUSH1 0x1F DUP2 GT PUSH2 0x15DA JUMPI POP POP POP JUMP JUMPDEST PUSH1 0x0 SWAP2 PUSH1 0x0 MSTORE PUSH1 0x20 PUSH1 0x0 KECCAK256 SWAP1 PUSH1 0x20 PUSH1 0x1F DUP6 ADD PUSH1 0x5 SHR DUP4 ADD SWAP5 LT PUSH2 0x1618 JUMPI JUMPDEST PUSH1 0x1F ADD PUSH1 0x5 SHR ADD SWAP2 JUMPDEST DUP3 DUP2 LT PUSH2 0x160D JUMPI POP POP POP JUMP JUMPDEST DUP2 DUP2 SSTORE PUSH1 0x1 ADD PUSH2 0x1601 JUMP JUMPDEST SWAP1 SWAP3 POP DUP3 SWAP1 PUSH2 0x15F8 JUMP JUMPDEST SWAP2 SWAP1 SWAP2 DUP3 MLOAD PUSH8 0xFFFFFFFFFFFFFFFF DUP2 GT PUSH2 0x655 JUMPI PUSH2 0x164A DUP2 PUSH2 0x1644 DUP5 SLOAD PUSH2 0x1054 JUMP JUMPDEST DUP5 PUSH2 0x15CC JUMP JUMPDEST PUSH1 0x20 DUP1 PUSH1 0x1F DUP4 GT PUSH1 0x1 EQ PUSH2 0x168D JUMPI POP DUP2 SWAP1 PUSH2 0x167E SWAP4 SWAP5 SWAP6 PUSH1 0x0 SWAP3 PUSH2 0x1682 JUMPI JUMPDEST POP POP DUP2 PUSH1 0x1 SHL SWAP2 PUSH1 0x0 NOT SWAP1 PUSH1 0x3 SHL SHR NOT AND OR SWAP1 JUMP JUMPDEST SWAP1 SSTORE JUMP JUMPDEST ADD MLOAD SWAP1 POP CODESIZE DUP1 PUSH2 0x1669 JUMP JUMPDEST SWAP1 PUSH1 0x1F NOT DUP4 AND SWAP6 PUSH2 0x16A3 DUP6 PUSH1 0x0 MSTORE PUSH1 0x20 PUSH1 0x0 KECCAK256 SWAP1 JUMP JUMPDEST SWAP3 PUSH1 0x0 SWAP1 JUMPDEST DUP9 DUP3 LT PUSH2 0x16E0 JUMPI POP POP DUP4 PUSH1 0x1 SWAP6 SWAP7 SWAP8 LT PUSH2 0x16C7 JUMPI JUMPDEST POP POP POP DUP2 SHL ADD SWAP1 SSTORE JUMP JUMPDEST ADD MLOAD PUSH1 0x0 NOT PUSH1 0xF8 DUP5 PUSH1 0x3 SHL AND SHR NOT AND SWAP1 SSTORE CODESIZE DUP1 DUP1 PUSH2 0x16BD JUMP JUMPDEST DUP1 PUSH1 0x1 DUP6 SWAP7 DUP3 SWAP5 SWAP7 DUP7 ADD MLOAD DUP2 SSTORE ADD SWAP6 ADD SWAP4 ADD SWAP1 PUSH2 0x16A8 JUMP JUMPDEST DUP2 MLOAD DUP2 SSTORE PUSH1 0x20 DUP3 ADD MLOAD PUSH1 0x1 DUP3 ADD DUP1 SLOAD PUSH1 0x1 PUSH1 0x1 PUSH1 0xA0 SHL SUB NOT AND PUSH1 0x1 PUSH1 0x1 PUSH1 0xA0 SHL SUB SWAP1 SWAP3 AND SWAP2 SWAP1 SWAP2 OR SWAP1 SSTORE SWAP1 PUSH1 0xB SWAP1 PUSH2 0x160 SWAP1 PUSH2 0x173B PUSH1 0x40 DUP3 ADD MLOAD PUSH1 0x2 DUP7 ADD PUSH2 0x1622 JUMP JUMPDEST PUSH2 0x174C PUSH1 0x60 DUP3 ADD MLOAD PUSH1 0x3 DUP7 ADD PUSH2 0x1622 JUMP JUMPDEST PUSH2 0x175D PUSH1 0x80 DUP3 ADD MLOAD PUSH1 0x4 DUP7 ADD PUSH2 0x1622 JUMP JUMPDEST PUSH2 0x176E PUSH1 0xA0 DUP3 ADD MLOAD PUSH1 0x5 DUP7 ADD PUSH2 0x1622 JUMP JUMPDEST PUSH1 0xC0 DUP2 ADD MLOAD PUSH1 0x6 DUP6 ADD SSTORE PUSH1 0xE0 DUP2 ADD MLOAD PUSH1 0x7 DUP6 ADD SSTORE PUSH2 0x100 DUP2 ADD MLOAD PUSH1 0x8 DUP6 ADD SSTORE PUSH2 0x120 DUP2 ADD MLOAD PUSH1 0x9 DUP6 ADD SSTORE PUSH2 0x17BE PUSH2 0x17A9 PUSH2 0x140 DUP4 ADD MLOAD ISZERO ISZERO SWAP1 JUMP JUMPDEST PUSH1 0xA DUP7 ADD SWAP1 PUSH1 0xFF DUP1 NOT DUP4 SLOAD AND SWAP2 ISZERO ISZERO AND OR SWAP1 SSTORE JUMP JUMPDEST ADD MLOAD SWAP2 ADD SSTORE JUMP JUMPDEST DUP1 SLOAD SWAP1 PUSH9 0x10000000000000000 DUP3 LT ISZERO PUSH2 0x655 JUMPI PUSH1 0x1 DUP3 ADD DUP1 DUP3 SSTORE DUP3 LT ISZERO PUSH2 0x17F3 JUMPI PUSH1 0x0 MSTORE PUSH1 0x20 PUSH1 0x0 KECCAK256 ADD SSTORE JUMP JUMPDEST PUSH4 0x4E487B71 PUSH1 0xE0 SHL PUSH1 0x0 MSTORE PUSH1 0x32 PUSH1 0x4 MSTORE PUSH1 0x24 PUSH1 0x0 REVERT JUMPDEST SWAP1 DUP1 PUSH1 0x20 SWAP4 SWAP3 DUP2 DUP5 MSTORE DUP5 DUP5 ADD CALLDATACOPY PUSH1 0x0 DUP3 DUP3 ADD DUP5 ADD MSTORE PUSH1 0x1F ADD PUSH1 0x1F NOT AND ADD ADD SWAP1 JUMP JUMPDEST SWAP3 SWAP1 PUSH2 0x1843 SWAP1 PUSH2 0x2A2 SWAP6 SWAP4 PUSH1 0x40 DUP7 MSTORE PUSH1 0x40 DUP7 ADD SWAP2 PUSH2 0x1809 JUMP JUMPDEST SWAP3 PUSH1 0x20 DUP2 DUP6 SUB SWAP2 ADD MSTORE PUSH2 0x1809 JUMP JUMPDEST SWAP2 SWAP3 SWAP4 SWAP8 SWAP7 SWAP5 SWAP1 SWAP6 DUP7 ISZERO ISZERO PUSH2 0x1865 SWAP1 PUSH2 0x1510 JUMP JUMPDEST PUSH2 0x1870 DUP6 ISZERO ISZERO PUSH2 0x155C JUMP JUMPDEST PUSH1 0x6 SLOAD SWAP6 PUSH2 0x187D DUP8 PUSH2 0x15BD JUMP JUMPDEST PUSH1 0x6 SSTORE DUP7 SWAP10 PUSH2 0x188A PUSH2 0x67C JUMP JUMPDEST DUP9 DUP2 MSTORE CALLER PUSH1 0x20 DUP3 ADD MSTORE SWAP4 PUSH2 0x189F CALLDATASIZE DUP12 DUP9 PUSH2 0x69D JUMP JUMPDEST PUSH1 0x40 DUP7 ADD MSTORE PUSH2 0x18AF CALLDATASIZE DUP10 DUP10 PUSH2 0x69D JUMP JUMPDEST PUSH1 0x60 DUP7 ADD MSTORE CALLDATASIZE SWAP1 PUSH2 0x18BF SWAP3 PUSH2 0x69D JUMP JUMPDEST PUSH1 0x80 DUP5 ADD MSTORE CALLDATASIZE SWAP1 PUSH2 0x18CF SWAP3 PUSH2 0x69D JUMP JUMPDEST PUSH1 0xA0 DUP3 ADD MSTORE PUSH1 0x32 PUSH1 0xC0 DUP3 ADD MSTORE PUSH1 0x0 PUSH1 0xE0 DUP3 ADD DUP2 SWAP1 MSTORE PUSH2 0x100 DUP3 ADD DUP2 SWAP1 MSTORE PUSH2 0x120 DUP3 ADD MSTORE PUSH1 0x1 PUSH2 0x140 DUP3 ADD MSTORE TIMESTAMP PUSH2 0x160 DUP3 ADD MSTORE PUSH2 0x1915 DUP6 PUSH1 0x0 MSTORE PUSH1 0x7 PUSH1 0x20 MSTORE PUSH1 0x40 PUSH1 0x0 KECCAK256 SWAP1 JUMP JUMPDEST SWAP1 PUSH2 0x191F SWAP2 PUSH2 0x16F8 JUMP JUMPDEST CALLER PUSH1 0x0 SWAP1 DUP2 MSTORE PUSH1 0x8 PUSH1 0x20 MSTORE PUSH1 0x40 SWAP1 KECCAK256 DUP5 PUSH2 0x1938 SWAP2 PUSH2 0x17C5 JUMP JUMPDEST PUSH2 0x1942 DUP5 CALLER PUSH2 0x1E33 JUMP JUMPDEST PUSH1 0x40 MLOAD SWAP3 DUP4 SWAP3 CALLER SWAP7 PUSH2 0x1954 SWAP4 DUP6 PUSH2 0x182A JUMP JUMPDEST SUB PUSH32 0x1FA075D34B5040B9BC683D1CC54AE270F345511DD00E1B9F68E82FD47B16F524 SWAP2 LOG3 JUMP JUMPDEST ISZERO PUSH2 0x1981 JUMPI JUMP JUMPDEST PUSH1 0x40 MLOAD PUSH3 0x461BCD PUSH1 0xE5 SHL DUP2 MSTORE PUSH1 0x20 PUSH1 0x4 DUP3 ADD MSTORE PUSH1 0x1F PUSH1 0x24 DUP3 ADD MSTORE PUSH32 0x4167656E7452656769737472793A206167656E74206E6F742061637469766500 PUSH1 0x44 DUP3 ADD MSTORE PUSH1 0x64 SWAP1 REVERT JUMPDEST SWAP2 SWAP1 SWAP2 PUSH1 0x0 DUP4 DUP3 ADD SWAP4 DUP5 SLT SWAP2 SLT SWAP1 DUP1 ISZERO DUP3 AND SWAP2 ISZERO AND OR PUSH2 0xF8C JUMPI JUMP JUMPDEST PUSH1 0x1 NOT DUP2 ADD SWAP2 SWAP1 DUP3 GT PUSH2 0xF8C JUMPI JUMP JUMPDEST PUSH1 0x0 NOT DUP2 ADD SWAP2 SWAP1 DUP3 GT PUSH2 0xF8C JUMPI JUMP JUMPDEST SWAP1 PUSH1 0x2 DUP3 ADD DUP1 SWAP3 GT PUSH2 0xF8C JUMPI JUMP JUMPDEST SWAP1 PUSH1 0x1 DUP3 ADD DUP1 SWAP3 GT PUSH2 0xF8C JUMPI JUMP JUMPDEST SWAP2 PUSH1 0x6 PUSH2 0x1ACC SWAP2 PUSH32 0x20D456995C74D5114F87879B10C5214B9C28E11EA422EEB922CC2E755095669F SWAP4 PUSH2 0x1A59 DUP7 PUSH1 0x0 MSTORE PUSH1 0x7 PUSH1 0x20 MSTORE PUSH1 0x40 PUSH1 0x0 KECCAK256 SWAP1 JUMP JUMPDEST SWAP2 PUSH2 0x1A70 PUSH2 0x1A6B PUSH1 0xA DUP6 ADD SLOAD PUSH1 0xFF AND SWAP1 JUMP JUMPDEST PUSH2 0x197A JUMP JUMPDEST PUSH1 0x7 DUP4 ADD PUSH2 0x1A7E DUP2 SLOAD PUSH2 0x15BD JUMP JUMPDEST SWAP1 SSTORE PUSH2 0x1A8F PUSH1 0x9 DUP5 ADD SWAP2 DUP3 SLOAD PUSH2 0x19C6 JUMP JUMPDEST SWAP1 SSTORE ISZERO PUSH2 0x1AE0 JUMPI PUSH1 0x8 DUP2 ADD PUSH2 0x1AA4 DUP2 SLOAD PUSH2 0x15BD JUMP JUMPDEST SWAP1 SSTORE DUP1 DUP3 ADD DUP1 SLOAD PUSH1 0x62 DUP2 LT PUSH2 0x1AD1 JUMPI POP PUSH1 0x64 SWAP1 JUMPDEST SSTORE JUMPDEST ADD SLOAD PUSH1 0x40 MLOAD SWAP1 DUP2 MSTORE SWAP1 DUP2 SWAP1 PUSH1 0x20 DUP3 ADD SWAP1 JUMP JUMPDEST SUB SWAP1 LOG2 JUMP JUMPDEST PUSH2 0x1ADA SWAP1 PUSH2 0x1A00 JUMP JUMPDEST SWAP1 PUSH2 0x1AB8 JUMP JUMPDEST DUP1 DUP3 ADD DUP1 SLOAD PUSH1 0x2 DUP2 GT PUSH2 0x1AF8 JUMPI POP PUSH1 0x0 SWAP1 JUMPDEST SSTORE PUSH2 0x1ABA JUMP JUMPDEST PUSH2 0x1B01 SWAP1 PUSH2 0x19E2 JUMP JUMPDEST SWAP1 PUSH2 0x1AF2 JUMP JUMPDEST SWAP1 PUSH1 0x0 MSTORE PUSH1 0x2 PUSH1 0x20 MSTORE PUSH1 0x1 DUP1 PUSH1 0xA0 SHL SUB SWAP1 DUP2 PUSH1 0x40 PUSH1 0x0 KECCAK256 SLOAD AND DUP3 DUP3 AND DUP2 DUP2 EQ SWAP4 DUP5 ISZERO PUSH2 0x1B66 JUMPI JUMPDEST POP POP DUP3 ISZERO PUSH2 0x1B3B JUMPI POP POP SWAP1 JUMP JUMPDEST PUSH1 0x0 SWAP1 DUP2 MSTORE PUSH1 0x5 PUSH1 0x20 SWAP1 DUP2 MSTORE PUSH1 0x40 DUP1 DUP4 KECCAK256 PUSH1 0x1 PUSH1 0x1 PUSH1 0xA0 SHL SUB SWAP1 SWAP5 AND DUP4 MSTORE SWAP3 SWAP1 MSTORE KECCAK256 PUSH1 0xFF SWAP2 POP SLOAD AND SWAP1 JUMP JUMPDEST PUSH1 0x4 PUSH1 0x20 MSTORE PUSH1 0x40 PUSH1 0x0 KECCAK256 SLOAD AND EQ SWAP3 POP CODESIZE DUP1 PUSH2 0x1B2E JUMP JUMPDEST ISZERO PUSH2 0x1B83 JUMPI JUMP JUMPDEST PUSH1 0x40 MLOAD PUSH3 0x461BCD PUSH1 0xE5 SHL DUP2 MSTORE PUSH1 0x20 PUSH1 0x4 DUP3 ADD MSTORE PUSH1 0x1F PUSH1 0x24 DUP3 ADD MSTORE PUSH32 0x4167656E7452656769737472793A207472616E7366657220746F207A65726F00 PUSH1 0x44 DUP3 ADD MSTORE PUSH1 0x64 SWAP1 REVERT JUMPDEST SWAP1 DUP3 PUSH1 0x0 MSTORE PUSH1 0x2 PUSH1 0x20 MSTORE PUSH1 0x1 DUP1 PUSH1 0xA0 SHL SUB DUP1 PUSH1 0x40 PUSH1 0x0 KECCAK256 SLOAD AND SWAP2 DUP2 DUP5 AND DUP1 SWAP4 SUB PUSH2 0x1D0F JUMPI PUSH2 0x1CE3 DUP2 PUSH2 0x1C47 PUSH2 0x1CE8 SWAP5 DUP9 SWAP5 AND SWAP7 PUSH2 0x1C06 DUP9 ISZERO ISZERO PUSH2 0x1B7C JUMP JUMPDEST PUSH2 0x1C2D PUSH2 0x1C1D DUP7 PUSH1 0x0 MSTORE PUSH1 0x4 PUSH1 0x20 MSTORE PUSH1 0x40 PUSH1 0x0 KECCAK256 SWAP1 JUMP JUMPDEST DUP1 SLOAD PUSH1 0x1 PUSH1 0x1 PUSH1 0xA0 SHL SUB NOT AND SWAP1 SSTORE JUMP JUMPDEST PUSH1 0x1 PUSH1 0x1 PUSH1 0xA0 SHL SUB AND PUSH1 0x0 SWAP1 DUP2 MSTORE PUSH1 0x3 PUSH1 0x20 MSTORE PUSH1 0x40 SWAP1 KECCAK256 SWAP1 JUMP JUMPDEST PUSH2 0x1C51 DUP2 SLOAD PUSH2 0x19F1 JUMP JUMPDEST SWAP1 SSTORE PUSH1 0x1 PUSH1 0x1 PUSH1 0xA0 SHL SUB DUP2 AND PUSH1 0x0 SWAP1 DUP2 MSTORE PUSH1 0x3 PUSH1 0x20 MSTORE PUSH1 0x40 SWAP1 KECCAK256 PUSH2 0x1C75 DUP2 SLOAD PUSH2 0x1A0E JUMP JUMPDEST SWAP1 SSTORE PUSH2 0x1C8F DUP2 PUSH2 0x473 DUP6 PUSH1 0x0 MSTORE PUSH1 0x2 PUSH1 0x20 MSTORE PUSH1 0x40 PUSH1 0x0 KECCAK256 SWAP1 JUMP JUMPDEST PUSH2 0x1CC9 DUP2 PUSH1 0x1 PUSH2 0x1CA9 DUP7 PUSH1 0x0 MSTORE PUSH1 0x7 PUSH1 0x20 MSTORE PUSH1 0x40 PUSH1 0x0 KECCAK256 SWAP1 JUMP JUMPDEST ADD DUP1 SLOAD PUSH1 0x1 PUSH1 0x1 PUSH1 0xA0 SHL SUB NOT AND PUSH1 0x1 PUSH1 0x1 PUSH1 0xA0 SHL SUB SWAP1 SWAP3 AND SWAP2 SWAP1 SWAP2 OR SWAP1 SSTORE JUMP JUMPDEST PUSH1 0x1 PUSH1 0x1 PUSH1 0xA0 SHL SUB AND PUSH1 0x0 SWAP1 DUP2 MSTORE PUSH1 0x8 PUSH1 0x20 MSTORE PUSH1 0x40 SWAP1 KECCAK256 SWAP1 JUMP JUMPDEST PUSH2 0x17C5 JUMP JUMPDEST PUSH32 0xDDF252AD1BE2C89B69C2B068FC378DAA952BA7F163C4A11628F55A4DF523B3EF PUSH1 0x0 DUP1 LOG4 JUMP JUMPDEST PUSH1 0x40 MLOAD PUSH3 0x461BCD PUSH1 0xE5 SHL DUP2 MSTORE PUSH1 0x20 PUSH1 0x4 DUP3 ADD MSTORE PUSH1 0x1A PUSH1 0x24 DUP3 ADD MSTORE PUSH32 0x4167656E7452656769737472793A2077726F6E67206F776E6572000000000000 PUSH1 0x44 DUP3 ADD MSTORE PUSH1 0x64 SWAP1 REVERT JUMPDEST SWAP2 SWAP1 SWAP2 DUP1 EXTCODESIZE ISZERO PUSH2 0x1DBF JUMPI PUSH2 0x1D9E PUSH1 0x20 SWAP2 PUSH1 0x0 SWAP4 PUSH1 0x40 MLOAD SWAP5 DUP6 DUP1 SWAP5 DUP2 SWAP4 PUSH4 0xA85BD01 PUSH1 0xE1 SHL SWAP10 DUP11 DUP5 MSTORE CALLER PUSH1 0x4 DUP6 ADD MSTORE DUP5 PUSH1 0x24 DUP6 ADD MSTORE PUSH1 0x44 DUP5 ADD MSTORE PUSH1 0x80 PUSH1 0x64 DUP5 ADD MSTORE PUSH1 0x84 DUP4 ADD SWAP1 PUSH2 0x251 JUMP JUMPDEST SUB SWAP3 PUSH1 0x1 PUSH1 0x1 PUSH1 0xA0 SHL SUB AND GAS CALL PUSH1 0x0 SWAP2 DUP2 PUSH2 0x143D JUMPI POP PUSH2 0x142F JUMPI POP POP PUSH1 0x0 SWAP1 JUMP JUMPDEST POP POP POP PUSH1 0x1 SWAP1 JUMP JUMPDEST SWAP3 SWAP2 SWAP1 SWAP2 DUP3 EXTCODESIZE ISZERO PUSH2 0x14BB JUMPI PUSH2 0x1E1A SWAP3 PUSH1 0x20 SWAP3 PUSH1 0x0 PUSH1 0x1 DUP1 PUSH1 0xA0 SHL SUB PUSH1 0x40 MLOAD DUP1 SWAP8 DUP2 SWAP7 DUP3 SWAP6 DUP5 PUSH4 0xA85BD01 PUSH1 0xE1 SHL SWAP13 DUP14 DUP7 MSTORE CALLER PUSH1 0x4 DUP8 ADD MSTORE AND PUSH1 0x24 DUP6 ADD MSTORE PUSH1 0x44 DUP5 ADD MSTORE PUSH1 0x80 PUSH1 0x64 DUP5 ADD MSTORE PUSH1 0x84 DUP4 ADD SWAP1 PUSH2 0x251 JUMP JUMPDEST SUB SWAP4 AND GAS CALL PUSH1 0x0 SWAP2 DUP2 PUSH2 0x143D JUMPI POP PUSH2 0x142F JUMPI POP POP PUSH1 0x0 SWAP1 JUMP JUMPDEST PUSH1 0x1 PUSH1 0x1 PUSH1 0xA0 SHL SUB DUP2 DUP2 AND SWAP2 SWAP1 DUP3 ISZERO PUSH2 0x1F22 JUMPI PUSH2 0x1E5A DUP5 PUSH1 0x0 MSTORE PUSH1 0x2 PUSH1 0x20 MSTORE PUSH1 0x40 PUSH1 0x0 KECCAK256 SWAP1 JUMP JUMPDEST SLOAD AND PUSH2 0x1EDD JUMPI DUP3 PUSH2 0x10D0 SWAP4 PUSH2 0x979 SWAP4 PUSH2 0x1E85 DUP5 PUSH1 0x1 DUP1 PUSH1 0xA0 SHL SUB AND PUSH1 0x0 MSTORE PUSH1 0x3 PUSH1 0x20 MSTORE PUSH1 0x40 PUSH1 0x0 KECCAK256 SWAP1 JUMP JUMPDEST PUSH2 0x1E8F DUP2 SLOAD PUSH2 0x1A0E JUMP JUMPDEST SWAP1 SSTORE PUSH2 0x1EA9 DUP5 PUSH2 0x473 DUP5 PUSH1 0x0 MSTORE PUSH1 0x2 PUSH1 0x20 MSTORE PUSH1 0x40 PUSH1 0x0 KECCAK256 SWAP1 JUMP JUMPDEST PUSH1 0x0 PUSH32 0xDDF252AD1BE2C89B69C2B068FC378DAA952BA7F163C4A11628F55A4DF523B3EF DUP2 DUP1 LOG4 PUSH2 0x1ED7 PUSH2 0x12BA JUMP JUMPDEST SWAP2 PUSH2 0x1D54 JUMP JUMPDEST PUSH1 0x40 MLOAD PUSH3 0x461BCD PUSH1 0xE5 SHL DUP2 MSTORE PUSH1 0x20 PUSH1 0x4 DUP3 ADD MSTORE PUSH1 0x1D PUSH1 0x24 DUP3 ADD MSTORE PUSH32 0x4167656E7452656769737472793A20616C7265616479206D696E746564000000 PUSH1 0x44 DUP3 ADD MSTORE PUSH1 0x64 SWAP1 REVERT JUMPDEST PUSH1 0x40 MLOAD PUSH3 0x461BCD PUSH1 0xE5 SHL DUP2 MSTORE PUSH1 0x20 PUSH1 0x4 DUP3 ADD MSTORE PUSH1 0x1B PUSH1 0x24 DUP3 ADD MSTORE PUSH32 0x4167656E7452656769737472793A206D696E7420746F207A65726F0000000000 PUSH1 0x44 DUP3 ADD MSTORE PUSH1 0x64 SWAP1 REVERT INVALID LOG2 PUSH5 0x6970667358 0x22 SLT KECCAK256 SGT 0x1F PUSH7 0xEC36E10D1C050B TSTORE SUB MUL SWAP9 KECCAK256 PUSH22 0x212AB4041C89F0D280697234F02438A564736F6C6343 STOP ADDMOD XOR STOP CALLER "},"methodIdentifiers":{"approve(address,uint256)":"095ea7b3","balanceOf(address)":"70a08231","deactivateAgent(uint256)":"11ba6b4a","erc8004Registry()":"5c30a8e1","getAgent(uint256)":"2de5aaf7","getAgentsByOwner(address)":"1ab6f888","getApproved(uint256)":"081812fc","getTrustScore(uint256)":"83f3d448","isApprovedForAll(address,address)":"e985e9c5","isValidAgentSignature(uint256,bytes32,bytes)":"4a8930a5","isValidSignature(bytes32,bytes)":"1626ba7e","name()":"06fdde03","owner()":"8da5cb5b","ownerOf(uint256)":"6352211e","registerAgent(string,string,string,string)":"75694ff3","reputationManager()":"6b868afb","safeTransferFrom(address,address,uint256)":"42842e0e","safeTransferFrom(address,address,uint256,bytes)":"b88d4fde","setApprovalForAll(address,bool)":"a22cb465","setERC8004Registry(address)":"6b249af8","setReputationManager(address)":"56a837f4","supportsInterface(bytes4)":"01ffc9a7","symbol()":"95d89b41","tokenURI(uint256)":"c87b56dd","totalAgents()":"c5053712","transferFrom(address,address,uint256)":"23b872dd","updateReputation(uint256,bool,int256)":"95359d6b"}}}}}