{"contracts/AgentRegistry.sol":{"AgentRegistry":{"abi":[{"inputs":[],"stateMutability":"nonpayable","type":"constructor"},{"anonymous":false,"inputs":[{"indexed":true,"internalType":"uint256","name":"agentId","type":"uint256"}],"name":"AgentDeactivated","type":"event"},{"anonymous":false,"inputs":[{"indexed":true,"internalType":"uint256","name":"agentId","type":"uint256"},{"indexed":true,"internalType":"address","name":"owner","type":"address"},{"indexed":false,"internalType":"string","name":"name","type":"string"},{"indexed":false,"internalType":"string","name":"strategy","type":"string"}],"name":"AgentRegistered","type":"event"},{"anonymous":false,"inputs":[{"indexed":true,"internalType":"address","name":"owner","type":"address"},{"indexed":true,"internalType":"address","name":"approved","type":"address"},{"indexed":true,"internalType":"uint256","name":"tokenId","type":"uint256"}],"name":"Approval","type":"event"},{"anonymous":false,"inputs":[{"indexed":true,"internalType":"address","name":"owner","type":"address"},{"indexed":true,"internalType":"address","name":"operator","type":"address"},{"indexed":false,"internalType":"bool","name":"approved","type":"bool"}],"name":"ApprovalForAll","type":"event"},{"anonymous":false,"inputs":[{"indexed":true,"internalType":"address","name":"from","type":"address"},{"indexed":true,"internalType":"address","name":"to","type":"address"},{"indexed":true,"internalType":"uint256","name":"tokenId","type":"uint256"}],"name":"Transfer","type":"event"},{"anonymous":false,"inputs":[{"indexed":true,"internalType":"uint256","name":"agentId","type":"uint256"},{"indexed":false,"internalType":"uint256","name":"newScore","type":"uint256"}],"name":"TrustScoreUpdated","type":"event"},{"inputs":[{"internalType":"address","name":"to","type":"address"},{"internalType":"uint256","name":"tokenId","type":"uint256"}],"name":"approve","outputs":[],"stateMutability":"nonpayable","type":"function"},{"inputs":[{"internalType":"address","name":"_owner","type":"address"}],"name":"balanceOf","outputs":[{"internalType":"uint256","name":"","type":"uint256"}],"stateMutability":"view","type":"function"},{"inputs":[{"internalType":"uint256","name":"agentId","type":"uint256"}],"name":"deactivateAgent","outputs":[],"stateMutability":"nonpayable","type":"function"},{"inputs":[{"internalType":"uint256","name":"agentId","type":"uint256"}],"name":"emergencyDeactivate","outputs":[],"stateMutability":"nonpayable","type":"function"},{"inputs":[],"name":"erc8004Registry","outputs":[{"internalType":"address","name":"","type":"address"}],"stateMutability":"view","type":"function"},{"inputs":[{"internalType":"uint256","name":"agentId","type":"uint256"}],"name":"getAgent","outputs":[{"internalType":"string","name":"agentName","type":"string"},{"internalType":"string","name":"strategy","type":"string"},{"internalType":"address","name":"agentOwner","type":"address"},{"internalType":"uint256","name":"trustScore","type":"uint256"},{"internalType":"bool","name":"active","type":"bool"},{"internalType":"uint256","name":"totalTrades","type":"uint256"},{"internalType":"uint256","name":"profitableTrades","type":"uint256"}],"stateMutability":"view","type":"function"},{"inputs":[{"internalType":"address","name":"agentOwner","type":"address"}],"name":"getAgentsByOwner","outputs":[{"internalType":"uint256[]","name":"","type":"uint256[]"}],"stateMutability":"view","type":"function"},{"inputs":[{"internalType":"uint256","name":"tokenId","type":"uint256"}],"name":"getApproved","outputs":[{"internalType":"address","name":"","type":"address"}],"stateMutability":"view","type":"function"},{"inputs":[{"internalType":"uint256","name":"agentId","type":"uint256"}],"name":"getTrustScore","outputs":[{"internalType":"uint256","name":"","type":"uint256"}],"stateMutability":"view","type":"function"},{"inputs":[{"internalType":"address","name":"_owner","type":"address"},{"internalType":"address","name":"operator","type":"address"}],"name":"isApprovedForAll","outputs":[{"internalType":"bool","name":"","type":"bool"}],"stateMutability":"view","type":"function"},{"inputs":[{"internalType":"uint256","name":"agentId","type":"uint256"},{"internalType":"bytes32","name":"hash","type":"bytes32"},{"internalType":"bytes","name":"signature","type":"bytes"}],"name":"isValidAgentSignature","outputs":[{"internalType":"bool","name":"","type":"bool"}],"stateMutability":"view","type":"function"},{"inputs":[{"internalType":"bytes32","name":"hash","type":"bytes32"},{"internalType":"bytes","name":"signature","type":"bytes"}],"name":"isValidSignature","outputs":[{"internalType":"bytes4","name":"","type":"bytes4"}],"stateMutability":"view","type":"function"},{"inputs":[],"name":"name","outputs":[{"internalType":"string","name":"","type":"string"}],"stateMutability":"view","type":"function"},{"inputs":[],"name":"owner","outputs":[{"internalType":"address","name":"","type":"address"}],"stateMutability":"view","type":"function"},{"inputs":[{"internalType":"uint256","name":"tokenId","type":"uint256"}],"name":"ownerOf","outputs":[{"internalType":"address","name":"","type":"address"}],"stateMutability":"view","type":"function"},{"inputs":[{"internalType":"string","name":"name_","type":"string"},{"internalType":"string","name":"strategy","type":"string"},{"internalType":"string","name":"endpoint","type":"string"},{"internalType":"string","name":"tokenURI_","type":"string"}],"name":"registerAgent","outputs":[{"internalType":"uint256","name":"agentId","type":"uint256"}],"stateMutability":"nonpayable","type":"function"},{"inputs":[],"name":"reputationManager","outputs":[{"internalType":"address","name":"","type":"address"}],"stateMutability":"view","type":"function"},{"inputs":[{"internalType":"address","name":"from","type":"address"},{"internalType":"address","name":"to","type":"address"},{"internalType":"uint256","name":"tokenId","type":"uint256"}],"name":"safeTransferFrom","outputs":[],"stateMutability":"nonpayable","type":"function"},{"inputs":[{"internalType":"address","name":"from","type":"address"},{"internalType":"address","name":"to","type":"address"},{"internalType":"uint256","name":"tokenId","type":"uint256"},{"internalType":"bytes","name":"data","type":"bytes"}],"name":"safeTransferFrom","outputs":[],"stateMutability":"nonpayable","type":"function"},{"inputs":[{"internalType":"address","name":"operator","type":"address"},{"internalType":"bool","name":"approved","type":"bool"}],"name":"setApprovalForAll","outputs":[],"stateMutability":"nonpayable","type":"function"},{"inputs":[{"internalType":"address","name":"registry","type":"address"}],"name":"setERC8004Registry","outputs":[],"stateMutability":"nonpayable","type":"function"},{"inputs":[{"internalType":"address","name":"manager","type":"address"}],"name":"setReputationManager","outputs":[],"stateMutability":"nonpayable","type":"function"},{"inputs":[{"internalType":"bytes4","name":"interfaceId","type":"bytes4"}],"name":"supportsInterface","outputs":[{"internalType":"bool","name":"","type":"bool"}],"stateMutability":"pure","type":"function"},{"inputs":[],"name":"symbol","outputs":[{"internalType":"string","name":"","type":"string"}],"stateMutability":"view","type":"function"},{"inputs":[{"internalType":"uint256","name":"tokenId","type":"uint256"}],"name":"tokenURI","outputs":[{"internalType":"string","name":"","type":"string"}],"stateMutability":"view","type":"function"},{"inputs":[],"name":"totalAgents","outputs":[{"internalType":"uint256","name":"","type":"uint256"}],"stateMutability":"view","type":"function"},{"inputs":[{"internalType":"address","name":"from","type":"address"},{"internalType":"address","name":"to","type":"address"},{"internalType":"uint256","name":"tokenId","type":"uint256"}],"name":"transferFrom","outputs":[],"stateMutability":"nonpayable","type":"function"},{"inputs":[{"internalType":"uint256","name":"agentId","type":"uint256"},{"internalType":"bool","name":"profitable","type":"bool"},{"internalType":"int256","name":"pnlBps","type":"int256"}],"name":"updateReputation","outputs":[],"stateMutability":"nonpayable","type":"function"}],"evm":{"bytecode":{"linkReferences":{},"object":"608060405234620000fb5760018060065560018060a01b03193381600b541617600b553390600a541617600a5560006200003a815462000100565b601f8111620000cc575b507f414954726164696e674167656e7400000000000000000000000000000000001c81558154620000759062000100565b90601f82116200009d575b6008634149544160e01b0183556040516121dd90816200013e8239f35b82815282601f60208320930160051c8301925b838110620000c057505062000080565b828155018390620000b0565b81805282601f60208420920160051c8201915b828110620000ef57505062000044565b838155018390620000df565b600080fd5b90600182811c9216801562000132575b60208310146200011c57565b634e487b7160e01b600052602260045260246000fd5b91607f16916200011056fe6080604052600436101561001257600080fd5b60003560e01c806301ffc9a7146101d757806306fdde03146101d2578063081812fc146101cd578063095ea7b3146101c857806311ba6b4a146101c357806314fbb572146101be5780631626ba7e146101b95780631ab6f888146101b457806323b872dd146101af5780632de5aaf7146101aa57806342842e0e146101a55780634a8930a5146101a057806356a837f41461019b5780635c30a8e1146101965780636352211e146101915780636b249af81461018c5780636b868afb1461018757806370a082311461018257806375694ff31461017d57806383f3d448146101785780638da5cb5b1461017357806395359d6b1461016e57806395d89b4114610169578063a22cb46514610164578063b88d4fde1461015f578063c50537121461015a578063c87b56dd146101555763e985e9c51461015057600080fd5b611097565b611031565b611001565b610f8c565b610ea5565b610dfe565b610d56565b610d1e565b610cef565b610c4f565b610b9c565b610b73565b610b22565b610ae3565b610aba565b610a69565b610a1e565b6109d6565b610966565b6108e8565b61082c565b61079f565b61064d565b61056a565b610416565b61039c565b6102b5565b6101f3565b6001600160e01b03198116036101ee57565b600080fd5b346101ee5760203660031901126101ee576020600435610212816101dc565b63ffffffff60e01b166380ac58cd60e01b8114908115610250575b811561023f575b506040519015158152f35b6301ffc9a760e01b14905038610234565b635b5e139f60e01b8114915061022d565b919082519283825260005b84811061028d575050826000602080949584010152601f8019910116010190565b60208183018101518483018201520161026c565b9060206102b2928181520190610261565b90565b346101ee576000806003193601126103995760405190808054906102d8826110f4565b8085529160209160019182811690811561036c5750600114610315575b61031186610305818803826106fa565b604051918291826102a1565b0390f35b80809550527f290decd9548b62a8d60345a988386fc84ba6bc95484008f6362f93160ef3e5635b8385106103595750505050810160200161030582610311386102f5565b805486860184015293820193810161033c565b90508695506103119693506020925061030594915060ff191682840152151560051b8201019293386102f5565b80fd5b346101ee5760203660031901126101ee576020600435806000526002825260018060a01b03906103d4826040600020541615156111d3565b6000526004825260406000205416604051908152f35b600435906001600160a01b03821682036101ee57565b602435906001600160a01b03821682036101ee57565b346101ee5760403660031901126101ee5761042f6103ea565b60243560008181526002602052604081205490926001600160a01b03808216921690828214610515576104a29082331480156104c9575b61046f9061121e565b610483856000526004602052604060002090565b80546001600160a01b0319166001600160a01b03909216919091179055565b7f8c5be1e5ebec7d5bd14f71427d1e84f3dd0314c0f7b2291e5b200ac8c7c3b9258480a480f35b5061046f61050e610507336104f08760018060a01b03166000526005602052604060002090565b9060018060a01b0316600052602052604060002090565b5460ff1690565b9050610466565b60405162461bcd60e51b815260206004820152602760248201527f4167656e7452656769737472793a20617070726f766520746f2063757272656e6044820152663a1037bbb732b960c91b6064820152608490fd5b346101ee5760203660031901126101ee5760043560008181526007602052604081206001810154919291336001600160a01b039182161490811561063f575b50156105fa57600a6105d391016105c96105c4825460ff1690565b61126a565b805460ff19169055565b7fc2fb7f8575ac3990e70361684edfc4d283931ea9a03dfa28766bf376a3934aa28280a280f35b60405162461bcd60e51b815260206004820152601e60248201527f4167656e7452656769737472793a206e6f74206167656e74206f776e657200006044820152606490fd5b9050600b54163314386105a9565b346101ee5760203660031901126101ee5760043561067660018060a01b03600b541633146112b6565b6000908082526007602052600a6040832001805461069660ff821661126a565b60ff191690557fc2fb7f8575ac3990e70361684edfc4d283931ea9a03dfa28766bf376a3934aa28280a280f35b634e487b7160e01b600052604160045260246000fd5b6020810190811067ffffffffffffffff8211176106f557604052565b6106c3565b90601f8019910116810190811067ffffffffffffffff8211176106f557604052565b60405190610180820182811067ffffffffffffffff8211176106f557604052565b92919267ffffffffffffffff82116106f55760405191610767601f8201601f1916602001846106fa565b8294818452818301116101ee578281602093846000960137010152565b9080601f830112156101ee578160206102b29335910161073d565b346101ee5760403660031901126101ee5760243567ffffffffffffffff81116101ee576107dd6107d56020923690600401610784565b60043561130e565b6040516001600160e01b03199091168152f35b602090602060408183019282815285518094520193019160005b828110610818575050505090565b83518552938101939281019260010161080a565b346101ee576020806003193601126101ee576001600160a01b0361084e6103ea565b1660005260086020526040600020906040519081602084549182815201936000526020600020916000905b82821061089c5761031185610890818903826106fa565b604051918291826107f0565b835486529485019460019384019390910190610879565b60609060031901126101ee576001600160a01b039060043582811681036101ee579160243590811681036101ee579060443590565b346101ee576109116108f9366108b3565b9161090c6109078433611bf1565b61121e565b611d3e565b005b939060c09592610933610941929a9998959a60e0885260e0880190610261565b908682036020880152610261565b6001600160a01b03909816604085015260608401521515608083015260a08201520152565b346101ee5760203660031901126101ee576004356000526007602052604060002060018060a01b0360018201541690610311600682015460ff600a840154166007840154906008850154926109c960036109c26002890161112e565b970161112e565b9660405197889788610913565b346101ee57610911610a196109ea366108b3565b906109f86109078333611bf1565b610a03828285611d3e565b60405192610a10846106d9565b60008452612007565b6113b9565b346101ee5760603660031901126101ee5760443567ffffffffffffffff81116101ee57610a5f610a546020923690600401610784565b602435600435611487565b6040519015158152f35b346101ee5760203660031901126101ee57610a826103ea565b600b546001600160a01b039190610a9c90831633146112b6565b166bffffffffffffffffffffffff60a01b600a541617600a55600080f35b346101ee5760003660031901126101ee57600c546040516001600160a01b039091168152602090f35b346101ee5760203660031901126101ee576004356000526002602052602060018060a01b0360406000205416610b1a8115156111d3565b604051908152f35b346101ee5760203660031901126101ee57610b3b6103ea565b600b546001600160a01b039190610b5590831633146112b6565b166bffffffffffffffffffffffff60a01b600c541617600c55600080f35b346101ee5760003660031901126101ee57600a546040516001600160a01b039091168152602090f35b346101ee5760203660031901126101ee576001600160a01b03610bbd6103ea565b168015610bdc5760005260036020526020604060002054604051908152f35b60405162461bcd60e51b815260206004820152601b60248201527f4167656e7452656769737472793a207a65726f206164647265737300000000006044820152606490fd5b9181601f840112156101ee5782359167ffffffffffffffff83116101ee57602083818601950101116101ee57565b346101ee5760803660031901126101ee5767ffffffffffffffff6004358181116101ee57610c81903690600401610c21565b6024929192358281116101ee57610c9c903690600401610c21565b6044949194358481116101ee57610cb7903690600401610c21565b916064359586116101ee5761031196610cd7610cdf973690600401610c21565b96909561191c565b6040519081529081906020820190565b346101ee5760203660031901126101ee5760043560005260076020526020600660406000200154604051908152f35b346101ee5760003660031901126101ee57600b546040516001600160a01b039091168152602090f35b6024359081151582036101ee57565b346101ee5760603660031901126101ee57610d6f610d47565b600a54336001600160a01b0391821614908115610df0575b5015610d9d576109119060443590600435611b06565b60405162461bcd60e51b815260206004820152602560248201527f4167656e7452656769737472793a206e6f742072657075746174696f6e206d616044820152643730b3b2b960d91b6064820152608490fd5b9050600b5416331438610d87565b346101ee576000806003193601126103995760405190806001805490610e23826110f4565b808652926020926001811690811561036c5750600114610e4d5761031186610305818803826106fa565b9350600184527fb10e2d527612073b26eecdfd717e6a320cf44b4afac2b0732d9fcbe2b7fa0cf65b838510610e925750505050810160200161030582610311386102f5565b8054868601840152938201938101610e75565b346101ee5760403660031901126101ee57610ebe6103ea565b610ec6610d47565b6001600160a01b03821691338314610f485781610f05610f169233600052600560205260406000209060018060a01b0316600052602052604060002090565b9060ff801983541691151516179055565b604051901515815233907f17307eab39ab6107e8899845ad3d59bd9653f200f220920489ca2b5937696c3190602090a3005b606460405162461bcd60e51b815260206004820152602060248201527f4167656e7452656769737472793a20617070726f766520746f2063616c6c65726044820152fd5b346101ee5760803660031901126101ee57610fa56103ea565b610fad610400565b906064359060443567ffffffffffffffff83116101ee5761091193610ffb610fdc610a19953690600401610c21565b610fe96109078633611bf1565b610ff4858588611d3e565b369161073d565b92612007565b346101ee5760003660031901126101ee57600654600019810190811161102c57602090604051908152f35b611647565b346101ee5760203660031901126101ee57600435600081815260026020526040902054611068906001600160a01b031615156111d3565b6000526007602052610311611083600560406000200161112e565b604051918291602083526020830190610261565b346101ee5760403660031901126101ee57602060ff6110e86110b76103ea565b6110bf610400565b6001600160a01b0391821660009081526005865260408082209290931681526020919091522090565b54166040519015158152f35b90600182811c92168015611124575b602083101461110e57565b634e487b7160e01b600052602260045260246000fd5b91607f1691611103565b90604051918260008254611141816110f4565b908184526020946001916001811690816000146111b15750600114611172575b505050611170925003836106fa565b565b600090815285812095935091905b8183106111995750506111709350820101388080611161565b85548884018501529485019487945091830191611180565b9250505061117094925060ff191682840152151560051b820101388080611161565b156111da57565b606460405162461bcd60e51b815260206004820152602060248201527f4167656e7452656769737472793a206e6f6e6578697374656e7420746f6b656e6044820152fd5b1561122557565b60405162461bcd60e51b815260206004820152601d60248201527f4167656e7452656769737472793a206e6f7420617574686f72697a65640000006044820152606490fd5b1561127157565b60405162461bcd60e51b815260206004820152601f60248201527f4167656e7452656769737472793a20616c726561647920696e616374697665006044820152606490fd5b156112bd57565b60405162461bcd60e51b815260206004820152601860248201527f4167656e7452656769737472793a206e6f74206f776e657200000000000000006044820152606490fd5b6040513d6000823e3d90fd5b906041815114611328575b506001600160e01b0319919050565b6020818101516040808401516060948501518251968752600090811a8786015291860192909252928401528180529160809060015afa156113a1576000516001600160a01b039081168015159182611393575b5050611388573880611319565b630b135d3f60e11b90565b600b5416149050388061137b565b611302565b604051906113b3826106d9565b60008252565b156113c057565b60405162461bcd60e51b815260206004820152602160248201527f4167656e7452656769737472793a206e6f7420455243373231526563656976656044820152603960f91b6064820152608490fd5b1561141657565b60405162461bcd60e51b815260206004820152601e60248201527f4167656e7452656769737472793a206167656e74206e6f7420666f756e6400006044820152606490fd5b908160209103126101ee57516102b2816101dc565b6040906102b2939281528160208201520190610261565b60016114a36114b1929493946000526007602052604060002090565b01546001600160a01b031690565b6001600160a01b038116906114c782151561140f565b604183511461155a575b3b6114de57505050600090565b611502916020916040518080958194630b135d3f60e11b9889845260048401611470565b03915afa60009181611529575b5061151b575050600090565b6001600160e01b0319161490565b61154c91925060203d602011611553575b61154481836106fa565b81019061145b565b903861150f565b503d61153a565b60208381015160408086015160608088015183518a8152600091821a818801529384019490945282015281805260809060015afa156113a15760005182906001600160a01b0316036114d1575b50505050600190565b156115b757565b60405162461bcd60e51b815260206004820152601c60248201527f4167656e7452656769737472793a206e616d65207265717569726564000000006044820152606490fd5b1561160357565b606460405162461bcd60e51b815260206004820152602060248201527f4167656e7452656769737472793a2073747261746567792072657175697265646044820152fd5b634e487b7160e01b600052601160045260246000fd5b600019811461102c5760010190565b90601f811161167a57505050565b6000916000526020600020906020601f850160051c830194106116b8575b601f0160051c01915b8281106116ad57505050565b8181556001016116a1565b9092508290611698565b919091825167ffffffffffffffff81116106f5576116ea816116e484546110f4565b8461166c565b602080601f831160011461172d5750819061171e939495600092611722575b50508160011b916000199060031b1c19161790565b9055565b015190503880611709565b90601f1983169561174385600052602060002090565b926000905b88821061178057505083600195969710611767575b505050811b019055565b015160001960f88460031b161c1916905538808061175d565b80600185968294968601518155019501930190611748565b8151815560208201516001820180546001600160a01b0319166001600160a01b0390921691909117905590600b90610160906117db6040820151600286016116c2565b6117ec6060820151600386016116c2565b6117fd6080820151600486016116c2565b61180e60a0820151600586016116c2565b60c0810151600685015560e081015160078501556101008101516008850155610120810151600985015561185e611849610140830151151590565b600a86019060ff801983541691151516179055565b0151910155565b805482101561187d5760005260206000200190600090565b634e487b7160e01b600052603260045260246000fd5b90815491680100000000000000008310156106f557826118bb91600161117095018155611865565b90919082549060031b91821b91600019901b1916179055565b908060209392818452848401376000828201840152601f01601f1916010190565b929061190e906102b295936040865260408601916118d4565b9260208185039101526118d4565b9192939796949095861515611930906115b0565b61193b8515156115fc565b600654956119488761165d565b600655869961195561071c565b8881523360208201529361196a368b8861073d565b604086015261197a36898961073d565b6060860152369061198a9261073d565b6080840152369061199a9261073d565b60a0820152603260c0820152600060e0820181905261010082018190526101208201526001610140820152426101608201526119e0856000526007602052604060002090565b906119ea91611798565b3360008181526008602081815260408084208054600984528286208b8752845291852091909155939092529052611a22908590611893565b611a2c8433612073565b6040519283923396611a3e93856118f5565b037f1fa075d34b5040b9bc683d1cc54ae270f345511dd00e1b9f68e82fd47b16f52491a3565b15611a6b57565b60405162461bcd60e51b815260206004820152601f60248201527f4167656e7452656769737472793a206167656e74206e6f7420616374697665006044820152606490fd5b9190916000838201938412911290801582169115161761102c57565b60011981019190821161102c57565b60001981019190821161102c57565b906002820180921161102c57565b906001820180921161102c57565b916006611bb6917f20d456995c74d5114f87879b10c5214b9c28e11ea422eeb922cc2e755095669f93611b43866000526007602052604060002090565b91611b5a611b55600a85015460ff1690565b611a64565b60078301611b68815461165d565b9055611b7960098401918254611ab0565b905515611bca5760088101611b8e815461165d565b9055808201805460628110611bbb57506064905b555b01546040519081529081906020820190565b0390a2565b611bc490611aea565b90611ba2565b808201805460028111611be257506000905b55611ba4565b611beb90611acc565b90611bdc565b90600052600260205260018060a01b03908160406000205416828216818114938415611c50575b50508215611c2557505090565b60009081526005602090815260408083206001600160a01b0390941683529290522060ff9150541690565b6004602052604060002054161492503880611c18565b15611c6d57565b60405162461bcd60e51b815260206004820152601a60248201527f4167656e7452656769737472793a2077726f6e67206f776e65720000000000006044820152606490fd5b15611cb957565b60405162461bcd60e51b815260206004820152601f60248201527f4167656e7452656769737472793a207472616e7366657220746f207a65726f006044820152606490fd5b8054908115611d285760001991820191611d188383611865565b909182549160031b1b1916905555565b634e487b7160e01b600052603160045260246000fd5b90611f20611d8491611ea2611d6d611d60876000526002602052604060002090565b546001600160a01b031690565b6001600160a01b0386811695909182168614611c66565b821694611d92861515611cb2565b611db9611da9886000526004602052604060002090565b80546001600160a01b0319169055565b6001600160a01b03811660009081526008602090815260408083206009909252909120611e119190611df7908a905b90600052602052604060002090565b54611e028254611adb565b808203611f47575b5050611cfe565b6001600160a01b0381166000908152600960205260408120611e34908990611de8565b556001600160a01b0383166000908152600860209081526040808320546009909252909120611e64908990611de8565b556001600160a01b0383166000908152600860205260409020611e88908890611893565b6001600160a01b0316600090815260036020526040902090565b611eac8154611adb565b90556001600160a01b0381166000908152600360205260409020611ed08154611af8565b9055611eea81610483876000526002602052604060002090565b6001611f00866000526007602052604060002090565b0180546001600160a01b0319166001600160a01b03909216919091179055565b7fddf252ad1be2c89b69c2b068fc378daa952ba7f163c4a11628f55a4df523b3ef600080a4565b611f61611f57611f8c9285611865565b90549060031b1c90565b611f6f816118bb8587611865565b6001600160a01b0386166000908152600960205260409020611de8565b553880611e0a565b919091803b15611fff57611fde602091600093604051948580948193630a85bd0160e11b998a84523360048501528460248501526044840152608060648401526084830190610261565b03926001600160a01b03165af160009181611529575061151b575050600090565b505050600190565b92919091823b156115a75761205a92602092600060018060a01b0360405180978196829584630a85bd0160e11b9c8d86523360048701521660248501526044840152608060648401526084830190610261565b0393165af160009181611529575061151b575050600090565b6001600160a01b03818116919082156121625761209a846000526002602052604060002090565b541661211d578261117093610a19936120c58460018060a01b03166000526003602052604060002090565b6120cf8154611af8565b90556120e984610483846000526002602052604060002090565b60007fddf252ad1be2c89b69c2b068fc378daa952ba7f163c4a11628f55a4df523b3ef8180a46121176113a6565b91611f94565b60405162461bcd60e51b815260206004820152601d60248201527f4167656e7452656769737472793a20616c7265616479206d696e7465640000006044820152606490fd5b60405162461bcd60e51b815260206004820152601b60248201527f4167656e7452656769737472793a206d696e7420746f207a65726f00000000006044820152606490fdfea2646970667358221220222103031523aaba83e23aee60dab3652cb30aa3642dfad946f3c7fc69be5dcc64736f6c63430008180033","opcodes":"PUSH1 0x80 PUSH1 0x40 MSTORE CALLVALUE PUSH3 0xFB JUMPI PUSH1 0x1 DUP1 PUSH1 0x6 SSTORE PUSH1 0x1 DUP1 PUSH1 0xA0 SHL SUB NOT CALLER DUP2 PUSH1 0xB SLOAD AND OR PUSH1 0xB SSTORE CALLER SWAP1 PUSH1 0xA SLOAD AND OR PUSH1 0xA SSTORE PUSH1 0x0 PUSH3 0x3A DUP2 SLOAD PUSH3 0x100 JUMP JUMPDEST PUSH1 0x1F DUP2 GT PUSH3 0xCC JUMPI JUMPDEST POP PUSH32 0x414954726164696E674167656E7400000000000000000000000000000000001C DUP2 SSTORE DUP2 SLOAD PUSH3 0x75 SWAP1 PUSH3 0x100 JUMP JUMPDEST SWAP1 PUSH1 0x1F DUP3 GT PUSH3 0x9D JUMPI JUMPDEST PUSH1 0x8 PUSH4 0x41495441 PUSH1 0xE0 SHL ADD DUP4 SSTORE PUSH1 0x40 MLOAD PUSH2 0x21DD SWAP1 DUP2 PUSH3 0x13E DUP3 CODECOPY RETURN JUMPDEST DUP3 DUP2 MSTORE DUP3 PUSH1 0x1F PUSH1 0x20 DUP4 KECCAK256 SWAP4 ADD PUSH1 0x5 SHR DUP4 ADD SWAP3 JUMPDEST DUP4 DUP2 LT PUSH3 0xC0 JUMPI POP POP PUSH3 0x80 JUMP JUMPDEST DUP3 DUP2 SSTORE ADD DUP4 SWAP1 PUSH3 0xB0 JUMP JUMPDEST DUP2 DUP1 MSTORE DUP3 PUSH1 0x1F PUSH1 0x20 DUP5 KECCAK256 SWAP3 ADD PUSH1 0x5 SHR DUP3 ADD SWAP2 JUMPDEST DUP3 DUP2 LT PUSH3 0xEF JUMPI POP POP PUSH3 0x44 JUMP JUMPDEST DUP4 DUP2 SSTORE ADD DUP4 SWAP1 PUSH3 0xDF JUMP JUMPDEST PUSH1 0x0 DUP1 REVERT JUMPDEST SWAP1 PUSH1 0x1 DUP3 DUP2 SHR SWAP3 AND DUP1 ISZERO PUSH3 0x132 JUMPI JUMPDEST PUSH1 0x20 DUP4 LT EQ PUSH3 0x11C JUMPI JUMP JUMPDEST PUSH4 0x4E487B71 PUSH1 0xE0 SHL PUSH1 0x0 MSTORE PUSH1 0x22 PUSH1 0x4 MSTORE PUSH1 0x24 PUSH1 0x0 REVERT JUMPDEST SWAP2 PUSH1 0x7F AND SWAP2 PUSH3 0x110 JUMP INVALID PUSH1 0x80 PUSH1 0x40 MSTORE PUSH1 0x4 CALLDATASIZE LT ISZERO PUSH2 0x12 JUMPI PUSH1 0x0 DUP1 REVERT JUMPDEST PUSH1 0x0 CALLDATALOAD PUSH1 0xE0 SHR DUP1 PUSH4 0x1FFC9A7 EQ PUSH2 0x1D7 JUMPI DUP1 PUSH4 0x6FDDE03 EQ PUSH2 0x1D2 JUMPI DUP1 PUSH4 0x81812FC EQ PUSH2 0x1CD JUMPI DUP1 PUSH4 0x95EA7B3 EQ PUSH2 0x1C8 JUMPI DUP1 PUSH4 0x11BA6B4A EQ PUSH2 0x1C3 JUMPI DUP1 PUSH4 0x14FBB572 EQ PUSH2 0x1BE JUMPI DUP1 PUSH4 0x1626BA7E EQ PUSH2 0x1B9 JUMPI DUP1 PUSH4 0x1AB6F888 EQ PUSH2 0x1B4 JUMPI DUP1 PUSH4 0x23B872DD EQ PUSH2 0x1AF JUMPI DUP1 PUSH4 0x2DE5AAF7 EQ PUSH2 0x1AA JUMPI DUP1 PUSH4 0x42842E0E EQ PUSH2 0x1A5 JUMPI DUP1 PUSH4 0x4A8930A5 EQ PUSH2 0x1A0 JUMPI DUP1 PUSH4 0x56A837F4 EQ PUSH2 0x19B JUMPI DUP1 PUSH4 0x5C30A8E1 EQ PUSH2 0x196 JUMPI DUP1 PUSH4 0x6352211E EQ PUSH2 0x191 JUMPI DUP1 PUSH4 0x6B249AF8 EQ PUSH2 0x18C JUMPI DUP1 PUSH4 0x6B868AFB EQ PUSH2 0x187 JUMPI DUP1 PUSH4 0x70A08231 EQ PUSH2 0x182 JUMPI DUP1 PUSH4 0x75694FF3 EQ PUSH2 0x17D JUMPI DUP1 PUSH4 0x83F3D448 EQ PUSH2 0x178 JUMPI DUP1 PUSH4 0x8DA5CB5B EQ PUSH2 0x173 JUMPI DUP1 PUSH4 0x95359D6B EQ PUSH2 0x16E JUMPI DUP1 PUSH4 0x95D89B41 EQ PUSH2 0x169 JUMPI DUP1 PUSH4 0xA22CB465 EQ PUSH2 0x164 JUMPI DUP1 PUSH4 0xB88D4FDE EQ PUSH2 0x15F JUMPI DUP1 PUSH4 0xC5053712 EQ PUSH2 0x15A JUMPI DUP1 PUSH4 0xC87B56DD EQ PUSH2 0x155 JUMPI PUSH4 0xE985E9C5 EQ PUSH2 0x150 JUMPI PUSH1 0x0 DUP1 REVERT JUMPDEST PUSH2 0x1097 JUMP JUMPDEST PUSH2 0x1031 JUMP JUMPDEST PUSH2 0x1001 JUMP JUMPDEST PUSH2 0xF8C JUMP JUMPDEST PUSH2 0xEA5 JUMP JUMPDEST PUSH2 0xDFE JUMP JUMPDEST PUSH2 0xD56 JUMP JUMPDEST PUSH2 0xD1E JUMP JUMPDEST PUSH2 0xCEF JUMP JUMPDEST PUSH2 0xC4F JUMP JUMPDEST PUSH2 0xB9C JUMP JUMPDEST PUSH2 0xB73 JUMP JUMPDEST PUSH2 0xB22 JUMP JUMPDEST PUSH2 0xAE3 JUMP JUMPDEST PUSH2 0xABA JUMP JUMPDEST PUSH2 0xA69 JUMP JUMPDEST PUSH2 0xA1E JUMP JUMPDEST PUSH2 0x9D6 JUMP JUMPDEST PUSH2 0x966 JUMP JUMPDEST PUSH2 0x8E8 JUMP JUMPDEST PUSH2 0x82C JUMP JUMPDEST PUSH2 0x79F JUMP JUMPDEST PUSH2 0x64D JUMP JUMPDEST PUSH2 0x56A JUMP JUMPDEST PUSH2 0x416 JUMP JUMPDEST PUSH2 0x39C JUMP JUMPDEST PUSH2 0x2B5 JUMP JUMPDEST PUSH2 0x1F3 JUMP JUMPDEST PUSH1 0x1 PUSH1 0x1 PUSH1 0xE0 SHL SUB NOT DUP2 AND SUB PUSH2 0x1EE JUMPI JUMP JUMPDEST PUSH1 0x0 DUP1 REVERT JUMPDEST CALLVALUE PUSH2 0x1EE JUMPI PUSH1 0x20 CALLDATASIZE PUSH1 0x3 NOT ADD SLT PUSH2 0x1EE JUMPI PUSH1 0x20 PUSH1 0x4 CALLDATALOAD PUSH2 0x212 DUP2 PUSH2 0x1DC JUMP JUMPDEST PUSH4 0xFFFFFFFF PUSH1 0xE0 SHL AND PUSH4 0x80AC58CD PUSH1 0xE0 SHL DUP2 EQ SWAP1 DUP2 ISZERO PUSH2 0x250 JUMPI JUMPDEST DUP2 ISZERO PUSH2 0x23F JUMPI JUMPDEST POP PUSH1 0x40 MLOAD SWAP1 ISZERO ISZERO DUP2 MSTORE RETURN JUMPDEST PUSH4 0x1FFC9A7 PUSH1 0xE0 SHL EQ SWAP1 POP CODESIZE PUSH2 0x234 JUMP JUMPDEST PUSH4 0x5B5E139F PUSH1 0xE0 SHL DUP2 EQ SWAP2 POP PUSH2 0x22D JUMP JUMPDEST SWAP2 SWAP1 DUP3 MLOAD SWAP3 DUP4 DUP3 MSTORE PUSH1 0x0 JUMPDEST DUP5 DUP2 LT PUSH2 0x28D JUMPI POP POP DUP3 PUSH1 0x0 PUSH1 0x20 DUP1 SWAP5 SWAP6 DUP5 ADD ADD MSTORE PUSH1 0x1F DUP1 NOT SWAP2 ADD AND ADD ADD SWAP1 JUMP JUMPDEST PUSH1 0x20 DUP2 DUP4 ADD DUP2 ADD MLOAD DUP5 DUP4 ADD DUP3 ADD MSTORE ADD PUSH2 0x26C JUMP JUMPDEST SWAP1 PUSH1 0x20 PUSH2 0x2B2 SWAP3 DUP2 DUP2 MSTORE ADD SWAP1 PUSH2 0x261 JUMP JUMPDEST SWAP1 JUMP JUMPDEST CALLVALUE PUSH2 0x1EE JUMPI PUSH1 0x0 DUP1 PUSH1 0x3 NOT CALLDATASIZE ADD SLT PUSH2 0x399 JUMPI PUSH1 0x40 MLOAD SWAP1 DUP1 DUP1 SLOAD SWAP1 PUSH2 0x2D8 DUP3 PUSH2 0x10F4 JUMP JUMPDEST DUP1 DUP6 MSTORE SWAP2 PUSH1 0x20 SWAP2 PUSH1 0x1 SWAP2 DUP3 DUP2 AND SWAP1 DUP2 ISZERO PUSH2 0x36C JUMPI POP PUSH1 0x1 EQ PUSH2 0x315 JUMPI JUMPDEST PUSH2 0x311 DUP7 PUSH2 0x305 DUP2 DUP9 SUB DUP3 PUSH2 0x6FA JUMP JUMPDEST PUSH1 0x40 MLOAD SWAP2 DUP3 SWAP2 DUP3 PUSH2 0x2A1 JUMP JUMPDEST SUB SWAP1 RETURN JUMPDEST DUP1 DUP1 SWAP6 POP MSTORE PUSH32 0x290DECD9548B62A8D60345A988386FC84BA6BC95484008F6362F93160EF3E563 JUMPDEST DUP4 DUP6 LT PUSH2 0x359 JUMPI POP POP POP POP DUP2 ADD PUSH1 0x20 ADD PUSH2 0x305 DUP3 PUSH2 0x311 CODESIZE PUSH2 0x2F5 JUMP JUMPDEST DUP1 SLOAD DUP7 DUP7 ADD DUP5 ADD MSTORE SWAP4 DUP3 ADD SWAP4 DUP2 ADD PUSH2 0x33C JUMP JUMPDEST SWAP1 POP DUP7 SWAP6 POP PUSH2 0x311 SWAP7 SWAP4 POP PUSH1 0x20 SWAP3 POP PUSH2 0x305 SWAP5 SWAP2 POP PUSH1 0xFF NOT AND DUP3 DUP5 ADD MSTORE ISZERO ISZERO PUSH1 0x5 SHL DUP3 ADD ADD SWAP3 SWAP4 CODESIZE PUSH2 0x2F5 JUMP JUMPDEST DUP1 REVERT JUMPDEST CALLVALUE PUSH2 0x1EE JUMPI PUSH1 0x20 CALLDATASIZE PUSH1 0x3 NOT ADD SLT PUSH2 0x1EE JUMPI PUSH1 0x20 PUSH1 0x4 CALLDATALOAD DUP1 PUSH1 0x0 MSTORE PUSH1 0x2 DUP3 MSTORE PUSH1 0x1 DUP1 PUSH1 0xA0 SHL SUB SWAP1 PUSH2 0x3D4 DUP3 PUSH1 0x40 PUSH1 0x0 KECCAK256 SLOAD AND ISZERO ISZERO PUSH2 0x11D3 JUMP JUMPDEST PUSH1 0x0 MSTORE PUSH1 0x4 DUP3 MSTORE PUSH1 0x40 PUSH1 0x0 KECCAK256 SLOAD AND PUSH1 0x40 MLOAD SWAP1 DUP2 MSTORE RETURN JUMPDEST PUSH1 0x4 CALLDATALOAD SWAP1 PUSH1 0x1 PUSH1 0x1 PUSH1 0xA0 SHL SUB DUP3 AND DUP3 SUB PUSH2 0x1EE JUMPI JUMP JUMPDEST PUSH1 0x24 CALLDATALOAD SWAP1 PUSH1 0x1 PUSH1 0x1 PUSH1 0xA0 SHL SUB DUP3 AND DUP3 SUB PUSH2 0x1EE JUMPI JUMP JUMPDEST CALLVALUE PUSH2 0x1EE JUMPI PUSH1 0x40 CALLDATASIZE PUSH1 0x3 NOT ADD SLT PUSH2 0x1EE JUMPI PUSH2 0x42F PUSH2 0x3EA JUMP JUMPDEST PUSH1 0x24 CALLDATALOAD PUSH1 0x0 DUP2 DUP2 MSTORE PUSH1 0x2 PUSH1 0x20 MSTORE PUSH1 0x40 DUP2 KECCAK256 SLOAD SWAP1 SWAP3 PUSH1 0x1 PUSH1 0x1 PUSH1 0xA0 SHL SUB DUP1 DUP3 AND SWAP3 AND SWAP1 DUP3 DUP3 EQ PUSH2 0x515 JUMPI PUSH2 0x4A2 SWAP1 DUP3 CALLER EQ DUP1 ISZERO PUSH2 0x4C9 JUMPI JUMPDEST PUSH2 0x46F SWAP1 PUSH2 0x121E JUMP JUMPDEST PUSH2 0x483 DUP6 PUSH1 0x0 MSTORE PUSH1 0x4 PUSH1 0x20 MSTORE PUSH1 0x40 PUSH1 0x0 KECCAK256 SWAP1 JUMP JUMPDEST DUP1 SLOAD PUSH1 0x1 PUSH1 0x1 PUSH1 0xA0 SHL SUB NOT AND PUSH1 0x1 PUSH1 0x1 PUSH1 0xA0 SHL SUB SWAP1 SWAP3 AND SWAP2 SWAP1 SWAP2 OR SWAP1 SSTORE JUMP JUMPDEST PUSH32 0x8C5BE1E5EBEC7D5BD14F71427D1E84F3DD0314C0F7B2291E5B200AC8C7C3B925 DUP5 DUP1 LOG4 DUP1 RETURN JUMPDEST POP PUSH2 0x46F PUSH2 0x50E PUSH2 0x507 CALLER PUSH2 0x4F0 DUP8 PUSH1 0x1 DUP1 PUSH1 0xA0 SHL SUB AND PUSH1 0x0 MSTORE PUSH1 0x5 PUSH1 0x20 MSTORE PUSH1 0x40 PUSH1 0x0 KECCAK256 SWAP1 JUMP JUMPDEST SWAP1 PUSH1 0x1 DUP1 PUSH1 0xA0 SHL SUB AND PUSH1 0x0 MSTORE PUSH1 0x20 MSTORE PUSH1 0x40 PUSH1 0x0 KECCAK256 SWAP1 JUMP JUMPDEST SLOAD PUSH1 0xFF AND SWAP1 JUMP JUMPDEST SWAP1 POP PUSH2 0x466 JUMP JUMPDEST PUSH1 0x40 MLOAD PUSH3 0x461BCD PUSH1 0xE5 SHL DUP2 MSTORE PUSH1 0x20 PUSH1 0x4 DUP3 ADD MSTORE PUSH1 0x27 PUSH1 0x24 DUP3 ADD MSTORE PUSH32 0x4167656E7452656769737472793A20617070726F766520746F2063757272656E PUSH1 0x44 DUP3 ADD MSTORE PUSH7 0x3A1037BBB732B9 PUSH1 0xC9 SHL PUSH1 0x64 DUP3 ADD MSTORE PUSH1 0x84 SWAP1 REVERT JUMPDEST CALLVALUE PUSH2 0x1EE JUMPI PUSH1 0x20 CALLDATASIZE PUSH1 0x3 NOT ADD SLT PUSH2 0x1EE JUMPI PUSH1 0x4 CALLDATALOAD PUSH1 0x0 DUP2 DUP2 MSTORE PUSH1 0x7 PUSH1 0x20 MSTORE PUSH1 0x40 DUP2 KECCAK256 PUSH1 0x1 DUP2 ADD SLOAD SWAP2 SWAP3 SWAP2 CALLER PUSH1 0x1 PUSH1 0x1 PUSH1 0xA0 SHL SUB SWAP2 DUP3 AND EQ SWAP1 DUP2 ISZERO PUSH2 0x63F JUMPI JUMPDEST POP ISZERO PUSH2 0x5FA JUMPI PUSH1 0xA PUSH2 0x5D3 SWAP2 ADD PUSH2 0x5C9 PUSH2 0x5C4 DUP3 SLOAD PUSH1 0xFF AND SWAP1 JUMP JUMPDEST PUSH2 0x126A JUMP JUMPDEST DUP1 SLOAD PUSH1 0xFF NOT AND SWAP1 SSTORE JUMP JUMPDEST PUSH32 0xC2FB7F8575AC3990E70361684EDFC4D283931EA9A03DFA28766BF376A3934AA2 DUP3 DUP1 LOG2 DUP1 RETURN JUMPDEST PUSH1 0x40 MLOAD PUSH3 0x461BCD PUSH1 0xE5 SHL DUP2 MSTORE PUSH1 0x20 PUSH1 0x4 DUP3 ADD MSTORE PUSH1 0x1E PUSH1 0x24 DUP3 ADD MSTORE PUSH32 0x4167656E7452656769737472793A206E6F74206167656E74206F776E65720000 PUSH1 0x44 DUP3 ADD MSTORE PUSH1 0x64 SWAP1 REVERT JUMPDEST SWAP1 POP PUSH1 0xB SLOAD AND CALLER EQ CODESIZE PUSH2 0x5A9 JUMP JUMPDEST CALLVALUE PUSH2 0x1EE JUMPI PUSH1 0x20 CALLDATASIZE PUSH1 0x3 NOT ADD SLT PUSH2 0x1EE JUMPI PUSH1 0x4 CALLDATALOAD PUSH2 0x676 PUSH1 0x1 DUP1 PUSH1 0xA0 SHL SUB PUSH1 0xB SLOAD AND CALLER EQ PUSH2 0x12B6 JUMP JUMPDEST PUSH1 0x0 SWAP1 DUP1 DUP3 MSTORE PUSH1 0x7 PUSH1 0x20 MSTORE PUSH1 0xA PUSH1 0x40 DUP4 KECCAK256 ADD DUP1 SLOAD PUSH2 0x696 PUSH1 0xFF DUP3 AND PUSH2 0x126A JUMP JUMPDEST PUSH1 0xFF NOT AND SWAP1 SSTORE PUSH32 0xC2FB7F8575AC3990E70361684EDFC4D283931EA9A03DFA28766BF376A3934AA2 DUP3 DUP1 LOG2 DUP1 RETURN JUMPDEST PUSH4 0x4E487B71 PUSH1 0xE0 SHL PUSH1 0x0 MSTORE PUSH1 0x41 PUSH1 0x4 MSTORE PUSH1 0x24 PUSH1 0x0 REVERT JUMPDEST PUSH1 0x20 DUP2 ADD SWAP1 DUP2 LT PUSH8 0xFFFFFFFFFFFFFFFF DUP3 GT OR PUSH2 0x6F5 JUMPI PUSH1 0x40 MSTORE JUMP JUMPDEST PUSH2 0x6C3 JUMP JUMPDEST SWAP1 PUSH1 0x1F DUP1 NOT SWAP2 ADD AND DUP2 ADD SWAP1 DUP2 LT PUSH8 0xFFFFFFFFFFFFFFFF DUP3 GT OR PUSH2 0x6F5 JUMPI PUSH1 0x40 MSTORE JUMP JUMPDEST PUSH1 0x40 MLOAD SWAP1 PUSH2 0x180 DUP3 ADD DUP3 DUP2 LT PUSH8 0xFFFFFFFFFFFFFFFF DUP3 GT OR PUSH2 0x6F5 JUMPI PUSH1 0x40 MSTORE JUMP JUMPDEST SWAP3 SWAP2 SWAP3 PUSH8 0xFFFFFFFFFFFFFFFF DUP3 GT PUSH2 0x6F5 JUMPI PUSH1 0x40 MLOAD SWAP2 PUSH2 0x767 PUSH1 0x1F DUP3 ADD PUSH1 0x1F NOT AND PUSH1 0x20 ADD DUP5 PUSH2 0x6FA JUMP JUMPDEST DUP3 SWAP5 DUP2 DUP5 MSTORE DUP2 DUP4 ADD GT PUSH2 0x1EE JUMPI DUP3 DUP2 PUSH1 0x20 SWAP4 DUP5 PUSH1 0x0 SWAP7 ADD CALLDATACOPY ADD ADD MSTORE JUMP JUMPDEST SWAP1 DUP1 PUSH1 0x1F DUP4 ADD SLT ISZERO PUSH2 0x1EE JUMPI DUP2 PUSH1 0x20 PUSH2 0x2B2 SWAP4 CALLDATALOAD SWAP2 ADD PUSH2 0x73D JUMP JUMPDEST CALLVALUE PUSH2 0x1EE JUMPI PUSH1 0x40 CALLDATASIZE PUSH1 0x3 NOT ADD SLT PUSH2 0x1EE JUMPI PUSH1 0x24 CALLDATALOAD PUSH8 0xFFFFFFFFFFFFFFFF DUP2 GT PUSH2 0x1EE JUMPI PUSH2 0x7DD PUSH2 0x7D5 PUSH1 0x20 SWAP3 CALLDATASIZE SWAP1 PUSH1 0x4 ADD PUSH2 0x784 JUMP JUMPDEST PUSH1 0x4 CALLDATALOAD PUSH2 0x130E JUMP JUMPDEST PUSH1 0x40 MLOAD PUSH1 0x1 PUSH1 0x1 PUSH1 0xE0 SHL SUB NOT SWAP1 SWAP2 AND DUP2 MSTORE RETURN JUMPDEST PUSH1 0x20 SWAP1 PUSH1 0x20 PUSH1 0x40 DUP2 DUP4 ADD SWAP3 DUP3 DUP2 MSTORE DUP6 MLOAD DUP1 SWAP5 MSTORE ADD SWAP4 ADD SWAP2 PUSH1 0x0 JUMPDEST DUP3 DUP2 LT PUSH2 0x818 JUMPI POP POP POP POP SWAP1 JUMP JUMPDEST DUP4 MLOAD DUP6 MSTORE SWAP4 DUP2 ADD SWAP4 SWAP3 DUP2 ADD SWAP3 PUSH1 0x1 ADD PUSH2 0x80A JUMP JUMPDEST CALLVALUE PUSH2 0x1EE JUMPI PUSH1 0x20 DUP1 PUSH1 0x3 NOT CALLDATASIZE ADD SLT PUSH2 0x1EE JUMPI PUSH1 0x1 PUSH1 0x1 PUSH1 0xA0 SHL SUB PUSH2 0x84E PUSH2 0x3EA JUMP JUMPDEST AND PUSH1 0x0 MSTORE PUSH1 0x8 PUSH1 0x20 MSTORE PUSH1 0x40 PUSH1 0x0 KECCAK256 SWAP1 PUSH1 0x40 MLOAD SWAP1 DUP2 PUSH1 0x20 DUP5 SLOAD SWAP2 DUP3 DUP2 MSTORE ADD SWAP4 PUSH1 0x0 MSTORE PUSH1 0x20 PUSH1 0x0 KECCAK256 SWAP2 PUSH1 0x0 SWAP1 JUMPDEST DUP3 DUP3 LT PUSH2 0x89C JUMPI PUSH2 0x311 DUP6 PUSH2 0x890 DUP2 DUP10 SUB DUP3 PUSH2 0x6FA JUMP JUMPDEST PUSH1 0x40 MLOAD SWAP2 DUP3 SWAP2 DUP3 PUSH2 0x7F0 JUMP JUMPDEST DUP4 SLOAD DUP7 MSTORE SWAP5 DUP6 ADD SWAP5 PUSH1 0x1 SWAP4 DUP5 ADD SWAP4 SWAP1 SWAP2 ADD SWAP1 PUSH2 0x879 JUMP JUMPDEST PUSH1 0x60 SWAP1 PUSH1 0x3 NOT ADD SLT PUSH2 0x1EE JUMPI PUSH1 0x1 PUSH1 0x1 PUSH1 0xA0 SHL SUB SWAP1 PUSH1 0x4 CALLDATALOAD DUP3 DUP2 AND DUP2 SUB PUSH2 0x1EE JUMPI SWAP2 PUSH1 0x24 CALLDATALOAD SWAP1 DUP2 AND DUP2 SUB PUSH2 0x1EE JUMPI SWAP1 PUSH1 0x44 CALLDATALOAD SWAP1 JUMP JUMPDEST CALLVALUE PUSH2 0x1EE JUMPI PUSH2 0x911 PUSH2 0x8F9 CALLDATASIZE PUSH2 0x8B3 JUMP JUMPDEST SWAP2 PUSH2 0x90C PUSH2 0x907 DUP5 CALLER PUSH2 0x1BF1 JUMP JUMPDEST PUSH2 0x121E JUMP JUMPDEST PUSH2 0x1D3E JUMP JUMPDEST STOP JUMPDEST SWAP4 SWAP1 PUSH1 0xC0 SWAP6 SWAP3 PUSH2 0x933 PUSH2 0x941 SWAP3 SWAP11 SWAP10 SWAP9 SWAP6 SWAP11 PUSH1 0xE0 DUP9 MSTORE PUSH1 0xE0 DUP9 ADD SWAP1 PUSH2 0x261 JUMP JUMPDEST SWAP1 DUP7 DUP3 SUB PUSH1 0x20 DUP9 ADD MSTORE PUSH2 0x261 JUMP JUMPDEST PUSH1 0x1 PUSH1 0x1 PUSH1 0xA0 SHL SUB SWAP1 SWAP9 AND PUSH1 0x40 DUP6 ADD MSTORE PUSH1 0x60 DUP5 ADD MSTORE ISZERO ISZERO PUSH1 0x80 DUP4 ADD MSTORE PUSH1 0xA0 DUP3 ADD MSTORE ADD MSTORE JUMP JUMPDEST CALLVALUE PUSH2 0x1EE JUMPI PUSH1 0x20 CALLDATASIZE PUSH1 0x3 NOT ADD SLT PUSH2 0x1EE JUMPI PUSH1 0x4 CALLDATALOAD PUSH1 0x0 MSTORE PUSH1 0x7 PUSH1 0x20 MSTORE PUSH1 0x40 PUSH1 0x0 KECCAK256 PUSH1 0x1 DUP1 PUSH1 0xA0 SHL SUB PUSH1 0x1 DUP3 ADD SLOAD AND SWAP1 PUSH2 0x311 PUSH1 0x6 DUP3 ADD SLOAD PUSH1 0xFF PUSH1 0xA DUP5 ADD SLOAD AND PUSH1 0x7 DUP5 ADD SLOAD SWAP1 PUSH1 0x8 DUP6 ADD SLOAD SWAP3 PUSH2 0x9C9 PUSH1 0x3 PUSH2 0x9C2 PUSH1 0x2 DUP10 ADD PUSH2 0x112E JUMP JUMPDEST SWAP8 ADD PUSH2 0x112E JUMP JUMPDEST SWAP7 PUSH1 0x40 MLOAD SWAP8 DUP9 SWAP8 DUP9 PUSH2 0x913 JUMP JUMPDEST CALLVALUE PUSH2 0x1EE JUMPI PUSH2 0x911 PUSH2 0xA19 PUSH2 0x9EA CALLDATASIZE PUSH2 0x8B3 JUMP JUMPDEST SWAP1 PUSH2 0x9F8 PUSH2 0x907 DUP4 CALLER PUSH2 0x1BF1 JUMP JUMPDEST PUSH2 0xA03 DUP3 DUP3 DUP6 PUSH2 0x1D3E JUMP JUMPDEST PUSH1 0x40 MLOAD SWAP3 PUSH2 0xA10 DUP5 PUSH2 0x6D9 JUMP JUMPDEST PUSH1 0x0 DUP5 MSTORE PUSH2 0x2007 JUMP JUMPDEST PUSH2 0x13B9 JUMP JUMPDEST CALLVALUE PUSH2 0x1EE JUMPI PUSH1 0x60 CALLDATASIZE PUSH1 0x3 NOT ADD SLT PUSH2 0x1EE JUMPI PUSH1 0x44 CALLDATALOAD PUSH8 0xFFFFFFFFFFFFFFFF DUP2 GT PUSH2 0x1EE JUMPI PUSH2 0xA5F PUSH2 0xA54 PUSH1 0x20 SWAP3 CALLDATASIZE SWAP1 PUSH1 0x4 ADD PUSH2 0x784 JUMP JUMPDEST PUSH1 0x24 CALLDATALOAD PUSH1 0x4 CALLDATALOAD PUSH2 0x1487 JUMP JUMPDEST PUSH1 0x40 MLOAD SWAP1 ISZERO ISZERO DUP2 MSTORE RETURN JUMPDEST CALLVALUE PUSH2 0x1EE JUMPI PUSH1 0x20 CALLDATASIZE PUSH1 0x3 NOT ADD SLT PUSH2 0x1EE JUMPI PUSH2 0xA82 PUSH2 0x3EA JUMP JUMPDEST PUSH1 0xB SLOAD PUSH1 0x1 PUSH1 0x1 PUSH1 0xA0 SHL SUB SWAP2 SWAP1 PUSH2 0xA9C SWAP1 DUP4 AND CALLER EQ PUSH2 0x12B6 JUMP JUMPDEST AND PUSH12 0xFFFFFFFFFFFFFFFFFFFFFFFF PUSH1 0xA0 SHL PUSH1 0xA SLOAD AND OR PUSH1 0xA SSTORE PUSH1 0x0 DUP1 RETURN JUMPDEST CALLVALUE PUSH2 0x1EE JUMPI PUSH1 0x0 CALLDATASIZE PUSH1 0x3 NOT ADD SLT PUSH2 0x1EE JUMPI PUSH1 0xC SLOAD PUSH1 0x40 MLOAD PUSH1 0x1 PUSH1 0x1 PUSH1 0xA0 SHL SUB SWAP1 SWAP2 AND DUP2 MSTORE PUSH1 0x20 SWAP1 RETURN JUMPDEST CALLVALUE PUSH2 0x1EE JUMPI PUSH1 0x20 CALLDATASIZE PUSH1 0x3 NOT ADD SLT PUSH2 0x1EE JUMPI PUSH1 0x4 CALLDATALOAD PUSH1 0x0 MSTORE PUSH1 0x2 PUSH1 0x20 MSTORE PUSH1 0x20 PUSH1 0x1 DUP1 PUSH1 0xA0 SHL SUB PUSH1 0x40 PUSH1 0x0 KECCAK256 SLOAD AND PUSH2 0xB1A DUP2 ISZERO ISZERO PUSH2 0x11D3 JUMP JUMPDEST PUSH1 0x40 MLOAD SWAP1 DUP2 MSTORE RETURN JUMPDEST CALLVALUE PUSH2 0x1EE JUMPI PUSH1 0x20 CALLDATASIZE PUSH1 0x3 NOT ADD SLT PUSH2 0x1EE JUMPI PUSH2 0xB3B PUSH2 0x3EA JUMP JUMPDEST PUSH1 0xB SLOAD PUSH1 0x1 PUSH1 0x1 PUSH1 0xA0 SHL SUB SWAP2 SWAP1 PUSH2 0xB55 SWAP1 DUP4 AND CALLER EQ PUSH2 0x12B6 JUMP JUMPDEST AND PUSH12 0xFFFFFFFFFFFFFFFFFFFFFFFF PUSH1 0xA0 SHL PUSH1 0xC SLOAD AND OR PUSH1 0xC SSTORE PUSH1 0x0 DUP1 RETURN JUMPDEST CALLVALUE PUSH2 0x1EE JUMPI PUSH1 0x0 CALLDATASIZE PUSH1 0x3 NOT ADD SLT PUSH2 0x1EE JUMPI PUSH1 0xA SLOAD PUSH1 0x40 MLOAD PUSH1 0x1 PUSH1 0x1 PUSH1 0xA0 SHL SUB SWAP1 SWAP2 AND DUP2 MSTORE PUSH1 0x20 SWAP1 RETURN JUMPDEST CALLVALUE PUSH2 0x1EE JUMPI PUSH1 0x20 CALLDATASIZE PUSH1 0x3 NOT ADD SLT PUSH2 0x1EE JUMPI PUSH1 0x1 PUSH1 0x1 PUSH1 0xA0 SHL SUB PUSH2 0xBBD PUSH2 0x3EA JUMP JUMPDEST AND DUP1 ISZERO PUSH2 0xBDC JUMPI PUSH1 0x0 MSTORE PUSH1 0x3 PUSH1 0x20 MSTORE PUSH1 0x20 PUSH1 0x40 PUSH1 0x0 KECCAK256 SLOAD PUSH1 0x40 MLOAD SWAP1 DUP2 MSTORE RETURN JUMPDEST PUSH1 0x40 MLOAD PUSH3 0x461BCD PUSH1 0xE5 SHL DUP2 MSTORE PUSH1 0x20 PUSH1 0x4 DUP3 ADD MSTORE PUSH1 0x1B PUSH1 0x24 DUP3 ADD MSTORE PUSH32 0x4167656E7452656769737472793A207A65726F20616464726573730000000000 PUSH1 0x44 DUP3 ADD MSTORE PUSH1 0x64 SWAP1 REVERT JUMPDEST SWAP2 DUP2 PUSH1 0x1F DUP5 ADD SLT ISZERO PUSH2 0x1EE JUMPI DUP3 CALLDATALOAD SWAP2 PUSH8 0xFFFFFFFFFFFFFFFF DUP4 GT PUSH2 0x1EE JUMPI PUSH1 0x20 DUP4 DUP2 DUP7 ADD SWAP6 ADD ADD GT PUSH2 0x1EE JUMPI JUMP JUMPDEST CALLVALUE PUSH2 0x1EE JUMPI PUSH1 0x80 CALLDATASIZE PUSH1 0x3 NOT ADD SLT PUSH2 0x1EE JUMPI PUSH8 0xFFFFFFFFFFFFFFFF PUSH1 0x4 CALLDATALOAD DUP2 DUP2 GT PUSH2 0x1EE JUMPI PUSH2 0xC81 SWAP1 CALLDATASIZE SWAP1 PUSH1 0x4 ADD PUSH2 0xC21 JUMP JUMPDEST PUSH1 0x24 SWAP3 SWAP2 SWAP3 CALLDATALOAD DUP3 DUP2 GT PUSH2 0x1EE JUMPI PUSH2 0xC9C SWAP1 CALLDATASIZE SWAP1 PUSH1 0x4 ADD PUSH2 0xC21 JUMP JUMPDEST PUSH1 0x44 SWAP5 SWAP2 SWAP5 CALLDATALOAD DUP5 DUP2 GT PUSH2 0x1EE JUMPI PUSH2 0xCB7 SWAP1 CALLDATASIZE SWAP1 PUSH1 0x4 ADD PUSH2 0xC21 JUMP JUMPDEST SWAP2 PUSH1 0x64 CALLDATALOAD SWAP6 DUP7 GT PUSH2 0x1EE JUMPI PUSH2 0x311 SWAP7 PUSH2 0xCD7 PUSH2 0xCDF SWAP8 CALLDATASIZE SWAP1 PUSH1 0x4 ADD PUSH2 0xC21 JUMP JUMPDEST SWAP7 SWAP1 SWAP6 PUSH2 0x191C JUMP JUMPDEST PUSH1 0x40 MLOAD SWAP1 DUP2 MSTORE SWAP1 DUP2 SWAP1 PUSH1 0x20 DUP3 ADD SWAP1 JUMP JUMPDEST CALLVALUE PUSH2 0x1EE JUMPI PUSH1 0x20 CALLDATASIZE PUSH1 0x3 NOT ADD SLT PUSH2 0x1EE JUMPI PUSH1 0x4 CALLDATALOAD PUSH1 0x0 MSTORE PUSH1 0x7 PUSH1 0x20 MSTORE PUSH1 0x20 PUSH1 0x6 PUSH1 0x40 PUSH1 0x0 KECCAK256 ADD SLOAD PUSH1 0x40 MLOAD SWAP1 DUP2 MSTORE RETURN JUMPDEST CALLVALUE PUSH2 0x1EE JUMPI PUSH1 0x0 CALLDATASIZE PUSH1 0x3 NOT ADD SLT PUSH2 0x1EE JUMPI PUSH1 0xB SLOAD PUSH1 0x40 MLOAD PUSH1 0x1 PUSH1 0x1 PUSH1 0xA0 SHL SUB SWAP1 SWAP2 AND DUP2 MSTORE PUSH1 0x20 SWAP1 RETURN JUMPDEST PUSH1 0x24 CALLDATALOAD SWAP1 DUP2 ISZERO ISZERO DUP3 SUB PUSH2 0x1EE JUMPI JUMP JUMPDEST CALLVALUE PUSH2 0x1EE JUMPI PUSH1 0x60 CALLDATASIZE PUSH1 0x3 NOT ADD SLT PUSH2 0x1EE JUMPI PUSH2 0xD6F PUSH2 0xD47 JUMP JUMPDEST PUSH1 0xA SLOAD CALLER PUSH1 0x1 PUSH1 0x1 PUSH1 0xA0 SHL SUB SWAP2 DUP3 AND EQ SWAP1 DUP2 ISZERO PUSH2 0xDF0 JUMPI JUMPDEST POP ISZERO PUSH2 0xD9D JUMPI PUSH2 0x911 SWAP1 PUSH1 0x44 CALLDATALOAD SWAP1 PUSH1 0x4 CALLDATALOAD PUSH2 0x1B06 JUMP JUMPDEST PUSH1 0x40 MLOAD PUSH3 0x461BCD PUSH1 0xE5 SHL DUP2 MSTORE PUSH1 0x20 PUSH1 0x4 DUP3 ADD MSTORE PUSH1 0x25 PUSH1 0x24 DUP3 ADD MSTORE PUSH32 0x4167656E7452656769737472793A206E6F742072657075746174696F6E206D61 PUSH1 0x44 DUP3 ADD MSTORE PUSH5 0x3730B3B2B9 PUSH1 0xD9 SHL PUSH1 0x64 DUP3 ADD MSTORE PUSH1 0x84 SWAP1 REVERT JUMPDEST SWAP1 POP PUSH1 0xB SLOAD AND CALLER EQ CODESIZE PUSH2 0xD87 JUMP JUMPDEST CALLVALUE PUSH2 0x1EE JUMPI PUSH1 0x0 DUP1 PUSH1 0x3 NOT CALLDATASIZE ADD SLT PUSH2 0x399 JUMPI PUSH1 0x40 MLOAD SWAP1 DUP1 PUSH1 0x1 DUP1 SLOAD SWAP1 PUSH2 0xE23 DUP3 PUSH2 0x10F4 JUMP JUMPDEST DUP1 DUP7 MSTORE SWAP3 PUSH1 0x20 SWAP3 PUSH1 0x1 DUP2 AND SWAP1 DUP2 ISZERO PUSH2 0x36C JUMPI POP PUSH1 0x1 EQ PUSH2 0xE4D JUMPI PUSH2 0x311 DUP7 PUSH2 0x305 DUP2 DUP9 SUB DUP3 PUSH2 0x6FA JUMP JUMPDEST SWAP4 POP PUSH1 0x1 DUP5 MSTORE PUSH32 0xB10E2D527612073B26EECDFD717E6A320CF44B4AFAC2B0732D9FCBE2B7FA0CF6 JUMPDEST DUP4 DUP6 LT PUSH2 0xE92 JUMPI POP POP POP POP DUP2 ADD PUSH1 0x20 ADD PUSH2 0x305 DUP3 PUSH2 0x311 CODESIZE PUSH2 0x2F5 JUMP JUMPDEST DUP1 SLOAD DUP7 DUP7 ADD DUP5 ADD MSTORE SWAP4 DUP3 ADD SWAP4 DUP2 ADD PUSH2 0xE75 JUMP JUMPDEST CALLVALUE PUSH2 0x1EE JUMPI PUSH1 0x40 CALLDATASIZE PUSH1 0x3 NOT ADD SLT PUSH2 0x1EE JUMPI PUSH2 0xEBE PUSH2 0x3EA JUMP JUMPDEST PUSH2 0xEC6 PUSH2 0xD47 JUMP JUMPDEST PUSH1 0x1 PUSH1 0x1 PUSH1 0xA0 SHL SUB DUP3 AND SWAP2 CALLER DUP4 EQ PUSH2 0xF48 JUMPI DUP2 PUSH2 0xF05 PUSH2 0xF16 SWAP3 CALLER PUSH1 0x0 MSTORE PUSH1 0x5 PUSH1 0x20 MSTORE PUSH1 0x40 PUSH1 0x0 KECCAK256 SWAP1 PUSH1 0x1 DUP1 PUSH1 0xA0 SHL SUB AND PUSH1 0x0 MSTORE PUSH1 0x20 MSTORE PUSH1 0x40 PUSH1 0x0 KECCAK256 SWAP1 JUMP JUMPDEST SWAP1 PUSH1 0xFF DUP1 NOT DUP4 SLOAD AND SWAP2 ISZERO ISZERO AND OR SWAP1 SSTORE JUMP JUMPDEST PUSH1 0x40 MLOAD SWAP1 ISZERO ISZERO DUP2 MSTORE CALLER SWAP1 PUSH32 0x17307EAB39AB6107E8899845AD3D59BD9653F200F220920489CA2B5937696C31 SWAP1 PUSH1 0x20 SWAP1 LOG3 STOP JUMPDEST PUSH1 0x64 PUSH1 0x40 MLOAD PUSH3 0x461BCD PUSH1 0xE5 SHL DUP2 MSTORE PUSH1 0x20 PUSH1 0x4 DUP3 ADD MSTORE PUSH1 0x20 PUSH1 0x24 DUP3 ADD MSTORE PUSH32 0x4167656E7452656769737472793A20617070726F766520746F2063616C6C6572 PUSH1 0x44 DUP3 ADD MSTORE REVERT JUMPDEST CALLVALUE PUSH2 0x1EE JUMPI PUSH1 0x80 CALLDATASIZE PUSH1 0x3 NOT ADD SLT PUSH2 0x1EE JUMPI PUSH2 0xFA5 PUSH2 0x3EA JUMP JUMPDEST PUSH2 0xFAD PUSH2 0x400 JUMP JUMPDEST SWAP1 PUSH1 0x64 CALLDATALOAD SWAP1 PUSH1 0x44 CALLDATALOAD PUSH8 0xFFFFFFFFFFFFFFFF DUP4 GT PUSH2 0x1EE JUMPI PUSH2 0x911 SWAP4 PUSH2 0xFFB PUSH2 0xFDC PUSH2 0xA19 SWAP6 CALLDATASIZE SWAP1 PUSH1 0x4 ADD PUSH2 0xC21 JUMP JUMPDEST PUSH2 0xFE9 PUSH2 0x907 DUP7 CALLER PUSH2 0x1BF1 JUMP JUMPDEST PUSH2 0xFF4 DUP6 DUP6 DUP9 PUSH2 0x1D3E JUMP JUMPDEST CALLDATASIZE SWAP2 PUSH2 0x73D JUMP JUMPDEST SWAP3 PUSH2 0x2007 JUMP JUMPDEST CALLVALUE PUSH2 0x1EE JUMPI PUSH1 0x0 CALLDATASIZE PUSH1 0x3 NOT ADD SLT PUSH2 0x1EE JUMPI PUSH1 0x6 SLOAD PUSH1 0x0 NOT DUP2 ADD SWAP1 DUP2 GT PUSH2 0x102C JUMPI PUSH1 0x20 SWAP1 PUSH1 0x40 MLOAD SWAP1 DUP2 MSTORE RETURN JUMPDEST PUSH2 0x1647 JUMP JUMPDEST CALLVALUE PUSH2 0x1EE JUMPI PUSH1 0x20 CALLDATASIZE PUSH1 0x3 NOT ADD SLT PUSH2 0x1EE JUMPI PUSH1 0x4 CALLDATALOAD PUSH1 0x0 DUP2 DUP2 MSTORE PUSH1 0x2 PUSH1 0x20 MSTORE PUSH1 0x40 SWAP1 KECCAK256 SLOAD PUSH2 0x1068 SWAP1 PUSH1 0x1 PUSH1 0x1 PUSH1 0xA0 SHL SUB AND ISZERO ISZERO PUSH2 0x11D3 JUMP JUMPDEST PUSH1 0x0 MSTORE PUSH1 0x7 PUSH1 0x20 MSTORE PUSH2 0x311 PUSH2 0x1083 PUSH1 0x5 PUSH1 0x40 PUSH1 0x0 KECCAK256 ADD PUSH2 0x112E JUMP JUMPDEST PUSH1 0x40 MLOAD SWAP2 DUP3 SWAP2 PUSH1 0x20 DUP4 MSTORE PUSH1 0x20 DUP4 ADD SWAP1 PUSH2 0x261 JUMP JUMPDEST CALLVALUE PUSH2 0x1EE JUMPI PUSH1 0x40 CALLDATASIZE PUSH1 0x3 NOT ADD SLT PUSH2 0x1EE JUMPI PUSH1 0x20 PUSH1 0xFF PUSH2 0x10E8 PUSH2 0x10B7 PUSH2 0x3EA JUMP JUMPDEST PUSH2 0x10BF PUSH2 0x400 JUMP JUMPDEST PUSH1 0x1 PUSH1 0x1 PUSH1 0xA0 SHL SUB SWAP2 DUP3 AND PUSH1 0x0 SWAP1 DUP2 MSTORE PUSH1 0x5 DUP7 MSTORE PUSH1 0x40 DUP1 DUP3 KECCAK256 SWAP3 SWAP1 SWAP4 AND DUP2 MSTORE PUSH1 0x20 SWAP2 SWAP1 SWAP2 MSTORE KECCAK256 SWAP1 JUMP JUMPDEST SLOAD AND PUSH1 0x40 MLOAD SWAP1 ISZERO ISZERO DUP2 MSTORE RETURN JUMPDEST SWAP1 PUSH1 0x1 DUP3 DUP2 SHR SWAP3 AND DUP1 ISZERO PUSH2 0x1124 JUMPI JUMPDEST PUSH1 0x20 DUP4 LT EQ PUSH2 0x110E JUMPI JUMP JUMPDEST PUSH4 0x4E487B71 PUSH1 0xE0 SHL PUSH1 0x0 MSTORE PUSH1 0x22 PUSH1 0x4 MSTORE PUSH1 0x24 PUSH1 0x0 REVERT JUMPDEST SWAP2 PUSH1 0x7F AND SWAP2 PUSH2 0x1103 JUMP JUMPDEST SWAP1 PUSH1 0x40 MLOAD SWAP2 DUP3 PUSH1 0x0 DUP3 SLOAD PUSH2 0x1141 DUP2 PUSH2 0x10F4 JUMP JUMPDEST SWAP1 DUP2 DUP5 MSTORE PUSH1 0x20 SWAP5 PUSH1 0x1 SWAP2 PUSH1 0x1 DUP2 AND SWAP1 DUP2 PUSH1 0x0 EQ PUSH2 0x11B1 JUMPI POP PUSH1 0x1 EQ PUSH2 0x1172 JUMPI JUMPDEST POP POP POP PUSH2 0x1170 SWAP3 POP SUB DUP4 PUSH2 0x6FA JUMP JUMPDEST JUMP JUMPDEST PUSH1 0x0 SWAP1 DUP2 MSTORE DUP6 DUP2 KECCAK256 SWAP6 SWAP4 POP SWAP2 SWAP1 JUMPDEST DUP2 DUP4 LT PUSH2 0x1199 JUMPI POP POP PUSH2 0x1170 SWAP4 POP DUP3 ADD ADD CODESIZE DUP1 DUP1 PUSH2 0x1161 JUMP JUMPDEST DUP6 SLOAD DUP9 DUP5 ADD DUP6 ADD MSTORE SWAP5 DUP6 ADD SWAP5 DUP8 SWAP5 POP SWAP2 DUP4 ADD SWAP2 PUSH2 0x1180 JUMP JUMPDEST SWAP3 POP POP POP PUSH2 0x1170 SWAP5 SWAP3 POP PUSH1 0xFF NOT AND DUP3 DUP5 ADD MSTORE ISZERO ISZERO PUSH1 0x5 SHL DUP3 ADD ADD CODESIZE DUP1 DUP1 PUSH2 0x1161 JUMP JUMPDEST ISZERO PUSH2 0x11DA JUMPI JUMP JUMPDEST PUSH1 0x64 PUSH1 0x40 MLOAD PUSH3 0x461BCD PUSH1 0xE5 SHL DUP2 MSTORE PUSH1 0x20 PUSH1 0x4 DUP3 ADD MSTORE PUSH1 0x20 PUSH1 0x24 DUP3 ADD MSTORE PUSH32 0x4167656E7452656769737472793A206E6F6E6578697374656E7420746F6B656E PUSH1 0x44 DUP3 ADD MSTORE REVERT JUMPDEST ISZERO PUSH2 0x1225 JUMPI JUMP JUMPDEST PUSH1 0x40 MLOAD PUSH3 0x461BCD PUSH1 0xE5 SHL DUP2 MSTORE PUSH1 0x20 PUSH1 0x4 DUP3 ADD MSTORE PUSH1 0x1D PUSH1 0x24 DUP3 ADD MSTORE PUSH32 0x4167656E7452656769737472793A206E6F7420617574686F72697A6564000000 PUSH1 0x44 DUP3 ADD MSTORE PUSH1 0x64 SWAP1 REVERT JUMPDEST ISZERO PUSH2 0x1271 JUMPI JUMP JUMPDEST PUSH1 0x40 MLOAD PUSH3 0x461BCD PUSH1 0xE5 SHL DUP2 MSTORE PUSH1 0x20 PUSH1 0x4 DUP3 ADD MSTORE PUSH1 0x1F PUSH1 0x24 DUP3 ADD MSTORE PUSH32 0x4167656E7452656769737472793A20616C726561647920696E61637469766500 PUSH1 0x44 DUP3 ADD MSTORE PUSH1 0x64 SWAP1 REVERT JUMPDEST ISZERO PUSH2 0x12BD JUMPI JUMP JUMPDEST PUSH1 0x40 MLOAD PUSH3 0x461BCD PUSH1 0xE5 SHL DUP2 MSTORE PUSH1 0x20 PUSH1 0x4 DUP3 ADD MSTORE PUSH1 0x18 PUSH1 0x24 DUP3 ADD MSTORE PUSH32 0x4167656E7452656769737472793A206E6F74206F776E65720000000000000000 PUSH1 0x44 DUP3 ADD MSTORE PUSH1 0x64 SWAP1 REVERT JUMPDEST PUSH1 0x40 MLOAD RETURNDATASIZE PUSH1 0x0 DUP3 RETURNDATACOPY RETURNDATASIZE SWAP1 REVERT JUMPDEST SWAP1 PUSH1 0x41 DUP2 MLOAD EQ PUSH2 0x1328 JUMPI JUMPDEST POP PUSH1 0x1 PUSH1 0x1 PUSH1 0xE0 SHL SUB NOT SWAP2 SWAP1 POP JUMP JUMPDEST PUSH1 0x20 DUP2 DUP2 ADD MLOAD PUSH1 0x40 DUP1 DUP5 ADD MLOAD PUSH1 0x60 SWAP5 DUP6 ADD MLOAD DUP3 MLOAD SWAP7 DUP8 MSTORE PUSH1 0x0 SWAP1 DUP2 BYTE DUP8 DUP7 ADD MSTORE SWAP2 DUP7 ADD SWAP3 SWAP1 SWAP3 MSTORE SWAP3 DUP5 ADD MSTORE DUP2 DUP1 MSTORE SWAP2 PUSH1 0x80 SWAP1 PUSH1 0x1 GAS STATICCALL ISZERO PUSH2 0x13A1 JUMPI PUSH1 0x0 MLOAD PUSH1 0x1 PUSH1 0x1 PUSH1 0xA0 SHL SUB SWAP1 DUP2 AND DUP1 ISZERO ISZERO SWAP2 DUP3 PUSH2 0x1393 JUMPI JUMPDEST POP POP PUSH2 0x1388 JUMPI CODESIZE DUP1 PUSH2 0x1319 JUMP JUMPDEST PUSH4 0xB135D3F PUSH1 0xE1 SHL SWAP1 JUMP JUMPDEST PUSH1 0xB SLOAD AND EQ SWAP1 POP CODESIZE DUP1 PUSH2 0x137B JUMP JUMPDEST PUSH2 0x1302 JUMP JUMPDEST PUSH1 0x40 MLOAD SWAP1 PUSH2 0x13B3 DUP3 PUSH2 0x6D9 JUMP JUMPDEST PUSH1 0x0 DUP3 MSTORE JUMP JUMPDEST ISZERO PUSH2 0x13C0 JUMPI JUMP JUMPDEST PUSH1 0x40 MLOAD PUSH3 0x461BCD PUSH1 0xE5 SHL DUP2 MSTORE PUSH1 0x20 PUSH1 0x4 DUP3 ADD MSTORE PUSH1 0x21 PUSH1 0x24 DUP3 ADD MSTORE PUSH32 0x4167656E7452656769737472793A206E6F742045524337323152656365697665 PUSH1 0x44 DUP3 ADD MSTORE PUSH1 0x39 PUSH1 0xF9 SHL PUSH1 0x64 DUP3 ADD MSTORE PUSH1 0x84 SWAP1 REVERT JUMPDEST ISZERO PUSH2 0x1416 JUMPI JUMP JUMPDEST PUSH1 0x40 MLOAD PUSH3 0x461BCD PUSH1 0xE5 SHL DUP2 MSTORE PUSH1 0x20 PUSH1 0x4 DUP3 ADD MSTORE PUSH1 0x1E PUSH1 0x24 DUP3 ADD MSTORE PUSH32 0x4167656E7452656769737472793A206167656E74206E6F7420666F756E640000 PUSH1 0x44 DUP3 ADD MSTORE PUSH1 0x64 SWAP1 REVERT JUMPDEST SWAP1 DUP2 PUSH1 0x20 SWAP2 SUB SLT PUSH2 0x1EE JUMPI MLOAD PUSH2 0x2B2 DUP2 PUSH2 0x1DC JUMP JUMPDEST PUSH1 0x40 SWAP1 PUSH2 0x2B2 SWAP4 SWAP3 DUP2 MSTORE DUP2 PUSH1 0x20 DUP3 ADD MSTORE ADD SWAP1 PUSH2 0x261 JUMP JUMPDEST PUSH1 0x1 PUSH2 0x14A3 PUSH2 0x14B1 SWAP3 SWAP5 SWAP4 SWAP5 PUSH1 0x0 MSTORE PUSH1 0x7 PUSH1 0x20 MSTORE PUSH1 0x40 PUSH1 0x0 KECCAK256 SWAP1 JUMP JUMPDEST ADD SLOAD PUSH1 0x1 PUSH1 0x1 PUSH1 0xA0 SHL SUB AND SWAP1 JUMP JUMPDEST PUSH1 0x1 PUSH1 0x1 PUSH1 0xA0 SHL SUB DUP2 AND SWAP1 PUSH2 0x14C7 DUP3 ISZERO ISZERO PUSH2 0x140F JUMP JUMPDEST PUSH1 0x41 DUP4 MLOAD EQ PUSH2 0x155A JUMPI JUMPDEST EXTCODESIZE PUSH2 0x14DE JUMPI POP POP POP PUSH1 0x0 SWAP1 JUMP JUMPDEST PUSH2 0x1502 SWAP2 PUSH1 0x20 SWAP2 PUSH1 0x40 MLOAD DUP1 DUP1 SWAP6 DUP2 SWAP5 PUSH4 0xB135D3F PUSH1 0xE1 SHL SWAP9 DUP10 DUP5 MSTORE PUSH1 0x4 DUP5 ADD PUSH2 0x1470 JUMP JUMPDEST SUB SWAP2 GAS STATICCALL PUSH1 0x0 SWAP2 DUP2 PUSH2 0x1529 JUMPI JUMPDEST POP PUSH2 0x151B JUMPI POP POP PUSH1 0x0 SWAP1 JUMP JUMPDEST PUSH1 0x1 PUSH1 0x1 PUSH1 0xE0 SHL SUB NOT AND EQ SWAP1 JUMP JUMPDEST PUSH2 0x154C SWAP2 SWAP3 POP PUSH1 0x20 RETURNDATASIZE PUSH1 0x20 GT PUSH2 0x1553 JUMPI JUMPDEST PUSH2 0x1544 DUP2 DUP4 PUSH2 0x6FA JUMP JUMPDEST DUP2 ADD SWAP1 PUSH2 0x145B JUMP JUMPDEST SWAP1 CODESIZE PUSH2 0x150F JUMP JUMPDEST POP RETURNDATASIZE PUSH2 0x153A JUMP JUMPDEST PUSH1 0x20 DUP4 DUP2 ADD MLOAD PUSH1 0x40 DUP1 DUP7 ADD MLOAD PUSH1 0x60 DUP1 DUP9 ADD MLOAD DUP4 MLOAD DUP11 DUP2 MSTORE PUSH1 0x0 SWAP2 DUP3 BYTE DUP2 DUP9 ADD MSTORE SWAP4 DUP5 ADD SWAP5 SWAP1 SWAP5 MSTORE DUP3 ADD MSTORE DUP2 DUP1 MSTORE PUSH1 0x80 SWAP1 PUSH1 0x1 GAS STATICCALL ISZERO PUSH2 0x13A1 JUMPI PUSH1 0x0 MLOAD DUP3 SWAP1 PUSH1 0x1 PUSH1 0x1 PUSH1 0xA0 SHL SUB AND SUB PUSH2 0x14D1 JUMPI JUMPDEST POP POP POP POP PUSH1 0x1 SWAP1 JUMP JUMPDEST ISZERO PUSH2 0x15B7 JUMPI JUMP JUMPDEST PUSH1 0x40 MLOAD PUSH3 0x461BCD PUSH1 0xE5 SHL DUP2 MSTORE PUSH1 0x20 PUSH1 0x4 DUP3 ADD MSTORE PUSH1 0x1C PUSH1 0x24 DUP3 ADD MSTORE PUSH32 0x4167656E7452656769737472793A206E616D6520726571756972656400000000 PUSH1 0x44 DUP3 ADD MSTORE PUSH1 0x64 SWAP1 REVERT JUMPDEST ISZERO PUSH2 0x1603 JUMPI JUMP JUMPDEST PUSH1 0x64 PUSH1 0x40 MLOAD PUSH3 0x461BCD PUSH1 0xE5 SHL DUP2 MSTORE PUSH1 0x20 PUSH1 0x4 DUP3 ADD MSTORE PUSH1 0x20 PUSH1 0x24 DUP3 ADD MSTORE PUSH32 0x4167656E7452656769737472793A207374726174656779207265717569726564 PUSH1 0x44 DUP3 ADD MSTORE REVERT JUMPDEST PUSH4 0x4E487B71 PUSH1 0xE0 SHL PUSH1 0x0 MSTORE PUSH1 0x11 PUSH1 0x4 MSTORE PUSH1 0x24 PUSH1 0x0 REVERT JUMPDEST PUSH1 0x0 NOT DUP2 EQ PUSH2 0x102C JUMPI PUSH1 0x1 ADD SWAP1 JUMP JUMPDEST SWAP1 PUSH1 0x1F DUP2 GT PUSH2 0x167A JUMPI POP POP POP JUMP JUMPDEST PUSH1 0x0 SWAP2 PUSH1 0x0 MSTORE PUSH1 0x20 PUSH1 0x0 KECCAK256 SWAP1 PUSH1 0x20 PUSH1 0x1F DUP6 ADD PUSH1 0x5 SHR DUP4 ADD SWAP5 LT PUSH2 0x16B8 JUMPI JUMPDEST PUSH1 0x1F ADD PUSH1 0x5 SHR ADD SWAP2 JUMPDEST DUP3 DUP2 LT PUSH2 0x16AD JUMPI POP POP POP JUMP JUMPDEST DUP2 DUP2 SSTORE PUSH1 0x1 ADD PUSH2 0x16A1 JUMP JUMPDEST SWAP1 SWAP3 POP DUP3 SWAP1 PUSH2 0x1698 JUMP JUMPDEST SWAP2 SWAP1 SWAP2 DUP3 MLOAD PUSH8 0xFFFFFFFFFFFFFFFF DUP2 GT PUSH2 0x6F5 JUMPI PUSH2 0x16EA DUP2 PUSH2 0x16E4 DUP5 SLOAD PUSH2 0x10F4 JUMP JUMPDEST DUP5 PUSH2 0x166C JUMP JUMPDEST PUSH1 0x20 DUP1 PUSH1 0x1F DUP4 GT PUSH1 0x1 EQ PUSH2 0x172D JUMPI POP DUP2 SWAP1 PUSH2 0x171E SWAP4 SWAP5 SWAP6 PUSH1 0x0 SWAP3 PUSH2 0x1722 JUMPI JUMPDEST POP POP DUP2 PUSH1 0x1 SHL SWAP2 PUSH1 0x0 NOT SWAP1 PUSH1 0x3 SHL SHR NOT AND OR SWAP1 JUMP JUMPDEST SWAP1 SSTORE JUMP JUMPDEST ADD MLOAD SWAP1 POP CODESIZE DUP1 PUSH2 0x1709 JUMP JUMPDEST SWAP1 PUSH1 0x1F NOT DUP4 AND SWAP6 PUSH2 0x1743 DUP6 PUSH1 0x0 MSTORE PUSH1 0x20 PUSH1 0x0 KECCAK256 SWAP1 JUMP JUMPDEST SWAP3 PUSH1 0x0 SWAP1 JUMPDEST DUP9 DUP3 LT PUSH2 0x1780 JUMPI POP POP DUP4 PUSH1 0x1 SWAP6 SWAP7 SWAP8 LT PUSH2 0x1767 JUMPI JUMPDEST POP POP POP DUP2 SHL ADD SWAP1 SSTORE JUMP JUMPDEST ADD MLOAD PUSH1 0x0 NOT PUSH1 0xF8 DUP5 PUSH1 0x3 SHL AND SHR NOT AND SWAP1 SSTORE CODESIZE DUP1 DUP1 PUSH2 0x175D JUMP JUMPDEST DUP1 PUSH1 0x1 DUP6 SWAP7 DUP3 SWAP5 SWAP7 DUP7 ADD MLOAD DUP2 SSTORE ADD SWAP6 ADD SWAP4 ADD SWAP1 PUSH2 0x1748 JUMP JUMPDEST DUP2 MLOAD DUP2 SSTORE PUSH1 0x20 DUP3 ADD MLOAD PUSH1 0x1 DUP3 ADD DUP1 SLOAD PUSH1 0x1 PUSH1 0x1 PUSH1 0xA0 SHL SUB NOT AND PUSH1 0x1 PUSH1 0x1 PUSH1 0xA0 SHL SUB SWAP1 SWAP3 AND SWAP2 SWAP1 SWAP2 OR SWAP1 SSTORE SWAP1 PUSH1 0xB SWAP1 PUSH2 0x160 SWAP1 PUSH2 0x17DB PUSH1 0x40 DUP3 ADD MLOAD PUSH1 0x2 DUP7 ADD PUSH2 0x16C2 JUMP JUMPDEST PUSH2 0x17EC PUSH1 0x60 DUP3 ADD MLOAD PUSH1 0x3 DUP7 ADD PUSH2 0x16C2 JUMP JUMPDEST PUSH2 0x17FD PUSH1 0x80 DUP3 ADD MLOAD PUSH1 0x4 DUP7 ADD PUSH2 0x16C2 JUMP JUMPDEST PUSH2 0x180E PUSH1 0xA0 DUP3 ADD MLOAD PUSH1 0x5 DUP7 ADD PUSH2 0x16C2 JUMP JUMPDEST PUSH1 0xC0 DUP2 ADD MLOAD PUSH1 0x6 DUP6 ADD SSTORE PUSH1 0xE0 DUP2 ADD MLOAD PUSH1 0x7 DUP6 ADD SSTORE PUSH2 0x100 DUP2 ADD MLOAD PUSH1 0x8 DUP6 ADD SSTORE PUSH2 0x120 DUP2 ADD MLOAD PUSH1 0x9 DUP6 ADD SSTORE PUSH2 0x185E PUSH2 0x1849 PUSH2 0x140 DUP4 ADD MLOAD ISZERO ISZERO SWAP1 JUMP JUMPDEST PUSH1 0xA DUP7 ADD SWAP1 PUSH1 0xFF DUP1 NOT DUP4 SLOAD AND SWAP2 ISZERO ISZERO AND OR SWAP1 SSTORE JUMP JUMPDEST ADD MLOAD SWAP2 ADD SSTORE JUMP JUMPDEST DUP1 SLOAD DUP3 LT ISZERO PUSH2 0x187D JUMPI PUSH1 0x0 MSTORE PUSH1 0x20 PUSH1 0x0 KECCAK256 ADD SWAP1 PUSH1 0x0 SWAP1 JUMP JUMPDEST PUSH4 0x4E487B71 PUSH1 0xE0 SHL PUSH1 0x0 MSTORE PUSH1 0x32 PUSH1 0x4 MSTORE PUSH1 0x24 PUSH1 0x0 REVERT JUMPDEST SWAP1 DUP2 SLOAD SWAP2 PUSH9 0x10000000000000000 DUP4 LT ISZERO PUSH2 0x6F5 JUMPI DUP3 PUSH2 0x18BB SWAP2 PUSH1 0x1 PUSH2 0x1170 SWAP6 ADD DUP2 SSTORE PUSH2 0x1865 JUMP JUMPDEST SWAP1 SWAP2 SWAP1 DUP3 SLOAD SWAP1 PUSH1 0x3 SHL SWAP2 DUP3 SHL SWAP2 PUSH1 0x0 NOT SWAP1 SHL NOT AND OR SWAP1 SSTORE JUMP JUMPDEST SWAP1 DUP1 PUSH1 0x20 SWAP4 SWAP3 DUP2 DUP5 MSTORE DUP5 DUP5 ADD CALLDATACOPY PUSH1 0x0 DUP3 DUP3 ADD DUP5 ADD MSTORE PUSH1 0x1F ADD PUSH1 0x1F NOT AND ADD ADD SWAP1 JUMP JUMPDEST SWAP3 SWAP1 PUSH2 0x190E SWAP1 PUSH2 0x2B2 SWAP6 SWAP4 PUSH1 0x40 DUP7 MSTORE PUSH1 0x40 DUP7 ADD SWAP2 PUSH2 0x18D4 JUMP JUMPDEST SWAP3 PUSH1 0x20 DUP2 DUP6 SUB SWAP2 ADD MSTORE PUSH2 0x18D4 JUMP JUMPDEST SWAP2 SWAP3 SWAP4 SWAP8 SWAP7 SWAP5 SWAP1 SWAP6 DUP7 ISZERO ISZERO PUSH2 0x1930 SWAP1 PUSH2 0x15B0 JUMP JUMPDEST PUSH2 0x193B DUP6 ISZERO ISZERO PUSH2 0x15FC JUMP JUMPDEST PUSH1 0x6 SLOAD SWAP6 PUSH2 0x1948 DUP8 PUSH2 0x165D JUMP JUMPDEST PUSH1 0x6 SSTORE DUP7 SWAP10 PUSH2 0x1955 PUSH2 0x71C JUMP JUMPDEST DUP9 DUP2 MSTORE CALLER PUSH1 0x20 DUP3 ADD MSTORE SWAP4 PUSH2 0x196A CALLDATASIZE DUP12 DUP9 PUSH2 0x73D JUMP JUMPDEST PUSH1 0x40 DUP7 ADD MSTORE PUSH2 0x197A CALLDATASIZE DUP10 DUP10 PUSH2 0x73D JUMP JUMPDEST PUSH1 0x60 DUP7 ADD MSTORE CALLDATASIZE SWAP1 PUSH2 0x198A SWAP3 PUSH2 0x73D JUMP JUMPDEST PUSH1 0x80 DUP5 ADD MSTORE CALLDATASIZE SWAP1 PUSH2 0x199A SWAP3 PUSH2 0x73D JUMP JUMPDEST PUSH1 0xA0 DUP3 ADD MSTORE PUSH1 0x32 PUSH1 0xC0 DUP3 ADD MSTORE PUSH1 0x0 PUSH1 0xE0 DUP3 ADD DUP2 SWAP1 MSTORE PUSH2 0x100 DUP3 ADD DUP2 SWAP1 MSTORE PUSH2 0x120 DUP3 ADD MSTORE PUSH1 0x1 PUSH2 0x140 DUP3 ADD MSTORE TIMESTAMP PUSH2 0x160 DUP3 ADD MSTORE PUSH2 0x19E0 DUP6 PUSH1 0x0 MSTORE PUSH1 0x7 PUSH1 0x20 MSTORE PUSH1 0x40 PUSH1 0x0 KECCAK256 SWAP1 JUMP JUMPDEST SWAP1 PUSH2 0x19EA SWAP2 PUSH2 0x1798 JUMP JUMPDEST CALLER PUSH1 0x0 DUP2 DUP2 MSTORE PUSH1 0x8 PUSH1 0x20 DUP2 DUP2 MSTORE PUSH1 0x40 DUP1 DUP5 KECCAK256 DUP1 SLOAD PUSH1 0x9 DUP5 MSTORE DUP3 DUP7 KECCAK256 DUP12 DUP8 MSTORE DUP5 MSTORE SWAP2 DUP6 KECCAK256 SWAP2 SWAP1 SWAP2 SSTORE SWAP4 SWAP1 SWAP3 MSTORE SWAP1 MSTORE PUSH2 0x1A22 SWAP1 DUP6 SWAP1 PUSH2 0x1893 JUMP JUMPDEST PUSH2 0x1A2C DUP5 CALLER PUSH2 0x2073 JUMP JUMPDEST PUSH1 0x40 MLOAD SWAP3 DUP4 SWAP3 CALLER SWAP7 PUSH2 0x1A3E SWAP4 DUP6 PUSH2 0x18F5 JUMP JUMPDEST SUB PUSH32 0x1FA075D34B5040B9BC683D1CC54AE270F345511DD00E1B9F68E82FD47B16F524 SWAP2 LOG3 JUMP JUMPDEST ISZERO PUSH2 0x1A6B JUMPI JUMP JUMPDEST PUSH1 0x40 MLOAD PUSH3 0x461BCD PUSH1 0xE5 SHL DUP2 MSTORE PUSH1 0x20 PUSH1 0x4 DUP3 ADD MSTORE PUSH1 0x1F PUSH1 0x24 DUP3 ADD MSTORE PUSH32 0x4167656E7452656769737472793A206167656E74206E6F742061637469766500 PUSH1 0x44 DUP3 ADD MSTORE PUSH1 0x64 SWAP1 REVERT JUMPDEST SWAP2 SWAP1 SWAP2 PUSH1 0x0 DUP4 DUP3 ADD SWAP4 DUP5 SLT SWAP2 SLT SWAP1 DUP1 ISZERO DUP3 AND SWAP2 ISZERO AND OR PUSH2 0x102C JUMPI JUMP JUMPDEST PUSH1 0x1 NOT DUP2 ADD SWAP2 SWAP1 DUP3 GT PUSH2 0x102C JUMPI JUMP JUMPDEST PUSH1 0x0 NOT DUP2 ADD SWAP2 SWAP1 DUP3 GT PUSH2 0x102C JUMPI JUMP JUMPDEST SWAP1 PUSH1 0x2 DUP3 ADD DUP1 SWAP3 GT PUSH2 0x102C JUMPI JUMP JUMPDEST SWAP1 PUSH1 0x1 DUP3 ADD DUP1 SWAP3 GT PUSH2 0x102C JUMPI JUMP JUMPDEST SWAP2 PUSH1 0x6 PUSH2 0x1BB6 SWAP2 PUSH32 0x20D456995C74D5114F87879B10C5214B9C28E11EA422EEB922CC2E755095669F SWAP4 PUSH2 0x1B43 DUP7 PUSH1 0x0 MSTORE PUSH1 0x7 PUSH1 0x20 MSTORE PUSH1 0x40 PUSH1 0x0 KECCAK256 SWAP1 JUMP JUMPDEST SWAP2 PUSH2 0x1B5A PUSH2 0x1B55 PUSH1 0xA DUP6 ADD SLOAD PUSH1 0xFF AND SWAP1 JUMP JUMPDEST PUSH2 0x1A64 JUMP JUMPDEST PUSH1 0x7 DUP4 ADD PUSH2 0x1B68 DUP2 SLOAD PUSH2 0x165D JUMP JUMPDEST SWAP1 SSTORE PUSH2 0x1B79 PUSH1 0x9 DUP5 ADD SWAP2 DUP3 SLOAD PUSH2 0x1AB0 JUMP JUMPDEST SWAP1 SSTORE ISZERO PUSH2 0x1BCA JUMPI PUSH1 0x8 DUP2 ADD PUSH2 0x1B8E DUP2 SLOAD PUSH2 0x165D JUMP JUMPDEST SWAP1 SSTORE DUP1 DUP3 ADD DUP1 SLOAD PUSH1 0x62 DUP2 LT PUSH2 0x1BBB JUMPI POP PUSH1 0x64 SWAP1 JUMPDEST SSTORE JUMPDEST ADD SLOAD PUSH1 0x40 MLOAD SWAP1 DUP2 MSTORE SWAP1 DUP2 SWAP1 PUSH1 0x20 DUP3 ADD SWAP1 JUMP JUMPDEST SUB SWAP1 LOG2 JUMP JUMPDEST PUSH2 0x1BC4 SWAP1 PUSH2 0x1AEA JUMP JUMPDEST SWAP1 PUSH2 0x1BA2 JUMP JUMPDEST DUP1 DUP3 ADD DUP1 SLOAD PUSH1 0x2 DUP2 GT PUSH2 0x1BE2 JUMPI POP PUSH1 0x0 SWAP1 JUMPDEST SSTORE PUSH2 0x1BA4 JUMP JUMPDEST PUSH2 0x1BEB SWAP1 PUSH2 0x1ACC JUMP JUMPDEST SWAP1 PUSH2 0x1BDC JUMP JUMPDEST SWAP1 PUSH1 0x0 MSTORE PUSH1 0x2 PUSH1 0x20 MSTORE PUSH1 0x1 DUP1 PUSH1 0xA0 SHL SUB SWAP1 DUP2 PUSH1 0x40 PUSH1 0x0 KECCAK256 SLOAD AND DUP3 DUP3 AND DUP2 DUP2 EQ SWAP4 DUP5 ISZERO PUSH2 0x1C50 JUMPI JUMPDEST POP POP DUP3 ISZERO PUSH2 0x1C25 JUMPI POP POP SWAP1 JUMP JUMPDEST PUSH1 0x0 SWAP1 DUP2 MSTORE PUSH1 0x5 PUSH1 0x20 SWAP1 DUP2 MSTORE PUSH1 0x40 DUP1 DUP4 KECCAK256 PUSH1 0x1 PUSH1 0x1 PUSH1 0xA0 SHL SUB SWAP1 SWAP5 AND DUP4 MSTORE SWAP3 SWAP1 MSTORE KECCAK256 PUSH1 0xFF SWAP2 POP SLOAD AND SWAP1 JUMP JUMPDEST PUSH1 0x4 PUSH1 0x20 MSTORE PUSH1 0x40 PUSH1 0x0 KECCAK256 SLOAD AND EQ SWAP3 POP CODESIZE DUP1 PUSH2 0x1C18 JUMP JUMPDEST ISZERO PUSH2 0x1C6D JUMPI JUMP JUMPDEST PUSH1 0x40 MLOAD PUSH3 0x461BCD PUSH1 0xE5 SHL DUP2 MSTORE PUSH1 0x20 PUSH1 0x4 DUP3 ADD MSTORE PUSH1 0x1A PUSH1 0x24 DUP3 ADD MSTORE PUSH32 0x4167656E7452656769737472793A2077726F6E67206F776E6572000000000000 PUSH1 0x44 DUP3 ADD MSTORE PUSH1 0x64 SWAP1 REVERT JUMPDEST ISZERO PUSH2 0x1CB9 JUMPI JUMP JUMPDEST PUSH1 0x40 MLOAD PUSH3 0x461BCD PUSH1 0xE5 SHL DUP2 MSTORE PUSH1 0x20 PUSH1 0x4 DUP3 ADD MSTORE PUSH1 0x1F PUSH1 0x24 DUP3 ADD MSTORE PUSH32 0x4167656E7452656769737472793A207472616E7366657220746F207A65726F00 PUSH1 0x44 DUP3 ADD MSTORE PUSH1 0x64 SWAP1 REVERT JUMPDEST DUP1 SLOAD SWAP1 DUP2 ISZERO PUSH2 0x1D28 JUMPI PUSH1 0x0 NOT SWAP2 DUP3 ADD SWAP2 PUSH2 0x1D18 DUP4 DUP4 PUSH2 0x1865 JUMP JUMPDEST SWAP1 SWAP2 DUP3 SLOAD SWAP2 PUSH1 0x3 SHL SHL NOT AND SWAP1 SSTORE SSTORE JUMP JUMPDEST PUSH4 0x4E487B71 PUSH1 0xE0 SHL PUSH1 0x0 MSTORE PUSH1 0x31 PUSH1 0x4 MSTORE PUSH1 0x24 PUSH1 0x0 REVERT JUMPDEST SWAP1 PUSH2 0x1F20 PUSH2 0x1D84 SWAP2 PUSH2 0x1EA2 PUSH2 0x1D6D PUSH2 0x1D60 DUP8 PUSH1 0x0 MSTORE PUSH1 0x2 PUSH1 0x20 MSTORE PUSH1 0x40 PUSH1 0x0 KECCAK256 SWAP1 JUMP JUMPDEST SLOAD PUSH1 0x1 PUSH1 0x1 PUSH1 0xA0 SHL SUB AND SWAP1 JUMP JUMPDEST PUSH1 0x1 PUSH1 0x1 PUSH1 0xA0 SHL SUB DUP7 DUP2 AND SWAP6 SWAP1 SWAP2 DUP3 AND DUP7 EQ PUSH2 0x1C66 JUMP JUMPDEST DUP3 AND SWAP5 PUSH2 0x1D92 DUP7 ISZERO ISZERO PUSH2 0x1CB2 JUMP JUMPDEST PUSH2 0x1DB9 PUSH2 0x1DA9 DUP9 PUSH1 0x0 MSTORE PUSH1 0x4 PUSH1 0x20 MSTORE PUSH1 0x40 PUSH1 0x0 KECCAK256 SWAP1 JUMP JUMPDEST DUP1 SLOAD PUSH1 0x1 PUSH1 0x1 PUSH1 0xA0 SHL SUB NOT AND SWAP1 SSTORE JUMP JUMPDEST PUSH1 0x1 PUSH1 0x1 PUSH1 0xA0 SHL SUB DUP2 AND PUSH1 0x0 SWAP1 DUP2 MSTORE PUSH1 0x8 PUSH1 0x20 SWAP1 DUP2 MSTORE PUSH1 0x40 DUP1 DUP4 KECCAK256 PUSH1 0x9 SWAP1 SWAP3 MSTORE SWAP1 SWAP2 KECCAK256 PUSH2 0x1E11 SWAP2 SWAP1 PUSH2 0x1DF7 SWAP1 DUP11 SWAP1 JUMPDEST SWAP1 PUSH1 0x0 MSTORE PUSH1 0x20 MSTORE PUSH1 0x40 PUSH1 0x0 KECCAK256 SWAP1 JUMP JUMPDEST SLOAD PUSH2 0x1E02 DUP3 SLOAD PUSH2 0x1ADB JUMP JUMPDEST DUP1 DUP3 SUB PUSH2 0x1F47 JUMPI JUMPDEST POP POP PUSH2 0x1CFE JUMP JUMPDEST PUSH1 0x1 PUSH1 0x1 PUSH1 0xA0 SHL SUB DUP2 AND PUSH1 0x0 SWAP1 DUP2 MSTORE PUSH1 0x9 PUSH1 0x20 MSTORE PUSH1 0x40 DUP2 KECCAK256 PUSH2 0x1E34 SWAP1 DUP10 SWAP1 PUSH2 0x1DE8 JUMP JUMPDEST SSTORE PUSH1 0x1 PUSH1 0x1 PUSH1 0xA0 SHL SUB DUP4 AND PUSH1 0x0 SWAP1 DUP2 MSTORE PUSH1 0x8 PUSH1 0x20 SWAP1 DUP2 MSTORE PUSH1 0x40 DUP1 DUP4 KECCAK256 SLOAD PUSH1 0x9 SWAP1 SWAP3 MSTORE SWAP1 SWAP2 KECCAK256 PUSH2 0x1E64 SWAP1 DUP10 SWAP1 PUSH2 0x1DE8 JUMP JUMPDEST SSTORE PUSH1 0x1 PUSH1 0x1 PUSH1 0xA0 SHL SUB DUP4 AND PUSH1 0x0 SWAP1 DUP2 MSTORE PUSH1 0x8 PUSH1 0x20 MSTORE PUSH1 0x40 SWAP1 KECCAK256 PUSH2 0x1E88 SWAP1 DUP9 SWAP1 PUSH2 0x1893 JUMP JUMPDEST PUSH1 0x1 PUSH1 0x1 PUSH1 0xA0 SHL SUB AND PUSH1 0x0 SWAP1 DUP2 MSTORE PUSH1 0x3 PUSH1 0x20 MSTORE PUSH1 0x40 SWAP1 KECCAK256 SWAP1 JUMP JUMPDEST PUSH2 0x1EAC DUP2 SLOAD PUSH2 0x1ADB JUMP JUMPDEST SWAP1 SSTORE PUSH1 0x1 PUSH1 0x1 PUSH1 0xA0 SHL SUB DUP2 AND PUSH1 0x0 SWAP1 DUP2 MSTORE PUSH1 0x3 PUSH1 0x20 MSTORE PUSH1 0x40 SWAP1 KECCAK256 PUSH2 0x1ED0 DUP2 SLOAD PUSH2 0x1AF8 JUMP JUMPDEST SWAP1 SSTORE PUSH2 0x1EEA DUP2 PUSH2 0x483 DUP8 PUSH1 0x0 MSTORE PUSH1 0x2 PUSH1 0x20 MSTORE PUSH1 0x40 PUSH1 0x0 KECCAK256 SWAP1 JUMP JUMPDEST PUSH1 0x1 PUSH2 0x1F00 DUP7 PUSH1 0x0 MSTORE PUSH1 0x7 PUSH1 0x20 MSTORE PUSH1 0x40 PUSH1 0x0 KECCAK256 SWAP1 JUMP JUMPDEST ADD DUP1 SLOAD PUSH1 0x1 PUSH1 0x1 PUSH1 0xA0 SHL SUB NOT AND PUSH1 0x1 PUSH1 0x1 PUSH1 0xA0 SHL SUB SWAP1 SWAP3 AND SWAP2 SWAP1 SWAP2 OR SWAP1 SSTORE JUMP JUMPDEST PUSH32 0xDDF252AD1BE2C89B69C2B068FC378DAA952BA7F163C4A11628F55A4DF523B3EF PUSH1 0x0 DUP1 LOG4 JUMP JUMPDEST PUSH2 0x1F61 PUSH2 0x1F57 PUSH2 0x1F8C SWAP3 DUP6 PUSH2 0x1865 JUMP JUMPDEST SWAP1 SLOAD SWAP1 PUSH1 0x3 SHL SHR SWAP1 JUMP JUMPDEST PUSH2 0x1F6F DUP2 PUSH2 0x18BB DUP6 DUP8 PUSH2 0x1865 JUMP JUMPDEST PUSH1 0x1 PUSH1 0x1 PUSH1 0xA0 SHL SUB DUP7 AND PUSH1 0x0 SWAP1 DUP2 MSTORE PUSH1 0x9 PUSH1 0x20 MSTORE PUSH1 0x40 SWAP1 KECCAK256 PUSH2 0x1DE8 JUMP JUMPDEST SSTORE CODESIZE DUP1 PUSH2 0x1E0A JUMP JUMPDEST SWAP2 SWAP1 SWAP2 DUP1 EXTCODESIZE ISZERO PUSH2 0x1FFF JUMPI PUSH2 0x1FDE PUSH1 0x20 SWAP2 PUSH1 0x0 SWAP4 PUSH1 0x40 MLOAD SWAP5 DUP6 DUP1 SWAP5 DUP2 SWAP4 PUSH4 0xA85BD01 PUSH1 0xE1 SHL SWAP10 DUP11 DUP5 MSTORE CALLER PUSH1 0x4 DUP6 ADD MSTORE DUP5 PUSH1 0x24 DUP6 ADD MSTORE PUSH1 0x44 DUP5 ADD MSTORE PUSH1 0x80 PUSH1 0x64 DUP5 ADD MSTORE PUSH1 0x84 DUP4 ADD SWAP1 PUSH2 0x261 JUMP JUMPDEST SUB SWAP3 PUSH1 0x1 PUSH1 0x1 PUSH1 0xA0 SHL SUB AND GAS CALL PUSH1 0x0 SWAP2 DUP2 PUSH2 0x1529 JUMPI POP PUSH2 0x151B JUMPI POP POP PUSH1 0x0 SWAP1 JUMP JUMPDEST POP POP POP PUSH1 0x1 SWAP1 JUMP JUMPDEST SWAP3 SWAP2 SWAP1 SWAP2 DUP3 EXTCODESIZE ISZERO PUSH2 0x15A7 JUMPI PUSH2 0x205A SWAP3 PUSH1 0x20 SWAP3 PUSH1 0x0 PUSH1 0x1 DUP1 PUSH1 0xA0 SHL SUB PUSH1 0x40 MLOAD DUP1 SWAP8 DUP2 SWAP7 DUP3 SWAP6 DUP5 PUSH4 0xA85BD01 PUSH1 0xE1 SHL SWAP13 DUP14 DUP7 MSTORE CALLER PUSH1 0x4 DUP8 ADD MSTORE AND PUSH1 0x24 DUP6 ADD MSTORE PUSH1 0x44 DUP5 ADD MSTORE PUSH1 0x80 PUSH1 0x64 DUP5 ADD MSTORE PUSH1 0x84 DUP4 ADD SWAP1 PUSH2 0x261 JUMP JUMPDEST SUB SWAP4 AND GAS CALL PUSH1 0x0 SWAP2 DUP2 PUSH2 0x1529 JUMPI POP PUSH2 0x151B JUMPI POP POP PUSH1 0x0 SWAP1 JUMP JUMPDEST PUSH1 0x1 PUSH1 0x1 PUSH1 0xA0 SHL SUB DUP2 DUP2 AND SWAP2 SWAP1 DUP3 ISZERO PUSH2 0x2162 JUMPI PUSH2 0x209A DUP5 PUSH1 0x0 MSTORE PUSH1 0x2 PUSH1 0x20 MSTORE PUSH1 0x40 PUSH1 0x0 KECCAK256 SWAP1 JUMP JUMPDEST SLOAD AND PUSH2 0x211D JUMPI DUP3 PUSH2 0x1170 SWAP4 PUSH2 0xA19 SWAP4 PUSH2 0x20C5 DUP5 PUSH1 0x1 DUP1 PUSH1 0xA0 SHL SUB AND PUSH1 0x0 MSTORE PUSH1 0x3 PUSH1 0x20 MSTORE PUSH1 0x40 PUSH1 0x0 KECCAK256 SWAP1 JUMP JUMPDEST PUSH2 0x20CF DUP2 SLOAD PUSH2 0x1AF8 JUMP JUMPDEST SWAP1 SSTORE PUSH2 0x20E9 DUP5 PUSH2 0x483 DUP5 PUSH1 0x0 MSTORE PUSH1 0x2 PUSH1 0x20 MSTORE PUSH1 0x40 PUSH1 0x0 KECCAK256 SWAP1 JUMP JUMPDEST PUSH1 0x0 PUSH32 0xDDF252AD1BE2C89B69C2B068FC378DAA952BA7F163C4A11628F55A4DF523B3EF DUP2 DUP1 LOG4 PUSH2 0x2117 PUSH2 0x13A6 JUMP JUMPDEST SWAP2 PUSH2 0x1F94 JUMP JUMPDEST PUSH1 0x40 MLOAD PUSH3 0x461BCD PUSH1 0xE5 SHL DUP2 MSTORE PUSH1 0x20 PUSH1 0x4 DUP3 ADD MSTORE PUSH1 0x1D PUSH1 0x24 DUP3 ADD MSTORE PUSH32 0x4167656E7452656769737472793A20616C7265616479206D696E746564000000 PUSH1 0x44 DUP3 ADD MSTORE PUSH1 0x64 SWAP1 REVERT JUMPDEST PUSH1 0x40 MLOAD PUSH3 0x461BCD PUSH1 0xE5 SHL DUP2 MSTORE PUSH1 0x20 PUSH1 0x4 DUP3 ADD MSTORE PUSH1 0x1B PUSH1 0x24 DUP3 ADD MSTORE PUSH32 0x4167656E7452656769737472793A206D696E7420746F207A65726F0000000000 PUSH1 0x44 DUP3 ADD MSTORE PUSH1 0x64 SWAP1 REVERT INVALID LOG2 PUSH5 0x6970667358 0x22 SLT KECCAK256 0x22 0x21 SUB SUB ISZERO 0x23 0xAA 0xBA DUP4 0xE2 GASPRICE 0xEE PUSH1 0xDA 0xB3 PUSH6 0x2CB30AA3642D STATICCALL 0xD9 CHAINID RETURN 0xC7 0xFC PUSH10 0xBE5DCC64736F6C634300 ADDMOD XOR STOP CALLER "},"methodIdentifiers":{"approve(address,uint256)":"095ea7b3","balanceOf(address)":"70a08231","deactivateAgent(uint256)":"11ba6b4a","emergencyDeactivate(uint256)":"14fbb572","erc8004Registry()":"5c30a8e1","getAgent(uint256)":"2de5aaf7","getAgentsByOwner(address)":"1ab6f888","getApproved(uint256)":"081812fc","getTrustScore(uint256)":"83f3d448","isApprovedForAll(address,address)":"e985e9c5","isValidAgentSignature(uint256,bytes32,bytes)":"4a8930a5","isValidSignature(bytes32,bytes)":"1626ba7e","name()":"06fdde03","owner()":"8da5cb5b","ownerOf(uint256)":"6352211e","registerAgent(string,string,string,string)":"75694ff3","reputationManager()":"6b868afb","safeTransferFrom(address,address,uint256)":"42842e0e","safeTransferFrom(address,address,uint256,bytes)":"b88d4fde","setApprovalForAll(address,bool)":"a22cb465","setERC8004Registry(address)":"6b249af8","setReputationManager(address)":"56a837f4","supportsInterface(bytes4)":"01ffc9a7","symbol()":"95d89b41","tokenURI(uint256)":"c87b56dd","totalAgents()":"c5053712","transferFrom(address,address,uint256)":"23b872dd","updateReputation(uint256,bool,int256)":"95359d6b"}}}}}