{"contracts/ReputationManager.sol":{"ReputationManager":{"abi":[{"inputs":[{"internalType":"address","name":"_registry","type":"address"},{"internalType":"address","name":"_validationRegistry","type":"address"}],"stateMutability":"nonpayable","type":"constructor"},{"anonymous":false,"inputs":[{"indexed":true,"internalType":"address","name":"caller","type":"address"},{"indexed":false,"internalType":"bool","name":"authorized","type":"bool"}],"name":"AuthorizedCallerSet","type":"event"},{"anonymous":false,"inputs":[{"indexed":true,"internalType":"uint256","name":"agentId","type":"uint256"},{"indexed":false,"internalType":"uint256","name":"maxDrawdownBps","type":"uint256"}],"name":"DrawdownUpdated","type":"event"},{"anonymous":false,"inputs":[{"indexed":true,"internalType":"uint256","name":"agentId","type":"uint256"},{"indexed":false,"internalType":"uint256","name":"newTrustScore","type":"uint256"},{"indexed":false,"internalType":"int256","name":"scoreDelta","type":"int256"},{"indexed":false,"internalType":"string","name":"reason","type":"string"}],"name":"ReputationUpdated","type":"event"},{"inputs":[],"name":"MAX_NEGATIVE_DELTA","outputs":[{"internalType":"int256","name":"","type":"int256"}],"stateMutability":"view","type":"function"},{"inputs":[],"name":"MAX_POSITIVE_DELTA","outputs":[{"internalType":"int256","name":"","type":"int256"}],"stateMutability":"view","type":"function"},{"inputs":[{"internalType":"uint256","name":"","type":"uint256"},{"internalType":"uint256","name":"","type":"uint256"}],"name":"agentHistory","outputs":[{"internalType":"uint256","name":"agentId","type":"uint256"},{"internalType":"string","name":"tradeId","type":"string"},{"internalType":"bool","name":"profitable","type":"bool"},{"internalType":"int256","name":"pnlBps","type":"int256"},{"internalType":"uint256","name":"confidence","type":"uint256"},{"internalType":"uint256","name":"timestamp","type":"uint256"}],"stateMutability":"view","type":"function"},{"inputs":[],"name":"agentRegistry","outputs":[{"internalType":"contract AgentRegistry","name":"","type":"address"}],"stateMutability":"view","type":"function"},{"inputs":[{"internalType":"uint256","name":"","type":"uint256"}],"name":"agentStats","outputs":[{"internalType":"int256","name":"peakPnlBps","type":"int256"},{"internalType":"int256","name":"currentPnlBps","type":"int256"},{"internalType":"uint256","name":"maxDrawdownBps","type":"uint256"},{"internalType":"int256","name":"sumPnlBps","type":"int256"},{"internalType":"uint256","name":"sumSquaredPnlBps","type":"uint256"},{"internalType":"uint256","name":"tradeCount","type":"uint256"},{"internalType":"uint256","name":"winCount","type":"uint256"},{"internalType":"uint256","name":"lossCount","type":"uint256"},{"internalType":"uint256","name":"lastUpdated","type":"uint256"}],"stateMutability":"view","type":"function"},{"inputs":[{"internalType":"address","name":"","type":"address"}],"name":"authorizedCallers","outputs":[{"internalType":"bool","name":"","type":"bool"}],"stateMutability":"view","type":"function"},{"inputs":[{"internalType":"uint256","name":"agentId","type":"uint256"}],"name":"getAgentHistory","outputs":[{"components":[{"internalType":"uint256","name":"agentId","type":"uint256"},{"internalType":"string","name":"tradeId","type":"string"},{"internalType":"bool","name":"profitable","type":"bool"},{"internalType":"int256","name":"pnlBps","type":"int256"},{"internalType":"uint256","name":"confidence","type":"uint256"},{"internalType":"uint256","name":"timestamp","type":"uint256"}],"internalType":"struct ReputationManager.ScoreUpdate[]","name":"","type":"tuple[]"}],"stateMutability":"view","type":"function"},{"inputs":[{"internalType":"uint256","name":"agentId","type":"uint256"}],"name":"getAgentPerformance","outputs":[{"internalType":"int256","name":"peakPnlBps","type":"int256"},{"internalType":"int256","name":"currentPnlBps","type":"int256"},{"internalType":"uint256","name":"maxDrawdownBps","type":"uint256"},{"internalType":"int256","name":"avgPnlBps","type":"int256"},{"internalType":"uint256","name":"winRate","type":"uint256"},{"internalType":"uint256","name":"tradeCount","type":"uint256"},{"internalType":"uint256","name":"sumSquaredPnlBps","type":"uint256"}],"stateMutability":"view","type":"function"},{"inputs":[{"internalType":"uint256","name":"agentId","type":"uint256"}],"name":"getTrustScore","outputs":[{"internalType":"uint256","name":"","type":"uint256"}],"stateMutability":"view","type":"function"},{"inputs":[],"name":"owner","outputs":[{"internalType":"address","name":"","type":"address"}],"stateMutability":"view","type":"function"},{"inputs":[{"internalType":"address","name":"caller","type":"address"},{"internalType":"bool","name":"authorized","type":"bool"}],"name":"setAuthorizedCaller","outputs":[],"stateMutability":"nonpayable","type":"function"},{"inputs":[{"internalType":"uint256","name":"agentId","type":"uint256"},{"internalType":"string","name":"tradeId","type":"string"},{"internalType":"bool","name":"profitable","type":"bool"},{"internalType":"int256","name":"pnlBps","type":"int256"}],"name":"updateReputation","outputs":[],"stateMutability":"nonpayable","type":"function"},{"inputs":[{"internalType":"uint256","name":"agentId","type":"uint256"},{"internalType":"bool","name":"profitable","type":"bool"},{"internalType":"int256","name":"pnlBps","type":"int256"},{"internalType":"uint256","name":"confidence","type":"uint256"}],"name":"updateReputationDirect","outputs":[],"stateMutability":"nonpayable","type":"function"},{"inputs":[],"name":"validationRegistry","outputs":[{"internalType":"contract ValidationRegistry","name":"","type":"address"}],"stateMutability":"view","type":"function"}],"evm":{"bytecode":{"linkReferences":{},"object":"6080346100ab57601f61155238819003918201601f19168301916001600160401b038311848410176100b05780849260409485528339810103126100ab57610052602061004b836100c6565b92016100c6565b9060018060a01b0319913383600254161760025560018060a01b03809216836000541617600055169060015416176001553360005260036020526040600020600160ff1982541617905560405161147790816100db8239f35b600080fd5b634e487b7160e01b600052604160045260246000fd5b51906001600160a01b03821682036100ab5756fe608060408181526004908136101561001657600080fd5b600092833560e01c9081630b793e0514610be9575080630d1cfcae14610bc1578063107091e5146108ae57806327ed42ac146107975780633ba1490714610623578063402add08146105a3578063454bbd29146104d35780634ae119251461043b5780634c6b993a146104125780634f005e90146103f6578063536fff6c146103b857806383f3d448146103295780638da5cb5b146103005763c22add74146100be57600080fd5b346102fc5760803660031901126102fc578135916100da610c05565b9060443591606435916100ec86611139565b80156102e8575b80156102d3575b61010390610e07565b61010e8385846111f2565b875490946001600160a01b039189908316803b156102cf5788516395359d6b60e01b81528086018b81528715156020820152604081018590529091839183919082908490829060600103925af180156102c5576102ad575b505061017381858a61129d565b878952602094838652878a209088519261018c84610d08565b8a8452895188810181811067ffffffffffffffff821117610298578b528c8152848901528615158a850152606084015260808301524260a0830152859289926024926101d89190610eec565b8a5416938851948593849263107e7a8960e31b84528301525afa92831561028e578793610257575b50507feec147b56042117961ed3d136cd43a67947c39ce0cd9d2edf9b0344fa954a4ff9361024391600014610249576102376110d9565b905b519384938461111d565b0390a280f35b610251611093565b90610239565b9080929350813d8311610287575b61026f8183610d40565b8101031261028257519083610243610200565b600080fd5b503d610265565b85513d89823e3d90fd5b604188634e487b7160e01b6000525260246000fd5b6102b690610cde565b6102c1578838610166565b8880fd5b89513d84823e3d90fd5b5080fd5b5033875260036020528487205460ff166100fa565b506002546001600160a01b031633146100f3565b8280fd5b8382346102cf57816003193601126102cf5760025490516001600160a01b039091168152602090f35b508290346102cf57602092836003193601126102fc578254825163107e7a8960e31b81528235928101929092528490829060249082906001600160a01b03165afa9283156103ad579261037e575b5051908152f35b9091508281813d83116103a6575b6103968183610d40565b8101031261028257519083610377565b503d61038c565b8251903d90823e3d90fd5b8382346102cf5760203660031901126102cf5760209160ff9082906001600160a01b036103e3610c5c565b1681526003855220541690519015158152f35b8382346102cf57816003193601126102cf576020905160058152f35b8382346102cf57816003193601126102cf5760015490516001600160a01b039091168152602090f35b5082346104d057816003193601126104d0576024359083358152836020528281209081548310156104d057509061047191610c72565b509182549161048260018501610d62565b9360ff600282015416926005600383015491830154920154926104b68151978897885260c0602089015260c0880190610c37565b941515908601526060850152608084015260a08301520390f35b80fd5b5090346102fc57816003193601126102fc576104ed610c5c565b906104f6610c05565b60025490926001600160a01b03929091831633036105605750916020917f1eff62a53441c7d0125c22f2a9a324e206b34efa41e19469d7efb9bb703d21a393169384865260038352610556828288209060ff801983541691151516179055565b519015158152a280f35b606490602086519162461bcd60e51b8352820152601c60248201527f52657075746174696f6e4d616e616765723a206e6f74206f776e6572000000006044820152fd5b5090346102fc5760203660031901126102fc578161012093823581526005602052208054926001820154926002830154906003840154908401549060058501549260068601549460086007880154970154978151998a5260208a01528801526060870152608086015260a085015260c084015260e0830152610100820152f35b509190346102cf57602090816003193601126102fc578035835280825283832091825467ffffffffffffffff811161078457855191949260059061066b83831b880185610d40565b82845286840191829686528786209186935b85851061071e575050505050508451938085019181865251809252858501868360051b8701019493965b8388106106b45786860387f35b90919293948380600192603f198a82030186528851906106e560c08351835284840151908086850152830190610c37565b9186810151151587830152606080820151908301526080808201519083015260a0809101519101529701930197019690939291936106a7565b60068a6001928d809d9a9b9d519061073582610d08565b88548252610744868a01610d62565b8483015260ff60028a015416151590820152600388015460608201528588015460808201528688015460a08201528152019401940193929896959861067d565b634e487b7160e01b855260418352602485fd5b5082346104d05760203660031901126104d057823581526005602052818120916005830154908354936001810154916002820154908783015495851590811594856000146108a75760038101548361089457600160ff1b81146000198a141661088157889005955b15610874576006015491612710928381029381850414901517156108615761084e575060e09850859004935b815197885260208801528601526060850152608084015260a083015260c0820152f35b634e487b7160e01b815260128a52602490fd5b634e487b7160e01b825260118b52602482fd5b50905060e098509361082b565b634e487b7160e01b835260118c52602483fd5b634e487b7160e01b835260128c52602483fd5b81956107ff565b50346102fc5760803660031901126102fc578282359260249081359067ffffffffffffffff91828111610adf5736602382011215610adf578082013593838511610bbd578082019181863692010111610bbd576044359384151595868603610bb9576064359161091d8b611139565b8015610ba5575b8015610b90575b61093490610e07565b6001548a516309ae52cb60e21b81526020888201819052996001600160a01b0395929091908616908c818061096c8b82018a8e610ecb565b0381855afa948515610b86578d95610b06575b505061098c84848c6111f2565b9b813b156104d0578589928f838d8c886109c160609551998a98899788966318a2787d60e11b88528701526064860191610ecb565b9183015289604483015203925af18015610afa57610ae3575b50908d92918584541697883b15610adf57848f998f908d838e8894519e8f95869485936395359d6b60e01b8552840192610a269360409194939260608201958252151560208201520152565b03925af18015610ad557918f979593918f908d8f9b999795610aaf575b8a9b9c5084610a57916101d89a9b9c61129d565b8a86528c8c52818620958c835198610a6e8a610d08565b8d8a5280610a7b81610e5d565b94610a8887519687610d40565b81865283860137830101528b870152850152606084015260808301524260a0830152610eec565b509697985050975097610ac28391610cde565b6102cf57878b978f9796958f908d610a43565b8e513d87823e3d90fd5b8480fd5b610af1909e9193929e610cde565b9c9091386109da565b8f8e51903d90823e3d90fd5b919450903d808e843e610b198184610d40565b820161010083820312610b82578c830151828111610b7e578f9082610b3f918601610e79565b50830151926060810151928311610b7e57610b6160c092610b75948301610e79565b50610b6e60a08201610ebe565b5001610ebe565b5092388061097f565b8e80fd5b8d80fd5b8e513d8f823e3d90fd5b5033895260036020528989205460ff1661092b565b506002546001600160a01b03163314610924565b8780fd5b8580fd5b8382346102cf57816003193601126102cf57905490516001600160a01b039091168152602090f35b8490346102cf57816003193601126102cf576002198152602090f35b60243590811515820361028257565b60005b838110610c275750506000910152565b8181015183820152602001610c17565b90602091610c5081518092818552858086019101610c14565b601f01601f1916010190565b600435906001600160a01b038216820361028257565b8054821015610c8e576000526006602060002091020190600090565b634e487b7160e01b600052603260045260246000fd5b90600182811c92168015610cd4575b6020831014610cbe57565b634e487b7160e01b600052602260045260246000fd5b91607f1691610cb3565b67ffffffffffffffff8111610cf257604052565b634e487b7160e01b600052604160045260246000fd5b60c0810190811067ffffffffffffffff821117610cf257604052565b6060810190811067ffffffffffffffff821117610cf257604052565b90601f8019910116810190811067ffffffffffffffff821117610cf257604052565b90604051918260008254610d7581610ca4565b90818452602094600191600181169081600014610de55750600114610da6575b505050610da492500383610d40565b565b600090815285812095935091905b818310610dcd575050610da49350820101388080610d95565b85548884018501529485019487945091830191610db4565b92505050610da494925060ff191682840152151560051b820101388080610d95565b15610e0e57565b60405162461bcd60e51b815260206004820152602160248201527f52657075746174696f6e4d616e616765723a206e6f7420617574686f72697a656044820152601960fa1b6064820152608490fd5b67ffffffffffffffff8111610cf257601f01601f191660200190565b81601f82011215610282578051610e8f81610e5d565b92610e9d6040519485610d40565b8184526020828401011161028257610ebb9160208085019101610c14565b90565b5190811515820361028257565b908060209392818452848401376000828201840152601f01601f1916010190565b805468010000000000000000811015610cf257610f10906001928382018155610c72565b92909261107d57805183558183016020808301519384519167ffffffffffffffff8311610cf257610f418454610ca4565b601f8111611032575b5080601f8411600114610fc357509180809260a0969594600598600094610fb8575b50501b916000199060031b1c19161790555b610f9d60408201511515600286019060ff801983541691151516179055565b60608101516003850155608081015160048501550151910155565b015192503880610f6c565b91939495601f1984168660005283600020936000905b82821061101b575050916005979593918560a098969410611002575b505050811b019055610f7e565b015160001960f88460031b161c19169055388080610ff5565b808886978294978701518155019601940190610fd9565b60008560005282600020601f860160051c810192848710611073575b601f0160051c019184905b83811061106857505050610f4a565b828155018490611059565b909250829061104e565b634e487b7160e01b600052600060045260246000fd5b604051906110a082610d24565b6024825263185cd95960e21b6040837f556e70726f66697461626c65207472616465202d20747275737420646563726560208201520152565b604051906110e682610d24565b6022825261195960f21b6040837f50726f66697461626c65207472616465202d20747275737420696e637265617360208201520152565b610ebb9392606092825260208201528160408201520190610c37565b60018060a01b0390600091602081845416926024604051809581936331a9108f60e11b835260048301525afa83928161117f575b5061117757505090565b163314919050565b9092506020813d6020116111b8575b8161119b60209383610d40565b810103126111b4575181811681036111b457913861116d565b8380fd5b3d915061118e565b919091600083820193841291129080158216911516176111dc57565b634e487b7160e01b600052601160045260246000fd5b909291901561126f57604b8110611254575060c86005925b13611233575b6005821361122a575b6002198083126112265750565b9150565b60059150611219565b90600181019060006001831291129080158216911516176111dc5790611210565b6037116112655760c860039261120a565b60c860019261120a565b909150604b8110611284575060021990611210565b6037116112945760011990611210565b60001990611210565b916000918383526005602052604083209160018301916112be8284546111c0565b8355600384016112cf8382546111c0565b9055600584018054906001820180921161142d57554260088501551561141557600683018054906001820180921161140157555b838112156113fc57600160ff1b81146113e85783035b80800290848112600160ff1b8214166113d4578082058114901517156113e8576004830180549182018092116113d457555491815483136113cc575b81548184820394128185128116918513901516176113b857821361137857505050565b6002018054821161138857505050565b817f4d03819da0078ad767df977c50cbd3a2a97250e2dcec0df3a04f40deb2b31d649260209255604051908152a2565b634e487b7160e01b81526011600452602490fd5b828255611355565b634e487b7160e01b85526011600452602485fd5b634e487b7160e01b84526011600452602484fd5b611319565b634e487b7160e01b86526011600452602486fd5b60078301805490600182018092116114015755611303565b634e487b7160e01b87526011600452602487fdfea2646970667358221220a66a43a0397d5664cabb4c8d0308f7067ef107c4933184fca6b87d9aaeef831d64736f6c63430008180033","opcodes":"PUSH1 0x80 CALLVALUE PUSH2 0xAB JUMPI PUSH1 0x1F PUSH2 0x1552 CODESIZE DUP2 SWAP1 SUB SWAP2 DUP3 ADD PUSH1 0x1F NOT AND DUP4 ADD SWAP2 PUSH1 0x1 PUSH1 0x1 PUSH1 0x40 SHL SUB DUP4 GT DUP5 DUP5 LT OR PUSH2 0xB0 JUMPI DUP1 DUP5 SWAP3 PUSH1 0x40 SWAP5 DUP6 MSTORE DUP4 CODECOPY DUP2 ADD SUB SLT PUSH2 0xAB JUMPI PUSH2 0x52 PUSH1 0x20 PUSH2 0x4B DUP4 PUSH2 0xC6 JUMP JUMPDEST SWAP3 ADD PUSH2 0xC6 JUMP JUMPDEST SWAP1 PUSH1 0x1 DUP1 PUSH1 0xA0 SHL SUB NOT SWAP2 CALLER DUP4 PUSH1 0x2 SLOAD AND OR PUSH1 0x2 SSTORE PUSH1 0x1 DUP1 PUSH1 0xA0 SHL SUB DUP1 SWAP3 AND DUP4 PUSH1 0x0 SLOAD AND OR PUSH1 0x0 SSTORE AND SWAP1 PUSH1 0x1 SLOAD AND OR PUSH1 0x1 SSTORE CALLER PUSH1 0x0 MSTORE PUSH1 0x3 PUSH1 0x20 MSTORE PUSH1 0x40 PUSH1 0x0 KECCAK256 PUSH1 0x1 PUSH1 0xFF NOT DUP3 SLOAD AND OR SWAP1 SSTORE PUSH1 0x40 MLOAD PUSH2 0x1477 SWAP1 DUP2 PUSH2 0xDB DUP3 CODECOPY RETURN JUMPDEST PUSH1 0x0 DUP1 REVERT JUMPDEST PUSH4 0x4E487B71 PUSH1 0xE0 SHL PUSH1 0x0 MSTORE PUSH1 0x41 PUSH1 0x4 MSTORE PUSH1 0x24 PUSH1 0x0 REVERT JUMPDEST MLOAD SWAP1 PUSH1 0x1 PUSH1 0x1 PUSH1 0xA0 SHL SUB DUP3 AND DUP3 SUB PUSH2 0xAB JUMPI JUMP INVALID PUSH1 0x80 PUSH1 0x40 DUP2 DUP2 MSTORE PUSH1 0x4 SWAP1 DUP2 CALLDATASIZE LT ISZERO PUSH2 0x16 JUMPI PUSH1 0x0 DUP1 REVERT JUMPDEST PUSH1 0x0 SWAP3 DUP4 CALLDATALOAD PUSH1 0xE0 SHR SWAP1 DUP2 PUSH4 0xB793E05 EQ PUSH2 0xBE9 JUMPI POP DUP1 PUSH4 0xD1CFCAE EQ PUSH2 0xBC1 JUMPI DUP1 PUSH4 0x107091E5 EQ PUSH2 0x8AE JUMPI DUP1 PUSH4 0x27ED42AC EQ PUSH2 0x797 JUMPI DUP1 PUSH4 0x3BA14907 EQ PUSH2 0x623 JUMPI DUP1 PUSH4 0x402ADD08 EQ PUSH2 0x5A3 JUMPI DUP1 PUSH4 0x454BBD29 EQ PUSH2 0x4D3 JUMPI DUP1 PUSH4 0x4AE11925 EQ PUSH2 0x43B JUMPI DUP1 PUSH4 0x4C6B993A EQ PUSH2 0x412 JUMPI DUP1 PUSH4 0x4F005E90 EQ PUSH2 0x3F6 JUMPI DUP1 PUSH4 0x536FFF6C EQ PUSH2 0x3B8 JUMPI DUP1 PUSH4 0x83F3D448 EQ PUSH2 0x329 JUMPI DUP1 PUSH4 0x8DA5CB5B EQ PUSH2 0x300 JUMPI PUSH4 0xC22ADD74 EQ PUSH2 0xBE JUMPI PUSH1 0x0 DUP1 REVERT JUMPDEST CALLVALUE PUSH2 0x2FC JUMPI PUSH1 0x80 CALLDATASIZE PUSH1 0x3 NOT ADD SLT PUSH2 0x2FC JUMPI DUP2 CALLDATALOAD SWAP2 PUSH2 0xDA PUSH2 0xC05 JUMP JUMPDEST SWAP1 PUSH1 0x44 CALLDATALOAD SWAP2 PUSH1 0x64 CALLDATALOAD SWAP2 PUSH2 0xEC DUP7 PUSH2 0x1139 JUMP JUMPDEST DUP1 ISZERO PUSH2 0x2E8 JUMPI JUMPDEST DUP1 ISZERO PUSH2 0x2D3 JUMPI JUMPDEST PUSH2 0x103 SWAP1 PUSH2 0xE07 JUMP JUMPDEST PUSH2 0x10E DUP4 DUP6 DUP5 PUSH2 0x11F2 JUMP JUMPDEST DUP8 SLOAD SWAP1 SWAP5 PUSH1 0x1 PUSH1 0x1 PUSH1 0xA0 SHL SUB SWAP2 DUP10 SWAP1 DUP4 AND DUP1 EXTCODESIZE ISZERO PUSH2 0x2CF JUMPI DUP9 MLOAD PUSH4 0x95359D6B PUSH1 0xE0 SHL DUP2 MSTORE DUP1 DUP7 ADD DUP12 DUP2 MSTORE DUP8 ISZERO ISZERO PUSH1 0x20 DUP3 ADD MSTORE PUSH1 0x40 DUP2 ADD DUP6 SWAP1 MSTORE SWAP1 SWAP2 DUP4 SWAP2 DUP4 SWAP2 SWAP1 DUP3 SWAP1 DUP5 SWAP1 DUP3 SWAP1 PUSH1 0x60 ADD SUB SWAP3 GAS CALL DUP1 ISZERO PUSH2 0x2C5 JUMPI PUSH2 0x2AD JUMPI JUMPDEST POP POP PUSH2 0x173 DUP2 DUP6 DUP11 PUSH2 0x129D JUMP JUMPDEST DUP8 DUP10 MSTORE PUSH1 0x20 SWAP5 DUP4 DUP7 MSTORE DUP8 DUP11 KECCAK256 SWAP1 DUP9 MLOAD SWAP3 PUSH2 0x18C DUP5 PUSH2 0xD08 JUMP JUMPDEST DUP11 DUP5 MSTORE DUP10 MLOAD DUP9 DUP2 ADD DUP2 DUP2 LT PUSH8 0xFFFFFFFFFFFFFFFF DUP3 GT OR PUSH2 0x298 JUMPI DUP12 MSTORE DUP13 DUP2 MSTORE DUP5 DUP10 ADD MSTORE DUP7 ISZERO ISZERO DUP11 DUP6 ADD MSTORE PUSH1 0x60 DUP5 ADD MSTORE PUSH1 0x80 DUP4 ADD MSTORE TIMESTAMP PUSH1 0xA0 DUP4 ADD MSTORE DUP6 SWAP3 DUP10 SWAP3 PUSH1 0x24 SWAP3 PUSH2 0x1D8 SWAP2 SWAP1 PUSH2 0xEEC JUMP JUMPDEST DUP11 SLOAD AND SWAP4 DUP9 MLOAD SWAP5 DUP6 SWAP4 DUP5 SWAP3 PUSH4 0x107E7A89 PUSH1 0xE3 SHL DUP5 MSTORE DUP4 ADD MSTORE GAS STATICCALL SWAP3 DUP4 ISZERO PUSH2 0x28E JUMPI DUP8 SWAP4 PUSH2 0x257 JUMPI JUMPDEST POP POP PUSH32 0xEEC147B56042117961ED3D136CD43A67947C39CE0CD9D2EDF9B0344FA954A4FF SWAP4 PUSH2 0x243 SWAP2 PUSH1 0x0 EQ PUSH2 0x249 JUMPI PUSH2 0x237 PUSH2 0x10D9 JUMP JUMPDEST SWAP1 JUMPDEST MLOAD SWAP4 DUP5 SWAP4 DUP5 PUSH2 0x111D JUMP JUMPDEST SUB SWAP1 LOG2 DUP1 RETURN JUMPDEST PUSH2 0x251 PUSH2 0x1093 JUMP JUMPDEST SWAP1 PUSH2 0x239 JUMP JUMPDEST SWAP1 DUP1 SWAP3 SWAP4 POP DUP2 RETURNDATASIZE DUP4 GT PUSH2 0x287 JUMPI JUMPDEST PUSH2 0x26F DUP2 DUP4 PUSH2 0xD40 JUMP JUMPDEST DUP2 ADD SUB SLT PUSH2 0x282 JUMPI MLOAD SWAP1 DUP4 PUSH2 0x243 PUSH2 0x200 JUMP JUMPDEST PUSH1 0x0 DUP1 REVERT JUMPDEST POP RETURNDATASIZE PUSH2 0x265 JUMP JUMPDEST DUP6 MLOAD RETURNDATASIZE DUP10 DUP3 RETURNDATACOPY RETURNDATASIZE SWAP1 REVERT JUMPDEST PUSH1 0x41 DUP9 PUSH4 0x4E487B71 PUSH1 0xE0 SHL PUSH1 0x0 MSTORE MSTORE PUSH1 0x24 PUSH1 0x0 REVERT JUMPDEST PUSH2 0x2B6 SWAP1 PUSH2 0xCDE JUMP JUMPDEST PUSH2 0x2C1 JUMPI DUP9 CODESIZE PUSH2 0x166 JUMP JUMPDEST DUP9 DUP1 REVERT JUMPDEST DUP10 MLOAD RETURNDATASIZE DUP5 DUP3 RETURNDATACOPY RETURNDATASIZE SWAP1 REVERT JUMPDEST POP DUP1 REVERT JUMPDEST POP CALLER DUP8 MSTORE PUSH1 0x3 PUSH1 0x20 MSTORE DUP5 DUP8 KECCAK256 SLOAD PUSH1 0xFF AND PUSH2 0xFA JUMP JUMPDEST POP PUSH1 0x2 SLOAD PUSH1 0x1 PUSH1 0x1 PUSH1 0xA0 SHL SUB AND CALLER EQ PUSH2 0xF3 JUMP JUMPDEST DUP3 DUP1 REVERT JUMPDEST DUP4 DUP3 CALLVALUE PUSH2 0x2CF JUMPI DUP2 PUSH1 0x3 NOT CALLDATASIZE ADD SLT PUSH2 0x2CF JUMPI PUSH1 0x2 SLOAD SWAP1 MLOAD PUSH1 0x1 PUSH1 0x1 PUSH1 0xA0 SHL SUB SWAP1 SWAP2 AND DUP2 MSTORE PUSH1 0x20 SWAP1 RETURN JUMPDEST POP DUP3 SWAP1 CALLVALUE PUSH2 0x2CF JUMPI PUSH1 0x20 SWAP3 DUP4 PUSH1 0x3 NOT CALLDATASIZE ADD SLT PUSH2 0x2FC JUMPI DUP3 SLOAD DUP3 MLOAD PUSH4 0x107E7A89 PUSH1 0xE3 SHL DUP2 MSTORE DUP3 CALLDATALOAD SWAP3 DUP2 ADD SWAP3 SWAP1 SWAP3 MSTORE DUP5 SWAP1 DUP3 SWAP1 PUSH1 0x24 SWAP1 DUP3 SWAP1 PUSH1 0x1 PUSH1 0x1 PUSH1 0xA0 SHL SUB AND GAS STATICCALL SWAP3 DUP4 ISZERO PUSH2 0x3AD JUMPI SWAP3 PUSH2 0x37E JUMPI JUMPDEST POP MLOAD SWAP1 DUP2 MSTORE RETURN JUMPDEST SWAP1 SWAP2 POP DUP3 DUP2 DUP2 RETURNDATASIZE DUP4 GT PUSH2 0x3A6 JUMPI JUMPDEST PUSH2 0x396 DUP2 DUP4 PUSH2 0xD40 JUMP JUMPDEST DUP2 ADD SUB SLT PUSH2 0x282 JUMPI MLOAD SWAP1 DUP4 PUSH2 0x377 JUMP JUMPDEST POP RETURNDATASIZE PUSH2 0x38C JUMP JUMPDEST DUP3 MLOAD SWAP1 RETURNDATASIZE SWAP1 DUP3 RETURNDATACOPY RETURNDATASIZE SWAP1 REVERT JUMPDEST DUP4 DUP3 CALLVALUE PUSH2 0x2CF JUMPI PUSH1 0x20 CALLDATASIZE PUSH1 0x3 NOT ADD SLT PUSH2 0x2CF JUMPI PUSH1 0x20 SWAP2 PUSH1 0xFF SWAP1 DUP3 SWAP1 PUSH1 0x1 PUSH1 0x1 PUSH1 0xA0 SHL SUB PUSH2 0x3E3 PUSH2 0xC5C JUMP JUMPDEST AND DUP2 MSTORE PUSH1 0x3 DUP6 MSTORE KECCAK256 SLOAD AND SWAP1 MLOAD SWAP1 ISZERO ISZERO DUP2 MSTORE RETURN JUMPDEST DUP4 DUP3 CALLVALUE PUSH2 0x2CF JUMPI DUP2 PUSH1 0x3 NOT CALLDATASIZE ADD SLT PUSH2 0x2CF JUMPI PUSH1 0x20 SWAP1 MLOAD PUSH1 0x5 DUP2 MSTORE RETURN JUMPDEST DUP4 DUP3 CALLVALUE PUSH2 0x2CF JUMPI DUP2 PUSH1 0x3 NOT CALLDATASIZE ADD SLT PUSH2 0x2CF JUMPI PUSH1 0x1 SLOAD SWAP1 MLOAD PUSH1 0x1 PUSH1 0x1 PUSH1 0xA0 SHL SUB SWAP1 SWAP2 AND DUP2 MSTORE PUSH1 0x20 SWAP1 RETURN JUMPDEST POP DUP3 CALLVALUE PUSH2 0x4D0 JUMPI DUP2 PUSH1 0x3 NOT CALLDATASIZE ADD SLT PUSH2 0x4D0 JUMPI PUSH1 0x24 CALLDATALOAD SWAP1 DUP4 CALLDATALOAD DUP2 MSTORE DUP4 PUSH1 0x20 MSTORE DUP3 DUP2 KECCAK256 SWAP1 DUP2 SLOAD DUP4 LT ISZERO PUSH2 0x4D0 JUMPI POP SWAP1 PUSH2 0x471 SWAP2 PUSH2 0xC72 JUMP JUMPDEST POP SWAP2 DUP3 SLOAD SWAP2 PUSH2 0x482 PUSH1 0x1 DUP6 ADD PUSH2 0xD62 JUMP JUMPDEST SWAP4 PUSH1 0xFF PUSH1 0x2 DUP3 ADD SLOAD AND SWAP3 PUSH1 0x5 PUSH1 0x3 DUP4 ADD SLOAD SWAP2 DUP4 ADD SLOAD SWAP3 ADD SLOAD SWAP3 PUSH2 0x4B6 DUP2 MLOAD SWAP8 DUP9 SWAP8 DUP9 MSTORE PUSH1 0xC0 PUSH1 0x20 DUP10 ADD MSTORE PUSH1 0xC0 DUP9 ADD SWAP1 PUSH2 0xC37 JUMP JUMPDEST SWAP5 ISZERO ISZERO SWAP1 DUP7 ADD MSTORE PUSH1 0x60 DUP6 ADD MSTORE PUSH1 0x80 DUP5 ADD MSTORE PUSH1 0xA0 DUP4 ADD MSTORE SUB SWAP1 RETURN JUMPDEST DUP1 REVERT JUMPDEST POP SWAP1 CALLVALUE PUSH2 0x2FC JUMPI DUP2 PUSH1 0x3 NOT CALLDATASIZE ADD SLT PUSH2 0x2FC JUMPI PUSH2 0x4ED PUSH2 0xC5C JUMP JUMPDEST SWAP1 PUSH2 0x4F6 PUSH2 0xC05 JUMP JUMPDEST PUSH1 0x2 SLOAD SWAP1 SWAP3 PUSH1 0x1 PUSH1 0x1 PUSH1 0xA0 SHL SUB SWAP3 SWAP1 SWAP2 DUP4 AND CALLER SUB PUSH2 0x560 JUMPI POP SWAP2 PUSH1 0x20 SWAP2 PUSH32 0x1EFF62A53441C7D0125C22F2A9A324E206B34EFA41E19469D7EFB9BB703D21A3 SWAP4 AND SWAP4 DUP5 DUP7 MSTORE PUSH1 0x3 DUP4 MSTORE PUSH2 0x556 DUP3 DUP3 DUP9 KECCAK256 SWAP1 PUSH1 0xFF DUP1 NOT DUP4 SLOAD AND SWAP2 ISZERO ISZERO AND OR SWAP1 SSTORE JUMP JUMPDEST MLOAD SWAP1 ISZERO ISZERO DUP2 MSTORE LOG2 DUP1 RETURN JUMPDEST PUSH1 0x64 SWAP1 PUSH1 0x20 DUP7 MLOAD SWAP2 PUSH3 0x461BCD PUSH1 0xE5 SHL DUP4 MSTORE DUP3 ADD MSTORE PUSH1 0x1C PUSH1 0x24 DUP3 ADD MSTORE PUSH32 0x52657075746174696F6E4D616E616765723A206E6F74206F776E657200000000 PUSH1 0x44 DUP3 ADD MSTORE REVERT JUMPDEST POP SWAP1 CALLVALUE PUSH2 0x2FC JUMPI PUSH1 0x20 CALLDATASIZE PUSH1 0x3 NOT ADD SLT PUSH2 0x2FC JUMPI DUP2 PUSH2 0x120 SWAP4 DUP3 CALLDATALOAD DUP2 MSTORE PUSH1 0x5 PUSH1 0x20 MSTORE KECCAK256 DUP1 SLOAD SWAP3 PUSH1 0x1 DUP3 ADD SLOAD SWAP3 PUSH1 0x2 DUP4 ADD SLOAD SWAP1 PUSH1 0x3 DUP5 ADD SLOAD SWAP1 DUP5 ADD SLOAD SWAP1 PUSH1 0x5 DUP6 ADD SLOAD SWAP3 PUSH1 0x6 DUP7 ADD SLOAD SWAP5 PUSH1 0x8 PUSH1 0x7 DUP9 ADD SLOAD SWAP8 ADD SLOAD SWAP8 DUP2 MLOAD SWAP10 DUP11 MSTORE PUSH1 0x20 DUP11 ADD MSTORE DUP9 ADD MSTORE PUSH1 0x60 DUP8 ADD MSTORE PUSH1 0x80 DUP7 ADD MSTORE PUSH1 0xA0 DUP6 ADD MSTORE PUSH1 0xC0 DUP5 ADD MSTORE PUSH1 0xE0 DUP4 ADD MSTORE PUSH2 0x100 DUP3 ADD MSTORE RETURN JUMPDEST POP SWAP2 SWAP1 CALLVALUE PUSH2 0x2CF JUMPI PUSH1 0x20 SWAP1 DUP2 PUSH1 0x3 NOT CALLDATASIZE ADD SLT PUSH2 0x2FC JUMPI DUP1 CALLDATALOAD DUP4 MSTORE DUP1 DUP3 MSTORE DUP4 DUP4 KECCAK256 SWAP2 DUP3 SLOAD PUSH8 0xFFFFFFFFFFFFFFFF DUP2 GT PUSH2 0x784 JUMPI DUP6 MLOAD SWAP2 SWAP5 SWAP3 PUSH1 0x5 SWAP1 PUSH2 0x66B DUP4 DUP4 SHL DUP9 ADD DUP6 PUSH2 0xD40 JUMP JUMPDEST DUP3 DUP5 MSTORE DUP7 DUP5 ADD SWAP2 DUP3 SWAP7 DUP7 MSTORE DUP8 DUP7 KECCAK256 SWAP2 DUP7 SWAP4 JUMPDEST DUP6 DUP6 LT PUSH2 0x71E JUMPI POP POP POP POP POP POP DUP5 MLOAD SWAP4 DUP1 DUP6 ADD SWAP2 DUP2 DUP7 MSTORE MLOAD DUP1 SWAP3 MSTORE DUP6 DUP6 ADD DUP7 DUP4 PUSH1 0x5 SHL DUP8 ADD ADD SWAP5 SWAP4 SWAP7 JUMPDEST DUP4 DUP9 LT PUSH2 0x6B4 JUMPI DUP7 DUP7 SUB DUP8 RETURN JUMPDEST SWAP1 SWAP2 SWAP3 SWAP4 SWAP5 DUP4 DUP1 PUSH1 0x1 SWAP3 PUSH1 0x3F NOT DUP11 DUP3 SUB ADD DUP7 MSTORE DUP9 MLOAD SWAP1 PUSH2 0x6E5 PUSH1 0xC0 DUP4 MLOAD DUP4 MSTORE DUP5 DUP5 ADD MLOAD SWAP1 DUP1 DUP7 DUP6 ADD MSTORE DUP4 ADD SWAP1 PUSH2 0xC37 JUMP JUMPDEST SWAP2 DUP7 DUP2 ADD MLOAD ISZERO ISZERO DUP8 DUP4 ADD MSTORE PUSH1 0x60 DUP1 DUP3 ADD MLOAD SWAP1 DUP4 ADD MSTORE PUSH1 0x80 DUP1 DUP3 ADD MLOAD SWAP1 DUP4 ADD MSTORE PUSH1 0xA0 DUP1 SWAP2 ADD MLOAD SWAP2 ADD MSTORE SWAP8 ADD SWAP4 ADD SWAP8 ADD SWAP7 SWAP1 SWAP4 SWAP3 SWAP2 SWAP4 PUSH2 0x6A7 JUMP JUMPDEST PUSH1 0x6 DUP11 PUSH1 0x1 SWAP3 DUP14 DUP1 SWAP14 SWAP11 SWAP12 SWAP14 MLOAD SWAP1 PUSH2 0x735 DUP3 PUSH2 0xD08 JUMP JUMPDEST DUP9 SLOAD DUP3 MSTORE PUSH2 0x744 DUP7 DUP11 ADD PUSH2 0xD62 JUMP JUMPDEST DUP5 DUP4 ADD MSTORE PUSH1 0xFF PUSH1 0x2 DUP11 ADD SLOAD AND ISZERO ISZERO SWAP1 DUP3 ADD MSTORE PUSH1 0x3 DUP9 ADD SLOAD PUSH1 0x60 DUP3 ADD MSTORE DUP6 DUP9 ADD SLOAD PUSH1 0x80 DUP3 ADD MSTORE DUP7 DUP9 ADD SLOAD PUSH1 0xA0 DUP3 ADD MSTORE DUP2 MSTORE ADD SWAP5 ADD SWAP5 ADD SWAP4 SWAP3 SWAP9 SWAP7 SWAP6 SWAP9 PUSH2 0x67D JUMP JUMPDEST PUSH4 0x4E487B71 PUSH1 0xE0 SHL DUP6 MSTORE PUSH1 0x41 DUP4 MSTORE PUSH1 0x24 DUP6 REVERT JUMPDEST POP DUP3 CALLVALUE PUSH2 0x4D0 JUMPI PUSH1 0x20 CALLDATASIZE PUSH1 0x3 NOT ADD SLT PUSH2 0x4D0 JUMPI DUP3 CALLDATALOAD DUP2 MSTORE PUSH1 0x5 PUSH1 0x20 MSTORE DUP2 DUP2 KECCAK256 SWAP2 PUSH1 0x5 DUP4 ADD SLOAD SWAP1 DUP4 SLOAD SWAP4 PUSH1 0x1 DUP2 ADD SLOAD SWAP2 PUSH1 0x2 DUP3 ADD SLOAD SWAP1 DUP8 DUP4 ADD SLOAD SWAP6 DUP6 ISZERO SWAP1 DUP2 ISZERO SWAP5 DUP6 PUSH1 0x0 EQ PUSH2 0x8A7 JUMPI PUSH1 0x3 DUP2 ADD SLOAD DUP4 PUSH2 0x894 JUMPI PUSH1 0x1 PUSH1 0xFF SHL DUP2 EQ PUSH1 0x0 NOT DUP11 EQ AND PUSH2 0x881 JUMPI DUP9 SWAP1 SDIV SWAP6 JUMPDEST ISZERO PUSH2 0x874 JUMPI PUSH1 0x6 ADD SLOAD SWAP2 PUSH2 0x2710 SWAP3 DUP4 DUP2 MUL SWAP4 DUP2 DUP6 DIV EQ SWAP1 ISZERO OR ISZERO PUSH2 0x861 JUMPI PUSH2 0x84E JUMPI POP PUSH1 0xE0 SWAP9 POP DUP6 SWAP1 DIV SWAP4 JUMPDEST DUP2 MLOAD SWAP8 DUP9 MSTORE PUSH1 0x20 DUP9 ADD MSTORE DUP7 ADD MSTORE PUSH1 0x60 DUP6 ADD MSTORE PUSH1 0x80 DUP5 ADD MSTORE PUSH1 0xA0 DUP4 ADD MSTORE PUSH1 0xC0 DUP3 ADD MSTORE RETURN JUMPDEST PUSH4 0x4E487B71 PUSH1 0xE0 SHL DUP2 MSTORE PUSH1 0x12 DUP11 MSTORE PUSH1 0x24 SWAP1 REVERT JUMPDEST PUSH4 0x4E487B71 PUSH1 0xE0 SHL DUP3 MSTORE PUSH1 0x11 DUP12 MSTORE PUSH1 0x24 DUP3 REVERT JUMPDEST POP SWAP1 POP PUSH1 0xE0 SWAP9 POP SWAP4 PUSH2 0x82B JUMP JUMPDEST PUSH4 0x4E487B71 PUSH1 0xE0 SHL DUP4 MSTORE PUSH1 0x11 DUP13 MSTORE PUSH1 0x24 DUP4 REVERT JUMPDEST PUSH4 0x4E487B71 PUSH1 0xE0 SHL DUP4 MSTORE PUSH1 0x12 DUP13 MSTORE PUSH1 0x24 DUP4 REVERT JUMPDEST DUP2 SWAP6 PUSH2 0x7FF JUMP JUMPDEST POP CALLVALUE PUSH2 0x2FC JUMPI PUSH1 0x80 CALLDATASIZE PUSH1 0x3 NOT ADD SLT PUSH2 0x2FC JUMPI DUP3 DUP3 CALLDATALOAD SWAP3 PUSH1 0x24 SWAP1 DUP2 CALLDATALOAD SWAP1 PUSH8 0xFFFFFFFFFFFFFFFF SWAP2 DUP3 DUP2 GT PUSH2 0xADF JUMPI CALLDATASIZE PUSH1 0x23 DUP3 ADD SLT ISZERO PUSH2 0xADF JUMPI DUP1 DUP3 ADD CALLDATALOAD SWAP4 DUP4 DUP6 GT PUSH2 0xBBD JUMPI DUP1 DUP3 ADD SWAP2 DUP2 DUP7 CALLDATASIZE SWAP3 ADD ADD GT PUSH2 0xBBD JUMPI PUSH1 0x44 CALLDATALOAD SWAP4 DUP5 ISZERO ISZERO SWAP6 DUP7 DUP7 SUB PUSH2 0xBB9 JUMPI PUSH1 0x64 CALLDATALOAD SWAP2 PUSH2 0x91D DUP12 PUSH2 0x1139 JUMP JUMPDEST DUP1 ISZERO PUSH2 0xBA5 JUMPI JUMPDEST DUP1 ISZERO PUSH2 0xB90 JUMPI JUMPDEST PUSH2 0x934 SWAP1 PUSH2 0xE07 JUMP JUMPDEST PUSH1 0x1 SLOAD DUP11 MLOAD PUSH4 0x9AE52CB PUSH1 0xE2 SHL DUP2 MSTORE PUSH1 0x20 DUP9 DUP3 ADD DUP2 SWAP1 MSTORE SWAP10 PUSH1 0x1 PUSH1 0x1 PUSH1 0xA0 SHL SUB SWAP6 SWAP3 SWAP1 SWAP2 SWAP1 DUP7 AND SWAP1 DUP13 DUP2 DUP1 PUSH2 0x96C DUP12 DUP3 ADD DUP11 DUP15 PUSH2 0xECB JUMP JUMPDEST SUB DUP2 DUP6 GAS STATICCALL SWAP5 DUP6 ISZERO PUSH2 0xB86 JUMPI DUP14 SWAP6 PUSH2 0xB06 JUMPI JUMPDEST POP POP PUSH2 0x98C DUP5 DUP5 DUP13 PUSH2 0x11F2 JUMP JUMPDEST SWAP12 DUP2 EXTCODESIZE ISZERO PUSH2 0x4D0 JUMPI DUP6 DUP10 SWAP3 DUP16 DUP4 DUP14 DUP13 DUP9 PUSH2 0x9C1 PUSH1 0x60 SWAP6 MLOAD SWAP10 DUP11 SWAP9 DUP10 SWAP8 DUP9 SWAP7 PUSH4 0x18A2787D PUSH1 0xE1 SHL DUP9 MSTORE DUP8 ADD MSTORE PUSH1 0x64 DUP7 ADD SWAP2 PUSH2 0xECB JUMP JUMPDEST SWAP2 DUP4 ADD MSTORE DUP10 PUSH1 0x44 DUP4 ADD MSTORE SUB SWAP3 GAS CALL DUP1 ISZERO PUSH2 0xAFA JUMPI PUSH2 0xAE3 JUMPI JUMPDEST POP SWAP1 DUP14 SWAP3 SWAP2 DUP6 DUP5 SLOAD AND SWAP8 DUP9 EXTCODESIZE ISZERO PUSH2 0xADF JUMPI DUP5 DUP16 SWAP10 DUP16 SWAP1 DUP14 DUP4 DUP15 DUP9 SWAP5 MLOAD SWAP15 DUP16 SWAP6 DUP7 SWAP5 DUP6 SWAP4 PUSH4 0x95359D6B PUSH1 0xE0 SHL DUP6 MSTORE DUP5 ADD SWAP3 PUSH2 0xA26 SWAP4 PUSH1 0x40 SWAP2 SWAP5 SWAP4 SWAP3 PUSH1 0x60 DUP3 ADD SWAP6 DUP3 MSTORE ISZERO ISZERO PUSH1 0x20 DUP3 ADD MSTORE ADD MSTORE JUMP JUMPDEST SUB SWAP3 GAS CALL DUP1 ISZERO PUSH2 0xAD5 JUMPI SWAP2 DUP16 SWAP8 SWAP6 SWAP4 SWAP2 DUP16 SWAP1 DUP14 DUP16 SWAP12 SWAP10 SWAP8 SWAP6 PUSH2 0xAAF JUMPI JUMPDEST DUP11 SWAP12 SWAP13 POP DUP5 PUSH2 0xA57 SWAP2 PUSH2 0x1D8 SWAP11 SWAP12 SWAP13 PUSH2 0x129D JUMP JUMPDEST DUP11 DUP7 MSTORE DUP13 DUP13 MSTORE DUP2 DUP7 KECCAK256 SWAP6 DUP13 DUP4 MLOAD SWAP9 PUSH2 0xA6E DUP11 PUSH2 0xD08 JUMP JUMPDEST DUP14 DUP11 MSTORE DUP1 PUSH2 0xA7B DUP2 PUSH2 0xE5D JUMP JUMPDEST SWAP5 PUSH2 0xA88 DUP8 MLOAD SWAP7 DUP8 PUSH2 0xD40 JUMP JUMPDEST DUP2 DUP7 MSTORE DUP4 DUP7 ADD CALLDATACOPY DUP4 ADD ADD MSTORE DUP12 DUP8 ADD MSTORE DUP6 ADD MSTORE PUSH1 0x60 DUP5 ADD MSTORE PUSH1 0x80 DUP4 ADD MSTORE TIMESTAMP PUSH1 0xA0 DUP4 ADD MSTORE PUSH2 0xEEC JUMP JUMPDEST POP SWAP7 SWAP8 SWAP9 POP POP SWAP8 POP SWAP8 PUSH2 0xAC2 DUP4 SWAP2 PUSH2 0xCDE JUMP JUMPDEST PUSH2 0x2CF JUMPI DUP8 DUP12 SWAP8 DUP16 SWAP8 SWAP7 SWAP6 DUP16 SWAP1 DUP14 PUSH2 0xA43 JUMP JUMPDEST DUP15 MLOAD RETURNDATASIZE DUP8 DUP3 RETURNDATACOPY RETURNDATASIZE SWAP1 REVERT JUMPDEST DUP5 DUP1 REVERT JUMPDEST PUSH2 0xAF1 SWAP1 SWAP15 SWAP2 SWAP4 SWAP3 SWAP15 PUSH2 0xCDE JUMP JUMPDEST SWAP13 SWAP1 SWAP2 CODESIZE PUSH2 0x9DA JUMP JUMPDEST DUP16 DUP15 MLOAD SWAP1 RETURNDATASIZE SWAP1 DUP3 RETURNDATACOPY RETURNDATASIZE SWAP1 REVERT JUMPDEST SWAP2 SWAP5 POP SWAP1 RETURNDATASIZE DUP1 DUP15 DUP5 RETURNDATACOPY PUSH2 0xB19 DUP2 DUP5 PUSH2 0xD40 JUMP JUMPDEST DUP3 ADD PUSH2 0x100 DUP4 DUP3 SUB SLT PUSH2 0xB82 JUMPI DUP13 DUP4 ADD MLOAD DUP3 DUP2 GT PUSH2 0xB7E JUMPI DUP16 SWAP1 DUP3 PUSH2 0xB3F SWAP2 DUP7 ADD PUSH2 0xE79 JUMP JUMPDEST POP DUP4 ADD MLOAD SWAP3 PUSH1 0x60 DUP2 ADD MLOAD SWAP3 DUP4 GT PUSH2 0xB7E JUMPI PUSH2 0xB61 PUSH1 0xC0 SWAP3 PUSH2 0xB75 SWAP5 DUP4 ADD PUSH2 0xE79 JUMP JUMPDEST POP PUSH2 0xB6E PUSH1 0xA0 DUP3 ADD PUSH2 0xEBE JUMP JUMPDEST POP ADD PUSH2 0xEBE JUMP JUMPDEST POP SWAP3 CODESIZE DUP1 PUSH2 0x97F JUMP JUMPDEST DUP15 DUP1 REVERT JUMPDEST DUP14 DUP1 REVERT JUMPDEST DUP15 MLOAD RETURNDATASIZE DUP16 DUP3 RETURNDATACOPY RETURNDATASIZE SWAP1 REVERT JUMPDEST POP CALLER DUP10 MSTORE PUSH1 0x3 PUSH1 0x20 MSTORE DUP10 DUP10 KECCAK256 SLOAD PUSH1 0xFF AND PUSH2 0x92B JUMP JUMPDEST POP PUSH1 0x2 SLOAD PUSH1 0x1 PUSH1 0x1 PUSH1 0xA0 SHL SUB AND CALLER EQ PUSH2 0x924 JUMP JUMPDEST DUP8 DUP1 REVERT JUMPDEST DUP6 DUP1 REVERT JUMPDEST DUP4 DUP3 CALLVALUE PUSH2 0x2CF JUMPI DUP2 PUSH1 0x3 NOT CALLDATASIZE ADD SLT PUSH2 0x2CF JUMPI SWAP1 SLOAD SWAP1 MLOAD PUSH1 0x1 PUSH1 0x1 PUSH1 0xA0 SHL SUB SWAP1 SWAP2 AND DUP2 MSTORE PUSH1 0x20 SWAP1 RETURN JUMPDEST DUP5 SWAP1 CALLVALUE PUSH2 0x2CF JUMPI DUP2 PUSH1 0x3 NOT CALLDATASIZE ADD SLT PUSH2 0x2CF JUMPI PUSH1 0x2 NOT DUP2 MSTORE PUSH1 0x20 SWAP1 RETURN JUMPDEST PUSH1 0x24 CALLDATALOAD SWAP1 DUP2 ISZERO ISZERO DUP3 SUB PUSH2 0x282 JUMPI JUMP JUMPDEST PUSH1 0x0 JUMPDEST DUP4 DUP2 LT PUSH2 0xC27 JUMPI POP POP PUSH1 0x0 SWAP2 ADD MSTORE JUMP JUMPDEST DUP2 DUP2 ADD MLOAD DUP4 DUP3 ADD MSTORE PUSH1 0x20 ADD PUSH2 0xC17 JUMP JUMPDEST SWAP1 PUSH1 0x20 SWAP2 PUSH2 0xC50 DUP2 MLOAD DUP1 SWAP3 DUP2 DUP6 MSTORE DUP6 DUP1 DUP7 ADD SWAP2 ADD PUSH2 0xC14 JUMP JUMPDEST PUSH1 0x1F ADD PUSH1 0x1F NOT AND ADD ADD SWAP1 JUMP JUMPDEST PUSH1 0x4 CALLDATALOAD SWAP1 PUSH1 0x1 PUSH1 0x1 PUSH1 0xA0 SHL SUB DUP3 AND DUP3 SUB PUSH2 0x282 JUMPI JUMP JUMPDEST DUP1 SLOAD DUP3 LT ISZERO PUSH2 0xC8E JUMPI PUSH1 0x0 MSTORE PUSH1 0x6 PUSH1 0x20 PUSH1 0x0 KECCAK256 SWAP2 MUL ADD SWAP1 PUSH1 0x0 SWAP1 JUMP JUMPDEST PUSH4 0x4E487B71 PUSH1 0xE0 SHL PUSH1 0x0 MSTORE PUSH1 0x32 PUSH1 0x4 MSTORE PUSH1 0x24 PUSH1 0x0 REVERT JUMPDEST SWAP1 PUSH1 0x1 DUP3 DUP2 SHR SWAP3 AND DUP1 ISZERO PUSH2 0xCD4 JUMPI JUMPDEST PUSH1 0x20 DUP4 LT EQ PUSH2 0xCBE JUMPI JUMP JUMPDEST PUSH4 0x4E487B71 PUSH1 0xE0 SHL PUSH1 0x0 MSTORE PUSH1 0x22 PUSH1 0x4 MSTORE PUSH1 0x24 PUSH1 0x0 REVERT JUMPDEST SWAP2 PUSH1 0x7F AND SWAP2 PUSH2 0xCB3 JUMP JUMPDEST PUSH8 0xFFFFFFFFFFFFFFFF DUP2 GT PUSH2 0xCF2 JUMPI PUSH1 0x40 MSTORE JUMP JUMPDEST PUSH4 0x4E487B71 PUSH1 0xE0 SHL PUSH1 0x0 MSTORE PUSH1 0x41 PUSH1 0x4 MSTORE PUSH1 0x24 PUSH1 0x0 REVERT JUMPDEST PUSH1 0xC0 DUP2 ADD SWAP1 DUP2 LT PUSH8 0xFFFFFFFFFFFFFFFF DUP3 GT OR PUSH2 0xCF2 JUMPI PUSH1 0x40 MSTORE JUMP JUMPDEST PUSH1 0x60 DUP2 ADD SWAP1 DUP2 LT PUSH8 0xFFFFFFFFFFFFFFFF DUP3 GT OR PUSH2 0xCF2 JUMPI PUSH1 0x40 MSTORE JUMP JUMPDEST SWAP1 PUSH1 0x1F DUP1 NOT SWAP2 ADD AND DUP2 ADD SWAP1 DUP2 LT PUSH8 0xFFFFFFFFFFFFFFFF DUP3 GT OR PUSH2 0xCF2 JUMPI PUSH1 0x40 MSTORE JUMP JUMPDEST SWAP1 PUSH1 0x40 MLOAD SWAP2 DUP3 PUSH1 0x0 DUP3 SLOAD PUSH2 0xD75 DUP2 PUSH2 0xCA4 JUMP JUMPDEST SWAP1 DUP2 DUP5 MSTORE PUSH1 0x20 SWAP5 PUSH1 0x1 SWAP2 PUSH1 0x1 DUP2 AND SWAP1 DUP2 PUSH1 0x0 EQ PUSH2 0xDE5 JUMPI POP PUSH1 0x1 EQ PUSH2 0xDA6 JUMPI JUMPDEST POP POP POP PUSH2 0xDA4 SWAP3 POP SUB DUP4 PUSH2 0xD40 JUMP JUMPDEST JUMP JUMPDEST PUSH1 0x0 SWAP1 DUP2 MSTORE DUP6 DUP2 KECCAK256 SWAP6 SWAP4 POP SWAP2 SWAP1 JUMPDEST DUP2 DUP4 LT PUSH2 0xDCD JUMPI POP POP PUSH2 0xDA4 SWAP4 POP DUP3 ADD ADD CODESIZE DUP1 DUP1 PUSH2 0xD95 JUMP JUMPDEST DUP6 SLOAD DUP9 DUP5 ADD DUP6 ADD MSTORE SWAP5 DUP6 ADD SWAP5 DUP8 SWAP5 POP SWAP2 DUP4 ADD SWAP2 PUSH2 0xDB4 JUMP JUMPDEST SWAP3 POP POP POP PUSH2 0xDA4 SWAP5 SWAP3 POP PUSH1 0xFF NOT AND DUP3 DUP5 ADD MSTORE ISZERO ISZERO PUSH1 0x5 SHL DUP3 ADD ADD CODESIZE DUP1 DUP1 PUSH2 0xD95 JUMP JUMPDEST ISZERO PUSH2 0xE0E JUMPI JUMP JUMPDEST PUSH1 0x40 MLOAD PUSH3 0x461BCD PUSH1 0xE5 SHL DUP2 MSTORE PUSH1 0x20 PUSH1 0x4 DUP3 ADD MSTORE PUSH1 0x21 PUSH1 0x24 DUP3 ADD MSTORE PUSH32 0x52657075746174696F6E4D616E616765723A206E6F7420617574686F72697A65 PUSH1 0x44 DUP3 ADD MSTORE PUSH1 0x19 PUSH1 0xFA SHL PUSH1 0x64 DUP3 ADD MSTORE PUSH1 0x84 SWAP1 REVERT JUMPDEST PUSH8 0xFFFFFFFFFFFFFFFF DUP2 GT PUSH2 0xCF2 JUMPI PUSH1 0x1F ADD PUSH1 0x1F NOT AND PUSH1 0x20 ADD SWAP1 JUMP JUMPDEST DUP2 PUSH1 0x1F DUP3 ADD SLT ISZERO PUSH2 0x282 JUMPI DUP1 MLOAD PUSH2 0xE8F DUP2 PUSH2 0xE5D JUMP JUMPDEST SWAP3 PUSH2 0xE9D PUSH1 0x40 MLOAD SWAP5 DUP6 PUSH2 0xD40 JUMP JUMPDEST DUP2 DUP5 MSTORE PUSH1 0x20 DUP3 DUP5 ADD ADD GT PUSH2 0x282 JUMPI PUSH2 0xEBB SWAP2 PUSH1 0x20 DUP1 DUP6 ADD SWAP2 ADD PUSH2 0xC14 JUMP JUMPDEST SWAP1 JUMP JUMPDEST MLOAD SWAP1 DUP2 ISZERO ISZERO DUP3 SUB PUSH2 0x282 JUMPI JUMP JUMPDEST SWAP1 DUP1 PUSH1 0x20 SWAP4 SWAP3 DUP2 DUP5 MSTORE DUP5 DUP5 ADD CALLDATACOPY PUSH1 0x0 DUP3 DUP3 ADD DUP5 ADD MSTORE PUSH1 0x1F ADD PUSH1 0x1F NOT AND ADD ADD SWAP1 JUMP JUMPDEST DUP1 SLOAD PUSH9 0x10000000000000000 DUP2 LT ISZERO PUSH2 0xCF2 JUMPI PUSH2 0xF10 SWAP1 PUSH1 0x1 SWAP3 DUP4 DUP3 ADD DUP2 SSTORE PUSH2 0xC72 JUMP JUMPDEST SWAP3 SWAP1 SWAP3 PUSH2 0x107D JUMPI DUP1 MLOAD DUP4 SSTORE DUP2 DUP4 ADD PUSH1 0x20 DUP1 DUP4 ADD MLOAD SWAP4 DUP5 MLOAD SWAP2 PUSH8 0xFFFFFFFFFFFFFFFF DUP4 GT PUSH2 0xCF2 JUMPI PUSH2 0xF41 DUP5 SLOAD PUSH2 0xCA4 JUMP JUMPDEST PUSH1 0x1F DUP2 GT PUSH2 0x1032 JUMPI JUMPDEST POP DUP1 PUSH1 0x1F DUP5 GT PUSH1 0x1 EQ PUSH2 0xFC3 JUMPI POP SWAP2 DUP1 DUP1 SWAP3 PUSH1 0xA0 SWAP7 SWAP6 SWAP5 PUSH1 0x5 SWAP9 PUSH1 0x0 SWAP5 PUSH2 0xFB8 JUMPI JUMPDEST POP POP SHL SWAP2 PUSH1 0x0 NOT SWAP1 PUSH1 0x3 SHL SHR NOT AND OR SWAP1 SSTORE JUMPDEST PUSH2 0xF9D PUSH1 0x40 DUP3 ADD MLOAD ISZERO ISZERO PUSH1 0x2 DUP7 ADD SWAP1 PUSH1 0xFF DUP1 NOT DUP4 SLOAD AND SWAP2 ISZERO ISZERO AND OR SWAP1 SSTORE JUMP JUMPDEST PUSH1 0x60 DUP2 ADD MLOAD PUSH1 0x3 DUP6 ADD SSTORE PUSH1 0x80 DUP2 ADD MLOAD PUSH1 0x4 DUP6 ADD SSTORE ADD MLOAD SWAP2 ADD SSTORE JUMP JUMPDEST ADD MLOAD SWAP3 POP CODESIZE DUP1 PUSH2 0xF6C JUMP JUMPDEST SWAP2 SWAP4 SWAP5 SWAP6 PUSH1 0x1F NOT DUP5 AND DUP7 PUSH1 0x0 MSTORE DUP4 PUSH1 0x0 KECCAK256 SWAP4 PUSH1 0x0 SWAP1 JUMPDEST DUP3 DUP3 LT PUSH2 0x101B JUMPI POP POP SWAP2 PUSH1 0x5 SWAP8 SWAP6 SWAP4 SWAP2 DUP6 PUSH1 0xA0 SWAP9 SWAP7 SWAP5 LT PUSH2 0x1002 JUMPI JUMPDEST POP POP POP DUP2 SHL ADD SWAP1 SSTORE PUSH2 0xF7E JUMP JUMPDEST ADD MLOAD PUSH1 0x0 NOT PUSH1 0xF8 DUP5 PUSH1 0x3 SHL AND SHR NOT AND SWAP1 SSTORE CODESIZE DUP1 DUP1 PUSH2 0xFF5 JUMP JUMPDEST DUP1 DUP9 DUP7 SWAP8 DUP3 SWAP5 SWAP8 DUP8 ADD MLOAD DUP2 SSTORE ADD SWAP7 ADD SWAP5 ADD SWAP1 PUSH2 0xFD9 JUMP JUMPDEST PUSH1 0x0 DUP6 PUSH1 0x0 MSTORE DUP3 PUSH1 0x0 KECCAK256 PUSH1 0x1F DUP7 ADD PUSH1 0x5 SHR DUP2 ADD SWAP3 DUP5 DUP8 LT PUSH2 0x1073 JUMPI JUMPDEST PUSH1 0x1F ADD PUSH1 0x5 SHR ADD SWAP2 DUP5 SWAP1 JUMPDEST DUP4 DUP2 LT PUSH2 0x1068 JUMPI POP POP POP PUSH2 0xF4A JUMP JUMPDEST DUP3 DUP2 SSTORE ADD DUP5 SWAP1 PUSH2 0x1059 JUMP JUMPDEST SWAP1 SWAP3 POP DUP3 SWAP1 PUSH2 0x104E JUMP JUMPDEST PUSH4 0x4E487B71 PUSH1 0xE0 SHL PUSH1 0x0 MSTORE PUSH1 0x0 PUSH1 0x4 MSTORE PUSH1 0x24 PUSH1 0x0 REVERT JUMPDEST PUSH1 0x40 MLOAD SWAP1 PUSH2 0x10A0 DUP3 PUSH2 0xD24 JUMP JUMPDEST PUSH1 0x24 DUP3 MSTORE PUSH4 0x185CD959 PUSH1 0xE2 SHL PUSH1 0x40 DUP4 PUSH32 0x556E70726F66697461626C65207472616465202D207472757374206465637265 PUSH1 0x20 DUP3 ADD MSTORE ADD MSTORE JUMP JUMPDEST PUSH1 0x40 MLOAD SWAP1 PUSH2 0x10E6 DUP3 PUSH2 0xD24 JUMP JUMPDEST PUSH1 0x22 DUP3 MSTORE PUSH2 0x1959 PUSH1 0xF2 SHL PUSH1 0x40 DUP4 PUSH32 0x50726F66697461626C65207472616465202D20747275737420696E6372656173 PUSH1 0x20 DUP3 ADD MSTORE ADD MSTORE JUMP JUMPDEST PUSH2 0xEBB SWAP4 SWAP3 PUSH1 0x60 SWAP3 DUP3 MSTORE PUSH1 0x20 DUP3 ADD MSTORE DUP2 PUSH1 0x40 DUP3 ADD MSTORE ADD SWAP1 PUSH2 0xC37 JUMP JUMPDEST PUSH1 0x1 DUP1 PUSH1 0xA0 SHL SUB SWAP1 PUSH1 0x0 SWAP2 PUSH1 0x20 DUP2 DUP5 SLOAD AND SWAP3 PUSH1 0x24 PUSH1 0x40 MLOAD DUP1 SWAP6 DUP2 SWAP4 PUSH4 0x31A9108F PUSH1 0xE1 SHL DUP4 MSTORE PUSH1 0x4 DUP4 ADD MSTORE GAS STATICCALL DUP4 SWAP3 DUP2 PUSH2 0x117F JUMPI JUMPDEST POP PUSH2 0x1177 JUMPI POP POP SWAP1 JUMP JUMPDEST AND CALLER EQ SWAP2 SWAP1 POP JUMP JUMPDEST SWAP1 SWAP3 POP PUSH1 0x20 DUP2 RETURNDATASIZE PUSH1 0x20 GT PUSH2 0x11B8 JUMPI JUMPDEST DUP2 PUSH2 0x119B PUSH1 0x20 SWAP4 DUP4 PUSH2 0xD40 JUMP JUMPDEST DUP2 ADD SUB SLT PUSH2 0x11B4 JUMPI MLOAD DUP2 DUP2 AND DUP2 SUB PUSH2 0x11B4 JUMPI SWAP2 CODESIZE PUSH2 0x116D JUMP JUMPDEST DUP4 DUP1 REVERT JUMPDEST RETURNDATASIZE SWAP2 POP PUSH2 0x118E JUMP JUMPDEST SWAP2 SWAP1 SWAP2 PUSH1 0x0 DUP4 DUP3 ADD SWAP4 DUP5 SLT SWAP2 SLT SWAP1 DUP1 ISZERO DUP3 AND SWAP2 ISZERO AND OR PUSH2 0x11DC JUMPI JUMP JUMPDEST PUSH4 0x4E487B71 PUSH1 0xE0 SHL PUSH1 0x0 MSTORE PUSH1 0x11 PUSH1 0x4 MSTORE PUSH1 0x24 PUSH1 0x0 REVERT JUMPDEST SWAP1 SWAP3 SWAP2 SWAP1 ISZERO PUSH2 0x126F JUMPI PUSH1 0x4B DUP2 LT PUSH2 0x1254 JUMPI POP PUSH1 0xC8 PUSH1 0x5 SWAP3 JUMPDEST SGT PUSH2 0x1233 JUMPI JUMPDEST PUSH1 0x5 DUP3 SGT PUSH2 0x122A JUMPI JUMPDEST PUSH1 0x2 NOT DUP1 DUP4 SLT PUSH2 0x1226 JUMPI POP JUMP JUMPDEST SWAP2 POP JUMP JUMPDEST PUSH1 0x5 SWAP2 POP PUSH2 0x1219 JUMP JUMPDEST SWAP1 PUSH1 0x1 DUP2 ADD SWAP1 PUSH1 0x0 PUSH1 0x1 DUP4 SLT SWAP2 SLT SWAP1 DUP1 ISZERO DUP3 AND SWAP2 ISZERO AND OR PUSH2 0x11DC JUMPI SWAP1 PUSH2 0x1210 JUMP JUMPDEST PUSH1 0x37 GT PUSH2 0x1265 JUMPI PUSH1 0xC8 PUSH1 0x3 SWAP3 PUSH2 0x120A JUMP JUMPDEST PUSH1 0xC8 PUSH1 0x1 SWAP3 PUSH2 0x120A JUMP JUMPDEST SWAP1 SWAP2 POP PUSH1 0x4B DUP2 LT PUSH2 0x1284 JUMPI POP PUSH1 0x2 NOT SWAP1 PUSH2 0x1210 JUMP JUMPDEST PUSH1 0x37 GT PUSH2 0x1294 JUMPI PUSH1 0x1 NOT SWAP1 PUSH2 0x1210 JUMP JUMPDEST PUSH1 0x0 NOT SWAP1 PUSH2 0x1210 JUMP JUMPDEST SWAP2 PUSH1 0x0 SWAP2 DUP4 DUP4 MSTORE PUSH1 0x5 PUSH1 0x20 MSTORE PUSH1 0x40 DUP4 KECCAK256 SWAP2 PUSH1 0x1 DUP4 ADD SWAP2 PUSH2 0x12BE DUP3 DUP5 SLOAD PUSH2 0x11C0 JUMP JUMPDEST DUP4 SSTORE PUSH1 0x3 DUP5 ADD PUSH2 0x12CF DUP4 DUP3 SLOAD PUSH2 0x11C0 JUMP JUMPDEST SWAP1 SSTORE PUSH1 0x5 DUP5 ADD DUP1 SLOAD SWAP1 PUSH1 0x1 DUP3 ADD DUP1 SWAP3 GT PUSH2 0x142D JUMPI SSTORE TIMESTAMP PUSH1 0x8 DUP6 ADD SSTORE ISZERO PUSH2 0x1415 JUMPI PUSH1 0x6 DUP4 ADD DUP1 SLOAD SWAP1 PUSH1 0x1 DUP3 ADD DUP1 SWAP3 GT PUSH2 0x1401 JUMPI SSTORE JUMPDEST DUP4 DUP2 SLT ISZERO PUSH2 0x13FC JUMPI PUSH1 0x1 PUSH1 0xFF SHL DUP2 EQ PUSH2 0x13E8 JUMPI DUP4 SUB JUMPDEST DUP1 DUP1 MUL SWAP1 DUP5 DUP2 SLT PUSH1 0x1 PUSH1 0xFF SHL DUP3 EQ AND PUSH2 0x13D4 JUMPI DUP1 DUP3 SDIV DUP2 EQ SWAP1 ISZERO OR ISZERO PUSH2 0x13E8 JUMPI PUSH1 0x4 DUP4 ADD DUP1 SLOAD SWAP2 DUP3 ADD DUP1 SWAP3 GT PUSH2 0x13D4 JUMPI SSTORE SLOAD SWAP2 DUP2 SLOAD DUP4 SGT PUSH2 0x13CC JUMPI JUMPDEST DUP2 SLOAD DUP2 DUP5 DUP3 SUB SWAP5 SLT DUP2 DUP6 SLT DUP2 AND SWAP2 DUP6 SGT SWAP1 ISZERO AND OR PUSH2 0x13B8 JUMPI DUP3 SGT PUSH2 0x1378 JUMPI POP POP POP JUMP JUMPDEST PUSH1 0x2 ADD DUP1 SLOAD DUP3 GT PUSH2 0x1388 JUMPI POP POP POP JUMP JUMPDEST DUP2 PUSH32 0x4D03819DA0078AD767DF977C50CBD3A2A97250E2DCEC0DF3A04F40DEB2B31D64 SWAP3 PUSH1 0x20 SWAP3 SSTORE PUSH1 0x40 MLOAD SWAP1 DUP2 MSTORE LOG2 JUMP JUMPDEST PUSH4 0x4E487B71 PUSH1 0xE0 SHL DUP2 MSTORE PUSH1 0x11 PUSH1 0x4 MSTORE PUSH1 0x24 SWAP1 REVERT JUMPDEST DUP3 DUP3 SSTORE PUSH2 0x1355 JUMP JUMPDEST PUSH4 0x4E487B71 PUSH1 0xE0 SHL DUP6 MSTORE PUSH1 0x11 PUSH1 0x4 MSTORE PUSH1 0x24 DUP6 REVERT JUMPDEST PUSH4 0x4E487B71 PUSH1 0xE0 SHL DUP5 MSTORE PUSH1 0x11 PUSH1 0x4 MSTORE PUSH1 0x24 DUP5 REVERT JUMPDEST PUSH2 0x1319 JUMP JUMPDEST PUSH4 0x4E487B71 PUSH1 0xE0 SHL DUP7 MSTORE PUSH1 0x11 PUSH1 0x4 MSTORE PUSH1 0x24 DUP7 REVERT JUMPDEST PUSH1 0x7 DUP4 ADD DUP1 SLOAD SWAP1 PUSH1 0x1 DUP3 ADD DUP1 SWAP3 GT PUSH2 0x1401 JUMPI SSTORE PUSH2 0x1303 JUMP JUMPDEST PUSH4 0x4E487B71 PUSH1 0xE0 SHL DUP8 MSTORE PUSH1 0x11 PUSH1 0x4 MSTORE PUSH1 0x24 DUP8 REVERT INVALID LOG2 PUSH5 0x6970667358 0x22 SLT KECCAK256 0xA6 PUSH11 0x43A0397D5664CABB4C8D03 ADDMOD 0xF7 MOD PUSH31 0xF107C4933184FCA6B87D9AAEEF831D64736F6C634300081800330000000000 "},"methodIdentifiers":{"MAX_NEGATIVE_DELTA()":"0b793e05","MAX_POSITIVE_DELTA()":"4f005e90","agentHistory(uint256,uint256)":"4ae11925","agentRegistry()":"0d1cfcae","agentStats(uint256)":"402add08","authorizedCallers(address)":"536fff6c","getAgentHistory(uint256)":"3ba14907","getAgentPerformance(uint256)":"27ed42ac","getTrustScore(uint256)":"83f3d448","owner()":"8da5cb5b","setAuthorizedCaller(address,bool)":"454bbd29","updateReputation(uint256,string,bool,int256)":"107091e5","updateReputationDirect(uint256,bool,int256,uint256)":"c22add74","validationRegistry()":"4c6b993a"}}}}}