{"contracts/ValidationRegistry.sol":{"ValidationRegistry":{"abi":[{"inputs":[{"internalType":"address","name":"_agentRegistry","type":"address"}],"stateMutability":"nonpayable","type":"constructor"},{"anonymous":false,"inputs":[{"indexed":true,"internalType":"string","name":"tradeId","type":"string"},{"indexed":false,"internalType":"bool","name":"profitable","type":"bool"},{"indexed":false,"internalType":"int256","name":"pnlBps","type":"int256"}],"name":"OutcomeRecorded","type":"event"},{"anonymous":false,"inputs":[{"indexed":true,"internalType":"uint256","name":"agentId","type":"uint256"},{"indexed":true,"internalType":"string","name":"tradeId","type":"string"},{"indexed":false,"internalType":"uint256","name":"confidence","type":"uint256"},{"indexed":false,"internalType":"string","name":"riskCheck","type":"string"},{"indexed":false,"internalType":"uint256","name":"timestamp","type":"uint256"},{"indexed":true,"internalType":"address","name":"validator","type":"address"}],"name":"ValidationStored","type":"event"},{"anonymous":false,"inputs":[{"indexed":true,"internalType":"address","name":"validator","type":"address"}],"name":"ValidatorAdded","type":"event"},{"anonymous":false,"inputs":[{"indexed":true,"internalType":"address","name":"validator","type":"address"}],"name":"ValidatorRemoved","type":"event"},{"inputs":[],"name":"DOMAIN_SEPARATOR","outputs":[{"internalType":"bytes32","name":"","type":"bytes32"}],"stateMutability":"view","type":"function"},{"inputs":[],"name":"OUTCOME_TYPEHASH","outputs":[{"internalType":"bytes32","name":"","type":"bytes32"}],"stateMutability":"view","type":"function"},{"inputs":[],"name":"VALIDATION_TYPEHASH","outputs":[{"internalType":"bytes32","name":"","type":"bytes32"}],"stateMutability":"view","type":"function"},{"inputs":[{"internalType":"address","name":"validator","type":"address"}],"name":"addValidator","outputs":[],"stateMutability":"nonpayable","type":"function"},{"inputs":[],"name":"agentRegistry","outputs":[{"internalType":"contract IAgentRegistry","name":"","type":"address"}],"stateMutability":"view","type":"function"},{"inputs":[],"name":"authorizedCaller","outputs":[{"internalType":"address","name":"","type":"address"}],"stateMutability":"view","type":"function"},{"inputs":[{"internalType":"address","name":"","type":"address"}],"name":"authorizedValidators","outputs":[{"internalType":"bool","name":"","type":"bool"}],"stateMutability":"view","type":"function"},{"inputs":[{"internalType":"uint256","name":"agentId","type":"uint256"},{"internalType":"string","name":"tradeId","type":"string"},{"internalType":"uint256","name":"confidence","type":"uint256"},{"internalType":"string","name":"riskCheck","type":"string"},{"internalType":"uint256","name":"timestamp","type":"uint256"},{"internalType":"address","name":"validator","type":"address"}],"name":"computeArtifactHash","outputs":[{"internalType":"bytes32","name":"","type":"bytes32"}],"stateMutability":"view","type":"function"},{"inputs":[{"internalType":"uint256","name":"agentId","type":"uint256"}],"name":"getAgentTradeCount","outputs":[{"internalType":"uint256","name":"","type":"uint256"}],"stateMutability":"view","type":"function"},{"inputs":[{"internalType":"uint256","name":"agentId","type":"uint256"}],"name":"getAgentTradeIds","outputs":[{"internalType":"string[]","name":"","type":"string[]"}],"stateMutability":"view","type":"function"},{"inputs":[{"internalType":"string","name":"tradeId","type":"string"}],"name":"getValidation","outputs":[{"internalType":"uint256","name":"agentId","type":"uint256"},{"internalType":"string","name":"reason","type":"string"},{"internalType":"uint256","name":"confidence","type":"uint256"},{"internalType":"string","name":"riskCheck","type":"string"},{"internalType":"uint256","name":"timestamp","type":"uint256"},{"internalType":"bool","name":"outcomeRecorded","type":"bool"},{"internalType":"bool","name":"profitable","type":"bool"},{"internalType":"int256","name":"pnlBps","type":"int256"}],"stateMutability":"view","type":"function"},{"inputs":[{"internalType":"string","name":"tradeId","type":"string"}],"name":"getValidationArtifact","outputs":[{"internalType":"address","name":"validator","type":"address"},{"internalType":"bytes","name":"validatorSig","type":"bytes"},{"internalType":"bytes32","name":"artifactHash","type":"bytes32"}],"stateMutability":"view","type":"function"},{"inputs":[],"name":"owner","outputs":[{"internalType":"address","name":"","type":"address"}],"stateMutability":"view","type":"function"},{"inputs":[{"internalType":"string","name":"tradeId","type":"string"},{"internalType":"bool","name":"profitable","type":"bool"},{"internalType":"int256","name":"pnlBps","type":"int256"}],"name":"recordOutcome","outputs":[],"stateMutability":"nonpayable","type":"function"},{"inputs":[{"internalType":"address","name":"validator","type":"address"}],"name":"removeValidator","outputs":[],"stateMutability":"nonpayable","type":"function"},{"inputs":[{"internalType":"address","name":"_agentRegistry","type":"address"}],"name":"setAgentRegistry","outputs":[],"stateMutability":"nonpayable","type":"function"},{"inputs":[{"internalType":"address","name":"caller","type":"address"}],"name":"setAuthorizedCaller","outputs":[],"stateMutability":"nonpayable","type":"function"},{"inputs":[{"internalType":"uint256","name":"agentId","type":"uint256"},{"internalType":"string","name":"tradeId","type":"string"},{"internalType":"string","name":"reason","type":"string"},{"internalType":"uint256","name":"confidence","type":"uint256"},{"internalType":"string","name":"riskCheck","type":"string"},{"internalType":"uint256","name":"timestamp","type":"uint256"},{"internalType":"bytes","name":"validatorSig","type":"bytes"}],"name":"storeValidation","outputs":[],"stateMutability":"nonpayable","type":"function"},{"inputs":[],"name":"totalValidations","outputs":[{"internalType":"uint256","name":"","type":"uint256"}],"stateMutability":"view","type":"function"},{"inputs":[{"internalType":"string","name":"tradeId","type":"string"}],"name":"verifyValidationArtifact","outputs":[{"internalType":"bool","name":"","type":"bool"}],"stateMutability":"view","type":"function"}],"evm":{"bytecode":{"linkReferences":{},"object":"60a03462000181576001600160401b0390601f62001bbd38819003918201601f19168301929190848411838510176200016b5781602092849260409687528339810103126200018157516001600160a01b03811690819003620001815760018060a01b0319338160045416176004553381600554161760055533600052600260205282600020600160ff198254161790556006541617600655601360208251620000a98162000186565b828152017f414954726164696e6756616c69646174696f6e0000000000000000000000000081522090600160208251620000e38162000186565b82815201603160f81b8152209080519160208301937f8b73c3c69bb8fe3d512ecc4cf759cc79239f7b179b0ffacaa9a75d522b39400f85528284015260608301524660808301523060a083015260a0825260c0820193828510908511176200016b57839052519020608052611a1a9081620001a382396080518181816104b401526117fd0152f35b634e487b7160e01b600052604160045260246000fd5b600080fd5b604081019081106001600160401b038211176200016b5760405256fe6080604052600436101561001257600080fd5b60003560e01c80630d1cfcae1461015757806326b94b2c1461015257806328342ecf1461014d5780632bec6e43146101485780633144f0fa146101435780633644e5151461013e5780633b3ed01b1461013957806340a141ff146101345780634d238c8e1461012f5780634d50b5a41461012a578063528633ce1461012557806358714163146101205780635fb3c2c21461011b5780637e83514b146101165780638da5cb5b1461011157806392c2d8a91461010c57806397dc97cb14610107578063c868d47b14610102578063cc1830f0146100fd5763cf8fbec9146100f857600080fd5b610a53565b6109bd565b6108f9565b6108d0565b610848565b61081f565b610801565b610767565b6106c1565b610695565b61065a565b6105e1565b61056b565b6104d7565b61049c565b6103a7565b61036c565b610317565b610270565b34610180576000366003190112610180576006546040516001600160a01b039091168152602090f35b600080fd5b9181601f84011215610180578235916001600160401b038311610180576020838186019501011161018057565b602060031982011261018057600435906001600160401b038211610180576101dc91600401610185565b9091565b919082519283825260005b84811061020c575050826000602080949584010152601f8019910116010190565b6020818301810151848301820152016101eb565b94989796936102456102589360e09895936101009089528060208a01528801906101e0565b91604087015285820360608701526101e0565b966080840152151560a0830152151560c08201520152565b34610180576020610280366101b2565b91908260405193849283378101600081520301902080549061030260038201549260058301549060068401549060078501549260046102eb604051976102d4896102cd8160028501610afb565b038a610bc3565b6102e46040518094819301610afb565b0382610bc3565b60405197889760ff808760081c1696169489610220565b0390f35b6001600160a01b0381160361018057565b346101805760203660031901126101805760043561033481610306565b6004546001600160a01b03919061034e9083163314610be4565b166bffffffffffffffffffffffff60a01b6006541617600655600080f35b346101805760003660031901126101805760206040517f96095dfc37f9a66c8034a4d38d97353803bd6848d1d396679da2309ad6f185b48152f35b34610180576060366003190112610180576004356001600160401b038111610180576103d7903690600401610185565b90602435801515810361018057826103fa6103f561043f95856116b9565b610c30565b610418604051828582376020818481016000815203019020546116ed565b801561047f575b801561045a575b8015610441575b61043690610c88565b60443592610cf4565b005b503360009081526002602052604090205460ff1661042d565b50600554610478906001600160a01b03165b6001600160a01b031690565b3314610426565b50600454610495906001600160a01b031661046c565b331461041f565b346101805760003660031901126101805760206040517f00000000000000000000000000000000000000000000000000000000000000008152f35b346101805760e0366003190112610180576001600160401b0360243581811161018057610508903690600401610185565b9060443583811161018057610521903690600401610185565b9290916084358581116101805761053c903690600401610185565b9160c4359687116101805761055861043f973690600401610185565b96909560a4359560643593600435610df6565b346101805760203660031901126101805760043561058881610306565b6004546001600160a01b0391906105a29083163314610be4565b166000818152600260205260408120805460ff19169055907fe1434e25d6611e0db941968fdc97811c982ac1602e951637d206f5fdda9dd8f18280a280f35b34610180576020366003190112610180576004356105fe81610306565b6004546001600160a01b0391906106189083163314610be4565b166000818152600260205260408120805460ff19166001179055907fe366c1c0452ed8eec96861e9e54141ebff23c9ec89fe27b996b45f5ec38849878280a280f35b346101805760003660031901126101805760206040517f1ec7e03c4566b17698b4646a50d20fe3919bcc034624c1f7a497211439c8bc1a8152f35b346101805760203660031901126101805760043560005260016020526020604060002054604051908152f35b34610180576020366003190112610180576004356106de81610306565b60018060a01b03166000526002602052602060ff604060002054166040519015158152f35b6020808201906020835283518092526040830192602060408460051b8301019501936000915b8483106107395750505050505090565b9091929394958480610757600193603f198682030187528a516101e0565b9801930193019194939290610729565b346101805760208060031936011261018057600435600052600190600181526040906040600020918254916001600160401b0383116107fc5760405193916107b5600585901b830186610bc3565b8385526000928352818320908286015b8585106107da57604051806103028982610703565b8784819284516107ee816102e4818a610afb565b8152019301940193916107c5565b610b91565b34610180576000366003190112610180576020600354604051908152f35b34610180576000366003190112610180576004546040516001600160a01b039091168152602090f35b346101805760096103f561087c61085e366101b2565b604093919351818582376020818381016000815203019020936116b9565b60018060a01b03600882015416906108aa600a820154916108a36040518096819301610afb565b0384610bc3565b6108c660405193849384526060602085015260608401906101e0565b9060408301520390f35b34610180576000366003190112610180576005546040516001600160a01b039091168152602090f35b346101805761030261090a366101b2565b9061097a604051838382376020818581016000815203019020926109316103f582856116b9565b835460038501549060058601549161095960018060a01b0360088901541696879536916111e0565b604051926109758461096e8160048d01610afb565b0385610bc3565b611774565b600a830154809114928361099e575b50506040519115158252509081906020820190565b6109b5935060096109af910161169c565b91611858565b388080610989565b346101805760c0366003190112610180576001600160401b03602435818111610180576109ee903690600401610185565b60643592831161018057610a2a610a4392610a36610a13610302963690600401610185565b93909260a43595610a2387610306565b36916111e0565b916084359336916111e0565b9060443590600435611774565b6040519081529081906020820190565b3461018057602036600319011261018057600435610a7081610306565b6004546001600160a01b039190610a8a9083163314610be4565b166bffffffffffffffffffffffff60a01b6005541617600555600080f35b6020908260405193849283378101600081520301902090565b90600182811c92168015610af1575b6020831014610adb57565b634e487b7160e01b600052602260045260246000fd5b91607f1691610ad0565b805460009392610b0a82610ac1565b91828252602093600191600181169081600014610b725750600114610b31575b5050505050565b90939495506000929192528360002092846000945b838610610b5e57505050500101903880808080610b2a565b805485870183015294019385908201610b46565b60ff19168685015250505090151560051b010191503880808080610b2a565b634e487b7160e01b600052604160045260246000fd5b61010081019081106001600160401b038211176107fc57604052565b90601f801991011681019081106001600160401b038211176107fc57604052565b15610beb57565b60405162461bcd60e51b815260206004820152601d60248201527f56616c69646174696f6e52656769737472793a206e6f74206f776e65720000006044820152606490fd5b15610c3757565b60405162461bcd60e51b815260206004820152602360248201527f56616c69646174696f6e52656769737472793a207472616465206e6f7420666f6044820152621d5b9960ea1b6064820152608490fd5b15610c8f57565b60405162461bcd60e51b815260206004820152602260248201527f56616c69646174696f6e52656769737472793a206e6f7420617574686f72697a604482015261195960f21b6064820152608490fd5b81604051928392833781016000815203902090565b9290919260405183828237602081858101600081520301902092610d25610d1e6001860154610ac1565b1515610c30565b600684019160ff835416610da5578360077fd279284839694ebc5159956471cca902db2d8f1bd10a43ffa5a1df84c63b103796610d898987610d71610d9099600160ff19825416179055565b9061ff00825491151560081b169061ff001916179055565b0155610cdf565b604080519415158552602085019290925292a2565b60405162461bcd60e51b8152602060048201526024808201527f56616c69646174696f6e52656769737472793a20616c7265616479207265636f6044820152631c99195960e21b6064820152608490fd5b979695999298909498939193610e0b896116ed565b8015611002575b8015610fee575b8015610fd5575b610e2990610c88565b610e34851515611016565b610e4d610e48610e4487896116b9565b1590565b61106e565b610e5a60648b11156110cd565b610e634261113e565b88101580610fbe575b610e7590611161565b888b89610e8336898b6111e0565b8d33938c3690610e92926111e0565b91610e9c95611774565b9283610ea93687866111e0565b610eb39133611858565b610ebc90611226565b610ec591611961565b92610ece6111c0565b89815293610edd3687896111e0565b6020860152604085015289606085015236610ef990888d6111e0565b608085015260a08401889052600060c0850181905260e08501819052610100850152336101208501523690610f2d926111e0565b610140830152610160820152610f438284610aa8565b90610f4d9161145a565b8181610f63876000526001602052604060002090565b91610f6d92611553565b600354610f7990611659565b600355610f8591610cdf565b936040519283923397610f989385611668565b037f762ba33ad2bc68d518ae479e216850cb97a85007d56136de9bfb72c6e5e7452391a4565b50610e75610fcb42611153565b8911159050610e6c565b503360009081526002602052604090205460ff16610e20565b506005546001600160a01b03163314610e19565b506004546001600160a01b03163314610e12565b1561101d57565b60405162461bcd60e51b8152602060048201526024808201527f56616c69646174696f6e52656769737472793a207472616465496420726571756044820152631a5c995960e21b6064820152608490fd5b1561107557565b60405162461bcd60e51b815260206004820152602a60248201527f56616c69646174696f6e52656769737472793a207472616465496420616c726560448201526918591e481cdd1bdc995960b21b6064820152608490fd5b156110d457565b60405162461bcd60e51b815260206004820152602660248201527f56616c69646174696f6e52656769737472793a20696e76616c696420636f6e666044820152656964656e636560d01b6064820152608490fd5b634e487b7160e01b600052601160045260246000fd5b6102571981019190821161114e57565b611128565b90603c820180921161114e57565b1561116857565b60405162461bcd60e51b815260206004820152602a60248201527f56616c69646174696f6e52656769737472793a2074696d657374616d70206f7560448201526974206f662072616e676560b01b6064820152608490fd5b6040519061018082018281106001600160401b038211176107fc57604052565b9291926001600160401b0382116107fc5760405191611209601f8201601f191660200184610bc3565b829481845281830111610180578281602093846000960137010152565b1561122d57565b60405162461bcd60e51b815260206004820152602f60248201527f56616c69646174696f6e52656769737472793a20696e76616c69642076616c6960448201526e6461746f72207369676e617475726560881b6064820152608490fd5b90601f811161129857505050565b6000916000526020600020906020601f850160051c830194106112d6575b601f0160051c01915b8281106112cb57505050565b8181556001016112bf565b90925082906112b6565b91909182516001600160401b0381116107fc57611307816113018454610ac1565b8461128a565b602080601f831160011461134a5750819061133b93949560009261133f575b50508160011b916000199060031b1c19161790565b9055565b015190503880611326565b90601f1983169561136085600052602060002090565b926000905b88821061139d57505083600195969710611384575b505050811b019055565b015160001960f88460031b161c1916905538808061137a565b80600185968294968601518155019501930190611365565b91909182516001600160401b0381116107fc576113d6816113018454610ac1565b602080601f83116001146114095750819061133b93949560009261133f5750508160011b916000199060031b1c19161790565b90601f1983169561141f85600052602060002090565b926000905b8882106114425750508360019596971061138457505050811b019055565b80600185968294968601518155019501930190611424565b90610160600a91805184556114766020820151600186016112e0565b6114876040820151600286016112e0565b606081015160038501556114a26080820151600486016112e0565b60a081015160058501556114f2600685016114d56114c360c0850151151590565b829060ff801983541691151516179055565b60e08301511515815461ff00191690151560081b61ff0016179055565b61010081015160078501556101208101516008850180546001600160a01b0319166001600160a01b03909216919091179055611536610140820151600986016113b5565b0151910155565b634e487b7160e01b600052603260045260246000fd5b9291835493680100000000000000008510156107fc576001906001860180825586101561165457600052602094602060002001926001600160401b0383116107fc576115a9836115a38654610ac1565b8661128a565b600091601f84116001146115e9575061133b939495509082916000926115de5750508160011b916000199060031b1c19161790565b013590503880611326565b9591601f1984169661160086600052602060002090565b9382915b89831061163d575050508360019596971061162357505050811b019055565b0135600019600384901b60f8161c1916905538808061137a565b848401358655948501949281019291810191611604565b61153d565b600019811461114e5760010190565b94939280604093608093885260606020890152816060890152838801376000828288010152601f8019910116850101930152565b906116b76116b09260405193848092610afb565b0383610bc3565b565b6116dc916020600192826040519384928337810160008152030190200154610ac1565b151590565b6040513d6000823e3d90fd5b6006546040516331a9108f60e11b815260048101929092526001600160a01b03906020908390602490829085165afa60009281611737575b50611731575050600090565b16331490565b9092506020813d60201161176c575b8161175360209383610bc3565b81010312610180575161176581610306565b9138611725565b3d9150611746565b9492939190602081519101209360208151910120906040519460208601967f96095dfc37f9a66c8034a4d38d97353803bd6848d1d396679da2309ad6f185b4885260408701526060860152608085015260a084015260c083015260018060a01b031660e082015260e081526117e881610ba7565b51902060405161190160f01b602082019081527f00000000000000000000000000000000000000000000000000000000000000006022830152604282019290925261184081606281015b03601f198101835282610bc3565b51902090565b60ff601b9116019060ff821161114e57565b91906041825103611948576020916000916040516118a7816118328782019485603c917f19457468657265756d205369676e6564204d6573736167653a0a3332000000008252601c8201520190565b519020838201516040830151606090930151841a9290601b8410611931575b906118f191604051948594859094939260ff6060936080840197845216602083015260408201520152565b838052039060015afa1561192c576000516001600160a01b039081168015159290919083611920575b50505090565b1614905038808061191a565b6116e1565b929061193f6118f192611846565b939091506118c6565b505050600090565b908151811015611654570160200190565b610100808311156119d5576040519261012084018481106001600160401b038211176107fc576040528184528136602086013760009060005b8381106119a957505050505090565b8181101561165457600190858101356001600160f81b031916841a6119ce8289611950565b530161199a565b506119e19136916111e0565b9056fea2646970667358221220705ece90202c8eeece7151855551d7fb0d296d9f40b5416ab588d48bdf4c1f9464736f6c63430008180033","opcodes":"PUSH1 0xA0 CALLVALUE PUSH3 0x181 JUMPI PUSH1 0x1 PUSH1 0x1 PUSH1 0x40 SHL SUB SWAP1 PUSH1 0x1F PUSH3 0x1BBD CODESIZE DUP2 SWAP1 SUB SWAP2 DUP3 ADD PUSH1 0x1F NOT AND DUP4 ADD SWAP3 SWAP2 SWAP1 DUP5 DUP5 GT DUP4 DUP6 LT OR PUSH3 0x16B JUMPI DUP2 PUSH1 0x20 SWAP3 DUP5 SWAP3 PUSH1 0x40 SWAP7 DUP8 MSTORE DUP4 CODECOPY DUP2 ADD SUB SLT PUSH3 0x181 JUMPI MLOAD PUSH1 0x1 PUSH1 0x1 PUSH1 0xA0 SHL SUB DUP2 AND SWAP1 DUP2 SWAP1 SUB PUSH3 0x181 JUMPI PUSH1 0x1 DUP1 PUSH1 0xA0 SHL SUB NOT CALLER DUP2 PUSH1 0x4 SLOAD AND OR PUSH1 0x4 SSTORE CALLER DUP2 PUSH1 0x5 SLOAD AND OR PUSH1 0x5 SSTORE CALLER PUSH1 0x0 MSTORE PUSH1 0x2 PUSH1 0x20 MSTORE DUP3 PUSH1 0x0 KECCAK256 PUSH1 0x1 PUSH1 0xFF NOT DUP3 SLOAD AND OR SWAP1 SSTORE PUSH1 0x6 SLOAD AND OR PUSH1 0x6 SSTORE PUSH1 0x13 PUSH1 0x20 DUP3 MLOAD PUSH3 0xA9 DUP2 PUSH3 0x186 JUMP JUMPDEST DUP3 DUP2 MSTORE ADD PUSH32 0x414954726164696E6756616C69646174696F6E00000000000000000000000000 DUP2 MSTORE KECCAK256 SWAP1 PUSH1 0x1 PUSH1 0x20 DUP3 MLOAD PUSH3 0xE3 DUP2 PUSH3 0x186 JUMP JUMPDEST DUP3 DUP2 MSTORE ADD PUSH1 0x31 PUSH1 0xF8 SHL DUP2 MSTORE KECCAK256 SWAP1 DUP1 MLOAD SWAP2 PUSH1 0x20 DUP4 ADD SWAP4 PUSH32 0x8B73C3C69BB8FE3D512ECC4CF759CC79239F7B179B0FFACAA9A75D522B39400F DUP6 MSTORE DUP3 DUP5 ADD MSTORE PUSH1 0x60 DUP4 ADD MSTORE CHAINID PUSH1 0x80 DUP4 ADD MSTORE ADDRESS PUSH1 0xA0 DUP4 ADD MSTORE PUSH1 0xA0 DUP3 MSTORE PUSH1 0xC0 DUP3 ADD SWAP4 DUP3 DUP6 LT SWAP1 DUP6 GT OR PUSH3 0x16B JUMPI DUP4 SWAP1 MSTORE MLOAD SWAP1 KECCAK256 PUSH1 0x80 MSTORE PUSH2 0x1A1A SWAP1 DUP2 PUSH3 0x1A3 DUP3 CODECOPY PUSH1 0x80 MLOAD DUP2 DUP2 DUP2 PUSH2 0x4B4 ADD MSTORE PUSH2 0x17FD ADD MSTORE RETURN JUMPDEST PUSH4 0x4E487B71 PUSH1 0xE0 SHL PUSH1 0x0 MSTORE PUSH1 0x41 PUSH1 0x4 MSTORE PUSH1 0x24 PUSH1 0x0 REVERT JUMPDEST PUSH1 0x0 DUP1 REVERT JUMPDEST PUSH1 0x40 DUP2 ADD SWAP1 DUP2 LT PUSH1 0x1 PUSH1 0x1 PUSH1 0x40 SHL SUB DUP3 GT OR PUSH3 0x16B JUMPI PUSH1 0x40 MSTORE JUMP INVALID PUSH1 0x80 PUSH1 0x40 MSTORE PUSH1 0x4 CALLDATASIZE LT ISZERO PUSH2 0x12 JUMPI PUSH1 0x0 DUP1 REVERT JUMPDEST PUSH1 0x0 CALLDATALOAD PUSH1 0xE0 SHR DUP1 PUSH4 0xD1CFCAE EQ PUSH2 0x157 JUMPI DUP1 PUSH4 0x26B94B2C EQ PUSH2 0x152 JUMPI DUP1 PUSH4 0x28342ECF EQ PUSH2 0x14D JUMPI DUP1 PUSH4 0x2BEC6E43 EQ PUSH2 0x148 JUMPI DUP1 PUSH4 0x3144F0FA EQ PUSH2 0x143 JUMPI DUP1 PUSH4 0x3644E515 EQ PUSH2 0x13E JUMPI DUP1 PUSH4 0x3B3ED01B EQ PUSH2 0x139 JUMPI DUP1 PUSH4 0x40A141FF EQ PUSH2 0x134 JUMPI DUP1 PUSH4 0x4D238C8E EQ PUSH2 0x12F JUMPI DUP1 PUSH4 0x4D50B5A4 EQ PUSH2 0x12A JUMPI DUP1 PUSH4 0x528633CE EQ PUSH2 0x125 JUMPI DUP1 PUSH4 0x58714163 EQ PUSH2 0x120 JUMPI DUP1 PUSH4 0x5FB3C2C2 EQ PUSH2 0x11B JUMPI DUP1 PUSH4 0x7E83514B EQ PUSH2 0x116 JUMPI DUP1 PUSH4 0x8DA5CB5B EQ PUSH2 0x111 JUMPI DUP1 PUSH4 0x92C2D8A9 EQ PUSH2 0x10C JUMPI DUP1 PUSH4 0x97DC97CB EQ PUSH2 0x107 JUMPI DUP1 PUSH4 0xC868D47B EQ PUSH2 0x102 JUMPI DUP1 PUSH4 0xCC1830F0 EQ PUSH2 0xFD JUMPI PUSH4 0xCF8FBEC9 EQ PUSH2 0xF8 JUMPI PUSH1 0x0 DUP1 REVERT JUMPDEST PUSH2 0xA53 JUMP JUMPDEST PUSH2 0x9BD JUMP JUMPDEST PUSH2 0x8F9 JUMP JUMPDEST PUSH2 0x8D0 JUMP JUMPDEST PUSH2 0x848 JUMP JUMPDEST PUSH2 0x81F JUMP JUMPDEST PUSH2 0x801 JUMP JUMPDEST PUSH2 0x767 JUMP JUMPDEST PUSH2 0x6C1 JUMP JUMPDEST PUSH2 0x695 JUMP JUMPDEST PUSH2 0x65A JUMP JUMPDEST PUSH2 0x5E1 JUMP JUMPDEST PUSH2 0x56B JUMP JUMPDEST PUSH2 0x4D7 JUMP JUMPDEST PUSH2 0x49C JUMP JUMPDEST PUSH2 0x3A7 JUMP JUMPDEST PUSH2 0x36C JUMP JUMPDEST PUSH2 0x317 JUMP JUMPDEST PUSH2 0x270 JUMP JUMPDEST CALLVALUE PUSH2 0x180 JUMPI PUSH1 0x0 CALLDATASIZE PUSH1 0x3 NOT ADD SLT PUSH2 0x180 JUMPI PUSH1 0x6 SLOAD PUSH1 0x40 MLOAD PUSH1 0x1 PUSH1 0x1 PUSH1 0xA0 SHL SUB SWAP1 SWAP2 AND DUP2 MSTORE PUSH1 0x20 SWAP1 RETURN JUMPDEST PUSH1 0x0 DUP1 REVERT JUMPDEST SWAP2 DUP2 PUSH1 0x1F DUP5 ADD SLT ISZERO PUSH2 0x180 JUMPI DUP3 CALLDATALOAD SWAP2 PUSH1 0x1 PUSH1 0x1 PUSH1 0x40 SHL SUB DUP4 GT PUSH2 0x180 JUMPI PUSH1 0x20 DUP4 DUP2 DUP7 ADD SWAP6 ADD ADD GT PUSH2 0x180 JUMPI JUMP JUMPDEST PUSH1 0x20 PUSH1 0x3 NOT DUP3 ADD SLT PUSH2 0x180 JUMPI PUSH1 0x4 CALLDATALOAD SWAP1 PUSH1 0x1 PUSH1 0x1 PUSH1 0x40 SHL SUB DUP3 GT PUSH2 0x180 JUMPI PUSH2 0x1DC SWAP2 PUSH1 0x4 ADD PUSH2 0x185 JUMP JUMPDEST SWAP1 SWAP2 JUMP JUMPDEST SWAP2 SWAP1 DUP3 MLOAD SWAP3 DUP4 DUP3 MSTORE PUSH1 0x0 JUMPDEST DUP5 DUP2 LT PUSH2 0x20C JUMPI POP POP DUP3 PUSH1 0x0 PUSH1 0x20 DUP1 SWAP5 SWAP6 DUP5 ADD ADD MSTORE PUSH1 0x1F DUP1 NOT SWAP2 ADD AND ADD ADD SWAP1 JUMP JUMPDEST PUSH1 0x20 DUP2 DUP4 ADD DUP2 ADD MLOAD DUP5 DUP4 ADD DUP3 ADD MSTORE ADD PUSH2 0x1EB JUMP JUMPDEST SWAP5 SWAP9 SWAP8 SWAP7 SWAP4 PUSH2 0x245 PUSH2 0x258 SWAP4 PUSH1 0xE0 SWAP9 SWAP6 SWAP4 PUSH2 0x100 SWAP1 DUP10 MSTORE DUP1 PUSH1 0x20 DUP11 ADD MSTORE DUP9 ADD SWAP1 PUSH2 0x1E0 JUMP JUMPDEST SWAP2 PUSH1 0x40 DUP8 ADD MSTORE DUP6 DUP3 SUB PUSH1 0x60 DUP8 ADD MSTORE PUSH2 0x1E0 JUMP JUMPDEST SWAP7 PUSH1 0x80 DUP5 ADD MSTORE ISZERO ISZERO PUSH1 0xA0 DUP4 ADD MSTORE ISZERO ISZERO PUSH1 0xC0 DUP3 ADD MSTORE ADD MSTORE JUMP JUMPDEST CALLVALUE PUSH2 0x180 JUMPI PUSH1 0x20 PUSH2 0x280 CALLDATASIZE PUSH2 0x1B2 JUMP JUMPDEST SWAP2 SWAP1 DUP3 PUSH1 0x40 MLOAD SWAP4 DUP5 SWAP3 DUP4 CALLDATACOPY DUP2 ADD PUSH1 0x0 DUP2 MSTORE SUB ADD SWAP1 KECCAK256 DUP1 SLOAD SWAP1 PUSH2 0x302 PUSH1 0x3 DUP3 ADD SLOAD SWAP3 PUSH1 0x5 DUP4 ADD SLOAD SWAP1 PUSH1 0x6 DUP5 ADD SLOAD SWAP1 PUSH1 0x7 DUP6 ADD SLOAD SWAP3 PUSH1 0x4 PUSH2 0x2EB PUSH1 0x40 MLOAD SWAP8 PUSH2 0x2D4 DUP10 PUSH2 0x2CD DUP2 PUSH1 0x2 DUP6 ADD PUSH2 0xAFB JUMP JUMPDEST SUB DUP11 PUSH2 0xBC3 JUMP JUMPDEST PUSH2 0x2E4 PUSH1 0x40 MLOAD DUP1 SWAP5 DUP2 SWAP4 ADD PUSH2 0xAFB JUMP JUMPDEST SUB DUP3 PUSH2 0xBC3 JUMP JUMPDEST PUSH1 0x40 MLOAD SWAP8 DUP9 SWAP8 PUSH1 0xFF DUP1 DUP8 PUSH1 0x8 SHR AND SWAP7 AND SWAP5 DUP10 PUSH2 0x220 JUMP JUMPDEST SUB SWAP1 RETURN JUMPDEST PUSH1 0x1 PUSH1 0x1 PUSH1 0xA0 SHL SUB DUP2 AND SUB PUSH2 0x180 JUMPI JUMP JUMPDEST CALLVALUE PUSH2 0x180 JUMPI PUSH1 0x20 CALLDATASIZE PUSH1 0x3 NOT ADD SLT PUSH2 0x180 JUMPI PUSH1 0x4 CALLDATALOAD PUSH2 0x334 DUP2 PUSH2 0x306 JUMP JUMPDEST PUSH1 0x4 SLOAD PUSH1 0x1 PUSH1 0x1 PUSH1 0xA0 SHL SUB SWAP2 SWAP1 PUSH2 0x34E SWAP1 DUP4 AND CALLER EQ PUSH2 0xBE4 JUMP JUMPDEST AND PUSH12 0xFFFFFFFFFFFFFFFFFFFFFFFF PUSH1 0xA0 SHL PUSH1 0x6 SLOAD AND OR PUSH1 0x6 SSTORE PUSH1 0x0 DUP1 RETURN JUMPDEST CALLVALUE PUSH2 0x180 JUMPI PUSH1 0x0 CALLDATASIZE PUSH1 0x3 NOT ADD SLT PUSH2 0x180 JUMPI PUSH1 0x20 PUSH1 0x40 MLOAD PUSH32 0x96095DFC37F9A66C8034A4D38D97353803BD6848D1D396679DA2309AD6F185B4 DUP2 MSTORE RETURN JUMPDEST CALLVALUE PUSH2 0x180 JUMPI PUSH1 0x60 CALLDATASIZE PUSH1 0x3 NOT ADD SLT PUSH2 0x180 JUMPI PUSH1 0x4 CALLDATALOAD PUSH1 0x1 PUSH1 0x1 PUSH1 0x40 SHL SUB DUP2 GT PUSH2 0x180 JUMPI PUSH2 0x3D7 SWAP1 CALLDATASIZE SWAP1 PUSH1 0x4 ADD PUSH2 0x185 JUMP JUMPDEST SWAP1 PUSH1 0x24 CALLDATALOAD DUP1 ISZERO ISZERO DUP2 SUB PUSH2 0x180 JUMPI DUP3 PUSH2 0x3FA PUSH2 0x3F5 PUSH2 0x43F SWAP6 DUP6 PUSH2 0x16B9 JUMP JUMPDEST PUSH2 0xC30 JUMP JUMPDEST PUSH2 0x418 PUSH1 0x40 MLOAD DUP3 DUP6 DUP3 CALLDATACOPY PUSH1 0x20 DUP2 DUP5 DUP2 ADD PUSH1 0x0 DUP2 MSTORE SUB ADD SWAP1 KECCAK256 SLOAD PUSH2 0x16ED JUMP JUMPDEST DUP1 ISZERO PUSH2 0x47F JUMPI JUMPDEST DUP1 ISZERO PUSH2 0x45A JUMPI JUMPDEST DUP1 ISZERO PUSH2 0x441 JUMPI JUMPDEST PUSH2 0x436 SWAP1 PUSH2 0xC88 JUMP JUMPDEST PUSH1 0x44 CALLDATALOAD SWAP3 PUSH2 0xCF4 JUMP JUMPDEST STOP JUMPDEST POP CALLER PUSH1 0x0 SWAP1 DUP2 MSTORE PUSH1 0x2 PUSH1 0x20 MSTORE PUSH1 0x40 SWAP1 KECCAK256 SLOAD PUSH1 0xFF AND PUSH2 0x42D JUMP JUMPDEST POP PUSH1 0x5 SLOAD PUSH2 0x478 SWAP1 PUSH1 0x1 PUSH1 0x1 PUSH1 0xA0 SHL SUB AND JUMPDEST PUSH1 0x1 PUSH1 0x1 PUSH1 0xA0 SHL SUB AND SWAP1 JUMP JUMPDEST CALLER EQ PUSH2 0x426 JUMP JUMPDEST POP PUSH1 0x4 SLOAD PUSH2 0x495 SWAP1 PUSH1 0x1 PUSH1 0x1 PUSH1 0xA0 SHL SUB AND PUSH2 0x46C JUMP JUMPDEST CALLER EQ PUSH2 0x41F JUMP JUMPDEST CALLVALUE PUSH2 0x180 JUMPI PUSH1 0x0 CALLDATASIZE PUSH1 0x3 NOT ADD SLT PUSH2 0x180 JUMPI PUSH1 0x20 PUSH1 0x40 MLOAD PUSH32 0x0 DUP2 MSTORE RETURN JUMPDEST CALLVALUE PUSH2 0x180 JUMPI PUSH1 0xE0 CALLDATASIZE PUSH1 0x3 NOT ADD SLT PUSH2 0x180 JUMPI PUSH1 0x1 PUSH1 0x1 PUSH1 0x40 SHL SUB PUSH1 0x24 CALLDATALOAD DUP2 DUP2 GT PUSH2 0x180 JUMPI PUSH2 0x508 SWAP1 CALLDATASIZE SWAP1 PUSH1 0x4 ADD PUSH2 0x185 JUMP JUMPDEST SWAP1 PUSH1 0x44 CALLDATALOAD DUP4 DUP2 GT PUSH2 0x180 JUMPI PUSH2 0x521 SWAP1 CALLDATASIZE SWAP1 PUSH1 0x4 ADD PUSH2 0x185 JUMP JUMPDEST SWAP3 SWAP1 SWAP2 PUSH1 0x84 CALLDATALOAD DUP6 DUP2 GT PUSH2 0x180 JUMPI PUSH2 0x53C SWAP1 CALLDATASIZE SWAP1 PUSH1 0x4 ADD PUSH2 0x185 JUMP JUMPDEST SWAP2 PUSH1 0xC4 CALLDATALOAD SWAP7 DUP8 GT PUSH2 0x180 JUMPI PUSH2 0x558 PUSH2 0x43F SWAP8 CALLDATASIZE SWAP1 PUSH1 0x4 ADD PUSH2 0x185 JUMP JUMPDEST SWAP7 SWAP1 SWAP6 PUSH1 0xA4 CALLDATALOAD SWAP6 PUSH1 0x64 CALLDATALOAD SWAP4 PUSH1 0x4 CALLDATALOAD PUSH2 0xDF6 JUMP JUMPDEST CALLVALUE PUSH2 0x180 JUMPI PUSH1 0x20 CALLDATASIZE PUSH1 0x3 NOT ADD SLT PUSH2 0x180 JUMPI PUSH1 0x4 CALLDATALOAD PUSH2 0x588 DUP2 PUSH2 0x306 JUMP JUMPDEST PUSH1 0x4 SLOAD PUSH1 0x1 PUSH1 0x1 PUSH1 0xA0 SHL SUB SWAP2 SWAP1 PUSH2 0x5A2 SWAP1 DUP4 AND CALLER EQ PUSH2 0xBE4 JUMP JUMPDEST AND PUSH1 0x0 DUP2 DUP2 MSTORE PUSH1 0x2 PUSH1 0x20 MSTORE PUSH1 0x40 DUP2 KECCAK256 DUP1 SLOAD PUSH1 0xFF NOT AND SWAP1 SSTORE SWAP1 PUSH32 0xE1434E25D6611E0DB941968FDC97811C982AC1602E951637D206F5FDDA9DD8F1 DUP3 DUP1 LOG2 DUP1 RETURN JUMPDEST CALLVALUE PUSH2 0x180 JUMPI PUSH1 0x20 CALLDATASIZE PUSH1 0x3 NOT ADD SLT PUSH2 0x180 JUMPI PUSH1 0x4 CALLDATALOAD PUSH2 0x5FE DUP2 PUSH2 0x306 JUMP JUMPDEST PUSH1 0x4 SLOAD PUSH1 0x1 PUSH1 0x1 PUSH1 0xA0 SHL SUB SWAP2 SWAP1 PUSH2 0x618 SWAP1 DUP4 AND CALLER EQ PUSH2 0xBE4 JUMP JUMPDEST AND PUSH1 0x0 DUP2 DUP2 MSTORE PUSH1 0x2 PUSH1 0x20 MSTORE PUSH1 0x40 DUP2 KECCAK256 DUP1 SLOAD PUSH1 0xFF NOT AND PUSH1 0x1 OR SWAP1 SSTORE SWAP1 PUSH32 0xE366C1C0452ED8EEC96861E9E54141EBFF23C9EC89FE27B996B45F5EC3884987 DUP3 DUP1 LOG2 DUP1 RETURN JUMPDEST CALLVALUE PUSH2 0x180 JUMPI PUSH1 0x0 CALLDATASIZE PUSH1 0x3 NOT ADD SLT PUSH2 0x180 JUMPI PUSH1 0x20 PUSH1 0x40 MLOAD PUSH32 0x1EC7E03C4566B17698B4646A50D20FE3919BCC034624C1F7A497211439C8BC1A DUP2 MSTORE RETURN JUMPDEST CALLVALUE PUSH2 0x180 JUMPI PUSH1 0x20 CALLDATASIZE PUSH1 0x3 NOT ADD SLT PUSH2 0x180 JUMPI PUSH1 0x4 CALLDATALOAD PUSH1 0x0 MSTORE PUSH1 0x1 PUSH1 0x20 MSTORE PUSH1 0x20 PUSH1 0x40 PUSH1 0x0 KECCAK256 SLOAD PUSH1 0x40 MLOAD SWAP1 DUP2 MSTORE RETURN JUMPDEST CALLVALUE PUSH2 0x180 JUMPI PUSH1 0x20 CALLDATASIZE PUSH1 0x3 NOT ADD SLT PUSH2 0x180 JUMPI PUSH1 0x4 CALLDATALOAD PUSH2 0x6DE DUP2 PUSH2 0x306 JUMP JUMPDEST PUSH1 0x1 DUP1 PUSH1 0xA0 SHL SUB AND PUSH1 0x0 MSTORE PUSH1 0x2 PUSH1 0x20 MSTORE PUSH1 0x20 PUSH1 0xFF PUSH1 0x40 PUSH1 0x0 KECCAK256 SLOAD AND PUSH1 0x40 MLOAD SWAP1 ISZERO ISZERO DUP2 MSTORE RETURN JUMPDEST PUSH1 0x20 DUP1 DUP3 ADD SWAP1 PUSH1 0x20 DUP4 MSTORE DUP4 MLOAD DUP1 SWAP3 MSTORE PUSH1 0x40 DUP4 ADD SWAP3 PUSH1 0x20 PUSH1 0x40 DUP5 PUSH1 0x5 SHL DUP4 ADD ADD SWAP6 ADD SWAP4 PUSH1 0x0 SWAP2 JUMPDEST DUP5 DUP4 LT PUSH2 0x739 JUMPI POP POP POP POP POP POP SWAP1 JUMP JUMPDEST SWAP1 SWAP2 SWAP3 SWAP4 SWAP5 SWAP6 DUP5 DUP1 PUSH2 0x757 PUSH1 0x1 SWAP4 PUSH1 0x3F NOT DUP7 DUP3 SUB ADD DUP8 MSTORE DUP11 MLOAD PUSH2 0x1E0 JUMP JUMPDEST SWAP9 ADD SWAP4 ADD SWAP4 ADD SWAP2 SWAP5 SWAP4 SWAP3 SWAP1 PUSH2 0x729 JUMP JUMPDEST CALLVALUE PUSH2 0x180 JUMPI PUSH1 0x20 DUP1 PUSH1 0x3 NOT CALLDATASIZE ADD SLT PUSH2 0x180 JUMPI PUSH1 0x4 CALLDATALOAD PUSH1 0x0 MSTORE PUSH1 0x1 SWAP1 PUSH1 0x1 DUP2 MSTORE PUSH1 0x40 SWAP1 PUSH1 0x40 PUSH1 0x0 KECCAK256 SWAP2 DUP3 SLOAD SWAP2 PUSH1 0x1 PUSH1 0x1 PUSH1 0x40 SHL SUB DUP4 GT PUSH2 0x7FC JUMPI PUSH1 0x40 MLOAD SWAP4 SWAP2 PUSH2 0x7B5 PUSH1 0x5 DUP6 SWAP1 SHL DUP4 ADD DUP7 PUSH2 0xBC3 JUMP JUMPDEST DUP4 DUP6 MSTORE PUSH1 0x0 SWAP3 DUP4 MSTORE DUP2 DUP4 KECCAK256 SWAP1 DUP3 DUP7 ADD JUMPDEST DUP6 DUP6 LT PUSH2 0x7DA JUMPI PUSH1 0x40 MLOAD DUP1 PUSH2 0x302 DUP10 DUP3 PUSH2 0x703 JUMP JUMPDEST DUP8 DUP5 DUP2 SWAP3 DUP5 MLOAD PUSH2 0x7EE DUP2 PUSH2 0x2E4 DUP2 DUP11 PUSH2 0xAFB JUMP JUMPDEST DUP2 MSTORE ADD SWAP4 ADD SWAP5 ADD SWAP4 SWAP2 PUSH2 0x7C5 JUMP JUMPDEST PUSH2 0xB91 JUMP JUMPDEST CALLVALUE PUSH2 0x180 JUMPI PUSH1 0x0 CALLDATASIZE PUSH1 0x3 NOT ADD SLT PUSH2 0x180 JUMPI PUSH1 0x20 PUSH1 0x3 SLOAD PUSH1 0x40 MLOAD SWAP1 DUP2 MSTORE RETURN JUMPDEST CALLVALUE PUSH2 0x180 JUMPI PUSH1 0x0 CALLDATASIZE PUSH1 0x3 NOT ADD SLT PUSH2 0x180 JUMPI PUSH1 0x4 SLOAD PUSH1 0x40 MLOAD PUSH1 0x1 PUSH1 0x1 PUSH1 0xA0 SHL SUB SWAP1 SWAP2 AND DUP2 MSTORE PUSH1 0x20 SWAP1 RETURN JUMPDEST CALLVALUE PUSH2 0x180 JUMPI PUSH1 0x9 PUSH2 0x3F5 PUSH2 0x87C PUSH2 0x85E CALLDATASIZE PUSH2 0x1B2 JUMP JUMPDEST PUSH1 0x40 SWAP4 SWAP2 SWAP4 MLOAD DUP2 DUP6 DUP3 CALLDATACOPY PUSH1 0x20 DUP2 DUP4 DUP2 ADD PUSH1 0x0 DUP2 MSTORE SUB ADD SWAP1 KECCAK256 SWAP4 PUSH2 0x16B9 JUMP JUMPDEST PUSH1 0x1 DUP1 PUSH1 0xA0 SHL SUB PUSH1 0x8 DUP3 ADD SLOAD AND SWAP1 PUSH2 0x8AA PUSH1 0xA DUP3 ADD SLOAD SWAP2 PUSH2 0x8A3 PUSH1 0x40 MLOAD DUP1 SWAP7 DUP2 SWAP4 ADD PUSH2 0xAFB JUMP JUMPDEST SUB DUP5 PUSH2 0xBC3 JUMP JUMPDEST PUSH2 0x8C6 PUSH1 0x40 MLOAD SWAP4 DUP5 SWAP4 DUP5 MSTORE PUSH1 0x60 PUSH1 0x20 DUP6 ADD MSTORE PUSH1 0x60 DUP5 ADD SWAP1 PUSH2 0x1E0 JUMP JUMPDEST SWAP1 PUSH1 0x40 DUP4 ADD MSTORE SUB SWAP1 RETURN JUMPDEST CALLVALUE PUSH2 0x180 JUMPI PUSH1 0x0 CALLDATASIZE PUSH1 0x3 NOT ADD SLT PUSH2 0x180 JUMPI PUSH1 0x5 SLOAD PUSH1 0x40 MLOAD PUSH1 0x1 PUSH1 0x1 PUSH1 0xA0 SHL SUB SWAP1 SWAP2 AND DUP2 MSTORE PUSH1 0x20 SWAP1 RETURN JUMPDEST CALLVALUE PUSH2 0x180 JUMPI PUSH2 0x302 PUSH2 0x90A CALLDATASIZE PUSH2 0x1B2 JUMP JUMPDEST SWAP1 PUSH2 0x97A PUSH1 0x40 MLOAD DUP4 DUP4 DUP3 CALLDATACOPY PUSH1 0x20 DUP2 DUP6 DUP2 ADD PUSH1 0x0 DUP2 MSTORE SUB ADD SWAP1 KECCAK256 SWAP3 PUSH2 0x931 PUSH2 0x3F5 DUP3 DUP6 PUSH2 0x16B9 JUMP JUMPDEST DUP4 SLOAD PUSH1 0x3 DUP6 ADD SLOAD SWAP1 PUSH1 0x5 DUP7 ADD SLOAD SWAP2 PUSH2 0x959 PUSH1 0x1 DUP1 PUSH1 0xA0 SHL SUB PUSH1 0x8 DUP10 ADD SLOAD AND SWAP7 DUP8 SWAP6 CALLDATASIZE SWAP2 PUSH2 0x11E0 JUMP JUMPDEST PUSH1 0x40 MLOAD SWAP3 PUSH2 0x975 DUP5 PUSH2 0x96E DUP2 PUSH1 0x4 DUP14 ADD PUSH2 0xAFB JUMP JUMPDEST SUB DUP6 PUSH2 0xBC3 JUMP JUMPDEST PUSH2 0x1774 JUMP JUMPDEST PUSH1 0xA DUP4 ADD SLOAD DUP1 SWAP2 EQ SWAP3 DUP4 PUSH2 0x99E JUMPI JUMPDEST POP POP PUSH1 0x40 MLOAD SWAP2 ISZERO ISZERO DUP3 MSTORE POP SWAP1 DUP2 SWAP1 PUSH1 0x20 DUP3 ADD SWAP1 JUMP JUMPDEST PUSH2 0x9B5 SWAP4 POP PUSH1 0x9 PUSH2 0x9AF SWAP2 ADD PUSH2 0x169C JUMP JUMPDEST SWAP2 PUSH2 0x1858 JUMP JUMPDEST CODESIZE DUP1 DUP1 PUSH2 0x989 JUMP JUMPDEST CALLVALUE PUSH2 0x180 JUMPI PUSH1 0xC0 CALLDATASIZE PUSH1 0x3 NOT ADD SLT PUSH2 0x180 JUMPI PUSH1 0x1 PUSH1 0x1 PUSH1 0x40 SHL SUB PUSH1 0x24 CALLDATALOAD DUP2 DUP2 GT PUSH2 0x180 JUMPI PUSH2 0x9EE SWAP1 CALLDATASIZE SWAP1 PUSH1 0x4 ADD PUSH2 0x185 JUMP JUMPDEST PUSH1 0x64 CALLDATALOAD SWAP3 DUP4 GT PUSH2 0x180 JUMPI PUSH2 0xA2A PUSH2 0xA43 SWAP3 PUSH2 0xA36 PUSH2 0xA13 PUSH2 0x302 SWAP7 CALLDATASIZE SWAP1 PUSH1 0x4 ADD PUSH2 0x185 JUMP JUMPDEST SWAP4 SWAP1 SWAP3 PUSH1 0xA4 CALLDATALOAD SWAP6 PUSH2 0xA23 DUP8 PUSH2 0x306 JUMP JUMPDEST CALLDATASIZE SWAP2 PUSH2 0x11E0 JUMP JUMPDEST SWAP2 PUSH1 0x84 CALLDATALOAD SWAP4 CALLDATASIZE SWAP2 PUSH2 0x11E0 JUMP JUMPDEST SWAP1 PUSH1 0x44 CALLDATALOAD SWAP1 PUSH1 0x4 CALLDATALOAD PUSH2 0x1774 JUMP JUMPDEST PUSH1 0x40 MLOAD SWAP1 DUP2 MSTORE SWAP1 DUP2 SWAP1 PUSH1 0x20 DUP3 ADD SWAP1 JUMP JUMPDEST CALLVALUE PUSH2 0x180 JUMPI PUSH1 0x20 CALLDATASIZE PUSH1 0x3 NOT ADD SLT PUSH2 0x180 JUMPI PUSH1 0x4 CALLDATALOAD PUSH2 0xA70 DUP2 PUSH2 0x306 JUMP JUMPDEST PUSH1 0x4 SLOAD PUSH1 0x1 PUSH1 0x1 PUSH1 0xA0 SHL SUB SWAP2 SWAP1 PUSH2 0xA8A SWAP1 DUP4 AND CALLER EQ PUSH2 0xBE4 JUMP JUMPDEST AND PUSH12 0xFFFFFFFFFFFFFFFFFFFFFFFF PUSH1 0xA0 SHL PUSH1 0x5 SLOAD AND OR PUSH1 0x5 SSTORE PUSH1 0x0 DUP1 RETURN JUMPDEST PUSH1 0x20 SWAP1 DUP3 PUSH1 0x40 MLOAD SWAP4 DUP5 SWAP3 DUP4 CALLDATACOPY DUP2 ADD PUSH1 0x0 DUP2 MSTORE SUB ADD SWAP1 KECCAK256 SWAP1 JUMP JUMPDEST SWAP1 PUSH1 0x1 DUP3 DUP2 SHR SWAP3 AND DUP1 ISZERO PUSH2 0xAF1 JUMPI JUMPDEST PUSH1 0x20 DUP4 LT EQ PUSH2 0xADB JUMPI JUMP JUMPDEST PUSH4 0x4E487B71 PUSH1 0xE0 SHL PUSH1 0x0 MSTORE PUSH1 0x22 PUSH1 0x4 MSTORE PUSH1 0x24 PUSH1 0x0 REVERT JUMPDEST SWAP2 PUSH1 0x7F AND SWAP2 PUSH2 0xAD0 JUMP JUMPDEST DUP1 SLOAD PUSH1 0x0 SWAP4 SWAP3 PUSH2 0xB0A DUP3 PUSH2 0xAC1 JUMP JUMPDEST SWAP2 DUP3 DUP3 MSTORE PUSH1 0x20 SWAP4 PUSH1 0x1 SWAP2 PUSH1 0x1 DUP2 AND SWAP1 DUP2 PUSH1 0x0 EQ PUSH2 0xB72 JUMPI POP PUSH1 0x1 EQ PUSH2 0xB31 JUMPI JUMPDEST POP POP POP POP POP JUMP JUMPDEST SWAP1 SWAP4 SWAP5 SWAP6 POP PUSH1 0x0 SWAP3 SWAP2 SWAP3 MSTORE DUP4 PUSH1 0x0 KECCAK256 SWAP3 DUP5 PUSH1 0x0 SWAP5 JUMPDEST DUP4 DUP7 LT PUSH2 0xB5E JUMPI POP POP POP POP ADD ADD SWAP1 CODESIZE DUP1 DUP1 DUP1 DUP1 PUSH2 0xB2A JUMP JUMPDEST DUP1 SLOAD DUP6 DUP8 ADD DUP4 ADD MSTORE SWAP5 ADD SWAP4 DUP6 SWAP1 DUP3 ADD PUSH2 0xB46 JUMP JUMPDEST PUSH1 0xFF NOT AND DUP7 DUP6 ADD MSTORE POP POP POP SWAP1 ISZERO ISZERO PUSH1 0x5 SHL ADD ADD SWAP2 POP CODESIZE DUP1 DUP1 DUP1 DUP1 PUSH2 0xB2A JUMP JUMPDEST PUSH4 0x4E487B71 PUSH1 0xE0 SHL PUSH1 0x0 MSTORE PUSH1 0x41 PUSH1 0x4 MSTORE PUSH1 0x24 PUSH1 0x0 REVERT JUMPDEST PUSH2 0x100 DUP2 ADD SWAP1 DUP2 LT PUSH1 0x1 PUSH1 0x1 PUSH1 0x40 SHL SUB DUP3 GT OR PUSH2 0x7FC JUMPI PUSH1 0x40 MSTORE JUMP JUMPDEST SWAP1 PUSH1 0x1F DUP1 NOT SWAP2 ADD AND DUP2 ADD SWAP1 DUP2 LT PUSH1 0x1 PUSH1 0x1 PUSH1 0x40 SHL SUB DUP3 GT OR PUSH2 0x7FC JUMPI PUSH1 0x40 MSTORE JUMP JUMPDEST ISZERO PUSH2 0xBEB JUMPI JUMP JUMPDEST PUSH1 0x40 MLOAD PUSH3 0x461BCD PUSH1 0xE5 SHL DUP2 MSTORE PUSH1 0x20 PUSH1 0x4 DUP3 ADD MSTORE PUSH1 0x1D PUSH1 0x24 DUP3 ADD MSTORE PUSH32 0x56616C69646174696F6E52656769737472793A206E6F74206F776E6572000000 PUSH1 0x44 DUP3 ADD MSTORE PUSH1 0x64 SWAP1 REVERT JUMPDEST ISZERO PUSH2 0xC37 JUMPI JUMP JUMPDEST PUSH1 0x40 MLOAD PUSH3 0x461BCD PUSH1 0xE5 SHL DUP2 MSTORE PUSH1 0x20 PUSH1 0x4 DUP3 ADD MSTORE PUSH1 0x23 PUSH1 0x24 DUP3 ADD MSTORE PUSH32 0x56616C69646174696F6E52656769737472793A207472616465206E6F7420666F PUSH1 0x44 DUP3 ADD MSTORE PUSH3 0x1D5B99 PUSH1 0xEA SHL PUSH1 0x64 DUP3 ADD MSTORE PUSH1 0x84 SWAP1 REVERT JUMPDEST ISZERO PUSH2 0xC8F JUMPI JUMP JUMPDEST PUSH1 0x40 MLOAD PUSH3 0x461BCD PUSH1 0xE5 SHL DUP2 MSTORE PUSH1 0x20 PUSH1 0x4 DUP3 ADD MSTORE PUSH1 0x22 PUSH1 0x24 DUP3 ADD MSTORE PUSH32 0x56616C69646174696F6E52656769737472793A206E6F7420617574686F72697A PUSH1 0x44 DUP3 ADD MSTORE PUSH2 0x1959 PUSH1 0xF2 SHL PUSH1 0x64 DUP3 ADD MSTORE PUSH1 0x84 SWAP1 REVERT JUMPDEST DUP2 PUSH1 0x40 MLOAD SWAP3 DUP4 SWAP3 DUP4 CALLDATACOPY DUP2 ADD PUSH1 0x0 DUP2 MSTORE SUB SWAP1 KECCAK256 SWAP1 JUMP JUMPDEST SWAP3 SWAP1 SWAP2 SWAP3 PUSH1 0x40 MLOAD DUP4 DUP3 DUP3 CALLDATACOPY PUSH1 0x20 DUP2 DUP6 DUP2 ADD PUSH1 0x0 DUP2 MSTORE SUB ADD SWAP1 KECCAK256 SWAP3 PUSH2 0xD25 PUSH2 0xD1E PUSH1 0x1 DUP7 ADD SLOAD PUSH2 0xAC1 JUMP JUMPDEST ISZERO ISZERO PUSH2 0xC30 JUMP JUMPDEST PUSH1 0x6 DUP5 ADD SWAP2 PUSH1 0xFF DUP4 SLOAD AND PUSH2 0xDA5 JUMPI DUP4 PUSH1 0x7 PUSH32 0xD279284839694EBC5159956471CCA902DB2D8F1BD10A43FFA5A1DF84C63B1037 SWAP7 PUSH2 0xD89 DUP10 DUP8 PUSH2 0xD71 PUSH2 0xD90 SWAP10 PUSH1 0x1 PUSH1 0xFF NOT DUP3 SLOAD AND OR SWAP1 SSTORE JUMP JUMPDEST SWAP1 PUSH2 0xFF00 DUP3 SLOAD SWAP2 ISZERO ISZERO PUSH1 0x8 SHL AND SWAP1 PUSH2 0xFF00 NOT AND OR SWAP1 SSTORE JUMP JUMPDEST ADD SSTORE PUSH2 0xCDF JUMP JUMPDEST PUSH1 0x40 DUP1 MLOAD SWAP5 ISZERO ISZERO DUP6 MSTORE PUSH1 0x20 DUP6 ADD SWAP3 SWAP1 SWAP3 MSTORE SWAP3 LOG2 JUMP JUMPDEST PUSH1 0x40 MLOAD PUSH3 0x461BCD PUSH1 0xE5 SHL DUP2 MSTORE PUSH1 0x20 PUSH1 0x4 DUP3 ADD MSTORE PUSH1 0x24 DUP1 DUP3 ADD MSTORE PUSH32 0x56616C69646174696F6E52656769737472793A20616C7265616479207265636F PUSH1 0x44 DUP3 ADD MSTORE PUSH4 0x1C991959 PUSH1 0xE2 SHL PUSH1 0x64 DUP3 ADD MSTORE PUSH1 0x84 SWAP1 REVERT JUMPDEST SWAP8 SWAP7 SWAP6 SWAP10 SWAP3 SWAP9 SWAP1 SWAP5 SWAP9 SWAP4 SWAP2 SWAP4 PUSH2 0xE0B DUP10 PUSH2 0x16ED JUMP JUMPDEST DUP1 ISZERO PUSH2 0x1002 JUMPI JUMPDEST DUP1 ISZERO PUSH2 0xFEE JUMPI JUMPDEST DUP1 ISZERO PUSH2 0xFD5 JUMPI JUMPDEST PUSH2 0xE29 SWAP1 PUSH2 0xC88 JUMP JUMPDEST PUSH2 0xE34 DUP6 ISZERO ISZERO PUSH2 0x1016 JUMP JUMPDEST PUSH2 0xE4D PUSH2 0xE48 PUSH2 0xE44 DUP8 DUP10 PUSH2 0x16B9 JUMP JUMPDEST ISZERO SWAP1 JUMP JUMPDEST PUSH2 0x106E JUMP JUMPDEST PUSH2 0xE5A PUSH1 0x64 DUP12 GT ISZERO PUSH2 0x10CD JUMP JUMPDEST PUSH2 0xE63 TIMESTAMP PUSH2 0x113E JUMP JUMPDEST DUP9 LT ISZERO DUP1 PUSH2 0xFBE JUMPI JUMPDEST PUSH2 0xE75 SWAP1 PUSH2 0x1161 JUMP JUMPDEST DUP9 DUP12 DUP10 PUSH2 0xE83 CALLDATASIZE DUP10 DUP12 PUSH2 0x11E0 JUMP JUMPDEST DUP14 CALLER SWAP4 DUP13 CALLDATASIZE SWAP1 PUSH2 0xE92 SWAP3 PUSH2 0x11E0 JUMP JUMPDEST SWAP2 PUSH2 0xE9C SWAP6 PUSH2 0x1774 JUMP JUMPDEST SWAP3 DUP4 PUSH2 0xEA9 CALLDATASIZE DUP8 DUP7 PUSH2 0x11E0 JUMP JUMPDEST PUSH2 0xEB3 SWAP2 CALLER PUSH2 0x1858 JUMP JUMPDEST PUSH2 0xEBC SWAP1 PUSH2 0x1226 JUMP JUMPDEST PUSH2 0xEC5 SWAP2 PUSH2 0x1961 JUMP JUMPDEST SWAP3 PUSH2 0xECE PUSH2 0x11C0 JUMP JUMPDEST DUP10 DUP2 MSTORE SWAP4 PUSH2 0xEDD CALLDATASIZE DUP8 DUP10 PUSH2 0x11E0 JUMP JUMPDEST PUSH1 0x20 DUP7 ADD MSTORE PUSH1 0x40 DUP6 ADD MSTORE DUP10 PUSH1 0x60 DUP6 ADD MSTORE CALLDATASIZE PUSH2 0xEF9 SWAP1 DUP9 DUP14 PUSH2 0x11E0 JUMP JUMPDEST PUSH1 0x80 DUP6 ADD MSTORE PUSH1 0xA0 DUP5 ADD DUP9 SWAP1 MSTORE PUSH1 0x0 PUSH1 0xC0 DUP6 ADD DUP2 SWAP1 MSTORE PUSH1 0xE0 DUP6 ADD DUP2 SWAP1 MSTORE PUSH2 0x100 DUP6 ADD MSTORE CALLER PUSH2 0x120 DUP6 ADD MSTORE CALLDATASIZE SWAP1 PUSH2 0xF2D SWAP3 PUSH2 0x11E0 JUMP JUMPDEST PUSH2 0x140 DUP4 ADD MSTORE PUSH2 0x160 DUP3 ADD MSTORE PUSH2 0xF43 DUP3 DUP5 PUSH2 0xAA8 JUMP JUMPDEST SWAP1 PUSH2 0xF4D SWAP2 PUSH2 0x145A JUMP JUMPDEST DUP2 DUP2 PUSH2 0xF63 DUP8 PUSH1 0x0 MSTORE PUSH1 0x1 PUSH1 0x20 MSTORE PUSH1 0x40 PUSH1 0x0 KECCAK256 SWAP1 JUMP JUMPDEST SWAP2 PUSH2 0xF6D SWAP3 PUSH2 0x1553 JUMP JUMPDEST PUSH1 0x3 SLOAD PUSH2 0xF79 SWAP1 PUSH2 0x1659 JUMP JUMPDEST PUSH1 0x3 SSTORE PUSH2 0xF85 SWAP2 PUSH2 0xCDF JUMP JUMPDEST SWAP4 PUSH1 0x40 MLOAD SWAP3 DUP4 SWAP3 CALLER SWAP8 PUSH2 0xF98 SWAP4 DUP6 PUSH2 0x1668 JUMP JUMPDEST SUB PUSH32 0x762BA33AD2BC68D518AE479E216850CB97A85007D56136DE9BFB72C6E5E74523 SWAP2 LOG4 JUMP JUMPDEST POP PUSH2 0xE75 PUSH2 0xFCB TIMESTAMP PUSH2 0x1153 JUMP JUMPDEST DUP10 GT ISZERO SWAP1 POP PUSH2 0xE6C JUMP JUMPDEST POP CALLER PUSH1 0x0 SWAP1 DUP2 MSTORE PUSH1 0x2 PUSH1 0x20 MSTORE PUSH1 0x40 SWAP1 KECCAK256 SLOAD PUSH1 0xFF AND PUSH2 0xE20 JUMP JUMPDEST POP PUSH1 0x5 SLOAD PUSH1 0x1 PUSH1 0x1 PUSH1 0xA0 SHL SUB AND CALLER EQ PUSH2 0xE19 JUMP JUMPDEST POP PUSH1 0x4 SLOAD PUSH1 0x1 PUSH1 0x1 PUSH1 0xA0 SHL SUB AND CALLER EQ PUSH2 0xE12 JUMP JUMPDEST ISZERO PUSH2 0x101D JUMPI JUMP JUMPDEST PUSH1 0x40 MLOAD PUSH3 0x461BCD PUSH1 0xE5 SHL DUP2 MSTORE PUSH1 0x20 PUSH1 0x4 DUP3 ADD MSTORE PUSH1 0x24 DUP1 DUP3 ADD MSTORE PUSH32 0x56616C69646174696F6E52656769737472793A20747261646549642072657175 PUSH1 0x44 DUP3 ADD MSTORE PUSH4 0x1A5C9959 PUSH1 0xE2 SHL PUSH1 0x64 DUP3 ADD MSTORE PUSH1 0x84 SWAP1 REVERT JUMPDEST ISZERO PUSH2 0x1075 JUMPI JUMP JUMPDEST PUSH1 0x40 MLOAD PUSH3 0x461BCD PUSH1 0xE5 SHL DUP2 MSTORE PUSH1 0x20 PUSH1 0x4 DUP3 ADD MSTORE PUSH1 0x2A PUSH1 0x24 DUP3 ADD MSTORE PUSH32 0x56616C69646174696F6E52656769737472793A207472616465496420616C7265 PUSH1 0x44 DUP3 ADD MSTORE PUSH10 0x18591E481CDD1BDC9959 PUSH1 0xB2 SHL PUSH1 0x64 DUP3 ADD MSTORE PUSH1 0x84 SWAP1 REVERT JUMPDEST ISZERO PUSH2 0x10D4 JUMPI JUMP JUMPDEST PUSH1 0x40 MLOAD PUSH3 0x461BCD PUSH1 0xE5 SHL DUP2 MSTORE PUSH1 0x20 PUSH1 0x4 DUP3 ADD MSTORE PUSH1 0x26 PUSH1 0x24 DUP3 ADD MSTORE PUSH32 0x56616C69646174696F6E52656769737472793A20696E76616C696420636F6E66 PUSH1 0x44 DUP3 ADD MSTORE PUSH6 0x6964656E6365 PUSH1 0xD0 SHL PUSH1 0x64 DUP3 ADD MSTORE PUSH1 0x84 SWAP1 REVERT JUMPDEST PUSH4 0x4E487B71 PUSH1 0xE0 SHL PUSH1 0x0 MSTORE PUSH1 0x11 PUSH1 0x4 MSTORE PUSH1 0x24 PUSH1 0x0 REVERT JUMPDEST PUSH2 0x257 NOT DUP2 ADD SWAP2 SWAP1 DUP3 GT PUSH2 0x114E JUMPI JUMP JUMPDEST PUSH2 0x1128 JUMP JUMPDEST SWAP1 PUSH1 0x3C DUP3 ADD DUP1 SWAP3 GT PUSH2 0x114E JUMPI JUMP JUMPDEST ISZERO PUSH2 0x1168 JUMPI JUMP JUMPDEST PUSH1 0x40 MLOAD PUSH3 0x461BCD PUSH1 0xE5 SHL DUP2 MSTORE PUSH1 0x20 PUSH1 0x4 DUP3 ADD MSTORE PUSH1 0x2A PUSH1 0x24 DUP3 ADD MSTORE PUSH32 0x56616C69646174696F6E52656769737472793A2074696D657374616D70206F75 PUSH1 0x44 DUP3 ADD MSTORE PUSH10 0x74206F662072616E6765 PUSH1 0xB0 SHL PUSH1 0x64 DUP3 ADD MSTORE PUSH1 0x84 SWAP1 REVERT JUMPDEST PUSH1 0x40 MLOAD SWAP1 PUSH2 0x180 DUP3 ADD DUP3 DUP2 LT PUSH1 0x1 PUSH1 0x1 PUSH1 0x40 SHL SUB DUP3 GT OR PUSH2 0x7FC JUMPI PUSH1 0x40 MSTORE JUMP JUMPDEST SWAP3 SWAP2 SWAP3 PUSH1 0x1 PUSH1 0x1 PUSH1 0x40 SHL SUB DUP3 GT PUSH2 0x7FC JUMPI PUSH1 0x40 MLOAD SWAP2 PUSH2 0x1209 PUSH1 0x1F DUP3 ADD PUSH1 0x1F NOT AND PUSH1 0x20 ADD DUP5 PUSH2 0xBC3 JUMP JUMPDEST DUP3 SWAP5 DUP2 DUP5 MSTORE DUP2 DUP4 ADD GT PUSH2 0x180 JUMPI DUP3 DUP2 PUSH1 0x20 SWAP4 DUP5 PUSH1 0x0 SWAP7 ADD CALLDATACOPY ADD ADD MSTORE JUMP JUMPDEST ISZERO PUSH2 0x122D JUMPI JUMP JUMPDEST PUSH1 0x40 MLOAD PUSH3 0x461BCD PUSH1 0xE5 SHL DUP2 MSTORE PUSH1 0x20 PUSH1 0x4 DUP3 ADD MSTORE PUSH1 0x2F PUSH1 0x24 DUP3 ADD MSTORE PUSH32 0x56616C69646174696F6E52656769737472793A20696E76616C69642076616C69 PUSH1 0x44 DUP3 ADD MSTORE PUSH15 0x6461746F72207369676E6174757265 PUSH1 0x88 SHL PUSH1 0x64 DUP3 ADD MSTORE PUSH1 0x84 SWAP1 REVERT JUMPDEST SWAP1 PUSH1 0x1F DUP2 GT PUSH2 0x1298 JUMPI POP POP POP JUMP JUMPDEST PUSH1 0x0 SWAP2 PUSH1 0x0 MSTORE PUSH1 0x20 PUSH1 0x0 KECCAK256 SWAP1 PUSH1 0x20 PUSH1 0x1F DUP6 ADD PUSH1 0x5 SHR DUP4 ADD SWAP5 LT PUSH2 0x12D6 JUMPI JUMPDEST PUSH1 0x1F ADD PUSH1 0x5 SHR ADD SWAP2 JUMPDEST DUP3 DUP2 LT PUSH2 0x12CB JUMPI POP POP POP JUMP JUMPDEST DUP2 DUP2 SSTORE PUSH1 0x1 ADD PUSH2 0x12BF JUMP JUMPDEST SWAP1 SWAP3 POP DUP3 SWAP1 PUSH2 0x12B6 JUMP JUMPDEST SWAP2 SWAP1 SWAP2 DUP3 MLOAD PUSH1 0x1 PUSH1 0x1 PUSH1 0x40 SHL SUB DUP2 GT PUSH2 0x7FC JUMPI PUSH2 0x1307 DUP2 PUSH2 0x1301 DUP5 SLOAD PUSH2 0xAC1 JUMP JUMPDEST DUP5 PUSH2 0x128A JUMP JUMPDEST PUSH1 0x20 DUP1 PUSH1 0x1F DUP4 GT PUSH1 0x1 EQ PUSH2 0x134A JUMPI POP DUP2 SWAP1 PUSH2 0x133B SWAP4 SWAP5 SWAP6 PUSH1 0x0 SWAP3 PUSH2 0x133F JUMPI JUMPDEST POP POP DUP2 PUSH1 0x1 SHL SWAP2 PUSH1 0x0 NOT SWAP1 PUSH1 0x3 SHL SHR NOT AND OR SWAP1 JUMP JUMPDEST SWAP1 SSTORE JUMP JUMPDEST ADD MLOAD SWAP1 POP CODESIZE DUP1 PUSH2 0x1326 JUMP JUMPDEST SWAP1 PUSH1 0x1F NOT DUP4 AND SWAP6 PUSH2 0x1360 DUP6 PUSH1 0x0 MSTORE PUSH1 0x20 PUSH1 0x0 KECCAK256 SWAP1 JUMP JUMPDEST SWAP3 PUSH1 0x0 SWAP1 JUMPDEST DUP9 DUP3 LT PUSH2 0x139D JUMPI POP POP DUP4 PUSH1 0x1 SWAP6 SWAP7 SWAP8 LT PUSH2 0x1384 JUMPI JUMPDEST POP POP POP DUP2 SHL ADD SWAP1 SSTORE JUMP JUMPDEST ADD MLOAD PUSH1 0x0 NOT PUSH1 0xF8 DUP5 PUSH1 0x3 SHL AND SHR NOT AND SWAP1 SSTORE CODESIZE DUP1 DUP1 PUSH2 0x137A JUMP JUMPDEST DUP1 PUSH1 0x1 DUP6 SWAP7 DUP3 SWAP5 SWAP7 DUP7 ADD MLOAD DUP2 SSTORE ADD SWAP6 ADD SWAP4 ADD SWAP1 PUSH2 0x1365 JUMP JUMPDEST SWAP2 SWAP1 SWAP2 DUP3 MLOAD PUSH1 0x1 PUSH1 0x1 PUSH1 0x40 SHL SUB DUP2 GT PUSH2 0x7FC JUMPI PUSH2 0x13D6 DUP2 PUSH2 0x1301 DUP5 SLOAD PUSH2 0xAC1 JUMP JUMPDEST PUSH1 0x20 DUP1 PUSH1 0x1F DUP4 GT PUSH1 0x1 EQ PUSH2 0x1409 JUMPI POP DUP2 SWAP1 PUSH2 0x133B SWAP4 SWAP5 SWAP6 PUSH1 0x0 SWAP3 PUSH2 0x133F JUMPI POP POP DUP2 PUSH1 0x1 SHL SWAP2 PUSH1 0x0 NOT SWAP1 PUSH1 0x3 SHL SHR NOT AND OR SWAP1 JUMP JUMPDEST SWAP1 PUSH1 0x1F NOT DUP4 AND SWAP6 PUSH2 0x141F DUP6 PUSH1 0x0 MSTORE PUSH1 0x20 PUSH1 0x0 KECCAK256 SWAP1 JUMP JUMPDEST SWAP3 PUSH1 0x0 SWAP1 JUMPDEST DUP9 DUP3 LT PUSH2 0x1442 JUMPI POP POP DUP4 PUSH1 0x1 SWAP6 SWAP7 SWAP8 LT PUSH2 0x1384 JUMPI POP POP POP DUP2 SHL ADD SWAP1 SSTORE JUMP JUMPDEST DUP1 PUSH1 0x1 DUP6 SWAP7 DUP3 SWAP5 SWAP7 DUP7 ADD MLOAD DUP2 SSTORE ADD SWAP6 ADD SWAP4 ADD SWAP1 PUSH2 0x1424 JUMP JUMPDEST SWAP1 PUSH2 0x160 PUSH1 0xA SWAP2 DUP1 MLOAD DUP5 SSTORE PUSH2 0x1476 PUSH1 0x20 DUP3 ADD MLOAD PUSH1 0x1 DUP7 ADD PUSH2 0x12E0 JUMP JUMPDEST PUSH2 0x1487 PUSH1 0x40 DUP3 ADD MLOAD PUSH1 0x2 DUP7 ADD PUSH2 0x12E0 JUMP JUMPDEST PUSH1 0x60 DUP2 ADD MLOAD PUSH1 0x3 DUP6 ADD SSTORE PUSH2 0x14A2 PUSH1 0x80 DUP3 ADD MLOAD PUSH1 0x4 DUP7 ADD PUSH2 0x12E0 JUMP JUMPDEST PUSH1 0xA0 DUP2 ADD MLOAD PUSH1 0x5 DUP6 ADD SSTORE PUSH2 0x14F2 PUSH1 0x6 DUP6 ADD PUSH2 0x14D5 PUSH2 0x14C3 PUSH1 0xC0 DUP6 ADD MLOAD ISZERO ISZERO SWAP1 JUMP JUMPDEST DUP3 SWAP1 PUSH1 0xFF DUP1 NOT DUP4 SLOAD AND SWAP2 ISZERO ISZERO AND OR SWAP1 SSTORE JUMP JUMPDEST PUSH1 0xE0 DUP4 ADD MLOAD ISZERO ISZERO DUP2 SLOAD PUSH2 0xFF00 NOT AND SWAP1 ISZERO ISZERO PUSH1 0x8 SHL PUSH2 0xFF00 AND OR SWAP1 SSTORE JUMP JUMPDEST PUSH2 0x100 DUP2 ADD MLOAD PUSH1 0x7 DUP6 ADD SSTORE PUSH2 0x120 DUP2 ADD MLOAD PUSH1 0x8 DUP6 ADD DUP1 SLOAD PUSH1 0x1 PUSH1 0x1 PUSH1 0xA0 SHL SUB NOT AND PUSH1 0x1 PUSH1 0x1 PUSH1 0xA0 SHL SUB SWAP1 SWAP3 AND SWAP2 SWAP1 SWAP2 OR SWAP1 SSTORE PUSH2 0x1536 PUSH2 0x140 DUP3 ADD MLOAD PUSH1 0x9 DUP7 ADD PUSH2 0x13B5 JUMP JUMPDEST ADD MLOAD SWAP2 ADD SSTORE JUMP JUMPDEST PUSH4 0x4E487B71 PUSH1 0xE0 SHL PUSH1 0x0 MSTORE PUSH1 0x32 PUSH1 0x4 MSTORE PUSH1 0x24 PUSH1 0x0 REVERT JUMPDEST SWAP3 SWAP2 DUP4 SLOAD SWAP4 PUSH9 0x10000000000000000 DUP6 LT ISZERO PUSH2 0x7FC JUMPI PUSH1 0x1 SWAP1 PUSH1 0x1 DUP7 ADD DUP1 DUP3 SSTORE DUP7 LT ISZERO PUSH2 0x1654 JUMPI PUSH1 0x0 MSTORE PUSH1 0x20 SWAP5 PUSH1 0x20 PUSH1 0x0 KECCAK256 ADD SWAP3 PUSH1 0x1 PUSH1 0x1 PUSH1 0x40 SHL SUB DUP4 GT PUSH2 0x7FC JUMPI PUSH2 0x15A9 DUP4 PUSH2 0x15A3 DUP7 SLOAD PUSH2 0xAC1 JUMP JUMPDEST DUP7 PUSH2 0x128A JUMP JUMPDEST PUSH1 0x0 SWAP2 PUSH1 0x1F DUP5 GT PUSH1 0x1 EQ PUSH2 0x15E9 JUMPI POP PUSH2 0x133B SWAP4 SWAP5 SWAP6 POP SWAP1 DUP3 SWAP2 PUSH1 0x0 SWAP3 PUSH2 0x15DE JUMPI POP POP DUP2 PUSH1 0x1 SHL SWAP2 PUSH1 0x0 NOT SWAP1 PUSH1 0x3 SHL SHR NOT AND OR SWAP1 JUMP JUMPDEST ADD CALLDATALOAD SWAP1 POP CODESIZE DUP1 PUSH2 0x1326 JUMP JUMPDEST SWAP6 SWAP2 PUSH1 0x1F NOT DUP5 AND SWAP7 PUSH2 0x1600 DUP7 PUSH1 0x0 MSTORE PUSH1 0x20 PUSH1 0x0 KECCAK256 SWAP1 JUMP JUMPDEST SWAP4 DUP3 SWAP2 JUMPDEST DUP10 DUP4 LT PUSH2 0x163D JUMPI POP POP POP DUP4 PUSH1 0x1 SWAP6 SWAP7 SWAP8 LT PUSH2 0x1623 JUMPI POP POP POP DUP2 SHL ADD SWAP1 SSTORE JUMP JUMPDEST ADD CALLDATALOAD PUSH1 0x0 NOT PUSH1 0x3 DUP5 SWAP1 SHL PUSH1 0xF8 AND SHR NOT AND SWAP1 SSTORE CODESIZE DUP1 DUP1 PUSH2 0x137A JUMP JUMPDEST DUP5 DUP5 ADD CALLDATALOAD DUP7 SSTORE SWAP5 DUP6 ADD SWAP5 SWAP3 DUP2 ADD SWAP3 SWAP2 DUP2 ADD SWAP2 PUSH2 0x1604 JUMP JUMPDEST PUSH2 0x153D JUMP JUMPDEST PUSH1 0x0 NOT DUP2 EQ PUSH2 0x114E JUMPI PUSH1 0x1 ADD SWAP1 JUMP JUMPDEST SWAP5 SWAP4 SWAP3 DUP1 PUSH1 0x40 SWAP4 PUSH1 0x80 SWAP4 DUP9 MSTORE PUSH1 0x60 PUSH1 0x20 DUP10 ADD MSTORE DUP2 PUSH1 0x60 DUP10 ADD MSTORE DUP4 DUP9 ADD CALLDATACOPY PUSH1 0x0 DUP3 DUP3 DUP9 ADD ADD MSTORE PUSH1 0x1F DUP1 NOT SWAP2 ADD AND DUP6 ADD ADD SWAP4 ADD MSTORE JUMP JUMPDEST SWAP1 PUSH2 0x16B7 PUSH2 0x16B0 SWAP3 PUSH1 0x40 MLOAD SWAP4 DUP5 DUP1 SWAP3 PUSH2 0xAFB JUMP JUMPDEST SUB DUP4 PUSH2 0xBC3 JUMP JUMPDEST JUMP JUMPDEST PUSH2 0x16DC SWAP2 PUSH1 0x20 PUSH1 0x1 SWAP3 DUP3 PUSH1 0x40 MLOAD SWAP4 DUP5 SWAP3 DUP4 CALLDATACOPY DUP2 ADD PUSH1 0x0 DUP2 MSTORE SUB ADD SWAP1 KECCAK256 ADD SLOAD PUSH2 0xAC1 JUMP JUMPDEST ISZERO ISZERO SWAP1 JUMP JUMPDEST PUSH1 0x40 MLOAD RETURNDATASIZE PUSH1 0x0 DUP3 RETURNDATACOPY RETURNDATASIZE SWAP1 REVERT JUMPDEST PUSH1 0x6 SLOAD PUSH1 0x40 MLOAD PUSH4 0x31A9108F PUSH1 0xE1 SHL DUP2 MSTORE PUSH1 0x4 DUP2 ADD SWAP3 SWAP1 SWAP3 MSTORE PUSH1 0x1 PUSH1 0x1 PUSH1 0xA0 SHL SUB SWAP1 PUSH1 0x20 SWAP1 DUP4 SWAP1 PUSH1 0x24 SWAP1 DUP3 SWAP1 DUP6 AND GAS STATICCALL PUSH1 0x0 SWAP3 DUP2 PUSH2 0x1737 JUMPI JUMPDEST POP PUSH2 0x1731 JUMPI POP POP PUSH1 0x0 SWAP1 JUMP JUMPDEST AND CALLER EQ SWAP1 JUMP JUMPDEST SWAP1 SWAP3 POP PUSH1 0x20 DUP2 RETURNDATASIZE PUSH1 0x20 GT PUSH2 0x176C JUMPI JUMPDEST DUP2 PUSH2 0x1753 PUSH1 0x20 SWAP4 DUP4 PUSH2 0xBC3 JUMP JUMPDEST DUP2 ADD SUB SLT PUSH2 0x180 JUMPI MLOAD PUSH2 0x1765 DUP2 PUSH2 0x306 JUMP JUMPDEST SWAP2 CODESIZE PUSH2 0x1725 JUMP JUMPDEST RETURNDATASIZE SWAP2 POP PUSH2 0x1746 JUMP JUMPDEST SWAP5 SWAP3 SWAP4 SWAP2 SWAP1 PUSH1 0x20 DUP2 MLOAD SWAP2 ADD KECCAK256 SWAP4 PUSH1 0x20 DUP2 MLOAD SWAP2 ADD KECCAK256 SWAP1 PUSH1 0x40 MLOAD SWAP5 PUSH1 0x20 DUP7 ADD SWAP7 PUSH32 0x96095DFC37F9A66C8034A4D38D97353803BD6848D1D396679DA2309AD6F185B4 DUP9 MSTORE PUSH1 0x40 DUP8 ADD MSTORE PUSH1 0x60 DUP7 ADD MSTORE PUSH1 0x80 DUP6 ADD MSTORE PUSH1 0xA0 DUP5 ADD MSTORE PUSH1 0xC0 DUP4 ADD MSTORE PUSH1 0x1 DUP1 PUSH1 0xA0 SHL SUB AND PUSH1 0xE0 DUP3 ADD MSTORE PUSH1 0xE0 DUP2 MSTORE PUSH2 0x17E8 DUP2 PUSH2 0xBA7 JUMP JUMPDEST MLOAD SWAP1 KECCAK256 PUSH1 0x40 MLOAD PUSH2 0x1901 PUSH1 0xF0 SHL PUSH1 0x20 DUP3 ADD SWAP1 DUP2 MSTORE PUSH32 0x0 PUSH1 0x22 DUP4 ADD MSTORE PUSH1 0x42 DUP3 ADD SWAP3 SWAP1 SWAP3 MSTORE PUSH2 0x1840 DUP2 PUSH1 0x62 DUP2 ADD JUMPDEST SUB PUSH1 0x1F NOT DUP2 ADD DUP4 MSTORE DUP3 PUSH2 0xBC3 JUMP JUMPDEST MLOAD SWAP1 KECCAK256 SWAP1 JUMP JUMPDEST PUSH1 0xFF PUSH1 0x1B SWAP2 AND ADD SWAP1 PUSH1 0xFF DUP3 GT PUSH2 0x114E JUMPI JUMP JUMPDEST SWAP2 SWAP1 PUSH1 0x41 DUP3 MLOAD SUB PUSH2 0x1948 JUMPI PUSH1 0x20 SWAP2 PUSH1 0x0 SWAP2 PUSH1 0x40 MLOAD PUSH2 0x18A7 DUP2 PUSH2 0x1832 DUP8 DUP3 ADD SWAP5 DUP6 PUSH1 0x3C SWAP2 PUSH32 0x19457468657265756D205369676E6564204D6573736167653A0A333200000000 DUP3 MSTORE PUSH1 0x1C DUP3 ADD MSTORE ADD SWAP1 JUMP JUMPDEST MLOAD SWAP1 KECCAK256 DUP4 DUP3 ADD MLOAD PUSH1 0x40 DUP4 ADD MLOAD PUSH1 0x60 SWAP1 SWAP4 ADD MLOAD DUP5 BYTE SWAP3 SWAP1 PUSH1 0x1B DUP5 LT PUSH2 0x1931 JUMPI JUMPDEST SWAP1 PUSH2 0x18F1 SWAP2 PUSH1 0x40 MLOAD SWAP5 DUP6 SWAP5 DUP6 SWAP1 SWAP5 SWAP4 SWAP3 PUSH1 0xFF PUSH1 0x60 SWAP4 PUSH1 0x80 DUP5 ADD SWAP8 DUP5 MSTORE AND PUSH1 0x20 DUP4 ADD MSTORE PUSH1 0x40 DUP3 ADD MSTORE ADD MSTORE JUMP JUMPDEST DUP4 DUP1 MSTORE SUB SWAP1 PUSH1 0x1 GAS STATICCALL ISZERO PUSH2 0x192C JUMPI PUSH1 0x0 MLOAD PUSH1 0x1 PUSH1 0x1 PUSH1 0xA0 SHL SUB SWAP1 DUP2 AND DUP1 ISZERO ISZERO SWAP3 SWAP1 SWAP2 SWAP1 DUP4 PUSH2 0x1920 JUMPI JUMPDEST POP POP POP SWAP1 JUMP JUMPDEST AND EQ SWAP1 POP CODESIZE DUP1 DUP1 PUSH2 0x191A JUMP JUMPDEST PUSH2 0x16E1 JUMP JUMPDEST SWAP3 SWAP1 PUSH2 0x193F PUSH2 0x18F1 SWAP3 PUSH2 0x1846 JUMP JUMPDEST SWAP4 SWAP1 SWAP2 POP PUSH2 0x18C6 JUMP JUMPDEST POP POP POP PUSH1 0x0 SWAP1 JUMP JUMPDEST SWAP1 DUP2 MLOAD DUP2 LT ISZERO PUSH2 0x1654 JUMPI ADD PUSH1 0x20 ADD SWAP1 JUMP JUMPDEST PUSH2 0x100 DUP1 DUP4 GT ISZERO PUSH2 0x19D5 JUMPI PUSH1 0x40 MLOAD SWAP3 PUSH2 0x120 DUP5 ADD DUP5 DUP2 LT PUSH1 0x1 PUSH1 0x1 PUSH1 0x40 SHL SUB DUP3 GT OR PUSH2 0x7FC JUMPI PUSH1 0x40 MSTORE DUP2 DUP5 MSTORE DUP2 CALLDATASIZE PUSH1 0x20 DUP7 ADD CALLDATACOPY PUSH1 0x0 SWAP1 PUSH1 0x0 JUMPDEST DUP4 DUP2 LT PUSH2 0x19A9 JUMPI POP POP POP POP POP SWAP1 JUMP JUMPDEST DUP2 DUP2 LT ISZERO PUSH2 0x1654 JUMPI PUSH1 0x1 SWAP1 DUP6 DUP2 ADD CALLDATALOAD PUSH1 0x1 PUSH1 0x1 PUSH1 0xF8 SHL SUB NOT AND DUP5 BYTE PUSH2 0x19CE DUP3 DUP10 PUSH2 0x1950 JUMP JUMPDEST MSTORE8 ADD PUSH2 0x199A JUMP JUMPDEST POP PUSH2 0x19E1 SWAP2 CALLDATASIZE SWAP2 PUSH2 0x11E0 JUMP JUMPDEST SWAP1 JUMP INVALID LOG2 PUSH5 0x6970667358 0x22 SLT KECCAK256 PUSH17 0x5ECE90202C8EEECE7151855551D7FB0D29 PUSH14 0x9F40B5416AB588D48BDF4C1F9464 PUSH20 0x6F6C634300081800330000000000000000000000 "},"methodIdentifiers":{"DOMAIN_SEPARATOR()":"3644e515","OUTCOME_TYPEHASH()":"4d50b5a4","VALIDATION_TYPEHASH()":"2bec6e43","addValidator(address)":"4d238c8e","agentRegistry()":"0d1cfcae","authorizedCaller()":"97dc97cb","authorizedValidators(address)":"58714163","computeArtifactHash(uint256,string,uint256,string,uint256,address)":"cc1830f0","getAgentTradeCount(uint256)":"528633ce","getAgentTradeIds(uint256)":"5fb3c2c2","getValidation(string)":"26b94b2c","getValidationArtifact(string)":"92c2d8a9","owner()":"8da5cb5b","recordOutcome(string,bool,int256)":"3144f0fa","removeValidator(address)":"40a141ff","setAgentRegistry(address)":"28342ecf","setAuthorizedCaller(address)":"cf8fbec9","storeValidation(uint256,string,string,uint256,string,uint256,bytes)":"3b3ed01b","totalValidations()":"7e83514b","verifyValidationArtifact(string)":"c868d47b"}}}}}