{"contracts/RiskRouter.sol":{"RiskRouter":{"abi":[{"inputs":[{"internalType":"address","name":"_agentRegistry","type":"address"}],"stateMutability":"nonpayable","type":"constructor"},{"anonymous":false,"inputs":[{"indexed":false,"internalType":"address","name":"dexRouter","type":"address"}],"name":"DEXRouterUpdated","type":"event"},{"anonymous":false,"inputs":[{"indexed":false,"internalType":"uint256","name":"maxSingleTradeUsd","type":"uint256"},{"indexed":false,"internalType":"uint256","name":"maxDailyLossUsd","type":"uint256"}],"name":"LimitsUpdated","type":"event"},{"anonymous":false,"inputs":[{"indexed":false,"internalType":"uint8","name":"mode","type":"uint8"}],"name":"LossAccountingModeUpdated","type":"event"},{"anonymous":false,"inputs":[{"indexed":false,"internalType":"string","name":"token","type":"string"},{"indexed":false,"internalType":"bool","name":"allowed","type":"bool"}],"name":"TokenAllowlistUpdated","type":"event"},{"anonymous":false,"inputs":[{"indexed":true,"internalType":"uint256","name":"agentId","type":"uint256"},{"indexed":true,"internalType":"address","name":"wallet","type":"address"},{"indexed":false,"internalType":"bytes32","name":"tradeHash","type":"bytes32"},{"indexed":false,"internalType":"string","name":"tokenPair","type":"string"},{"indexed":false,"internalType":"string","name":"action","type":"string"},{"indexed":false,"internalType":"uint256","name":"amountUsd","type":"uint256"}],"name":"TradeApproved","type":"event"},{"anonymous":false,"inputs":[{"indexed":true,"internalType":"uint256","name":"agentId","type":"uint256"},{"indexed":false,"internalType":"bytes32","name":"tradeHash","type":"bytes32"},{"indexed":false,"internalType":"uint256[]","name":"amounts","type":"uint256[]"}],"name":"TradeExecuted","type":"event"},{"anonymous":false,"inputs":[{"indexed":true,"internalType":"uint256","name":"agentId","type":"uint256"},{"indexed":false,"internalType":"bytes32","name":"tradeHash","type":"bytes32"},{"indexed":false,"internalType":"string","name":"reason","type":"string"}],"name":"TradeRejected","type":"event"},{"inputs":[],"name":"DOMAIN_SEPARATOR","outputs":[{"internalType":"bytes32","name":"","type":"bytes32"}],"stateMutability":"view","type":"function"},{"inputs":[],"name":"TRADE_TYPEHASH","outputs":[{"internalType":"bytes32","name":"","type":"bytes32"}],"stateMutability":"view","type":"function"},{"inputs":[{"internalType":"uint256","name":"","type":"uint256"}],"name":"agentDailyStats","outputs":[{"internalType":"uint256","name":"date","type":"uint256"},{"internalType":"uint256","name":"totalLossUsd","type":"uint256"},{"internalType":"uint256","name":"tradeCount","type":"uint256"}],"stateMutability":"view","type":"function"},{"inputs":[{"internalType":"uint256","name":"","type":"uint256"}],"name":"agentNonces","outputs":[{"internalType":"uint256","name":"","type":"uint256"}],"stateMutability":"view","type":"function"},{"inputs":[],"name":"agentRegistry","outputs":[{"internalType":"contract AgentRegistry","name":"","type":"address"}],"stateMutability":"view","type":"function"},{"inputs":[{"internalType":"string","name":"","type":"string"}],"name":"allowedTokens","outputs":[{"internalType":"bool","name":"","type":"bool"}],"stateMutability":"view","type":"function"},{"inputs":[],"name":"dexRouter","outputs":[{"internalType":"contract IDEXRouter","name":"","type":"address"}],"stateMutability":"view","type":"function"},{"inputs":[{"internalType":"uint256","name":"agentId","type":"uint256"}],"name":"getAgentDailyStats","outputs":[{"internalType":"uint256","name":"date","type":"uint256"},{"internalType":"uint256","name":"totalLossUsd","type":"uint256"},{"internalType":"uint256","name":"tradeCount","type":"uint256"}],"stateMutability":"view","type":"function"},{"inputs":[{"internalType":"uint256","name":"agentId","type":"uint256"}],"name":"getAgentNonce","outputs":[{"internalType":"uint256","name":"","type":"uint256"}],"stateMutability":"view","type":"function"},{"inputs":[{"internalType":"bytes32","name":"tradeHash","type":"bytes32"}],"name":"isTradeProcessed","outputs":[{"internalType":"bool","name":"","type":"bool"}],"stateMutability":"view","type":"function"},{"inputs":[],"name":"lossAccountingMode","outputs":[{"internalType":"uint8","name":"","type":"uint8"}],"stateMutability":"view","type":"function"},{"inputs":[],"name":"maxDailyLossUsd","outputs":[{"internalType":"uint256","name":"","type":"uint256"}],"stateMutability":"view","type":"function"},{"inputs":[],"name":"maxSingleTradeUsd","outputs":[{"internalType":"uint256","name":"","type":"uint256"}],"stateMutability":"view","type":"function"},{"inputs":[],"name":"minConfidence","outputs":[{"internalType":"uint256","name":"","type":"uint256"}],"stateMutability":"view","type":"function"},{"inputs":[],"name":"owner","outputs":[{"internalType":"address","name":"","type":"address"}],"stateMutability":"view","type":"function"},{"inputs":[{"internalType":"bytes32","name":"","type":"bytes32"}],"name":"processedTrades","outputs":[{"internalType":"bool","name":"","type":"bool"}],"stateMutability":"view","type":"function"},{"inputs":[{"internalType":"address","name":"router","type":"address"}],"name":"setDEXRouter","outputs":[],"stateMutability":"nonpayable","type":"function"},{"inputs":[{"internalType":"uint256","name":"maxSingle","type":"uint256"},{"internalType":"uint256","name":"maxDaily","type":"uint256"}],"name":"setLimits","outputs":[],"stateMutability":"nonpayable","type":"function"},{"inputs":[{"internalType":"uint8","name":"mode","type":"uint8"}],"name":"setLossAccountingMode","outputs":[],"stateMutability":"nonpayable","type":"function"},{"inputs":[{"internalType":"uint256","name":"threshold","type":"uint256"}],"name":"setMinConfidence","outputs":[],"stateMutability":"nonpayable","type":"function"},{"inputs":[{"internalType":"string","name":"token","type":"string"},{"internalType":"bool","name":"allowed","type":"bool"}],"name":"setTokenAllowed","outputs":[],"stateMutability":"nonpayable","type":"function"},{"inputs":[{"components":[{"internalType":"uint256","name":"agentId","type":"uint256"},{"internalType":"string","name":"tokenPair","type":"string"},{"internalType":"string","name":"action","type":"string"},{"internalType":"uint256","name":"amountUsd","type":"uint256"},{"internalType":"uint256","name":"confidence","type":"uint256"},{"internalType":"string","name":"reason","type":"string"},{"internalType":"uint256","name":"nonce","type":"uint256"},{"internalType":"uint256","name":"deadline","type":"uint256"},{"internalType":"address","name":"tokenIn","type":"address"},{"internalType":"address","name":"tokenOut","type":"address"},{"internalType":"uint256","name":"amountIn","type":"uint256"},{"internalType":"uint256","name":"amountOutMin","type":"uint256"}],"internalType":"struct RiskRouter.TradeIntent","name":"intent","type":"tuple"},{"internalType":"bytes","name":"signature","type":"bytes"}],"name":"submitTrade","outputs":[{"internalType":"bool","name":"approved","type":"bool"},{"internalType":"bytes32","name":"tradeHash","type":"bytes32"}],"stateMutability":"nonpayable","type":"function"}],"evm":{"bytecode":{"linkReferences":{},"object":"60a03462000257576001600160401b0390601f62001aa738819003918201601f19168301929190848411838510176200025c5781602092849260409687528339810103126200025757516001600160a01b038116919082900362000257576207a120600355600490620f42408255602d60055560ff1992836006541660065560018060a01b03193381600254161760025560005416176000558051926208aa8960eb1b8452602360079485600382015220602460019582878581955416179055602385516242544360e81b815282600382015220838582541617905560258551644d4154494360d81b8152826005820152208385825416179055818551634c494e4b60e01b815282888201522083858254161790556023855162554e4960e81b8152826003820152208385825416179055818551634141564560e01b81528288820152208385825416179055818551635553444360e01b81528288820152208385825416179055845190630ae8aa8960e31b8252868201522091825416179055600e60208251620001908162000272565b828152016d1052551c98591a5b99d059d95b9d60921b8152209260208251620001b98162000272565b82815201603160f81b8152209181519260208401947f8b73c3c69bb8fe3d512ecc4cf759cc79239f7b179b0ffacaa9a75d522b39400f86528385015260608401524660808401523060a084015260a0835260c08301948386109086111762000242575083905251902060805261181890816200028f82396080518181816104cd0152610e020152f35b604190634e487b7160e01b6000525260246000fd5b600080fd5b634e487b7160e01b600052604160045260246000fd5b604081019081106001600160401b038211176200025c5760405256fe6080604052600436101561001257600080fd5b60003560e01c80630758d924146101685780630d1cfcae146101635780630e449f971461015e5780631344c76e1461013b5780631d17d20b14610159578063260f06081461012c5780632bba58ac14610154578063351f0dbe1461014f5780633644e5151461014a5780634cfee215146101275780635764390c1461014557806363e935571461014057806364ef282f1461013b5780638da5cb5b146101365780638fe9099a1461013157806391be86be1461012c578063ace1854b14610127578063c4590d3f14610122578063c45c9b181461011d578063d52b7a1414610118578063efe12a0c146101135763fb9576da1461010e57600080fd5b6107ac565b610652565b610634565b610613565b6105af565b6104f0565b610352565b610591565b610568565b61024d565b61054a565b61051c565b6104b5565b6103f5565b610383565b610290565b6101d0565b610196565b34610191576000366003190112610191576001546040516001600160a01b039091168152602090f35b600080fd5b34610191576000366003190112610191576000546040516001600160a01b039091168152602090f35b6001600160a01b0381160361019157565b34610191576020366003190112610191577f2e9ffa1ee0be8af4df6740c772c339bd5574ff9175d4cd0328e7f27685b3f6e26020600435610210816101bf565b6002546001600160a01b03919061022a9083163314610805565b16806bffffffffffffffffffffffff60a01b6001541617600155604051908152a1005b3461019157602036600319011261019157600435600052600860205260606040600020805490600260018201549101549060405192835260208301526040820152f35b346101915760203660031901126101915760043560ff8116808203610191576102c460018060a01b03600254163314610805565b6001811161030d576006805460ff191691909117905560405160ff9190911681527fc057645b2a328d07723186c8314f0e7a0337fc35e1a91da7b6136d0bf0c50e5490602090a1005b60405162461bcd60e51b815260206004820152601860248201527f5269736b526f757465723a20696e76616c6964206d6f646500000000000000006044820152606490fd5b34610191576020366003190112610191576004356000526009602052602060ff604060002054166040519015158152f35b346101915760003660031901126101915760206040517fb3e3feb75fdbf40cd7b823fa7b0b1b32de8f8d6bf2be6e16f1a9eedfc559b6118152f35b9181601f84011215610191578235916001600160401b038311610191576020838186019501011161019157565b8015150361019157565b34610191576040366003190112610191576004356001600160401b038111610191576104467f9d6db961e826d7e57b67b26f3c9b85cffd3a1224d6007450a285a198f2984c5f9136906004016103be565b602435610452816103eb565b61046760018060a01b03600254163314610805565b610491816040518486823760208186810160078152030190209060ff801983541691151516179055565b6104a8604051938493604085526040850191610849565b90151560208301520390a1005b346101915760003660031901126101915760206040517f00000000000000000000000000000000000000000000000000000000000000008152f35b3461019157602036600319011261019157600435600052600a6020526020604060002054604051908152f35b346101915760203660031901126101915761054260018060a01b03600254163314610805565b600435600555005b34610191576000366003190112610191576020600354604051908152f35b34610191576000366003190112610191576002546040516001600160a01b039091168152602090f35b34610191576000366003190112610191576020600454604051908152f35b34610191576040366003190112610191577f4d4981437d0211f9e6843eb024d9ada1fa3a99514d4343d4aece106dd11524bb60406004356024356105fe60018060a01b03600254163314610805565b816003558060045582519182526020820152a1005b3461019157600036600319011261019157602060ff60065416604051908152f35b34610191576000366003190112610191576020600554604051908152f35b346101915760031960403682011261019157600435906001600160401b03908183116101915761018090833603011261019157602435908111610191576040916106a36106ac9236906004016103be565b91600401610a7a565b825191151582526020820152f35b634e487b7160e01b600052604160045260246000fd5b604081019081106001600160401b038211176106eb57604052565b6106ba565b90601f801991011681019081106001600160401b038211176106eb57604052565b6001600160401b0381116106eb57601f01601f191660200190565b92919261073882610711565b9161074660405193846106f0565b829481845281830111610191578281602093846000960137010152565b60005b8381106107765750506000910152565b8181015183820152602001610766565b602061079f918160405193828580945193849201610763565b8101600781520301902090565b34610191576020366003190112610191576004356001600160401b03811161019157366023820112156101915760ff6107f96107f4602093369060248160040135910161072c565b610786565b54166040519015158152f35b1561080c57565b60405162461bcd60e51b81526020600482015260156024820152742934b9b5a937baba32b91d103737ba1037bbb732b960591b6044820152606490fd5b908060209392818452848401376000828201840152601f01601f1916010190565b1561087157565b60405162461bcd60e51b815260206004820152601960248201527f5269736b526f757465723a2074726164652065787069726564000000000000006044820152606490fd5b156108bd57565b60405162461bcd60e51b815260206004820152601960248201527f5269736b526f757465723a20696e76616c6964206e6f6e6365000000000000006044820152606490fd5b1561090957565b60405162461bcd60e51b815260206004820152601d60248201527f5269736b526f757465723a20616c72656164792070726f6365737365640000006044820152606490fd5b1561095557565b60405162461bcd60e51b815260206004820152602560248201527f5269736b526f757465723a207369676e6572206973206e6f74206167656e742060448201526437bbb732b960d91b6064820152608490fd5b634e487b7160e01b600052601160045260246000fd5b60001981146109cd5760010190565b6109a8565b90916060928252604060208301526109f98151809281604086015260208686019101610763565b601f01601f1916010190565b903590601e198136030182121561019157018035906001600160401b0382116101915760200191813603831361019157565b9695949060609492610a6894610a5a928a52608060208b015260808a0191610849565b918783036040890152610849565b930152565b35610a77816101bf565b90565b9091610b069392610a9160e084013542111561086a565b8235610ab6610aaa82600052600a602052604060002090565b5460c0860135146108b6565b610b12610b0d610ac586610cb2565b978894610af5610af0610aec610ae5896000526009602052604060002090565b5460ff1690565b1590565b610902565b610afe85610f0c565b96369161072c565b8486610fe4565b61094e565b610b1b8461121c565b90610b40610b33856000526009602052604060002090565b805460ff19166001179055565b610b5483600052600a602052604060002090565b610b5e81546109be565b905515610c715750610bdf9060408501907fda0ac845197f6ee8b8b1298cf0183f48a9264e9f83356f144b10f7661fa161276060870135610baa610ba2858a610a05565b90838661135d565b610bc3610bba60208a018a610a05565b9190958a610a05565b96909260018060a01b03976040519485948a8d16998c87610a37565b0390a3600154610bff906001600160a01b03165b6001600160a01b031690565b16151580610c59575b80610c41575b80610c33575b610c22575b50505060019190565b610c2b926115d8565b388083610c19565b506101408301351515610c14565b50610c52610bf36101208501610a6d565b1515610c0e565b50610c6a610bf36101008501610a6d565b1515610c08565b9093507fd344d458e98402d70ff8c192eeb985bc45059d53f0ec4d4306687d59d3ac6abf9250610ca9915060405191829187836109d2565b0390a260009190565b610e38610e44602092610cd1610cca85830183610a05565b369161072c565b84815191012090610ce8610cca6040830183610a05565b85815191012090610dda610d02610cca60a0840184610a05565b878151910120610d156101008401610a6d565b94610d236101208501610a6d565b6040519687958b870197610160820135956101408301359560e08401359360c0810135936080820135928d6060840135933590989693909c9b9a979491926101809a96936101a08b019e7fb3e3feb75fdbf40cd7b823fa7b0b1b32de8f8d6bf2be6e16f1a9eedfc559b6118c5260208c015260408b015260608a0152608089015260a088015260c087015260e086015261010085015260018060a01b03809216610120850152166101408301526101608201520152565b0391610dee601f19938481018352826106f0565b51902060405161190160f01b9581019586527f0000000000000000000000000000000000000000000000000000000000000000600287015260228601919091529283906042860190565b039081018352826106f0565b51902090565b81601f82011215610191578051610e6081610711565b92610e6e60405194856106f0565b8184526020828401011161019157610a779160208085019101610763565b909160e0828403126101915781516001600160401b03908181116101915784610eb6918501610e4a565b93602084015191821161019157610ece918401610e4a565b916040810151610edd816101bf565b916060820151916080810151610ef2816103eb565b9160c060a083015192015190565b6040513d6000823e3d90fd5b9060018060a01b0360008181541693602460405180968193632de5aaf760e01b835260048301525afa928315610fbf57600093610f93575b50821615610f4e57565b60405162461bcd60e51b815260206004820152601b60248201527f5269736b526f757465723a206167656e74206e6f7420666f756e6400000000006044820152606490fd5b610fb19193503d806000833e610fa981836106f0565b810190610e8c565b505050509150509138610f44565b610f00565b9081602091031261019157516001600160e01b0319811681036101915790565b9190916041825114611084575b803b610fff57505050600090565b611023916020916040518080958194630b135d3f60e11b98898452600484016109d2565b03916001600160a01b03165afa60009181611053575b50611045575050600090565b6001600160e01b0319161490565b61107691925060203d60201161107d575b61106e81836106f0565b810190610fc4565b9038611039565b503d611064565b6020828101516040808501516060808701518351898152600091821a818801529384019490945282015281805260809060015afa15610fbf576000516001600160a01b0390811680151591826110e4575b505015610ff157505050600190565b831614905038806110d5565b60405190602082018281106001600160401b038211176106eb5760405260008252565b60405190611120826106d0565b601882527f436f6e666964656e63652062656c6f77206d696e696d756d00000000000000006020830152565b60405190611159826106d0565b601a82527f457863656564732073696e676c65207472616465206c696d69740000000000006020830152565b60405190611192826106d0565b6016825275151bdad95b881b9bdd081a5b88185b1b1bdddb1a5cdd60521b6020830152565b604051906111c4826106d0565b601882527f4461696c79206c6f7373206c696d6974207265616368656400000000000000006020830152565b604051906111fd826106d0565b601082526f4167656e74206e6f742061637469766560801b6020830152565b6005546080820135106113445760035460608201351161133857611255610aec610ae56107f461124f6020860186610a05565b90611722565b61132c573561126e816000526008602052604060002090565b620151804204815414908161131b575b5061130f57600080546112be929061129e906001600160a01b0316610bf3565b6040518080958194632de5aaf760e01b8352600483019190602083019252565b03915afa908115610fbf576000916112ed575b50156112e257600190610a776110f0565b600090610a776111f0565b61130291503d806000833e610fa981836106f0565b50509350505050386112d1565b50600090610a776111b7565b60019150015460045411153861127e565b50600090610a77611185565b50600090610a7761114c565b50600090610a77611113565b919082018092116109cd57565b9161139f919361137d620151804204946000526008602052604060002090565b9380855403611420575b506002840161139681546109be565b9055369161072c565b602081519101206314d1531360e21b60206040516113bc816106d0565b60048152015260ff6113d060065460ff1690565b16159081156113f6575b506113e3575050565b60016113f29101918254611350565b9055565b7f46e2aa85b4ea4837644e46fe22acb44743da12e349006c0093a61f6bf0967602915014386113da565b8455600060018501556000600285015538611387565b6001600160401b0381116106eb5760051b60200190565b60405190606082018281106001600160401b038211176106eb5760405260028252604082602036910137565b634e487b7160e01b600052603260045260246000fd5b80511561149c5760200190565b611479565b80516001101561149c5760400190565b6020908181840312610191578051906001600160401b03821161019157019180601f840112156101915782516114e681611436565b936114f460405195866106f0565b818552838086019260051b820101928311610191578301905b82821061151b575050505090565b8151815290830190830161150d565b9291909594939560a08401908452602091602085015260a060408501528251809152602060c0850193019160005b8281106115795750505050906080919460018060a01b031660608201520152565b83516001600160a01b031685529381019392810192600101611558565b906040820190825260206060819360408382015285518094520193019160005b8281106115c4575050505090565b8351855293810193928101926001016115b6565b600061166e92936115e761144d565b906116106115f86101008601610a6d565b6116018461148f565b6001600160a01b039091169052565b6116296116206101208601610a6d565b611601846114a1565b60015461163e906001600160a01b0316610bf3565b90836040518097819582946338ed173960e01b845260e08a0135916101608b01356101408c01356004870161152a565b03925af1908115610fbf577fb21c6d2ad94d406a58dd91450d33bf96e7fde06d2ffcb1969c2ccbe34bb53ef2926000926116ba575b506116b5604051928392359583611596565b0390a2565b6116d89192503d806000833e6116d081836106f0565b8101906114b1565b90386116a3565b90815181101561149c570160200190565b906116fa82610711565b61170760405191826106f0565b8281528092611718601f1991610711565b0190602036910137565b909161172f36848461072c565b9260009260005b85518110156117d857602f60f81b61176f611762611754848a6116df565b516001600160f81b03191690565b6001600160f81b03191690565b1461177c57600101611736565b929350905b82156117c8575050611792816116f0565b9060005b8181106117a4575090925050565b806117b4611754600193886116df565b60001a6117c182866116df565b5301611796565b909150610a77929350369161072c565b509092919261178156fea2646970667358221220555b63b8c52aff8d736a0543c3dd5d7ccfe469fd2e6dddaaa0ee0bb54689eefa64736f6c63430008180033","opcodes":"PUSH1 0xA0 CALLVALUE PUSH3 0x257 JUMPI PUSH1 0x1 PUSH1 0x1 PUSH1 0x40 SHL SUB SWAP1 PUSH1 0x1F PUSH3 0x1AA7 CODESIZE DUP2 SWAP1 SUB SWAP2 DUP3 ADD PUSH1 0x1F NOT AND DUP4 ADD SWAP3 SWAP2 SWAP1 DUP5 DUP5 GT DUP4 DUP6 LT OR PUSH3 0x25C JUMPI DUP2 PUSH1 0x20 SWAP3 DUP5 SWAP3 PUSH1 0x40 SWAP7 DUP8 MSTORE DUP4 CODECOPY DUP2 ADD SUB SLT PUSH3 0x257 JUMPI MLOAD PUSH1 0x1 PUSH1 0x1 PUSH1 0xA0 SHL SUB DUP2 AND SWAP2 SWAP1 DUP3 SWAP1 SUB PUSH3 0x257 JUMPI PUSH3 0x7A120 PUSH1 0x3 SSTORE PUSH1 0x4 SWAP1 PUSH3 0xF4240 DUP3 SSTORE PUSH1 0x2D PUSH1 0x5 SSTORE PUSH1 0xFF NOT SWAP3 DUP4 PUSH1 0x6 SLOAD AND PUSH1 0x6 SSTORE PUSH1 0x1 DUP1 PUSH1 0xA0 SHL SUB NOT CALLER DUP2 PUSH1 0x2 SLOAD AND OR PUSH1 0x2 SSTORE PUSH1 0x0 SLOAD AND OR PUSH1 0x0 SSTORE DUP1 MLOAD SWAP3 PUSH3 0x8AA89 PUSH1 0xEB SHL DUP5 MSTORE PUSH1 0x23 PUSH1 0x7 SWAP5 DUP6 PUSH1 0x3 DUP3 ADD MSTORE KECCAK256 PUSH1 0x24 PUSH1 0x1 SWAP6 DUP3 DUP8 DUP6 DUP2 SWAP6 SLOAD AND OR SWAP1 SSTORE PUSH1 0x23 DUP6 MLOAD PUSH3 0x425443 PUSH1 0xE8 SHL DUP2 MSTORE DUP3 PUSH1 0x3 DUP3 ADD MSTORE KECCAK256 DUP4 DUP6 DUP3 SLOAD AND OR SWAP1 SSTORE PUSH1 0x25 DUP6 MLOAD PUSH5 0x4D41544943 PUSH1 0xD8 SHL DUP2 MSTORE DUP3 PUSH1 0x5 DUP3 ADD MSTORE KECCAK256 DUP4 DUP6 DUP3 SLOAD AND OR SWAP1 SSTORE DUP2 DUP6 MLOAD PUSH4 0x4C494E4B PUSH1 0xE0 SHL DUP2 MSTORE DUP3 DUP9 DUP3 ADD MSTORE KECCAK256 DUP4 DUP6 DUP3 SLOAD AND OR SWAP1 SSTORE PUSH1 0x23 DUP6 MLOAD PUSH3 0x554E49 PUSH1 0xE8 SHL DUP2 MSTORE DUP3 PUSH1 0x3 DUP3 ADD MSTORE KECCAK256 DUP4 DUP6 DUP3 SLOAD AND OR SWAP1 SSTORE DUP2 DUP6 MLOAD PUSH4 0x41415645 PUSH1 0xE0 SHL DUP2 MSTORE DUP3 DUP9 DUP3 ADD MSTORE KECCAK256 DUP4 DUP6 DUP3 SLOAD AND OR SWAP1 SSTORE DUP2 DUP6 MLOAD PUSH4 0x55534443 PUSH1 0xE0 SHL DUP2 MSTORE DUP3 DUP9 DUP3 ADD MSTORE KECCAK256 DUP4 DUP6 DUP3 SLOAD AND OR SWAP1 SSTORE DUP5 MLOAD SWAP1 PUSH4 0xAE8AA89 PUSH1 0xE3 SHL DUP3 MSTORE DUP7 DUP3 ADD MSTORE KECCAK256 SWAP2 DUP3 SLOAD AND OR SWAP1 SSTORE PUSH1 0xE PUSH1 0x20 DUP3 MLOAD PUSH3 0x190 DUP2 PUSH3 0x272 JUMP JUMPDEST DUP3 DUP2 MSTORE ADD PUSH14 0x1052551C98591A5B99D059D95B9D PUSH1 0x92 SHL DUP2 MSTORE KECCAK256 SWAP3 PUSH1 0x20 DUP3 MLOAD PUSH3 0x1B9 DUP2 PUSH3 0x272 JUMP JUMPDEST DUP3 DUP2 MSTORE ADD PUSH1 0x31 PUSH1 0xF8 SHL DUP2 MSTORE KECCAK256 SWAP2 DUP2 MLOAD SWAP3 PUSH1 0x20 DUP5 ADD SWAP5 PUSH32 0x8B73C3C69BB8FE3D512ECC4CF759CC79239F7B179B0FFACAA9A75D522B39400F DUP7 MSTORE DUP4 DUP6 ADD MSTORE PUSH1 0x60 DUP5 ADD MSTORE CHAINID PUSH1 0x80 DUP5 ADD MSTORE ADDRESS PUSH1 0xA0 DUP5 ADD MSTORE PUSH1 0xA0 DUP4 MSTORE PUSH1 0xC0 DUP4 ADD SWAP5 DUP4 DUP7 LT SWAP1 DUP7 GT OR PUSH3 0x242 JUMPI POP DUP4 SWAP1 MSTORE MLOAD SWAP1 KECCAK256 PUSH1 0x80 MSTORE PUSH2 0x1818 SWAP1 DUP2 PUSH3 0x28F DUP3 CODECOPY PUSH1 0x80 MLOAD DUP2 DUP2 DUP2 PUSH2 0x4CD ADD MSTORE PUSH2 0xE02 ADD MSTORE RETURN JUMPDEST PUSH1 0x41 SWAP1 PUSH4 0x4E487B71 PUSH1 0xE0 SHL PUSH1 0x0 MSTORE MSTORE PUSH1 0x24 PUSH1 0x0 REVERT JUMPDEST PUSH1 0x0 DUP1 REVERT JUMPDEST PUSH4 0x4E487B71 PUSH1 0xE0 SHL PUSH1 0x0 MSTORE PUSH1 0x41 PUSH1 0x4 MSTORE PUSH1 0x24 PUSH1 0x0 REVERT JUMPDEST PUSH1 0x40 DUP2 ADD SWAP1 DUP2 LT PUSH1 0x1 PUSH1 0x1 PUSH1 0x40 SHL SUB DUP3 GT OR PUSH3 0x25C JUMPI PUSH1 0x40 MSTORE JUMP INVALID PUSH1 0x80 PUSH1 0x40 MSTORE PUSH1 0x4 CALLDATASIZE LT ISZERO PUSH2 0x12 JUMPI PUSH1 0x0 DUP1 REVERT JUMPDEST PUSH1 0x0 CALLDATALOAD PUSH1 0xE0 SHR DUP1 PUSH4 0x758D924 EQ PUSH2 0x168 JUMPI DUP1 PUSH4 0xD1CFCAE EQ PUSH2 0x163 JUMPI DUP1 PUSH4 0xE449F97 EQ PUSH2 0x15E JUMPI DUP1 PUSH4 0x1344C76E EQ PUSH2 0x13B JUMPI DUP1 PUSH4 0x1D17D20B EQ PUSH2 0x159 JUMPI DUP1 PUSH4 0x260F0608 EQ PUSH2 0x12C JUMPI DUP1 PUSH4 0x2BBA58AC EQ PUSH2 0x154 JUMPI DUP1 PUSH4 0x351F0DBE EQ PUSH2 0x14F JUMPI DUP1 PUSH4 0x3644E515 EQ PUSH2 0x14A JUMPI DUP1 PUSH4 0x4CFEE215 EQ PUSH2 0x127 JUMPI DUP1 PUSH4 0x5764390C EQ PUSH2 0x145 JUMPI DUP1 PUSH4 0x63E93557 EQ PUSH2 0x140 JUMPI DUP1 PUSH4 0x64EF282F EQ PUSH2 0x13B JUMPI DUP1 PUSH4 0x8DA5CB5B EQ PUSH2 0x136 JUMPI DUP1 PUSH4 0x8FE9099A EQ PUSH2 0x131 JUMPI DUP1 PUSH4 0x91BE86BE EQ PUSH2 0x12C JUMPI DUP1 PUSH4 0xACE1854B EQ PUSH2 0x127 JUMPI DUP1 PUSH4 0xC4590D3F EQ PUSH2 0x122 JUMPI DUP1 PUSH4 0xC45C9B18 EQ PUSH2 0x11D JUMPI DUP1 PUSH4 0xD52B7A14 EQ PUSH2 0x118 JUMPI DUP1 PUSH4 0xEFE12A0C EQ PUSH2 0x113 JUMPI PUSH4 0xFB9576DA EQ PUSH2 0x10E JUMPI PUSH1 0x0 DUP1 REVERT JUMPDEST PUSH2 0x7AC JUMP JUMPDEST PUSH2 0x652 JUMP JUMPDEST PUSH2 0x634 JUMP JUMPDEST PUSH2 0x613 JUMP JUMPDEST PUSH2 0x5AF JUMP JUMPDEST PUSH2 0x4F0 JUMP JUMPDEST PUSH2 0x352 JUMP JUMPDEST PUSH2 0x591 JUMP JUMPDEST PUSH2 0x568 JUMP JUMPDEST PUSH2 0x24D JUMP JUMPDEST PUSH2 0x54A JUMP JUMPDEST PUSH2 0x51C JUMP JUMPDEST PUSH2 0x4B5 JUMP JUMPDEST PUSH2 0x3F5 JUMP JUMPDEST PUSH2 0x383 JUMP JUMPDEST PUSH2 0x290 JUMP JUMPDEST PUSH2 0x1D0 JUMP JUMPDEST PUSH2 0x196 JUMP JUMPDEST CALLVALUE PUSH2 0x191 JUMPI PUSH1 0x0 CALLDATASIZE PUSH1 0x3 NOT ADD SLT PUSH2 0x191 JUMPI PUSH1 0x1 SLOAD PUSH1 0x40 MLOAD PUSH1 0x1 PUSH1 0x1 PUSH1 0xA0 SHL SUB SWAP1 SWAP2 AND DUP2 MSTORE PUSH1 0x20 SWAP1 RETURN JUMPDEST PUSH1 0x0 DUP1 REVERT JUMPDEST CALLVALUE PUSH2 0x191 JUMPI PUSH1 0x0 CALLDATASIZE PUSH1 0x3 NOT ADD SLT PUSH2 0x191 JUMPI PUSH1 0x0 SLOAD PUSH1 0x40 MLOAD PUSH1 0x1 PUSH1 0x1 PUSH1 0xA0 SHL SUB SWAP1 SWAP2 AND DUP2 MSTORE PUSH1 0x20 SWAP1 RETURN JUMPDEST PUSH1 0x1 PUSH1 0x1 PUSH1 0xA0 SHL SUB DUP2 AND SUB PUSH2 0x191 JUMPI JUMP JUMPDEST CALLVALUE PUSH2 0x191 JUMPI PUSH1 0x20 CALLDATASIZE PUSH1 0x3 NOT ADD SLT PUSH2 0x191 JUMPI PUSH32 0x2E9FFA1EE0BE8AF4DF6740C772C339BD5574FF9175D4CD0328E7F27685B3F6E2 PUSH1 0x20 PUSH1 0x4 CALLDATALOAD PUSH2 0x210 DUP2 PUSH2 0x1BF JUMP JUMPDEST PUSH1 0x2 SLOAD PUSH1 0x1 PUSH1 0x1 PUSH1 0xA0 SHL SUB SWAP2 SWAP1 PUSH2 0x22A SWAP1 DUP4 AND CALLER EQ PUSH2 0x805 JUMP JUMPDEST AND DUP1 PUSH12 0xFFFFFFFFFFFFFFFFFFFFFFFF PUSH1 0xA0 SHL PUSH1 0x1 SLOAD AND OR PUSH1 0x1 SSTORE PUSH1 0x40 MLOAD SWAP1 DUP2 MSTORE LOG1 STOP JUMPDEST CALLVALUE PUSH2 0x191 JUMPI PUSH1 0x20 CALLDATASIZE PUSH1 0x3 NOT ADD SLT PUSH2 0x191 JUMPI PUSH1 0x4 CALLDATALOAD PUSH1 0x0 MSTORE PUSH1 0x8 PUSH1 0x20 MSTORE PUSH1 0x60 PUSH1 0x40 PUSH1 0x0 KECCAK256 DUP1 SLOAD SWAP1 PUSH1 0x2 PUSH1 0x1 DUP3 ADD SLOAD SWAP2 ADD SLOAD SWAP1 PUSH1 0x40 MLOAD SWAP3 DUP4 MSTORE PUSH1 0x20 DUP4 ADD MSTORE PUSH1 0x40 DUP3 ADD MSTORE RETURN JUMPDEST CALLVALUE PUSH2 0x191 JUMPI PUSH1 0x20 CALLDATASIZE PUSH1 0x3 NOT ADD SLT PUSH2 0x191 JUMPI PUSH1 0x4 CALLDATALOAD PUSH1 0xFF DUP2 AND DUP1 DUP3 SUB PUSH2 0x191 JUMPI PUSH2 0x2C4 PUSH1 0x1 DUP1 PUSH1 0xA0 SHL SUB PUSH1 0x2 SLOAD AND CALLER EQ PUSH2 0x805 JUMP JUMPDEST PUSH1 0x1 DUP2 GT PUSH2 0x30D JUMPI PUSH1 0x6 DUP1 SLOAD PUSH1 0xFF NOT AND SWAP2 SWAP1 SWAP2 OR SWAP1 SSTORE PUSH1 0x40 MLOAD PUSH1 0xFF SWAP2 SWAP1 SWAP2 AND DUP2 MSTORE PUSH32 0xC057645B2A328D07723186C8314F0E7A0337FC35E1A91DA7B6136D0BF0C50E54 SWAP1 PUSH1 0x20 SWAP1 LOG1 STOP JUMPDEST PUSH1 0x40 MLOAD PUSH3 0x461BCD PUSH1 0xE5 SHL DUP2 MSTORE PUSH1 0x20 PUSH1 0x4 DUP3 ADD MSTORE PUSH1 0x18 PUSH1 0x24 DUP3 ADD MSTORE PUSH32 0x5269736B526F757465723A20696E76616C6964206D6F64650000000000000000 PUSH1 0x44 DUP3 ADD MSTORE PUSH1 0x64 SWAP1 REVERT JUMPDEST CALLVALUE PUSH2 0x191 JUMPI PUSH1 0x20 CALLDATASIZE PUSH1 0x3 NOT ADD SLT PUSH2 0x191 JUMPI PUSH1 0x4 CALLDATALOAD PUSH1 0x0 MSTORE PUSH1 0x9 PUSH1 0x20 MSTORE PUSH1 0x20 PUSH1 0xFF PUSH1 0x40 PUSH1 0x0 KECCAK256 SLOAD AND PUSH1 0x40 MLOAD SWAP1 ISZERO ISZERO DUP2 MSTORE RETURN JUMPDEST CALLVALUE PUSH2 0x191 JUMPI PUSH1 0x0 CALLDATASIZE PUSH1 0x3 NOT ADD SLT PUSH2 0x191 JUMPI PUSH1 0x20 PUSH1 0x40 MLOAD PUSH32 0xB3E3FEB75FDBF40CD7B823FA7B0B1B32DE8F8D6BF2BE6E16F1A9EEDFC559B611 DUP2 MSTORE RETURN JUMPDEST SWAP2 DUP2 PUSH1 0x1F DUP5 ADD SLT ISZERO PUSH2 0x191 JUMPI DUP3 CALLDATALOAD SWAP2 PUSH1 0x1 PUSH1 0x1 PUSH1 0x40 SHL SUB DUP4 GT PUSH2 0x191 JUMPI PUSH1 0x20 DUP4 DUP2 DUP7 ADD SWAP6 ADD ADD GT PUSH2 0x191 JUMPI JUMP JUMPDEST DUP1 ISZERO ISZERO SUB PUSH2 0x191 JUMPI JUMP JUMPDEST CALLVALUE PUSH2 0x191 JUMPI PUSH1 0x40 CALLDATASIZE PUSH1 0x3 NOT ADD SLT PUSH2 0x191 JUMPI PUSH1 0x4 CALLDATALOAD PUSH1 0x1 PUSH1 0x1 PUSH1 0x40 SHL SUB DUP2 GT PUSH2 0x191 JUMPI PUSH2 0x446 PUSH32 0x9D6DB961E826D7E57B67B26F3C9B85CFFD3A1224D6007450A285A198F2984C5F SWAP2 CALLDATASIZE SWAP1 PUSH1 0x4 ADD PUSH2 0x3BE JUMP JUMPDEST PUSH1 0x24 CALLDATALOAD PUSH2 0x452 DUP2 PUSH2 0x3EB JUMP JUMPDEST PUSH2 0x467 PUSH1 0x1 DUP1 PUSH1 0xA0 SHL SUB PUSH1 0x2 SLOAD AND CALLER EQ PUSH2 0x805 JUMP JUMPDEST PUSH2 0x491 DUP2 PUSH1 0x40 MLOAD DUP5 DUP7 DUP3 CALLDATACOPY PUSH1 0x20 DUP2 DUP7 DUP2 ADD PUSH1 0x7 DUP2 MSTORE SUB ADD SWAP1 KECCAK256 SWAP1 PUSH1 0xFF DUP1 NOT DUP4 SLOAD AND SWAP2 ISZERO ISZERO AND OR SWAP1 SSTORE JUMP JUMPDEST PUSH2 0x4A8 PUSH1 0x40 MLOAD SWAP4 DUP5 SWAP4 PUSH1 0x40 DUP6 MSTORE PUSH1 0x40 DUP6 ADD SWAP2 PUSH2 0x849 JUMP JUMPDEST SWAP1 ISZERO ISZERO PUSH1 0x20 DUP4 ADD MSTORE SUB SWAP1 LOG1 STOP JUMPDEST CALLVALUE PUSH2 0x191 JUMPI PUSH1 0x0 CALLDATASIZE PUSH1 0x3 NOT ADD SLT PUSH2 0x191 JUMPI PUSH1 0x20 PUSH1 0x40 MLOAD PUSH32 0x0 DUP2 MSTORE RETURN JUMPDEST CALLVALUE PUSH2 0x191 JUMPI PUSH1 0x20 CALLDATASIZE PUSH1 0x3 NOT ADD SLT PUSH2 0x191 JUMPI PUSH1 0x4 CALLDATALOAD PUSH1 0x0 MSTORE PUSH1 0xA PUSH1 0x20 MSTORE PUSH1 0x20 PUSH1 0x40 PUSH1 0x0 KECCAK256 SLOAD PUSH1 0x40 MLOAD SWAP1 DUP2 MSTORE RETURN JUMPDEST CALLVALUE PUSH2 0x191 JUMPI PUSH1 0x20 CALLDATASIZE PUSH1 0x3 NOT ADD SLT PUSH2 0x191 JUMPI PUSH2 0x542 PUSH1 0x1 DUP1 PUSH1 0xA0 SHL SUB PUSH1 0x2 SLOAD AND CALLER EQ PUSH2 0x805 JUMP JUMPDEST PUSH1 0x4 CALLDATALOAD PUSH1 0x5 SSTORE STOP JUMPDEST CALLVALUE PUSH2 0x191 JUMPI PUSH1 0x0 CALLDATASIZE PUSH1 0x3 NOT ADD SLT PUSH2 0x191 JUMPI PUSH1 0x20 PUSH1 0x3 SLOAD PUSH1 0x40 MLOAD SWAP1 DUP2 MSTORE RETURN JUMPDEST CALLVALUE PUSH2 0x191 JUMPI PUSH1 0x0 CALLDATASIZE PUSH1 0x3 NOT ADD SLT PUSH2 0x191 JUMPI PUSH1 0x2 SLOAD PUSH1 0x40 MLOAD PUSH1 0x1 PUSH1 0x1 PUSH1 0xA0 SHL SUB SWAP1 SWAP2 AND DUP2 MSTORE PUSH1 0x20 SWAP1 RETURN JUMPDEST CALLVALUE PUSH2 0x191 JUMPI PUSH1 0x0 CALLDATASIZE PUSH1 0x3 NOT ADD SLT PUSH2 0x191 JUMPI PUSH1 0x20 PUSH1 0x4 SLOAD PUSH1 0x40 MLOAD SWAP1 DUP2 MSTORE RETURN JUMPDEST CALLVALUE PUSH2 0x191 JUMPI PUSH1 0x40 CALLDATASIZE PUSH1 0x3 NOT ADD SLT PUSH2 0x191 JUMPI PUSH32 0x4D4981437D0211F9E6843EB024D9ADA1FA3A99514D4343D4AECE106DD11524BB PUSH1 0x40 PUSH1 0x4 CALLDATALOAD PUSH1 0x24 CALLDATALOAD PUSH2 0x5FE PUSH1 0x1 DUP1 PUSH1 0xA0 SHL SUB PUSH1 0x2 SLOAD AND CALLER EQ PUSH2 0x805 JUMP JUMPDEST DUP2 PUSH1 0x3 SSTORE DUP1 PUSH1 0x4 SSTORE DUP3 MLOAD SWAP2 DUP3 MSTORE PUSH1 0x20 DUP3 ADD MSTORE LOG1 STOP JUMPDEST CALLVALUE PUSH2 0x191 JUMPI PUSH1 0x0 CALLDATASIZE PUSH1 0x3 NOT ADD SLT PUSH2 0x191 JUMPI PUSH1 0x20 PUSH1 0xFF PUSH1 0x6 SLOAD AND PUSH1 0x40 MLOAD SWAP1 DUP2 MSTORE RETURN JUMPDEST CALLVALUE PUSH2 0x191 JUMPI PUSH1 0x0 CALLDATASIZE PUSH1 0x3 NOT ADD SLT PUSH2 0x191 JUMPI PUSH1 0x20 PUSH1 0x5 SLOAD PUSH1 0x40 MLOAD SWAP1 DUP2 MSTORE RETURN JUMPDEST CALLVALUE PUSH2 0x191 JUMPI PUSH1 0x3 NOT PUSH1 0x40 CALLDATASIZE DUP3 ADD SLT PUSH2 0x191 JUMPI PUSH1 0x4 CALLDATALOAD SWAP1 PUSH1 0x1 PUSH1 0x1 PUSH1 0x40 SHL SUB SWAP1 DUP2 DUP4 GT PUSH2 0x191 JUMPI PUSH2 0x180 SWAP1 DUP4 CALLDATASIZE SUB ADD SLT PUSH2 0x191 JUMPI PUSH1 0x24 CALLDATALOAD SWAP1 DUP2 GT PUSH2 0x191 JUMPI PUSH1 0x40 SWAP2 PUSH2 0x6A3 PUSH2 0x6AC SWAP3 CALLDATASIZE SWAP1 PUSH1 0x4 ADD PUSH2 0x3BE JUMP JUMPDEST SWAP2 PUSH1 0x4 ADD PUSH2 0xA7A JUMP JUMPDEST DUP3 MLOAD SWAP2 ISZERO ISZERO DUP3 MSTORE PUSH1 0x20 DUP3 ADD MSTORE RETURN JUMPDEST PUSH4 0x4E487B71 PUSH1 0xE0 SHL PUSH1 0x0 MSTORE PUSH1 0x41 PUSH1 0x4 MSTORE PUSH1 0x24 PUSH1 0x0 REVERT JUMPDEST PUSH1 0x40 DUP2 ADD SWAP1 DUP2 LT PUSH1 0x1 PUSH1 0x1 PUSH1 0x40 SHL SUB DUP3 GT OR PUSH2 0x6EB JUMPI PUSH1 0x40 MSTORE JUMP JUMPDEST PUSH2 0x6BA JUMP JUMPDEST SWAP1 PUSH1 0x1F DUP1 NOT SWAP2 ADD AND DUP2 ADD SWAP1 DUP2 LT PUSH1 0x1 PUSH1 0x1 PUSH1 0x40 SHL SUB DUP3 GT OR PUSH2 0x6EB JUMPI PUSH1 0x40 MSTORE JUMP JUMPDEST PUSH1 0x1 PUSH1 0x1 PUSH1 0x40 SHL SUB DUP2 GT PUSH2 0x6EB JUMPI PUSH1 0x1F ADD PUSH1 0x1F NOT AND PUSH1 0x20 ADD SWAP1 JUMP JUMPDEST SWAP3 SWAP2 SWAP3 PUSH2 0x738 DUP3 PUSH2 0x711 JUMP JUMPDEST SWAP2 PUSH2 0x746 PUSH1 0x40 MLOAD SWAP4 DUP5 PUSH2 0x6F0 JUMP JUMPDEST DUP3 SWAP5 DUP2 DUP5 MSTORE DUP2 DUP4 ADD GT PUSH2 0x191 JUMPI DUP3 DUP2 PUSH1 0x20 SWAP4 DUP5 PUSH1 0x0 SWAP7 ADD CALLDATACOPY ADD ADD MSTORE JUMP JUMPDEST PUSH1 0x0 JUMPDEST DUP4 DUP2 LT PUSH2 0x776 JUMPI POP POP PUSH1 0x0 SWAP2 ADD MSTORE JUMP JUMPDEST DUP2 DUP2 ADD MLOAD DUP4 DUP3 ADD MSTORE PUSH1 0x20 ADD PUSH2 0x766 JUMP JUMPDEST PUSH1 0x20 PUSH2 0x79F SWAP2 DUP2 PUSH1 0x40 MLOAD SWAP4 DUP3 DUP6 DUP1 SWAP5 MLOAD SWAP4 DUP5 SWAP3 ADD PUSH2 0x763 JUMP JUMPDEST DUP2 ADD PUSH1 0x7 DUP2 MSTORE SUB ADD SWAP1 KECCAK256 SWAP1 JUMP JUMPDEST CALLVALUE PUSH2 0x191 JUMPI PUSH1 0x20 CALLDATASIZE PUSH1 0x3 NOT ADD SLT PUSH2 0x191 JUMPI PUSH1 0x4 CALLDATALOAD PUSH1 0x1 PUSH1 0x1 PUSH1 0x40 SHL SUB DUP2 GT PUSH2 0x191 JUMPI CALLDATASIZE PUSH1 0x23 DUP3 ADD SLT ISZERO PUSH2 0x191 JUMPI PUSH1 0xFF PUSH2 0x7F9 PUSH2 0x7F4 PUSH1 0x20 SWAP4 CALLDATASIZE SWAP1 PUSH1 0x24 DUP2 PUSH1 0x4 ADD CALLDATALOAD SWAP2 ADD PUSH2 0x72C JUMP JUMPDEST PUSH2 0x786 JUMP JUMPDEST SLOAD AND PUSH1 0x40 MLOAD SWAP1 ISZERO ISZERO DUP2 MSTORE RETURN JUMPDEST ISZERO PUSH2 0x80C JUMPI JUMP JUMPDEST PUSH1 0x40 MLOAD PUSH3 0x461BCD PUSH1 0xE5 SHL DUP2 MSTORE PUSH1 0x20 PUSH1 0x4 DUP3 ADD MSTORE PUSH1 0x15 PUSH1 0x24 DUP3 ADD MSTORE PUSH21 0x2934B9B5A937BABA32B91D103737BA1037BBB732B9 PUSH1 0x59 SHL PUSH1 0x44 DUP3 ADD MSTORE PUSH1 0x64 SWAP1 REVERT JUMPDEST SWAP1 DUP1 PUSH1 0x20 SWAP4 SWAP3 DUP2 DUP5 MSTORE DUP5 DUP5 ADD CALLDATACOPY PUSH1 0x0 DUP3 DUP3 ADD DUP5 ADD MSTORE PUSH1 0x1F ADD PUSH1 0x1F NOT AND ADD ADD SWAP1 JUMP JUMPDEST ISZERO PUSH2 0x871 JUMPI JUMP JUMPDEST PUSH1 0x40 MLOAD PUSH3 0x461BCD PUSH1 0xE5 SHL DUP2 MSTORE PUSH1 0x20 PUSH1 0x4 DUP3 ADD MSTORE PUSH1 0x19 PUSH1 0x24 DUP3 ADD MSTORE PUSH32 0x5269736B526F757465723A207472616465206578706972656400000000000000 PUSH1 0x44 DUP3 ADD MSTORE PUSH1 0x64 SWAP1 REVERT JUMPDEST ISZERO PUSH2 0x8BD JUMPI JUMP JUMPDEST PUSH1 0x40 MLOAD PUSH3 0x461BCD PUSH1 0xE5 SHL DUP2 MSTORE PUSH1 0x20 PUSH1 0x4 DUP3 ADD MSTORE PUSH1 0x19 PUSH1 0x24 DUP3 ADD MSTORE PUSH32 0x5269736B526F757465723A20696E76616C6964206E6F6E636500000000000000 PUSH1 0x44 DUP3 ADD MSTORE PUSH1 0x64 SWAP1 REVERT JUMPDEST ISZERO PUSH2 0x909 JUMPI JUMP JUMPDEST PUSH1 0x40 MLOAD PUSH3 0x461BCD PUSH1 0xE5 SHL DUP2 MSTORE PUSH1 0x20 PUSH1 0x4 DUP3 ADD MSTORE PUSH1 0x1D PUSH1 0x24 DUP3 ADD MSTORE PUSH32 0x5269736B526F757465723A20616C72656164792070726F636573736564000000 PUSH1 0x44 DUP3 ADD MSTORE PUSH1 0x64 SWAP1 REVERT JUMPDEST ISZERO PUSH2 0x955 JUMPI JUMP JUMPDEST PUSH1 0x40 MLOAD PUSH3 0x461BCD PUSH1 0xE5 SHL DUP2 MSTORE PUSH1 0x20 PUSH1 0x4 DUP3 ADD MSTORE PUSH1 0x25 PUSH1 0x24 DUP3 ADD MSTORE PUSH32 0x5269736B526F757465723A207369676E6572206973206E6F74206167656E7420 PUSH1 0x44 DUP3 ADD MSTORE PUSH5 0x37BBB732B9 PUSH1 0xD9 SHL PUSH1 0x64 DUP3 ADD MSTORE PUSH1 0x84 SWAP1 REVERT JUMPDEST PUSH4 0x4E487B71 PUSH1 0xE0 SHL PUSH1 0x0 MSTORE PUSH1 0x11 PUSH1 0x4 MSTORE PUSH1 0x24 PUSH1 0x0 REVERT JUMPDEST PUSH1 0x0 NOT DUP2 EQ PUSH2 0x9CD JUMPI PUSH1 0x1 ADD SWAP1 JUMP JUMPDEST PUSH2 0x9A8 JUMP JUMPDEST SWAP1 SWAP2 PUSH1 0x60 SWAP3 DUP3 MSTORE PUSH1 0x40 PUSH1 0x20 DUP4 ADD MSTORE PUSH2 0x9F9 DUP2 MLOAD DUP1 SWAP3 DUP2 PUSH1 0x40 DUP7 ADD MSTORE PUSH1 0x20 DUP7 DUP7 ADD SWAP2 ADD PUSH2 0x763 JUMP JUMPDEST PUSH1 0x1F ADD PUSH1 0x1F NOT AND ADD ADD SWAP1 JUMP JUMPDEST SWAP1 CALLDATALOAD SWAP1 PUSH1 0x1E NOT DUP2 CALLDATASIZE SUB ADD DUP3 SLT ISZERO PUSH2 0x191 JUMPI ADD DUP1 CALLDATALOAD SWAP1 PUSH1 0x1 PUSH1 0x1 PUSH1 0x40 SHL SUB DUP3 GT PUSH2 0x191 JUMPI PUSH1 0x20 ADD SWAP2 DUP2 CALLDATASIZE SUB DUP4 SGT PUSH2 0x191 JUMPI JUMP JUMPDEST SWAP7 SWAP6 SWAP5 SWAP1 PUSH1 0x60 SWAP5 SWAP3 PUSH2 0xA68 SWAP5 PUSH2 0xA5A SWAP3 DUP11 MSTORE PUSH1 0x80 PUSH1 0x20 DUP12 ADD MSTORE PUSH1 0x80 DUP11 ADD SWAP2 PUSH2 0x849 JUMP JUMPDEST SWAP2 DUP8 DUP4 SUB PUSH1 0x40 DUP10 ADD MSTORE PUSH2 0x849 JUMP JUMPDEST SWAP4 ADD MSTORE JUMP JUMPDEST CALLDATALOAD PUSH2 0xA77 DUP2 PUSH2 0x1BF JUMP JUMPDEST SWAP1 JUMP JUMPDEST SWAP1 SWAP2 PUSH2 0xB06 SWAP4 SWAP3 PUSH2 0xA91 PUSH1 0xE0 DUP5 ADD CALLDATALOAD TIMESTAMP GT ISZERO PUSH2 0x86A JUMP JUMPDEST DUP3 CALLDATALOAD PUSH2 0xAB6 PUSH2 0xAAA DUP3 PUSH1 0x0 MSTORE PUSH1 0xA PUSH1 0x20 MSTORE PUSH1 0x40 PUSH1 0x0 KECCAK256 SWAP1 JUMP JUMPDEST SLOAD PUSH1 0xC0 DUP7 ADD CALLDATALOAD EQ PUSH2 0x8B6 JUMP JUMPDEST PUSH2 0xB12 PUSH2 0xB0D PUSH2 0xAC5 DUP7 PUSH2 0xCB2 JUMP JUMPDEST SWAP8 DUP9 SWAP5 PUSH2 0xAF5 PUSH2 0xAF0 PUSH2 0xAEC PUSH2 0xAE5 DUP10 PUSH1 0x0 MSTORE PUSH1 0x9 PUSH1 0x20 MSTORE PUSH1 0x40 PUSH1 0x0 KECCAK256 SWAP1 JUMP JUMPDEST SLOAD PUSH1 0xFF AND SWAP1 JUMP JUMPDEST ISZERO SWAP1 JUMP JUMPDEST PUSH2 0x902 JUMP JUMPDEST PUSH2 0xAFE DUP6 PUSH2 0xF0C JUMP JUMPDEST SWAP7 CALLDATASIZE SWAP2 PUSH2 0x72C JUMP JUMPDEST DUP5 DUP7 PUSH2 0xFE4 JUMP JUMPDEST PUSH2 0x94E JUMP JUMPDEST PUSH2 0xB1B DUP5 PUSH2 0x121C JUMP JUMPDEST SWAP1 PUSH2 0xB40 PUSH2 0xB33 DUP6 PUSH1 0x0 MSTORE PUSH1 0x9 PUSH1 0x20 MSTORE PUSH1 0x40 PUSH1 0x0 KECCAK256 SWAP1 JUMP JUMPDEST DUP1 SLOAD PUSH1 0xFF NOT AND PUSH1 0x1 OR SWAP1 SSTORE JUMP JUMPDEST PUSH2 0xB54 DUP4 PUSH1 0x0 MSTORE PUSH1 0xA PUSH1 0x20 MSTORE PUSH1 0x40 PUSH1 0x0 KECCAK256 SWAP1 JUMP JUMPDEST PUSH2 0xB5E DUP2 SLOAD PUSH2 0x9BE JUMP JUMPDEST SWAP1 SSTORE ISZERO PUSH2 0xC71 JUMPI POP PUSH2 0xBDF SWAP1 PUSH1 0x40 DUP6 ADD SWAP1 PUSH32 0xDA0AC845197F6EE8B8B1298CF0183F48A9264E9F83356F144B10F7661FA16127 PUSH1 0x60 DUP8 ADD CALLDATALOAD PUSH2 0xBAA PUSH2 0xBA2 DUP6 DUP11 PUSH2 0xA05 JUMP JUMPDEST SWAP1 DUP4 DUP7 PUSH2 0x135D JUMP JUMPDEST PUSH2 0xBC3 PUSH2 0xBBA PUSH1 0x20 DUP11 ADD DUP11 PUSH2 0xA05 JUMP JUMPDEST SWAP2 SWAP1 SWAP6 DUP11 PUSH2 0xA05 JUMP JUMPDEST SWAP7 SWAP1 SWAP3 PUSH1 0x1 DUP1 PUSH1 0xA0 SHL SUB SWAP8 PUSH1 0x40 MLOAD SWAP5 DUP6 SWAP5 DUP11 DUP14 AND SWAP10 DUP13 DUP8 PUSH2 0xA37 JUMP JUMPDEST SUB SWAP1 LOG3 PUSH1 0x1 SLOAD PUSH2 0xBFF SWAP1 PUSH1 0x1 PUSH1 0x1 PUSH1 0xA0 SHL SUB AND JUMPDEST PUSH1 0x1 PUSH1 0x1 PUSH1 0xA0 SHL SUB AND SWAP1 JUMP JUMPDEST AND ISZERO ISZERO DUP1 PUSH2 0xC59 JUMPI JUMPDEST DUP1 PUSH2 0xC41 JUMPI JUMPDEST DUP1 PUSH2 0xC33 JUMPI JUMPDEST PUSH2 0xC22 JUMPI JUMPDEST POP POP POP PUSH1 0x1 SWAP2 SWAP1 JUMP JUMPDEST PUSH2 0xC2B SWAP3 PUSH2 0x15D8 JUMP JUMPDEST CODESIZE DUP1 DUP4 PUSH2 0xC19 JUMP JUMPDEST POP PUSH2 0x140 DUP4 ADD CALLDATALOAD ISZERO ISZERO PUSH2 0xC14 JUMP JUMPDEST POP PUSH2 0xC52 PUSH2 0xBF3 PUSH2 0x120 DUP6 ADD PUSH2 0xA6D JUMP JUMPDEST ISZERO ISZERO PUSH2 0xC0E JUMP JUMPDEST POP PUSH2 0xC6A PUSH2 0xBF3 PUSH2 0x100 DUP6 ADD PUSH2 0xA6D JUMP JUMPDEST ISZERO ISZERO PUSH2 0xC08 JUMP JUMPDEST SWAP1 SWAP4 POP PUSH32 0xD344D458E98402D70FF8C192EEB985BC45059D53F0EC4D4306687D59D3AC6ABF SWAP3 POP PUSH2 0xCA9 SWAP2 POP PUSH1 0x40 MLOAD SWAP2 DUP3 SWAP2 DUP8 DUP4 PUSH2 0x9D2 JUMP JUMPDEST SUB SWAP1 LOG2 PUSH1 0x0 SWAP2 SWAP1 JUMP JUMPDEST PUSH2 0xE38 PUSH2 0xE44 PUSH1 0x20 SWAP3 PUSH2 0xCD1 PUSH2 0xCCA DUP6 DUP4 ADD DUP4 PUSH2 0xA05 JUMP JUMPDEST CALLDATASIZE SWAP2 PUSH2 0x72C JUMP JUMPDEST DUP5 DUP2 MLOAD SWAP2 ADD KECCAK256 SWAP1 PUSH2 0xCE8 PUSH2 0xCCA PUSH1 0x40 DUP4 ADD DUP4 PUSH2 0xA05 JUMP JUMPDEST DUP6 DUP2 MLOAD SWAP2 ADD KECCAK256 SWAP1 PUSH2 0xDDA PUSH2 0xD02 PUSH2 0xCCA PUSH1 0xA0 DUP5 ADD DUP5 PUSH2 0xA05 JUMP JUMPDEST DUP8 DUP2 MLOAD SWAP2 ADD KECCAK256 PUSH2 0xD15 PUSH2 0x100 DUP5 ADD PUSH2 0xA6D JUMP JUMPDEST SWAP5 PUSH2 0xD23 PUSH2 0x120 DUP6 ADD PUSH2 0xA6D JUMP JUMPDEST PUSH1 0x40 MLOAD SWAP7 DUP8 SWAP6 DUP12 DUP8 ADD SWAP8 PUSH2 0x160 DUP3 ADD CALLDATALOAD SWAP6 PUSH2 0x140 DUP4 ADD CALLDATALOAD SWAP6 PUSH1 0xE0 DUP5 ADD CALLDATALOAD SWAP4 PUSH1 0xC0 DUP2 ADD CALLDATALOAD SWAP4 PUSH1 0x80 DUP3 ADD CALLDATALOAD SWAP3 DUP14 PUSH1 0x60 DUP5 ADD CALLDATALOAD SWAP4 CALLDATALOAD SWAP1 SWAP9 SWAP7 SWAP4 SWAP1 SWAP13 SWAP12 SWAP11 SWAP8 SWAP5 SWAP2 SWAP3 PUSH2 0x180 SWAP11 SWAP7 SWAP4 PUSH2 0x1A0 DUP12 ADD SWAP15 PUSH32 0xB3E3FEB75FDBF40CD7B823FA7B0B1B32DE8F8D6BF2BE6E16F1A9EEDFC559B611 DUP13 MSTORE PUSH1 0x20 DUP13 ADD MSTORE PUSH1 0x40 DUP12 ADD MSTORE PUSH1 0x60 DUP11 ADD MSTORE PUSH1 0x80 DUP10 ADD MSTORE PUSH1 0xA0 DUP9 ADD MSTORE PUSH1 0xC0 DUP8 ADD MSTORE PUSH1 0xE0 DUP7 ADD MSTORE PUSH2 0x100 DUP6 ADD MSTORE PUSH1 0x1 DUP1 PUSH1 0xA0 SHL SUB DUP1 SWAP3 AND PUSH2 0x120 DUP6 ADD MSTORE AND PUSH2 0x140 DUP4 ADD MSTORE PUSH2 0x160 DUP3 ADD MSTORE ADD MSTORE JUMP JUMPDEST SUB SWAP2 PUSH2 0xDEE PUSH1 0x1F NOT SWAP4 DUP5 DUP2 ADD DUP4 MSTORE DUP3 PUSH2 0x6F0 JUMP JUMPDEST MLOAD SWAP1 KECCAK256 PUSH1 0x40 MLOAD PUSH2 0x1901 PUSH1 0xF0 SHL SWAP6 DUP2 ADD SWAP6 DUP7 MSTORE PUSH32 0x0 PUSH1 0x2 DUP8 ADD MSTORE PUSH1 0x22 DUP7 ADD SWAP2 SWAP1 SWAP2 MSTORE SWAP3 DUP4 SWAP1 PUSH1 0x42 DUP7 ADD SWAP1 JUMP JUMPDEST SUB SWAP1 DUP2 ADD DUP4 MSTORE DUP3 PUSH2 0x6F0 JUMP JUMPDEST MLOAD SWAP1 KECCAK256 SWAP1 JUMP JUMPDEST DUP2 PUSH1 0x1F DUP3 ADD SLT ISZERO PUSH2 0x191 JUMPI DUP1 MLOAD PUSH2 0xE60 DUP2 PUSH2 0x711 JUMP JUMPDEST SWAP3 PUSH2 0xE6E PUSH1 0x40 MLOAD SWAP5 DUP6 PUSH2 0x6F0 JUMP JUMPDEST DUP2 DUP5 MSTORE PUSH1 0x20 DUP3 DUP5 ADD ADD GT PUSH2 0x191 JUMPI PUSH2 0xA77 SWAP2 PUSH1 0x20 DUP1 DUP6 ADD SWAP2 ADD PUSH2 0x763 JUMP JUMPDEST SWAP1 SWAP2 PUSH1 0xE0 DUP3 DUP5 SUB SLT PUSH2 0x191 JUMPI DUP2 MLOAD PUSH1 0x1 PUSH1 0x1 PUSH1 0x40 SHL SUB SWAP1 DUP2 DUP2 GT PUSH2 0x191 JUMPI DUP5 PUSH2 0xEB6 SWAP2 DUP6 ADD PUSH2 0xE4A JUMP JUMPDEST SWAP4 PUSH1 0x20 DUP5 ADD MLOAD SWAP2 DUP3 GT PUSH2 0x191 JUMPI PUSH2 0xECE SWAP2 DUP5 ADD PUSH2 0xE4A JUMP JUMPDEST SWAP2 PUSH1 0x40 DUP2 ADD MLOAD PUSH2 0xEDD DUP2 PUSH2 0x1BF JUMP JUMPDEST SWAP2 PUSH1 0x60 DUP3 ADD MLOAD SWAP2 PUSH1 0x80 DUP2 ADD MLOAD PUSH2 0xEF2 DUP2 PUSH2 0x3EB JUMP JUMPDEST SWAP2 PUSH1 0xC0 PUSH1 0xA0 DUP4 ADD MLOAD SWAP3 ADD MLOAD SWAP1 JUMP JUMPDEST PUSH1 0x40 MLOAD RETURNDATASIZE PUSH1 0x0 DUP3 RETURNDATACOPY RETURNDATASIZE SWAP1 REVERT JUMPDEST SWAP1 PUSH1 0x1 DUP1 PUSH1 0xA0 SHL SUB PUSH1 0x0 DUP2 DUP2 SLOAD AND SWAP4 PUSH1 0x24 PUSH1 0x40 MLOAD DUP1 SWAP7 DUP2 SWAP4 PUSH4 0x2DE5AAF7 PUSH1 0xE0 SHL DUP4 MSTORE PUSH1 0x4 DUP4 ADD MSTORE GAS STATICCALL SWAP3 DUP4 ISZERO PUSH2 0xFBF JUMPI PUSH1 0x0 SWAP4 PUSH2 0xF93 JUMPI JUMPDEST POP DUP3 AND ISZERO PUSH2 0xF4E JUMPI JUMP JUMPDEST PUSH1 0x40 MLOAD PUSH3 0x461BCD PUSH1 0xE5 SHL DUP2 MSTORE PUSH1 0x20 PUSH1 0x4 DUP3 ADD MSTORE PUSH1 0x1B PUSH1 0x24 DUP3 ADD MSTORE PUSH32 0x5269736B526F757465723A206167656E74206E6F7420666F756E640000000000 PUSH1 0x44 DUP3 ADD MSTORE PUSH1 0x64 SWAP1 REVERT JUMPDEST PUSH2 0xFB1 SWAP2 SWAP4 POP RETURNDATASIZE DUP1 PUSH1 0x0 DUP4 RETURNDATACOPY PUSH2 0xFA9 DUP2 DUP4 PUSH2 0x6F0 JUMP JUMPDEST DUP2 ADD SWAP1 PUSH2 0xE8C JUMP JUMPDEST POP POP POP POP SWAP2 POP POP SWAP2 CODESIZE PUSH2 0xF44 JUMP JUMPDEST PUSH2 0xF00 JUMP JUMPDEST SWAP1 DUP2 PUSH1 0x20 SWAP2 SUB SLT PUSH2 0x191 JUMPI MLOAD PUSH1 0x1 PUSH1 0x1 PUSH1 0xE0 SHL SUB NOT DUP2 AND DUP2 SUB PUSH2 0x191 JUMPI SWAP1 JUMP JUMPDEST SWAP2 SWAP1 SWAP2 PUSH1 0x41 DUP3 MLOAD EQ PUSH2 0x1084 JUMPI JUMPDEST DUP1 EXTCODESIZE PUSH2 0xFFF JUMPI POP POP POP PUSH1 0x0 SWAP1 JUMP JUMPDEST PUSH2 0x1023 SWAP2 PUSH1 0x20 SWAP2 PUSH1 0x40 MLOAD DUP1 DUP1 SWAP6 DUP2 SWAP5 PUSH4 0xB135D3F PUSH1 0xE1 SHL SWAP9 DUP10 DUP5 MSTORE PUSH1 0x4 DUP5 ADD PUSH2 0x9D2 JUMP JUMPDEST SUB SWAP2 PUSH1 0x1 PUSH1 0x1 PUSH1 0xA0 SHL SUB AND GAS STATICCALL PUSH1 0x0 SWAP2 DUP2 PUSH2 0x1053 JUMPI JUMPDEST POP PUSH2 0x1045 JUMPI POP POP PUSH1 0x0 SWAP1 JUMP JUMPDEST PUSH1 0x1 PUSH1 0x1 PUSH1 0xE0 SHL SUB NOT AND EQ SWAP1 JUMP JUMPDEST PUSH2 0x1076 SWAP2 SWAP3 POP PUSH1 0x20 RETURNDATASIZE PUSH1 0x20 GT PUSH2 0x107D JUMPI JUMPDEST PUSH2 0x106E DUP2 DUP4 PUSH2 0x6F0 JUMP JUMPDEST DUP2 ADD SWAP1 PUSH2 0xFC4 JUMP JUMPDEST SWAP1 CODESIZE PUSH2 0x1039 JUMP JUMPDEST POP RETURNDATASIZE PUSH2 0x1064 JUMP JUMPDEST PUSH1 0x20 DUP3 DUP2 ADD MLOAD PUSH1 0x40 DUP1 DUP6 ADD MLOAD PUSH1 0x60 DUP1 DUP8 ADD MLOAD DUP4 MLOAD DUP10 DUP2 MSTORE PUSH1 0x0 SWAP2 DUP3 BYTE DUP2 DUP9 ADD MSTORE SWAP4 DUP5 ADD SWAP5 SWAP1 SWAP5 MSTORE DUP3 ADD MSTORE DUP2 DUP1 MSTORE PUSH1 0x80 SWAP1 PUSH1 0x1 GAS STATICCALL ISZERO PUSH2 0xFBF JUMPI PUSH1 0x0 MLOAD PUSH1 0x1 PUSH1 0x1 PUSH1 0xA0 SHL SUB SWAP1 DUP2 AND DUP1 ISZERO ISZERO SWAP2 DUP3 PUSH2 0x10E4 JUMPI JUMPDEST POP POP ISZERO PUSH2 0xFF1 JUMPI POP POP POP PUSH1 0x1 SWAP1 JUMP JUMPDEST DUP4 AND EQ SWAP1 POP CODESIZE DUP1 PUSH2 0x10D5 JUMP JUMPDEST PUSH1 0x40 MLOAD SWAP1 PUSH1 0x20 DUP3 ADD DUP3 DUP2 LT PUSH1 0x1 PUSH1 0x1 PUSH1 0x40 SHL SUB DUP3 GT OR PUSH2 0x6EB JUMPI PUSH1 0x40 MSTORE PUSH1 0x0 DUP3 MSTORE JUMP JUMPDEST PUSH1 0x40 MLOAD SWAP1 PUSH2 0x1120 DUP3 PUSH2 0x6D0 JUMP JUMPDEST PUSH1 0x18 DUP3 MSTORE PUSH32 0x436F6E666964656E63652062656C6F77206D696E696D756D0000000000000000 PUSH1 0x20 DUP4 ADD MSTORE JUMP JUMPDEST PUSH1 0x40 MLOAD SWAP1 PUSH2 0x1159 DUP3 PUSH2 0x6D0 JUMP JUMPDEST PUSH1 0x1A DUP3 MSTORE PUSH32 0x457863656564732073696E676C65207472616465206C696D6974000000000000 PUSH1 0x20 DUP4 ADD MSTORE JUMP JUMPDEST PUSH1 0x40 MLOAD SWAP1 PUSH2 0x1192 DUP3 PUSH2 0x6D0 JUMP JUMPDEST PUSH1 0x16 DUP3 MSTORE PUSH22 0x151BDAD95B881B9BDD081A5B88185B1B1BDDDB1A5CDD PUSH1 0x52 SHL PUSH1 0x20 DUP4 ADD MSTORE JUMP JUMPDEST PUSH1 0x40 MLOAD SWAP1 PUSH2 0x11C4 DUP3 PUSH2 0x6D0 JUMP JUMPDEST PUSH1 0x18 DUP3 MSTORE PUSH32 0x4461696C79206C6F7373206C696D697420726561636865640000000000000000 PUSH1 0x20 DUP4 ADD MSTORE JUMP JUMPDEST PUSH1 0x40 MLOAD SWAP1 PUSH2 0x11FD DUP3 PUSH2 0x6D0 JUMP JUMPDEST PUSH1 0x10 DUP3 MSTORE PUSH16 0x4167656E74206E6F7420616374697665 PUSH1 0x80 SHL PUSH1 0x20 DUP4 ADD MSTORE JUMP JUMPDEST PUSH1 0x5 SLOAD PUSH1 0x80 DUP3 ADD CALLDATALOAD LT PUSH2 0x1344 JUMPI PUSH1 0x3 SLOAD PUSH1 0x60 DUP3 ADD CALLDATALOAD GT PUSH2 0x1338 JUMPI PUSH2 0x1255 PUSH2 0xAEC PUSH2 0xAE5 PUSH2 0x7F4 PUSH2 0x124F PUSH1 0x20 DUP7 ADD DUP7 PUSH2 0xA05 JUMP JUMPDEST SWAP1 PUSH2 0x1722 JUMP JUMPDEST PUSH2 0x132C JUMPI CALLDATALOAD PUSH2 0x126E DUP2 PUSH1 0x0 MSTORE PUSH1 0x8 PUSH1 0x20 MSTORE PUSH1 0x40 PUSH1 0x0 KECCAK256 SWAP1 JUMP JUMPDEST PUSH3 0x15180 TIMESTAMP DIV DUP2 SLOAD EQ SWAP1 DUP2 PUSH2 0x131B JUMPI JUMPDEST POP PUSH2 0x130F JUMPI PUSH1 0x0 DUP1 SLOAD PUSH2 0x12BE SWAP3 SWAP1 PUSH2 0x129E SWAP1 PUSH1 0x1 PUSH1 0x1 PUSH1 0xA0 SHL SUB AND PUSH2 0xBF3 JUMP JUMPDEST PUSH1 0x40 MLOAD DUP1 DUP1 SWAP6 DUP2 SWAP5 PUSH4 0x2DE5AAF7 PUSH1 0xE0 SHL DUP4 MSTORE PUSH1 0x4 DUP4 ADD SWAP2 SWAP1 PUSH1 0x20 DUP4 ADD SWAP3 MSTORE JUMP JUMPDEST SUB SWAP2 GAS STATICCALL SWAP1 DUP2 ISZERO PUSH2 0xFBF JUMPI PUSH1 0x0 SWAP2 PUSH2 0x12ED JUMPI JUMPDEST POP ISZERO PUSH2 0x12E2 JUMPI PUSH1 0x1 SWAP1 PUSH2 0xA77 PUSH2 0x10F0 JUMP JUMPDEST PUSH1 0x0 SWAP1 PUSH2 0xA77 PUSH2 0x11F0 JUMP JUMPDEST PUSH2 0x1302 SWAP2 POP RETURNDATASIZE DUP1 PUSH1 0x0 DUP4 RETURNDATACOPY PUSH2 0xFA9 DUP2 DUP4 PUSH2 0x6F0 JUMP JUMPDEST POP POP SWAP4 POP POP POP POP CODESIZE PUSH2 0x12D1 JUMP JUMPDEST POP PUSH1 0x0 SWAP1 PUSH2 0xA77 PUSH2 0x11B7 JUMP JUMPDEST PUSH1 0x1 SWAP2 POP ADD SLOAD PUSH1 0x4 SLOAD GT ISZERO CODESIZE PUSH2 0x127E JUMP JUMPDEST POP PUSH1 0x0 SWAP1 PUSH2 0xA77 PUSH2 0x1185 JUMP JUMPDEST POP PUSH1 0x0 SWAP1 PUSH2 0xA77 PUSH2 0x114C JUMP JUMPDEST POP PUSH1 0x0 SWAP1 PUSH2 0xA77 PUSH2 0x1113 JUMP JUMPDEST SWAP2 SWAP1 DUP3 ADD DUP1 SWAP3 GT PUSH2 0x9CD JUMPI JUMP JUMPDEST SWAP2 PUSH2 0x139F SWAP2 SWAP4 PUSH2 0x137D PUSH3 0x15180 TIMESTAMP DIV SWAP5 PUSH1 0x0 MSTORE PUSH1 0x8 PUSH1 0x20 MSTORE PUSH1 0x40 PUSH1 0x0 KECCAK256 SWAP1 JUMP JUMPDEST SWAP4 DUP1 DUP6 SLOAD SUB PUSH2 0x1420 JUMPI JUMPDEST POP PUSH1 0x2 DUP5 ADD PUSH2 0x1396 DUP2 SLOAD PUSH2 0x9BE JUMP JUMPDEST SWAP1 SSTORE CALLDATASIZE SWAP2 PUSH2 0x72C JUMP JUMPDEST PUSH1 0x20 DUP2 MLOAD SWAP2 ADD KECCAK256 PUSH4 0x14D15313 PUSH1 0xE2 SHL PUSH1 0x20 PUSH1 0x40 MLOAD PUSH2 0x13BC DUP2 PUSH2 0x6D0 JUMP JUMPDEST PUSH1 0x4 DUP2 MSTORE ADD MSTORE PUSH1 0xFF PUSH2 0x13D0 PUSH1 0x6 SLOAD PUSH1 0xFF AND SWAP1 JUMP JUMPDEST AND ISZERO SWAP1 DUP2 ISZERO PUSH2 0x13F6 JUMPI JUMPDEST POP PUSH2 0x13E3 JUMPI POP POP JUMP JUMPDEST PUSH1 0x1 PUSH2 0x13F2 SWAP2 ADD SWAP2 DUP3 SLOAD PUSH2 0x1350 JUMP JUMPDEST SWAP1 SSTORE JUMP JUMPDEST PUSH32 0x46E2AA85B4EA4837644E46FE22ACB44743DA12E349006C0093A61F6BF0967602 SWAP2 POP EQ CODESIZE PUSH2 0x13DA JUMP JUMPDEST DUP5 SSTORE PUSH1 0x0 PUSH1 0x1 DUP6 ADD SSTORE PUSH1 0x0 PUSH1 0x2 DUP6 ADD SSTORE CODESIZE PUSH2 0x1387 JUMP JUMPDEST PUSH1 0x1 PUSH1 0x1 PUSH1 0x40 SHL SUB DUP2 GT PUSH2 0x6EB JUMPI PUSH1 0x5 SHL PUSH1 0x20 ADD SWAP1 JUMP JUMPDEST PUSH1 0x40 MLOAD SWAP1 PUSH1 0x60 DUP3 ADD DUP3 DUP2 LT PUSH1 0x1 PUSH1 0x1 PUSH1 0x40 SHL SUB DUP3 GT OR PUSH2 0x6EB JUMPI PUSH1 0x40 MSTORE PUSH1 0x2 DUP3 MSTORE PUSH1 0x40 DUP3 PUSH1 0x20 CALLDATASIZE SWAP2 ADD CALLDATACOPY JUMP JUMPDEST PUSH4 0x4E487B71 PUSH1 0xE0 SHL PUSH1 0x0 MSTORE PUSH1 0x32 PUSH1 0x4 MSTORE PUSH1 0x24 PUSH1 0x0 REVERT JUMPDEST DUP1 MLOAD ISZERO PUSH2 0x149C JUMPI PUSH1 0x20 ADD SWAP1 JUMP JUMPDEST PUSH2 0x1479 JUMP JUMPDEST DUP1 MLOAD PUSH1 0x1 LT ISZERO PUSH2 0x149C JUMPI PUSH1 0x40 ADD SWAP1 JUMP JUMPDEST PUSH1 0x20 SWAP1 DUP2 DUP2 DUP5 SUB SLT PUSH2 0x191 JUMPI DUP1 MLOAD SWAP1 PUSH1 0x1 PUSH1 0x1 PUSH1 0x40 SHL SUB DUP3 GT PUSH2 0x191 JUMPI ADD SWAP2 DUP1 PUSH1 0x1F DUP5 ADD SLT ISZERO PUSH2 0x191 JUMPI DUP3 MLOAD PUSH2 0x14E6 DUP2 PUSH2 0x1436 JUMP JUMPDEST SWAP4 PUSH2 0x14F4 PUSH1 0x40 MLOAD SWAP6 DUP7 PUSH2 0x6F0 JUMP JUMPDEST DUP2 DUP6 MSTORE DUP4 DUP1 DUP7 ADD SWAP3 PUSH1 0x5 SHL DUP3 ADD ADD SWAP3 DUP4 GT PUSH2 0x191 JUMPI DUP4 ADD SWAP1 JUMPDEST DUP3 DUP3 LT PUSH2 0x151B JUMPI POP POP POP POP SWAP1 JUMP JUMPDEST DUP2 MLOAD DUP2 MSTORE SWAP1 DUP4 ADD SWAP1 DUP4 ADD PUSH2 0x150D JUMP JUMPDEST SWAP3 SWAP2 SWAP1 SWAP6 SWAP5 SWAP4 SWAP6 PUSH1 0xA0 DUP5 ADD SWAP1 DUP5 MSTORE PUSH1 0x20 SWAP2 PUSH1 0x20 DUP6 ADD MSTORE PUSH1 0xA0 PUSH1 0x40 DUP6 ADD MSTORE DUP3 MLOAD DUP1 SWAP2 MSTORE PUSH1 0x20 PUSH1 0xC0 DUP6 ADD SWAP4 ADD SWAP2 PUSH1 0x0 JUMPDEST DUP3 DUP2 LT PUSH2 0x1579 JUMPI POP POP POP POP SWAP1 PUSH1 0x80 SWAP2 SWAP5 PUSH1 0x1 DUP1 PUSH1 0xA0 SHL SUB AND PUSH1 0x60 DUP3 ADD MSTORE ADD MSTORE JUMP JUMPDEST DUP4 MLOAD PUSH1 0x1 PUSH1 0x1 PUSH1 0xA0 SHL SUB AND DUP6 MSTORE SWAP4 DUP2 ADD SWAP4 SWAP3 DUP2 ADD SWAP3 PUSH1 0x1 ADD PUSH2 0x1558 JUMP JUMPDEST SWAP1 PUSH1 0x40 DUP3 ADD SWAP1 DUP3 MSTORE PUSH1 0x20 PUSH1 0x60 DUP2 SWAP4 PUSH1 0x40 DUP4 DUP3 ADD MSTORE DUP6 MLOAD DUP1 SWAP5 MSTORE ADD SWAP4 ADD SWAP2 PUSH1 0x0 JUMPDEST DUP3 DUP2 LT PUSH2 0x15C4 JUMPI POP POP POP POP SWAP1 JUMP JUMPDEST DUP4 MLOAD DUP6 MSTORE SWAP4 DUP2 ADD SWAP4 SWAP3 DUP2 ADD SWAP3 PUSH1 0x1 ADD PUSH2 0x15B6 JUMP JUMPDEST PUSH1 0x0 PUSH2 0x166E SWAP3 SWAP4 PUSH2 0x15E7 PUSH2 0x144D JUMP JUMPDEST SWAP1 PUSH2 0x1610 PUSH2 0x15F8 PUSH2 0x100 DUP7 ADD PUSH2 0xA6D JUMP JUMPDEST PUSH2 0x1601 DUP5 PUSH2 0x148F JUMP JUMPDEST PUSH1 0x1 PUSH1 0x1 PUSH1 0xA0 SHL SUB SWAP1 SWAP2 AND SWAP1 MSTORE JUMP JUMPDEST PUSH2 0x1629 PUSH2 0x1620 PUSH2 0x120 DUP7 ADD PUSH2 0xA6D JUMP JUMPDEST PUSH2 0x1601 DUP5 PUSH2 0x14A1 JUMP JUMPDEST PUSH1 0x1 SLOAD PUSH2 0x163E SWAP1 PUSH1 0x1 PUSH1 0x1 PUSH1 0xA0 SHL SUB AND PUSH2 0xBF3 JUMP JUMPDEST SWAP1 DUP4 PUSH1 0x40 MLOAD DUP1 SWAP8 DUP2 SWAP6 DUP3 SWAP5 PUSH4 0x38ED1739 PUSH1 0xE0 SHL DUP5 MSTORE PUSH1 0xE0 DUP11 ADD CALLDATALOAD SWAP2 PUSH2 0x160 DUP12 ADD CALLDATALOAD PUSH2 0x140 DUP13 ADD CALLDATALOAD PUSH1 0x4 DUP8 ADD PUSH2 0x152A JUMP JUMPDEST SUB SWAP3 GAS CALL SWAP1 DUP2 ISZERO PUSH2 0xFBF JUMPI PUSH32 0xB21C6D2AD94D406A58DD91450D33BF96E7FDE06D2FFCB1969C2CCBE34BB53EF2 SWAP3 PUSH1 0x0 SWAP3 PUSH2 0x16BA JUMPI JUMPDEST POP PUSH2 0x16B5 PUSH1 0x40 MLOAD SWAP3 DUP4 SWAP3 CALLDATALOAD SWAP6 DUP4 PUSH2 0x1596 JUMP JUMPDEST SUB SWAP1 LOG2 JUMP JUMPDEST PUSH2 0x16D8 SWAP2 SWAP3 POP RETURNDATASIZE DUP1 PUSH1 0x0 DUP4 RETURNDATACOPY PUSH2 0x16D0 DUP2 DUP4 PUSH2 0x6F0 JUMP JUMPDEST DUP2 ADD SWAP1 PUSH2 0x14B1 JUMP JUMPDEST SWAP1 CODESIZE PUSH2 0x16A3 JUMP JUMPDEST SWAP1 DUP2 MLOAD DUP2 LT ISZERO PUSH2 0x149C JUMPI ADD PUSH1 0x20 ADD SWAP1 JUMP JUMPDEST SWAP1 PUSH2 0x16FA DUP3 PUSH2 0x711 JUMP JUMPDEST PUSH2 0x1707 PUSH1 0x40 MLOAD SWAP2 DUP3 PUSH2 0x6F0 JUMP JUMPDEST DUP3 DUP2 MSTORE DUP1 SWAP3 PUSH2 0x1718 PUSH1 0x1F NOT SWAP2 PUSH2 0x711 JUMP JUMPDEST ADD SWAP1 PUSH1 0x20 CALLDATASIZE SWAP2 ADD CALLDATACOPY JUMP JUMPDEST SWAP1 SWAP2 PUSH2 0x172F CALLDATASIZE DUP5 DUP5 PUSH2 0x72C JUMP JUMPDEST SWAP3 PUSH1 0x0 SWAP3 PUSH1 0x0 JUMPDEST DUP6 MLOAD DUP2 LT ISZERO PUSH2 0x17D8 JUMPI PUSH1 0x2F PUSH1 0xF8 SHL PUSH2 0x176F PUSH2 0x1762 PUSH2 0x1754 DUP5 DUP11 PUSH2 0x16DF JUMP JUMPDEST MLOAD PUSH1 0x1 PUSH1 0x1 PUSH1 0xF8 SHL SUB NOT AND SWAP1 JUMP JUMPDEST PUSH1 0x1 PUSH1 0x1 PUSH1 0xF8 SHL SUB NOT AND SWAP1 JUMP JUMPDEST EQ PUSH2 0x177C JUMPI PUSH1 0x1 ADD PUSH2 0x1736 JUMP JUMPDEST SWAP3 SWAP4 POP SWAP1 JUMPDEST DUP3 ISZERO PUSH2 0x17C8 JUMPI POP POP PUSH2 0x1792 DUP2 PUSH2 0x16F0 JUMP JUMPDEST SWAP1 PUSH1 0x0 JUMPDEST DUP2 DUP2 LT PUSH2 0x17A4 JUMPI POP SWAP1 SWAP3 POP POP JUMP JUMPDEST DUP1 PUSH2 0x17B4 PUSH2 0x1754 PUSH1 0x1 SWAP4 DUP9 PUSH2 0x16DF JUMP JUMPDEST PUSH1 0x0 BYTE PUSH2 0x17C1 DUP3 DUP7 PUSH2 0x16DF JUMP JUMPDEST MSTORE8 ADD PUSH2 0x1796 JUMP JUMPDEST SWAP1 SWAP2 POP PUSH2 0xA77 SWAP3 SWAP4 POP CALLDATASIZE SWAP2 PUSH2 0x72C JUMP JUMPDEST POP SWAP1 SWAP3 SWAP2 SWAP3 PUSH2 0x1781 JUMP INVALID LOG2 PUSH5 0x6970667358 0x22 SLT KECCAK256 SSTORE JUMPDEST PUSH4 0xB8C52AFF DUP14 PUSH20 0x6A0543C3DD5D7CCFE469FD2E6DDDAAA0EE0BB546 DUP10 0xEE STATICCALL PUSH5 0x736F6C6343 STOP ADDMOD XOR STOP CALLER "},"methodIdentifiers":{"DOMAIN_SEPARATOR()":"3644e515","TRADE_TYPEHASH()":"2bba58ac","agentDailyStats(uint256)":"1344c76e","agentNonces(uint256)":"ace1854b","agentRegistry()":"0d1cfcae","allowedTokens(string)":"fb9576da","dexRouter()":"0758d924","getAgentDailyStats(uint256)":"64ef282f","getAgentNonce(uint256)":"4cfee215","isTradeProcessed(bytes32)":"260f0608","lossAccountingMode()":"c45c9b18","maxDailyLossUsd()":"8fe9099a","maxSingleTradeUsd()":"63e93557","minConfidence()":"d52b7a14","owner()":"8da5cb5b","processedTrades(bytes32)":"91be86be","setDEXRouter(address)":"0e449f97","setLimits(uint256,uint256)":"c4590d3f","setLossAccountingMode(uint8)":"1d17d20b","setMinConfidence(uint256)":"5764390c","setTokenAllowed(string,bool)":"351f0dbe","submitTrade((uint256,string,string,uint256,uint256,string,uint256,uint256,address,address,uint256,uint256),bytes)":"efe12a0c"}}}}}