{
  "_format": "hh-sol-artifact-1",
  "contractName": "ReputationManager",
  "sourceName": "contracts/ReputationManager.sol",
  "abi": [
    {
      "inputs": [
        {
          "internalType": "address",
          "name": "_registry",
          "type": "address"
        },
        {
          "internalType": "address",
          "name": "_validationRegistry",
          "type": "address"
        }
      ],
      "stateMutability": "nonpayable",
      "type": "constructor"
    },
    {
      "anonymous": false,
      "inputs": [
        {
          "indexed": true,
          "internalType": "address",
          "name": "caller",
          "type": "address"
        },
        {
          "indexed": false,
          "internalType": "bool",
          "name": "authorized",
          "type": "bool"
        }
      ],
      "name": "AuthorizedCallerSet",
      "type": "event"
    },
    {
      "anonymous": false,
      "inputs": [
        {
          "indexed": true,
          "internalType": "uint256",
          "name": "agentId",
          "type": "uint256"
        },
        {
          "indexed": false,
          "internalType": "uint256",
          "name": "maxDrawdownBps",
          "type": "uint256"
        }
      ],
      "name": "DrawdownUpdated",
      "type": "event"
    },
    {
      "anonymous": false,
      "inputs": [
        {
          "indexed": true,
          "internalType": "uint256",
          "name": "agentId",
          "type": "uint256"
        },
        {
          "indexed": false,
          "internalType": "uint256",
          "name": "newTrustScore",
          "type": "uint256"
        },
        {
          "indexed": false,
          "internalType": "int256",
          "name": "scoreDelta",
          "type": "int256"
        },
        {
          "indexed": false,
          "internalType": "string",
          "name": "reason",
          "type": "string"
        }
      ],
      "name": "ReputationUpdated",
      "type": "event"
    },
    {
      "inputs": [],
      "name": "MAX_NEGATIVE_DELTA",
      "outputs": [
        {
          "internalType": "int256",
          "name": "",
          "type": "int256"
        }
      ],
      "stateMutability": "view",
      "type": "function"
    },
    {
      "inputs": [],
      "name": "MAX_POSITIVE_DELTA",
      "outputs": [
        {
          "internalType": "int256",
          "name": "",
          "type": "int256"
        }
      ],
      "stateMutability": "view",
      "type": "function"
    },
    {
      "inputs": [
        {
          "internalType": "uint256",
          "name": "",
          "type": "uint256"
        },
        {
          "internalType": "uint256",
          "name": "",
          "type": "uint256"
        }
      ],
      "name": "agentHistory",
      "outputs": [
        {
          "internalType": "uint256",
          "name": "agentId",
          "type": "uint256"
        },
        {
          "internalType": "string",
          "name": "tradeId",
          "type": "string"
        },
        {
          "internalType": "bool",
          "name": "profitable",
          "type": "bool"
        },
        {
          "internalType": "int256",
          "name": "pnlBps",
          "type": "int256"
        },
        {
          "internalType": "uint256",
          "name": "confidence",
          "type": "uint256"
        },
        {
          "internalType": "uint256",
          "name": "timestamp",
          "type": "uint256"
        }
      ],
      "stateMutability": "view",
      "type": "function"
    },
    {
      "inputs": [],
      "name": "agentRegistry",
      "outputs": [
        {
          "internalType": "contract AgentRegistry",
          "name": "",
          "type": "address"
        }
      ],
      "stateMutability": "view",
      "type": "function"
    },
    {
      "inputs": [
        {
          "internalType": "uint256",
          "name": "",
          "type": "uint256"
        }
      ],
      "name": "agentStats",
      "outputs": [
        {
          "internalType": "int256",
          "name": "peakPnlBps",
          "type": "int256"
        },
        {
          "internalType": "int256",
          "name": "currentPnlBps",
          "type": "int256"
        },
        {
          "internalType": "uint256",
          "name": "maxDrawdownBps",
          "type": "uint256"
        },
        {
          "internalType": "int256",
          "name": "sumPnlBps",
          "type": "int256"
        },
        {
          "internalType": "uint256",
          "name": "sumSquaredPnlBps",
          "type": "uint256"
        },
        {
          "internalType": "uint256",
          "name": "tradeCount",
          "type": "uint256"
        },
        {
          "internalType": "uint256",
          "name": "winCount",
          "type": "uint256"
        },
        {
          "internalType": "uint256",
          "name": "lossCount",
          "type": "uint256"
        },
        {
          "internalType": "uint256",
          "name": "lastUpdated",
          "type": "uint256"
        }
      ],
      "stateMutability": "view",
      "type": "function"
    },
    {
      "inputs": [
        {
          "internalType": "address",
          "name": "",
          "type": "address"
        }
      ],
      "name": "authorizedCallers",
      "outputs": [
        {
          "internalType": "bool",
          "name": "",
          "type": "bool"
        }
      ],
      "stateMutability": "view",
      "type": "function"
    },
    {
      "inputs": [
        {
          "internalType": "uint256",
          "name": "agentId",
          "type": "uint256"
        }
      ],
      "name": "getAgentHistory",
      "outputs": [
        {
          "components": [
            {
              "internalType": "uint256",
              "name": "agentId",
              "type": "uint256"
            },
            {
              "internalType": "string",
              "name": "tradeId",
              "type": "string"
            },
            {
              "internalType": "bool",
              "name": "profitable",
              "type": "bool"
            },
            {
              "internalType": "int256",
              "name": "pnlBps",
              "type": "int256"
            },
            {
              "internalType": "uint256",
              "name": "confidence",
              "type": "uint256"
            },
            {
              "internalType": "uint256",
              "name": "timestamp",
              "type": "uint256"
            }
          ],
          "internalType": "struct ReputationManager.ScoreUpdate[]",
          "name": "",
          "type": "tuple[]"
        }
      ],
      "stateMutability": "view",
      "type": "function"
    },
    {
      "inputs": [
        {
          "internalType": "uint256",
          "name": "agentId",
          "type": "uint256"
        }
      ],
      "name": "getAgentPerformance",
      "outputs": [
        {
          "internalType": "int256",
          "name": "peakPnlBps",
          "type": "int256"
        },
        {
          "internalType": "int256",
          "name": "currentPnlBps",
          "type": "int256"
        },
        {
          "internalType": "uint256",
          "name": "maxDrawdownBps",
          "type": "uint256"
        },
        {
          "internalType": "int256",
          "name": "avgPnlBps",
          "type": "int256"
        },
        {
          "internalType": "uint256",
          "name": "winRate",
          "type": "uint256"
        },
        {
          "internalType": "uint256",
          "name": "tradeCount",
          "type": "uint256"
        },
        {
          "internalType": "uint256",
          "name": "sumSquaredPnlBps",
          "type": "uint256"
        }
      ],
      "stateMutability": "view",
      "type": "function"
    },
    {
      "inputs": [
        {
          "internalType": "uint256",
          "name": "agentId",
          "type": "uint256"
        }
      ],
      "name": "getTrustScore",
      "outputs": [
        {
          "internalType": "uint256",
          "name": "",
          "type": "uint256"
        }
      ],
      "stateMutability": "view",
      "type": "function"
    },
    {
      "inputs": [],
      "name": "owner",
      "outputs": [
        {
          "internalType": "address",
          "name": "",
          "type": "address"
        }
      ],
      "stateMutability": "view",
      "type": "function"
    },
    {
      "inputs": [
        {
          "internalType": "address",
          "name": "caller",
          "type": "address"
        },
        {
          "internalType": "bool",
          "name": "authorized",
          "type": "bool"
        }
      ],
      "name": "setAuthorizedCaller",
      "outputs": [],
      "stateMutability": "nonpayable",
      "type": "function"
    },
    {
      "inputs": [
        {
          "internalType": "uint256",
          "name": "agentId",
          "type": "uint256"
        },
        {
          "internalType": "string",
          "name": "tradeId",
          "type": "string"
        },
        {
          "internalType": "bool",
          "name": "profitable",
          "type": "bool"
        },
        {
          "internalType": "int256",
          "name": "pnlBps",
          "type": "int256"
        }
      ],
      "name": "updateReputation",
      "outputs": [],
      "stateMutability": "nonpayable",
      "type": "function"
    },
    {
      "inputs": [
        {
          "internalType": "uint256",
          "name": "agentId",
          "type": "uint256"
        },
        {
          "internalType": "bool",
          "name": "profitable",
          "type": "bool"
        },
        {
          "internalType": "int256",
          "name": "pnlBps",
          "type": "int256"
        },
        {
          "internalType": "uint256",
          "name": "confidence",
          "type": "uint256"
        }
      ],
      "name": "updateReputationDirect",
      "outputs": [],
      "stateMutability": "nonpayable",
      "type": "function"
    },
    {
      "inputs": [],
      "name": "validationRegistry",
      "outputs": [
        {
          "internalType": "contract ValidationRegistry",
          "name": "",
          "type": "address"
        }
      ],
      "stateMutability": "view",
      "type": "function"
    }
  ],
  "bytecode": "0x6080346100ab57601f61155238819003918201601f19168301916001600160401b038311848410176100b05780849260409485528339810103126100ab57610052602061004b836100c6565b92016100c6565b9060018060a01b0319913383600254161760025560018060a01b03809216836000541617600055169060015416176001553360005260036020526040600020600160ff1982541617905560405161147790816100db8239f35b600080fd5b634e487b7160e01b600052604160045260246000fd5b51906001600160a01b03821682036100ab5756fe608060408181526004908136101561001657600080fd5b600092833560e01c9081630b793e0514610be9575080630d1cfcae14610bc1578063107091e5146108ae57806327ed42ac146107975780633ba1490714610623578063402add08146105a3578063454bbd29146104d35780634ae119251461043b5780634c6b993a146104125780634f005e90146103f6578063536fff6c146103b857806383f3d448146103295780638da5cb5b146103005763c22add74146100be57600080fd5b346102fc5760803660031901126102fc578135916100da610c05565b9060443591606435916100ec86611139565b80156102e8575b80156102d3575b61010390610e07565b61010e8385846111f2565b875490946001600160a01b039189908316803b156102cf5788516395359d6b60e01b81528086018b81528715156020820152604081018590529091839183919082908490829060600103925af180156102c5576102ad575b505061017381858a61129d565b878952602094838652878a209088519261018c84610d08565b8a8452895188810181811067ffffffffffffffff821117610298578b528c8152848901528615158a850152606084015260808301524260a0830152859289926024926101d89190610eec565b8a5416938851948593849263107e7a8960e31b84528301525afa92831561028e578793610257575b50507feec147b56042117961ed3d136cd43a67947c39ce0cd9d2edf9b0344fa954a4ff9361024391600014610249576102376110d9565b905b519384938461111d565b0390a280f35b610251611093565b90610239565b9080929350813d8311610287575b61026f8183610d40565b8101031261028257519083610243610200565b600080fd5b503d610265565b85513d89823e3d90fd5b604188634e487b7160e01b6000525260246000fd5b6102b690610cde565b6102c1578838610166565b8880fd5b89513d84823e3d90fd5b5080fd5b5033875260036020528487205460ff166100fa565b506002546001600160a01b031633146100f3565b8280fd5b8382346102cf57816003193601126102cf5760025490516001600160a01b039091168152602090f35b508290346102cf57602092836003193601126102fc578254825163107e7a8960e31b81528235928101929092528490829060249082906001600160a01b03165afa9283156103ad579261037e575b5051908152f35b9091508281813d83116103a6575b6103968183610d40565b8101031261028257519083610377565b503d61038c565b8251903d90823e3d90fd5b8382346102cf5760203660031901126102cf5760209160ff9082906001600160a01b036103e3610c5c565b1681526003855220541690519015158152f35b8382346102cf57816003193601126102cf576020905160058152f35b8382346102cf57816003193601126102cf5760015490516001600160a01b039091168152602090f35b5082346104d057816003193601126104d0576024359083358152836020528281209081548310156104d057509061047191610c72565b509182549161048260018501610d62565b9360ff600282015416926005600383015491830154920154926104b68151978897885260c0602089015260c0880190610c37565b941515908601526060850152608084015260a08301520390f35b80fd5b5090346102fc57816003193601126102fc576104ed610c5c565b906104f6610c05565b60025490926001600160a01b03929091831633036105605750916020917f1eff62a53441c7d0125c22f2a9a324e206b34efa41e19469d7efb9bb703d21a393169384865260038352610556828288209060ff801983541691151516179055565b519015158152a280f35b606490602086519162461bcd60e51b8352820152601c60248201527f52657075746174696f6e4d616e616765723a206e6f74206f776e6572000000006044820152fd5b5090346102fc5760203660031901126102fc578161012093823581526005602052208054926001820154926002830154906003840154908401549060058501549260068601549460086007880154970154978151998a5260208a01528801526060870152608086015260a085015260c084015260e0830152610100820152f35b509190346102cf57602090816003193601126102fc578035835280825283832091825467ffffffffffffffff811161078457855191949260059061066b83831b880185610d40565b82845286840191829686528786209186935b85851061071e575050505050508451938085019181865251809252858501868360051b8701019493965b8388106106b45786860387f35b90919293948380600192603f198a82030186528851906106e560c08351835284840151908086850152830190610c37565b9186810151151587830152606080820151908301526080808201519083015260a0809101519101529701930197019690939291936106a7565b60068a6001928d809d9a9b9d519061073582610d08565b88548252610744868a01610d62565b8483015260ff60028a015416151590820152600388015460608201528588015460808201528688015460a08201528152019401940193929896959861067d565b634e487b7160e01b855260418352602485fd5b5082346104d05760203660031901126104d057823581526005602052818120916005830154908354936001810154916002820154908783015495851590811594856000146108a75760038101548361089457600160ff1b81146000198a141661088157889005955b15610874576006015491612710928381029381850414901517156108615761084e575060e09850859004935b815197885260208801528601526060850152608084015260a083015260c0820152f35b634e487b7160e01b815260128a52602490fd5b634e487b7160e01b825260118b52602482fd5b50905060e098509361082b565b634e487b7160e01b835260118c52602483fd5b634e487b7160e01b835260128c52602483fd5b81956107ff565b50346102fc5760803660031901126102fc578282359260249081359067ffffffffffffffff91828111610adf5736602382011215610adf578082013593838511610bbd578082019181863692010111610bbd576044359384151595868603610bb9576064359161091d8b611139565b8015610ba5575b8015610b90575b61093490610e07565b6001548a516309ae52cb60e21b81526020888201819052996001600160a01b0395929091908616908c818061096c8b82018a8e610ecb565b0381855afa948515610b86578d95610b06575b505061098c84848c6111f2565b9b813b156104d0578589928f838d8c886109c160609551998a98899788966318a2787d60e11b88528701526064860191610ecb565b9183015289604483015203925af18015610afa57610ae3575b50908d92918584541697883b15610adf57848f998f908d838e8894519e8f95869485936395359d6b60e01b8552840192610a269360409194939260608201958252151560208201520152565b03925af18015610ad557918f979593918f908d8f9b999795610aaf575b8a9b9c5084610a57916101d89a9b9c61129d565b8a86528c8c52818620958c835198610a6e8a610d08565b8d8a5280610a7b81610e5d565b94610a8887519687610d40565b81865283860137830101528b870152850152606084015260808301524260a0830152610eec565b509697985050975097610ac28391610cde565b6102cf57878b978f9796958f908d610a43565b8e513d87823e3d90fd5b8480fd5b610af1909e9193929e610cde565b9c9091386109da565b8f8e51903d90823e3d90fd5b919450903d808e843e610b198184610d40565b820161010083820312610b82578c830151828111610b7e578f9082610b3f918601610e79565b50830151926060810151928311610b7e57610b6160c092610b75948301610e79565b50610b6e60a08201610ebe565b5001610ebe565b5092388061097f565b8e80fd5b8d80fd5b8e513d8f823e3d90fd5b5033895260036020528989205460ff1661092b565b506002546001600160a01b03163314610924565b8780fd5b8580fd5b8382346102cf57816003193601126102cf57905490516001600160a01b039091168152602090f35b8490346102cf57816003193601126102cf576002198152602090f35b60243590811515820361028257565b60005b838110610c275750506000910152565b8181015183820152602001610c17565b90602091610c5081518092818552858086019101610c14565b601f01601f1916010190565b600435906001600160a01b038216820361028257565b8054821015610c8e576000526006602060002091020190600090565b634e487b7160e01b600052603260045260246000fd5b90600182811c92168015610cd4575b6020831014610cbe57565b634e487b7160e01b600052602260045260246000fd5b91607f1691610cb3565b67ffffffffffffffff8111610cf257604052565b634e487b7160e01b600052604160045260246000fd5b60c0810190811067ffffffffffffffff821117610cf257604052565b6060810190811067ffffffffffffffff821117610cf257604052565b90601f8019910116810190811067ffffffffffffffff821117610cf257604052565b90604051918260008254610d7581610ca4565b90818452602094600191600181169081600014610de55750600114610da6575b505050610da492500383610d40565b565b600090815285812095935091905b818310610dcd575050610da49350820101388080610d95565b85548884018501529485019487945091830191610db4565b92505050610da494925060ff191682840152151560051b820101388080610d95565b15610e0e57565b60405162461bcd60e51b815260206004820152602160248201527f52657075746174696f6e4d616e616765723a206e6f7420617574686f72697a656044820152601960fa1b6064820152608490fd5b67ffffffffffffffff8111610cf257601f01601f191660200190565b81601f82011215610282578051610e8f81610e5d565b92610e9d6040519485610d40565b8184526020828401011161028257610ebb9160208085019101610c14565b90565b5190811515820361028257565b908060209392818452848401376000828201840152601f01601f1916010190565b805468010000000000000000811015610cf257610f10906001928382018155610c72565b92909261107d57805183558183016020808301519384519167ffffffffffffffff8311610cf257610f418454610ca4565b601f8111611032575b5080601f8411600114610fc357509180809260a0969594600598600094610fb8575b50501b916000199060031b1c19161790555b610f9d60408201511515600286019060ff801983541691151516179055565b60608101516003850155608081015160048501550151910155565b015192503880610f6c565b91939495601f1984168660005283600020936000905b82821061101b575050916005979593918560a098969410611002575b505050811b019055610f7e565b015160001960f88460031b161c19169055388080610ff5565b808886978294978701518155019601940190610fd9565b60008560005282600020601f860160051c810192848710611073575b601f0160051c019184905b83811061106857505050610f4a565b828155018490611059565b909250829061104e565b634e487b7160e01b600052600060045260246000fd5b604051906110a082610d24565b6024825263185cd95960e21b6040837f556e70726f66697461626c65207472616465202d20747275737420646563726560208201520152565b604051906110e682610d24565b6022825261195960f21b6040837f50726f66697461626c65207472616465202d20747275737420696e637265617360208201520152565b610ebb9392606092825260208201528160408201520190610c37565b60018060a01b0390600091602081845416926024604051809581936331a9108f60e11b835260048301525afa83928161117f575b5061117757505090565b163314919050565b9092506020813d6020116111b8575b8161119b60209383610d40565b810103126111b4575181811681036111b457913861116d565b8380fd5b3d915061118e565b919091600083820193841291129080158216911516176111dc57565b634e487b7160e01b600052601160045260246000fd5b909291901561126f57604b8110611254575060c86005925b13611233575b6005821361122a575b6002198083126112265750565b9150565b60059150611219565b90600181019060006001831291129080158216911516176111dc5790611210565b6037116112655760c860039261120a565b60c860019261120a565b909150604b8110611284575060021990611210565b6037116112945760011990611210565b60001990611210565b916000918383526005602052604083209160018301916112be8284546111c0565b8355600384016112cf8382546111c0565b9055600584018054906001820180921161142d57554260088501551561141557600683018054906001820180921161140157555b838112156113fc57600160ff1b81146113e85783035b80800290848112600160ff1b8214166113d4578082058114901517156113e8576004830180549182018092116113d457555491815483136113cc575b81548184820394128185128116918513901516176113b857821361137857505050565b6002018054821161138857505050565b817f4d03819da0078ad767df977c50cbd3a2a97250e2dcec0df3a04f40deb2b31d649260209255604051908152a2565b634e487b7160e01b81526011600452602490fd5b828255611355565b634e487b7160e01b85526011600452602485fd5b634e487b7160e01b84526011600452602484fd5b611319565b634e487b7160e01b86526011600452602486fd5b60078301805490600182018092116114015755611303565b634e487b7160e01b87526011600452602487fdfea2646970667358221220a66a43a0397d5664cabb4c8d0308f7067ef107c4933184fca6b87d9aaeef831d64736f6c63430008180033",
  "linkReferences": {},
  "deployedLinkReferences": {}
}