{
  "_format": "hh-sol-artifact-1",
  "contractName": "ValidationRegistry",
  "sourceName": "contracts/ValidationRegistry.sol",
  "abi": [
    {
      "inputs": [],
      "stateMutability": "nonpayable",
      "type": "constructor"
    },
    {
      "anonymous": false,
      "inputs": [
        {
          "indexed": true,
          "internalType": "string",
          "name": "tradeId",
          "type": "string"
        },
        {
          "indexed": false,
          "internalType": "bool",
          "name": "profitable",
          "type": "bool"
        },
        {
          "indexed": false,
          "internalType": "int256",
          "name": "pnlBps",
          "type": "int256"
        }
      ],
      "name": "OutcomeRecorded",
      "type": "event"
    },
    {
      "anonymous": false,
      "inputs": [
        {
          "indexed": true,
          "internalType": "uint256",
          "name": "agentId",
          "type": "uint256"
        },
        {
          "indexed": true,
          "internalType": "string",
          "name": "tradeId",
          "type": "string"
        },
        {
          "indexed": false,
          "internalType": "uint256",
          "name": "confidence",
          "type": "uint256"
        },
        {
          "indexed": false,
          "internalType": "string",
          "name": "riskCheck",
          "type": "string"
        },
        {
          "indexed": false,
          "internalType": "uint256",
          "name": "timestamp",
          "type": "uint256"
        }
      ],
      "name": "ValidationStored",
      "type": "event"
    },
    {
      "inputs": [],
      "name": "authorizedCaller",
      "outputs": [
        {
          "internalType": "address",
          "name": "",
          "type": "address"
        }
      ],
      "stateMutability": "view",
      "type": "function"
    },
    {
      "inputs": [
        {
          "internalType": "uint256",
          "name": "agentId",
          "type": "uint256"
        }
      ],
      "name": "getAgentTradeCount",
      "outputs": [
        {
          "internalType": "uint256",
          "name": "",
          "type": "uint256"
        }
      ],
      "stateMutability": "view",
      "type": "function"
    },
    {
      "inputs": [
        {
          "internalType": "uint256",
          "name": "agentId",
          "type": "uint256"
        }
      ],
      "name": "getAgentTradeIds",
      "outputs": [
        {
          "internalType": "string[]",
          "name": "",
          "type": "string[]"
        }
      ],
      "stateMutability": "view",
      "type": "function"
    },
    {
      "inputs": [
        {
          "internalType": "string",
          "name": "tradeId",
          "type": "string"
        }
      ],
      "name": "getValidation",
      "outputs": [
        {
          "internalType": "uint256",
          "name": "agentId",
          "type": "uint256"
        },
        {
          "internalType": "string",
          "name": "reason",
          "type": "string"
        },
        {
          "internalType": "uint256",
          "name": "confidence",
          "type": "uint256"
        },
        {
          "internalType": "string",
          "name": "riskCheck",
          "type": "string"
        },
        {
          "internalType": "uint256",
          "name": "timestamp",
          "type": "uint256"
        },
        {
          "internalType": "bool",
          "name": "outcomeRecorded",
          "type": "bool"
        },
        {
          "internalType": "bool",
          "name": "profitable",
          "type": "bool"
        },
        {
          "internalType": "int256",
          "name": "pnlBps",
          "type": "int256"
        }
      ],
      "stateMutability": "view",
      "type": "function"
    },
    {
      "inputs": [],
      "name": "owner",
      "outputs": [
        {
          "internalType": "address",
          "name": "",
          "type": "address"
        }
      ],
      "stateMutability": "view",
      "type": "function"
    },
    {
      "inputs": [
        {
          "internalType": "string",
          "name": "tradeId",
          "type": "string"
        },
        {
          "internalType": "bool",
          "name": "profitable",
          "type": "bool"
        },
        {
          "internalType": "int256",
          "name": "pnlBps",
          "type": "int256"
        }
      ],
      "name": "recordOutcome",
      "outputs": [],
      "stateMutability": "nonpayable",
      "type": "function"
    },
    {
      "inputs": [
        {
          "internalType": "address",
          "name": "caller",
          "type": "address"
        }
      ],
      "name": "setAuthorizedCaller",
      "outputs": [],
      "stateMutability": "nonpayable",
      "type": "function"
    },
    {
      "inputs": [
        {
          "internalType": "uint256",
          "name": "agentId",
          "type": "uint256"
        },
        {
          "internalType": "string",
          "name": "tradeId",
          "type": "string"
        },
        {
          "internalType": "string",
          "name": "reason",
          "type": "string"
        },
        {
          "internalType": "uint256",
          "name": "confidence",
          "type": "uint256"
        },
        {
          "internalType": "string",
          "name": "riskCheck",
          "type": "string"
        }
      ],
      "name": "storeValidation",
      "outputs": [],
      "stateMutability": "nonpayable",
      "type": "function"
    },
    {
      "inputs": [],
      "name": "totalValidations",
      "outputs": [
        {
          "internalType": "uint256",
          "name": "",
          "type": "uint256"
        }
      ],
      "stateMutability": "view",
      "type": "function"
    }
  ],
  "bytecode": "0x608080604052346100325760018060a01b03193381600354161760035533906004541617600455610f7190816100388239f35b600080fdfe608080604052600436101561001357600080fd5b60003560e01c90816326b94b2c14610b89575080633144f0fa146109d1578063528633ce146109a55780635fb3c2c2146108b85780637bad89501461018a5780637e83514b1461016c5780638da5cb5b1461014357806397dc97cb1461011a5763cf8fbec91461008257600080fd5b34610115576020366003190112610115576004356001600160a01b0381811691829003610115576003541633036100d0576bffffffffffffffffffffffff60a01b6004541617600455600080f35b60405162461bcd60e51b815260206004820152601d60248201527f56616c69646174696f6e52656769737472793a206e6f74206f776e65720000006044820152606490fd5b600080fd5b34610115576000366003190112610115576004546040516001600160a01b039091168152602090f35b34610115576000366003190112610115576003546040516001600160a01b039091168152602090f35b34610115576000366003190112610115576020600254604051908152f35b346101155760a0366003190112610115576024356001600160401b038111610115576101ba903690600401610c53565b6044356001600160401b038111610115576101d9903690600401610c53565b9290916084356001600160401b038111610115576101fb903690600401610c53565b93909461021d60018060a01b03806003541633149081156108aa575b50610dc0565b82156108595761024460016040518587823760208187810160008152030190200154610cc0565b6108015760648035116107ad5761025a91610eb3565b604051806101208101106001600160401b0361012083011117610611576101208101604052600435815261028f368486610e17565b9160208201928352604082015260643560608201526102af368688610e17565b60808201524260a0820152600060c0820152600060e082015260006101008201526040518385823760208185810160008152030190209181518355518051906001600160401b038211610611576103168261030d6001870154610cc0565b60018701610e5d565b602090601f831160011461073b576103479291600091836106be575b50508160011b916000199060031b1c19161790565b60018301555b60408101518051906001600160401b0382116106115761037d826103746002870154610cc0565b60028701610e5d565b602090601f83116001146106c9576103ad9291600091836106be5750508160011b916000199060031b1c19161790565b60028301555b6060810151600383015560808101518051906001600160401b038211610611576103ed826103e46004870154610cc0565b60048701610e5d565b602090601f8311600114610648578261010093600795936104249360009261063d5750508160011b916000199060031b1c19161790565b60048501555b60a0810151600585015561046c6006850160c0830151151560ff8019835416911617815560e0830151151561ff00825491151560081b169061ff001916179055565b015191015560043560005260016020526040600020805490680100000000000000008210156106115760018201808255821015610627576000526020600020016001600160401b038211610611576104ce826104c88354610cc0565b83610e5d565b600082601f81116001146105aa57806104fd9260009161059f575b508160011b916000199060031b1c19161790565b90555b6002549160001983146105895760017f61b3a0f47091b7ba3eda3cd3e4b202a6c9408706f33fa95d2235a661085d3d349301600255816040519283928337810160008152039020928260405191606435835260606020840152816060840152608083013760006080848301015242604082015260808160043594601f80199101168101030190a3005b634e487b7160e01b600052601160045260246000fd5b9050850135886104e9565b50601f19831690826000528360206000209260005b8181106105f65750106105dc575b5050600182811b019055610500565b840135600019600385901b60f8161c1916905585806105cd565b878401358555600190940193602093840193879350016105bf565b634e487b7160e01b600052604160045260246000fd5b634e487b7160e01b600052603260045260246000fd5b015190508b80610332565b906004850160005260206000209160005b601f19851681106106a6575092600794926001926101009583601f1981161061068d575b505050811b01600485015561042a565b015160001960f88460031b161c191690558a808061067d565b91926020600181928685015181550194019201610659565b015190508980610332565b9190600285016000526020600020906000935b601f1984168510610720576001945083601f19811610610707575b505050811b0160028301556103b3565b015160001960f88460031b161c191690558880806106f7565b818101518355602094850194600190930192909101906106dc565b9190600185016000526020600020906000935b601f1984168510610792576001945083601f19811610610779575b505050811b01600183015561034d565b015160001960f88460031b161c19169055888080610769565b8181015183556020948501946001909301929091019061074e565b60405162461bcd60e51b815260206004820152602660248201527f56616c69646174696f6e52656769737472793a20696e76616c696420636f6e666044820152656964656e636560d01b6064820152608490fd5b60405162461bcd60e51b815260206004820152602a60248201527f56616c69646174696f6e52656769737472793a207472616465496420616c726560448201526918591e481cdd1bdc995960b21b6064820152608490fd5b60405162461bcd60e51b8152602060048201526024808201527f56616c69646174696f6e52656769737472793a207472616465496420726571756044820152631a5c995960e21b6064820152608490fd5b905060045416331488610217565b34610115576020806003193601126101155760043560005260019060018152604060002080546001600160401b03811161061157838360405192610901828260051b0185610cfa565b8084528184018095600052826000206000915b83831061097c5750505050604051928184019082855251809152604084019160408260051b86010195926000905b83821061094f5786880387f35b9091929394838061096b839a603f198b82030186528951610c80565b999701959493919091019101610942565b90858086819a989594610991859b999b610d1b565b815201920192019250969496959395610914565b346101155760203660031901126101155760043560005260016020526020604060002054604051908152f35b34610115576060366003190112610115576004356001600160401b03811161011557610a01903690600401610c53565b90602435801515808203610115576003546044359490610a3590336001600160a01b0391821614908115610b7b5750610dc0565b60405181858237602081838101600081520301902093610a586001860154610cc0565b15610b2a57600685019384549460ff8616610ad05761ffff1990951690151560081b61ff0016176001179093557fd279284839694ebc5159956471cca902db2d8f1bd10a43ffa5a1df84c63b1037936040939086906007015581845192839283378101600081520390209382519182526020820152a2005b60405162461bcd60e51b815260206004820152602c60248201527f56616c69646174696f6e52656769737472793a206f7574636f6d6520616c726560448201526b18591e481c9958dbdc99195960a21b6064820152608490fd5b60405162461bcd60e51b815260206004820152602360248201527f56616c69646174696f6e52656769737472793a207472616465206e6f7420666f6044820152621d5b9960ea1b6064820152608490fd5b905060045416331487610217565b34610115576020366003190112610115576004356001600160401b0381116101155781610bbc6020923690600401610c53565b80918337810160008152030190208054600382015460058301549060ff6006850154610c2f600787015493610bff6004610bf860028b01610d1b565b9901610d1b565b610c1c604051998a99610100908b528060208c01528a0190610c80565b9160408901528782036060890152610c80565b936080860152818116151560a086015260081c16151560c084015260e08301520390f35b9181601f84011215610115578235916001600160401b038311610115576020838186019501011161011557565b919082519283825260005b848110610cac575050826000602080949584010152601f8019910116010190565b602081830181015184830182015201610c8b565b90600182811c92168015610cf0575b6020831014610cda57565b634e487b7160e01b600052602260045260246000fd5b91607f1691610ccf565b90601f801991011681019081106001600160401b0382111761061157604052565b90604051918260008254610d2e81610cc0565b90818452602094600191600181169081600014610d9e5750600114610d5f575b505050610d5d92500383610cfa565b565b600090815285812095935091905b818310610d86575050610d5d9350820101388080610d4e565b85548884018501529485019487945091830191610d6d565b92505050610d5d94925060ff191682840152151560051b820101388080610d4e565b15610dc757565b60405162461bcd60e51b815260206004820152602260248201527f56616c69646174696f6e52656769737472793a206e6f7420617574686f72697a604482015261195960f21b6064820152608490fd5b9291926001600160401b0382116106115760405191610e40601f8201601f191660200184610cfa565b829481845281830111610115578281602093846000960137010152565b90601f8111610e6b57505050565b6000916000526020600020906020601f850160051c83019410610ea9575b601f0160051c01915b828110610e9e57505050565b818155600101610e92565b9092508290610e89565b61010080831115610f2c576040519261012084018481106001600160401b03821117610611576040528184526020908236602087013760005b838110610efb57505050505090565b8181101561062757855181101561062757600190858101356001600160f81b03191660001a87820185015301610eec565b50610f38913691610e17565b9056fea2646970667358221220ce77ba02e70590660bd403bb195006401b3caaeb8e476dafa8ffc089aaa3221964736f6c63430008180033",
  "linkReferences": {},
  "deployedLinkReferences": {}
}