{
  "_format": "hh-sol-artifact-1",
  "contractName": "ValidationRegistry",
  "sourceName": "contracts/ValidationRegistry.sol",
  "abi": [
    {
      "inputs": [],
      "stateMutability": "nonpayable",
      "type": "constructor"
    },
    {
      "anonymous": false,
      "inputs": [
        {
          "indexed": true,
          "internalType": "string",
          "name": "tradeId",
          "type": "string"
        },
        {
          "indexed": false,
          "internalType": "bool",
          "name": "profitable",
          "type": "bool"
        },
        {
          "indexed": false,
          "internalType": "int256",
          "name": "pnlBps",
          "type": "int256"
        }
      ],
      "name": "OutcomeRecorded",
      "type": "event"
    },
    {
      "anonymous": false,
      "inputs": [
        {
          "indexed": true,
          "internalType": "uint256",
          "name": "agentId",
          "type": "uint256"
        },
        {
          "indexed": true,
          "internalType": "string",
          "name": "tradeId",
          "type": "string"
        },
        {
          "indexed": false,
          "internalType": "uint256",
          "name": "confidence",
          "type": "uint256"
        },
        {
          "indexed": false,
          "internalType": "string",
          "name": "riskCheck",
          "type": "string"
        },
        {
          "indexed": false,
          "internalType": "uint256",
          "name": "timestamp",
          "type": "uint256"
        },
        {
          "indexed": true,
          "internalType": "address",
          "name": "validator",
          "type": "address"
        }
      ],
      "name": "ValidationStored",
      "type": "event"
    },
    {
      "anonymous": false,
      "inputs": [
        {
          "indexed": true,
          "internalType": "address",
          "name": "validator",
          "type": "address"
        }
      ],
      "name": "ValidatorAdded",
      "type": "event"
    },
    {
      "anonymous": false,
      "inputs": [
        {
          "indexed": true,
          "internalType": "address",
          "name": "validator",
          "type": "address"
        }
      ],
      "name": "ValidatorRemoved",
      "type": "event"
    },
    {
      "inputs": [],
      "name": "DOMAIN_SEPARATOR",
      "outputs": [
        {
          "internalType": "bytes32",
          "name": "",
          "type": "bytes32"
        }
      ],
      "stateMutability": "view",
      "type": "function"
    },
    {
      "inputs": [],
      "name": "OUTCOME_TYPEHASH",
      "outputs": [
        {
          "internalType": "bytes32",
          "name": "",
          "type": "bytes32"
        }
      ],
      "stateMutability": "view",
      "type": "function"
    },
    {
      "inputs": [],
      "name": "VALIDATION_TYPEHASH",
      "outputs": [
        {
          "internalType": "bytes32",
          "name": "",
          "type": "bytes32"
        }
      ],
      "stateMutability": "view",
      "type": "function"
    },
    {
      "inputs": [
        {
          "internalType": "address",
          "name": "validator",
          "type": "address"
        }
      ],
      "name": "addValidator",
      "outputs": [],
      "stateMutability": "nonpayable",
      "type": "function"
    },
    {
      "inputs": [],
      "name": "authorizedCaller",
      "outputs": [
        {
          "internalType": "address",
          "name": "",
          "type": "address"
        }
      ],
      "stateMutability": "view",
      "type": "function"
    },
    {
      "inputs": [
        {
          "internalType": "address",
          "name": "",
          "type": "address"
        }
      ],
      "name": "authorizedValidators",
      "outputs": [
        {
          "internalType": "bool",
          "name": "",
          "type": "bool"
        }
      ],
      "stateMutability": "view",
      "type": "function"
    },
    {
      "inputs": [
        {
          "internalType": "uint256",
          "name": "agentId",
          "type": "uint256"
        },
        {
          "internalType": "string",
          "name": "tradeId",
          "type": "string"
        },
        {
          "internalType": "uint256",
          "name": "confidence",
          "type": "uint256"
        },
        {
          "internalType": "string",
          "name": "riskCheck",
          "type": "string"
        },
        {
          "internalType": "uint256",
          "name": "timestamp",
          "type": "uint256"
        },
        {
          "internalType": "address",
          "name": "validator",
          "type": "address"
        }
      ],
      "name": "computeArtifactHash",
      "outputs": [
        {
          "internalType": "bytes32",
          "name": "",
          "type": "bytes32"
        }
      ],
      "stateMutability": "view",
      "type": "function"
    },
    {
      "inputs": [
        {
          "internalType": "uint256",
          "name": "agentId",
          "type": "uint256"
        }
      ],
      "name": "getAgentTradeCount",
      "outputs": [
        {
          "internalType": "uint256",
          "name": "",
          "type": "uint256"
        }
      ],
      "stateMutability": "view",
      "type": "function"
    },
    {
      "inputs": [
        {
          "internalType": "uint256",
          "name": "agentId",
          "type": "uint256"
        }
      ],
      "name": "getAgentTradeIds",
      "outputs": [
        {
          "internalType": "string[]",
          "name": "",
          "type": "string[]"
        }
      ],
      "stateMutability": "view",
      "type": "function"
    },
    {
      "inputs": [
        {
          "internalType": "string",
          "name": "tradeId",
          "type": "string"
        }
      ],
      "name": "getValidation",
      "outputs": [
        {
          "internalType": "uint256",
          "name": "agentId",
          "type": "uint256"
        },
        {
          "internalType": "string",
          "name": "reason",
          "type": "string"
        },
        {
          "internalType": "uint256",
          "name": "confidence",
          "type": "uint256"
        },
        {
          "internalType": "string",
          "name": "riskCheck",
          "type": "string"
        },
        {
          "internalType": "uint256",
          "name": "timestamp",
          "type": "uint256"
        },
        {
          "internalType": "bool",
          "name": "outcomeRecorded",
          "type": "bool"
        },
        {
          "internalType": "bool",
          "name": "profitable",
          "type": "bool"
        },
        {
          "internalType": "int256",
          "name": "pnlBps",
          "type": "int256"
        }
      ],
      "stateMutability": "view",
      "type": "function"
    },
    {
      "inputs": [
        {
          "internalType": "string",
          "name": "tradeId",
          "type": "string"
        }
      ],
      "name": "getValidationArtifact",
      "outputs": [
        {
          "internalType": "address",
          "name": "validator",
          "type": "address"
        },
        {
          "internalType": "bytes",
          "name": "validatorSig",
          "type": "bytes"
        },
        {
          "internalType": "bytes32",
          "name": "artifactHash",
          "type": "bytes32"
        }
      ],
      "stateMutability": "view",
      "type": "function"
    },
    {
      "inputs": [],
      "name": "owner",
      "outputs": [
        {
          "internalType": "address",
          "name": "",
          "type": "address"
        }
      ],
      "stateMutability": "view",
      "type": "function"
    },
    {
      "inputs": [
        {
          "internalType": "string",
          "name": "tradeId",
          "type": "string"
        },
        {
          "internalType": "bool",
          "name": "profitable",
          "type": "bool"
        },
        {
          "internalType": "int256",
          "name": "pnlBps",
          "type": "int256"
        }
      ],
      "name": "recordOutcome",
      "outputs": [],
      "stateMutability": "nonpayable",
      "type": "function"
    },
    {
      "inputs": [
        {
          "internalType": "address",
          "name": "validator",
          "type": "address"
        }
      ],
      "name": "removeValidator",
      "outputs": [],
      "stateMutability": "nonpayable",
      "type": "function"
    },
    {
      "inputs": [
        {
          "internalType": "address",
          "name": "caller",
          "type": "address"
        }
      ],
      "name": "setAuthorizedCaller",
      "outputs": [],
      "stateMutability": "nonpayable",
      "type": "function"
    },
    {
      "inputs": [
        {
          "internalType": "uint256",
          "name": "agentId",
          "type": "uint256"
        },
        {
          "internalType": "string",
          "name": "tradeId",
          "type": "string"
        },
        {
          "internalType": "string",
          "name": "reason",
          "type": "string"
        },
        {
          "internalType": "uint256",
          "name": "confidence",
          "type": "uint256"
        },
        {
          "internalType": "string",
          "name": "riskCheck",
          "type": "string"
        },
        {
          "internalType": "bytes",
          "name": "validatorSig",
          "type": "bytes"
        }
      ],
      "name": "storeValidation",
      "outputs": [],
      "stateMutability": "nonpayable",
      "type": "function"
    },
    {
      "inputs": [],
      "name": "totalValidations",
      "outputs": [
        {
          "internalType": "uint256",
          "name": "",
          "type": "uint256"
        }
      ],
      "stateMutability": "view",
      "type": "function"
    },
    {
      "inputs": [
        {
          "internalType": "string",
          "name": "tradeId",
          "type": "string"
        }
      ],
      "name": "verifyValidationArtifact",
      "outputs": [
        {
          "internalType": "bool",
          "name": "valid",
          "type": "bool"
        }
      ],
      "stateMutability": "view",
      "type": "function"
    }
  ],
  "bytecode": "0x60a06040908082523461012557602060139160018060a01b03193381600454161760045533906005541617600555336000526002825283600020600160ff1982541617905561004d8161012a565b828152017f414954726164696e6756616c69646174696f6e000000000000000000000000008152206001602083516100848161012a565b82815201603160f81b81522082519060208201927f8b73c3c69bb8fe3d512ecc4cf759cc79239f7b179b0ffacaa9a75d522b39400f84528483015260608201524660808201523060a082015260a0815260c081019281841060018060401b0385111761010f57839052519020608052611701908161014682396080518181816104a501526115740152f35b634e487b7160e01b600052604160045260246000fd5b600080fd5b604081019081106001600160401b0382111761010f5760405256fe6080604052600436101561001257600080fd5b60003560e01c806326b94b2c146101375780632bec6e43146101325780633144f0fa1461012d5780633644e5151461012857806340a141ff146101235780634d238c8e1461011e5780634d50b5a414610119578063528633ce14610114578063587141631461010f5780635fb3c2c21461010a5780637e83514b146101055780638da5cb5b1461010057806392c2d8a9146100fb57806397dc97cb146100f6578063c770be69146100f1578063c868d47b146100ec578063cc1830f0146100e75763cf8fbec9146100e257600080fd5b610a3b565b6109b3565b6108f7565b610864565b61083b565b6107b0565b610787565b610769565b6106cf565b61062c565b610600565b6105c5565b610550565b6104de565b61048d565b6102fd565b6102c2565b61022c565b9181601f84011215610169578235916001600160401b038311610169576020838186019501011161016957565b600080fd5b602060031982011261016957600435906001600160401b038211610169576101989160040161013c565b9091565b919082519283825260005b8481106101c8575050826000602080949584010152601f8019910116010190565b6020818301810151848301820152016101a7565b94989796936102016102149360e09895936101009089528060208a015288019061019c565b916040870152858203606087015261019c565b966080840152151560a0830152151560c08201520152565b3461016957602061023c3661016e565b9190826040519384928337810160008152030190208054906102be60038201549260058301549060068401549060078501549260046102a760405197610290896102898160028501610adf565b038a610ba7565b6102a06040518094819301610adf565b0382610ba7565b60405197889760ff808760081c16961694896101dc565b0390f35b346101695760003660031901126101695760206040517f96095dfc37f9a66c8034a4d38d97353803bd6848d1d396679da2309ad6f185b48152f35b34610169576060366003190112610169576004356001600160401b0381116101695761032d90369060040161013c565b602435918215158303610169576004546044359190336001600160a01b039182161490811561047f575b508015610466575b61036890610be5565b6040518382823760208185810160008152030190209261039561038e6001860154610aa5565b1515610c49565b600684019160ff835416610415578360077fd279284839694ebc5159956471cca902db2d8f1bd10a43ffa5a1df84c63b1037966103f989876103e161040099600160ff19825416179055565b9061ff00825491151560081b169061ff001916179055565b0155610ca1565b604080519415158552602085019290925292a2005b60405162461bcd60e51b8152602060048201526024808201527f56616c69646174696f6e52656769737472793a20616c7265616479207265636f6044820152631c99195960e21b6064820152608490fd5b503360009081526002602052604090205460ff1661035f565b905060055416331438610357565b346101695760003660031901126101695760206040517f00000000000000000000000000000000000000000000000000000000000000008152f35b600435906001600160a01b038216820361016957565b34610169576020366003190112610169576104f76104c8565b6004546001600160a01b0391906105119083163314610cb6565b166000818152600260205260408120805460ff19169055907fe1434e25d6611e0db941968fdc97811c982ac1602e951637d206f5fdda9dd8f18280a280f35b34610169576020366003190112610169576105696104c8565b6004546001600160a01b0391906105839083163314610cb6565b166000818152600260205260408120805460ff19166001179055907fe366c1c0452ed8eec96861e9e54141ebff23c9ec89fe27b996b45f5ec38849878280a280f35b346101695760003660031901126101695760206040517f1ec7e03c4566b17698b4646a50d20fe3919bcc034624c1f7a497211439c8bc1a8152f35b346101695760203660031901126101695760043560005260016020526020604060002054604051908152f35b34610169576020366003190112610169576001600160a01b0361064d6104c8565b166000526002602052602060ff604060002054166040519015158152f35b6020808201906020835283518092526040830192602060408460051b8301019501936000915b8483106106a15750505050505090565b90919293949584806106bf600193603f198682030187528a5161019c565b9801930193019194939290610691565b346101695760208060031936011261016957600435600052600190600181526040906040600020918254916001600160401b03831161076457604051939161071d600585901b830186610ba7565b8385526000928352818320908286015b85851061074257604051806102be898261066b565b878481928451610756816102a0818a610adf565b81520193019401939161072d565b610b75565b34610169576000366003190112610169576020600354604051908152f35b34610169576000366003190112610169576004546040516001600160a01b039091168152602090f35b3461016957600960206107c23661016e565b9190826040519384928337810160008152030190206107e761038e6001830154610aa5565b60018060a01b0360088201541690610815600a8201549161080e6040518096819301610adf565b0384610ba7565b610831604051938493845260606020850152606084019061019c565b9060408301520390f35b34610169576000366003190112610169576005546040516001600160a01b039091168152602090f35b346101695760c0366003190112610169576001600160401b036024358181116101695761089590369060040161013c565b604435838111610169576108ad90369060040161013c565b608493919335858111610169576108c890369060040161013c565b92909160a435968711610169576108e66108f597369060040161013c565b96909560643593600435610d22565b005b34610169576102be6109083661016e565b906109706040518383823760208185810160008152030190209261093261038e6001860154610aa5565b83546003850154600586015460088701549092919061095e906001600160a01b03169687953691610ffb565b61096a60048901610bc8565b926114eb565b600a8301548091149283610994575b50506040519115158252509081906020820190565b6109ab935060096109a59101610bc8565b916115b5565b38808061097f565b346101695760c0366003190112610169576001600160401b03602435818111610169576109e490369060040161013c565b91606435908111610169576109fd90369060040161013c565b909260a435916001600160a01b0383168303610169576102be94610a2b9460843593604435916004356114cd565b6040519081529081906020820190565b3461016957602036600319011261016957610a546104c8565b6004546001600160a01b039190610a6e9083163314610cb6565b166bffffffffffffffffffffffff60a01b6005541617600555600080f35b6020908260405193849283378101600081520301902090565b90600182811c92168015610ad5575b6020831014610abf57565b634e487b7160e01b600052602260045260246000fd5b91607f1691610ab4565b805460009392610aee82610aa5565b91828252602093600191600181169081600014610b565750600114610b15575b5050505050565b90939495506000929192528360002092846000945b838610610b4257505050500101903880808080610b0e565b805485870183015294019385908201610b2a565b60ff19168685015250505090151560051b010191503880808080610b0e565b634e487b7160e01b600052604160045260246000fd5b61010081019081106001600160401b0382111761076457604052565b90601f801991011681019081106001600160401b0382111761076457604052565b90610be3610bdc9260405193848092610adf565b0383610ba7565b565b15610bec57565b60405162461bcd60e51b815260206004820152602260248201527f56616c69646174696f6e52656769737472793a206e6f7420617574686f72697a604482015261195960f21b6064820152608490fd5b610c469054610aa5565b90565b15610c5057565b60405162461bcd60e51b815260206004820152602360248201527f56616c69646174696f6e52656769737472793a207472616465206e6f7420666f6044820152621d5b9960ea1b6064820152608490fd5b81604051928392833781016000815203902090565b15610cbd57565b60405162461bcd60e51b815260206004820152601d60248201527f56616c69646174696f6e52656769737472793a206e6f74206f776e65720000006044820152606490fd5b6040519061018082018281106001600160401b0382111761076457604052565b8293610e58899a899c610e2b7f762ba33ad2bc68d518ae479e216850cb97a85007d56136de9bfb72c6e5e745239b869d610dfe610ea99c610ddb8f610dcb8d9e9d610e739e60018060a01b0380600454163314908115610edb575b508015610ec2575b610d8e90610be5565b610d99811515610ee9565b610db7610db16001610dab8486610a8c565b01610c3c565b15610f41565b610dc46064851115610fa0565b3691610ffb565b8c3392429261096a368a8c610ffb565b98610df9610df4610ded368a8c610ffb565b8c336115b5565b611041565b61164b565b610e06610d02565b988952610e14368d8d610ffb565b60208a015260408901528c60608901523691610ffb565b60808601524260a0860152600060c0860181905260e0860181905261010086015233610120860152610dc4565b610140830152610160820152610e6e8484610a8c565b611275565b610e918282610e8c896000526001602052604060002090565b61136e565b610ea4610e9f600354611474565b600355565b610ca1565b93610ebd6040519283923398429285611499565b0390a4565b503360009081526002602052604090205460ff16610d85565b905060055416331438610d7d565b15610ef057565b60405162461bcd60e51b8152602060048201526024808201527f56616c69646174696f6e52656769737472793a207472616465496420726571756044820152631a5c995960e21b6064820152608490fd5b15610f4857565b60405162461bcd60e51b815260206004820152602a60248201527f56616c69646174696f6e52656769737472793a207472616465496420616c726560448201526918591e481cdd1bdc995960b21b6064820152608490fd5b15610fa757565b60405162461bcd60e51b815260206004820152602660248201527f56616c69646174696f6e52656769737472793a20696e76616c696420636f6e666044820152656964656e636560d01b6064820152608490fd5b9291926001600160401b0382116107645760405191611024601f8201601f191660200184610ba7565b829481845281830111610169578281602093846000960137010152565b1561104857565b60405162461bcd60e51b815260206004820152602f60248201527f56616c69646174696f6e52656769737472793a20696e76616c69642076616c6960448201526e6461746f72207369676e617475726560881b6064820152608490fd5b90601f81116110b357505050565b6000916000526020600020906020601f850160051c830194106110f1575b601f0160051c01915b8281106110e657505050565b8181556001016110da565b90925082906110d1565b91909182516001600160401b038111610764576111228161111c8454610aa5565b846110a5565b602080601f83116001146111655750819061115693949560009261115a575b50508160011b916000199060031b1c19161790565b9055565b015190503880611141565b90601f1983169561117b85600052602060002090565b926000905b8882106111b85750508360019596971061119f575b505050811b019055565b015160001960f88460031b161c19169055388080611195565b80600185968294968601518155019501930190611180565b91909182516001600160401b038111610764576111f18161111c8454610aa5565b602080601f83116001146112245750819061115693949560009261115a5750508160011b916000199060031b1c19161790565b90601f1983169561123a85600052602060002090565b926000905b88821061125d5750508360019596971061119f57505050811b019055565b8060018596829496860151815501950193019061123f565b90610160600a91805184556112916020820151600186016110fb565b6112a26040820151600286016110fb565b606081015160038501556112bd6080820151600486016110fb565b60a0810151600585015561130d600685016112f06112de60c0850151151590565b829060ff801983541691151516179055565b60e08301511515815461ff00191690151560081b61ff0016179055565b61010081015160078501556101208101516008850180546001600160a01b0319166001600160a01b03909216919091179055611351610140820151600986016111d0565b0151910155565b634e487b7160e01b600052603260045260246000fd5b929183549368010000000000000000851015610764576001906001860180825586101561146f57600052602094602060002001926001600160401b038311610764576113c4836113be8654610aa5565b866110a5565b600091601f84116001146114045750611156939495509082916000926113f95750508160011b916000199060031b1c19161790565b013590503880611141565b9591601f1984169661141b86600052602060002090565b9382915b898310611458575050508360019596971061143e57505050811b019055565b0135600019600384901b60f8161c19169055388080611195565b84840135865594850194928101929181019161141f565b611358565b60001981146114835760010190565b634e487b7160e01b600052601160045260246000fd5b94939280604093608093885260606020890152816060890152838801376000828288010152601f8019910116850101930152565b936114e361096a92610c46999897943691610ffb565b923691610ffb565b9492939190602081519101209360208151910120906040519460208601967f96095dfc37f9a66c8034a4d38d97353803bd6848d1d396679da2309ad6f185b4885260408701526060860152608085015260a084015260c083015260018060a01b031660e082015260e0815261155f81610b8b565b51902060405161190160f01b602082019081527f000000000000000000000000000000000000000000000000000000000000000060228301526042808301939093529181526115af606282610ba7565b51902090565b916041815103611632578060806020809301519360606040840151930151926000958694604051938452851a868401526040830152606082015282805260015afa1561162657516001600160a01b03908116801515929091908361161a575b50505090565b16149050388080611614565b604051903d90823e3d90fd5b505050600090565b90815181101561146f570160200190565b610100808311156116bf576040519261012084018481106001600160401b03821117610764576040528184528136602086013760009060005b83811061169357505050505090565b8181101561146f57600190858101356001600160f81b031916841a6116b8828961163a565b5301611684565b50610c46913691610ffb56fea2646970667358221220cf5488674cd347e19eabdece636287ecba49dce6d50eb53101c3facc7d043fa364736f6c63430008180033",
  "linkReferences": {},
  "deployedLinkReferences": {}
}