{
  "_format": "hh-sol-artifact-1",
  "contractName": "ValidationRegistry",
  "sourceName": "contracts/ValidationRegistry.sol",
  "abi": [
    {
      "inputs": [
        {
          "internalType": "address",
          "name": "_agentRegistry",
          "type": "address"
        }
      ],
      "stateMutability": "nonpayable",
      "type": "constructor"
    },
    {
      "anonymous": false,
      "inputs": [
        {
          "indexed": true,
          "internalType": "string",
          "name": "tradeId",
          "type": "string"
        },
        {
          "indexed": false,
          "internalType": "bool",
          "name": "profitable",
          "type": "bool"
        },
        {
          "indexed": false,
          "internalType": "int256",
          "name": "pnlBps",
          "type": "int256"
        }
      ],
      "name": "OutcomeRecorded",
      "type": "event"
    },
    {
      "anonymous": false,
      "inputs": [
        {
          "indexed": true,
          "internalType": "uint256",
          "name": "agentId",
          "type": "uint256"
        },
        {
          "indexed": true,
          "internalType": "string",
          "name": "tradeId",
          "type": "string"
        },
        {
          "indexed": false,
          "internalType": "uint256",
          "name": "confidence",
          "type": "uint256"
        },
        {
          "indexed": false,
          "internalType": "string",
          "name": "riskCheck",
          "type": "string"
        },
        {
          "indexed": false,
          "internalType": "uint256",
          "name": "timestamp",
          "type": "uint256"
        },
        {
          "indexed": true,
          "internalType": "address",
          "name": "validator",
          "type": "address"
        }
      ],
      "name": "ValidationStored",
      "type": "event"
    },
    {
      "anonymous": false,
      "inputs": [
        {
          "indexed": true,
          "internalType": "address",
          "name": "validator",
          "type": "address"
        }
      ],
      "name": "ValidatorAdded",
      "type": "event"
    },
    {
      "anonymous": false,
      "inputs": [
        {
          "indexed": true,
          "internalType": "address",
          "name": "validator",
          "type": "address"
        }
      ],
      "name": "ValidatorRemoved",
      "type": "event"
    },
    {
      "inputs": [],
      "name": "DOMAIN_SEPARATOR",
      "outputs": [
        {
          "internalType": "bytes32",
          "name": "",
          "type": "bytes32"
        }
      ],
      "stateMutability": "view",
      "type": "function"
    },
    {
      "inputs": [],
      "name": "OUTCOME_TYPEHASH",
      "outputs": [
        {
          "internalType": "bytes32",
          "name": "",
          "type": "bytes32"
        }
      ],
      "stateMutability": "view",
      "type": "function"
    },
    {
      "inputs": [],
      "name": "VALIDATION_TYPEHASH",
      "outputs": [
        {
          "internalType": "bytes32",
          "name": "",
          "type": "bytes32"
        }
      ],
      "stateMutability": "view",
      "type": "function"
    },
    {
      "inputs": [
        {
          "internalType": "address",
          "name": "validator",
          "type": "address"
        }
      ],
      "name": "addValidator",
      "outputs": [],
      "stateMutability": "nonpayable",
      "type": "function"
    },
    {
      "inputs": [],
      "name": "agentRegistry",
      "outputs": [
        {
          "internalType": "contract IAgentRegistry",
          "name": "",
          "type": "address"
        }
      ],
      "stateMutability": "view",
      "type": "function"
    },
    {
      "inputs": [],
      "name": "authorizedCaller",
      "outputs": [
        {
          "internalType": "address",
          "name": "",
          "type": "address"
        }
      ],
      "stateMutability": "view",
      "type": "function"
    },
    {
      "inputs": [
        {
          "internalType": "address",
          "name": "",
          "type": "address"
        }
      ],
      "name": "authorizedValidators",
      "outputs": [
        {
          "internalType": "bool",
          "name": "",
          "type": "bool"
        }
      ],
      "stateMutability": "view",
      "type": "function"
    },
    {
      "inputs": [
        {
          "internalType": "uint256",
          "name": "agentId",
          "type": "uint256"
        },
        {
          "internalType": "string",
          "name": "tradeId",
          "type": "string"
        },
        {
          "internalType": "uint256",
          "name": "confidence",
          "type": "uint256"
        },
        {
          "internalType": "string",
          "name": "riskCheck",
          "type": "string"
        },
        {
          "internalType": "uint256",
          "name": "timestamp",
          "type": "uint256"
        },
        {
          "internalType": "address",
          "name": "validator",
          "type": "address"
        }
      ],
      "name": "computeArtifactHash",
      "outputs": [
        {
          "internalType": "bytes32",
          "name": "",
          "type": "bytes32"
        }
      ],
      "stateMutability": "view",
      "type": "function"
    },
    {
      "inputs": [
        {
          "internalType": "uint256",
          "name": "agentId",
          "type": "uint256"
        }
      ],
      "name": "getAgentTradeCount",
      "outputs": [
        {
          "internalType": "uint256",
          "name": "",
          "type": "uint256"
        }
      ],
      "stateMutability": "view",
      "type": "function"
    },
    {
      "inputs": [
        {
          "internalType": "uint256",
          "name": "agentId",
          "type": "uint256"
        }
      ],
      "name": "getAgentTradeIds",
      "outputs": [
        {
          "internalType": "string[]",
          "name": "",
          "type": "string[]"
        }
      ],
      "stateMutability": "view",
      "type": "function"
    },
    {
      "inputs": [
        {
          "internalType": "string",
          "name": "tradeId",
          "type": "string"
        }
      ],
      "name": "getValidation",
      "outputs": [
        {
          "internalType": "uint256",
          "name": "agentId",
          "type": "uint256"
        },
        {
          "internalType": "string",
          "name": "reason",
          "type": "string"
        },
        {
          "internalType": "uint256",
          "name": "confidence",
          "type": "uint256"
        },
        {
          "internalType": "string",
          "name": "riskCheck",
          "type": "string"
        },
        {
          "internalType": "uint256",
          "name": "timestamp",
          "type": "uint256"
        },
        {
          "internalType": "bool",
          "name": "outcomeRecorded",
          "type": "bool"
        },
        {
          "internalType": "bool",
          "name": "profitable",
          "type": "bool"
        },
        {
          "internalType": "int256",
          "name": "pnlBps",
          "type": "int256"
        }
      ],
      "stateMutability": "view",
      "type": "function"
    },
    {
      "inputs": [
        {
          "internalType": "string",
          "name": "tradeId",
          "type": "string"
        }
      ],
      "name": "getValidationArtifact",
      "outputs": [
        {
          "internalType": "address",
          "name": "validator",
          "type": "address"
        },
        {
          "internalType": "bytes",
          "name": "validatorSig",
          "type": "bytes"
        },
        {
          "internalType": "bytes32",
          "name": "artifactHash",
          "type": "bytes32"
        }
      ],
      "stateMutability": "view",
      "type": "function"
    },
    {
      "inputs": [],
      "name": "owner",
      "outputs": [
        {
          "internalType": "address",
          "name": "",
          "type": "address"
        }
      ],
      "stateMutability": "view",
      "type": "function"
    },
    {
      "inputs": [
        {
          "internalType": "string",
          "name": "tradeId",
          "type": "string"
        },
        {
          "internalType": "bool",
          "name": "profitable",
          "type": "bool"
        },
        {
          "internalType": "int256",
          "name": "pnlBps",
          "type": "int256"
        }
      ],
      "name": "recordOutcome",
      "outputs": [],
      "stateMutability": "nonpayable",
      "type": "function"
    },
    {
      "inputs": [
        {
          "internalType": "address",
          "name": "validator",
          "type": "address"
        }
      ],
      "name": "removeValidator",
      "outputs": [],
      "stateMutability": "nonpayable",
      "type": "function"
    },
    {
      "inputs": [
        {
          "internalType": "address",
          "name": "_agentRegistry",
          "type": "address"
        }
      ],
      "name": "setAgentRegistry",
      "outputs": [],
      "stateMutability": "nonpayable",
      "type": "function"
    },
    {
      "inputs": [
        {
          "internalType": "address",
          "name": "caller",
          "type": "address"
        }
      ],
      "name": "setAuthorizedCaller",
      "outputs": [],
      "stateMutability": "nonpayable",
      "type": "function"
    },
    {
      "inputs": [
        {
          "internalType": "uint256",
          "name": "agentId",
          "type": "uint256"
        },
        {
          "internalType": "string",
          "name": "tradeId",
          "type": "string"
        },
        {
          "internalType": "string",
          "name": "reason",
          "type": "string"
        },
        {
          "internalType": "uint256",
          "name": "confidence",
          "type": "uint256"
        },
        {
          "internalType": "string",
          "name": "riskCheck",
          "type": "string"
        },
        {
          "internalType": "uint256",
          "name": "timestamp",
          "type": "uint256"
        },
        {
          "internalType": "bytes",
          "name": "validatorSig",
          "type": "bytes"
        }
      ],
      "name": "storeValidation",
      "outputs": [],
      "stateMutability": "nonpayable",
      "type": "function"
    },
    {
      "inputs": [],
      "name": "totalValidations",
      "outputs": [
        {
          "internalType": "uint256",
          "name": "",
          "type": "uint256"
        }
      ],
      "stateMutability": "view",
      "type": "function"
    },
    {
      "inputs": [
        {
          "internalType": "string",
          "name": "tradeId",
          "type": "string"
        }
      ],
      "name": "verifyValidationArtifact",
      "outputs": [
        {
          "internalType": "bool",
          "name": "",
          "type": "bool"
        }
      ],
      "stateMutability": "view",
      "type": "function"
    }
  ],
  "bytecode": "0x60a03462000181576001600160401b0390601f62001bbd38819003918201601f19168301929190848411838510176200016b5781602092849260409687528339810103126200018157516001600160a01b03811690819003620001815760018060a01b0319338160045416176004553381600554161760055533600052600260205282600020600160ff198254161790556006541617600655601360208251620000a98162000186565b828152017f414954726164696e6756616c69646174696f6e0000000000000000000000000081522090600160208251620000e38162000186565b82815201603160f81b8152209080519160208301937f8b73c3c69bb8fe3d512ecc4cf759cc79239f7b179b0ffacaa9a75d522b39400f85528284015260608301524660808301523060a083015260a0825260c0820193828510908511176200016b57839052519020608052611a1a9081620001a382396080518181816104b401526117fd0152f35b634e487b7160e01b600052604160045260246000fd5b600080fd5b604081019081106001600160401b038211176200016b5760405256fe6080604052600436101561001257600080fd5b60003560e01c80630d1cfcae1461015757806326b94b2c1461015257806328342ecf1461014d5780632bec6e43146101485780633144f0fa146101435780633644e5151461013e5780633b3ed01b1461013957806340a141ff146101345780634d238c8e1461012f5780634d50b5a41461012a578063528633ce1461012557806358714163146101205780635fb3c2c21461011b5780637e83514b146101165780638da5cb5b1461011157806392c2d8a91461010c57806397dc97cb14610107578063c868d47b14610102578063cc1830f0146100fd5763cf8fbec9146100f857600080fd5b610a53565b6109bd565b6108f9565b6108d0565b610848565b61081f565b610801565b610767565b6106c1565b610695565b61065a565b6105e1565b61056b565b6104d7565b61049c565b6103a7565b61036c565b610317565b610270565b34610180576000366003190112610180576006546040516001600160a01b039091168152602090f35b600080fd5b9181601f84011215610180578235916001600160401b038311610180576020838186019501011161018057565b602060031982011261018057600435906001600160401b038211610180576101dc91600401610185565b9091565b919082519283825260005b84811061020c575050826000602080949584010152601f8019910116010190565b6020818301810151848301820152016101eb565b94989796936102456102589360e09895936101009089528060208a01528801906101e0565b91604087015285820360608701526101e0565b966080840152151560a0830152151560c08201520152565b34610180576020610280366101b2565b91908260405193849283378101600081520301902080549061030260038201549260058301549060068401549060078501549260046102eb604051976102d4896102cd8160028501610afb565b038a610bc3565b6102e46040518094819301610afb565b0382610bc3565b60405197889760ff808760081c1696169489610220565b0390f35b6001600160a01b0381160361018057565b346101805760203660031901126101805760043561033481610306565b6004546001600160a01b03919061034e9083163314610be4565b166bffffffffffffffffffffffff60a01b6006541617600655600080f35b346101805760003660031901126101805760206040517f96095dfc37f9a66c8034a4d38d97353803bd6848d1d396679da2309ad6f185b48152f35b34610180576060366003190112610180576004356001600160401b038111610180576103d7903690600401610185565b90602435801515810361018057826103fa6103f561043f95856116b9565b610c30565b610418604051828582376020818481016000815203019020546116ed565b801561047f575b801561045a575b8015610441575b61043690610c88565b60443592610cf4565b005b503360009081526002602052604090205460ff1661042d565b50600554610478906001600160a01b03165b6001600160a01b031690565b3314610426565b50600454610495906001600160a01b031661046c565b331461041f565b346101805760003660031901126101805760206040517f00000000000000000000000000000000000000000000000000000000000000008152f35b346101805760e0366003190112610180576001600160401b0360243581811161018057610508903690600401610185565b9060443583811161018057610521903690600401610185565b9290916084358581116101805761053c903690600401610185565b9160c4359687116101805761055861043f973690600401610185565b96909560a4359560643593600435610df6565b346101805760203660031901126101805760043561058881610306565b6004546001600160a01b0391906105a29083163314610be4565b166000818152600260205260408120805460ff19169055907fe1434e25d6611e0db941968fdc97811c982ac1602e951637d206f5fdda9dd8f18280a280f35b34610180576020366003190112610180576004356105fe81610306565b6004546001600160a01b0391906106189083163314610be4565b166000818152600260205260408120805460ff19166001179055907fe366c1c0452ed8eec96861e9e54141ebff23c9ec89fe27b996b45f5ec38849878280a280f35b346101805760003660031901126101805760206040517f1ec7e03c4566b17698b4646a50d20fe3919bcc034624c1f7a497211439c8bc1a8152f35b346101805760203660031901126101805760043560005260016020526020604060002054604051908152f35b34610180576020366003190112610180576004356106de81610306565b60018060a01b03166000526002602052602060ff604060002054166040519015158152f35b6020808201906020835283518092526040830192602060408460051b8301019501936000915b8483106107395750505050505090565b9091929394958480610757600193603f198682030187528a516101e0565b9801930193019194939290610729565b346101805760208060031936011261018057600435600052600190600181526040906040600020918254916001600160401b0383116107fc5760405193916107b5600585901b830186610bc3565b8385526000928352818320908286015b8585106107da57604051806103028982610703565b8784819284516107ee816102e4818a610afb565b8152019301940193916107c5565b610b91565b34610180576000366003190112610180576020600354604051908152f35b34610180576000366003190112610180576004546040516001600160a01b039091168152602090f35b346101805760096103f561087c61085e366101b2565b604093919351818582376020818381016000815203019020936116b9565b60018060a01b03600882015416906108aa600a820154916108a36040518096819301610afb565b0384610bc3565b6108c660405193849384526060602085015260608401906101e0565b9060408301520390f35b34610180576000366003190112610180576005546040516001600160a01b039091168152602090f35b346101805761030261090a366101b2565b9061097a604051838382376020818581016000815203019020926109316103f582856116b9565b835460038501549060058601549161095960018060a01b0360088901541696879536916111e0565b604051926109758461096e8160048d01610afb565b0385610bc3565b611774565b600a830154809114928361099e575b50506040519115158252509081906020820190565b6109b5935060096109af910161169c565b91611858565b388080610989565b346101805760c0366003190112610180576001600160401b03602435818111610180576109ee903690600401610185565b60643592831161018057610a2a610a4392610a36610a13610302963690600401610185565b93909260a43595610a2387610306565b36916111e0565b916084359336916111e0565b9060443590600435611774565b6040519081529081906020820190565b3461018057602036600319011261018057600435610a7081610306565b6004546001600160a01b039190610a8a9083163314610be4565b166bffffffffffffffffffffffff60a01b6005541617600555600080f35b6020908260405193849283378101600081520301902090565b90600182811c92168015610af1575b6020831014610adb57565b634e487b7160e01b600052602260045260246000fd5b91607f1691610ad0565b805460009392610b0a82610ac1565b91828252602093600191600181169081600014610b725750600114610b31575b5050505050565b90939495506000929192528360002092846000945b838610610b5e57505050500101903880808080610b2a565b805485870183015294019385908201610b46565b60ff19168685015250505090151560051b010191503880808080610b2a565b634e487b7160e01b600052604160045260246000fd5b61010081019081106001600160401b038211176107fc57604052565b90601f801991011681019081106001600160401b038211176107fc57604052565b15610beb57565b60405162461bcd60e51b815260206004820152601d60248201527f56616c69646174696f6e52656769737472793a206e6f74206f776e65720000006044820152606490fd5b15610c3757565b60405162461bcd60e51b815260206004820152602360248201527f56616c69646174696f6e52656769737472793a207472616465206e6f7420666f6044820152621d5b9960ea1b6064820152608490fd5b15610c8f57565b60405162461bcd60e51b815260206004820152602260248201527f56616c69646174696f6e52656769737472793a206e6f7420617574686f72697a604482015261195960f21b6064820152608490fd5b81604051928392833781016000815203902090565b9290919260405183828237602081858101600081520301902092610d25610d1e6001860154610ac1565b1515610c30565b600684019160ff835416610da5578360077fd279284839694ebc5159956471cca902db2d8f1bd10a43ffa5a1df84c63b103796610d898987610d71610d9099600160ff19825416179055565b9061ff00825491151560081b169061ff001916179055565b0155610cdf565b604080519415158552602085019290925292a2565b60405162461bcd60e51b8152602060048201526024808201527f56616c69646174696f6e52656769737472793a20616c7265616479207265636f6044820152631c99195960e21b6064820152608490fd5b979695999298909498939193610e0b896116ed565b8015611002575b8015610fee575b8015610fd5575b610e2990610c88565b610e34851515611016565b610e4d610e48610e4487896116b9565b1590565b61106e565b610e5a60648b11156110cd565b610e634261113e565b88101580610fbe575b610e7590611161565b888b89610e8336898b6111e0565b8d33938c3690610e92926111e0565b91610e9c95611774565b9283610ea93687866111e0565b610eb39133611858565b610ebc90611226565b610ec591611961565b92610ece6111c0565b89815293610edd3687896111e0565b6020860152604085015289606085015236610ef990888d6111e0565b608085015260a08401889052600060c0850181905260e08501819052610100850152336101208501523690610f2d926111e0565b610140830152610160820152610f438284610aa8565b90610f4d9161145a565b8181610f63876000526001602052604060002090565b91610f6d92611553565b600354610f7990611659565b600355610f8591610cdf565b936040519283923397610f989385611668565b037f762ba33ad2bc68d518ae479e216850cb97a85007d56136de9bfb72c6e5e7452391a4565b50610e75610fcb42611153565b8911159050610e6c565b503360009081526002602052604090205460ff16610e20565b506005546001600160a01b03163314610e19565b506004546001600160a01b03163314610e12565b1561101d57565b60405162461bcd60e51b8152602060048201526024808201527f56616c69646174696f6e52656769737472793a207472616465496420726571756044820152631a5c995960e21b6064820152608490fd5b1561107557565b60405162461bcd60e51b815260206004820152602a60248201527f56616c69646174696f6e52656769737472793a207472616465496420616c726560448201526918591e481cdd1bdc995960b21b6064820152608490fd5b156110d457565b60405162461bcd60e51b815260206004820152602660248201527f56616c69646174696f6e52656769737472793a20696e76616c696420636f6e666044820152656964656e636560d01b6064820152608490fd5b634e487b7160e01b600052601160045260246000fd5b6102571981019190821161114e57565b611128565b90603c820180921161114e57565b1561116857565b60405162461bcd60e51b815260206004820152602a60248201527f56616c69646174696f6e52656769737472793a2074696d657374616d70206f7560448201526974206f662072616e676560b01b6064820152608490fd5b6040519061018082018281106001600160401b038211176107fc57604052565b9291926001600160401b0382116107fc5760405191611209601f8201601f191660200184610bc3565b829481845281830111610180578281602093846000960137010152565b1561122d57565b60405162461bcd60e51b815260206004820152602f60248201527f56616c69646174696f6e52656769737472793a20696e76616c69642076616c6960448201526e6461746f72207369676e617475726560881b6064820152608490fd5b90601f811161129857505050565b6000916000526020600020906020601f850160051c830194106112d6575b601f0160051c01915b8281106112cb57505050565b8181556001016112bf565b90925082906112b6565b91909182516001600160401b0381116107fc57611307816113018454610ac1565b8461128a565b602080601f831160011461134a5750819061133b93949560009261133f575b50508160011b916000199060031b1c19161790565b9055565b015190503880611326565b90601f1983169561136085600052602060002090565b926000905b88821061139d57505083600195969710611384575b505050811b019055565b015160001960f88460031b161c1916905538808061137a565b80600185968294968601518155019501930190611365565b91909182516001600160401b0381116107fc576113d6816113018454610ac1565b602080601f83116001146114095750819061133b93949560009261133f5750508160011b916000199060031b1c19161790565b90601f1983169561141f85600052602060002090565b926000905b8882106114425750508360019596971061138457505050811b019055565b80600185968294968601518155019501930190611424565b90610160600a91805184556114766020820151600186016112e0565b6114876040820151600286016112e0565b606081015160038501556114a26080820151600486016112e0565b60a081015160058501556114f2600685016114d56114c360c0850151151590565b829060ff801983541691151516179055565b60e08301511515815461ff00191690151560081b61ff0016179055565b61010081015160078501556101208101516008850180546001600160a01b0319166001600160a01b03909216919091179055611536610140820151600986016113b5565b0151910155565b634e487b7160e01b600052603260045260246000fd5b9291835493680100000000000000008510156107fc576001906001860180825586101561165457600052602094602060002001926001600160401b0383116107fc576115a9836115a38654610ac1565b8661128a565b600091601f84116001146115e9575061133b939495509082916000926115de5750508160011b916000199060031b1c19161790565b013590503880611326565b9591601f1984169661160086600052602060002090565b9382915b89831061163d575050508360019596971061162357505050811b019055565b0135600019600384901b60f8161c1916905538808061137a565b848401358655948501949281019291810191611604565b61153d565b600019811461114e5760010190565b94939280604093608093885260606020890152816060890152838801376000828288010152601f8019910116850101930152565b906116b76116b09260405193848092610afb565b0383610bc3565b565b6116dc916020600192826040519384928337810160008152030190200154610ac1565b151590565b6040513d6000823e3d90fd5b6006546040516331a9108f60e11b815260048101929092526001600160a01b03906020908390602490829085165afa60009281611737575b50611731575050600090565b16331490565b9092506020813d60201161176c575b8161175360209383610bc3565b81010312610180575161176581610306565b9138611725565b3d9150611746565b9492939190602081519101209360208151910120906040519460208601967f96095dfc37f9a66c8034a4d38d97353803bd6848d1d396679da2309ad6f185b4885260408701526060860152608085015260a084015260c083015260018060a01b031660e082015260e081526117e881610ba7565b51902060405161190160f01b602082019081527f00000000000000000000000000000000000000000000000000000000000000006022830152604282019290925261184081606281015b03601f198101835282610bc3565b51902090565b60ff601b9116019060ff821161114e57565b91906041825103611948576020916000916040516118a7816118328782019485603c917f19457468657265756d205369676e6564204d6573736167653a0a3332000000008252601c8201520190565b519020838201516040830151606090930151841a9290601b8410611931575b906118f191604051948594859094939260ff6060936080840197845216602083015260408201520152565b838052039060015afa1561192c576000516001600160a01b039081168015159290919083611920575b50505090565b1614905038808061191a565b6116e1565b929061193f6118f192611846565b939091506118c6565b505050600090565b908151811015611654570160200190565b610100808311156119d5576040519261012084018481106001600160401b038211176107fc576040528184528136602086013760009060005b8381106119a957505050505090565b8181101561165457600190858101356001600160f81b031916841a6119ce8289611950565b530161199a565b506119e19136916111e0565b9056fea2646970667358221220705ece90202c8eeece7151855551d7fb0d296d9f40b5416ab588d48bdf4c1f9464736f6c63430008180033",
  "linkReferences": {},
  "deployedLinkReferences": {}
}